{
  "_format": "hh-sol-artifact-1",
  "contractName": "DeepFamily",
  "sourceName": "contracts/DeepFamily.sol",
  "abi": [
    {
      "inputs": [
        {
          "internalType": "address",
          "name": "_deepFamilyTokenContract",
          "type": "address"
        },
        {
          "internalType": "address",
          "name": "_personHashVerifier",
          "type": "address"
        },
        {
          "internalType": "address",
          "name": "_namePoseidonVerifier",
          "type": "address"
        }
      ],
      "stateMutability": "nonpayable",
      "type": "constructor"
    },
    {
      "inputs": [],
      "name": "AlreadyEndorsed",
      "type": "error"
    },
    {
      "inputs": [],
      "name": "BasicInfoMismatch",
      "type": "error"
    },
    {
      "inputs": [],
      "name": "CallerMismatch",
      "type": "error"
    },
    {
      "inputs": [],
      "name": "ChunkHashMismatch",
      "type": "error"
    },
    {
      "inputs": [],
      "name": "ChunkIndexOutOfRange",
      "type": "error"
    },
    {
      "inputs": [],
      "name": "DirectETHNotAccepted",
      "type": "error"
    },
    {
      "inputs": [],
      "name": "DuplicateVersion",
      "type": "error"
    },
    {
      "inputs": [],
      "name": "ERC721EnumerableForbiddenBatchMint",
      "type": "error"
    },
    {
      "inputs": [
        {
          "internalType": "address",
          "name": "sender",
          "type": "address"
        },
        {
          "internalType": "uint256",
          "name": "tokenId",
          "type": "uint256"
        },
        {
          "internalType": "address",
          "name": "owner",
          "type": "address"
        }
      ],
      "name": "ERC721IncorrectOwner",
      "type": "error"
    },
    {
      "inputs": [
        {
          "internalType": "address",
          "name": "operator",
          "type": "address"
        },
        {
          "internalType": "uint256",
          "name": "tokenId",
          "type": "uint256"
        }
      ],
      "name": "ERC721InsufficientApproval",
      "type": "error"
    },
    {
      "inputs": [
        {
          "internalType": "address",
          "name": "approver",
          "type": "address"
        }
      ],
      "name": "ERC721InvalidApprover",
      "type": "error"
    },
    {
      "inputs": [
        {
          "internalType": "address",
          "name": "operator",
          "type": "address"
        }
      ],
      "name": "ERC721InvalidOperator",
      "type": "error"
    },
    {
      "inputs": [
        {
          "internalType": "address",
          "name": "owner",
          "type": "address"
        }
      ],
      "name": "ERC721InvalidOwner",
      "type": "error"
    },
    {
      "inputs": [
        {
          "internalType": "address",
          "name": "receiver",
          "type": "address"
        }
      ],
      "name": "ERC721InvalidReceiver",
      "type": "error"
    },
    {
      "inputs": [
        {
          "internalType": "address",
          "name": "sender",
          "type": "address"
        }
      ],
      "name": "ERC721InvalidSender",
      "type": "error"
    },
    {
      "inputs": [
        {
          "internalType": "uint256",
          "name": "tokenId",
          "type": "uint256"
        }
      ],
      "name": "ERC721NonexistentToken",
      "type": "error"
    },
    {
      "inputs": [
        {
          "internalType": "address",
          "name": "owner",
          "type": "address"
        },
        {
          "internalType": "uint256",
          "name": "index",
          "type": "uint256"
        }
      ],
      "name": "ERC721OutOfBoundsIndex",
      "type": "error"
    },
    {
      "inputs": [],
      "name": "EndorsementFeeTransferFailed",
      "type": "error"
    },
    {
      "inputs": [],
      "name": "FatherAlreadySet",
      "type": "error"
    },
    {
      "inputs": [],
      "name": "InvalidBirthDay",
      "type": "error"
    },
    {
      "inputs": [],
      "name": "InvalidBirthMonth",
      "type": "error"
    },
    {
      "inputs": [],
      "name": "InvalidBirthPlace",
      "type": "error"
    },
    {
      "inputs": [],
      "name": "InvalidCIDLength",
      "type": "error"
    },
    {
      "inputs": [],
      "name": "InvalidChunkContent",
      "type": "error"
    },
    {
      "inputs": [],
      "name": "InvalidDeathDay",
      "type": "error"
    },
    {
      "inputs": [],
      "name": "InvalidDeathMonth",
      "type": "error"
    },
    {
      "inputs": [],
      "name": "InvalidDeathPlace",
      "type": "error"
    },
    {
      "inputs": [],
      "name": "InvalidFatherVersionIndex",
      "type": "error"
    },
    {
      "inputs": [],
      "name": "InvalidFullName",
      "type": "error"
    },
    {
      "inputs": [],
      "name": "InvalidMotherVersionIndex",
      "type": "error"
    },
    {
      "inputs": [],
      "name": "InvalidParentHash",
      "type": "error"
    },
    {
      "inputs": [],
      "name": "InvalidPersonHash",
      "type": "error"
    },
    {
      "inputs": [],
      "name": "InvalidStory",
      "type": "error"
    },
    {
      "inputs": [],
      "name": "InvalidTokenId",
      "type": "error"
    },
    {
      "inputs": [],
      "name": "InvalidTokenURI",
      "type": "error"
    },
    {
      "inputs": [],
      "name": "InvalidVersionIndex",
      "type": "error"
    },
    {
      "inputs": [],
      "name": "InvalidZKProof",
      "type": "error"
    },
    {
      "inputs": [],
      "name": "MotherAlreadySet",
      "type": "error"
    },
    {
      "inputs": [],
      "name": "MustBeNFTHolder",
      "type": "error"
    },
    {
      "inputs": [],
      "name": "MustEndorseVersionFirst",
      "type": "error"
    },
    {
      "inputs": [],
      "name": "NameVerifierNotSet",
      "type": "error"
    },
    {
      "inputs": [],
      "name": "NoParentUpdate",
      "type": "error"
    },
    {
      "inputs": [],
      "name": "NotEndorsed",
      "type": "error"
    },
    {
      "inputs": [
        {
          "internalType": "address",
          "name": "owner",
          "type": "address"
        }
      ],
      "name": "OwnableInvalidOwner",
      "type": "error"
    },
    {
      "inputs": [
        {
          "internalType": "address",
          "name": "account",
          "type": "address"
        }
      ],
      "name": "OwnableUnauthorizedAccount",
      "type": "error"
    },
    {
      "inputs": [],
      "name": "PageSizeExceedsLimit",
      "type": "error"
    },
    {
      "inputs": [],
      "name": "ProtocolFeeTooHigh",
      "type": "error"
    },
    {
      "inputs": [],
      "name": "ReentrancyGuardReentrantCall",
      "type": "error"
    },
    {
      "inputs": [],
      "name": "StoryAlreadySealed",
      "type": "error"
    },
    {
      "inputs": [],
      "name": "StoryNotFound",
      "type": "error"
    },
    {
      "inputs": [],
      "name": "TokenContractNotSet",
      "type": "error"
    },
    {
      "inputs": [],
      "name": "UnauthorizedParentUpdate",
      "type": "error"
    },
    {
      "inputs": [],
      "name": "VerifierNotSet",
      "type": "error"
    },
    {
      "inputs": [],
      "name": "VersionAlreadyMinted",
      "type": "error"
    },
    {
      "anonymous": false,
      "inputs": [
        {
          "indexed": true,
          "internalType": "address",
          "name": "owner",
          "type": "address"
        },
        {
          "indexed": true,
          "internalType": "address",
          "name": "approved",
          "type": "address"
        },
        {
          "indexed": true,
          "internalType": "uint256",
          "name": "tokenId",
          "type": "uint256"
        }
      ],
      "name": "Approval",
      "type": "event"
    },
    {
      "anonymous": false,
      "inputs": [
        {
          "indexed": true,
          "internalType": "address",
          "name": "owner",
          "type": "address"
        },
        {
          "indexed": true,
          "internalType": "address",
          "name": "operator",
          "type": "address"
        },
        {
          "indexed": false,
          "internalType": "bool",
          "name": "approved",
          "type": "bool"
        }
      ],
      "name": "ApprovalForAll",
      "type": "event"
    },
    {
      "anonymous": false,
      "inputs": [
        {
          "indexed": true,
          "internalType": "bytes32",
          "name": "personHash",
          "type": "bytes32"
        },
        {
          "indexed": true,
          "internalType": "address",
          "name": "user",
          "type": "address"
        },
        {
          "indexed": false,
          "internalType": "uint256",
          "name": "versionIndex",
          "type": "uint256"
        },
        {
          "indexed": false,
          "internalType": "uint256",
          "name": "timestamp",
          "type": "uint256"
        }
      ],
      "name": "EndorsementCancelled",
      "type": "event"
    },
    {
      "anonymous": false,
      "inputs": [
        {
          "indexed": true,
          "internalType": "address",
          "name": "previousOwner",
          "type": "address"
        },
        {
          "indexed": true,
          "internalType": "address",
          "name": "newOwner",
          "type": "address"
        }
      ],
      "name": "OwnershipTransferred",
      "type": "event"
    },
    {
      "anonymous": false,
      "inputs": [
        {
          "indexed": true,
          "internalType": "bytes32",
          "name": "personHash",
          "type": "bytes32"
        },
        {
          "indexed": true,
          "internalType": "address",
          "name": "prover",
          "type": "address"
        }
      ],
      "name": "PersonHashZKVerified",
      "type": "event"
    },
    {
      "anonymous": false,
      "inputs": [
        {
          "indexed": true,
          "internalType": "bytes32",
          "name": "personHash",
          "type": "bytes32"
        },
        {
          "indexed": true,
          "internalType": "uint256",
          "name": "tokenId",
          "type": "uint256"
        },
        {
          "indexed": true,
          "internalType": "address",
          "name": "owner",
          "type": "address"
        },
        {
          "indexed": false,
          "internalType": "uint256",
          "name": "versionIndex",
          "type": "uint256"
        },
        {
          "indexed": false,
          "internalType": "string",
          "name": "tokenURI",
          "type": "string"
        },
        {
          "indexed": false,
          "internalType": "uint256",
          "name": "timestamp",
          "type": "uint256"
        }
      ],
      "name": "PersonNFTMinted",
      "type": "event"
    },
    {
      "anonymous": false,
      "inputs": [
        {
          "indexed": true,
          "internalType": "bytes32",
          "name": "personHash",
          "type": "bytes32"
        },
        {
          "indexed": true,
          "internalType": "uint256",
          "name": "versionIndex",
          "type": "uint256"
        },
        {
          "indexed": false,
          "internalType": "bytes32",
          "name": "fatherHash",
          "type": "bytes32"
        },
        {
          "indexed": false,
          "internalType": "uint256",
          "name": "fatherVersionIndex",
          "type": "uint256"
        },
        {
          "indexed": false,
          "internalType": "bytes32",
          "name": "motherHash",
          "type": "bytes32"
        },
        {
          "indexed": false,
          "internalType": "uint256",
          "name": "motherVersionIndex",
          "type": "uint256"
        },
        {
          "indexed": true,
          "internalType": "address",
          "name": "updater",
          "type": "address"
        }
      ],
      "name": "PersonParentsUpdated",
      "type": "event"
    },
    {
      "anonymous": false,
      "inputs": [
        {
          "indexed": true,
          "internalType": "bytes32",
          "name": "personHash",
          "type": "bytes32"
        },
        {
          "indexed": true,
          "internalType": "uint256",
          "name": "versionIndex",
          "type": "uint256"
        },
        {
          "indexed": true,
          "internalType": "address",
          "name": "addedBy",
          "type": "address"
        },
        {
          "indexed": false,
          "internalType": "uint256",
          "name": "timestamp",
          "type": "uint256"
        },
        {
          "indexed": false,
          "internalType": "bytes32",
          "name": "fatherHash",
          "type": "bytes32"
        },
        {
          "indexed": false,
          "internalType": "uint256",
          "name": "fatherVersionIndex",
          "type": "uint256"
        },
        {
          "indexed": false,
          "internalType": "bytes32",
          "name": "motherHash",
          "type": "bytes32"
        },
        {
          "indexed": false,
          "internalType": "uint256",
          "name": "motherVersionIndex",
          "type": "uint256"
        },
        {
          "indexed": false,
          "internalType": "bytes32",
          "name": "tagHash",
          "type": "bytes32"
        }
      ],
      "name": "PersonVersionAdded",
      "type": "event"
    },
    {
      "anonymous": false,
      "inputs": [
        {
          "indexed": true,
          "internalType": "bytes32",
          "name": "personHash",
          "type": "bytes32"
        },
        {
          "indexed": true,
          "internalType": "address",
          "name": "endorser",
          "type": "address"
        },
        {
          "indexed": false,
          "internalType": "uint256",
          "name": "versionIndex",
          "type": "uint256"
        },
        {
          "indexed": false,
          "internalType": "address",
          "name": "recipient",
          "type": "address"
        },
        {
          "indexed": false,
          "internalType": "uint256",
          "name": "recipientShare",
          "type": "uint256"
        },
        {
          "indexed": false,
          "internalType": "address",
          "name": "protocolRecipient",
          "type": "address"
        },
        {
          "indexed": false,
          "internalType": "uint256",
          "name": "protocolShare",
          "type": "uint256"
        },
        {
          "indexed": false,
          "internalType": "uint256",
          "name": "endorsementFee",
          "type": "uint256"
        },
        {
          "indexed": false,
          "internalType": "uint256",
          "name": "timestamp",
          "type": "uint256"
        }
      ],
      "name": "PersonVersionEndorsed",
      "type": "event"
    },
    {
      "anonymous": false,
      "inputs": [
        {
          "indexed": false,
          "internalType": "uint256",
          "name": "previousBps",
          "type": "uint256"
        },
        {
          "indexed": false,
          "internalType": "uint256",
          "name": "newBps",
          "type": "uint256"
        }
      ],
      "name": "ProtocolEndorsementFeeUpdated",
      "type": "event"
    },
    {
      "anonymous": false,
      "inputs": [
        {
          "indexed": true,
          "internalType": "uint256",
          "name": "tokenId",
          "type": "uint256"
        },
        {
          "indexed": true,
          "internalType": "uint256",
          "name": "chunkIndex",
          "type": "uint256"
        },
        {
          "indexed": false,
          "internalType": "bytes32",
          "name": "chunkHash",
          "type": "bytes32"
        },
        {
          "indexed": true,
          "internalType": "address",
          "name": "editor",
          "type": "address"
        },
        {
          "indexed": false,
          "internalType": "uint256",
          "name": "contentLength",
          "type": "uint256"
        },
        {
          "indexed": false,
          "internalType": "uint8",
          "name": "chunkType",
          "type": "uint8"
        },
        {
          "indexed": false,
          "internalType": "string",
          "name": "attachmentCID",
          "type": "string"
        }
      ],
      "name": "StoryChunkAdded",
      "type": "event"
    },
    {
      "anonymous": false,
      "inputs": [
        {
          "indexed": true,
          "internalType": "uint256",
          "name": "tokenId",
          "type": "uint256"
        },
        {
          "indexed": false,
          "internalType": "uint256",
          "name": "totalChunks",
          "type": "uint256"
        },
        {
          "indexed": false,
          "internalType": "bytes32",
          "name": "fullStoryHash",
          "type": "bytes32"
        },
        {
          "indexed": true,
          "internalType": "address",
          "name": "sealer",
          "type": "address"
        }
      ],
      "name": "StorySealed",
      "type": "event"
    },
    {
      "anonymous": false,
      "inputs": [
        {
          "indexed": true,
          "internalType": "address",
          "name": "miner",
          "type": "address"
        },
        {
          "indexed": true,
          "internalType": "bytes32",
          "name": "personHash",
          "type": "bytes32"
        },
        {
          "indexed": true,
          "internalType": "uint256",
          "name": "versionIndex",
          "type": "uint256"
        },
        {
          "indexed": false,
          "internalType": "uint256",
          "name": "reward",
          "type": "uint256"
        }
      ],
      "name": "TokenRewardDistributed",
      "type": "event"
    },
    {
      "anonymous": false,
      "inputs": [
        {
          "indexed": true,
          "internalType": "uint256",
          "name": "tokenId",
          "type": "uint256"
        },
        {
          "indexed": true,
          "internalType": "address",
          "name": "owner",
          "type": "address"
        },
        {
          "indexed": false,
          "internalType": "string",
          "name": "oldURI",
          "type": "string"
        },
        {
          "indexed": false,
          "internalType": "string",
          "name": "newURI",
          "type": "string"
        }
      ],
      "name": "TokenURIUpdated",
      "type": "event"
    },
    {
      "anonymous": false,
      "inputs": [
        {
          "indexed": true,
          "internalType": "address",
          "name": "from",
          "type": "address"
        },
        {
          "indexed": true,
          "internalType": "address",
          "name": "to",
          "type": "address"
        },
        {
          "indexed": true,
          "internalType": "uint256",
          "name": "tokenId",
          "type": "uint256"
        }
      ],
      "name": "Transfer",
      "type": "event"
    },
    {
      "stateMutability": "payable",
      "type": "fallback"
    },
    {
      "inputs": [],
      "name": "DEEP_FAMILY_TOKEN_CONTRACT",
      "outputs": [
        {
          "internalType": "address",
          "name": "",
          "type": "address"
        }
      ],
      "stateMutability": "view",
      "type": "function"
    },
    {
      "inputs": [],
      "name": "FEE_BPS_DENOMINATOR",
      "outputs": [
        {
          "internalType": "uint256",
          "name": "",
          "type": "uint256"
        }
      ],
      "stateMutability": "view",
      "type": "function"
    },
    {
      "inputs": [],
      "name": "MAX_CHUNK_CONTENT_LENGTH",
      "outputs": [
        {
          "internalType": "uint256",
          "name": "",
          "type": "uint256"
        }
      ],
      "stateMutability": "view",
      "type": "function"
    },
    {
      "inputs": [],
      "name": "MAX_LONG_TEXT_LENGTH",
      "outputs": [
        {
          "internalType": "uint256",
          "name": "",
          "type": "uint256"
        }
      ],
      "stateMutability": "view",
      "type": "function"
    },
    {
      "inputs": [],
      "name": "MAX_QUERY_PAGE_SIZE",
      "outputs": [
        {
          "internalType": "uint256",
          "name": "",
          "type": "uint256"
        }
      ],
      "stateMutability": "view",
      "type": "function"
    },
    {
      "inputs": [],
      "name": "NAME_POSEIDON_VERIFIER",
      "outputs": [
        {
          "internalType": "address",
          "name": "",
          "type": "address"
        }
      ],
      "stateMutability": "view",
      "type": "function"
    },
    {
      "inputs": [],
      "name": "PERSON_HASH_VERIFIER",
      "outputs": [
        {
          "internalType": "address",
          "name": "",
          "type": "address"
        }
      ],
      "stateMutability": "view",
      "type": "function"
    },
    {
      "inputs": [],
      "name": "PROTOCOL_FEE_BPS_MAX",
      "outputs": [
        {
          "internalType": "uint256",
          "name": "",
          "type": "uint256"
        }
      ],
      "stateMutability": "view",
      "type": "function"
    },
    {
      "inputs": [
        {
          "internalType": "uint256[2]",
          "name": "a",
          "type": "uint256[2]"
        },
        {
          "internalType": "uint256[2][2]",
          "name": "b",
          "type": "uint256[2][2]"
        },
        {
          "internalType": "uint256[2]",
          "name": "c",
          "type": "uint256[2]"
        },
        {
          "internalType": "uint256[7]",
          "name": "publicSignals",
          "type": "uint256[7]"
        },
        {
          "internalType": "uint256",
          "name": "fatherVersionIndex",
          "type": "uint256"
        },
        {
          "internalType": "uint256",
          "name": "motherVersionIndex",
          "type": "uint256"
        },
        {
          "internalType": "bytes32",
          "name": "tagHash",
          "type": "bytes32"
        },
        {
          "internalType": "string",
          "name": "metadataCID",
          "type": "string"
        }
      ],
      "name": "addPersonZK",
      "outputs": [],
      "stateMutability": "nonpayable",
      "type": "function"
    },
    {
      "inputs": [
        {
          "internalType": "uint256",
          "name": "tokenId",
          "type": "uint256"
        },
        {
          "internalType": "uint256",
          "name": "chunkIndex",
          "type": "uint256"
        },
        {
          "internalType": "uint8",
          "name": "chunkType",
          "type": "uint8"
        },
        {
          "internalType": "string",
          "name": "content",
          "type": "string"
        },
        {
          "internalType": "string",
          "name": "attachmentCID",
          "type": "string"
        },
        {
          "internalType": "bytes32",
          "name": "expectedHash",
          "type": "bytes32"
        }
      ],
      "name": "addStoryChunk",
      "outputs": [],
      "stateMutability": "nonpayable",
      "type": "function"
    },
    {
      "inputs": [
        {
          "internalType": "address",
          "name": "to",
          "type": "address"
        },
        {
          "internalType": "uint256",
          "name": "tokenId",
          "type": "uint256"
        }
      ],
      "name": "approve",
      "outputs": [],
      "stateMutability": "nonpayable",
      "type": "function"
    },
    {
      "inputs": [
        {
          "internalType": "address",
          "name": "owner",
          "type": "address"
        }
      ],
      "name": "balanceOf",
      "outputs": [
        {
          "internalType": "uint256",
          "name": "",
          "type": "uint256"
        }
      ],
      "stateMutability": "view",
      "type": "function"
    },
    {
      "inputs": [
        {
          "internalType": "bytes32",
          "name": "personHash",
          "type": "bytes32"
        }
      ],
      "name": "cancelEndorsement",
      "outputs": [],
      "stateMutability": "nonpayable",
      "type": "function"
    },
    {
      "inputs": [
        {
          "internalType": "bytes32",
          "name": "",
          "type": "bytes32"
        },
        {
          "internalType": "uint256",
          "name": "",
          "type": "uint256"
        },
        {
          "internalType": "uint256",
          "name": "",
          "type": "uint256"
        }
      ],
      "name": "childrenOf",
      "outputs": [
        {
          "internalType": "bytes32",
          "name": "childHash",
          "type": "bytes32"
        },
        {
          "internalType": "uint256",
          "name": "childVersionIndex",
          "type": "uint256"
        }
      ],
      "stateMutability": "view",
      "type": "function"
    },
    {
      "inputs": [
        {
          "internalType": "bytes32",
          "name": "personHash",
          "type": "bytes32"
        },
        {
          "internalType": "uint256",
          "name": "versionIndex",
          "type": "uint256"
        }
      ],
      "name": "endorseVersion",
      "outputs": [],
      "stateMutability": "nonpayable",
      "type": "function"
    },
    {
      "inputs": [
        {
          "internalType": "bytes32",
          "name": "",
          "type": "bytes32"
        },
        {
          "internalType": "address",
          "name": "",
          "type": "address"
        }
      ],
      "name": "endorsedVersionIndex",
      "outputs": [
        {
          "internalType": "uint256",
          "name": "",
          "type": "uint256"
        }
      ],
      "stateMutability": "view",
      "type": "function"
    },
    {
      "inputs": [
        {
          "internalType": "uint256",
          "name": "tokenId",
          "type": "uint256"
        }
      ],
      "name": "getApproved",
      "outputs": [
        {
          "internalType": "address",
          "name": "",
          "type": "address"
        }
      ],
      "stateMutability": "view",
      "type": "function"
    },
    {
      "inputs": [
        {
          "internalType": "uint256",
          "name": "tokenId",
          "type": "uint256"
        }
      ],
      "name": "getNFTDetails",
      "outputs": [
        {
          "internalType": "bytes32",
          "name": "personHash",
          "type": "bytes32"
        },
        {
          "internalType": "uint256",
          "name": "versionIndex",
          "type": "uint256"
        },
        {
          "components": [
            {
              "internalType": "bytes32",
              "name": "personHash",
              "type": "bytes32"
            },
            {
              "internalType": "bytes32",
              "name": "fatherHash",
              "type": "bytes32"
            },
            {
              "internalType": "bytes32",
              "name": "motherHash",
              "type": "bytes32"
            },
            {
              "internalType": "uint256",
              "name": "versionIndex",
              "type": "uint256"
            },
            {
              "internalType": "uint256",
              "name": "fatherVersionIndex",
              "type": "uint256"
            },
            {
              "internalType": "uint256",
              "name": "motherVersionIndex",
              "type": "uint256"
            },
            {
              "internalType": "address",
              "name": "addedBy",
              "type": "address"
            },
            {
              "internalType": "uint96",
              "name": "timestamp",
              "type": "uint96"
            },
            {
              "internalType": "bytes32",
              "name": "tagHash",
              "type": "bytes32"
            },
            {
              "internalType": "string",
              "name": "metadataCID",
              "type": "string"
            }
          ],
          "internalType": "struct DeepFamily.PersonVersion",
          "name": "version",
          "type": "tuple"
        },
        {
          "components": [
            {
              "components": [
                {
                  "internalType": "bytes32",
                  "name": "fullNameCommitment",
                  "type": "bytes32"
                },
                {
                  "internalType": "bool",
                  "name": "isBirthBC",
                  "type": "bool"
                },
                {
                  "internalType": "uint16",
                  "name": "birthYear",
                  "type": "uint16"
                },
                {
                  "internalType": "uint8",
                  "name": "birthMonth",
                  "type": "uint8"
                },
                {
                  "internalType": "uint8",
                  "name": "birthDay",
                  "type": "uint8"
                },
                {
                  "internalType": "uint8",
                  "name": "gender",
                  "type": "uint8"
                }
              ],
              "internalType": "struct DeepFamily.PersonBasicInfo",
              "name": "basicInfo",
              "type": "tuple"
            },
            {
              "components": [
                {
                  "internalType": "string",
                  "name": "fullName",
                  "type": "string"
                },
                {
                  "internalType": "string",
                  "name": "birthPlace",
                  "type": "string"
                },
                {
                  "internalType": "bool",
                  "name": "isDeathBC",
                  "type": "bool"
                },
                {
                  "internalType": "uint16",
                  "name": "deathYear",
                  "type": "uint16"
                },
                {
                  "internalType": "uint8",
                  "name": "deathMonth",
                  "type": "uint8"
                },
                {
                  "internalType": "uint8",
                  "name": "deathDay",
                  "type": "uint8"
                },
                {
                  "internalType": "string",
                  "name": "deathPlace",
                  "type": "string"
                },
                {
                  "internalType": "string",
                  "name": "story",
                  "type": "string"
                }
              ],
              "internalType": "struct DeepFamily.PersonSupplementInfo",
              "name": "supplementInfo",
              "type": "tuple"
            }
          ],
          "internalType": "struct DeepFamily.PersonCoreInfo",
          "name": "coreInfo",
          "type": "tuple"
        },
        {
          "internalType": "uint256",
          "name": "endorsementCount",
          "type": "uint256"
        },
        {
          "internalType": "string",
          "name": "nftTokenURI",
          "type": "string"
        }
      ],
      "stateMutability": "view",
      "type": "function"
    },
    {
      "inputs": [
        {
          "components": [
            {
              "internalType": "bytes32",
              "name": "fullNameCommitment",
              "type": "bytes32"
            },
            {
              "internalType": "bool",
              "name": "isBirthBC",
              "type": "bool"
            },
            {
              "internalType": "uint16",
              "name": "birthYear",
              "type": "uint16"
            },
            {
              "internalType": "uint8",
              "name": "birthMonth",
              "type": "uint8"
            },
            {
              "internalType": "uint8",
              "name": "birthDay",
              "type": "uint8"
            },
            {
              "internalType": "uint8",
              "name": "gender",
              "type": "uint8"
            }
          ],
          "internalType": "struct DeepFamily.PersonBasicInfo",
          "name": "basicInfo",
          "type": "tuple"
        }
      ],
      "name": "getPersonHash",
      "outputs": [
        {
          "internalType": "bytes32",
          "name": "",
          "type": "bytes32"
        }
      ],
      "stateMutability": "pure",
      "type": "function"
    },
    {
      "inputs": [
        {
          "internalType": "uint256",
          "name": "tokenId",
          "type": "uint256"
        },
        {
          "internalType": "uint256",
          "name": "chunkIndex",
          "type": "uint256"
        }
      ],
      "name": "getStoryChunk",
      "outputs": [
        {
          "components": [
            {
              "internalType": "uint256",
              "name": "chunkIndex",
              "type": "uint256"
            },
            {
              "internalType": "bytes32",
              "name": "chunkHash",
              "type": "bytes32"
            },
            {
              "internalType": "string",
              "name": "content",
              "type": "string"
            },
            {
              "internalType": "uint256",
              "name": "timestamp",
              "type": "uint256"
            },
            {
              "internalType": "address",
              "name": "editor",
              "type": "address"
            },
            {
              "internalType": "uint8",
              "name": "chunkType",
              "type": "uint8"
            },
            {
              "internalType": "string",
              "name": "attachmentCID",
              "type": "string"
            }
          ],
          "internalType": "struct DeepFamily.StoryChunk",
          "name": "chunk",
          "type": "tuple"
        }
      ],
      "stateMutability": "view",
      "type": "function"
    },
    {
      "inputs": [
        {
          "internalType": "uint256",
          "name": "tokenId",
          "type": "uint256"
        }
      ],
      "name": "getStoryMetadata",
      "outputs": [
        {
          "components": [
            {
              "internalType": "uint256",
              "name": "totalChunks",
              "type": "uint256"
            },
            {
              "internalType": "bytes32",
              "name": "fullStoryHash",
              "type": "bytes32"
            },
            {
              "internalType": "uint256",
              "name": "lastUpdateTime",
              "type": "uint256"
            },
            {
              "internalType": "bool",
              "name": "isSealed",
              "type": "bool"
            },
            {
              "internalType": "uint256",
              "name": "totalLength",
              "type": "uint256"
            }
          ],
          "internalType": "struct DeepFamily.StoryMetadata",
          "name": "metadata",
          "type": "tuple"
        }
      ],
      "stateMutability": "view",
      "type": "function"
    },
    {
      "inputs": [
        {
          "internalType": "bytes32",
          "name": "personHash",
          "type": "bytes32"
        },
        {
          "internalType": "uint256",
          "name": "versionIndex",
          "type": "uint256"
        }
      ],
      "name": "getVersionDetails",
      "outputs": [
        {
          "components": [
            {
              "internalType": "bytes32",
              "name": "personHash",
              "type": "bytes32"
            },
            {
              "internalType": "bytes32",
              "name": "fatherHash",
              "type": "bytes32"
            },
            {
              "internalType": "bytes32",
              "name": "motherHash",
              "type": "bytes32"
            },
            {
              "internalType": "uint256",
              "name": "versionIndex",
              "type": "uint256"
            },
            {
              "internalType": "uint256",
              "name": "fatherVersionIndex",
              "type": "uint256"
            },
            {
              "internalType": "uint256",
              "name": "motherVersionIndex",
              "type": "uint256"
            },
            {
              "internalType": "address",
              "name": "addedBy",
              "type": "address"
            },
            {
              "internalType": "uint96",
              "name": "timestamp",
              "type": "uint96"
            },
            {
              "internalType": "bytes32",
              "name": "tagHash",
              "type": "bytes32"
            },
            {
              "internalType": "string",
              "name": "metadataCID",
              "type": "string"
            }
          ],
          "internalType": "struct DeepFamily.PersonVersion",
          "name": "version",
          "type": "tuple"
        },
        {
          "internalType": "uint256",
          "name": "endorsementCount",
          "type": "uint256"
        },
        {
          "internalType": "uint256",
          "name": "tokenId",
          "type": "uint256"
        }
      ],
      "stateMutability": "view",
      "type": "function"
    },
    {
      "inputs": [
        {
          "internalType": "address",
          "name": "owner",
          "type": "address"
        },
        {
          "internalType": "address",
          "name": "operator",
          "type": "address"
        }
      ],
      "name": "isApprovedForAll",
      "outputs": [
        {
          "internalType": "bool",
          "name": "",
          "type": "bool"
        }
      ],
      "stateMutability": "view",
      "type": "function"
    },
    {
      "inputs": [
        {
          "internalType": "bytes32",
          "name": "parentHash",
          "type": "bytes32"
        },
        {
          "internalType": "uint256",
          "name": "parentVersionIndex",
          "type": "uint256"
        },
        {
          "internalType": "uint256",
          "name": "offset",
          "type": "uint256"
        },
        {
          "internalType": "uint256",
          "name": "limit",
          "type": "uint256"
        }
      ],
      "name": "listChildren",
      "outputs": [
        {
          "internalType": "bytes32[]",
          "name": "childHashes",
          "type": "bytes32[]"
        },
        {
          "internalType": "uint256[]",
          "name": "childVersionIndices",
          "type": "uint256[]"
        },
        {
          "internalType": "uint256",
          "name": "totalCount",
          "type": "uint256"
        },
        {
          "internalType": "bool",
          "name": "hasMore",
          "type": "bool"
        },
        {
          "internalType": "uint256",
          "name": "nextOffset",
          "type": "uint256"
        }
      ],
      "stateMutability": "view",
      "type": "function"
    },
    {
      "inputs": [
        {
          "internalType": "bytes32",
          "name": "personHash",
          "type": "bytes32"
        },
        {
          "internalType": "uint256",
          "name": "offset",
          "type": "uint256"
        },
        {
          "internalType": "uint256",
          "name": "limit",
          "type": "uint256"
        }
      ],
      "name": "listPersonVersions",
      "outputs": [
        {
          "components": [
            {
              "internalType": "bytes32",
              "name": "personHash",
              "type": "bytes32"
            },
            {
              "internalType": "bytes32",
              "name": "fatherHash",
              "type": "bytes32"
            },
            {
              "internalType": "bytes32",
              "name": "motherHash",
              "type": "bytes32"
            },
            {
              "internalType": "uint256",
              "name": "versionIndex",
              "type": "uint256"
            },
            {
              "internalType": "uint256",
              "name": "fatherVersionIndex",
              "type": "uint256"
            },
            {
              "internalType": "uint256",
              "name": "motherVersionIndex",
              "type": "uint256"
            },
            {
              "internalType": "address",
              "name": "addedBy",
              "type": "address"
            },
            {
              "internalType": "uint96",
              "name": "timestamp",
              "type": "uint96"
            },
            {
              "internalType": "bytes32",
              "name": "tagHash",
              "type": "bytes32"
            },
            {
              "internalType": "string",
              "name": "metadataCID",
              "type": "string"
            }
          ],
          "internalType": "struct DeepFamily.PersonVersion[]",
          "name": "versions",
          "type": "tuple[]"
        },
        {
          "internalType": "uint256",
          "name": "totalVersions",
          "type": "uint256"
        },
        {
          "internalType": "bool",
          "name": "hasMore",
          "type": "bool"
        },
        {
          "internalType": "uint256",
          "name": "nextOffset",
          "type": "uint256"
        }
      ],
      "stateMutability": "view",
      "type": "function"
    },
    {
      "inputs": [
        {
          "internalType": "uint256",
          "name": "tokenId",
          "type": "uint256"
        },
        {
          "internalType": "uint256",
          "name": "offset",
          "type": "uint256"
        },
        {
          "internalType": "uint256",
          "name": "limit",
          "type": "uint256"
        }
      ],
      "name": "listStoryChunks",
      "outputs": [
        {
          "components": [
            {
              "internalType": "uint256",
              "name": "chunkIndex",
              "type": "uint256"
            },
            {
              "internalType": "bytes32",
              "name": "chunkHash",
              "type": "bytes32"
            },
            {
              "internalType": "string",
              "name": "content",
              "type": "string"
            },
            {
              "internalType": "uint256",
              "name": "timestamp",
              "type": "uint256"
            },
            {
              "internalType": "address",
              "name": "editor",
              "type": "address"
            },
            {
              "internalType": "uint8",
              "name": "chunkType",
              "type": "uint8"
            },
            {
              "internalType": "string",
              "name": "attachmentCID",
              "type": "string"
            }
          ],
          "internalType": "struct DeepFamily.StoryChunk[]",
          "name": "chunks",
          "type": "tuple[]"
        },
        {
          "internalType": "uint256",
          "name": "totalChunks",
          "type": "uint256"
        },
        {
          "internalType": "bool",
          "name": "hasMore",
          "type": "bool"
        },
        {
          "internalType": "uint256",
          "name": "nextOffset",
          "type": "uint256"
        }
      ],
      "stateMutability": "view",
      "type": "function"
    },
    {
      "inputs": [
        {
          "internalType": "uint256",
          "name": "tokenId",
          "type": "uint256"
        },
        {
          "internalType": "uint256",
          "name": "offset",
          "type": "uint256"
        },
        {
          "internalType": "uint256",
          "name": "limit",
          "type": "uint256"
        }
      ],
      "name": "listTokenURIHistory",
      "outputs": [
        {
          "internalType": "string[]",
          "name": "uris",
          "type": "string[]"
        },
        {
          "internalType": "uint256",
          "name": "totalCount",
          "type": "uint256"
        },
        {
          "internalType": "bool",
          "name": "hasMore",
          "type": "bool"
        },
        {
          "internalType": "uint256",
          "name": "nextOffset",
          "type": "uint256"
        }
      ],
      "stateMutability": "view",
      "type": "function"
    },
    {
      "inputs": [
        {
          "internalType": "address",
          "name": "user",
          "type": "address"
        },
        {
          "internalType": "uint256",
          "name": "offset",
          "type": "uint256"
        },
        {
          "internalType": "uint256",
          "name": "limit",
          "type": "uint256"
        }
      ],
      "name": "listUserEndorsements",
      "outputs": [
        {
          "internalType": "bytes32[]",
          "name": "personHashes",
          "type": "bytes32[]"
        },
        {
          "internalType": "uint256[]",
          "name": "versionIndices",
          "type": "uint256[]"
        },
        {
          "internalType": "uint256[]",
          "name": "endorsementCounts",
          "type": "uint256[]"
        },
        {
          "internalType": "uint256[]",
          "name": "tokenIds",
          "type": "uint256[]"
        },
        {
          "internalType": "uint256",
          "name": "totalCount",
          "type": "uint256"
        },
        {
          "internalType": "bool",
          "name": "hasMore",
          "type": "bool"
        },
        {
          "internalType": "uint256",
          "name": "nextOffset",
          "type": "uint256"
        }
      ],
      "stateMutability": "view",
      "type": "function"
    },
    {
      "inputs": [
        {
          "internalType": "bytes32",
          "name": "personHash",
          "type": "bytes32"
        },
        {
          "internalType": "uint256",
          "name": "offset",
          "type": "uint256"
        },
        {
          "internalType": "uint256",
          "name": "limit",
          "type": "uint256"
        }
      ],
      "name": "listVersionEndorsements",
      "outputs": [
        {
          "internalType": "uint256[]",
          "name": "versionIndices",
          "type": "uint256[]"
        },
        {
          "internalType": "uint256[]",
          "name": "endorsementCounts",
          "type": "uint256[]"
        },
        {
          "internalType": "uint256[]",
          "name": "tokenIds",
          "type": "uint256[]"
        },
        {
          "internalType": "uint256",
          "name": "totalVersions",
          "type": "uint256"
        },
        {
          "internalType": "bool",
          "name": "hasMore",
          "type": "bool"
        },
        {
          "internalType": "uint256",
          "name": "nextOffset",
          "type": "uint256"
        }
      ],
      "stateMutability": "view",
      "type": "function"
    },
    {
      "inputs": [
        {
          "internalType": "uint256[2]",
          "name": "a",
          "type": "uint256[2]"
        },
        {
          "internalType": "uint256[2][2]",
          "name": "b",
          "type": "uint256[2][2]"
        },
        {
          "internalType": "uint256[2]",
          "name": "c",
          "type": "uint256[2]"
        },
        {
          "internalType": "uint256[5]",
          "name": "publicSignals",
          "type": "uint256[5]"
        },
        {
          "internalType": "bytes32",
          "name": "personHash",
          "type": "bytes32"
        },
        {
          "internalType": "uint256",
          "name": "versionIndex",
          "type": "uint256"
        },
        {
          "internalType": "string",
          "name": "_tokenURI",
          "type": "string"
        },
        {
          "components": [
            {
              "components": [
                {
                  "internalType": "bytes32",
                  "name": "fullNameCommitment",
                  "type": "bytes32"
                },
                {
                  "internalType": "bool",
                  "name": "isBirthBC",
                  "type": "bool"
                },
                {
                  "internalType": "uint16",
                  "name": "birthYear",
                  "type": "uint16"
                },
                {
                  "internalType": "uint8",
                  "name": "birthMonth",
                  "type": "uint8"
                },
                {
                  "internalType": "uint8",
                  "name": "birthDay",
                  "type": "uint8"
                },
                {
                  "internalType": "uint8",
                  "name": "gender",
                  "type": "uint8"
                }
              ],
              "internalType": "struct DeepFamily.PersonBasicInfo",
              "name": "basicInfo",
              "type": "tuple"
            },
            {
              "components": [
                {
                  "internalType": "string",
                  "name": "fullName",
                  "type": "string"
                },
                {
                  "internalType": "string",
                  "name": "birthPlace",
                  "type": "string"
                },
                {
                  "internalType": "bool",
                  "name": "isDeathBC",
                  "type": "bool"
                },
                {
                  "internalType": "uint16",
                  "name": "deathYear",
                  "type": "uint16"
                },
                {
                  "internalType": "uint8",
                  "name": "deathMonth",
                  "type": "uint8"
                },
                {
                  "internalType": "uint8",
                  "name": "deathDay",
                  "type": "uint8"
                },
                {
                  "internalType": "string",
                  "name": "deathPlace",
                  "type": "string"
                },
                {
                  "internalType": "string",
                  "name": "story",
                  "type": "string"
                }
              ],
              "internalType": "struct DeepFamily.PersonSupplementInfo",
              "name": "supplementInfo",
              "type": "tuple"
            }
          ],
          "internalType": "struct DeepFamily.PersonCoreInfo",
          "name": "coreInfo",
          "type": "tuple"
        }
      ],
      "name": "mintPersonNFT",
      "outputs": [],
      "stateMutability": "nonpayable",
      "type": "function"
    },
    {
      "inputs": [],
      "name": "name",
      "outputs": [
        {
          "internalType": "string",
          "name": "",
          "type": "string"
        }
      ],
      "stateMutability": "view",
      "type": "function"
    },
    {
      "inputs": [
        {
          "internalType": "uint256",
          "name": "",
          "type": "uint256"
        }
      ],
      "name": "nftCoreInfo",
      "outputs": [
        {
          "components": [
            {
              "internalType": "bytes32",
              "name": "fullNameCommitment",
              "type": "bytes32"
            },
            {
              "internalType": "bool",
              "name": "isBirthBC",
              "type": "bool"
            },
            {
              "internalType": "uint16",
              "name": "birthYear",
              "type": "uint16"
            },
            {
              "internalType": "uint8",
              "name": "birthMonth",
              "type": "uint8"
            },
            {
              "internalType": "uint8",
              "name": "birthDay",
              "type": "uint8"
            },
            {
              "internalType": "uint8",
              "name": "gender",
              "type": "uint8"
            }
          ],
          "internalType": "struct DeepFamily.PersonBasicInfo",
          "name": "basicInfo",
          "type": "tuple"
        },
        {
          "components": [
            {
              "internalType": "string",
              "name": "fullName",
              "type": "string"
            },
            {
              "internalType": "string",
              "name": "birthPlace",
              "type": "string"
            },
            {
              "internalType": "bool",
              "name": "isDeathBC",
              "type": "bool"
            },
            {
              "internalType": "uint16",
              "name": "deathYear",
              "type": "uint16"
            },
            {
              "internalType": "uint8",
              "name": "deathMonth",
              "type": "uint8"
            },
            {
              "internalType": "uint8",
              "name": "deathDay",
              "type": "uint8"
            },
            {
              "internalType": "string",
              "name": "deathPlace",
              "type": "string"
            },
            {
              "internalType": "string",
              "name": "story",
              "type": "string"
            }
          ],
          "internalType": "struct DeepFamily.PersonSupplementInfo",
          "name": "supplementInfo",
          "type": "tuple"
        }
      ],
      "stateMutability": "view",
      "type": "function"
    },
    {
      "inputs": [],
      "name": "owner",
      "outputs": [
        {
          "internalType": "address",
          "name": "",
          "type": "address"
        }
      ],
      "stateMutability": "view",
      "type": "function"
    },
    {
      "inputs": [
        {
          "internalType": "uint256",
          "name": "tokenId",
          "type": "uint256"
        }
      ],
      "name": "ownerOf",
      "outputs": [
        {
          "internalType": "address",
          "name": "",
          "type": "address"
        }
      ],
      "stateMutability": "view",
      "type": "function"
    },
    {
      "inputs": [
        {
          "internalType": "bytes32",
          "name": "",
          "type": "bytes32"
        },
        {
          "internalType": "uint256",
          "name": "",
          "type": "uint256"
        }
      ],
      "name": "personVersions",
      "outputs": [
        {
          "internalType": "bytes32",
          "name": "personHash",
          "type": "bytes32"
        },
        {
          "internalType": "bytes32",
          "name": "fatherHash",
          "type": "bytes32"
        },
        {
          "internalType": "bytes32",
          "name": "motherHash",
          "type": "bytes32"
        },
        {
          "internalType": "uint256",
          "name": "versionIndex",
          "type": "uint256"
        },
        {
          "internalType": "uint256",
          "name": "fatherVersionIndex",
          "type": "uint256"
        },
        {
          "internalType": "uint256",
          "name": "motherVersionIndex",
          "type": "uint256"
        },
        {
          "internalType": "address",
          "name": "addedBy",
          "type": "address"
        },
        {
          "internalType": "uint96",
          "name": "timestamp",
          "type": "uint96"
        },
        {
          "internalType": "bytes32",
          "name": "tagHash",
          "type": "bytes32"
        },
        {
          "internalType": "string",
          "name": "metadataCID",
          "type": "string"
        }
      ],
      "stateMutability": "view",
      "type": "function"
    },
    {
      "inputs": [],
      "name": "protocolEndorsementFeeBps",
      "outputs": [
        {
          "internalType": "uint256",
          "name": "",
          "type": "uint256"
        }
      ],
      "stateMutability": "view",
      "type": "function"
    },
    {
      "inputs": [],
      "name": "renounceOwnership",
      "outputs": [],
      "stateMutability": "nonpayable",
      "type": "function"
    },
    {
      "inputs": [
        {
          "internalType": "address",
          "name": "from",
          "type": "address"
        },
        {
          "internalType": "address",
          "name": "to",
          "type": "address"
        },
        {
          "internalType": "uint256",
          "name": "tokenId",
          "type": "uint256"
        }
      ],
      "name": "safeTransferFrom",
      "outputs": [],
      "stateMutability": "nonpayable",
      "type": "function"
    },
    {
      "inputs": [
        {
          "internalType": "address",
          "name": "from",
          "type": "address"
        },
        {
          "internalType": "address",
          "name": "to",
          "type": "address"
        },
        {
          "internalType": "uint256",
          "name": "tokenId",
          "type": "uint256"
        },
        {
          "internalType": "bytes",
          "name": "data",
          "type": "bytes"
        }
      ],
      "name": "safeTransferFrom",
      "outputs": [],
      "stateMutability": "nonpayable",
      "type": "function"
    },
    {
      "inputs": [
        {
          "internalType": "uint256",
          "name": "tokenId",
          "type": "uint256"
        }
      ],
      "name": "sealStory",
      "outputs": [],
      "stateMutability": "nonpayable",
      "type": "function"
    },
    {
      "inputs": [
        {
          "internalType": "address",
          "name": "operator",
          "type": "address"
        },
        {
          "internalType": "bool",
          "name": "approved",
          "type": "bool"
        }
      ],
      "name": "setApprovalForAll",
      "outputs": [],
      "stateMutability": "nonpayable",
      "type": "function"
    },
    {
      "inputs": [
        {
          "internalType": "uint256",
          "name": "",
          "type": "uint256"
        },
        {
          "internalType": "uint256",
          "name": "",
          "type": "uint256"
        }
      ],
      "name": "storyChunks",
      "outputs": [
        {
          "internalType": "uint256",
          "name": "chunkIndex",
          "type": "uint256"
        },
        {
          "internalType": "bytes32",
          "name": "chunkHash",
          "type": "bytes32"
        },
        {
          "internalType": "string",
          "name": "content",
          "type": "string"
        },
        {
          "internalType": "uint256",
          "name": "timestamp",
          "type": "uint256"
        },
        {
          "internalType": "address",
          "name": "editor",
          "type": "address"
        },
        {
          "internalType": "uint8",
          "name": "chunkType",
          "type": "uint8"
        },
        {
          "internalType": "string",
          "name": "attachmentCID",
          "type": "string"
        }
      ],
      "stateMutability": "view",
      "type": "function"
    },
    {
      "inputs": [
        {
          "internalType": "uint256",
          "name": "",
          "type": "uint256"
        }
      ],
      "name": "storyMetadata",
      "outputs": [
        {
          "internalType": "uint256",
          "name": "totalChunks",
          "type": "uint256"
        },
        {
          "internalType": "bytes32",
          "name": "fullStoryHash",
          "type": "bytes32"
        },
        {
          "internalType": "uint256",
          "name": "lastUpdateTime",
          "type": "uint256"
        },
        {
          "internalType": "bool",
          "name": "isSealed",
          "type": "bool"
        },
        {
          "internalType": "uint256",
          "name": "totalLength",
          "type": "uint256"
        }
      ],
      "stateMutability": "view",
      "type": "function"
    },
    {
      "inputs": [
        {
          "internalType": "bytes4",
          "name": "interfaceId",
          "type": "bytes4"
        }
      ],
      "name": "supportsInterface",
      "outputs": [
        {
          "internalType": "bool",
          "name": "",
          "type": "bool"
        }
      ],
      "stateMutability": "view",
      "type": "function"
    },
    {
      "inputs": [],
      "name": "symbol",
      "outputs": [
        {
          "internalType": "string",
          "name": "",
          "type": "string"
        }
      ],
      "stateMutability": "view",
      "type": "function"
    },
    {
      "inputs": [
        {
          "internalType": "uint256",
          "name": "index",
          "type": "uint256"
        }
      ],
      "name": "tokenByIndex",
      "outputs": [
        {
          "internalType": "uint256",
          "name": "",
          "type": "uint256"
        }
      ],
      "stateMutability": "view",
      "type": "function"
    },
    {
      "inputs": [],
      "name": "tokenCounter",
      "outputs": [
        {
          "internalType": "uint256",
          "name": "",
          "type": "uint256"
        }
      ],
      "stateMutability": "view",
      "type": "function"
    },
    {
      "inputs": [
        {
          "internalType": "uint256",
          "name": "",
          "type": "uint256"
        }
      ],
      "name": "tokenIdToPerson",
      "outputs": [
        {
          "internalType": "bytes32",
          "name": "",
          "type": "bytes32"
        }
      ],
      "stateMutability": "view",
      "type": "function"
    },
    {
      "inputs": [
        {
          "internalType": "uint256",
          "name": "",
          "type": "uint256"
        }
      ],
      "name": "tokenIdToVersionIndex",
      "outputs": [
        {
          "internalType": "uint256",
          "name": "",
          "type": "uint256"
        }
      ],
      "stateMutability": "view",
      "type": "function"
    },
    {
      "inputs": [
        {
          "internalType": "address",
          "name": "owner",
          "type": "address"
        },
        {
          "internalType": "uint256",
          "name": "index",
          "type": "uint256"
        }
      ],
      "name": "tokenOfOwnerByIndex",
      "outputs": [
        {
          "internalType": "uint256",
          "name": "",
          "type": "uint256"
        }
      ],
      "stateMutability": "view",
      "type": "function"
    },
    {
      "inputs": [
        {
          "internalType": "uint256",
          "name": "tokenId",
          "type": "uint256"
        }
      ],
      "name": "tokenURI",
      "outputs": [
        {
          "internalType": "string",
          "name": "",
          "type": "string"
        }
      ],
      "stateMutability": "view",
      "type": "function"
    },
    {
      "inputs": [
        {
          "internalType": "uint256",
          "name": "",
          "type": "uint256"
        },
        {
          "internalType": "uint256",
          "name": "",
          "type": "uint256"
        }
      ],
      "name": "tokenURIHistory",
      "outputs": [
        {
          "internalType": "string",
          "name": "",
          "type": "string"
        }
      ],
      "stateMutability": "view",
      "type": "function"
    },
    {
      "inputs": [],
      "name": "totalPersonsCount",
      "outputs": [
        {
          "internalType": "uint256",
          "name": "",
          "type": "uint256"
        }
      ],
      "stateMutability": "view",
      "type": "function"
    },
    {
      "inputs": [],
      "name": "totalSupply",
      "outputs": [
        {
          "internalType": "uint256",
          "name": "",
          "type": "uint256"
        }
      ],
      "stateMutability": "view",
      "type": "function"
    },
    {
      "inputs": [
        {
          "internalType": "address",
          "name": "from",
          "type": "address"
        },
        {
          "internalType": "address",
          "name": "to",
          "type": "address"
        },
        {
          "internalType": "uint256",
          "name": "tokenId",
          "type": "uint256"
        }
      ],
      "name": "transferFrom",
      "outputs": [],
      "stateMutability": "nonpayable",
      "type": "function"
    },
    {
      "inputs": [
        {
          "internalType": "address",
          "name": "newOwner",
          "type": "address"
        }
      ],
      "name": "transferOwnership",
      "outputs": [],
      "stateMutability": "nonpayable",
      "type": "function"
    },
    {
      "inputs": [
        {
          "internalType": "bytes32",
          "name": "personHash",
          "type": "bytes32"
        },
        {
          "internalType": "uint256",
          "name": "versionIndex",
          "type": "uint256"
        },
        {
          "internalType": "bytes32",
          "name": "newFatherHash",
          "type": "bytes32"
        },
        {
          "internalType": "uint256",
          "name": "newFatherVersionIndex",
          "type": "uint256"
        },
        {
          "internalType": "bytes32",
          "name": "newMotherHash",
          "type": "bytes32"
        },
        {
          "internalType": "uint256",
          "name": "newMotherVersionIndex",
          "type": "uint256"
        }
      ],
      "name": "updatePersonParents",
      "outputs": [],
      "stateMutability": "nonpayable",
      "type": "function"
    },
    {
      "inputs": [
        {
          "internalType": "uint256",
          "name": "newBps",
          "type": "uint256"
        }
      ],
      "name": "updateProtocolEndorsementFee",
      "outputs": [],
      "stateMutability": "nonpayable",
      "type": "function"
    },
    {
      "inputs": [
        {
          "internalType": "uint256",
          "name": "tokenId",
          "type": "uint256"
        },
        {
          "internalType": "string",
          "name": "newURI",
          "type": "string"
        }
      ],
      "name": "updateTokenURI",
      "outputs": [],
      "stateMutability": "nonpayable",
      "type": "function"
    },
    {
      "inputs": [
        {
          "internalType": "bytes32",
          "name": "",
          "type": "bytes32"
        },
        {
          "internalType": "uint256",
          "name": "",
          "type": "uint256"
        }
      ],
      "name": "versionEndorsementCount",
      "outputs": [
        {
          "internalType": "uint256",
          "name": "",
          "type": "uint256"
        }
      ],
      "stateMutability": "view",
      "type": "function"
    },
    {
      "inputs": [
        {
          "internalType": "bytes32",
          "name": "",
          "type": "bytes32"
        },
        {
          "internalType": "bytes32",
          "name": "",
          "type": "bytes32"
        }
      ],
      "name": "versionExists",
      "outputs": [
        {
          "internalType": "bool",
          "name": "",
          "type": "bool"
        }
      ],
      "stateMutability": "view",
      "type": "function"
    },
    {
      "inputs": [
        {
          "internalType": "bytes32",
          "name": "",
          "type": "bytes32"
        },
        {
          "internalType": "uint256",
          "name": "",
          "type": "uint256"
        }
      ],
      "name": "versionToTokenId",
      "outputs": [
        {
          "internalType": "uint256",
          "name": "",
          "type": "uint256"
        }
      ],
      "stateMutability": "view",
      "type": "function"
    },
    {
      "stateMutability": "payable",
      "type": "receive"
    }
  ],
  "bytecode": "0x60e06040526101f4601a553480156200001757600080fd5b50604051620077fe380380620077fe8339810160408190526200003a91620001e5565b336040518060400160405280600a8152602001694465657046616d696c7960b01b8152506040518060400160405280600681526020016546616d696c7960d01b81525081600090816200008e9190620002d4565b5060016200009d8282620002d4565b5050506001600160a01b038116620000cf57604051631e4fbdf760e01b81526000600482015260240160405180910390fd5b620000da8162000176565b506001600b556001600160a01b0383166200010857604051634c32eccd60e11b815260040160405180910390fd5b6001600160a01b0382166200013057604051635fce01bb60e01b815260040160405180910390fd5b6001600160a01b038116620001585760405163abd45c1f60e01b815260040160405180910390fd5b6001600160a01b0392831660805290821660a0521660c052620003a0565b600a80546001600160a01b038381166001600160a01b0319831681179093556040519116919082907f8be0079c531659141344cd1fd0a4f28419497f9722a3daafe3b4186f6b6457e090600090a35050565b80516001600160a01b0381168114620001e057600080fd5b919050565b600080600060608486031215620001fb57600080fd5b6200020684620001c8565b92506200021660208501620001c8565b91506200022660408501620001c8565b90509250925092565b634e487b7160e01b600052604160045260246000fd5b600181811c908216806200025a57607f821691505b6020821081036200027b57634e487b7160e01b600052602260045260246000fd5b50919050565b601f821115620002cf57600081815260208120601f850160051c81016020861015620002aa5750805b601f850160051c820191505b81811015620002cb57828155600101620002b6565b5050505b505050565b81516001600160401b03811115620002f057620002f06200022f565b620003088162000301845462000245565b8462000281565b602080601f831160018114620003405760008415620003275750858301515b600019600386901b1c1916600185901b178555620002cb565b600085815260208120601f198616915b82811015620003715788860151825594840194600190910190840162000350565b5085821015620003905787850151600019600388901b60f8161c191681555b5050505050600190811b01905550565b60805160a05160c05161740b620003f3600039600081816105a20152613703015260008181610b1d0152614425015260008181610c0201528181613acc01528181613c6d0152615680015261740b6000f3fe6080604052600436106103b05760003560e01c8063797e57e5116101e7578063bd7eef231161010d578063db85567b116100a0578063f1fad0671161006f578063f1fad06714610d01578063f2fde38b14610d2e578063f74faf6614610d4e578063fe9c3c0514610d86576103ce565b8063db85567b14610c5c578063dbcdc08f14610c7c578063e985e9c514610caf578063f19c58a714610ccf576103ce565b8063c893eb56116100dc578063c893eb5614610bba578063d082e38114610bda578063d1486a1b14610bf0578063d596b1b014610c24576103ce565b8063bd7eef2314610b3f578063c090fba214610b55578063c841eb1f14610b84578063c87b56dd14610b9a576103ce565b806395d89b4111610185578063b5c7198d11610154578063b5c7198d14610ab5578063b7fb7ee614610ad5578063b88d4fde14610aeb578063bcecdf1d14610b0b576103ce565b806395d89b4114610a40578063a22cb46514610a55578063a294fd6414610a75578063b4283e3314610a95576103ce565b806383af7191116101c157806383af71911461095b5780638da5cb5b146109d25780638f2360b3146109f05780638f4ae57c14610a20576103ce565b8063797e57e5146108f35780637e927db51461091357806382260f3514610929576103ce565b80633791b66a116102d75780636352211e1161026a57806370a082311161023957806370a0823114610844578063715018a6146108645780637189567c1461087957806376f0f85d146108dd576103ce565b80636352211e146107a157806366b3beda146107c157806367b9b3e1146107e1578063690a76bf14610817576103ce565b8063538ffa0b116102a6578063538ffa0b1461070d57806357611dfb1461073a578063583d434f1461076b5780635a4b65d614610781576103ce565b80633791b66a1461066257806342842e0e14610692578063431a342a146106b25780634f6ccce7146106ed576103ce565b8063164e38ee1161034f57806323b872dd1161031e57806323b872dd146105c4578063278d5fce146105e457806328273a2a146106125780632f745c5914610642576103ce565b8063164e38ee1461052657806318160ddd1461055b57806318e97fd1146105705780631d5d7be914610590576103ce565b8063081812fc1161038b578063081812fc14610461578063084979d114610499578063095ea7b3146104cc5780631516fa25146104ee576103ce565b8062eee6a1146103e757806301ffc9a71461040f57806306fdde031461043f576103ce565b366103ce5760405163af9f22fb60e01b815260040160405180910390fd5b60405163af9f22fb60e01b815260040160405180910390fd5b3480156103f357600080fd5b506103fc606481565b6040519081526020015b60405180910390f35b34801561041b57600080fd5b5061042f61042a366004615d6c565b610da6565b6040519015158152602001610406565b34801561044b57600080fd5b50610454610dd1565b6040516104069190615dd9565b34801561046d57600080fd5b5061048161047c366004615dec565b610e63565b6040516001600160a01b039091168152602001610406565b3480156104a557600080fd5b506104b96104b4366004615e21565b610e8c565b6040516104069796959493929190615e8f565b3480156104d857600080fd5b506104ec6104e7366004615efc565b61120c565b005b3480156104fa57600080fd5b506103fc610509366004615f26565b601960209081526000928352604080842090915290825290205481565b34801561053257600080fd5b50610546610541366004615f48565b61121b565b60408051928352602083019190915201610406565b34801561056757600080fd5b506008546103fc565b34801561057c57600080fd5b506104ec61058b366004615fbc565b611265565b34801561059c57600080fd5b506104817f000000000000000000000000000000000000000000000000000000000000000081565b3480156105d057600080fd5b506104ec6105df366004616007565b611412565b3480156105f057600080fd5b506106046105ff366004615dec565b6114a2565b60405161040692919061614d565b34801561061e57600080fd5b5061063261062d366004615f48565b6117ab565b60405161040694939291906161d8565b34801561064e57600080fd5b506103fc61065d366004615efc565b611aaf565b34801561066e57600080fd5b5061068261067d366004615f48565b611b14565b604051610406949392919061624b565b34801561069e57600080fd5b506104ec6106ad366004616007565b611cea565b3480156106be57600080fd5b5061042f6106cd366004615f26565b600e60209081526000928352604080842090915290825290205460ff1681565b3480156106f957600080fd5b506103fc610708366004615dec565b611d0a565b34801561071957600080fd5b506103fc610728366004615dec565b60126020526000908152604090205481565b34801561074657600080fd5b5061075a6107553660046162a2565b611d63565b6040516104069594939291906162d4565b34801561077757600080fd5b506103fc61271081565b34801561078d57600080fd5b506104ec61079c366004616326565b611f69565b3480156107ad57600080fd5b506104816107bc366004615dec565b6121f2565b3480156107cd57600080fd5b506104ec6107dc3660046163c2565b6121fd565b3480156107ed57600080fd5b506108016107fc366004615f26565b6126f0565b6040516104069a99989796959493929190616405565b34801561082357600080fd5b506103fc610832366004615dec565b60116020526000908152604090205481565b34801561085057600080fd5b506103fc61085f366004616473565b612801565b34801561087057600080fd5b506104ec612849565b34801561088557600080fd5b50610899610894366004615dec565b61285d565b6040516104069190600060a0820190508251825260208301516020830152604083015160408301526060830151151560608301526080830151608083015292915050565b3480156108e957600080fd5b506103fc61010081565b3480156108ff57600080fd5b506104ec61090e366004615dec565b612910565b34801561091f57600080fd5b506103fc601a5481565b34801561093557600080fd5b50610949610944366004615dec565b6129fe565b6040516104069695949392919061652d565b34801561096757600080fd5b506109a8610976366004615dec565b6017602052600090815260409020805460018201546002830154600384015460049094015492939192909160ff169085565b6040805195865260208601949094529284019190915215156060830152608082015260a001610406565b3480156109de57600080fd5b50600a546001600160a01b0316610481565b3480156109fc57600080fd5b50610a10610a0b366004615f48565b612f22565b60405161040694939291906165a0565b348015610a2c57600080fd5b506104ec610a3b366004615dec565b613178565b348015610a4c57600080fd5b506104546133cf565b348015610a6157600080fd5b506104ec610a70366004616605565b6133de565b348015610a8157600080fd5b506104ec610a9036600461665e565b6133e9565b348015610aa157600080fd5b506104ec610ab0366004615dec565b6139a4565b348015610ac157600080fd5b506104ec610ad0366004615f26565b613a1f565b348015610ae157600080fd5b506103fc6107d081565b348015610af757600080fd5b506104ec610b06366004616776565b613fa3565b348015610b1757600080fd5b506104817f000000000000000000000000000000000000000000000000000000000000000081565b348015610b4b57600080fd5b506103fc600d5481565b348015610b6157600080fd5b50610b75610b70366004615f26565b613fbb565b60405161040693929190616835565b348015610b9057600080fd5b506103fc61080081565b348015610ba657600080fd5b50610454610bb5366004615dec565b6141ae565b348015610bc657600080fd5b506103fc610bd536600461686a565b614258565b348015610be657600080fd5b506103fc60105481565b348015610bfc57600080fd5b506104817f000000000000000000000000000000000000000000000000000000000000000081565b348015610c3057600080fd5b506103fc610c3f366004615f26565b601660209081526000928352604080842090915290825290205481565b348015610c6857600080fd5b506104ec610c7736600461690b565b6143e2565b348015610c8857600080fd5b50610c9c610c97366004615f26565b614550565b60405161040697969594939291906169bd565b348015610cbb57600080fd5b5061042f610cca366004616a1b565b6146b9565b348015610cdb57600080fd5b50610cef610cea366004615f48565b6146e7565b60405161040696959493929190616a4e565b348015610d0d57600080fd5b50610d21610d1c366004615f26565b614928565b6040516104069190616aa6565b348015610d3a57600080fd5b506104ec610d49366004616473565b614b34565b348015610d5a57600080fd5b506103fc610d69366004616ab9565b600f60209081526000928352604080842090915290825290205481565b348015610d9257600080fd5b50610454610da1366004615f26565b614b6f565b60006001600160e01b0319821663780e9d6360e01b1480610dcb5750610dcb82614c28565b92915050565b606060008054610de090616adc565b80601f0160208091040260200160405190810160405280929190818152602001828054610e0c90616adc565b8015610e595780601f10610e2e57610100808354040283529160200191610e59565b820191906000526020600020905b815481529060010190602001808311610e3c57829003601f168201915b5050505050905090565b6000610e6e82614c78565b506000828152600460205260409020546001600160a01b0316610dcb565b6001600160a01b0383166000908152601c6020526040812054606091829182918291908080610ebc848b8b614cb0565b90508060400151600003610f0e576040805160008082526020820181815282840182815260608085019384526080808601909652948601519590940151929b50995091975090955090925090506111ff565b80604001516001600160401b03811115610f2a57610f2a616730565b604051908082528060200260200182016040528015610f53578160200160208202803683370190505b50975080604001516001600160401b03811115610f7257610f72616730565b604051908082528060200260200182016040528015610f9b578160200160208202803683370190505b50965080604001516001600160401b03811115610fba57610fba616730565b604051908082528060200260200182016040528015610fe3578160200160208202803683370190505b50955080604001516001600160401b0381111561100257611002616730565b60405190808252806020026020018201604052801561102b578160200160208202803683370190505b50945060005b81604001518110156111ed576001600160a01b038c166000908152601c602052604081208351611062908490616b2c565b8154811061107257611072616b3f565b90600052602060002001549050808a838151811061109257611092616b3f565b602002602001018181525050600f600082815260200190815260200160002060008e6001600160a01b03166001600160a01b03168152602001908152602001600020548983815181106110e7576110e7616b3f565b602002602001018181525050600089838151811061110757611107616b3f565b602002602001015111156111da5760196000828152602001908152602001600020600060018b858151811061113e5761113e616b3f565b60200260200101516111509190616b55565b81526020019081526020016000205488838151811061117157611171616b3f565b6020026020010181815250506016600082815260200190815260200160002060008a84815181106111a4576111a4616b3f565b60200260200101518152602001908152602001600020548783815181106111cd576111cd616b3f565b6020026020010181815250505b50806111e581616b68565b915050611031565b50608081015160609091015190925090505b9397509397509397909450565b611217828233614db1565b5050565b601b602052826000526040600020602052816000526040600020818154811061124357600080fd5b6000918252602090912060029091020180546001909101549093509150839050565b3361126f84614dbe565b6001600160a01b0316146112965760405163daffd8a560e01b815260040160405180910390fd5b6101008111156112b9576040516313f04adb60e01b815260040160405180910390fd5b600083815260146020526040812080546112d290616adc565b80601f01602080910402602001604051908101604052809291908181526020018280546112fe90616adc565b801561134b5780601f106113205761010080835404028352916020019161134b565b820191906000526020600020905b81548152906001019060200180831161132e57829003601f168201915b50505050509050600081511115611386576000848152601560209081526040822080546001810182559083529120016113848282616bdc565b505b6113c68484848080601f016020809104026020016040519081016040528093929190818152602001838380828437600092019190915250614dd992505050565b336001600160a01b0316847f121742bae49dddcfbb9763fd1170f0dbc15b13707126182671611bbeeeae7cd883868660405161140493929190616cbe565b60405180910390a350505050565b6001600160a01b03821661144157604051633250574960e11b8152600060048201526024015b60405180910390fd5b600061144e838333614df1565b9050836001600160a01b0316816001600160a01b03161461149c576040516364283d7b60e01b81526001600160a01b0380861660048301526024820184905282166044820152606401611438565b50505050565b601360209081526000918252604091829020825160c08101845281548152600182015460ff80821615159483019490945261010080820461ffff168387015263010000008204851660608401526401000000008204851660808401526501000000000090910490931660a082015283519283019093526002810180549192918290829061152e90616adc565b80601f016020809104026020016040519081016040528092919081815260200182805461155a90616adc565b80156115a75780601f1061157c576101008083540402835291602001916115a7565b820191906000526020600020905b81548152906001019060200180831161158a57829003601f168201915b505050505081526020016001820180546115c090616adc565b80601f01602080910402602001604051908101604052809291908181526020018280546115ec90616adc565b80156116395780601f1061160e57610100808354040283529160200191611639565b820191906000526020600020905b81548152906001019060200180831161161c57829003601f168201915b5050509183525050600282015460ff8082161515602084015261ffff6101008304166040840152630100000082048116606084015264010000000090910416608082015260038201805460a09092019161169290616adc565b80601f01602080910402602001604051908101604052809291908181526020018280546116be90616adc565b801561170b5780601f106116e05761010080835404028352916020019161170b565b820191906000526020600020905b8154815290600101906020018083116116ee57829003601f168201915b5050505050815260200160048201805461172490616adc565b80601f016020809104026020016040519081016040528092919081815260200182805461175090616adc565b801561179d5780601f106117725761010080835404028352916020019161179d565b820191906000526020600020905b81548152906001019060200180831161178057829003601f168201915b505050505081525050905082565b60606000808086816117bc82614dbe565b6001600160a01b0316036117e3576040516307ed98ed60e31b815260040160405180910390fd5b60008881526017602052604081208054955090611801868a8a614cb0565b9050806040015160000361185b576040805160008082526020820190925290611840565b61182d615c0f565b8152602001906001900390816118255790505b50868260800151836060015196509650965096505050611aa5565b80604001516001600160401b0381111561187757611877616730565b6040519080825280602002602001820160405280156118b057816020015b61189d615c0f565b8152602001906001900390816118955790505b50965060005b8160400151811015611a925760008b815260186020526040812083519091906118e0908490616b2c565b81526020019081526020016000206040518060e0016040529081600082015481526020016001820154815260200160028201805461191d90616adc565b80601f016020809104026020016040519081016040528092919081815260200182805461194990616adc565b80156119965780601f1061196b57610100808354040283529160200191611996565b820191906000526020600020905b81548152906001019060200180831161197957829003601f168201915b50505091835250506003820154602082015260048201546001600160a01b0381166040830152600160a01b900460ff1660608201526005820180546080909201916119e090616adc565b80601f0160208091040260200160405190810160405280929190818152602001828054611a0c90616adc565b8015611a595780601f10611a2e57610100808354040283529160200191611a59565b820191906000526020600020905b815481529060010190602001808311611a3c57829003601f168201915b505050505081525050888281518110611a7457611a74616b3f565b60200260200101819052508080611a8a90616b68565b9150506118b6565b5060808101516060909101519094509250505b5093509350935093565b6000611aba83612801565b8210611aeb5760405163295f44f760e21b81526001600160a01b038416600482015260248101839052604401611438565b506001600160a01b03919091166000908152600660209081526040808320938352929052205490565b600083815260156020526040812080546060929091819081611b37858989614cb0565b90508060400151600003611b8b576040805160008082526020820190925290611b70565b6060815260200190600190039081611b5b5790505b50858260800151836060015195509550955095505050611ce1565b80604001516001600160401b03811115611ba757611ba7616730565b604051908082528060200260200182016040528015611bda57816020015b6060815260200190600190039081611bc55790505b50955060005b8160400151811015611cce5781518390611bfb908390616b2c565b81548110611c0b57611c0b616b3f565b906000526020600020018054611c2090616adc565b80601f0160208091040260200160405190810160405280929190818152602001828054611c4c90616adc565b8015611c995780601f10611c6e57610100808354040283529160200191611c99565b820191906000526020600020905b815481529060010190602001808311611c7c57829003601f168201915b5050505050878281518110611cb057611cb0616b3f565b60200260200101819052508080611cc690616b68565b915050611be0565b5060808101516060909101519093509150505b93509350935093565b611d0583838360405180602001604052806000815250613fa3565b505050565b6000611d1560085490565b8210611d3e5760405163295f44f760e21b81526000600482015260248101839052604401611438565b60088281548110611d5157611d51616b3f565b90600052602060002001549050919050565b6060806000808088611d885760405163e5d242ed60e01b815260040160405180910390fd5b6000898152600c6020526040902054881115611db757604051630dd4272d60e41b815260040160405180910390fd5b6000898152601b602090815260408083208b845290915281208054945090611de0858a8a614cb0565b90508060400151600003611e21576040805160008082526020820190815281830190925260808301516060909301519098509096509093509150611f5e9050565b80604001516001600160401b03811115611e3d57611e3d616730565b604051908082528060200260200182016040528015611e66578160200160208202803683370190505b50965080604001516001600160401b03811115611e8557611e85616730565b604051908082528060200260200182016040528015611eae578160200160208202803683370190505b50955060005b8160400151811015611f4b57600083828460000151611ed39190616b2c565b81548110611ee357611ee3616b3f565b906000526020600020906002020190508060000154898381518110611f0a57611f0a616b3f565b6020026020010181815250508060010154888381518110611f2d57611f2d616b3f565b60209081029190910101525080611f4381616b68565b915050611eb4565b5060808101516060909101519093509150505b945094509450945094565b611f71614ec6565b33611f7b89614dbe565b6001600160a01b031614611fa25760405163daffd8a560e01b815260040160405180910390fd5b831580611fb0575061080084115b15611fce57604051630ef9fbf360e21b815260040160405180910390fd5b6000888152601760205260409020600381015460ff161561200257604051631fcb6b9160e01b815260040160405180910390fd5b8054881461202357604051637df0b86160e01b815260040160405180910390fd5b600061206487878080601f016020809104026020016040519081016040528093929190818152602001838380828437600092019190915250614ef092505050565b905082158015906120755750828114155b156120935760405163016c02f160e61b815260040160405180910390fd5b6101008411156120b657604051630601a0fb60e51b815260040160405180910390fd5b60008a81526018602090815260408083208c8452909152902089815560018101829055600281016120e8888a83616ce4565b504260038201556004810180546001600160a81b0319163360ff60a01b191617600160a01b60ff8c160217905560058101612124868883616ce4565b508254612132906001616b2c565b8355426002840155600483015461214a908890616b2c565b6004840155600183015460408051602081019290925281018b905260608101839052608001604051602081830303815290604052805190602001208360010181905550336001600160a01b03168a8c7fc986c8203b7382f6ec9faf400a0793cbeb1612afb4dfe81fc13c1b04a310aea7858c8c90508e8c8c6040516121d3959493929190616d9d565b60405180910390a45050506121e86001600b55565b5050505050505050565b6000610dcb82614c78565b612205614ec6565b8585816122255760405163e5d242ed60e01b815260040160405180910390fd5b80158061223f57506000828152600c602052604090205481115b1561225d57604051630dd4272d60e41b815260040160405180910390fd5b851580159061226b57508386145b156122895760405163591c836760e01b815260040160405180910390fd5b6000888152600c602052604081206122a260018a616b55565b815481106122b2576122b2616b3f565b6000918252602090912060099091020160068101549091506001600160a01b031633146122f257604051636ace69ed60e11b815260040160405180910390fd5b60008982600101548360020154846004015485600501548660070154876008016040516020016123289796959493929190616dd1565b60408051601f19818403018152919052805160209091012090506000881561244d5760018301541561236d5760405163299cda3d60e01b815260040160405180910390fd5b8a890361238d5760405163591c836760e01b815260040160405180910390fd5b6002830154158015906123a35750826002015489145b156123c15760405163591c836760e01b815260040160405180910390fd5b6000898152600c60205260409020548811156123f057604051631f9510eb60e01b815260040160405180910390fd5b506001808301899055600483018890556000898152601b602090815260408083208b8452825280832081518083019092528e82528183018e815281548087018355918552929093209051600290930201918255519082015561246c565b871561246c5760405163591c836760e01b815260040160405180910390fd5b86156125775760028301541561249557604051633517ad3f60e21b815260040160405180910390fd5b8a87036124b55760405163591c836760e01b815260040160405180910390fd5b6001830154158015906124cb5750826001015487145b156124e95760405163591c836760e01b815260040160405180910390fd5b6000878152600c60205260409020548611156125185760405163782ce69f60e01b815260040160405180910390fd5b506002808301879055600583018690556000878152601b60209081526040808320898452825280832081518083019092528e82528183018e81528154600181810184559286529390942091519290940201908155905190820155612596565b85156125965760405163591c836760e01b815260040160405180910390fd5b806125b45760405163672dd10560e11b815260040160405180910390fd5b60008b84600101548560020154866004015487600501548860070154896008016040516020016125ea9796959493929190616dd1565b6040516020818303038152906040528051906020012090508083146126795760008c8152600e6020908152604080832084845290915290205460ff1615612644576040516314396b6760e11b815260040160405180910390fd5b60008c8152600e60209081526040808320868452909152808220805460ff199081169091558383529120805490911660011790555b600184015460048501546002860154600587015460408051948552602085019390935291830152606082015233908c908e907fb177ed6564d95ed4e84ea8ecc0ad05956dbbd41ddf8d1e79f79254baa63ec46f9060800160405180910390a45050505050506126e86001600b55565b505050505050565b600c602052816000526040600020818154811061270c57600080fd5b6000918252602090912060099091020180546001820154600283015460038401546004850154600586015460068701546007880154600889018054989b5096995094979396929591946001600160a01b03821694600160a01b9092046001600160601b03169390929061277e90616adc565b80601f01602080910402602001604051908101604052809291908181526020018280546127aa90616adc565b80156127f75780601f106127cc576101008083540402835291602001916127f7565b820191906000526020600020905b8154815290600101906020018083116127da57829003601f168201915b505050505090508a565b60006001600160a01b03821661282d576040516322718ad960e21b815260006004820152602401611438565b506001600160a01b031660009081526003602052604090205490565b612851614f20565b61285b6000614f4d565b565b6040805160a08101825260008082526020820181905291810182905260608101829052608081019190915281600061289482614dbe565b6001600160a01b0316036128bb576040516307ed98ed60e31b815260040160405180910390fd5b5050600090815260176020908152604091829020825160a08101845281548152600182015492810192909252600281015492820192909252600382015460ff1615156060820152600490910154608082015290565b3361291a82614dbe565b6001600160a01b0316146129415760405163daffd8a560e01b815260040160405180910390fd5b6000818152601760205260409020600381015460ff161561297557604051631fcb6b9160e01b815260040160405180910390fd5b805460000361299757604051637dc66bf560e11b815260040160405180910390fd5b60038101805460ff19166001908117909155426002830155815490820154604051339285927f896066547269dcd0db6295ca6c7f14f927d692103e47c7615259469b74bc7b5d926129f2929190918252602082015260400190565b60405180910390a35050565b600080612a09615c4a565b612a11615ca0565b6000606081612a1f88614dbe565b6001600160a01b031603612a46576040516307ed98ed60e31b815260040160405180910390fd5b600087815260116020526040902054955085612a75576040516307ed98ed60e31b815260040160405180910390fd5b6000878152601260205260408120549550612a91600187616b55565b6000888152600c6020526040902080549192509082908110612ab557612ab5616b3f565b600091825260209182902060408051610140810182526009909302909101805483526001810154938301939093526002830154908201526003820154606082015260048201546080820152600582015460a082015260068201546001600160a01b03811660c08301526001600160601b03600160a01b9091041660e0820152600782015461010082015260088201805491929161012084019190612b5890616adc565b80601f0160208091040260200160405190810160405280929190818152602001828054612b8490616adc565b8015612bd15780601f10612ba657610100808354040283529160200191612bd1565b820191906000526020600020905b815481529060010190602001808311612bb457829003601f168201915b50505091909252505050600089815260136020908152604091829020825161010080820185528254828601908152600184015460ff8082161515606086015261ffff84830416608086015263010000008204811660a08601526401000000008204811660c0860152650100000000009091041660e084015282528451908101909452600282018054959a5090949193928501929182908290612c7290616adc565b80601f0160208091040260200160405190810160405280929190818152602001828054612c9e90616adc565b8015612ceb5780601f10612cc057610100808354040283529160200191612ceb565b820191906000526020600020905b815481529060010190602001808311612cce57829003601f168201915b50505050508152602001600182018054612d0490616adc565b80601f0160208091040260200160405190810160405280929190818152602001828054612d3090616adc565b8015612d7d5780601f10612d5257610100808354040283529160200191612d7d565b820191906000526020600020905b815481529060010190602001808311612d6057829003601f168201915b5050509183525050600282015460ff8082161515602084015261ffff6101008304166040840152630100000082048116606084015264010000000090910416608082015260038201805460a090920191612dd690616adc565b80601f0160208091040260200160405190810160405280929190818152602001828054612e0290616adc565b8015612e4f5780601f10612e2457610100808354040283529160200191612e4f565b820191906000526020600020905b815481529060010190602001808311612e3257829003601f168201915b50505050508152602001600482018054612e6890616adc565b80601f0160208091040260200160405190810160405280929190818152602001828054612e9490616adc565b8015612ee15780601f10612eb657610100808354040283529160200191612ee1565b820191906000526020600020905b815481529060010190602001808311612ec457829003601f168201915b5050509190925250505090525060008881526019602090815260408083208584529091529020549094509250612f16886141ae565b91505091939550919395565b6000838152600c6020526040812080546060929091819081612f45858989614cb0565b90508060400151600003612f9d576040805160008082526020820190925290611b70565b612f71615c4a565b815260200190600190039081612f6957505060808201516060909201519096509093509150611ce19050565b80604001516001600160401b03811115612fb957612fb9616730565b604051908082528060200260200182016040528015612ff257816020015b612fdf615c4a565b815260200190600190039081612fd75790505b50955060005b8160400151811015611cce5781518390613013908390616b2c565b8154811061302357613023616b3f565b600091825260209182902060408051610140810182526009909302909101805483526001810154938301939093526002830154908201526003820154606082015260048201546080820152600582015460a082015260068201546001600160a01b03811660c08301526001600160601b03600160a01b9091041660e08201526007820154610100820152600882018054919291610120840191906130c690616adc565b80601f01602080910402602001604051908101604052809291908181526020018280546130f290616adc565b801561313f5780601f106131145761010080835404028352916020019161313f565b820191906000526020600020905b81548152906001019060200180831161312257829003601f168201915b50505050508152505087828151811061315a5761315a616b3f565b6020026020010181905250808061317090616b68565b915050612ff8565b613180614ec6565b8061319e5760405163e5d242ed60e01b815260040160405180910390fd5b6000818152600f60209081526040808320338452909152812054908190036131d95760405163175f16a160e01b815260040160405180910390fd5b60006131e6600183616b55565b6000848152601960209081526040808320848452909152902054909150801561322f57613214600182616b55565b60008581526019602090815260408083208684529091529020555b336000908152601d60209081526040808320878452909152902054801561336557600061325d600183616b55565b336000908152601c60205260408120549192509061327d90600190616b55565b905080821461331457336000908152601c602052604081208054839081106132a7576132a7616b3f565b9060005260206000200154905080601c6000336001600160a01b03166001600160a01b0316815260200190815260200160002084815481106132eb576132eb616b3f565b6000918252602080832090910192909255338152601d8252604080822093825292909152208390555b336000908152601c6020526040902080548061333257613332616e88565b600082815260208082208301600019908101839055909201909255338252601d815260408083208a845290915281205550505b6000858152600f6020908152604080832033808552908352818420939093558051878152429281019290925287917f203917c2c13a758e439cfec1127753207a42e9750a151a07a4f9484e3e5901b6910160405180910390a3505050506133cc6001600b55565b50565b606060018054610de090616adc565b611217338383614f9f565b6133f1614ec6565b8484816134115760405163e5d242ed60e01b815260040160405180910390fd5b80158061342b57506000828152600c602052604090205481115b1561344957604051630dd4272d60e41b815260040160405180910390fd5b6080880135331461346d5760405163bd8cc73160e01b815260040160405180910390fd5b6000878152601660209081526040808320898452909152902054156134a557604051634028e5e560e11b815260040160405180910390fd5b6000878152600f6020908152604080832033845290915290205486146134de5760405163786bb09f60e11b815260040160405180910390fd5b610100841115613501576040516313f04adb60e01b815260040160405180910390fd5b61350e60c0840184616e9e565b6135189080616ebe565b905060000361353a57604051635f895cef60e11b815260040160405180910390fd5b61010061354a60c0850185616e9e565b6135549080616ebe565b9050111561357557604051635f895cef60e11b815260040160405180910390fd5b61010061358560c0850185616e9e565b6135939060e0810190616ebe565b905011156135b45760405163f283c51960e01b815260040160405180910390fd5b6101006135c460c0850185616e9e565b6135d2906020810190616ebe565b905011156135f3576040516367181a3960e11b815260040160405180910390fd5b61010061360360c0850185616e9e565b6136119060c0810190616ebe565b9050111561363257604051633769847160e01b815260040160405180910390fd5b600c61364160c0850185616e9e565b6136529060a0810190608001616f04565b60ff16111561367457604051630282898760e21b815260040160405180910390fd5b601f61368360c0850185616e9e565b6136949060c081019060a001616f04565b60ff1611156136b657604051638d177e8360e01b815260040160405180910390fd5b60006136ca610bd53686900386018661686a565b90508781146136ec57604051632f38f48f60e21b815260040160405180910390fd5b6040516334baeab960e01b81526001600160a01b037f000000000000000000000000000000000000000000000000000000000000000016906334baeab99061373e908f908f908f908f90600401616f45565b602060405180830381865afa15801561375b573d6000803e3d6000fd5b505050506040513d601f19601f8201168201806040525081019061377f9190616f76565b61379c576040516303b2487b60e11b815260040160405180910390fd5b60006137b18a358b60015b602002013561503e565b9050843581146137d457604051632f38f48f60e21b815260040160405180910390fd5b60006137e660408c01358c60036137a7565b9050600061383e6137fa60c0890189616e9e565b6138049080616ebe565b8080601f016020809104026020016040519081016040528093929190818152602001838380828437600092019190915250614ef092505050565b905081811461386057604051632f38f48f60e21b815260040160405180910390fd5b600060106000815461387190616b68565b91905081905590508b60116000838152602001908152602001600020819055508a601260008381526020019081526020016000208190555080601660008e815260200190815260200160002060008d815260200190815260200160002081905550876013600083815260200190815260200160002081816138f29190617173565b905050613935818b8b8080601f016020809104026020016040519081016040528093929190818152602001838380828437600092019190915250614dd992505050565b61393f338261507e565b336001600160a01b0316818d7fbce71c21e84db5e7dca78ea57ad63b6c66f74f74efc25e33592370ecf39e093b8e8e8e42604051613980949392919061725c565b60405180910390a4505050505050506139996001600b55565b505050505050505050565b6139ac614f20565b6107d08111156139cf5760405163499fddb160e01b815260040160405180910390fd5b601a548181036139dd575050565b601a82905560408051828152602081018490527ffa7ce4b1b3c9db75cae1c9e74a97c900b9377a24cc2ac49f55c7466a1404c5e0910160405180910390a15050565b613a27614ec6565b818181613a475760405163e5d242ed60e01b815260040160405180910390fd5b801580613a6157506000828152600c602052604090205481115b15613a7f57604051630dd4272d60e41b815260040160405180910390fd5b6000848152600f60209081526040808320338452909152902054838103613ab9576040516354d92fcb60e01b815260040160405180910390fd5b6000613ac6600186616b55565b905060007f00000000000000000000000000000000000000000000000000000000000000006001600160a01b0316636bf90c716040518163ffffffff1660e01b8152600401602060405180830381865afa158015613b28573d6000803e3d6000fd5b505050506040513d601f19601f82011682018060405250810190613b4c9190617287565b9050600080808515613bb5576000613b65600188616b55565b60008c81526019602090815260408083208484529091529020549091508015613bae57613b93600182616b55565b60008d81526019602090815260408083208684529091529020555b5050613c0a565b336000908152601c6020526040902054613bd0906001616b2c565b336000818152601d602090815260408083208f8452825280832094909455918152601c825291822080546001810182559083529120018a90555b60008a81526019602090815260408083208884529091528120805460019290613c34908490616b2c565b909155505060008a8152600f6020908152604080832033845290915290208990558315613f1e5760008a8152600c6020526040812080547f000000000000000000000000000000000000000000000000000000000000000092919088908110613c9f57613c9f616b3f565b906000526020600020906009020190506000601660008e815260200190815260200160002060008d815260200190815260200160002054905080600014613d1b576000613ceb82614dbe565b90506001600160a01b03811615613d0457809650613d15565b60068301546001600160a01b031696505b50613d2c565b60068201546001600160a01b031695505b6000612710601a5489613d3f91906172a0565b613d4991906172b7565b9050613d558189616b55565b94508415613dfc576040516323b872dd60e01b81523360048201526001600160a01b03888116602483015260448201879052600091908616906323b872dd906064016020604051808303816000875af1158015613db6573d6000803e3d6000fd5b505050506040513d601f19601f82011682018060405250810190613dda9190616f76565b905080613dfa57604051635da1e97760e11b815260040160405180910390fd5b505b8015613f1957600a546001600160a01b0316955085613e7a5760405163079cc67960e41b8152336004820152602481018290526001600160a01b038516906379cc679090604401600060405180830381600087803b158015613e5d57600080fd5b505af1158015613e71573d6000803e3d6000fd5b50505050613f19565b6040516323b872dd60e01b81523360048201526001600160a01b03878116602483015260448201839052600091908616906323b872dd906064016020604051808303816000875af1158015613ed3573d6000803e3d6000fd5b505050506040513d601f19601f82011682018060405250810190613ef79190616f76565b905080613f1757604051635da1e97760e11b815260040160405180910390fd5b505b505050505b338a7fd797cb7be92b1c65367745105ff0f8f7f0752feac9ef8841c23b1edfa31e2c128b868587613f4f828c616b55565b604080519586526001600160a01b0394851660208701528501929092529091166060830152608082015260a081018890524260c082015260e00160405180910390a350505050505050506112176001600b55565b613fae848484611412565b61149c3385858585615098565b613fc3615c4a565b600080848481613fe65760405163e5d242ed60e01b815260040160405180910390fd5b80158061400057506000828152600c602052604090205481115b1561401e57604051630dd4272d60e41b815260040160405180910390fd5b600061402b600188616b55565b6000898152600c602052604090208054919250908290811061404f5761404f616b3f565b600091825260209182902060408051610140810182526009909302909101805483526001810154938301939093526002830154908201526003820154606082015260048201546080820152600582015460a082015260068201546001600160a01b03811660c08301526001600160601b03600160a01b9091041660e08201526007820154610100820152600882018054919291610120840191906140f290616adc565b80601f016020809104026020016040519081016040528092919081815260200182805461411e90616adc565b801561416b5780601f106141405761010080835404028352916020019161416b565b820191906000526020600020905b81548152906001019060200180831161414e57829003601f168201915b505050919092525050506000898152601960209081526040808320948352938152838220549a825260168152838220998252989098529620549597945050505050565b60606141b982614c78565b50600082815260146020526040902080546141d390616adc565b80601f01602080910402602001604051908101604052809291908181526020018280546141ff90616adc565b801561424c5780601f106142215761010080835404028352916020019161424c565b820191906000526020600020905b81548152906001019060200180831161422f57829003601f168201915b50505050509050919050565b805160009061427a57604051635f895cef60e11b815260040160405180910390fd5b600c826060015160ff1611156142a3576040516348c5148960e11b815260040160405180910390fd5b601f826080015160ff1611156142cc576040516309eabf7d60e21b815260040160405180910390fd5b81516020830151608082901c916fffffffffffffffffffffffffffffffff16906000906142fa5760006142fd565b60015b60ff1660018660a0015160ff16901b6008876080015160ff16901b6010886060015160ff16901b6018896040015161ffff16901b17171717905061433f615d38565b838152602081018390526040808201839052516320cf0a3760e01b815260009073__$fc5a2451f3e054f75c2faf9b3818033d8b$__906320cf0a37906143899085906004016172d9565b602060405180830381865af41580156143a6573d6000803e3d6000fd5b505050506040513d601f19601f820116820180604052508101906143ca9190617287565b9050806143d6816151c1565b98975050505050505050565b6143ea614ec6565b60c0860135331461440e5760405163bd8cc73160e01b815260040160405180910390fd5b60405163c894e75760e01b81526001600160a01b037f0000000000000000000000000000000000000000000000000000000000000000169063c894e75790614460908c908c908c908c9060040161730a565b602060405180830381865afa15801561447d573d6000803e3d6000fd5b505050506040513d601f19601f820116820180604052508101906144a19190616f76565b6144be576040516303b2487b60e11b815260040160405180910390fd5b60006144d56144d088358960016137a7565b6151c1565b905060006144ec6144d060408a01358a60036137a7565b905060006145036144d060808b01358b60056137a7565b604051909150339084907f3015fe19dc9f8f0d942de39092410a57589dd94d2c9134719335fe04e3695eca90600090a36145438383838b8b8b8b8b6151e1565b5050506139996001600b55565b60186020908152600092835260408084209091529082529020805460018201546002830180549293919261458390616adc565b80601f01602080910402602001604051908101604052809291908181526020018280546145af90616adc565b80156145fc5780601f106145d1576101008083540402835291602001916145fc565b820191906000526020600020905b8154815290600101906020018083116145df57829003601f168201915b5050505060038301546004840154600585018054949592946001600160a01b0383169450600160a01b90920460ff16929161463690616adc565b80601f016020809104026020016040519081016040528092919081815260200182805461466290616adc565b80156146af5780601f10614684576101008083540402835291602001916146af565b820191906000526020600020905b81548152906001019060200180831161469257829003601f168201915b5050505050905087565b6001600160a01b03918216600090815260056020908152604080832093909416825291909152205460ff1690565b6000838152600c602052604081205460609182918291808061470a848a8a614cb0565b905080604001516000036147535760408051600080825260208201818152828401918252606080840190945260808501519490930151919950919750909550909250905061491c565b80604001516001600160401b0381111561476f5761476f616730565b604051908082528060200260200182016040528015614798578160200160208202803683370190505b50965080604001516001600160401b038111156147b7576147b7616730565b6040519080825280602002602001820160405280156147e0578160200160208202803683370190505b50955080604001516001600160401b038111156147ff576147ff616730565b604051908082528060200260200182016040528015614828578160200160208202803683370190505b50945060005b816040015181101561490a57815160009061484a908390616b2c565b9050614857816001616b2c565b89838151811061486957614869616b3f565b60209081029190910181019190915260008d8152601982526040808220848352909252205488518990849081106148a2576148a2616b3f565b60209081029190910181019190915260008d8152601690915260408120906148cb836001616b2c565b8152602001908152602001600020548783815181106148ec576148ec616b3f565b6020908102919091010152508061490281616b68565b91505061482e565b50608081015160609091015190925090505b93975093979195509350565b614930615c0f565b82600061493c82614dbe565b6001600160a01b031603614963576040516307ed98ed60e31b815260040160405180910390fd5b60008481526017602052604090208054841061499257604051637df0b86160e01b815260040160405180910390fd5b6018600086815260200190815260200160002060008581526020019081526020016000206040518060e001604052908160008201548152602001600182015481526020016002820180546149e590616adc565b80601f0160208091040260200160405190810160405280929190818152602001828054614a1190616adc565b8015614a5e5780601f10614a3357610100808354040283529160200191614a5e565b820191906000526020600020905b815481529060010190602001808311614a4157829003601f168201915b50505091835250506003820154602082015260048201546001600160a01b0381166040830152600160a01b900460ff166060820152600582018054608090920191614aa890616adc565b80601f0160208091040260200160405190810160405280929190818152602001828054614ad490616adc565b8015614b215780601f10614af657610100808354040283529160200191614b21565b820191906000526020600020905b815481529060010190602001808311614b0457829003601f168201915b5050505050815250509250505092915050565b614b3c614f20565b6001600160a01b038116614b6657604051631e4fbdf760e01b815260006004820152602401611438565b6133cc81614f4d565b60156020528160005260406000208181548110614b8b57600080fd5b90600052602060002001600091509150508054614ba790616adc565b80601f0160208091040260200160405190810160405280929190818152602001828054614bd390616adc565b8015614c205780601f10614bf557610100808354040283529160200191614c20565b820191906000526020600020905b815481529060010190602001808311614c0357829003601f168201915b505050505081565b60006001600160e01b031982166380ac58cd60e01b1480614c5957506001600160e01b03198216635b5e139f60e01b145b80610dcb57506301ffc9a760e01b6001600160e01b0319831614610dcb565b600080614c8483614dbe565b90506001600160a01b038116610dcb57604051637e27328960e01b815260048101849052602401611438565b614ce46040518060a00160405280600081526020016000815260200160008152602001600081526020016000151581525090565b6064821115614d0657604051630327a73960e61b815260040160405180910390fd5b811580614d135750838310155b15614d57576040518060a001604052808481526020018481526020016000815260200185851015614d445784614d46565b855b815260006020909101529050614daa565b6000614d638385616b2c565b905084811115614d705750835b6040518060a001604052808581526020018281526020018583614d939190616b55565b815260200182815260200186831015158152509150505b9392505050565b611d058383836001615751565b6000908152600260205260409020546001600160a01b031690565b6000828152601460205260409020611d058282616bdc565b600080614dff858585615857565b90506001600160a01b038116614e5c57614e5784600880546000838152600960205260408120829055600182018355919091527ff3f7a9fe364faab93b216da50a3214154f22a0a2b415b23a84c8169e8b636ee30155565b614e7f565b846001600160a01b0316816001600160a01b031614614e7f57614e7f818561594b565b6001600160a01b038516614e9b57614e96846159cc565b614ebe565b846001600160a01b0316816001600160a01b031614614ebe57614ebe8585615a7b565b949350505050565b6002600b5403614ee957604051633ee5aeb560e01b815260040160405180910390fd5b6002600b55565b600081604051602001614f03919061733b565b604051602081830303815290604052805190602001209050919050565b600a546001600160a01b0316331461285b5760405163118cdaa760e01b8152336004820152602401611438565b600a80546001600160a01b038381166001600160a01b0319831681179093556040519116919082907f8be0079c531659141344cd1fd0a4f28419497f9722a3daafe3b4186f6b6457e090600090a35050565b6001600160a01b038216614fd157604051630b61174360e31b81526001600160a01b0383166004820152602401611438565b6001600160a01b03838116600081815260056020908152604080832094871680845294825291829020805460ff191686151590811790915591519182527f17307eab39ab6107e8899845ad3d59bd9653f200f220920489ca2b5937696c31910160405180910390a3505050565b6000608083901c1515806150555750608082901c15155b15615073576040516303b2487b60e11b815260040160405180910390fd5b5060809190911b1790565b611217828260405180602001604052806000815250615acb565b6001600160a01b0383163b156151ba57604051630a85bd0160e11b81526001600160a01b0384169063150b7a02906150da90889088908790879060040161734d565b6020604051808303816000875af1925050508015615115575060408051601f3d908101601f1916820190925261511291810190617380565b60015b61517e573d808015615143576040519150601f19603f3d011682016040523d82523d6000602084013e615148565b606091505b50805160000361517657604051633250574960e11b81526001600160a01b0385166004820152602401611438565b805160208201fd5b6001600160e01b03198116630a85bd0160e11b146126e857604051633250574960e11b81526001600160a01b0385166004820152602401611438565b5050505050565b6000816151d057506000919050565b604080516020810184905201614f03565b876151ff5760405163e5d242ed60e01b815260040160405180910390fd5b8787148061520c57508786145b1561522a5760405163591c836760e01b815260040160405180910390fd5b861580159061523857508587145b156152565760405163591c836760e01b815260040160405180910390fd5b8615801561526357508415155b1561528157604051631f9510eb60e01b815260040160405180910390fd5b8515801561528e57508315155b156152ac5760405163782ce69f60e01b815260040160405180910390fd5b6000878152600c60205260409020548511156152db57604051631f9510eb60e01b815260040160405180910390fd5b6000868152600c602052604090205484111561530a5760405163782ce69f60e01b815260040160405180910390fd5b61010081111561532d57604051630601a0fb60e51b815260040160405180910390fd5b6000888888888888888860405160200161534e98979695949392919061739d565b60408051601f19818403018152918152815160209283012060008c8152600e845282812082825290935291205490915060ff161561539f576040516314396b6760e11b815260040160405180910390fd5b6000898152600e602090815260408083208484528252808320805460ff191660011790558b8352600c82528083208151610140810183528d81528084018d90528083018c90526060810194909452608084018a905260a084018990523360c08501526001600160601b03421660e085015261010084018890528151601f870184900484028101840190925285825292916101208301919087908790819084018382808284376000920182905250939094525050835460018181018655948252602091829020845160099092020190815590830151938101939093555060408101516002830155606081015160038301556080810151600483015560a0810151600583015560c081015160e08201516001600160601b0316600160a01b026001600160a01b03909116176006830155610100810151600783015561012081015190919060088201906154f09082616bdc565b5050506000898152600c602052604090208054908190615511600183616b55565b8154811061552157615521616b3f565b60009182526020909120600360099092020101558815615588576000898152601b602090815260408083208a8452825280832081518083019092528d8252818301858152815460018181018455928652939094209151600290930290910191825591519101555b87156155db576000888152601b60209081526040808320898452825280832081518083019092528d8252818301858152815460018181018455928652939094209151600290930290910191825591519101555b806001036155f957600d80549060006155f383616b68565b91905055505b60408051428152602081018b9052908101889052606081018990526080810187905260a08101869052339082908c907f2836e1b3f26cc170bae92f35a22ddc7b1f487536313adf21abe5f3b800969d719060c00160405180910390a4881580159061566357508715155b15615745576040516335313c2160e11b81523360048201526000907f00000000000000000000000000000000000000000000000000000000000000006001600160a01b031690636a627842906024016020604051808303816000875af11580156156d1573d6000803e3d6000fd5b505050506040513d601f19601f820116820180604052508101906156f59190617287565b9050801561574357818b336001600160a01b03167fdefc43c3e9b037326c59d7c3f29c0b6b5c94a6fbfcced006b763e74a3115da6d8460405161573a91815260200190565b60405180910390a45b505b50505050505050505050565b808061576557506001600160a01b03821615155b1561582757600061577584614c78565b90506001600160a01b038316158015906157a15750826001600160a01b0316816001600160a01b031614155b80156157b457506157b281846146b9565b155b156157dd5760405163a9fbf51f60e01b81526001600160a01b0384166004820152602401611438565b81156158255783856001600160a01b0316826001600160a01b03167f8c5be1e5ebec7d5bd14f71427d1e84f3dd0314c0f7b2291e5b200ac8c7c3b92560405160405180910390a45b505b5050600090815260046020526040902080546001600160a01b0319166001600160a01b0392909216919091179055565b60008061586384614dbe565b90506001600160a01b0383161561587f5761587f818486615ae3565b6001600160a01b038116156158bd5761589c600085600080615751565b6001600160a01b038116600090815260036020526040902080546000190190555b6001600160a01b038516156158ec576001600160a01b0385166000908152600360205260409020805460010190555b60008481526002602052604080822080546001600160a01b0319166001600160a01b0389811691821790925591518793918516917fddf252ad1be2c89b69c2b068fc378daa952ba7f163c4a11628f55a4df523b3ef91a4949350505050565b600061595683612801565b6000838152600760209081526040808320546001600160a01b03881684526006909252909120919250908183146159ad57600083815260208281526040808320548584528184208190558352600790915290208290555b6000938452600760209081526040808620869055938552525081205550565b6008546000906159de90600190616b55565b60008381526009602052604081205460088054939450909284908110615a0657615a06616b3f565b906000526020600020015490508060088381548110615a2757615a27616b3f565b6000918252602080832090910192909255828152600990915260408082208490558582528120556008805480615a5f57615a5f616e88565b6001900381819060005260206000200160009055905550505050565b60006001615a8884612801565b615a929190616b55565b6001600160a01b039093166000908152600660209081526040808320868452825280832085905593825260079052919091209190915550565b615ad58383615b47565b611d05336000858585615098565b615aee838383615bac565b611d05576001600160a01b038316615b1c57604051637e27328960e01b815260048101829052602401611438565b60405163177e802f60e01b81526001600160a01b038316600482015260248101829052604401611438565b6001600160a01b038216615b7157604051633250574960e11b815260006004820152602401611438565b6000615b7f83836000614df1565b90506001600160a01b03811615611d05576040516339e3563760e11b815260006004820152602401611438565b60006001600160a01b03831615801590614ebe5750826001600160a01b0316846001600160a01b03161480615be65750615be684846146b9565b80614ebe5750506000908152600460205260409020546001600160a01b03908116911614919050565b6040805160e08101825260008082526020820181905260609282018390528282018190526080820181905260a082015260c081019190915290565b604080516101408101825260008082526020820181905291810182905260608082018390526080820183905260a0820183905260c0820183905260e0820183905261010082019290925261012081019190915290565b60408051610100810182526000918101828152606082018390526080820183905260a0820183905260c0820183905260e08201929092529081908152602001615d336040518061010001604052806060815260200160608152602001600015158152602001600061ffff168152602001600060ff168152602001600060ff16815260200160608152602001606081525090565b905290565b60405180606001604052806003906020820280368337509192915050565b6001600160e01b0319811681146133cc57600080fd5b600060208284031215615d7e57600080fd5b8135614daa81615d56565b60005b83811015615da4578181015183820152602001615d8c565b50506000910152565b60008151808452615dc5816020860160208601615d89565b601f01601f19169290920160200192915050565b602081526000614daa6020830184615dad565b600060208284031215615dfe57600080fd5b5035919050565b80356001600160a01b0381168114615e1c57600080fd5b919050565b600080600060608486031215615e3657600080fd5b615e3f84615e05565b95602085013595506040909401359392505050565b600081518084526020808501945080840160005b83811015615e8457815187529582019590820190600101615e68565b509495945050505050565b60e081526000615ea260e083018a615e54565b8281036020840152615eb4818a615e54565b90508281036040840152615ec88189615e54565b90508281036060840152615edc8188615e54565b6080840196909652505091151560a083015260c090910152949350505050565b60008060408385031215615f0f57600080fd5b615f1883615e05565b946020939093013593505050565b60008060408385031215615f3957600080fd5b50508035926020909101359150565b600080600060608486031215615f5d57600080fd5b505081359360208301359350604090920135919050565b60008083601f840112615f8657600080fd5b5081356001600160401b03811115615f9d57600080fd5b602083019150836020828501011115615fb557600080fd5b9250929050565b600080600060408486031215615fd157600080fd5b8335925060208401356001600160401b03811115615fee57600080fd5b615ffa86828701615f74565b9497909650939450505050565b60008060006060848603121561601c57600080fd5b61602584615e05565b925061603360208501615e05565b9150604084013590509250925092565b8051825260208101511515602083015261ffff604082015116604083015260ff606082015116606083015260ff608082015116608083015260ff60a08201511660a08301525050565b600061010082518185526160a282860182615dad565b915050602083015184820360208601526160bc8282615dad565b91505060408301516160d2604086018215159052565b5060608301516160e8606086018261ffff169052565b5060808301516160fd608086018260ff169052565b5060a083015161611260a086018260ff169052565b5060c083015184820360c086015261612a8282615dad565b91505060e083015184820360e08601526161448282615dad565b95945050505050565b6161578184616043565b60e060c08201526000614ebe60e083018461608c565b80518252602081015160208301526000604082015160e0604085015261619660e0850182615dad565b90506060830151606085015260018060a01b03608084015116608085015260ff60a08401511660a085015260c083015184820360c08601526161448282615dad565b6000608082016080835280875180835260a08501915060a08160051b86010192506020808a0160005b8381101561622f57609f1988870301855261621d86835161616d565b95509382019390820190600101616201565b5050850197909752509315156040830152506060015292915050565b6000608082016080835280875180835260a08501915060a08160051b86010192506020808a0160005b8381101561622f57609f19888703018552616290868351615dad565b95509382019390820190600101616274565b600080600080608085870312156162b857600080fd5b5050823594602084013594506040840135936060013592509050565b60a0815260006162e760a0830188615e54565b82810360208401526162f98188615e54565b60408401969096525050911515606083015260809091015292915050565b60ff811681146133cc57600080fd5b60008060008060008060008060c0898b03121561634257600080fd5b8835975060208901359650604089013561635b81616317565b955060608901356001600160401b038082111561637757600080fd5b6163838c838d01615f74565b909750955060808b013591508082111561639c57600080fd5b506163a98b828c01615f74565b999c989b50969995989497949560a00135949350505050565b60008060008060008060c087890312156163db57600080fd5b505084359660208601359650604086013595606081013595506080810135945060a0013592509050565b60006101408c83528b60208401528a60408401528960608401528860808401528760a084015260018060a01b03871660c08401526001600160601b03861660e0840152846101008401528061012084015261646281840185615dad565b9d9c50505050505050505050505050565b60006020828403121561648557600080fd5b614daa82615e05565b6000610140825184526020830151602085015260408301516040850152606083015160608501526080830151608085015260a083015160a085015260c08301516164e360c08601826001600160a01b03169052565b5060e08301516164fe60e08601826001600160601b03169052565b5061010080840151818601525061012080840151828287015261652383870182615dad565b9695505050505050565b86815285602082015260c06040820152600061654c60c083018761648e565b828103606084015261655f818751616043565b602086015160e060c083015261657860e083018261608c565b91505084608084015282810360a08401526165938185615dad565b9998505050505050505050565b6000608082016080835280875180835260a08501915060a08160051b86010192506020808a0160005b8381101561622f57609f198887030185526165e586835161648e565b955093820193908201906001016165c9565b80151581146133cc57600080fd5b6000806040838503121561661857600080fd5b61662183615e05565b91506020830135616631816165f7565b809150509250929050565b8060408101831015610dcb57600080fd5b8060808101831015610dcb57600080fd5b60008060008060008060008060006102208a8c03121561667d57600080fd5b6166878b8b61663c565b98506166968b60408c0161664d565b97506166a58b60c08c0161663c565b96506101a08a018b8111156166b957600080fd5b6101008b0196503594506101c08a013593506101e08a01356001600160401b03808211156166e657600080fd5b6166f28d838e01615f74565b90955093506102008c013591508082111561670c57600080fd5b508a0160e0818d03121561671f57600080fd5b809150509295985092959850929598565b634e487b7160e01b600052604160045260246000fd5b604051601f8201601f191681016001600160401b038111828210171561676e5761676e616730565b604052919050565b6000806000806080858703121561678c57600080fd5b61679585615e05565b935060206167a4818701615e05565b93506040860135925060608601356001600160401b03808211156167c757600080fd5b818801915088601f8301126167db57600080fd5b8135818111156167ed576167ed616730565b6167ff601f8201601f19168501616746565b9150808252898482850101111561681557600080fd5b808484018584013760008482840101525080935050505092959194509250565b606081526000616848606083018661648e565b60208301949094525060400152919050565b61ffff811681146133cc57600080fd5b600060c0828403121561687c57600080fd5b60405160c081018181106001600160401b038211171561689e5761689e616730565b6040528235815260208301356168b3816165f7565b602082015260408301356168c68161685a565b604082015260608301356168d981616317565b606082015260808301356168ec81616317565b608082015260a08301356168ff81616317565b60a08201529392505050565b60008060008060008060008060006102608a8c03121561692a57600080fd5b6169348b8b61663c565b98506169438b60408c0161664d565b97506169528b60c08c0161663c565b96506101e08a018b81111561696657600080fd5b6101008b0196503594506102008a013593506102208a013592506102408a01356001600160401b0381111561699a57600080fd5b6169a68c828d01615f74565b915080935050809150509295985092959850929598565b87815286602082015260e0604082015260006169dc60e0830188615dad565b606083018790526001600160a01b038616608084015260ff851660a084015282810360c0840152616a0d8185615dad565b9a9950505050505050505050565b60008060408385031215616a2e57600080fd5b616a3783615e05565b9150616a4560208401615e05565b90509250929050565b60c081526000616a6160c0830189615e54565b8281036020840152616a738189615e54565b90508281036040840152616a878188615e54565b60608401969096525050911515608083015260a0909101529392505050565b602081526000614daa602083018461616d565b60008060408385031215616acc57600080fd5b82359150616a4560208401615e05565b600181811c90821680616af057607f821691505b602082108103616b1057634e487b7160e01b600052602260045260246000fd5b50919050565b634e487b7160e01b600052601160045260246000fd5b80820180821115610dcb57610dcb616b16565b634e487b7160e01b600052603260045260246000fd5b81810381811115610dcb57610dcb616b16565b600060018201616b7a57616b7a616b16565b5060010190565b601f821115611d0557600081815260208120601f850160051c81016020861015616ba85750805b601f850160051c820191505b818110156126e857828155600101616bb4565b600019600383901b1c191660019190911b1790565b81516001600160401b03811115616bf557616bf5616730565b616c0981616c038454616adc565b84616b81565b602080601f831160018114616c385760008415616c265750858301515b616c308582616bc7565b8655506126e8565b600085815260208120601f198616915b82811015616c6757888601518255948401946001909101908401616c48565b5085821015616c855787850151600019600388901b60f8161c191681555b5050505050600190811b01905550565b81835281816020850137506000828201602090810191909152601f909101601f19169091010190565b604081526000616cd16040830186615dad565b8281036020840152616523818587616c95565b6001600160401b03831115616cfb57616cfb616730565b616d0f83616d098354616adc565b83616b81565b6000601f841160018114616d3d5760008515616d2b5750838201355b616d358682616bc7565b8455506151ba565b600083815260209020601f19861690835b82811015616d6e5786850135825560209485019460019092019101616d4e565b5086821015616d8b5760001960f88860031b161c19848701351681555b505060018560011b0183555050505050565b85815284602082015260ff84166040820152608060608201526000616dc6608083018486616c95565b979650505050505050565b8781526000602088818401528760408401528660608401528560808401528460a084015260e060c084015260008454616e0981616adc565b8060e0870152610100600180841660008114616e2c5760018114616e4657616e74565b60ff1985168984015283151560051b890183019550616e74565b896000528660002060005b85811015616e6c5781548b8201860152908301908801616e51565b8a0184019650505b50939e9d5050505050505050505050505050565b634e487b7160e01b600052603160045260246000fd5b6000823560fe19833603018112616eb457600080fd5b9190910192915050565b6000808335601e19843603018112616ed557600080fd5b8301803591506001600160401b03821115616eef57600080fd5b602001915036819003821315615fb557600080fd5b600060208284031215616f1657600080fd5b8135614daa81616317565b8060005b600281101561149c57604080838637938401939190910190600101616f25565b6101a081016040868337616f5c6040830186616f21565b60408460c084013760a08361010084013795945050505050565b600060208284031215616f8857600080fd5b8151614daa816165f7565b60008135610dcb816165f7565b60008135610dcb8161685a565b60008135610dcb81616317565b616fc48283616ebe565b6001600160401b03811115616fdb57616fdb616730565b616fef81616fe98554616adc565b85616b81565b6000601f82116001811461701d576000831561700b5750838201355b6170158482616bc7565b865550617077565b600085815260209020601f19841690835b8281101561704e578685013582556020948501946001909201910161702e565b508482101561706b5760001960f88660031b161c19848701351681555b505060018360011b0185555b505050506170886020830183616ebe565b617096818360018601616ce4565b5050600281016170bf6170ab60408501616f93565b825490151560ff1660ff1991909116178255565b6170e66170ce60608501616fa0565b825462ffff00191660089190911b62ffff0016178255565b61710f6170f560808501616fad565b825463ff000000191660189190911b63ff00000016178255565b61713a61711e60a08501616fad565b825464ff00000000191660209190911b64ff0000000016178255565b5061714860c0830183616ebe565b617156818360038601616ce4565b505061716560e0830183616ebe565b61149c818360048601616ce4565b81358155600181016020830135617189816165f7565b815460ff191660ff821515161782555060408301356171a78161685a565b815462ffff001916600882901b62ffff00161782555060608301356171cb81616317565b815463ff0000001916601882901b63ff000000161782555060808301356171f181616317565b815464ff000000001916602082901b64ff00000000161782555060a083013561721981616317565b815465ff0000000000191660289190911b65ff00000000001617905560c08201353683900360fe1901811261724d57600080fd5b611d0581840160028401616fba565b848152606060208201526000617276606083018587616c95565b905082604083015295945050505050565b60006020828403121561729957600080fd5b5051919050565b8082028115828204841417610dcb57610dcb616b16565b6000826172d457634e487b7160e01b600052601260045260246000fd5b500490565b60608101818360005b60038110156173015781518352602092830192909101906001016172e2565b50505092915050565b6101e0810160408683376173216040830186616f21565b60408460c084013760e08361010084013795945050505050565b60008251616eb4818460208701615d89565b6001600160a01b038581168252841660208201526040810183905260806060820181905260009061652390830184615dad565b60006020828403121561739257600080fd5b8151614daa81615d56565b8881528760208201528660408201528560608201528460808201528360a082015260e060c08201526000616a0d60e083018486616c9556fea264697066735822122042a0da9f1910c7b1ab42145202c953dd3253794ec394b44def3278350beb5d0164736f6c63430008140033",
  "linkReferences": {
    "poseidon-solidity/PoseidonT4.sol": {
      "PoseidonT4": [
        {
          "length": 20,
          "start": 18260
        }
      ]
    }
  },
  "deployedLinkReferences": {
    "poseidon-solidity/PoseidonT4.sol": {
      "PoseidonT4": [
        {
          "length": 20,
          "start": 17249
        }
      ]
    }
  }
}