{
  "_format": "hh-sol-artifact-1",
  "contractName": "DeepFamily",
  "sourceName": "contracts/DeepFamily.sol",
  "abi": [
    {
      "inputs": [
        {
          "internalType": "address",
          "name": "_deepFamilyTokenContract",
          "type": "address"
        },
        {
          "internalType": "address",
          "name": "_personHashVerifier",
          "type": "address"
        },
        {
          "internalType": "address",
          "name": "_namePoseidonVerifier",
          "type": "address"
        }
      ],
      "stateMutability": "nonpayable",
      "type": "constructor"
    },
    {
      "inputs": [],
      "name": "AlreadyEndorsed",
      "type": "error"
    },
    {
      "inputs": [],
      "name": "BasicInfoMismatch",
      "type": "error"
    },
    {
      "inputs": [],
      "name": "CallerMismatch",
      "type": "error"
    },
    {
      "inputs": [],
      "name": "ChunkHashMismatch",
      "type": "error"
    },
    {
      "inputs": [],
      "name": "ChunkIndexOutOfRange",
      "type": "error"
    },
    {
      "inputs": [],
      "name": "DirectETHNotAccepted",
      "type": "error"
    },
    {
      "inputs": [],
      "name": "DuplicateVersion",
      "type": "error"
    },
    {
      "inputs": [],
      "name": "ERC721EnumerableForbiddenBatchMint",
      "type": "error"
    },
    {
      "inputs": [
        {
          "internalType": "address",
          "name": "sender",
          "type": "address"
        },
        {
          "internalType": "uint256",
          "name": "tokenId",
          "type": "uint256"
        },
        {
          "internalType": "address",
          "name": "owner",
          "type": "address"
        }
      ],
      "name": "ERC721IncorrectOwner",
      "type": "error"
    },
    {
      "inputs": [
        {
          "internalType": "address",
          "name": "operator",
          "type": "address"
        },
        {
          "internalType": "uint256",
          "name": "tokenId",
          "type": "uint256"
        }
      ],
      "name": "ERC721InsufficientApproval",
      "type": "error"
    },
    {
      "inputs": [
        {
          "internalType": "address",
          "name": "approver",
          "type": "address"
        }
      ],
      "name": "ERC721InvalidApprover",
      "type": "error"
    },
    {
      "inputs": [
        {
          "internalType": "address",
          "name": "operator",
          "type": "address"
        }
      ],
      "name": "ERC721InvalidOperator",
      "type": "error"
    },
    {
      "inputs": [
        {
          "internalType": "address",
          "name": "owner",
          "type": "address"
        }
      ],
      "name": "ERC721InvalidOwner",
      "type": "error"
    },
    {
      "inputs": [
        {
          "internalType": "address",
          "name": "receiver",
          "type": "address"
        }
      ],
      "name": "ERC721InvalidReceiver",
      "type": "error"
    },
    {
      "inputs": [
        {
          "internalType": "address",
          "name": "sender",
          "type": "address"
        }
      ],
      "name": "ERC721InvalidSender",
      "type": "error"
    },
    {
      "inputs": [
        {
          "internalType": "uint256",
          "name": "tokenId",
          "type": "uint256"
        }
      ],
      "name": "ERC721NonexistentToken",
      "type": "error"
    },
    {
      "inputs": [
        {
          "internalType": "address",
          "name": "owner",
          "type": "address"
        },
        {
          "internalType": "uint256",
          "name": "index",
          "type": "uint256"
        }
      ],
      "name": "ERC721OutOfBoundsIndex",
      "type": "error"
    },
    {
      "inputs": [],
      "name": "EndorsementFeeTransferFailed",
      "type": "error"
    },
    {
      "inputs": [],
      "name": "InvalidBirthDay",
      "type": "error"
    },
    {
      "inputs": [],
      "name": "InvalidBirthMonth",
      "type": "error"
    },
    {
      "inputs": [],
      "name": "InvalidBirthPlace",
      "type": "error"
    },
    {
      "inputs": [],
      "name": "InvalidCIDLength",
      "type": "error"
    },
    {
      "inputs": [],
      "name": "InvalidChunkContent",
      "type": "error"
    },
    {
      "inputs": [],
      "name": "InvalidDeathDay",
      "type": "error"
    },
    {
      "inputs": [],
      "name": "InvalidDeathMonth",
      "type": "error"
    },
    {
      "inputs": [],
      "name": "InvalidDeathPlace",
      "type": "error"
    },
    {
      "inputs": [],
      "name": "InvalidFatherVersionIndex",
      "type": "error"
    },
    {
      "inputs": [],
      "name": "InvalidFullName",
      "type": "error"
    },
    {
      "inputs": [],
      "name": "InvalidMotherVersionIndex",
      "type": "error"
    },
    {
      "inputs": [],
      "name": "InvalidParentHash",
      "type": "error"
    },
    {
      "inputs": [],
      "name": "InvalidPersonHash",
      "type": "error"
    },
    {
      "inputs": [],
      "name": "InvalidStory",
      "type": "error"
    },
    {
      "inputs": [],
      "name": "InvalidTagLength",
      "type": "error"
    },
    {
      "inputs": [],
      "name": "InvalidTokenId",
      "type": "error"
    },
    {
      "inputs": [],
      "name": "InvalidTokenURI",
      "type": "error"
    },
    {
      "inputs": [],
      "name": "InvalidVersionIndex",
      "type": "error"
    },
    {
      "inputs": [],
      "name": "InvalidZKProof",
      "type": "error"
    },
    {
      "inputs": [],
      "name": "MustBeNFTHolder",
      "type": "error"
    },
    {
      "inputs": [],
      "name": "MustEndorseVersionFirst",
      "type": "error"
    },
    {
      "inputs": [],
      "name": "NameVerifierNotSet",
      "type": "error"
    },
    {
      "inputs": [],
      "name": "NotEndorsed",
      "type": "error"
    },
    {
      "inputs": [
        {
          "internalType": "address",
          "name": "owner",
          "type": "address"
        }
      ],
      "name": "OwnableInvalidOwner",
      "type": "error"
    },
    {
      "inputs": [
        {
          "internalType": "address",
          "name": "account",
          "type": "address"
        }
      ],
      "name": "OwnableUnauthorizedAccount",
      "type": "error"
    },
    {
      "inputs": [],
      "name": "PageSizeExceedsLimit",
      "type": "error"
    },
    {
      "inputs": [],
      "name": "ProtocolFeeTooHigh",
      "type": "error"
    },
    {
      "inputs": [],
      "name": "ReentrancyGuardReentrantCall",
      "type": "error"
    },
    {
      "inputs": [],
      "name": "StoryAlreadySealed",
      "type": "error"
    },
    {
      "inputs": [],
      "name": "StoryNotFound",
      "type": "error"
    },
    {
      "inputs": [],
      "name": "TokenContractNotSet",
      "type": "error"
    },
    {
      "inputs": [],
      "name": "VerifierNotSet",
      "type": "error"
    },
    {
      "inputs": [],
      "name": "VersionAlreadyMinted",
      "type": "error"
    },
    {
      "anonymous": false,
      "inputs": [
        {
          "indexed": true,
          "internalType": "address",
          "name": "owner",
          "type": "address"
        },
        {
          "indexed": true,
          "internalType": "address",
          "name": "approved",
          "type": "address"
        },
        {
          "indexed": true,
          "internalType": "uint256",
          "name": "tokenId",
          "type": "uint256"
        }
      ],
      "name": "Approval",
      "type": "event"
    },
    {
      "anonymous": false,
      "inputs": [
        {
          "indexed": true,
          "internalType": "address",
          "name": "owner",
          "type": "address"
        },
        {
          "indexed": true,
          "internalType": "address",
          "name": "operator",
          "type": "address"
        },
        {
          "indexed": false,
          "internalType": "bool",
          "name": "approved",
          "type": "bool"
        }
      ],
      "name": "ApprovalForAll",
      "type": "event"
    },
    {
      "anonymous": false,
      "inputs": [
        {
          "indexed": true,
          "internalType": "bytes32",
          "name": "personHash",
          "type": "bytes32"
        },
        {
          "indexed": true,
          "internalType": "address",
          "name": "user",
          "type": "address"
        },
        {
          "indexed": false,
          "internalType": "uint256",
          "name": "versionIndex",
          "type": "uint256"
        },
        {
          "indexed": false,
          "internalType": "uint256",
          "name": "timestamp",
          "type": "uint256"
        }
      ],
      "name": "EndorsementCancelled",
      "type": "event"
    },
    {
      "anonymous": false,
      "inputs": [
        {
          "indexed": true,
          "internalType": "address",
          "name": "previousOwner",
          "type": "address"
        },
        {
          "indexed": true,
          "internalType": "address",
          "name": "newOwner",
          "type": "address"
        }
      ],
      "name": "OwnershipTransferred",
      "type": "event"
    },
    {
      "anonymous": false,
      "inputs": [
        {
          "indexed": true,
          "internalType": "bytes32",
          "name": "personHash",
          "type": "bytes32"
        },
        {
          "indexed": true,
          "internalType": "address",
          "name": "prover",
          "type": "address"
        }
      ],
      "name": "PersonHashZKVerified",
      "type": "event"
    },
    {
      "anonymous": false,
      "inputs": [
        {
          "indexed": true,
          "internalType": "bytes32",
          "name": "personHash",
          "type": "bytes32"
        },
        {
          "indexed": true,
          "internalType": "uint256",
          "name": "tokenId",
          "type": "uint256"
        },
        {
          "indexed": true,
          "internalType": "address",
          "name": "owner",
          "type": "address"
        },
        {
          "indexed": false,
          "internalType": "uint256",
          "name": "versionIndex",
          "type": "uint256"
        },
        {
          "indexed": false,
          "internalType": "string",
          "name": "tokenURI",
          "type": "string"
        },
        {
          "indexed": false,
          "internalType": "uint256",
          "name": "timestamp",
          "type": "uint256"
        }
      ],
      "name": "PersonNFTMinted",
      "type": "event"
    },
    {
      "anonymous": false,
      "inputs": [
        {
          "indexed": true,
          "internalType": "bytes32",
          "name": "personHash",
          "type": "bytes32"
        },
        {
          "indexed": true,
          "internalType": "uint256",
          "name": "versionIndex",
          "type": "uint256"
        },
        {
          "indexed": true,
          "internalType": "address",
          "name": "addedBy",
          "type": "address"
        },
        {
          "indexed": false,
          "internalType": "uint256",
          "name": "timestamp",
          "type": "uint256"
        },
        {
          "indexed": false,
          "internalType": "bytes32",
          "name": "fatherHash",
          "type": "bytes32"
        },
        {
          "indexed": false,
          "internalType": "uint256",
          "name": "fatherVersionIndex",
          "type": "uint256"
        },
        {
          "indexed": false,
          "internalType": "bytes32",
          "name": "motherHash",
          "type": "bytes32"
        },
        {
          "indexed": false,
          "internalType": "uint256",
          "name": "motherVersionIndex",
          "type": "uint256"
        },
        {
          "indexed": false,
          "internalType": "string",
          "name": "tag",
          "type": "string"
        }
      ],
      "name": "PersonVersionAdded",
      "type": "event"
    },
    {
      "anonymous": false,
      "inputs": [
        {
          "indexed": true,
          "internalType": "bytes32",
          "name": "personHash",
          "type": "bytes32"
        },
        {
          "indexed": true,
          "internalType": "address",
          "name": "endorser",
          "type": "address"
        },
        {
          "indexed": false,
          "internalType": "uint256",
          "name": "versionIndex",
          "type": "uint256"
        },
        {
          "indexed": false,
          "internalType": "address",
          "name": "recipient",
          "type": "address"
        },
        {
          "indexed": false,
          "internalType": "uint256",
          "name": "recipientShare",
          "type": "uint256"
        },
        {
          "indexed": false,
          "internalType": "address",
          "name": "protocolRecipient",
          "type": "address"
        },
        {
          "indexed": false,
          "internalType": "uint256",
          "name": "protocolShare",
          "type": "uint256"
        },
        {
          "indexed": false,
          "internalType": "uint256",
          "name": "endorsementFee",
          "type": "uint256"
        },
        {
          "indexed": false,
          "internalType": "uint256",
          "name": "timestamp",
          "type": "uint256"
        }
      ],
      "name": "PersonVersionEndorsed",
      "type": "event"
    },
    {
      "anonymous": false,
      "inputs": [
        {
          "indexed": false,
          "internalType": "uint256",
          "name": "previousBps",
          "type": "uint256"
        },
        {
          "indexed": false,
          "internalType": "uint256",
          "name": "newBps",
          "type": "uint256"
        }
      ],
      "name": "ProtocolEndorsementFeeUpdated",
      "type": "event"
    },
    {
      "anonymous": false,
      "inputs": [
        {
          "indexed": true,
          "internalType": "uint256",
          "name": "tokenId",
          "type": "uint256"
        },
        {
          "indexed": true,
          "internalType": "uint256",
          "name": "chunkIndex",
          "type": "uint256"
        },
        {
          "indexed": false,
          "internalType": "bytes32",
          "name": "chunkHash",
          "type": "bytes32"
        },
        {
          "indexed": true,
          "internalType": "address",
          "name": "editor",
          "type": "address"
        },
        {
          "indexed": false,
          "internalType": "uint256",
          "name": "contentLength",
          "type": "uint256"
        },
        {
          "indexed": false,
          "internalType": "uint8",
          "name": "chunkType",
          "type": "uint8"
        },
        {
          "indexed": false,
          "internalType": "string",
          "name": "attachmentCID",
          "type": "string"
        }
      ],
      "name": "StoryChunkAdded",
      "type": "event"
    },
    {
      "anonymous": false,
      "inputs": [
        {
          "indexed": true,
          "internalType": "uint256",
          "name": "tokenId",
          "type": "uint256"
        },
        {
          "indexed": false,
          "internalType": "uint256",
          "name": "totalChunks",
          "type": "uint256"
        },
        {
          "indexed": false,
          "internalType": "bytes32",
          "name": "fullStoryHash",
          "type": "bytes32"
        },
        {
          "indexed": true,
          "internalType": "address",
          "name": "sealer",
          "type": "address"
        }
      ],
      "name": "StorySealed",
      "type": "event"
    },
    {
      "anonymous": false,
      "inputs": [
        {
          "indexed": true,
          "internalType": "address",
          "name": "miner",
          "type": "address"
        },
        {
          "indexed": true,
          "internalType": "bytes32",
          "name": "personHash",
          "type": "bytes32"
        },
        {
          "indexed": true,
          "internalType": "uint256",
          "name": "versionIndex",
          "type": "uint256"
        },
        {
          "indexed": false,
          "internalType": "uint256",
          "name": "reward",
          "type": "uint256"
        }
      ],
      "name": "TokenRewardDistributed",
      "type": "event"
    },
    {
      "anonymous": false,
      "inputs": [
        {
          "indexed": true,
          "internalType": "uint256",
          "name": "tokenId",
          "type": "uint256"
        },
        {
          "indexed": true,
          "internalType": "address",
          "name": "owner",
          "type": "address"
        },
        {
          "indexed": false,
          "internalType": "string",
          "name": "oldURI",
          "type": "string"
        },
        {
          "indexed": false,
          "internalType": "string",
          "name": "newURI",
          "type": "string"
        }
      ],
      "name": "TokenURIUpdated",
      "type": "event"
    },
    {
      "anonymous": false,
      "inputs": [
        {
          "indexed": true,
          "internalType": "address",
          "name": "from",
          "type": "address"
        },
        {
          "indexed": true,
          "internalType": "address",
          "name": "to",
          "type": "address"
        },
        {
          "indexed": true,
          "internalType": "uint256",
          "name": "tokenId",
          "type": "uint256"
        }
      ],
      "name": "Transfer",
      "type": "event"
    },
    {
      "stateMutability": "payable",
      "type": "fallback"
    },
    {
      "inputs": [],
      "name": "DEEP_FAMILY_TOKEN_CONTRACT",
      "outputs": [
        {
          "internalType": "address",
          "name": "",
          "type": "address"
        }
      ],
      "stateMutability": "view",
      "type": "function"
    },
    {
      "inputs": [],
      "name": "FEE_BPS_DENOMINATOR",
      "outputs": [
        {
          "internalType": "uint256",
          "name": "",
          "type": "uint256"
        }
      ],
      "stateMutability": "view",
      "type": "function"
    },
    {
      "inputs": [],
      "name": "MAX_CHUNK_CONTENT_LENGTH",
      "outputs": [
        {
          "internalType": "uint256",
          "name": "",
          "type": "uint256"
        }
      ],
      "stateMutability": "view",
      "type": "function"
    },
    {
      "inputs": [],
      "name": "MAX_LONG_TEXT_LENGTH",
      "outputs": [
        {
          "internalType": "uint256",
          "name": "",
          "type": "uint256"
        }
      ],
      "stateMutability": "view",
      "type": "function"
    },
    {
      "inputs": [],
      "name": "MAX_QUERY_PAGE_SIZE",
      "outputs": [
        {
          "internalType": "uint256",
          "name": "",
          "type": "uint256"
        }
      ],
      "stateMutability": "view",
      "type": "function"
    },
    {
      "inputs": [],
      "name": "NAME_POSEIDON_VERIFIER",
      "outputs": [
        {
          "internalType": "address",
          "name": "",
          "type": "address"
        }
      ],
      "stateMutability": "view",
      "type": "function"
    },
    {
      "inputs": [],
      "name": "PERSON_HASH_VERIFIER",
      "outputs": [
        {
          "internalType": "address",
          "name": "",
          "type": "address"
        }
      ],
      "stateMutability": "view",
      "type": "function"
    },
    {
      "inputs": [],
      "name": "PROTOCOL_FEE_BPS_MAX",
      "outputs": [
        {
          "internalType": "uint256",
          "name": "",
          "type": "uint256"
        }
      ],
      "stateMutability": "view",
      "type": "function"
    },
    {
      "inputs": [
        {
          "internalType": "uint256[2]",
          "name": "a",
          "type": "uint256[2]"
        },
        {
          "internalType": "uint256[2][2]",
          "name": "b",
          "type": "uint256[2][2]"
        },
        {
          "internalType": "uint256[2]",
          "name": "c",
          "type": "uint256[2]"
        },
        {
          "internalType": "uint256[7]",
          "name": "publicSignals",
          "type": "uint256[7]"
        },
        {
          "internalType": "uint256",
          "name": "fatherVersionIndex",
          "type": "uint256"
        },
        {
          "internalType": "uint256",
          "name": "motherVersionIndex",
          "type": "uint256"
        },
        {
          "internalType": "string",
          "name": "tag",
          "type": "string"
        },
        {
          "internalType": "string",
          "name": "metadataCID",
          "type": "string"
        }
      ],
      "name": "addPersonZK",
      "outputs": [],
      "stateMutability": "nonpayable",
      "type": "function"
    },
    {
      "inputs": [
        {
          "internalType": "uint256",
          "name": "tokenId",
          "type": "uint256"
        },
        {
          "internalType": "uint256",
          "name": "chunkIndex",
          "type": "uint256"
        },
        {
          "internalType": "uint8",
          "name": "chunkType",
          "type": "uint8"
        },
        {
          "internalType": "string",
          "name": "content",
          "type": "string"
        },
        {
          "internalType": "string",
          "name": "attachmentCID",
          "type": "string"
        },
        {
          "internalType": "bytes32",
          "name": "expectedHash",
          "type": "bytes32"
        }
      ],
      "name": "addStoryChunk",
      "outputs": [],
      "stateMutability": "nonpayable",
      "type": "function"
    },
    {
      "inputs": [
        {
          "internalType": "address",
          "name": "to",
          "type": "address"
        },
        {
          "internalType": "uint256",
          "name": "tokenId",
          "type": "uint256"
        }
      ],
      "name": "approve",
      "outputs": [],
      "stateMutability": "nonpayable",
      "type": "function"
    },
    {
      "inputs": [
        {
          "internalType": "address",
          "name": "owner",
          "type": "address"
        }
      ],
      "name": "balanceOf",
      "outputs": [
        {
          "internalType": "uint256",
          "name": "",
          "type": "uint256"
        }
      ],
      "stateMutability": "view",
      "type": "function"
    },
    {
      "inputs": [
        {
          "internalType": "bytes32",
          "name": "personHash",
          "type": "bytes32"
        }
      ],
      "name": "cancelEndorsement",
      "outputs": [],
      "stateMutability": "nonpayable",
      "type": "function"
    },
    {
      "inputs": [
        {
          "internalType": "bytes32",
          "name": "",
          "type": "bytes32"
        },
        {
          "internalType": "uint256",
          "name": "",
          "type": "uint256"
        },
        {
          "internalType": "uint256",
          "name": "",
          "type": "uint256"
        }
      ],
      "name": "childrenOf",
      "outputs": [
        {
          "internalType": "bytes32",
          "name": "childHash",
          "type": "bytes32"
        },
        {
          "internalType": "uint256",
          "name": "childVersionIndex",
          "type": "uint256"
        }
      ],
      "stateMutability": "view",
      "type": "function"
    },
    {
      "inputs": [
        {
          "internalType": "bytes32",
          "name": "personHash",
          "type": "bytes32"
        },
        {
          "internalType": "uint256",
          "name": "versionIndex",
          "type": "uint256"
        }
      ],
      "name": "endorseVersion",
      "outputs": [],
      "stateMutability": "nonpayable",
      "type": "function"
    },
    {
      "inputs": [
        {
          "internalType": "bytes32",
          "name": "",
          "type": "bytes32"
        },
        {
          "internalType": "address",
          "name": "",
          "type": "address"
        }
      ],
      "name": "endorsedVersionIndex",
      "outputs": [
        {
          "internalType": "uint256",
          "name": "",
          "type": "uint256"
        }
      ],
      "stateMutability": "view",
      "type": "function"
    },
    {
      "inputs": [
        {
          "internalType": "uint256",
          "name": "tokenId",
          "type": "uint256"
        }
      ],
      "name": "getApproved",
      "outputs": [
        {
          "internalType": "address",
          "name": "",
          "type": "address"
        }
      ],
      "stateMutability": "view",
      "type": "function"
    },
    {
      "inputs": [
        {
          "internalType": "uint256",
          "name": "tokenId",
          "type": "uint256"
        }
      ],
      "name": "getNFTDetails",
      "outputs": [
        {
          "internalType": "bytes32",
          "name": "personHash",
          "type": "bytes32"
        },
        {
          "internalType": "uint256",
          "name": "versionIndex",
          "type": "uint256"
        },
        {
          "components": [
            {
              "internalType": "bytes32",
              "name": "personHash",
              "type": "bytes32"
            },
            {
              "internalType": "bytes32",
              "name": "fatherHash",
              "type": "bytes32"
            },
            {
              "internalType": "bytes32",
              "name": "motherHash",
              "type": "bytes32"
            },
            {
              "internalType": "uint256",
              "name": "versionIndex",
              "type": "uint256"
            },
            {
              "internalType": "uint256",
              "name": "fatherVersionIndex",
              "type": "uint256"
            },
            {
              "internalType": "uint256",
              "name": "motherVersionIndex",
              "type": "uint256"
            },
            {
              "internalType": "address",
              "name": "addedBy",
              "type": "address"
            },
            {
              "internalType": "uint96",
              "name": "timestamp",
              "type": "uint96"
            },
            {
              "internalType": "string",
              "name": "tag",
              "type": "string"
            },
            {
              "internalType": "string",
              "name": "metadataCID",
              "type": "string"
            }
          ],
          "internalType": "struct DeepFamily.PersonVersion",
          "name": "version",
          "type": "tuple"
        },
        {
          "components": [
            {
              "components": [
                {
                  "internalType": "bytes32",
                  "name": "fullNameCommitment",
                  "type": "bytes32"
                },
                {
                  "internalType": "bool",
                  "name": "isBirthBC",
                  "type": "bool"
                },
                {
                  "internalType": "uint16",
                  "name": "birthYear",
                  "type": "uint16"
                },
                {
                  "internalType": "uint8",
                  "name": "birthMonth",
                  "type": "uint8"
                },
                {
                  "internalType": "uint8",
                  "name": "birthDay",
                  "type": "uint8"
                },
                {
                  "internalType": "uint8",
                  "name": "gender",
                  "type": "uint8"
                }
              ],
              "internalType": "struct DeepFamily.PersonBasicInfo",
              "name": "basicInfo",
              "type": "tuple"
            },
            {
              "components": [
                {
                  "internalType": "string",
                  "name": "fullName",
                  "type": "string"
                },
                {
                  "internalType": "string",
                  "name": "birthPlace",
                  "type": "string"
                },
                {
                  "internalType": "bool",
                  "name": "isDeathBC",
                  "type": "bool"
                },
                {
                  "internalType": "uint16",
                  "name": "deathYear",
                  "type": "uint16"
                },
                {
                  "internalType": "uint8",
                  "name": "deathMonth",
                  "type": "uint8"
                },
                {
                  "internalType": "uint8",
                  "name": "deathDay",
                  "type": "uint8"
                },
                {
                  "internalType": "string",
                  "name": "deathPlace",
                  "type": "string"
                },
                {
                  "internalType": "string",
                  "name": "story",
                  "type": "string"
                }
              ],
              "internalType": "struct DeepFamily.PersonSupplementInfo",
              "name": "supplementInfo",
              "type": "tuple"
            }
          ],
          "internalType": "struct DeepFamily.PersonCoreInfo",
          "name": "coreInfo",
          "type": "tuple"
        },
        {
          "internalType": "uint256",
          "name": "endorsementCount",
          "type": "uint256"
        },
        {
          "internalType": "string",
          "name": "nftTokenURI",
          "type": "string"
        }
      ],
      "stateMutability": "view",
      "type": "function"
    },
    {
      "inputs": [
        {
          "components": [
            {
              "internalType": "bytes32",
              "name": "fullNameCommitment",
              "type": "bytes32"
            },
            {
              "internalType": "bool",
              "name": "isBirthBC",
              "type": "bool"
            },
            {
              "internalType": "uint16",
              "name": "birthYear",
              "type": "uint16"
            },
            {
              "internalType": "uint8",
              "name": "birthMonth",
              "type": "uint8"
            },
            {
              "internalType": "uint8",
              "name": "birthDay",
              "type": "uint8"
            },
            {
              "internalType": "uint8",
              "name": "gender",
              "type": "uint8"
            }
          ],
          "internalType": "struct DeepFamily.PersonBasicInfo",
          "name": "basicInfo",
          "type": "tuple"
        }
      ],
      "name": "getPersonHash",
      "outputs": [
        {
          "internalType": "bytes32",
          "name": "",
          "type": "bytes32"
        }
      ],
      "stateMutability": "pure",
      "type": "function"
    },
    {
      "inputs": [
        {
          "internalType": "uint256",
          "name": "tokenId",
          "type": "uint256"
        },
        {
          "internalType": "uint256",
          "name": "chunkIndex",
          "type": "uint256"
        }
      ],
      "name": "getStoryChunk",
      "outputs": [
        {
          "components": [
            {
              "internalType": "uint256",
              "name": "chunkIndex",
              "type": "uint256"
            },
            {
              "internalType": "bytes32",
              "name": "chunkHash",
              "type": "bytes32"
            },
            {
              "internalType": "string",
              "name": "content",
              "type": "string"
            },
            {
              "internalType": "uint256",
              "name": "timestamp",
              "type": "uint256"
            },
            {
              "internalType": "address",
              "name": "editor",
              "type": "address"
            },
            {
              "internalType": "uint8",
              "name": "chunkType",
              "type": "uint8"
            },
            {
              "internalType": "string",
              "name": "attachmentCID",
              "type": "string"
            }
          ],
          "internalType": "struct DeepFamily.StoryChunk",
          "name": "chunk",
          "type": "tuple"
        }
      ],
      "stateMutability": "view",
      "type": "function"
    },
    {
      "inputs": [
        {
          "internalType": "uint256",
          "name": "tokenId",
          "type": "uint256"
        }
      ],
      "name": "getStoryMetadata",
      "outputs": [
        {
          "components": [
            {
              "internalType": "uint256",
              "name": "totalChunks",
              "type": "uint256"
            },
            {
              "internalType": "bytes32",
              "name": "fullStoryHash",
              "type": "bytes32"
            },
            {
              "internalType": "uint256",
              "name": "lastUpdateTime",
              "type": "uint256"
            },
            {
              "internalType": "bool",
              "name": "isSealed",
              "type": "bool"
            },
            {
              "internalType": "uint256",
              "name": "totalLength",
              "type": "uint256"
            }
          ],
          "internalType": "struct DeepFamily.StoryMetadata",
          "name": "metadata",
          "type": "tuple"
        }
      ],
      "stateMutability": "view",
      "type": "function"
    },
    {
      "inputs": [
        {
          "internalType": "bytes32",
          "name": "personHash",
          "type": "bytes32"
        },
        {
          "internalType": "uint256",
          "name": "versionIndex",
          "type": "uint256"
        }
      ],
      "name": "getVersionDetails",
      "outputs": [
        {
          "components": [
            {
              "internalType": "bytes32",
              "name": "personHash",
              "type": "bytes32"
            },
            {
              "internalType": "bytes32",
              "name": "fatherHash",
              "type": "bytes32"
            },
            {
              "internalType": "bytes32",
              "name": "motherHash",
              "type": "bytes32"
            },
            {
              "internalType": "uint256",
              "name": "versionIndex",
              "type": "uint256"
            },
            {
              "internalType": "uint256",
              "name": "fatherVersionIndex",
              "type": "uint256"
            },
            {
              "internalType": "uint256",
              "name": "motherVersionIndex",
              "type": "uint256"
            },
            {
              "internalType": "address",
              "name": "addedBy",
              "type": "address"
            },
            {
              "internalType": "uint96",
              "name": "timestamp",
              "type": "uint96"
            },
            {
              "internalType": "string",
              "name": "tag",
              "type": "string"
            },
            {
              "internalType": "string",
              "name": "metadataCID",
              "type": "string"
            }
          ],
          "internalType": "struct DeepFamily.PersonVersion",
          "name": "version",
          "type": "tuple"
        },
        {
          "internalType": "uint256",
          "name": "endorsementCount",
          "type": "uint256"
        },
        {
          "internalType": "uint256",
          "name": "tokenId",
          "type": "uint256"
        }
      ],
      "stateMutability": "view",
      "type": "function"
    },
    {
      "inputs": [
        {
          "internalType": "address",
          "name": "owner",
          "type": "address"
        },
        {
          "internalType": "address",
          "name": "operator",
          "type": "address"
        }
      ],
      "name": "isApprovedForAll",
      "outputs": [
        {
          "internalType": "bool",
          "name": "",
          "type": "bool"
        }
      ],
      "stateMutability": "view",
      "type": "function"
    },
    {
      "inputs": [
        {
          "internalType": "bytes32",
          "name": "parentHash",
          "type": "bytes32"
        },
        {
          "internalType": "uint256",
          "name": "parentVersionIndex",
          "type": "uint256"
        },
        {
          "internalType": "uint256",
          "name": "offset",
          "type": "uint256"
        },
        {
          "internalType": "uint256",
          "name": "limit",
          "type": "uint256"
        }
      ],
      "name": "listChildren",
      "outputs": [
        {
          "internalType": "bytes32[]",
          "name": "childHashes",
          "type": "bytes32[]"
        },
        {
          "internalType": "uint256[]",
          "name": "childVersionIndices",
          "type": "uint256[]"
        },
        {
          "internalType": "uint256",
          "name": "totalCount",
          "type": "uint256"
        },
        {
          "internalType": "bool",
          "name": "hasMore",
          "type": "bool"
        },
        {
          "internalType": "uint256",
          "name": "nextOffset",
          "type": "uint256"
        }
      ],
      "stateMutability": "view",
      "type": "function"
    },
    {
      "inputs": [
        {
          "internalType": "bytes32",
          "name": "personHash",
          "type": "bytes32"
        },
        {
          "internalType": "uint256",
          "name": "offset",
          "type": "uint256"
        },
        {
          "internalType": "uint256",
          "name": "limit",
          "type": "uint256"
        }
      ],
      "name": "listPersonVersions",
      "outputs": [
        {
          "components": [
            {
              "internalType": "bytes32",
              "name": "personHash",
              "type": "bytes32"
            },
            {
              "internalType": "bytes32",
              "name": "fatherHash",
              "type": "bytes32"
            },
            {
              "internalType": "bytes32",
              "name": "motherHash",
              "type": "bytes32"
            },
            {
              "internalType": "uint256",
              "name": "versionIndex",
              "type": "uint256"
            },
            {
              "internalType": "uint256",
              "name": "fatherVersionIndex",
              "type": "uint256"
            },
            {
              "internalType": "uint256",
              "name": "motherVersionIndex",
              "type": "uint256"
            },
            {
              "internalType": "address",
              "name": "addedBy",
              "type": "address"
            },
            {
              "internalType": "uint96",
              "name": "timestamp",
              "type": "uint96"
            },
            {
              "internalType": "string",
              "name": "tag",
              "type": "string"
            },
            {
              "internalType": "string",
              "name": "metadataCID",
              "type": "string"
            }
          ],
          "internalType": "struct DeepFamily.PersonVersion[]",
          "name": "versions",
          "type": "tuple[]"
        },
        {
          "internalType": "uint256",
          "name": "totalVersions",
          "type": "uint256"
        },
        {
          "internalType": "bool",
          "name": "hasMore",
          "type": "bool"
        },
        {
          "internalType": "uint256",
          "name": "nextOffset",
          "type": "uint256"
        }
      ],
      "stateMutability": "view",
      "type": "function"
    },
    {
      "inputs": [
        {
          "internalType": "uint256",
          "name": "tokenId",
          "type": "uint256"
        },
        {
          "internalType": "uint256",
          "name": "offset",
          "type": "uint256"
        },
        {
          "internalType": "uint256",
          "name": "limit",
          "type": "uint256"
        }
      ],
      "name": "listStoryChunks",
      "outputs": [
        {
          "components": [
            {
              "internalType": "uint256",
              "name": "chunkIndex",
              "type": "uint256"
            },
            {
              "internalType": "bytes32",
              "name": "chunkHash",
              "type": "bytes32"
            },
            {
              "internalType": "string",
              "name": "content",
              "type": "string"
            },
            {
              "internalType": "uint256",
              "name": "timestamp",
              "type": "uint256"
            },
            {
              "internalType": "address",
              "name": "editor",
              "type": "address"
            },
            {
              "internalType": "uint8",
              "name": "chunkType",
              "type": "uint8"
            },
            {
              "internalType": "string",
              "name": "attachmentCID",
              "type": "string"
            }
          ],
          "internalType": "struct DeepFamily.StoryChunk[]",
          "name": "chunks",
          "type": "tuple[]"
        },
        {
          "internalType": "uint256",
          "name": "totalChunks",
          "type": "uint256"
        },
        {
          "internalType": "bool",
          "name": "hasMore",
          "type": "bool"
        },
        {
          "internalType": "uint256",
          "name": "nextOffset",
          "type": "uint256"
        }
      ],
      "stateMutability": "view",
      "type": "function"
    },
    {
      "inputs": [
        {
          "internalType": "uint256",
          "name": "tokenId",
          "type": "uint256"
        },
        {
          "internalType": "uint256",
          "name": "offset",
          "type": "uint256"
        },
        {
          "internalType": "uint256",
          "name": "limit",
          "type": "uint256"
        }
      ],
      "name": "listTokenURIHistory",
      "outputs": [
        {
          "internalType": "string[]",
          "name": "uris",
          "type": "string[]"
        },
        {
          "internalType": "uint256",
          "name": "totalCount",
          "type": "uint256"
        },
        {
          "internalType": "bool",
          "name": "hasMore",
          "type": "bool"
        },
        {
          "internalType": "uint256",
          "name": "nextOffset",
          "type": "uint256"
        }
      ],
      "stateMutability": "view",
      "type": "function"
    },
    {
      "inputs": [
        {
          "internalType": "address",
          "name": "user",
          "type": "address"
        },
        {
          "internalType": "uint256",
          "name": "offset",
          "type": "uint256"
        },
        {
          "internalType": "uint256",
          "name": "limit",
          "type": "uint256"
        }
      ],
      "name": "listUserEndorsements",
      "outputs": [
        {
          "internalType": "bytes32[]",
          "name": "personHashes",
          "type": "bytes32[]"
        },
        {
          "internalType": "uint256[]",
          "name": "versionIndices",
          "type": "uint256[]"
        },
        {
          "internalType": "uint256[]",
          "name": "endorsementCounts",
          "type": "uint256[]"
        },
        {
          "internalType": "uint256[]",
          "name": "tokenIds",
          "type": "uint256[]"
        },
        {
          "internalType": "uint256",
          "name": "totalCount",
          "type": "uint256"
        },
        {
          "internalType": "bool",
          "name": "hasMore",
          "type": "bool"
        },
        {
          "internalType": "uint256",
          "name": "nextOffset",
          "type": "uint256"
        }
      ],
      "stateMutability": "view",
      "type": "function"
    },
    {
      "inputs": [
        {
          "internalType": "bytes32",
          "name": "personHash",
          "type": "bytes32"
        },
        {
          "internalType": "uint256",
          "name": "offset",
          "type": "uint256"
        },
        {
          "internalType": "uint256",
          "name": "limit",
          "type": "uint256"
        }
      ],
      "name": "listVersionEndorsements",
      "outputs": [
        {
          "internalType": "uint256[]",
          "name": "versionIndices",
          "type": "uint256[]"
        },
        {
          "internalType": "uint256[]",
          "name": "endorsementCounts",
          "type": "uint256[]"
        },
        {
          "internalType": "uint256[]",
          "name": "tokenIds",
          "type": "uint256[]"
        },
        {
          "internalType": "uint256",
          "name": "totalVersions",
          "type": "uint256"
        },
        {
          "internalType": "bool",
          "name": "hasMore",
          "type": "bool"
        },
        {
          "internalType": "uint256",
          "name": "nextOffset",
          "type": "uint256"
        }
      ],
      "stateMutability": "view",
      "type": "function"
    },
    {
      "inputs": [
        {
          "internalType": "uint256[2]",
          "name": "a",
          "type": "uint256[2]"
        },
        {
          "internalType": "uint256[2][2]",
          "name": "b",
          "type": "uint256[2][2]"
        },
        {
          "internalType": "uint256[2]",
          "name": "c",
          "type": "uint256[2]"
        },
        {
          "internalType": "uint256[5]",
          "name": "publicSignals",
          "type": "uint256[5]"
        },
        {
          "internalType": "bytes32",
          "name": "personHash",
          "type": "bytes32"
        },
        {
          "internalType": "uint256",
          "name": "versionIndex",
          "type": "uint256"
        },
        {
          "internalType": "string",
          "name": "_tokenURI",
          "type": "string"
        },
        {
          "components": [
            {
              "components": [
                {
                  "internalType": "bytes32",
                  "name": "fullNameCommitment",
                  "type": "bytes32"
                },
                {
                  "internalType": "bool",
                  "name": "isBirthBC",
                  "type": "bool"
                },
                {
                  "internalType": "uint16",
                  "name": "birthYear",
                  "type": "uint16"
                },
                {
                  "internalType": "uint8",
                  "name": "birthMonth",
                  "type": "uint8"
                },
                {
                  "internalType": "uint8",
                  "name": "birthDay",
                  "type": "uint8"
                },
                {
                  "internalType": "uint8",
                  "name": "gender",
                  "type": "uint8"
                }
              ],
              "internalType": "struct DeepFamily.PersonBasicInfo",
              "name": "basicInfo",
              "type": "tuple"
            },
            {
              "components": [
                {
                  "internalType": "string",
                  "name": "fullName",
                  "type": "string"
                },
                {
                  "internalType": "string",
                  "name": "birthPlace",
                  "type": "string"
                },
                {
                  "internalType": "bool",
                  "name": "isDeathBC",
                  "type": "bool"
                },
                {
                  "internalType": "uint16",
                  "name": "deathYear",
                  "type": "uint16"
                },
                {
                  "internalType": "uint8",
                  "name": "deathMonth",
                  "type": "uint8"
                },
                {
                  "internalType": "uint8",
                  "name": "deathDay",
                  "type": "uint8"
                },
                {
                  "internalType": "string",
                  "name": "deathPlace",
                  "type": "string"
                },
                {
                  "internalType": "string",
                  "name": "story",
                  "type": "string"
                }
              ],
              "internalType": "struct DeepFamily.PersonSupplementInfo",
              "name": "supplementInfo",
              "type": "tuple"
            }
          ],
          "internalType": "struct DeepFamily.PersonCoreInfo",
          "name": "coreInfo",
          "type": "tuple"
        }
      ],
      "name": "mintPersonNFT",
      "outputs": [],
      "stateMutability": "nonpayable",
      "type": "function"
    },
    {
      "inputs": [],
      "name": "name",
      "outputs": [
        {
          "internalType": "string",
          "name": "",
          "type": "string"
        }
      ],
      "stateMutability": "view",
      "type": "function"
    },
    {
      "inputs": [
        {
          "internalType": "uint256",
          "name": "",
          "type": "uint256"
        }
      ],
      "name": "nftCoreInfo",
      "outputs": [
        {
          "components": [
            {
              "internalType": "bytes32",
              "name": "fullNameCommitment",
              "type": "bytes32"
            },
            {
              "internalType": "bool",
              "name": "isBirthBC",
              "type": "bool"
            },
            {
              "internalType": "uint16",
              "name": "birthYear",
              "type": "uint16"
            },
            {
              "internalType": "uint8",
              "name": "birthMonth",
              "type": "uint8"
            },
            {
              "internalType": "uint8",
              "name": "birthDay",
              "type": "uint8"
            },
            {
              "internalType": "uint8",
              "name": "gender",
              "type": "uint8"
            }
          ],
          "internalType": "struct DeepFamily.PersonBasicInfo",
          "name": "basicInfo",
          "type": "tuple"
        },
        {
          "components": [
            {
              "internalType": "string",
              "name": "fullName",
              "type": "string"
            },
            {
              "internalType": "string",
              "name": "birthPlace",
              "type": "string"
            },
            {
              "internalType": "bool",
              "name": "isDeathBC",
              "type": "bool"
            },
            {
              "internalType": "uint16",
              "name": "deathYear",
              "type": "uint16"
            },
            {
              "internalType": "uint8",
              "name": "deathMonth",
              "type": "uint8"
            },
            {
              "internalType": "uint8",
              "name": "deathDay",
              "type": "uint8"
            },
            {
              "internalType": "string",
              "name": "deathPlace",
              "type": "string"
            },
            {
              "internalType": "string",
              "name": "story",
              "type": "string"
            }
          ],
          "internalType": "struct DeepFamily.PersonSupplementInfo",
          "name": "supplementInfo",
          "type": "tuple"
        }
      ],
      "stateMutability": "view",
      "type": "function"
    },
    {
      "inputs": [],
      "name": "owner",
      "outputs": [
        {
          "internalType": "address",
          "name": "",
          "type": "address"
        }
      ],
      "stateMutability": "view",
      "type": "function"
    },
    {
      "inputs": [
        {
          "internalType": "uint256",
          "name": "tokenId",
          "type": "uint256"
        }
      ],
      "name": "ownerOf",
      "outputs": [
        {
          "internalType": "address",
          "name": "",
          "type": "address"
        }
      ],
      "stateMutability": "view",
      "type": "function"
    },
    {
      "inputs": [
        {
          "internalType": "bytes32",
          "name": "",
          "type": "bytes32"
        },
        {
          "internalType": "uint256",
          "name": "",
          "type": "uint256"
        }
      ],
      "name": "personVersions",
      "outputs": [
        {
          "internalType": "bytes32",
          "name": "personHash",
          "type": "bytes32"
        },
        {
          "internalType": "bytes32",
          "name": "fatherHash",
          "type": "bytes32"
        },
        {
          "internalType": "bytes32",
          "name": "motherHash",
          "type": "bytes32"
        },
        {
          "internalType": "uint256",
          "name": "versionIndex",
          "type": "uint256"
        },
        {
          "internalType": "uint256",
          "name": "fatherVersionIndex",
          "type": "uint256"
        },
        {
          "internalType": "uint256",
          "name": "motherVersionIndex",
          "type": "uint256"
        },
        {
          "internalType": "address",
          "name": "addedBy",
          "type": "address"
        },
        {
          "internalType": "uint96",
          "name": "timestamp",
          "type": "uint96"
        },
        {
          "internalType": "string",
          "name": "tag",
          "type": "string"
        },
        {
          "internalType": "string",
          "name": "metadataCID",
          "type": "string"
        }
      ],
      "stateMutability": "view",
      "type": "function"
    },
    {
      "inputs": [],
      "name": "protocolEndorsementFeeBps",
      "outputs": [
        {
          "internalType": "uint256",
          "name": "",
          "type": "uint256"
        }
      ],
      "stateMutability": "view",
      "type": "function"
    },
    {
      "inputs": [],
      "name": "renounceOwnership",
      "outputs": [],
      "stateMutability": "nonpayable",
      "type": "function"
    },
    {
      "inputs": [
        {
          "internalType": "address",
          "name": "from",
          "type": "address"
        },
        {
          "internalType": "address",
          "name": "to",
          "type": "address"
        },
        {
          "internalType": "uint256",
          "name": "tokenId",
          "type": "uint256"
        }
      ],
      "name": "safeTransferFrom",
      "outputs": [],
      "stateMutability": "nonpayable",
      "type": "function"
    },
    {
      "inputs": [
        {
          "internalType": "address",
          "name": "from",
          "type": "address"
        },
        {
          "internalType": "address",
          "name": "to",
          "type": "address"
        },
        {
          "internalType": "uint256",
          "name": "tokenId",
          "type": "uint256"
        },
        {
          "internalType": "bytes",
          "name": "data",
          "type": "bytes"
        }
      ],
      "name": "safeTransferFrom",
      "outputs": [],
      "stateMutability": "nonpayable",
      "type": "function"
    },
    {
      "inputs": [
        {
          "internalType": "uint256",
          "name": "tokenId",
          "type": "uint256"
        }
      ],
      "name": "sealStory",
      "outputs": [],
      "stateMutability": "nonpayable",
      "type": "function"
    },
    {
      "inputs": [
        {
          "internalType": "address",
          "name": "operator",
          "type": "address"
        },
        {
          "internalType": "bool",
          "name": "approved",
          "type": "bool"
        }
      ],
      "name": "setApprovalForAll",
      "outputs": [],
      "stateMutability": "nonpayable",
      "type": "function"
    },
    {
      "inputs": [
        {
          "internalType": "uint256",
          "name": "",
          "type": "uint256"
        },
        {
          "internalType": "uint256",
          "name": "",
          "type": "uint256"
        }
      ],
      "name": "storyChunks",
      "outputs": [
        {
          "internalType": "uint256",
          "name": "chunkIndex",
          "type": "uint256"
        },
        {
          "internalType": "bytes32",
          "name": "chunkHash",
          "type": "bytes32"
        },
        {
          "internalType": "string",
          "name": "content",
          "type": "string"
        },
        {
          "internalType": "uint256",
          "name": "timestamp",
          "type": "uint256"
        },
        {
          "internalType": "address",
          "name": "editor",
          "type": "address"
        },
        {
          "internalType": "uint8",
          "name": "chunkType",
          "type": "uint8"
        },
        {
          "internalType": "string",
          "name": "attachmentCID",
          "type": "string"
        }
      ],
      "stateMutability": "view",
      "type": "function"
    },
    {
      "inputs": [
        {
          "internalType": "uint256",
          "name": "",
          "type": "uint256"
        }
      ],
      "name": "storyMetadata",
      "outputs": [
        {
          "internalType": "uint256",
          "name": "totalChunks",
          "type": "uint256"
        },
        {
          "internalType": "bytes32",
          "name": "fullStoryHash",
          "type": "bytes32"
        },
        {
          "internalType": "uint256",
          "name": "lastUpdateTime",
          "type": "uint256"
        },
        {
          "internalType": "bool",
          "name": "isSealed",
          "type": "bool"
        },
        {
          "internalType": "uint256",
          "name": "totalLength",
          "type": "uint256"
        }
      ],
      "stateMutability": "view",
      "type": "function"
    },
    {
      "inputs": [
        {
          "internalType": "bytes4",
          "name": "interfaceId",
          "type": "bytes4"
        }
      ],
      "name": "supportsInterface",
      "outputs": [
        {
          "internalType": "bool",
          "name": "",
          "type": "bool"
        }
      ],
      "stateMutability": "view",
      "type": "function"
    },
    {
      "inputs": [],
      "name": "symbol",
      "outputs": [
        {
          "internalType": "string",
          "name": "",
          "type": "string"
        }
      ],
      "stateMutability": "view",
      "type": "function"
    },
    {
      "inputs": [
        {
          "internalType": "uint256",
          "name": "index",
          "type": "uint256"
        }
      ],
      "name": "tokenByIndex",
      "outputs": [
        {
          "internalType": "uint256",
          "name": "",
          "type": "uint256"
        }
      ],
      "stateMutability": "view",
      "type": "function"
    },
    {
      "inputs": [],
      "name": "tokenCounter",
      "outputs": [
        {
          "internalType": "uint256",
          "name": "",
          "type": "uint256"
        }
      ],
      "stateMutability": "view",
      "type": "function"
    },
    {
      "inputs": [
        {
          "internalType": "uint256",
          "name": "",
          "type": "uint256"
        }
      ],
      "name": "tokenIdToPerson",
      "outputs": [
        {
          "internalType": "bytes32",
          "name": "",
          "type": "bytes32"
        }
      ],
      "stateMutability": "view",
      "type": "function"
    },
    {
      "inputs": [
        {
          "internalType": "uint256",
          "name": "",
          "type": "uint256"
        }
      ],
      "name": "tokenIdToVersionIndex",
      "outputs": [
        {
          "internalType": "uint256",
          "name": "",
          "type": "uint256"
        }
      ],
      "stateMutability": "view",
      "type": "function"
    },
    {
      "inputs": [
        {
          "internalType": "address",
          "name": "owner",
          "type": "address"
        },
        {
          "internalType": "uint256",
          "name": "index",
          "type": "uint256"
        }
      ],
      "name": "tokenOfOwnerByIndex",
      "outputs": [
        {
          "internalType": "uint256",
          "name": "",
          "type": "uint256"
        }
      ],
      "stateMutability": "view",
      "type": "function"
    },
    {
      "inputs": [
        {
          "internalType": "uint256",
          "name": "tokenId",
          "type": "uint256"
        }
      ],
      "name": "tokenURI",
      "outputs": [
        {
          "internalType": "string",
          "name": "",
          "type": "string"
        }
      ],
      "stateMutability": "view",
      "type": "function"
    },
    {
      "inputs": [
        {
          "internalType": "uint256",
          "name": "",
          "type": "uint256"
        },
        {
          "internalType": "uint256",
          "name": "",
          "type": "uint256"
        }
      ],
      "name": "tokenURIHistory",
      "outputs": [
        {
          "internalType": "string",
          "name": "",
          "type": "string"
        }
      ],
      "stateMutability": "view",
      "type": "function"
    },
    {
      "inputs": [],
      "name": "totalPersonsCount",
      "outputs": [
        {
          "internalType": "uint256",
          "name": "",
          "type": "uint256"
        }
      ],
      "stateMutability": "view",
      "type": "function"
    },
    {
      "inputs": [],
      "name": "totalSupply",
      "outputs": [
        {
          "internalType": "uint256",
          "name": "",
          "type": "uint256"
        }
      ],
      "stateMutability": "view",
      "type": "function"
    },
    {
      "inputs": [
        {
          "internalType": "address",
          "name": "from",
          "type": "address"
        },
        {
          "internalType": "address",
          "name": "to",
          "type": "address"
        },
        {
          "internalType": "uint256",
          "name": "tokenId",
          "type": "uint256"
        }
      ],
      "name": "transferFrom",
      "outputs": [],
      "stateMutability": "nonpayable",
      "type": "function"
    },
    {
      "inputs": [
        {
          "internalType": "address",
          "name": "newOwner",
          "type": "address"
        }
      ],
      "name": "transferOwnership",
      "outputs": [],
      "stateMutability": "nonpayable",
      "type": "function"
    },
    {
      "inputs": [
        {
          "internalType": "uint256",
          "name": "newBps",
          "type": "uint256"
        }
      ],
      "name": "updateProtocolEndorsementFee",
      "outputs": [],
      "stateMutability": "nonpayable",
      "type": "function"
    },
    {
      "inputs": [
        {
          "internalType": "uint256",
          "name": "tokenId",
          "type": "uint256"
        },
        {
          "internalType": "string",
          "name": "newURI",
          "type": "string"
        }
      ],
      "name": "updateTokenURI",
      "outputs": [],
      "stateMutability": "nonpayable",
      "type": "function"
    },
    {
      "inputs": [
        {
          "internalType": "bytes32",
          "name": "",
          "type": "bytes32"
        },
        {
          "internalType": "uint256",
          "name": "",
          "type": "uint256"
        }
      ],
      "name": "versionEndorsementCount",
      "outputs": [
        {
          "internalType": "uint256",
          "name": "",
          "type": "uint256"
        }
      ],
      "stateMutability": "view",
      "type": "function"
    },
    {
      "inputs": [
        {
          "internalType": "bytes32",
          "name": "",
          "type": "bytes32"
        },
        {
          "internalType": "bytes32",
          "name": "",
          "type": "bytes32"
        }
      ],
      "name": "versionExists",
      "outputs": [
        {
          "internalType": "bool",
          "name": "",
          "type": "bool"
        }
      ],
      "stateMutability": "view",
      "type": "function"
    },
    {
      "inputs": [
        {
          "internalType": "bytes32",
          "name": "",
          "type": "bytes32"
        },
        {
          "internalType": "uint256",
          "name": "",
          "type": "uint256"
        }
      ],
      "name": "versionToTokenId",
      "outputs": [
        {
          "internalType": "uint256",
          "name": "",
          "type": "uint256"
        }
      ],
      "stateMutability": "view",
      "type": "function"
    },
    {
      "stateMutability": "payable",
      "type": "receive"
    }
  ],
  "bytecode": "0x60e06040526101f4601a553480156200001757600080fd5b50604051620074fa380380620074fa8339810160408190526200003a91620001e5565b336040518060400160405280600a8152602001694465657046616d696c7960b01b8152506040518060400160405280600681526020016546616d696c7960d01b81525081600090816200008e9190620002d4565b5060016200009d8282620002d4565b5050506001600160a01b038116620000cf57604051631e4fbdf760e01b81526000600482015260240160405180910390fd5b620000da8162000176565b506001600b556001600160a01b0383166200010857604051634c32eccd60e11b815260040160405180910390fd5b6001600160a01b0382166200013057604051635fce01bb60e01b815260040160405180910390fd5b6001600160a01b038116620001585760405163abd45c1f60e01b815260040160405180910390fd5b6001600160a01b0392831660805290821660a0521660c052620003a0565b600a80546001600160a01b038381166001600160a01b0319831681179093556040519116919082907f8be0079c531659141344cd1fd0a4f28419497f9722a3daafe3b4186f6b6457e090600090a35050565b80516001600160a01b0381168114620001e057600080fd5b919050565b600080600060608486031215620001fb57600080fd5b6200020684620001c8565b92506200021660208501620001c8565b91506200022660408501620001c8565b90509250925092565b634e487b7160e01b600052604160045260246000fd5b600181811c908216806200025a57607f821691505b6020821081036200027b57634e487b7160e01b600052602260045260246000fd5b50919050565b601f821115620002cf57600081815260208120601f850160051c81016020861015620002aa5750805b601f850160051c820191505b81811015620002cb57828155600101620002b6565b5050505b505050565b81516001600160401b03811115620002f057620002f06200022f565b620003088162000301845462000245565b8462000281565b602080601f831160018114620003405760008415620003275750858301515b600019600386901b1c1916600185901b178555620002cb565b600085815260208120601f198616915b82811015620003715788860151825594840194600190910190840162000350565b5085821015620003905787850151600019600388901b60f8161c191681555b5050505050600190811b01905550565b60805160a05160c051617107620003f360003960008181610597015261337c015260008181610b1201526136db015260008181610bf7015281816138c001528181613a6101526152ba01526171076000f3fe6080604052600436106103a55760003560e01c8063797e57e5116101e7578063bcecdf1d1161010d578063d596b1b0116100a0578063f1fad0671161006f578063f1fad06714610cd6578063f2fde38b14610d03578063f74faf6614610d23578063fe9c3c0514610d5b576103c3565b8063d596b1b014610c19578063dbcdc08f14610c51578063e985e9c514610c84578063f19c58a714610ca4576103c3565b8063c87b56dd116100dc578063c87b56dd14610b8f578063c893eb5614610baf578063d082e38114610bcf578063d1486a1b14610be5576103c3565b8063bcecdf1d14610b00578063bd7eef2314610b34578063c090fba214610b4a578063c841eb1f14610b79576103c3565b806395d89b4111610185578063b570b2ab11610154578063b570b2ab14610a8a578063b5c7198d14610aaa578063b7fb7ee614610aca578063b88d4fde14610ae0576103c3565b806395d89b4114610a15578063a22cb46514610a2a578063a294fd6414610a4a578063b4283e3314610a6a576103c3565b806383af7191116101c157806383af7191146109305780638da5cb5b146109a75780638f2360b3146109c55780638f4ae57c146109f5576103c3565b8063797e57e5146108c85780637e927db5146108e857806382260f35146108fe576103c3565b80633791b66a116102cc5780635a4b65d61161026a57806370a082311161023957806370a0823114610819578063715018a6146108395780637189567c1461084e57806376f0f85d146108b2576103c3565b80635a4b65d6146107765780636352211e1461079657806367b9b3e1146107b6578063690a76bf146107ec576103c3565b80634f6ccce7116102a65780634f6ccce7146106e2578063538ffa0b1461070257806357611dfb1461072f578063583d434f14610760576103c3565b80633791b66a1461065757806342842e0e14610687578063431a342a146106a7576103c3565b8063164e38ee1161034457806323b872dd1161031357806323b872dd146105b9578063278d5fce146105d957806328273a2a146106075780632f745c5914610637576103c3565b8063164e38ee1461051b57806318160ddd1461055057806318e97fd1146105655780631d5d7be914610585576103c3565b8063081812fc11610380578063081812fc14610456578063084979d11461048e578063095ea7b3146104c15780631516fa25146104e3576103c3565b8062eee6a1146103dc57806301ffc9a71461040457806306fdde0314610434576103c3565b366103c35760405163af9f22fb60e01b815260040160405180910390fd5b60405163af9f22fb60e01b815260040160405180910390fd5b3480156103e857600080fd5b506103f1606481565b6040519081526020015b60405180910390f35b34801561041057600080fd5b5061042461041f366004615ad2565b610d7b565b60405190151581526020016103fb565b34801561044057600080fd5b50610449610da6565b6040516103fb9190615b3f565b34801561046257600080fd5b50610476610471366004615b52565b610e38565b6040516001600160a01b0390911681526020016103fb565b34801561049a57600080fd5b506104ae6104a9366004615b87565b610e61565b6040516103fb9796959493929190615bf5565b3480156104cd57600080fd5b506104e16104dc366004615c62565b6111e1565b005b3480156104ef57600080fd5b506103f16104fe366004615c8c565b601960209081526000928352604080842090915290825290205481565b34801561052757600080fd5b5061053b610536366004615cae565b6111f0565b604080519283526020830191909152016103fb565b34801561055c57600080fd5b506008546103f1565b34801561057157600080fd5b506104e1610580366004615d22565b61123a565b34801561059157600080fd5b506104767f000000000000000000000000000000000000000000000000000000000000000081565b3480156105c557600080fd5b506104e16105d4366004615d6d565b6113e7565b3480156105e557600080fd5b506105f96105f4366004615b52565b611477565b6040516103fb929190615eb3565b34801561061357600080fd5b50610627610622366004615cae565b611780565b6040516103fb9493929190615f3e565b34801561064357600080fd5b506103f1610652366004615c62565b611a84565b34801561066357600080fd5b50610677610672366004615cae565b611ae9565b6040516103fb9493929190615fb1565b34801561069357600080fd5b506104e16106a2366004615d6d565b611cbf565b3480156106b357600080fd5b506104246106c2366004615c8c565b600e60209081526000928352604080842090915290825290205460ff1681565b3480156106ee57600080fd5b506103f16106fd366004615b52565b611cdf565b34801561070e57600080fd5b506103f161071d366004615b52565b60126020526000908152604090205481565b34801561073b57600080fd5b5061074f61074a366004616008565b611d38565b6040516103fb95949392919061603a565b34801561076c57600080fd5b506103f161271081565b34801561078257600080fd5b506104e161079136600461608c565b611f3e565b3480156107a257600080fd5b506104766107b1366004615b52565b6121c7565b3480156107c257600080fd5b506107d66107d1366004615c8c565b6121d2565b6040516103fb9a99989796959493929190616128565b3480156107f857600080fd5b506103f1610807366004615b52565b60116020526000908152604090205481565b34801561082557600080fd5b506103f16108343660046161a4565b61236c565b34801561084557600080fd5b506104e16123b4565b34801561085a57600080fd5b5061086e610869366004615b52565b6123c8565b6040516103fb9190600060a0820190508251825260208301516020830152604083015160408301526060830151151560608301526080830151608083015292915050565b3480156108be57600080fd5b506103f161010081565b3480156108d457600080fd5b506104e16108e3366004615b52565b61247b565b3480156108f457600080fd5b506103f1601a5481565b34801561090a57600080fd5b5061091e610919366004615b52565b612569565b6040516103fb9695949392919061626e565b34801561093c57600080fd5b5061097d61094b366004615b52565b6017602052600090815260409020805460018201546002830154600384015460049094015492939192909160ff169085565b6040805195865260208601949094529284019190915215156060830152608082015260a0016103fb565b3480156109b357600080fd5b50600a546001600160a01b0316610476565b3480156109d157600080fd5b506109e56109e0366004615cae565b612b14565b6040516103fb94939291906162e1565b348015610a0157600080fd5b506104e1610a10366004615b52565b612df1565b348015610a2157600080fd5b50610449613048565b348015610a3657600080fd5b506104e1610a45366004616346565b613057565b348015610a5657600080fd5b506104e1610a6536600461639f565b613062565b348015610a7657600080fd5b506104e1610a85366004615b52565b61361d565b348015610a9657600080fd5b506104e1610aa5366004616471565b613698565b348015610ab657600080fd5b506104e1610ac5366004615c8c565b613813565b348015610ad657600080fd5b506103f16107d081565b348015610aec57600080fd5b506104e1610afb36600461658c565b613d97565b348015610b0c57600080fd5b506104767f000000000000000000000000000000000000000000000000000000000000000081565b348015610b4057600080fd5b506103f1600d5481565b348015610b5657600080fd5b50610b6a610b65366004615c8c565b613daf565b6040516103fb9392919061664b565b348015610b8557600080fd5b506103f161080081565b348015610b9b57600080fd5b50610449610baa366004615b52565b614029565b348015610bbb57600080fd5b506103f1610bca366004616680565b6140d3565b348015610bdb57600080fd5b506103f160105481565b348015610bf157600080fd5b506104767f000000000000000000000000000000000000000000000000000000000000000081565b348015610c2557600080fd5b506103f1610c34366004615c8c565b601660209081526000928352604080842090915290825290205481565b348015610c5d57600080fd5b50610c71610c6c366004615c8c565b61425d565b6040516103fb9796959493929190616721565b348015610c9057600080fd5b50610424610c9f36600461677f565b6143c6565b348015610cb057600080fd5b50610cc4610cbf366004615cae565b6143f4565b6040516103fb969594939291906167b2565b348015610ce257600080fd5b50610cf6610cf1366004615c8c565b614635565b6040516103fb919061680a565b348015610d0f57600080fd5b506104e1610d1e3660046161a4565b614841565b348015610d2f57600080fd5b506103f1610d3e36600461681d565b600f60209081526000928352604080842090915290825290205481565b348015610d6757600080fd5b50610449610d76366004615c8c565b61487c565b60006001600160e01b0319821663780e9d6360e01b1480610da05750610da082614935565b92915050565b606060008054610db590616840565b80601f0160208091040260200160405190810160405280929190818152602001828054610de190616840565b8015610e2e5780601f10610e0357610100808354040283529160200191610e2e565b820191906000526020600020905b815481529060010190602001808311610e1157829003601f168201915b5050505050905090565b6000610e4382614985565b506000828152600460205260409020546001600160a01b0316610da0565b6001600160a01b0383166000908152601c6020526040812054606091829182918291908080610e91848b8b6149bd565b90508060400151600003610ee3576040805160008082526020820181815282840182815260608085019384526080808601909652948601519590940151929b50995091975090955090925090506111d4565b80604001516001600160401b03811115610eff57610eff616546565b604051908082528060200260200182016040528015610f28578160200160208202803683370190505b50975080604001516001600160401b03811115610f4757610f47616546565b604051908082528060200260200182016040528015610f70578160200160208202803683370190505b50965080604001516001600160401b03811115610f8f57610f8f616546565b604051908082528060200260200182016040528015610fb8578160200160208202803683370190505b50955080604001516001600160401b03811115610fd757610fd7616546565b604051908082528060200260200182016040528015611000578160200160208202803683370190505b50945060005b81604001518110156111c2576001600160a01b038c166000908152601c602052604081208351611037908490616890565b81548110611047576110476168a3565b90600052602060002001549050808a8381518110611067576110676168a3565b602002602001018181525050600f600082815260200190815260200160002060008e6001600160a01b03166001600160a01b03168152602001908152602001600020548983815181106110bc576110bc6168a3565b60200260200101818152505060008983815181106110dc576110dc6168a3565b602002602001015111156111af5760196000828152602001908152602001600020600060018b8581518110611113576111136168a3565b602002602001015161112591906168b9565b815260200190815260200160002054888381518110611146576111466168a3565b6020026020010181815250506016600082815260200190815260200160002060008a8481518110611179576111796168a3565b60200260200101518152602001908152602001600020548783815181106111a2576111a26168a3565b6020026020010181815250505b50806111ba816168cc565b915050611006565b50608081015160609091015190925090505b9397509397509397909450565b6111ec828233614abe565b5050565b601b602052826000526040600020602052816000526040600020818154811061121857600080fd5b6000918252602090912060029091020180546001909101549093509150839050565b3361124484614acb565b6001600160a01b03161461126b5760405163daffd8a560e01b815260040160405180910390fd5b61010081111561128e576040516313f04adb60e01b815260040160405180910390fd5b600083815260146020526040812080546112a790616840565b80601f01602080910402602001604051908101604052809291908181526020018280546112d390616840565b80156113205780601f106112f557610100808354040283529160200191611320565b820191906000526020600020905b81548152906001019060200180831161130357829003601f168201915b5050505050905060008151111561135b576000848152601560209081526040822080546001810182559083529120016113598282616940565b505b61139b8484848080601f016020809104026020016040519081016040528093929190818152602001838380828437600092019190915250614ae692505050565b336001600160a01b0316847f121742bae49dddcfbb9763fd1170f0dbc15b13707126182671611bbeeeae7cd88386866040516113d993929190616a22565b60405180910390a350505050565b6001600160a01b03821661141657604051633250574960e11b8152600060048201526024015b60405180910390fd5b6000611423838333614afe565b9050836001600160a01b0316816001600160a01b031614611471576040516364283d7b60e01b81526001600160a01b038086166004830152602482018490528216604482015260640161140d565b50505050565b601360209081526000918252604091829020825160c08101845281548152600182015460ff80821615159483019490945261010080820461ffff168387015263010000008204851660608401526401000000008204851660808401526501000000000090910490931660a082015283519283019093526002810180549192918290829061150390616840565b80601f016020809104026020016040519081016040528092919081815260200182805461152f90616840565b801561157c5780601f106115515761010080835404028352916020019161157c565b820191906000526020600020905b81548152906001019060200180831161155f57829003601f168201915b5050505050815260200160018201805461159590616840565b80601f01602080910402602001604051908101604052809291908181526020018280546115c190616840565b801561160e5780601f106115e35761010080835404028352916020019161160e565b820191906000526020600020905b8154815290600101906020018083116115f157829003601f168201915b5050509183525050600282015460ff8082161515602084015261ffff6101008304166040840152630100000082048116606084015264010000000090910416608082015260038201805460a09092019161166790616840565b80601f016020809104026020016040519081016040528092919081815260200182805461169390616840565b80156116e05780601f106116b5576101008083540402835291602001916116e0565b820191906000526020600020905b8154815290600101906020018083116116c357829003601f168201915b505050505081526020016004820180546116f990616840565b80601f016020809104026020016040519081016040528092919081815260200182805461172590616840565b80156117725780601f1061174757610100808354040283529160200191611772565b820191906000526020600020905b81548152906001019060200180831161175557829003601f168201915b505050505081525050905082565b606060008080868161179182614acb565b6001600160a01b0316036117b8576040516307ed98ed60e31b815260040160405180910390fd5b600088815260176020526040812080549550906117d6868a8a6149bd565b90508060400151600003611830576040805160008082526020820190925290611815565b611802615975565b8152602001906001900390816117fa5790505b50868260800151836060015196509650965096505050611a7a565b80604001516001600160401b0381111561184c5761184c616546565b60405190808252806020026020018201604052801561188557816020015b611872615975565b81526020019060019003908161186a5790505b50965060005b8160400151811015611a675760008b815260186020526040812083519091906118b5908490616890565b81526020019081526020016000206040518060e001604052908160008201548152602001600182015481526020016002820180546118f290616840565b80601f016020809104026020016040519081016040528092919081815260200182805461191e90616840565b801561196b5780601f106119405761010080835404028352916020019161196b565b820191906000526020600020905b81548152906001019060200180831161194e57829003601f168201915b50505091835250506003820154602082015260048201546001600160a01b0381166040830152600160a01b900460ff1660608201526005820180546080909201916119b590616840565b80601f01602080910402602001604051908101604052809291908181526020018280546119e190616840565b8015611a2e5780601f10611a0357610100808354040283529160200191611a2e565b820191906000526020600020905b815481529060010190602001808311611a1157829003601f168201915b505050505081525050888281518110611a4957611a496168a3565b60200260200101819052508080611a5f906168cc565b91505061188b565b5060808101516060909101519094509250505b5093509350935093565b6000611a8f8361236c565b8210611ac05760405163295f44f760e21b81526001600160a01b03841660048201526024810183905260440161140d565b506001600160a01b03919091166000908152600660209081526040808320938352929052205490565b600083815260156020526040812080546060929091819081611b0c8589896149bd565b90508060400151600003611b60576040805160008082526020820190925290611b45565b6060815260200190600190039081611b305790505b50858260800151836060015195509550955095505050611cb6565b80604001516001600160401b03811115611b7c57611b7c616546565b604051908082528060200260200182016040528015611baf57816020015b6060815260200190600190039081611b9a5790505b50955060005b8160400151811015611ca35781518390611bd0908390616890565b81548110611be057611be06168a3565b906000526020600020018054611bf590616840565b80601f0160208091040260200160405190810160405280929190818152602001828054611c2190616840565b8015611c6e5780601f10611c4357610100808354040283529160200191611c6e565b820191906000526020600020905b815481529060010190602001808311611c5157829003601f168201915b5050505050878281518110611c8557611c856168a3565b60200260200101819052508080611c9b906168cc565b915050611bb5565b5060808101516060909101519093509150505b93509350935093565b611cda83838360405180602001604052806000815250613d97565b505050565b6000611cea60085490565b8210611d135760405163295f44f760e21b8152600060048201526024810183905260440161140d565b60088281548110611d2657611d266168a3565b90600052602060002001549050919050565b6060806000808088611d5d5760405163e5d242ed60e01b815260040160405180910390fd5b6000898152600c6020526040902054881115611d8c57604051630dd4272d60e41b815260040160405180910390fd5b6000898152601b602090815260408083208b845290915281208054945090611db5858a8a6149bd565b90508060400151600003611df6576040805160008082526020820190815281830190925260808301516060909301519098509096509093509150611f339050565b80604001516001600160401b03811115611e1257611e12616546565b604051908082528060200260200182016040528015611e3b578160200160208202803683370190505b50965080604001516001600160401b03811115611e5a57611e5a616546565b604051908082528060200260200182016040528015611e83578160200160208202803683370190505b50955060005b8160400151811015611f2057600083828460000151611ea89190616890565b81548110611eb857611eb86168a3565b906000526020600020906002020190508060000154898381518110611edf57611edf6168a3565b6020026020010181815250508060010154888381518110611f0257611f026168a3565b60209081029190910101525080611f18816168cc565b915050611e89565b5060808101516060909101519093509150505b945094509450945094565b611f46614bd3565b33611f5089614acb565b6001600160a01b031614611f775760405163daffd8a560e01b815260040160405180910390fd5b831580611f85575061080084115b15611fa357604051630ef9fbf360e21b815260040160405180910390fd5b6000888152601760205260409020600381015460ff1615611fd757604051631fcb6b9160e01b815260040160405180910390fd5b80548814611ff857604051637df0b86160e01b815260040160405180910390fd5b600061203987878080601f016020809104026020016040519081016040528093929190818152602001838380828437600092019190915250614bfd92505050565b9050821580159061204a5750828114155b156120685760405163016c02f160e61b815260040160405180910390fd5b61010084111561208b57604051630601a0fb60e51b815260040160405180910390fd5b60008a81526018602090815260408083208c8452909152902089815560018101829055600281016120bd888a83616a48565b504260038201556004810180546001600160a81b0319163360ff60a01b191617600160a01b60ff8c1602179055600581016120f9868883616a48565b508254612107906001616890565b8355426002840155600483015461211f908890616890565b6004840155600183015460408051602081019290925281018b905260608101839052608001604051602081830303815290604052805190602001208360010181905550336001600160a01b03168a8c7fc986c8203b7382f6ec9faf400a0793cbeb1612afb4dfe81fc13c1b04a310aea7858c8c90508e8c8c6040516121a8959493929190616b01565b60405180910390a45050506121bd6001600b55565b5050505050505050565b6000610da082614985565b600c60205281600052604060002081815481106121ee57600080fd5b600091825260209091206009909102018054600182015460028301546003840154600485015460058601546006870154600788018054979a5095985093969295919490936001600160a01b03811693600160a01b9091046001600160601b03169290919061225b90616840565b80601f016020809104026020016040519081016040528092919081815260200182805461228790616840565b80156122d45780601f106122a9576101008083540402835291602001916122d4565b820191906000526020600020905b8154815290600101906020018083116122b757829003601f168201915b5050505050908060080180546122e990616840565b80601f016020809104026020016040519081016040528092919081815260200182805461231590616840565b80156123625780601f1061233757610100808354040283529160200191612362565b820191906000526020600020905b81548152906001019060200180831161234557829003601f168201915b505050505090508a565b60006001600160a01b038216612398576040516322718ad960e21b81526000600482015260240161140d565b506001600160a01b031660009081526003602052604090205490565b6123bc614c2d565b6123c66000614c5a565b565b6040805160a0810182526000808252602082018190529181018290526060810182905260808101919091528160006123ff82614acb565b6001600160a01b031603612426576040516307ed98ed60e31b815260040160405180910390fd5b5050600090815260176020908152604091829020825160a08101845281548152600182015492810192909252600281015492820192909252600382015460ff1615156060820152600490910154608082015290565b3361248582614acb565b6001600160a01b0316146124ac5760405163daffd8a560e01b815260040160405180910390fd5b6000818152601760205260409020600381015460ff16156124e057604051631fcb6b9160e01b815260040160405180910390fd5b805460000361250257604051637dc66bf560e11b815260040160405180910390fd5b60038101805460ff19166001908117909155426002830155815490820154604051339285927f896066547269dcd0db6295ca6c7f14f927d692103e47c7615259469b74bc7b5d9261255d929190918252602082015260400190565b60405180910390a35050565b6000806125746159b0565b61257c615a06565b600060608161258a88614acb565b6001600160a01b0316036125b1576040516307ed98ed60e31b815260040160405180910390fd5b6000878152601160205260409020549550856125e0576040516307ed98ed60e31b815260040160405180910390fd5b60008781526012602052604081205495506125fc6001876168b9565b6000888152600c6020526040902080549192509082908110612620576126206168a3565b600091825260209182902060408051610140810182526009909302909101805483526001810154938301939093526002830154908201526003820154606082015260048201546080820152600582015460a082015260068201546001600160a01b03811660c08301526001600160601b03600160a01b9091041660e0820152600782018054919291610100840191906126b890616840565b80601f01602080910402602001604051908101604052809291908181526020018280546126e490616840565b80156127315780601f1061270657610100808354040283529160200191612731565b820191906000526020600020905b81548152906001019060200180831161271457829003601f168201915b5050505050815260200160088201805461274a90616840565b80601f016020809104026020016040519081016040528092919081815260200182805461277690616840565b80156127c35780601f10612798576101008083540402835291602001916127c3565b820191906000526020600020905b8154815290600101906020018083116127a657829003601f168201915b50505091909252505050600089815260136020908152604091829020825161010080820185528254828601908152600184015460ff8082161515606086015261ffff84830416608086015263010000008204811660a08601526401000000008204811660c0860152650100000000009091041660e084015282528451908101909452600282018054959a509094919392850192918290829061286490616840565b80601f016020809104026020016040519081016040528092919081815260200182805461289090616840565b80156128dd5780601f106128b2576101008083540402835291602001916128dd565b820191906000526020600020905b8154815290600101906020018083116128c057829003601f168201915b505050505081526020016001820180546128f690616840565b80601f016020809104026020016040519081016040528092919081815260200182805461292290616840565b801561296f5780601f106129445761010080835404028352916020019161296f565b820191906000526020600020905b81548152906001019060200180831161295257829003601f168201915b5050509183525050600282015460ff8082161515602084015261ffff6101008304166040840152630100000082048116606084015264010000000090910416608082015260038201805460a0909201916129c890616840565b80601f01602080910402602001604051908101604052809291908181526020018280546129f490616840565b8015612a415780601f10612a1657610100808354040283529160200191612a41565b820191906000526020600020905b815481529060010190602001808311612a2457829003601f168201915b50505050508152602001600482018054612a5a90616840565b80601f0160208091040260200160405190810160405280929190818152602001828054612a8690616840565b8015612ad35780601f10612aa857610100808354040283529160200191612ad3565b820191906000526020600020905b815481529060010190602001808311612ab657829003601f168201915b5050509190925250505090525060008881526019602090815260408083208584529091529020549094509250612b0888614029565b91505091939550919395565b6000838152600c6020526040812080546060929091819081612b378589896149bd565b90508060400151600003612b8f576040805160008082526020820190925290611b45565b612b636159b0565b815260200190600190039081612b5b57505060808201516060909201519096509093509150611cb69050565b80604001516001600160401b03811115612bab57612bab616546565b604051908082528060200260200182016040528015612be457816020015b612bd16159b0565b815260200190600190039081612bc95790505b50955060005b8160400151811015611ca35781518390612c05908390616890565b81548110612c1557612c156168a3565b600091825260209182902060408051610140810182526009909302909101805483526001810154938301939093526002830154908201526003820154606082015260048201546080820152600582015460a082015260068201546001600160a01b03811660c08301526001600160601b03600160a01b9091041660e082015260078201805491929161010084019190612cad90616840565b80601f0160208091040260200160405190810160405280929190818152602001828054612cd990616840565b8015612d265780601f10612cfb57610100808354040283529160200191612d26565b820191906000526020600020905b815481529060010190602001808311612d0957829003601f168201915b50505050508152602001600882018054612d3f90616840565b80601f0160208091040260200160405190810160405280929190818152602001828054612d6b90616840565b8015612db85780601f10612d8d57610100808354040283529160200191612db8565b820191906000526020600020905b815481529060010190602001808311612d9b57829003601f168201915b505050505081525050878281518110612dd357612dd36168a3565b60200260200101819052508080612de9906168cc565b915050612bea565b612df9614bd3565b80612e175760405163e5d242ed60e01b815260040160405180910390fd5b6000818152600f6020908152604080832033845290915281205490819003612e525760405163175f16a160e01b815260040160405180910390fd5b6000612e5f6001836168b9565b60008481526019602090815260408083208484529091529020549091508015612ea857612e8d6001826168b9565b60008581526019602090815260408083208684529091529020555b336000908152601d602090815260408083208784529091529020548015612fde576000612ed66001836168b9565b336000908152601c602052604081205491925090612ef6906001906168b9565b9050808214612f8d57336000908152601c60205260408120805483908110612f2057612f206168a3565b9060005260206000200154905080601c6000336001600160a01b03166001600160a01b031681526020019081526020016000208481548110612f6457612f646168a3565b6000918252602080832090910192909255338152601d8252604080822093825292909152208390555b336000908152601c60205260409020805480612fab57612fab616b35565b600082815260208082208301600019908101839055909201909255338252601d815260408083208a845290915281205550505b6000858152600f6020908152604080832033808552908352818420939093558051878152429281019290925287917f203917c2c13a758e439cfec1127753207a42e9750a151a07a4f9484e3e5901b6910160405180910390a3505050506130456001600b55565b50565b606060018054610db590616840565b6111ec338383614cac565b61306a614bd3565b84848161308a5760405163e5d242ed60e01b815260040160405180910390fd5b8015806130a457506000828152600c602052604090205481115b156130c257604051630dd4272d60e41b815260040160405180910390fd5b608088013533146130e65760405163bd8cc73160e01b815260040160405180910390fd5b60008781526016602090815260408083208984529091529020541561311e57604051634028e5e560e11b815260040160405180910390fd5b6000878152600f6020908152604080832033845290915290205486146131575760405163786bb09f60e11b815260040160405180910390fd5b61010084111561317a576040516313f04adb60e01b815260040160405180910390fd5b61318760c0840184616b4b565b6131919080616b6b565b90506000036131b357604051635f895cef60e11b815260040160405180910390fd5b6101006131c360c0850185616b4b565b6131cd9080616b6b565b905011156131ee57604051635f895cef60e11b815260040160405180910390fd5b6101006131fe60c0850185616b4b565b61320c9060e0810190616b6b565b9050111561322d5760405163f283c51960e01b815260040160405180910390fd5b61010061323d60c0850185616b4b565b61324b906020810190616b6b565b9050111561326c576040516367181a3960e11b815260040160405180910390fd5b61010061327c60c0850185616b4b565b61328a9060c0810190616b6b565b905011156132ab57604051633769847160e01b815260040160405180910390fd5b600c6132ba60c0850185616b4b565b6132cb9060a0810190608001616bb1565b60ff1611156132ed57604051630282898760e21b815260040160405180910390fd5b601f6132fc60c0850185616b4b565b61330d9060c081019060a001616bb1565b60ff16111561332f57604051638d177e8360e01b815260040160405180910390fd5b6000613343610bca36869003860186616680565b905087811461336557604051632f38f48f60e21b815260040160405180910390fd5b6040516334baeab960e01b81526001600160a01b037f000000000000000000000000000000000000000000000000000000000000000016906334baeab9906133b7908f908f908f908f90600401616bf2565b602060405180830381865afa1580156133d4573d6000803e3d6000fd5b505050506040513d601f19601f820116820180604052508101906133f89190616c23565b613415576040516303b2487b60e11b815260040160405180910390fd5b600061342a8a358b60015b6020020135614d4b565b90508435811461344d57604051632f38f48f60e21b815260040160405180910390fd5b600061345f60408c01358c6003613420565b905060006134b761347360c0890189616b4b565b61347d9080616b6b565b8080601f016020809104026020016040519081016040528093929190818152602001838380828437600092019190915250614bfd92505050565b90508181146134d957604051632f38f48f60e21b815260040160405180910390fd5b60006010600081546134ea906168cc565b91905081905590508b60116000838152602001908152602001600020819055508a601260008381526020019081526020016000208190555080601660008e815260200190815260200160002060008d8152602001908152602001600020819055508760136000838152602001908152602001600020818161356b9190616e20565b9050506135ae818b8b8080601f016020809104026020016040519081016040528093929190818152602001838380828437600092019190915250614ae692505050565b6135b83382614d8b565b336001600160a01b0316818d7fbce71c21e84db5e7dca78ea57ad63b6c66f74f74efc25e33592370ecf39e093b8e8e8e426040516135f99493929190616f09565b60405180910390a4505050505050506136126001600b55565b505050505050505050565b613625614c2d565b6107d08111156136485760405163499fddb160e01b815260040160405180910390fd5b601a54818103613656575050565b601a82905560408051828152602081018490527ffa7ce4b1b3c9db75cae1c9e74a97c900b9377a24cc2ac49f55c7466a1404c5e0910160405180910390a15050565b6136a0614bd3565b60c087013533146136c45760405163bd8cc73160e01b815260040160405180910390fd5b60405163c894e75760e01b81526001600160a01b037f0000000000000000000000000000000000000000000000000000000000000000169063c894e75790613716908d908d908d908d90600401616f34565b602060405180830381865afa158015613733573d6000803e3d6000fd5b505050506040513d601f19601f820116820180604052508101906137579190616c23565b613774576040516303b2487b60e11b815260040160405180910390fd5b600061378b61378689358a6001613420565b614da5565b905060006137a261378660408b01358b6003613420565b905060006137b961378660808c01358c6005613420565b604051909150339084907f3015fe19dc9f8f0d942de39092410a57589dd94d2c9134719335fe04e3695eca90600090a36137fa8383838c8c8c8c8c8c614dc5565b5050506138076001600b55565b50505050505050505050565b61381b614bd3565b81818161383b5760405163e5d242ed60e01b815260040160405180910390fd5b80158061385557506000828152600c602052604090205481115b1561387357604051630dd4272d60e41b815260040160405180910390fd5b6000848152600f602090815260408083203384529091529020548381036138ad576040516354d92fcb60e01b815260040160405180910390fd5b60006138ba6001866168b9565b905060007f00000000000000000000000000000000000000000000000000000000000000006001600160a01b0316636bf90c716040518163ffffffff1660e01b8152600401602060405180830381865afa15801561391c573d6000803e3d6000fd5b505050506040513d601f19601f820116820180604052508101906139409190616f65565b90506000808085156139a95760006139596001886168b9565b60008c815260196020908152604080832084845290915290205490915080156139a2576139876001826168b9565b60008d81526019602090815260408083208684529091529020555b50506139fe565b336000908152601c60205260409020546139c4906001616890565b336000818152601d602090815260408083208f8452825280832094909455918152601c825291822080546001810182559083529120018a90555b60008a81526019602090815260408083208884529091528120805460019290613a28908490616890565b909155505060008a8152600f6020908152604080832033845290915290208990558315613d125760008a8152600c6020526040812080547f000000000000000000000000000000000000000000000000000000000000000092919088908110613a9357613a936168a3565b906000526020600020906009020190506000601660008e815260200190815260200160002060008d815260200190815260200160002054905080600014613b0f576000613adf82614acb565b90506001600160a01b03811615613af857809650613b09565b60068301546001600160a01b031696505b50613b20565b60068201546001600160a01b031695505b6000612710601a5489613b339190616f7e565b613b3d9190616f95565b9050613b4981896168b9565b94508415613bf0576040516323b872dd60e01b81523360048201526001600160a01b03888116602483015260448201879052600091908616906323b872dd906064016020604051808303816000875af1158015613baa573d6000803e3d6000fd5b505050506040513d601f19601f82011682018060405250810190613bce9190616c23565b905080613bee57604051635da1e97760e11b815260040160405180910390fd5b505b8015613d0d57600a546001600160a01b0316955085613c6e5760405163079cc67960e41b8152336004820152602481018290526001600160a01b038516906379cc679090604401600060405180830381600087803b158015613c5157600080fd5b505af1158015613c65573d6000803e3d6000fd5b50505050613d0d565b6040516323b872dd60e01b81523360048201526001600160a01b03878116602483015260448201839052600091908616906323b872dd906064016020604051808303816000875af1158015613cc7573d6000803e3d6000fd5b505050506040513d601f19601f82011682018060405250810190613ceb9190616c23565b905080613d0b57604051635da1e97760e11b815260040160405180910390fd5b505b505050505b338a7fd797cb7be92b1c65367745105ff0f8f7f0752feac9ef8841c23b1edfa31e2c128b868587613d43828c6168b9565b604080519586526001600160a01b0394851660208701528501929092529091166060830152608082015260a081018890524260c082015260e00160405180910390a350505050505050506111ec6001600b55565b613da28484846113e7565b611471338585858561538c565b613db76159b0565b600080848481613dda5760405163e5d242ed60e01b815260040160405180910390fd5b801580613df457506000828152600c602052604090205481115b15613e1257604051630dd4272d60e41b815260040160405180910390fd5b6000613e1f6001886168b9565b6000898152600c6020526040902080549192509082908110613e4357613e436168a3565b600091825260209182902060408051610140810182526009909302909101805483526001810154938301939093526002830154908201526003820154606082015260048201546080820152600582015460a082015260068201546001600160a01b03811660c08301526001600160601b03600160a01b9091041660e082015260078201805491929161010084019190613edb90616840565b80601f0160208091040260200160405190810160405280929190818152602001828054613f0790616840565b8015613f545780601f10613f2957610100808354040283529160200191613f54565b820191906000526020600020905b815481529060010190602001808311613f3757829003601f168201915b50505050508152602001600882018054613f6d90616840565b80601f0160208091040260200160405190810160405280929190818152602001828054613f9990616840565b8015613fe65780601f10613fbb57610100808354040283529160200191613fe6565b820191906000526020600020905b815481529060010190602001808311613fc957829003601f168201915b505050919092525050506000898152601960209081526040808320948352938152838220549a825260168152838220998252989098529620549597945050505050565b606061403482614985565b506000828152601460205260409020805461404e90616840565b80601f016020809104026020016040519081016040528092919081815260200182805461407a90616840565b80156140c75780601f1061409c576101008083540402835291602001916140c7565b820191906000526020600020905b8154815290600101906020018083116140aa57829003601f168201915b50505050509050919050565b80516000906140f557604051635f895cef60e11b815260040160405180910390fd5b600c826060015160ff16111561411e576040516348c5148960e11b815260040160405180910390fd5b601f826080015160ff161115614147576040516309eabf7d60e21b815260040160405180910390fd5b81516020830151608082901c916fffffffffffffffffffffffffffffffff1690600090614175576000614178565b60015b60ff1660018660a0015160ff16901b6008876080015160ff16901b6010886060015160ff16901b6018896040015161ffff16901b1717171790506141ba615a9e565b838152602081018390526040808201839052516320cf0a3760e01b815260009073__$fc5a2451f3e054f75c2faf9b3818033d8b$__906320cf0a3790614204908590600401616fb7565b602060405180830381865af4158015614221573d6000803e3d6000fd5b505050506040513d601f19601f820116820180604052508101906142459190616f65565b90508061425181614da5565b98975050505050505050565b60186020908152600092835260408084209091529082529020805460018201546002830180549293919261429090616840565b80601f01602080910402602001604051908101604052809291908181526020018280546142bc90616840565b80156143095780601f106142de57610100808354040283529160200191614309565b820191906000526020600020905b8154815290600101906020018083116142ec57829003601f168201915b5050505060038301546004840154600585018054949592946001600160a01b0383169450600160a01b90920460ff16929161434390616840565b80601f016020809104026020016040519081016040528092919081815260200182805461436f90616840565b80156143bc5780601f10614391576101008083540402835291602001916143bc565b820191906000526020600020905b81548152906001019060200180831161439f57829003601f168201915b5050505050905087565b6001600160a01b03918216600090815260056020908152604080832093909416825291909152205460ff1690565b6000838152600c6020526040812054606091829182918080614417848a8a6149bd565b9050806040015160000361446057604080516000808252602082018181528284019182526060808401909452608085015194909301519199509197509095509092509050614629565b80604001516001600160401b0381111561447c5761447c616546565b6040519080825280602002602001820160405280156144a5578160200160208202803683370190505b50965080604001516001600160401b038111156144c4576144c4616546565b6040519080825280602002602001820160405280156144ed578160200160208202803683370190505b50955080604001516001600160401b0381111561450c5761450c616546565b604051908082528060200260200182016040528015614535578160200160208202803683370190505b50945060005b8160400151811015614617578151600090614557908390616890565b9050614564816001616890565b898381518110614576576145766168a3565b60209081029190910181019190915260008d8152601982526040808220848352909252205488518990849081106145af576145af6168a3565b60209081029190910181019190915260008d8152601690915260408120906145d8836001616890565b8152602001908152602001600020548783815181106145f9576145f96168a3565b6020908102919091010152508061460f816168cc565b91505061453b565b50608081015160609091015190925090505b93975093979195509350565b61463d615975565b82600061464982614acb565b6001600160a01b031603614670576040516307ed98ed60e31b815260040160405180910390fd5b60008481526017602052604090208054841061469f57604051637df0b86160e01b815260040160405180910390fd5b6018600086815260200190815260200160002060008581526020019081526020016000206040518060e001604052908160008201548152602001600182015481526020016002820180546146f290616840565b80601f016020809104026020016040519081016040528092919081815260200182805461471e90616840565b801561476b5780601f106147405761010080835404028352916020019161476b565b820191906000526020600020905b81548152906001019060200180831161474e57829003601f168201915b50505091835250506003820154602082015260048201546001600160a01b0381166040830152600160a01b900460ff1660608201526005820180546080909201916147b590616840565b80601f01602080910402602001604051908101604052809291908181526020018280546147e190616840565b801561482e5780601f106148035761010080835404028352916020019161482e565b820191906000526020600020905b81548152906001019060200180831161481157829003601f168201915b5050505050815250509250505092915050565b614849614c2d565b6001600160a01b03811661487357604051631e4fbdf760e01b81526000600482015260240161140d565b61304581614c5a565b6015602052816000526040600020818154811061489857600080fd5b906000526020600020016000915091505080546148b490616840565b80601f01602080910402602001604051908101604052809291908181526020018280546148e090616840565b801561492d5780601f106149025761010080835404028352916020019161492d565b820191906000526020600020905b81548152906001019060200180831161491057829003601f168201915b505050505081565b60006001600160e01b031982166380ac58cd60e01b148061496657506001600160e01b03198216635b5e139f60e01b145b80610da057506301ffc9a760e01b6001600160e01b0319831614610da0565b60008061499183614acb565b90506001600160a01b038116610da057604051637e27328960e01b81526004810184905260240161140d565b6149f16040518060a00160405280600081526020016000815260200160008152602001600081526020016000151581525090565b6064821115614a1357604051630327a73960e61b815260040160405180910390fd5b811580614a205750838310155b15614a64576040518060a001604052808481526020018481526020016000815260200185851015614a515784614a53565b855b815260006020909101529050614ab7565b6000614a708385616890565b905084811115614a7d5750835b6040518060a001604052808581526020018281526020018583614aa091906168b9565b815260200182815260200186831015158152509150505b9392505050565b611cda83838360016154b7565b6000908152600260205260409020546001600160a01b031690565b6000828152601460205260409020611cda8282616940565b600080614b0c8585856155bd565b90506001600160a01b038116614b6957614b6484600880546000838152600960205260408120829055600182018355919091527ff3f7a9fe364faab93b216da50a3214154f22a0a2b415b23a84c8169e8b636ee30155565b614b8c565b846001600160a01b0316816001600160a01b031614614b8c57614b8c81856156b1565b6001600160a01b038516614ba857614ba384615732565b614bcb565b846001600160a01b0316816001600160a01b031614614bcb57614bcb85856157e1565b949350505050565b6002600b5403614bf657604051633ee5aeb560e01b815260040160405180910390fd5b6002600b55565b600081604051602001614c109190616fe8565b604051602081830303815290604052805190602001209050919050565b600a546001600160a01b031633146123c65760405163118cdaa760e01b815233600482015260240161140d565b600a80546001600160a01b038381166001600160a01b0319831681179093556040519116919082907f8be0079c531659141344cd1fd0a4f28419497f9722a3daafe3b4186f6b6457e090600090a35050565b6001600160a01b038216614cde57604051630b61174360e31b81526001600160a01b038316600482015260240161140d565b6001600160a01b03838116600081815260056020908152604080832094871680845294825291829020805460ff191686151590811790915591519182527f17307eab39ab6107e8899845ad3d59bd9653f200f220920489ca2b5937696c31910160405180910390a3505050565b6000608083901c151580614d625750608082901c15155b15614d80576040516303b2487b60e11b815260040160405180910390fd5b5060809190911b1790565b6111ec828260405180602001604052806000815250615831565b600081614db457506000919050565b604080516020810184905201614c10565b88614de35760405163e5d242ed60e01b815260040160405180910390fd5b88881480614df057508887145b15614e0e5760405163591c836760e01b815260040160405180910390fd5b8715801590614e1c57508688145b15614e3a5760405163591c836760e01b815260040160405180910390fd5b87158015614e4757508515155b15614e6557604051631f9510eb60e01b815260040160405180910390fd5b86158015614e7257508415155b15614e905760405163782ce69f60e01b815260040160405180910390fd5b6000888152600c6020526040902054861115614ebf57604051631f9510eb60e01b815260040160405180910390fd5b6000878152600c6020526040902054851115614eee5760405163782ce69f60e01b815260040160405180910390fd5b610100831115614f1157604051635fab396360e11b815260040160405180910390fd5b610100811115614f3457604051630601a0fb60e51b815260040160405180910390fd5b6000898989898989898989604051602001614f5799989796959493929190616ffa565b60408051601f19818403018152918152815160209283012060008d8152600e845282812082825290935291205490915060ff1615614fa8576040516314396b6760e11b815260040160405180910390fd5b60008a8152600e602090815260408083208484528252808320805460ff191660011790558c8352600c82528083208151610140810183528e81528084018e90528083018d90526060810194909452608084018b905260a084018a90523360c08501526001600160601b03421660e08501528151601f89018490048402810184019092528782529291610100830191908990899081908401838280828437600092019190915250505090825250604080516020601f8801819004810282018101909252868152918101919087908790819084018382808284376000920182905250939094525050835460018181018655948252602091829020845160099092020190815590830151938101939093555060408101516002830155606081015160038301556080810151600483015560a0810151600583015560c081015160e08201516001600160601b0316600160a01b026001600160a01b0390911617600683015561010081015190919060078201906151219082616940565b5061012082015160088201906151379082616940565b50505060008a8152600c6020526040902080549081906151586001836168b9565b81548110615168576151686168a3565b600091825260209091206003600990920201015589156151cf5760008a8152601b602090815260408083208b8452825280832081518083019092528e8252818301858152815460018181018455928652939094209151600290930290910191825591519101555b8815615222576000898152601b602090815260408083208a8452825280832081518083019092528e8252818301858152815460018181018455928652939094209151600290930290910191825591519101555b8060010361524057600d805490600061523a836168cc565b91905055505b336001600160a01b0316818c7ff24ca8fe8e48960e559267341f81e7b0f07746d1e98c729930fe251bd2875484428e8d8f8e8e8e604051615287979695949392919061704f565b60405180910390a4891580159061529d57508815155b1561537f576040516335313c2160e11b81523360048201526000907f00000000000000000000000000000000000000000000000000000000000000006001600160a01b031690636a627842906024016020604051808303816000875af115801561530b573d6000803e3d6000fd5b505050506040513d601f19601f8201168201806040525081019061532f9190616f65565b9050801561537d57818c336001600160a01b03167fdefc43c3e9b037326c59d7c3f29c0b6b5c94a6fbfcced006b763e74a3115da6d8460405161537491815260200190565b60405180910390a45b505b5050505050505050505050565b6001600160a01b0383163b156154b057604051630a85bd0160e11b81526001600160a01b0384169063150b7a02906153ce908890889087908790600401617081565b6020604051808303816000875af1925050508015615409575060408051601f3d908101601f19168201909252615406918101906170b4565b60015b615472573d808015615437576040519150601f19603f3d011682016040523d82523d6000602084013e61543c565b606091505b50805160000361546a57604051633250574960e11b81526001600160a01b038516600482015260240161140d565b805160208201fd5b6001600160e01b03198116630a85bd0160e11b146154ae57604051633250574960e11b81526001600160a01b038516600482015260240161140d565b505b5050505050565b80806154cb57506001600160a01b03821615155b1561558d5760006154db84614985565b90506001600160a01b038316158015906155075750826001600160a01b0316816001600160a01b031614155b801561551a575061551881846143c6565b155b156155435760405163a9fbf51f60e01b81526001600160a01b038416600482015260240161140d565b811561558b5783856001600160a01b0316826001600160a01b03167f8c5be1e5ebec7d5bd14f71427d1e84f3dd0314c0f7b2291e5b200ac8c7c3b92560405160405180910390a45b505b5050600090815260046020526040902080546001600160a01b0319166001600160a01b0392909216919091179055565b6000806155c984614acb565b90506001600160a01b038316156155e5576155e5818486615849565b6001600160a01b03811615615623576156026000856000806154b7565b6001600160a01b038116600090815260036020526040902080546000190190555b6001600160a01b03851615615652576001600160a01b0385166000908152600360205260409020805460010190555b60008481526002602052604080822080546001600160a01b0319166001600160a01b0389811691821790925591518793918516917fddf252ad1be2c89b69c2b068fc378daa952ba7f163c4a11628f55a4df523b3ef91a4949350505050565b60006156bc8361236c565b6000838152600760209081526040808320546001600160a01b038816845260069092529091209192509081831461571357600083815260208281526040808320548584528184208190558352600790915290208290555b6000938452600760209081526040808620869055938552525081205550565b600854600090615744906001906168b9565b6000838152600960205260408120546008805493945090928490811061576c5761576c6168a3565b90600052602060002001549050806008838154811061578d5761578d6168a3565b60009182526020808320909101929092558281526009909152604080822084905585825281205560088054806157c5576157c5616b35565b6001900381819060005260206000200160009055905550505050565b600060016157ee8461236c565b6157f891906168b9565b6001600160a01b039093166000908152600660209081526040808320868452825280832085905593825260079052919091209190915550565b61583b83836158ad565b611cda33600085858561538c565b615854838383615912565b611cda576001600160a01b03831661588257604051637e27328960e01b81526004810182905260240161140d565b60405163177e802f60e01b81526001600160a01b03831660048201526024810182905260440161140d565b6001600160a01b0382166158d757604051633250574960e11b81526000600482015260240161140d565b60006158e583836000614afe565b90506001600160a01b03811615611cda576040516339e3563760e11b81526000600482015260240161140d565b60006001600160a01b03831615801590614bcb5750826001600160a01b0316846001600160a01b0316148061594c575061594c84846143c6565b80614bcb5750506000908152600460205260409020546001600160a01b03908116911614919050565b6040805160e08101825260008082526020820181905260609282018390528282018190526080820181905260a082015260c081019190915290565b604080516101408101825260008082526020820181905291810182905260608082018390526080820183905260a0820183905260c0820183905260e0820192909252610100810182905261012081019190915290565b60408051610100810182526000918101828152606082018390526080820183905260a0820183905260c0820183905260e08201929092529081908152602001615a996040518061010001604052806060815260200160608152602001600015158152602001600061ffff168152602001600060ff168152602001600060ff16815260200160608152602001606081525090565b905290565b60405180606001604052806003906020820280368337509192915050565b6001600160e01b03198116811461304557600080fd5b600060208284031215615ae457600080fd5b8135614ab781615abc565b60005b83811015615b0a578181015183820152602001615af2565b50506000910152565b60008151808452615b2b816020860160208601615aef565b601f01601f19169290920160200192915050565b602081526000614ab76020830184615b13565b600060208284031215615b6457600080fd5b5035919050565b80356001600160a01b0381168114615b8257600080fd5b919050565b600080600060608486031215615b9c57600080fd5b615ba584615b6b565b95602085013595506040909401359392505050565b600081518084526020808501945080840160005b83811015615bea57815187529582019590820190600101615bce565b509495945050505050565b60e081526000615c0860e083018a615bba565b8281036020840152615c1a818a615bba565b90508281036040840152615c2e8189615bba565b90508281036060840152615c428188615bba565b6080840196909652505091151560a083015260c090910152949350505050565b60008060408385031215615c7557600080fd5b615c7e83615b6b565b946020939093013593505050565b60008060408385031215615c9f57600080fd5b50508035926020909101359150565b600080600060608486031215615cc357600080fd5b505081359360208301359350604090920135919050565b60008083601f840112615cec57600080fd5b5081356001600160401b03811115615d0357600080fd5b602083019150836020828501011115615d1b57600080fd5b9250929050565b600080600060408486031215615d3757600080fd5b8335925060208401356001600160401b03811115615d5457600080fd5b615d6086828701615cda565b9497909650939450505050565b600080600060608486031215615d8257600080fd5b615d8b84615b6b565b9250615d9960208501615b6b565b9150604084013590509250925092565b8051825260208101511515602083015261ffff604082015116604083015260ff606082015116606083015260ff608082015116608083015260ff60a08201511660a08301525050565b60006101008251818552615e0882860182615b13565b91505060208301518482036020860152615e228282615b13565b9150506040830151615e38604086018215159052565b506060830151615e4e606086018261ffff169052565b506080830151615e63608086018260ff169052565b5060a0830151615e7860a086018260ff169052565b5060c083015184820360c0860152615e908282615b13565b91505060e083015184820360e0860152615eaa8282615b13565b95945050505050565b615ebd8184615da9565b60e060c08201526000614bcb60e0830184615df2565b80518252602081015160208301526000604082015160e06040850152615efc60e0850182615b13565b90506060830151606085015260018060a01b03608084015116608085015260ff60a08401511660a085015260c083015184820360c0860152615eaa8282615b13565b6000608082016080835280875180835260a08501915060a08160051b86010192506020808a0160005b83811015615f9557609f19888703018552615f83868351615ed3565b95509382019390820190600101615f67565b5050850197909752509315156040830152506060015292915050565b6000608082016080835280875180835260a08501915060a08160051b86010192506020808a0160005b83811015615f9557609f19888703018552615ff6868351615b13565b95509382019390820190600101615fda565b6000806000806080858703121561601e57600080fd5b5050823594602084013594506040840135936060013592509050565b60a08152600061604d60a0830188615bba565b828103602084015261605f8188615bba565b60408401969096525050911515606083015260809091015292915050565b60ff8116811461304557600080fd5b60008060008060008060008060c0898b0312156160a857600080fd5b883597506020890135965060408901356160c18161607d565b955060608901356001600160401b03808211156160dd57600080fd5b6160e98c838d01615cda565b909750955060808b013591508082111561610257600080fd5b5061610f8b828c01615cda565b999c989b50969995989497949560a00135949350505050565b60006101408c83528b60208401528a60408401528960608401528860808401528760a084015260018060a01b03871660c08401526001600160601b03861660e08401528061010084015261617e81840186615b13565b90508281036101208401526161938185615b13565b9d9c50505050505050505050505050565b6000602082840312156161b657600080fd5b614ab782615b6b565b6000610140825184526020830151602085015260408301516040850152606083015160608501526080830151608085015260a083015160a085015260c083015161621460c08601826001600160a01b03169052565b5060e083015161622f60e08601826001600160601b03169052565b5061010080840151828287015261624883870182615b13565b9250505061012080840151858303828701526162648382615b13565b9695505050505050565b86815285602082015260c06040820152600061628d60c08301876161bf565b82810360608401526162a0818751615da9565b602086015160e060c08301526162b960e0830182615df2565b91505084608084015282810360a08401526162d48185615b13565b9998505050505050505050565b6000608082016080835280875180835260a08501915060a08160051b86010192506020808a0160005b83811015615f9557609f198887030185526163268683516161bf565b9550938201939082019060010161630a565b801515811461304557600080fd5b6000806040838503121561635957600080fd5b61636283615b6b565b9150602083013561637281616338565b809150509250929050565b8060408101831015610da057600080fd5b8060808101831015610da057600080fd5b60008060008060008060008060006102208a8c0312156163be57600080fd5b6163c88b8b61637d565b98506163d78b60408c0161638e565b97506163e68b60c08c0161637d565b96506101a08a018b8111156163fa57600080fd5b6101008b0196503594506101c08a013593506101e08a01356001600160401b038082111561642757600080fd5b6164338d838e01615cda565b90955093506102008c013591508082111561644d57600080fd5b508a0160e0818d03121561646057600080fd5b809150509295985092959850929598565b6000806000806000806000806000806102608b8d03121561649157600080fd5b61649b8c8c61637d565b99506164aa8c60408d0161638e565b98506164b98c60c08d0161637d565b97506101e08b018c8111156164cd57600080fd5b6101008c0197503595506102008b013594506102208b01356001600160401b03808211156164fa57600080fd5b6165068e838f01615cda565b90965094506102408d013591508082111561652057600080fd5b5061652d8d828e01615cda565b915080935050809150509295989b9194979a5092959850565b634e487b7160e01b600052604160045260246000fd5b604051601f8201601f191681016001600160401b038111828210171561658457616584616546565b604052919050565b600080600080608085870312156165a257600080fd5b6165ab85615b6b565b935060206165ba818701615b6b565b93506040860135925060608601356001600160401b03808211156165dd57600080fd5b818801915088601f8301126165f157600080fd5b81358181111561660357616603616546565b616615601f8201601f1916850161655c565b9150808252898482850101111561662b57600080fd5b808484018584013760008482840101525080935050505092959194509250565b60608152600061665e60608301866161bf565b60208301949094525060400152919050565b61ffff8116811461304557600080fd5b600060c0828403121561669257600080fd5b60405160c081018181106001600160401b03821117156166b4576166b4616546565b6040528235815260208301356166c981616338565b602082015260408301356166dc81616670565b604082015260608301356166ef8161607d565b606082015260808301356167028161607d565b608082015260a08301356167158161607d565b60a08201529392505050565b87815286602082015260e06040820152600061674060e0830188615b13565b606083018790526001600160a01b038616608084015260ff851660a084015282810360c08401526167718185615b13565b9a9950505050505050505050565b6000806040838503121561679257600080fd5b61679b83615b6b565b91506167a960208401615b6b565b90509250929050565b60c0815260006167c560c0830189615bba565b82810360208401526167d78189615bba565b905082810360408401526167eb8188615bba565b60608401969096525050911515608083015260a0909101529392505050565b602081526000614ab76020830184615ed3565b6000806040838503121561683057600080fd5b823591506167a960208401615b6b565b600181811c9082168061685457607f821691505b60208210810361687457634e487b7160e01b600052602260045260246000fd5b50919050565b634e487b7160e01b600052601160045260246000fd5b80820180821115610da057610da061687a565b634e487b7160e01b600052603260045260246000fd5b81810381811115610da057610da061687a565b6000600182016168de576168de61687a565b5060010190565b601f821115611cda57600081815260208120601f850160051c8101602086101561690c5750805b601f850160051c820191505b818110156154ae57828155600101616918565b600019600383901b1c191660019190911b1790565b81516001600160401b0381111561695957616959616546565b61696d816169678454616840565b846168e5565b602080601f83116001811461699c576000841561698a5750858301515b616994858261692b565b8655506154ae565b600085815260208120601f198616915b828110156169cb578886015182559484019460019091019084016169ac565b50858210156169e95787850151600019600388901b60f8161c191681555b5050505050600190811b01905550565b81835281816020850137506000828201602090810191909152601f909101601f19169091010190565b604081526000616a356040830186615b13565b82810360208401526162648185876169f9565b6001600160401b03831115616a5f57616a5f616546565b616a7383616a6d8354616840565b836168e5565b6000601f841160018114616aa15760008515616a8f5750838201355b616a99868261692b565b8455506154b0565b600083815260209020601f19861690835b82811015616ad25786850135825560209485019460019092019101616ab2565b5086821015616aef5760001960f88860031b161c19848701351681555b505060018560011b0183555050505050565b85815284602082015260ff84166040820152608060608201526000616b2a6080830184866169f9565b979650505050505050565b634e487b7160e01b600052603160045260246000fd5b6000823560fe19833603018112616b6157600080fd5b9190910192915050565b6000808335601e19843603018112616b8257600080fd5b8301803591506001600160401b03821115616b9c57600080fd5b602001915036819003821315615d1b57600080fd5b600060208284031215616bc357600080fd5b8135614ab78161607d565b8060005b600281101561147157604080838637938401939190910190600101616bd2565b6101a081016040868337616c096040830186616bce565b60408460c084013760a08361010084013795945050505050565b600060208284031215616c3557600080fd5b8151614ab781616338565b60008135610da081616338565b60008135610da081616670565b60008135610da08161607d565b616c718283616b6b565b6001600160401b03811115616c8857616c88616546565b616c9c81616c968554616840565b856168e5565b6000601f821160018114616cca5760008315616cb85750838201355b616cc2848261692b565b865550616d24565b600085815260209020601f19841690835b82811015616cfb5786850135825560209485019460019092019101616cdb565b5084821015616d185760001960f88660031b161c19848701351681555b505060018360011b0185555b50505050616d356020830183616b6b565b616d43818360018601616a48565b505060028101616d6c616d5860408501616c40565b825490151560ff1660ff1991909116178255565b616d93616d7b60608501616c4d565b825462ffff00191660089190911b62ffff0016178255565b616dbc616da260808501616c5a565b825463ff000000191660189190911b63ff00000016178255565b616de7616dcb60a08501616c5a565b825464ff00000000191660209190911b64ff0000000016178255565b50616df560c0830183616b6b565b616e03818360038601616a48565b5050616e1260e0830183616b6b565b611471818360048601616a48565b81358155600181016020830135616e3681616338565b815460ff191660ff82151516178255506040830135616e5481616670565b815462ffff001916600882901b62ffff0016178255506060830135616e788161607d565b815463ff0000001916601882901b63ff00000016178255506080830135616e9e8161607d565b815464ff000000001916602082901b64ff00000000161782555060a0830135616ec68161607d565b815465ff0000000000191660289190911b65ff00000000001617905560c08201353683900360fe19018112616efa57600080fd5b611cda81840160028401616c67565b848152606060208201526000616f236060830185876169f9565b905082604083015295945050505050565b6101e081016040868337616f4b6040830186616bce565b60408460c084013760e08361010084013795945050505050565b600060208284031215616f7757600080fd5b5051919050565b8082028115828204841417610da057610da061687a565b600082616fb257634e487b7160e01b600052601260045260246000fd5b500490565b60608101818360005b6003811015616fdf578151835260209283019290910190600101616fc0565b50505092915050565b60008251616b61818460208701615aef565b89815288602082015287604082015286606082015285608082015260e060a0820152600061702c60e0830186886169f9565b82810360c084015261703f8185876169f9565b9c9b505050505050505050505050565b87815286602082015285604082015284606082015283608082015260c060a082015260006162d460c0830184866169f9565b6001600160a01b038581168252841660208201526040810183905260806060820181905260009061626490830184615b13565b6000602082840312156170c657600080fd5b8151614ab781615abc56fea2646970667358221220044799aca1f03b41d29ad90d8e0abd883b59b5e0136a943607bdb91987232d7464736f6c63430008140033",
  "linkReferences": {
    "poseidon-solidity/PoseidonT4.sol": {
      "PoseidonT4": [
        {
          "length": 20,
          "start": 17871
        }
      ]
    }
  },
  "deployedLinkReferences": {
    "poseidon-solidity/PoseidonT4.sol": {
      "PoseidonT4": [
        {
          "length": 20,
          "start": 16860
        }
      ]
    }
  }
}