{
  "_format": "hh-sol-artifact-1",
  "contractName": "DeepFamily",
  "sourceName": "contracts/DeepFamily.sol",
  "abi": [
    {
      "inputs": [
        {
          "internalType": "address",
          "name": "_deepFamilyTokenContract",
          "type": "address"
        },
        {
          "internalType": "address",
          "name": "_personHashVerifier",
          "type": "address"
        }
      ],
      "stateMutability": "nonpayable",
      "type": "constructor"
    },
    {
      "inputs": [],
      "name": "BasicInfoMismatch",
      "type": "error"
    },
    {
      "inputs": [],
      "name": "ChunkHashMismatch",
      "type": "error"
    },
    {
      "inputs": [],
      "name": "ChunkIndexOutOfRange",
      "type": "error"
    },
    {
      "inputs": [],
      "name": "DirectETHNotAccepted",
      "type": "error"
    },
    {
      "inputs": [],
      "name": "DuplicateVersion",
      "type": "error"
    },
    {
      "inputs": [],
      "name": "ERC721EnumerableForbiddenBatchMint",
      "type": "error"
    },
    {
      "inputs": [
        {
          "internalType": "address",
          "name": "sender",
          "type": "address"
        },
        {
          "internalType": "uint256",
          "name": "tokenId",
          "type": "uint256"
        },
        {
          "internalType": "address",
          "name": "owner",
          "type": "address"
        }
      ],
      "name": "ERC721IncorrectOwner",
      "type": "error"
    },
    {
      "inputs": [
        {
          "internalType": "address",
          "name": "operator",
          "type": "address"
        },
        {
          "internalType": "uint256",
          "name": "tokenId",
          "type": "uint256"
        }
      ],
      "name": "ERC721InsufficientApproval",
      "type": "error"
    },
    {
      "inputs": [
        {
          "internalType": "address",
          "name": "approver",
          "type": "address"
        }
      ],
      "name": "ERC721InvalidApprover",
      "type": "error"
    },
    {
      "inputs": [
        {
          "internalType": "address",
          "name": "operator",
          "type": "address"
        }
      ],
      "name": "ERC721InvalidOperator",
      "type": "error"
    },
    {
      "inputs": [
        {
          "internalType": "address",
          "name": "owner",
          "type": "address"
        }
      ],
      "name": "ERC721InvalidOwner",
      "type": "error"
    },
    {
      "inputs": [
        {
          "internalType": "address",
          "name": "receiver",
          "type": "address"
        }
      ],
      "name": "ERC721InvalidReceiver",
      "type": "error"
    },
    {
      "inputs": [
        {
          "internalType": "address",
          "name": "sender",
          "type": "address"
        }
      ],
      "name": "ERC721InvalidSender",
      "type": "error"
    },
    {
      "inputs": [
        {
          "internalType": "uint256",
          "name": "tokenId",
          "type": "uint256"
        }
      ],
      "name": "ERC721NonexistentToken",
      "type": "error"
    },
    {
      "inputs": [
        {
          "internalType": "address",
          "name": "owner",
          "type": "address"
        },
        {
          "internalType": "uint256",
          "name": "index",
          "type": "uint256"
        }
      ],
      "name": "ERC721OutOfBoundsIndex",
      "type": "error"
    },
    {
      "inputs": [],
      "name": "EndorsementFeeTransferFailed",
      "type": "error"
    },
    {
      "inputs": [],
      "name": "InvalidBirthDay",
      "type": "error"
    },
    {
      "inputs": [],
      "name": "InvalidBirthMonth",
      "type": "error"
    },
    {
      "inputs": [],
      "name": "InvalidBirthPlace",
      "type": "error"
    },
    {
      "inputs": [],
      "name": "InvalidCIDLength",
      "type": "error"
    },
    {
      "inputs": [],
      "name": "InvalidChunkContent",
      "type": "error"
    },
    {
      "inputs": [],
      "name": "InvalidDeathPlace",
      "type": "error"
    },
    {
      "inputs": [],
      "name": "InvalidFatherVersionIndex",
      "type": "error"
    },
    {
      "inputs": [],
      "name": "InvalidFullName",
      "type": "error"
    },
    {
      "inputs": [],
      "name": "InvalidMotherVersionIndex",
      "type": "error"
    },
    {
      "inputs": [],
      "name": "InvalidPersonHash",
      "type": "error"
    },
    {
      "inputs": [],
      "name": "InvalidStory",
      "type": "error"
    },
    {
      "inputs": [],
      "name": "InvalidTagLength",
      "type": "error"
    },
    {
      "inputs": [],
      "name": "InvalidTokenId",
      "type": "error"
    },
    {
      "inputs": [],
      "name": "InvalidTokenURI",
      "type": "error"
    },
    {
      "inputs": [],
      "name": "InvalidVersionIndex",
      "type": "error"
    },
    {
      "inputs": [],
      "name": "InvalidZKProof",
      "type": "error"
    },
    {
      "inputs": [],
      "name": "MustBeNFTHolder",
      "type": "error"
    },
    {
      "inputs": [],
      "name": "MustEndorseVersionFirst",
      "type": "error"
    },
    {
      "inputs": [
        {
          "internalType": "address",
          "name": "owner",
          "type": "address"
        }
      ],
      "name": "OwnableInvalidOwner",
      "type": "error"
    },
    {
      "inputs": [
        {
          "internalType": "address",
          "name": "account",
          "type": "address"
        }
      ],
      "name": "OwnableUnauthorizedAccount",
      "type": "error"
    },
    {
      "inputs": [],
      "name": "PageSizeExceedsLimit",
      "type": "error"
    },
    {
      "inputs": [],
      "name": "ReentrancyGuardReentrantCall",
      "type": "error"
    },
    {
      "inputs": [],
      "name": "StoryAlreadySealed",
      "type": "error"
    },
    {
      "inputs": [],
      "name": "StoryNotFound",
      "type": "error"
    },
    {
      "inputs": [],
      "name": "TokenContractNotSet",
      "type": "error"
    },
    {
      "inputs": [],
      "name": "VerifierNotSet",
      "type": "error"
    },
    {
      "inputs": [],
      "name": "VersionAlreadyMinted",
      "type": "error"
    },
    {
      "anonymous": false,
      "inputs": [
        {
          "indexed": true,
          "internalType": "address",
          "name": "owner",
          "type": "address"
        },
        {
          "indexed": true,
          "internalType": "address",
          "name": "approved",
          "type": "address"
        },
        {
          "indexed": true,
          "internalType": "uint256",
          "name": "tokenId",
          "type": "uint256"
        }
      ],
      "name": "Approval",
      "type": "event"
    },
    {
      "anonymous": false,
      "inputs": [
        {
          "indexed": true,
          "internalType": "address",
          "name": "owner",
          "type": "address"
        },
        {
          "indexed": true,
          "internalType": "address",
          "name": "operator",
          "type": "address"
        },
        {
          "indexed": false,
          "internalType": "bool",
          "name": "approved",
          "type": "bool"
        }
      ],
      "name": "ApprovalForAll",
      "type": "event"
    },
    {
      "anonymous": false,
      "inputs": [
        {
          "indexed": true,
          "internalType": "address",
          "name": "previousOwner",
          "type": "address"
        },
        {
          "indexed": true,
          "internalType": "address",
          "name": "newOwner",
          "type": "address"
        }
      ],
      "name": "OwnershipTransferred",
      "type": "event"
    },
    {
      "anonymous": false,
      "inputs": [
        {
          "indexed": true,
          "internalType": "bytes32",
          "name": "personHash",
          "type": "bytes32"
        },
        {
          "indexed": true,
          "internalType": "address",
          "name": "prover",
          "type": "address"
        }
      ],
      "name": "PersonHashZKVerified",
      "type": "event"
    },
    {
      "anonymous": false,
      "inputs": [
        {
          "indexed": true,
          "internalType": "bytes32",
          "name": "personHash",
          "type": "bytes32"
        },
        {
          "indexed": true,
          "internalType": "uint256",
          "name": "tokenId",
          "type": "uint256"
        },
        {
          "indexed": true,
          "internalType": "address",
          "name": "owner",
          "type": "address"
        },
        {
          "indexed": false,
          "internalType": "uint256",
          "name": "versionIndex",
          "type": "uint256"
        },
        {
          "indexed": false,
          "internalType": "string",
          "name": "tokenURI",
          "type": "string"
        },
        {
          "indexed": false,
          "internalType": "uint256",
          "name": "timestamp",
          "type": "uint256"
        }
      ],
      "name": "PersonNFTMinted",
      "type": "event"
    },
    {
      "anonymous": false,
      "inputs": [
        {
          "indexed": true,
          "internalType": "bytes32",
          "name": "personHash",
          "type": "bytes32"
        },
        {
          "indexed": true,
          "internalType": "uint256",
          "name": "versionIndex",
          "type": "uint256"
        },
        {
          "indexed": true,
          "internalType": "address",
          "name": "addedBy",
          "type": "address"
        },
        {
          "indexed": false,
          "internalType": "uint256",
          "name": "timestamp",
          "type": "uint256"
        },
        {
          "indexed": false,
          "internalType": "bytes32",
          "name": "fatherHash",
          "type": "bytes32"
        },
        {
          "indexed": false,
          "internalType": "uint256",
          "name": "fatherVersionIndex",
          "type": "uint256"
        },
        {
          "indexed": false,
          "internalType": "bytes32",
          "name": "motherHash",
          "type": "bytes32"
        },
        {
          "indexed": false,
          "internalType": "uint256",
          "name": "motherVersionIndex",
          "type": "uint256"
        },
        {
          "indexed": false,
          "internalType": "string",
          "name": "tag",
          "type": "string"
        }
      ],
      "name": "PersonVersionAdded",
      "type": "event"
    },
    {
      "anonymous": false,
      "inputs": [
        {
          "indexed": true,
          "internalType": "bytes32",
          "name": "personHash",
          "type": "bytes32"
        },
        {
          "indexed": true,
          "internalType": "address",
          "name": "endorser",
          "type": "address"
        },
        {
          "indexed": false,
          "internalType": "uint256",
          "name": "versionIndex",
          "type": "uint256"
        },
        {
          "indexed": false,
          "internalType": "uint256",
          "name": "endorsementFee",
          "type": "uint256"
        },
        {
          "indexed": false,
          "internalType": "uint256",
          "name": "timestamp",
          "type": "uint256"
        }
      ],
      "name": "PersonVersionEndorsed",
      "type": "event"
    },
    {
      "anonymous": false,
      "inputs": [
        {
          "indexed": true,
          "internalType": "uint256",
          "name": "tokenId",
          "type": "uint256"
        },
        {
          "indexed": true,
          "internalType": "uint256",
          "name": "chunkIndex",
          "type": "uint256"
        },
        {
          "indexed": false,
          "internalType": "bytes32",
          "name": "chunkHash",
          "type": "bytes32"
        },
        {
          "indexed": true,
          "internalType": "address",
          "name": "editor",
          "type": "address"
        },
        {
          "indexed": false,
          "internalType": "uint256",
          "name": "contentLength",
          "type": "uint256"
        }
      ],
      "name": "StoryChunkAdded",
      "type": "event"
    },
    {
      "anonymous": false,
      "inputs": [
        {
          "indexed": true,
          "internalType": "uint256",
          "name": "tokenId",
          "type": "uint256"
        },
        {
          "indexed": true,
          "internalType": "uint256",
          "name": "chunkIndex",
          "type": "uint256"
        },
        {
          "indexed": false,
          "internalType": "bytes32",
          "name": "oldHash",
          "type": "bytes32"
        },
        {
          "indexed": false,
          "internalType": "bytes32",
          "name": "newHash",
          "type": "bytes32"
        },
        {
          "indexed": true,
          "internalType": "address",
          "name": "editor",
          "type": "address"
        }
      ],
      "name": "StoryChunkUpdated",
      "type": "event"
    },
    {
      "anonymous": false,
      "inputs": [
        {
          "indexed": true,
          "internalType": "uint256",
          "name": "tokenId",
          "type": "uint256"
        },
        {
          "indexed": false,
          "internalType": "uint256",
          "name": "totalChunks",
          "type": "uint256"
        },
        {
          "indexed": false,
          "internalType": "bytes32",
          "name": "fullStoryHash",
          "type": "bytes32"
        },
        {
          "indexed": true,
          "internalType": "address",
          "name": "sealer",
          "type": "address"
        }
      ],
      "name": "StorySealed",
      "type": "event"
    },
    {
      "anonymous": false,
      "inputs": [
        {
          "indexed": true,
          "internalType": "address",
          "name": "miner",
          "type": "address"
        },
        {
          "indexed": true,
          "internalType": "bytes32",
          "name": "personHash",
          "type": "bytes32"
        },
        {
          "indexed": true,
          "internalType": "uint256",
          "name": "versionIndex",
          "type": "uint256"
        },
        {
          "indexed": false,
          "internalType": "uint256",
          "name": "reward",
          "type": "uint256"
        }
      ],
      "name": "TokenRewardDistributed",
      "type": "event"
    },
    {
      "anonymous": false,
      "inputs": [
        {
          "indexed": true,
          "internalType": "uint256",
          "name": "tokenId",
          "type": "uint256"
        },
        {
          "indexed": true,
          "internalType": "address",
          "name": "owner",
          "type": "address"
        },
        {
          "indexed": false,
          "internalType": "string",
          "name": "oldURI",
          "type": "string"
        },
        {
          "indexed": false,
          "internalType": "string",
          "name": "newURI",
          "type": "string"
        }
      ],
      "name": "TokenURIUpdated",
      "type": "event"
    },
    {
      "anonymous": false,
      "inputs": [
        {
          "indexed": true,
          "internalType": "address",
          "name": "from",
          "type": "address"
        },
        {
          "indexed": true,
          "internalType": "address",
          "name": "to",
          "type": "address"
        },
        {
          "indexed": true,
          "internalType": "uint256",
          "name": "tokenId",
          "type": "uint256"
        }
      ],
      "name": "Transfer",
      "type": "event"
    },
    {
      "stateMutability": "payable",
      "type": "fallback"
    },
    {
      "inputs": [],
      "name": "DEEP_FAMILY_TOKEN_CONTRACT",
      "outputs": [
        {
          "internalType": "address",
          "name": "",
          "type": "address"
        }
      ],
      "stateMutability": "view",
      "type": "function"
    },
    {
      "inputs": [],
      "name": "MAX_CHUNK_CONTENT_LENGTH",
      "outputs": [
        {
          "internalType": "uint256",
          "name": "",
          "type": "uint256"
        }
      ],
      "stateMutability": "view",
      "type": "function"
    },
    {
      "inputs": [],
      "name": "MAX_LONG_TEXT_LENGTH",
      "outputs": [
        {
          "internalType": "uint256",
          "name": "",
          "type": "uint256"
        }
      ],
      "stateMutability": "view",
      "type": "function"
    },
    {
      "inputs": [],
      "name": "MAX_QUERY_PAGE_SIZE",
      "outputs": [
        {
          "internalType": "uint256",
          "name": "",
          "type": "uint256"
        }
      ],
      "stateMutability": "view",
      "type": "function"
    },
    {
      "inputs": [],
      "name": "MAX_STORY_CHUNKS",
      "outputs": [
        {
          "internalType": "uint256",
          "name": "",
          "type": "uint256"
        }
      ],
      "stateMutability": "view",
      "type": "function"
    },
    {
      "inputs": [],
      "name": "PERSON_HASH_VERIFIER",
      "outputs": [
        {
          "internalType": "address",
          "name": "",
          "type": "address"
        }
      ],
      "stateMutability": "view",
      "type": "function"
    },
    {
      "inputs": [
        {
          "internalType": "uint256",
          "name": "",
          "type": "uint256"
        },
        {
          "internalType": "uint256",
          "name": "",
          "type": "uint256"
        }
      ],
      "name": "activeChunkIndices",
      "outputs": [
        {
          "internalType": "uint256",
          "name": "",
          "type": "uint256"
        }
      ],
      "stateMutability": "view",
      "type": "function"
    },
    {
      "inputs": [
        {
          "internalType": "bytes32",
          "name": "personHash",
          "type": "bytes32"
        },
        {
          "internalType": "bytes32",
          "name": "fatherHash",
          "type": "bytes32"
        },
        {
          "internalType": "bytes32",
          "name": "motherHash",
          "type": "bytes32"
        },
        {
          "internalType": "uint256",
          "name": "fatherVersionIndex",
          "type": "uint256"
        },
        {
          "internalType": "uint256",
          "name": "motherVersionIndex",
          "type": "uint256"
        },
        {
          "internalType": "string",
          "name": "tag",
          "type": "string"
        },
        {
          "internalType": "string",
          "name": "metadataCID",
          "type": "string"
        }
      ],
      "name": "addPerson",
      "outputs": [],
      "stateMutability": "nonpayable",
      "type": "function"
    },
    {
      "inputs": [
        {
          "internalType": "uint256[2]",
          "name": "a",
          "type": "uint256[2]"
        },
        {
          "internalType": "uint256[2][2]",
          "name": "b",
          "type": "uint256[2][2]"
        },
        {
          "internalType": "uint256[2]",
          "name": "c",
          "type": "uint256[2]"
        },
        {
          "internalType": "uint256[7]",
          "name": "publicSignals",
          "type": "uint256[7]"
        },
        {
          "internalType": "uint256",
          "name": "fatherVersionIndex",
          "type": "uint256"
        },
        {
          "internalType": "uint256",
          "name": "motherVersionIndex",
          "type": "uint256"
        },
        {
          "internalType": "string",
          "name": "tag",
          "type": "string"
        },
        {
          "internalType": "string",
          "name": "metadataCID",
          "type": "string"
        }
      ],
      "name": "addPersonZK",
      "outputs": [],
      "stateMutability": "nonpayable",
      "type": "function"
    },
    {
      "inputs": [
        {
          "internalType": "uint256",
          "name": "tokenId",
          "type": "uint256"
        },
        {
          "internalType": "uint256",
          "name": "chunkIndex",
          "type": "uint256"
        },
        {
          "internalType": "string",
          "name": "content",
          "type": "string"
        },
        {
          "internalType": "bytes32",
          "name": "expectedHash",
          "type": "bytes32"
        }
      ],
      "name": "addStoryChunk",
      "outputs": [],
      "stateMutability": "nonpayable",
      "type": "function"
    },
    {
      "inputs": [
        {
          "internalType": "address",
          "name": "to",
          "type": "address"
        },
        {
          "internalType": "uint256",
          "name": "tokenId",
          "type": "uint256"
        }
      ],
      "name": "approve",
      "outputs": [],
      "stateMutability": "nonpayable",
      "type": "function"
    },
    {
      "inputs": [
        {
          "internalType": "address",
          "name": "owner",
          "type": "address"
        }
      ],
      "name": "balanceOf",
      "outputs": [
        {
          "internalType": "uint256",
          "name": "",
          "type": "uint256"
        }
      ],
      "stateMutability": "view",
      "type": "function"
    },
    {
      "inputs": [
        {
          "internalType": "bytes32",
          "name": "",
          "type": "bytes32"
        },
        {
          "internalType": "uint256",
          "name": "",
          "type": "uint256"
        },
        {
          "internalType": "uint256",
          "name": "",
          "type": "uint256"
        }
      ],
      "name": "childrenOf",
      "outputs": [
        {
          "internalType": "bytes32",
          "name": "childHash",
          "type": "bytes32"
        },
        {
          "internalType": "uint256",
          "name": "childVersionIndex",
          "type": "uint256"
        }
      ],
      "stateMutability": "view",
      "type": "function"
    },
    {
      "inputs": [
        {
          "internalType": "bytes32",
          "name": "personHash",
          "type": "bytes32"
        }
      ],
      "name": "countPersonVersions",
      "outputs": [
        {
          "internalType": "uint256",
          "name": "versionCount",
          "type": "uint256"
        }
      ],
      "stateMutability": "view",
      "type": "function"
    },
    {
      "inputs": [
        {
          "internalType": "bytes32",
          "name": "personHash",
          "type": "bytes32"
        },
        {
          "internalType": "uint256",
          "name": "versionIndex",
          "type": "uint256"
        }
      ],
      "name": "endorseVersion",
      "outputs": [],
      "stateMutability": "nonpayable",
      "type": "function"
    },
    {
      "inputs": [
        {
          "internalType": "bytes32",
          "name": "",
          "type": "bytes32"
        },
        {
          "internalType": "address",
          "name": "",
          "type": "address"
        }
      ],
      "name": "endorsedVersionIndex",
      "outputs": [
        {
          "internalType": "uint256",
          "name": "",
          "type": "uint256"
        }
      ],
      "stateMutability": "view",
      "type": "function"
    },
    {
      "inputs": [
        {
          "internalType": "uint256",
          "name": "tokenId",
          "type": "uint256"
        }
      ],
      "name": "getApproved",
      "outputs": [
        {
          "internalType": "address",
          "name": "",
          "type": "address"
        }
      ],
      "stateMutability": "view",
      "type": "function"
    },
    {
      "inputs": [
        {
          "internalType": "string",
          "name": "fullName",
          "type": "string"
        }
      ],
      "name": "getFullNameHash",
      "outputs": [
        {
          "internalType": "bytes32",
          "name": "",
          "type": "bytes32"
        }
      ],
      "stateMutability": "pure",
      "type": "function"
    },
    {
      "inputs": [
        {
          "internalType": "uint256",
          "name": "tokenId",
          "type": "uint256"
        }
      ],
      "name": "getNFTDetails",
      "outputs": [
        {
          "internalType": "bytes32",
          "name": "personHash",
          "type": "bytes32"
        },
        {
          "internalType": "uint256",
          "name": "versionIndex",
          "type": "uint256"
        },
        {
          "components": [
            {
              "internalType": "bytes32",
              "name": "personHash",
              "type": "bytes32"
            },
            {
              "internalType": "bytes32",
              "name": "fatherHash",
              "type": "bytes32"
            },
            {
              "internalType": "bytes32",
              "name": "motherHash",
              "type": "bytes32"
            },
            {
              "internalType": "uint256",
              "name": "versionIndex",
              "type": "uint256"
            },
            {
              "internalType": "uint256",
              "name": "fatherVersionIndex",
              "type": "uint256"
            },
            {
              "internalType": "uint256",
              "name": "motherVersionIndex",
              "type": "uint256"
            },
            {
              "internalType": "address",
              "name": "addedBy",
              "type": "address"
            },
            {
              "internalType": "uint96",
              "name": "timestamp",
              "type": "uint96"
            },
            {
              "internalType": "string",
              "name": "tag",
              "type": "string"
            },
            {
              "internalType": "string",
              "name": "metadataCID",
              "type": "string"
            }
          ],
          "internalType": "struct DeepFamily.PersonVersion",
          "name": "version",
          "type": "tuple"
        },
        {
          "components": [
            {
              "components": [
                {
                  "internalType": "bytes32",
                  "name": "fullNameHash",
                  "type": "bytes32"
                },
                {
                  "internalType": "bool",
                  "name": "isBirthBC",
                  "type": "bool"
                },
                {
                  "internalType": "uint16",
                  "name": "birthYear",
                  "type": "uint16"
                },
                {
                  "internalType": "uint8",
                  "name": "birthMonth",
                  "type": "uint8"
                },
                {
                  "internalType": "uint8",
                  "name": "birthDay",
                  "type": "uint8"
                },
                {
                  "internalType": "uint8",
                  "name": "gender",
                  "type": "uint8"
                }
              ],
              "internalType": "struct DeepFamily.PersonBasicInfo",
              "name": "basicInfo",
              "type": "tuple"
            },
            {
              "components": [
                {
                  "internalType": "string",
                  "name": "fullName",
                  "type": "string"
                },
                {
                  "internalType": "string",
                  "name": "birthPlace",
                  "type": "string"
                },
                {
                  "internalType": "bool",
                  "name": "isDeathBC",
                  "type": "bool"
                },
                {
                  "internalType": "uint16",
                  "name": "deathYear",
                  "type": "uint16"
                },
                {
                  "internalType": "uint8",
                  "name": "deathMonth",
                  "type": "uint8"
                },
                {
                  "internalType": "uint8",
                  "name": "deathDay",
                  "type": "uint8"
                },
                {
                  "internalType": "string",
                  "name": "deathPlace",
                  "type": "string"
                },
                {
                  "internalType": "string",
                  "name": "story",
                  "type": "string"
                }
              ],
              "internalType": "struct DeepFamily.PersonSupplementInfo",
              "name": "supplementInfo",
              "type": "tuple"
            }
          ],
          "internalType": "struct DeepFamily.PersonCoreInfo",
          "name": "coreInfo",
          "type": "tuple"
        },
        {
          "internalType": "uint256",
          "name": "endorsementCount",
          "type": "uint256"
        },
        {
          "internalType": "string",
          "name": "nftTokenURI",
          "type": "string"
        }
      ],
      "stateMutability": "view",
      "type": "function"
    },
    {
      "inputs": [
        {
          "components": [
            {
              "internalType": "bytes32",
              "name": "fullNameHash",
              "type": "bytes32"
            },
            {
              "internalType": "bool",
              "name": "isBirthBC",
              "type": "bool"
            },
            {
              "internalType": "uint16",
              "name": "birthYear",
              "type": "uint16"
            },
            {
              "internalType": "uint8",
              "name": "birthMonth",
              "type": "uint8"
            },
            {
              "internalType": "uint8",
              "name": "birthDay",
              "type": "uint8"
            },
            {
              "internalType": "uint8",
              "name": "gender",
              "type": "uint8"
            }
          ],
          "internalType": "struct DeepFamily.PersonBasicInfo",
          "name": "basicInfo",
          "type": "tuple"
        }
      ],
      "name": "getPersonHash",
      "outputs": [
        {
          "internalType": "bytes32",
          "name": "",
          "type": "bytes32"
        }
      ],
      "stateMutability": "pure",
      "type": "function"
    },
    {
      "inputs": [
        {
          "internalType": "uint256",
          "name": "tokenId",
          "type": "uint256"
        },
        {
          "internalType": "uint256",
          "name": "chunkIndex",
          "type": "uint256"
        }
      ],
      "name": "getStoryChunk",
      "outputs": [
        {
          "components": [
            {
              "internalType": "uint256",
              "name": "chunkIndex",
              "type": "uint256"
            },
            {
              "internalType": "bytes32",
              "name": "chunkHash",
              "type": "bytes32"
            },
            {
              "internalType": "string",
              "name": "content",
              "type": "string"
            },
            {
              "internalType": "uint256",
              "name": "timestamp",
              "type": "uint256"
            },
            {
              "internalType": "address",
              "name": "lastEditor",
              "type": "address"
            }
          ],
          "internalType": "struct DeepFamily.StoryChunk",
          "name": "chunk",
          "type": "tuple"
        }
      ],
      "stateMutability": "view",
      "type": "function"
    },
    {
      "inputs": [
        {
          "internalType": "uint256",
          "name": "tokenId",
          "type": "uint256"
        }
      ],
      "name": "getStoryMetadata",
      "outputs": [
        {
          "components": [
            {
              "internalType": "uint256",
              "name": "totalChunks",
              "type": "uint256"
            },
            {
              "internalType": "bytes32",
              "name": "fullStoryHash",
              "type": "bytes32"
            },
            {
              "internalType": "uint256",
              "name": "lastUpdateTime",
              "type": "uint256"
            },
            {
              "internalType": "bool",
              "name": "isSealed",
              "type": "bool"
            },
            {
              "internalType": "uint256",
              "name": "totalLength",
              "type": "uint256"
            }
          ],
          "internalType": "struct DeepFamily.StoryMetadata",
          "name": "metadata",
          "type": "tuple"
        }
      ],
      "stateMutability": "view",
      "type": "function"
    },
    {
      "inputs": [
        {
          "internalType": "bytes32",
          "name": "personHash",
          "type": "bytes32"
        },
        {
          "internalType": "uint256",
          "name": "versionIndex",
          "type": "uint256"
        }
      ],
      "name": "getVersionDetails",
      "outputs": [
        {
          "components": [
            {
              "internalType": "bytes32",
              "name": "personHash",
              "type": "bytes32"
            },
            {
              "internalType": "bytes32",
              "name": "fatherHash",
              "type": "bytes32"
            },
            {
              "internalType": "bytes32",
              "name": "motherHash",
              "type": "bytes32"
            },
            {
              "internalType": "uint256",
              "name": "versionIndex",
              "type": "uint256"
            },
            {
              "internalType": "uint256",
              "name": "fatherVersionIndex",
              "type": "uint256"
            },
            {
              "internalType": "uint256",
              "name": "motherVersionIndex",
              "type": "uint256"
            },
            {
              "internalType": "address",
              "name": "addedBy",
              "type": "address"
            },
            {
              "internalType": "uint96",
              "name": "timestamp",
              "type": "uint96"
            },
            {
              "internalType": "string",
              "name": "tag",
              "type": "string"
            },
            {
              "internalType": "string",
              "name": "metadataCID",
              "type": "string"
            }
          ],
          "internalType": "struct DeepFamily.PersonVersion",
          "name": "version",
          "type": "tuple"
        },
        {
          "internalType": "uint256",
          "name": "endorsementCount",
          "type": "uint256"
        },
        {
          "internalType": "uint256",
          "name": "tokenId",
          "type": "uint256"
        }
      ],
      "stateMutability": "view",
      "type": "function"
    },
    {
      "inputs": [
        {
          "internalType": "address",
          "name": "owner",
          "type": "address"
        },
        {
          "internalType": "address",
          "name": "operator",
          "type": "address"
        }
      ],
      "name": "isApprovedForAll",
      "outputs": [
        {
          "internalType": "bool",
          "name": "",
          "type": "bool"
        }
      ],
      "stateMutability": "view",
      "type": "function"
    },
    {
      "inputs": [
        {
          "internalType": "bytes32",
          "name": "parentHash",
          "type": "bytes32"
        },
        {
          "internalType": "uint256",
          "name": "parentVersionIndex",
          "type": "uint256"
        },
        {
          "internalType": "uint256",
          "name": "offset",
          "type": "uint256"
        },
        {
          "internalType": "uint256",
          "name": "limit",
          "type": "uint256"
        }
      ],
      "name": "listChildren",
      "outputs": [
        {
          "internalType": "bytes32[]",
          "name": "childHashes",
          "type": "bytes32[]"
        },
        {
          "internalType": "uint256[]",
          "name": "childVersionIndices",
          "type": "uint256[]"
        },
        {
          "internalType": "uint256",
          "name": "totalCount",
          "type": "uint256"
        },
        {
          "internalType": "bool",
          "name": "hasMore",
          "type": "bool"
        },
        {
          "internalType": "uint256",
          "name": "nextOffset",
          "type": "uint256"
        }
      ],
      "stateMutability": "view",
      "type": "function"
    },
    {
      "inputs": [
        {
          "internalType": "bytes32",
          "name": "personHash",
          "type": "bytes32"
        },
        {
          "internalType": "uint256",
          "name": "offset",
          "type": "uint256"
        },
        {
          "internalType": "uint256",
          "name": "limit",
          "type": "uint256"
        }
      ],
      "name": "listPersonVersions",
      "outputs": [
        {
          "components": [
            {
              "internalType": "bytes32",
              "name": "personHash",
              "type": "bytes32"
            },
            {
              "internalType": "bytes32",
              "name": "fatherHash",
              "type": "bytes32"
            },
            {
              "internalType": "bytes32",
              "name": "motherHash",
              "type": "bytes32"
            },
            {
              "internalType": "uint256",
              "name": "versionIndex",
              "type": "uint256"
            },
            {
              "internalType": "uint256",
              "name": "fatherVersionIndex",
              "type": "uint256"
            },
            {
              "internalType": "uint256",
              "name": "motherVersionIndex",
              "type": "uint256"
            },
            {
              "internalType": "address",
              "name": "addedBy",
              "type": "address"
            },
            {
              "internalType": "uint96",
              "name": "timestamp",
              "type": "uint96"
            },
            {
              "internalType": "string",
              "name": "tag",
              "type": "string"
            },
            {
              "internalType": "string",
              "name": "metadataCID",
              "type": "string"
            }
          ],
          "internalType": "struct DeepFamily.PersonVersion[]",
          "name": "versions",
          "type": "tuple[]"
        },
        {
          "internalType": "uint256",
          "name": "totalVersions",
          "type": "uint256"
        },
        {
          "internalType": "bool",
          "name": "hasMore",
          "type": "bool"
        },
        {
          "internalType": "uint256",
          "name": "nextOffset",
          "type": "uint256"
        }
      ],
      "stateMutability": "view",
      "type": "function"
    },
    {
      "inputs": [
        {
          "internalType": "uint256",
          "name": "tokenId",
          "type": "uint256"
        },
        {
          "internalType": "uint256",
          "name": "offset",
          "type": "uint256"
        },
        {
          "internalType": "uint256",
          "name": "limit",
          "type": "uint256"
        }
      ],
      "name": "listStoryChunks",
      "outputs": [
        {
          "components": [
            {
              "internalType": "uint256",
              "name": "chunkIndex",
              "type": "uint256"
            },
            {
              "internalType": "bytes32",
              "name": "chunkHash",
              "type": "bytes32"
            },
            {
              "internalType": "string",
              "name": "content",
              "type": "string"
            },
            {
              "internalType": "uint256",
              "name": "timestamp",
              "type": "uint256"
            },
            {
              "internalType": "address",
              "name": "lastEditor",
              "type": "address"
            }
          ],
          "internalType": "struct DeepFamily.StoryChunk[]",
          "name": "chunks",
          "type": "tuple[]"
        },
        {
          "internalType": "uint256",
          "name": "totalChunks",
          "type": "uint256"
        },
        {
          "internalType": "bool",
          "name": "hasMore",
          "type": "bool"
        },
        {
          "internalType": "uint256",
          "name": "nextOffset",
          "type": "uint256"
        }
      ],
      "stateMutability": "view",
      "type": "function"
    },
    {
      "inputs": [
        {
          "internalType": "uint256",
          "name": "tokenId",
          "type": "uint256"
        },
        {
          "internalType": "uint256",
          "name": "offset",
          "type": "uint256"
        },
        {
          "internalType": "uint256",
          "name": "limit",
          "type": "uint256"
        }
      ],
      "name": "listTokenURIHistory",
      "outputs": [
        {
          "internalType": "string[]",
          "name": "uris",
          "type": "string[]"
        },
        {
          "internalType": "uint256",
          "name": "totalCount",
          "type": "uint256"
        },
        {
          "internalType": "bool",
          "name": "hasMore",
          "type": "bool"
        },
        {
          "internalType": "uint256",
          "name": "nextOffset",
          "type": "uint256"
        }
      ],
      "stateMutability": "view",
      "type": "function"
    },
    {
      "inputs": [
        {
          "internalType": "bytes32",
          "name": "personHash",
          "type": "bytes32"
        },
        {
          "internalType": "uint256",
          "name": "offset",
          "type": "uint256"
        },
        {
          "internalType": "uint256",
          "name": "limit",
          "type": "uint256"
        }
      ],
      "name": "listVersionsEndorsementStats",
      "outputs": [
        {
          "internalType": "uint256[]",
          "name": "versionIndices",
          "type": "uint256[]"
        },
        {
          "internalType": "uint256[]",
          "name": "endorsementCounts",
          "type": "uint256[]"
        },
        {
          "internalType": "uint256[]",
          "name": "tokenIds",
          "type": "uint256[]"
        },
        {
          "internalType": "uint256",
          "name": "totalVersions",
          "type": "uint256"
        },
        {
          "internalType": "bool",
          "name": "hasMore",
          "type": "bool"
        },
        {
          "internalType": "uint256",
          "name": "nextOffset",
          "type": "uint256"
        }
      ],
      "stateMutability": "view",
      "type": "function"
    },
    {
      "inputs": [
        {
          "internalType": "bytes32",
          "name": "personHash",
          "type": "bytes32"
        },
        {
          "internalType": "uint256",
          "name": "versionIndex",
          "type": "uint256"
        },
        {
          "internalType": "string",
          "name": "_tokenURI",
          "type": "string"
        },
        {
          "components": [
            {
              "components": [
                {
                  "internalType": "bytes32",
                  "name": "fullNameHash",
                  "type": "bytes32"
                },
                {
                  "internalType": "bool",
                  "name": "isBirthBC",
                  "type": "bool"
                },
                {
                  "internalType": "uint16",
                  "name": "birthYear",
                  "type": "uint16"
                },
                {
                  "internalType": "uint8",
                  "name": "birthMonth",
                  "type": "uint8"
                },
                {
                  "internalType": "uint8",
                  "name": "birthDay",
                  "type": "uint8"
                },
                {
                  "internalType": "uint8",
                  "name": "gender",
                  "type": "uint8"
                }
              ],
              "internalType": "struct DeepFamily.PersonBasicInfo",
              "name": "basicInfo",
              "type": "tuple"
            },
            {
              "components": [
                {
                  "internalType": "string",
                  "name": "fullName",
                  "type": "string"
                },
                {
                  "internalType": "string",
                  "name": "birthPlace",
                  "type": "string"
                },
                {
                  "internalType": "bool",
                  "name": "isDeathBC",
                  "type": "bool"
                },
                {
                  "internalType": "uint16",
                  "name": "deathYear",
                  "type": "uint16"
                },
                {
                  "internalType": "uint8",
                  "name": "deathMonth",
                  "type": "uint8"
                },
                {
                  "internalType": "uint8",
                  "name": "deathDay",
                  "type": "uint8"
                },
                {
                  "internalType": "string",
                  "name": "deathPlace",
                  "type": "string"
                },
                {
                  "internalType": "string",
                  "name": "story",
                  "type": "string"
                }
              ],
              "internalType": "struct DeepFamily.PersonSupplementInfo",
              "name": "supplementInfo",
              "type": "tuple"
            }
          ],
          "internalType": "struct DeepFamily.PersonCoreInfo",
          "name": "coreInfo",
          "type": "tuple"
        }
      ],
      "name": "mintPersonNFT",
      "outputs": [],
      "stateMutability": "nonpayable",
      "type": "function"
    },
    {
      "inputs": [],
      "name": "name",
      "outputs": [
        {
          "internalType": "string",
          "name": "",
          "type": "string"
        }
      ],
      "stateMutability": "view",
      "type": "function"
    },
    {
      "inputs": [
        {
          "internalType": "uint256",
          "name": "",
          "type": "uint256"
        }
      ],
      "name": "nftCoreInfo",
      "outputs": [
        {
          "components": [
            {
              "internalType": "bytes32",
              "name": "fullNameHash",
              "type": "bytes32"
            },
            {
              "internalType": "bool",
              "name": "isBirthBC",
              "type": "bool"
            },
            {
              "internalType": "uint16",
              "name": "birthYear",
              "type": "uint16"
            },
            {
              "internalType": "uint8",
              "name": "birthMonth",
              "type": "uint8"
            },
            {
              "internalType": "uint8",
              "name": "birthDay",
              "type": "uint8"
            },
            {
              "internalType": "uint8",
              "name": "gender",
              "type": "uint8"
            }
          ],
          "internalType": "struct DeepFamily.PersonBasicInfo",
          "name": "basicInfo",
          "type": "tuple"
        },
        {
          "components": [
            {
              "internalType": "string",
              "name": "fullName",
              "type": "string"
            },
            {
              "internalType": "string",
              "name": "birthPlace",
              "type": "string"
            },
            {
              "internalType": "bool",
              "name": "isDeathBC",
              "type": "bool"
            },
            {
              "internalType": "uint16",
              "name": "deathYear",
              "type": "uint16"
            },
            {
              "internalType": "uint8",
              "name": "deathMonth",
              "type": "uint8"
            },
            {
              "internalType": "uint8",
              "name": "deathDay",
              "type": "uint8"
            },
            {
              "internalType": "string",
              "name": "deathPlace",
              "type": "string"
            },
            {
              "internalType": "string",
              "name": "story",
              "type": "string"
            }
          ],
          "internalType": "struct DeepFamily.PersonSupplementInfo",
          "name": "supplementInfo",
          "type": "tuple"
        }
      ],
      "stateMutability": "view",
      "type": "function"
    },
    {
      "inputs": [],
      "name": "owner",
      "outputs": [
        {
          "internalType": "address",
          "name": "",
          "type": "address"
        }
      ],
      "stateMutability": "view",
      "type": "function"
    },
    {
      "inputs": [
        {
          "internalType": "uint256",
          "name": "tokenId",
          "type": "uint256"
        }
      ],
      "name": "ownerOf",
      "outputs": [
        {
          "internalType": "address",
          "name": "",
          "type": "address"
        }
      ],
      "stateMutability": "view",
      "type": "function"
    },
    {
      "inputs": [
        {
          "internalType": "bytes32",
          "name": "",
          "type": "bytes32"
        },
        {
          "internalType": "uint256",
          "name": "",
          "type": "uint256"
        }
      ],
      "name": "personVersions",
      "outputs": [
        {
          "internalType": "bytes32",
          "name": "personHash",
          "type": "bytes32"
        },
        {
          "internalType": "bytes32",
          "name": "fatherHash",
          "type": "bytes32"
        },
        {
          "internalType": "bytes32",
          "name": "motherHash",
          "type": "bytes32"
        },
        {
          "internalType": "uint256",
          "name": "versionIndex",
          "type": "uint256"
        },
        {
          "internalType": "uint256",
          "name": "fatherVersionIndex",
          "type": "uint256"
        },
        {
          "internalType": "uint256",
          "name": "motherVersionIndex",
          "type": "uint256"
        },
        {
          "internalType": "address",
          "name": "addedBy",
          "type": "address"
        },
        {
          "internalType": "uint96",
          "name": "timestamp",
          "type": "uint96"
        },
        {
          "internalType": "string",
          "name": "tag",
          "type": "string"
        },
        {
          "internalType": "string",
          "name": "metadataCID",
          "type": "string"
        }
      ],
      "stateMutability": "view",
      "type": "function"
    },
    {
      "inputs": [],
      "name": "renounceOwnership",
      "outputs": [],
      "stateMutability": "nonpayable",
      "type": "function"
    },
    {
      "inputs": [
        {
          "internalType": "address",
          "name": "from",
          "type": "address"
        },
        {
          "internalType": "address",
          "name": "to",
          "type": "address"
        },
        {
          "internalType": "uint256",
          "name": "tokenId",
          "type": "uint256"
        }
      ],
      "name": "safeTransferFrom",
      "outputs": [],
      "stateMutability": "nonpayable",
      "type": "function"
    },
    {
      "inputs": [
        {
          "internalType": "address",
          "name": "from",
          "type": "address"
        },
        {
          "internalType": "address",
          "name": "to",
          "type": "address"
        },
        {
          "internalType": "uint256",
          "name": "tokenId",
          "type": "uint256"
        },
        {
          "internalType": "bytes",
          "name": "data",
          "type": "bytes"
        }
      ],
      "name": "safeTransferFrom",
      "outputs": [],
      "stateMutability": "nonpayable",
      "type": "function"
    },
    {
      "inputs": [
        {
          "internalType": "uint256",
          "name": "tokenId",
          "type": "uint256"
        }
      ],
      "name": "sealStory",
      "outputs": [],
      "stateMutability": "nonpayable",
      "type": "function"
    },
    {
      "inputs": [
        {
          "internalType": "address",
          "name": "operator",
          "type": "address"
        },
        {
          "internalType": "bool",
          "name": "approved",
          "type": "bool"
        }
      ],
      "name": "setApprovalForAll",
      "outputs": [],
      "stateMutability": "nonpayable",
      "type": "function"
    },
    {
      "inputs": [
        {
          "internalType": "uint256",
          "name": "",
          "type": "uint256"
        },
        {
          "internalType": "uint256",
          "name": "",
          "type": "uint256"
        }
      ],
      "name": "storyChunks",
      "outputs": [
        {
          "internalType": "uint256",
          "name": "chunkIndex",
          "type": "uint256"
        },
        {
          "internalType": "bytes32",
          "name": "chunkHash",
          "type": "bytes32"
        },
        {
          "internalType": "string",
          "name": "content",
          "type": "string"
        },
        {
          "internalType": "uint256",
          "name": "timestamp",
          "type": "uint256"
        },
        {
          "internalType": "address",
          "name": "lastEditor",
          "type": "address"
        }
      ],
      "stateMutability": "view",
      "type": "function"
    },
    {
      "inputs": [
        {
          "internalType": "uint256",
          "name": "",
          "type": "uint256"
        }
      ],
      "name": "storyMetadata",
      "outputs": [
        {
          "internalType": "uint256",
          "name": "totalChunks",
          "type": "uint256"
        },
        {
          "internalType": "bytes32",
          "name": "fullStoryHash",
          "type": "bytes32"
        },
        {
          "internalType": "uint256",
          "name": "lastUpdateTime",
          "type": "uint256"
        },
        {
          "internalType": "bool",
          "name": "isSealed",
          "type": "bool"
        },
        {
          "internalType": "uint256",
          "name": "totalLength",
          "type": "uint256"
        }
      ],
      "stateMutability": "view",
      "type": "function"
    },
    {
      "inputs": [
        {
          "internalType": "bytes4",
          "name": "interfaceId",
          "type": "bytes4"
        }
      ],
      "name": "supportsInterface",
      "outputs": [
        {
          "internalType": "bool",
          "name": "",
          "type": "bool"
        }
      ],
      "stateMutability": "view",
      "type": "function"
    },
    {
      "inputs": [],
      "name": "symbol",
      "outputs": [
        {
          "internalType": "string",
          "name": "",
          "type": "string"
        }
      ],
      "stateMutability": "view",
      "type": "function"
    },
    {
      "inputs": [
        {
          "internalType": "uint256",
          "name": "index",
          "type": "uint256"
        }
      ],
      "name": "tokenByIndex",
      "outputs": [
        {
          "internalType": "uint256",
          "name": "",
          "type": "uint256"
        }
      ],
      "stateMutability": "view",
      "type": "function"
    },
    {
      "inputs": [],
      "name": "tokenCounter",
      "outputs": [
        {
          "internalType": "uint256",
          "name": "",
          "type": "uint256"
        }
      ],
      "stateMutability": "view",
      "type": "function"
    },
    {
      "inputs": [
        {
          "internalType": "uint256",
          "name": "",
          "type": "uint256"
        }
      ],
      "name": "tokenIdToPerson",
      "outputs": [
        {
          "internalType": "bytes32",
          "name": "",
          "type": "bytes32"
        }
      ],
      "stateMutability": "view",
      "type": "function"
    },
    {
      "inputs": [
        {
          "internalType": "uint256",
          "name": "",
          "type": "uint256"
        }
      ],
      "name": "tokenIdToVersionIndex",
      "outputs": [
        {
          "internalType": "uint256",
          "name": "",
          "type": "uint256"
        }
      ],
      "stateMutability": "view",
      "type": "function"
    },
    {
      "inputs": [
        {
          "internalType": "address",
          "name": "owner",
          "type": "address"
        },
        {
          "internalType": "uint256",
          "name": "index",
          "type": "uint256"
        }
      ],
      "name": "tokenOfOwnerByIndex",
      "outputs": [
        {
          "internalType": "uint256",
          "name": "",
          "type": "uint256"
        }
      ],
      "stateMutability": "view",
      "type": "function"
    },
    {
      "inputs": [
        {
          "internalType": "uint256",
          "name": "tokenId",
          "type": "uint256"
        }
      ],
      "name": "tokenURI",
      "outputs": [
        {
          "internalType": "string",
          "name": "",
          "type": "string"
        }
      ],
      "stateMutability": "view",
      "type": "function"
    },
    {
      "inputs": [
        {
          "internalType": "uint256",
          "name": "",
          "type": "uint256"
        },
        {
          "internalType": "uint256",
          "name": "",
          "type": "uint256"
        }
      ],
      "name": "tokenURIHistory",
      "outputs": [
        {
          "internalType": "string",
          "name": "",
          "type": "string"
        }
      ],
      "stateMutability": "view",
      "type": "function"
    },
    {
      "inputs": [],
      "name": "totalPersonsCount",
      "outputs": [
        {
          "internalType": "uint256",
          "name": "",
          "type": "uint256"
        }
      ],
      "stateMutability": "view",
      "type": "function"
    },
    {
      "inputs": [],
      "name": "totalSupply",
      "outputs": [
        {
          "internalType": "uint256",
          "name": "",
          "type": "uint256"
        }
      ],
      "stateMutability": "view",
      "type": "function"
    },
    {
      "inputs": [
        {
          "internalType": "address",
          "name": "from",
          "type": "address"
        },
        {
          "internalType": "address",
          "name": "to",
          "type": "address"
        },
        {
          "internalType": "uint256",
          "name": "tokenId",
          "type": "uint256"
        }
      ],
      "name": "transferFrom",
      "outputs": [],
      "stateMutability": "nonpayable",
      "type": "function"
    },
    {
      "inputs": [
        {
          "internalType": "address",
          "name": "newOwner",
          "type": "address"
        }
      ],
      "name": "transferOwnership",
      "outputs": [],
      "stateMutability": "nonpayable",
      "type": "function"
    },
    {
      "inputs": [
        {
          "internalType": "uint256",
          "name": "tokenId",
          "type": "uint256"
        },
        {
          "internalType": "uint256",
          "name": "chunkIndex",
          "type": "uint256"
        },
        {
          "internalType": "string",
          "name": "newContent",
          "type": "string"
        },
        {
          "internalType": "bytes32",
          "name": "expectedHash",
          "type": "bytes32"
        }
      ],
      "name": "updateStoryChunk",
      "outputs": [],
      "stateMutability": "nonpayable",
      "type": "function"
    },
    {
      "inputs": [
        {
          "internalType": "uint256",
          "name": "tokenId",
          "type": "uint256"
        },
        {
          "internalType": "string",
          "name": "newURI",
          "type": "string"
        }
      ],
      "name": "updateTokenURI",
      "outputs": [],
      "stateMutability": "nonpayable",
      "type": "function"
    },
    {
      "inputs": [
        {
          "internalType": "bytes32",
          "name": "",
          "type": "bytes32"
        },
        {
          "internalType": "uint256",
          "name": "",
          "type": "uint256"
        }
      ],
      "name": "versionEndorsementCount",
      "outputs": [
        {
          "internalType": "uint256",
          "name": "",
          "type": "uint256"
        }
      ],
      "stateMutability": "view",
      "type": "function"
    },
    {
      "inputs": [
        {
          "internalType": "bytes32",
          "name": "",
          "type": "bytes32"
        },
        {
          "internalType": "bytes32",
          "name": "",
          "type": "bytes32"
        }
      ],
      "name": "versionExists",
      "outputs": [
        {
          "internalType": "bool",
          "name": "",
          "type": "bool"
        }
      ],
      "stateMutability": "view",
      "type": "function"
    },
    {
      "inputs": [
        {
          "internalType": "bytes32",
          "name": "",
          "type": "bytes32"
        },
        {
          "internalType": "uint256",
          "name": "",
          "type": "uint256"
        }
      ],
      "name": "versionToTokenId",
      "outputs": [
        {
          "internalType": "uint256",
          "name": "",
          "type": "uint256"
        }
      ],
      "stateMutability": "view",
      "type": "function"
    },
    {
      "stateMutability": "payable",
      "type": "receive"
    }
  ],
  "bytecode": "0x60c06040523480156200001157600080fd5b5060405162006982380380620069828339810160408190526200003491620001b1565b336040518060400160405280600a8152602001694465657046616d696c7960b01b8152506040518060400160405280600681526020016546616d696c7960d01b81525081600090816200008891906200028e565b5060016200009782826200028e565b5050506001600160a01b038116620000c957604051631e4fbdf760e01b81526000600482015260240160405180910390fd5b620000d48162000142565b506001600b556001600160a01b0382166200010257604051634c32eccd60e11b815260040160405180910390fd5b6001600160a01b0381166200012a57604051635fce01bb60e01b815260040160405180910390fd5b6001600160a01b039182166080521660a0526200035a565b600a80546001600160a01b038381166001600160a01b0319831681179093556040519116919082907f8be0079c531659141344cd1fd0a4f28419497f9722a3daafe3b4186f6b6457e090600090a35050565b80516001600160a01b0381168114620001ac57600080fd5b919050565b60008060408385031215620001c557600080fd5b620001d08362000194565b9150620001e06020840162000194565b90509250929050565b634e487b7160e01b600052604160045260246000fd5b600181811c908216806200021457607f821691505b6020821081036200023557634e487b7160e01b600052602260045260246000fd5b50919050565b601f8211156200028957600081815260208120601f850160051c81016020861015620002645750805b601f850160051c820191505b81811015620002855782815560010162000270565b5050505b505050565b81516001600160401b03811115620002aa57620002aa620001e9565b620002c281620002bb8454620001ff565b846200023b565b602080601f831160018114620002fa5760008415620002e15750858301515b600019600386901b1c1916600185901b17855562000285565b600085815260208120601f198616915b828110156200032b578886015182559484019460019091019084016200030a565b50858210156200034a5787850151600019600388901b60f8161c191681555b5050505050600190811b01905550565b60805160a0516165e66200039c60003960008181610a8b0152612d22015260008181610b9001528181612ee90152818161303a01526145e401526165e66000f3fe60806040526004361061039a5760003560e01c8063797e57e5116101dc578063c2dbf81511610102578063dbcdc08f116100a0578063f2fde38b1161006f578063f2fde38b14610c88578063f74faf6614610ca8578063fe980dd614610ce0578063fe9c3c0514610d12576103b8565b8063dbcdc08f14610bea578063e12b5e8d14610c1b578063e985e9c514610c3b578063f1fad06714610c5b576103b8565b8063c893eb56116100dc578063c893eb5614610b48578063d082e38114610b68578063d1486a1b14610b7e578063d596b1b014610bb2576103b8565b8063c2dbf81514610af2578063c841eb1f14610b12578063c87b56dd14610b28576103b8565b8063a92c6ad61161017a578063b88d4fde11610149578063b88d4fde14610a59578063bcecdf1d14610a79578063bd7eef2314610aad578063c090fba214610ac3576103b8565b8063a92c6ad6146109d9578063b0ac331f146109f9578063b570b2ab14610a19578063b5c7198d14610a39576103b8565b80638da5cb5b116101b65780638da5cb5b146109565780638f2360b31461097457806395d89b41146109a4578063a22cb465146109b9576103b8565b8063797e57e51461088d57806382260f35146108ad57806383af7191146108df576103b8565b80633791b66a116102c15780636352211e1161025f578063715018a61161022e578063715018a6146107d15780637189567c146107e65780637559704d1461084a57806376f0f85d14610877576103b8565b80636352211e1461072e57806367b9b3e11461074e578063690a76bf1461078457806370a08231146107b1576103b8565b806346cdf8691161029b57806346cdf869146106905780634f6ccce7146106b0578063538ffa0b146106d057806357611dfb146106fd576103b8565b80633791b66a1461060557806342842e0e14610635578063431a342a14610655576103b8565b8063164e38ee11610339578063278d5fce11610308578063278d5fce1461056757806328273a2a146105955780632f745c59146105c55780632f8afa61146105e5576103b8565b8063164e38ee146104dd57806318160ddd1461051257806318e97fd11461052757806323b872dd14610547576103b8565b806307b8fe9c1161037557806307b8fe9c146103d1578063081812fc1461044b578063095ea7b3146104835780631516fa25146104a5576103b8565b8062eee6a1146103d157806301ffc9a7146103f957806306fdde0314610429576103b8565b366103b85760405163af9f22fb60e01b815260040160405180910390fd5b60405163af9f22fb60e01b815260040160405180910390fd5b3480156103dd57600080fd5b506103e6606481565b6040519081526020015b60405180910390f35b34801561040557600080fd5b506104196104143660046150cb565b610d32565b60405190151581526020016103f0565b34801561043557600080fd5b5061043e610d5d565b6040516103f0919061513f565b34801561045757600080fd5b5061046b610466366004615152565b610def565b6040516001600160a01b0390911681526020016103f0565b34801561048f57600080fd5b506104a361049e366004615187565b610e18565b005b3480156104b157600080fd5b506103e66104c03660046151b1565b601a60209081526000928352604080842090915290825290205481565b3480156104e957600080fd5b506104fd6104f83660046151d3565b610e27565b604080519283526020830191909152016103f0565b34801561051e57600080fd5b506008546103e6565b34801561053357600080fd5b506104a3610542366004615247565b610e71565b34801561055357600080fd5b506104a3610562366004615292565b61101e565b34801561057357600080fd5b50610587610582366004615152565b6110ae565b6040516103f09291906153d8565b3480156105a157600080fd5b506105b56105b03660046151d3565b6113b7565b6040516103f09493929190615449565b3480156105d157600080fd5b506103e66105e0366004615187565b611677565b3480156105f157600080fd5b506104a36106003660046154bc565b6116dc565b34801561061157600080fd5b506106256106203660046151d3565b6116f8565b6040516103f0949392919061555d565b34801561064157600080fd5b506104a3610650366004615292565b6118f1565b34801561066157600080fd5b506104196106703660046151b1565b600e60209081526000928352604080842090915290825290205460ff1681565b34801561069c57600080fd5b506104a36106ab3660046155b4565b611911565b3480156106bc57600080fd5b506103e66106cb366004615152565b611b23565b3480156106dc57600080fd5b506103e66106eb366004615152565b60126020526000908152604090205481565b34801561070957600080fd5b5061071d61071836600461560e565b611b7c565b6040516103f095949392919061567b565b34801561073a57600080fd5b5061046b610749366004615152565b611dd0565b34801561075a57600080fd5b5061076e6107693660046151b1565b611ddb565b6040516103f09a999897969594939291906156e7565b34801561079057600080fd5b506103e661079f366004615152565b60116020526000908152604090205481565b3480156107bd57600080fd5b506103e66107cc366004615763565b611f75565b3480156107dd57600080fd5b506104a3611fbd565b3480156107f257600080fd5b50610806610801366004615152565b611fd1565b6040516103f09190600060a0820190508251825260208301516020830152604083015160408301526060830151151560608301526080830151608083015292915050565b34801561085657600080fd5b506103e6610865366004615152565b6000908152600c602052604090205490565b34801561088357600080fd5b506103e661010081565b34801561089957600080fd5b506104a36108a8366004615152565b612080565b3480156108b957600080fd5b506108cd6108c8366004615152565b61216e565b6040516103f09695949392919061582d565b3480156108eb57600080fd5b5061092c6108fa366004615152565b6017602052600090815260409020805460018201546002830154600384015460049094015492939192909160ff169085565b6040805195865260208601949094529284019190915215156060830152608082015260a0016103f0565b34801561096257600080fd5b50600a546001600160a01b031661046b565b34801561098057600080fd5b5061099461098f3660046151d3565b612719565b6040516103f094939291906158a0565b3480156109b057600080fd5b5061043e612a62565b3480156109c557600080fd5b506104a36109d4366004615905565b612a71565b3480156109e557600080fd5b506103e66109f43660046151b1565b612a7c565b348015610a0557600080fd5b506104a3610a143660046155b4565b612aad565b348015610a2557600080fd5b506104a3610a3436600461594d565b612ce6565b348015610a4557600080fd5b506104a3610a543660046151b1565b612e57565b348015610a6557600080fd5b506104a3610a74366004615ab3565b6131c3565b348015610a8557600080fd5b5061046b7f000000000000000000000000000000000000000000000000000000000000000081565b348015610ab957600080fd5b506103e6600d5481565b348015610acf57600080fd5b50610ae3610ade3660046151b1565b6131db565b6040516103f093929190615b2e565b348015610afe57600080fd5b506103e6610b0d366004615b53565b613458565b348015610b1e57600080fd5b506103e66103e881565b348015610b3457600080fd5b5061043e610b43366004615152565b613499565b348015610b5457600080fd5b506103e6610b63366004615bba565b613543565b348015610b7457600080fd5b506103e660105481565b348015610b8a57600080fd5b5061046b7f000000000000000000000000000000000000000000000000000000000000000081565b348015610bbe57600080fd5b506103e6610bcd3660046151b1565b601660209081526000928352604080842090915290825290205481565b348015610bf657600080fd5b50610c0a610c053660046151b1565b6136cd565b6040516103f0959493929190615c5b565b348015610c2757600080fd5b506104a3610c36366004615c9c565b613799565b348015610c4757600080fd5b50610419610c56366004615d1f565b613b10565b348015610c6757600080fd5b50610c7b610c763660046151b1565b613b3e565b6040516103f09190615d52565b348015610c9457600080fd5b506104a3610ca3366004615763565b613ca2565b348015610cb457600080fd5b506103e6610cc3366004615d65565b600f60209081526000928352604080842090915290825290205481565b348015610cec57600080fd5b50610d00610cfb3660046151d3565b613ce0565b6040516103f096959493929190615d88565b348015610d1e57600080fd5b5061043e610d2d3660046151b1565b613f5d565b60006001600160e01b0319821663780e9d6360e01b1480610d575750610d5782614016565b92915050565b606060008054610d6c90615de0565b80601f0160208091040260200160405190810160405280929190818152602001828054610d9890615de0565b8015610de55780601f10610dba57610100808354040283529160200191610de5565b820191906000526020600020905b815481529060010190602001808311610dc857829003601f168201915b5050505050905090565b6000610dfa82614066565b506000828152600460205260409020546001600160a01b0316610d57565b610e2382823361409e565b5050565b601b6020528260005260406000206020528160005260406000208181548110610e4f57600080fd5b6000918252602090912060029091020180546001909101549093509150839050565b33610e7b846140ab565b6001600160a01b031614610ea25760405163daffd8a560e01b815260040160405180910390fd5b610100811115610ec5576040516313f04adb60e01b815260040160405180910390fd5b60008381526014602052604081208054610ede90615de0565b80601f0160208091040260200160405190810160405280929190818152602001828054610f0a90615de0565b8015610f575780601f10610f2c57610100808354040283529160200191610f57565b820191906000526020600020905b815481529060010190602001808311610f3a57829003601f168201915b50505050509050600081511115610f9257600084815260156020908152604082208054600181018255908352912001610f908282615e75565b505b610fd28484848080601f0160208091040260200160405190810160405280939291908181526020018383808284376000920191909152506140c692505050565b336001600160a01b0316847f121742bae49dddcfbb9763fd1170f0dbc15b13707126182671611bbeeeae7cd883868660405161101093929190615f57565b60405180910390a350505050565b6001600160a01b03821661104d57604051633250574960e11b8152600060048201526024015b60405180910390fd5b600061105a8383336140de565b9050836001600160a01b0316816001600160a01b0316146110a8576040516364283d7b60e01b81526001600160a01b0380861660048301526024820184905282166044820152606401611044565b50505050565b601360209081526000918252604091829020825160c08101845281548152600182015460ff80821615159483019490945261010080820461ffff168387015263010000008204851660608401526401000000008204851660808401526501000000000090910490931660a082015283519283019093526002810180549192918290829061113a90615de0565b80601f016020809104026020016040519081016040528092919081815260200182805461116690615de0565b80156111b35780601f10611188576101008083540402835291602001916111b3565b820191906000526020600020905b81548152906001019060200180831161119657829003601f168201915b505050505081526020016001820180546111cc90615de0565b80601f01602080910402602001604051908101604052809291908181526020018280546111f890615de0565b80156112455780601f1061121a57610100808354040283529160200191611245565b820191906000526020600020905b81548152906001019060200180831161122857829003601f168201915b5050509183525050600282015460ff8082161515602084015261ffff6101008304166040840152630100000082048116606084015264010000000090910416608082015260038201805460a09092019161129e90615de0565b80601f01602080910402602001604051908101604052809291908181526020018280546112ca90615de0565b80156113175780601f106112ec57610100808354040283529160200191611317565b820191906000526020600020905b8154815290600101906020018083116112fa57829003601f168201915b5050505050815260200160048201805461133090615de0565b80601f016020809104026020016040519081016040528092919081815260200182805461135c90615de0565b80156113a95780601f1061137e576101008083540402835291602001916113a9565b820191906000526020600020905b81548152906001019060200180831161138c57829003601f168201915b505050505081525050905082565b606060008080806113c7886140ab565b6001600160a01b0316036113ee576040516307ed98ed60e31b815260040160405180910390fd5b606485111561141057604051630327a73960e61b815260040160405180910390fd5b6000878152601760205260408120805494509086900361146c57604080516000808252602082019092529061145b565b611448614f6e565b8152602001906001900390816114405790505b5094506000925086915061166e9050565b8387106114b55760408051600080825260208201909252906114a4565b611491614f6e565b8152602001906001900390816114895790505b5094506000925083915061166e9050565b60006114c18789615f93565b9050848111156114ce5750835b60006114da8983615fa6565b9050806001600160401b038111156114f4576114f4615a28565b60405190808252806020026020018201604052801561152d57816020015b61151a614f6e565b8152602001906001900390816115125790505b50965060005b818110156116635760008b815260186020526040812090611554838d615f93565b81526020019081526020016000206040518060a0016040529081600082015481526020016001820154815260200160028201805461159190615de0565b80601f01602080910402602001604051908101604052809291908181526020018280546115bd90615de0565b801561160a5780601f106115df5761010080835404028352916020019161160a565b820191906000526020600020905b8154815290600101906020018083116115ed57829003601f168201915b5050509183525050600382015460208201526004909101546001600160a01b0316604090910152885189908390811061164557611645615fb9565b6020026020010181905250808061165b90615fcf565b915050611533565b505084811093509150505b93509350935093565b600061168283611f75565b82106116b35760405163295f44f760e21b81526001600160a01b038416600482015260248101839052604401611044565b506001600160a01b03919091166000908152600660209081526040808320938352929052205490565b6116ed8989898989898989896141b3565b505050505050505050565b600083815260156020526040812080546060929091819085820361175157604080516000808252602082019092529061145b565b606081526020019060019003908161172c5790505094506000925086915061166e9050565b8387106117935760408051600080825260208201909252906114a4565b606081526020019060019003908161176e5790505094506000925083915061166e9050565b600061179f8789615f93565b9050848111156117ac5750835b60006117b88983615fa6565b9050806001600160401b038111156117d2576117d2615a28565b60405190808252806020026020018201604052801561180557816020015b60608152602001906001900390816117f05790505b50965060005b81811015611663578361181e828c615f93565b8154811061182e5761182e615fb9565b90600052602060002001805461184390615de0565b80601f016020809104026020016040519081016040528092919081815260200182805461186f90615de0565b80156118bc5780601f10611891576101008083540402835291602001916118bc565b820191906000526020600020905b81548152906001019060200180831161189f57829003601f168201915b50505050508882815181106118d3576118d3615fb9565b602002602001018190525080806118e990615fcf565b91505061180b565b61190c838383604051806020016040528060008152506131c3565b505050565b6119196146b6565b33611923866140ab565b6001600160a01b03161461194a5760405163daffd8a560e01b815260040160405180910390fd5b6000858152601760205260409020600381015460ff161561197e57604051631fcb6b9160e01b815260040160405180910390fd5b8054851061199f57604051637df0b86160e01b815260040160405180910390fd5b8215806119ad57506103e883115b156119cb57604051630ef9fbf360e21b815260040160405180910390fd5b600086815260186020908152604080832088845282528083208151601f88018490048402810184019092528682529291611a20919088908890819084018382808284376000920191909152506146e092505050565b90508315801590611a315750838114155b15611a4f5760405163016c02f160e61b815260040160405180910390fd5b600182015460028301805460009190611a6790615de0565b6001860185905591505060028401611a80888a83615fe8565b504260038501819055600480860180546001600160a01b0319163317905560028701919091558501548790611ab6908390615fa6565b611ac09190615f93565b6004860155611ace8a614710565b604080518381526020810185905233918b918d917f065c2222316af985857085b11b199dc175990521803ca44d2ab1a4ef4c0ea6ef910160405180910390a45050505050611b1c6001600b55565b5050505050565b6000611b2e60085490565b8210611b575760405163295f44f760e21b81526000600482015260248101839052604401611044565b60088281548110611b6a57611b6a615fb9565b90600052602060002001549050919050565b60608060008080888881611ba35760405163e5d242ed60e01b815260040160405180910390fd5b801580611bbd57506000828152600c602052604090205481115b15611bdb57604051630dd4272d60e41b815260040160405180910390fd5b6064881115611bfd57604051630327a73960e61b815260040160405180910390fd5b60008b8152601b602090815260408083208d845290915281208054965090899003611c495750604080516000808252602082018181528284019093529098509096509350889250611dc3565b858a10611c775750604080516000808252602082018181528284019093529098509096509350849250611dc3565b6000611c838a8c615f93565b905086811115611c905750855b6000611c9c8c83615fa6565b9050806001600160401b03811115611cb657611cb6615a28565b604051908082528060200260200182016040528015611cdf578160200160208202803683370190505b509950806001600160401b03811115611cfa57611cfa615a28565b604051908082528060200260200182016040528015611d23578160200160208202803683370190505b50985060005b81811015611db857600084828f611d409190615f93565b81548110611d5057611d50615fb9565b9060005260206000209060020201905080600001548c8381518110611d7757611d77615fb9565b60200260200101818152505080600101548b8381518110611d9a57611d9a615fb9565b60209081029190910101525080611db081615fcf565b915050611d29565b505086811095509350505b5050945094509450945094565b6000610d5782614066565b600c6020528160005260406000208181548110611df757600080fd5b600091825260209091206009909102018054600182015460028301546003840154600485015460058601546006870154600788018054979a5095985093969295919490936001600160a01b03811693600160a01b9091046001600160601b031692909190611e6490615de0565b80601f0160208091040260200160405190810160405280929190818152602001828054611e9090615de0565b8015611edd5780601f10611eb257610100808354040283529160200191611edd565b820191906000526020600020905b815481529060010190602001808311611ec057829003601f168201915b505050505090806008018054611ef290615de0565b80601f0160208091040260200160405190810160405280929190818152602001828054611f1e90615de0565b8015611f6b5780601f10611f4057610100808354040283529160200191611f6b565b820191906000526020600020905b815481529060010190602001808311611f4e57829003601f168201915b505050505090508a565b60006001600160a01b038216611fa1576040516322718ad960e21b815260006004820152602401611044565b506001600160a01b031660009081526003602052604090205490565b611fc56147d8565b611fcf6000614805565b565b6040805160a081018252600080825260208201819052918101829052606081018290526080810182905290612005836140ab565b6001600160a01b03160361202c576040516307ed98ed60e31b815260040160405180910390fd5b50600090815260176020908152604091829020825160a08101845281548152600182015492810192909252600281015492820192909252600382015460ff1615156060820152600490910154608082015290565b3361208a826140ab565b6001600160a01b0316146120b15760405163daffd8a560e01b815260040160405180910390fd5b6000818152601760205260409020600381015460ff16156120e557604051631fcb6b9160e01b815260040160405180910390fd5b805460000361210757604051637dc66bf560e11b815260040160405180910390fd5b60038101805460ff19166001908117909155426002830155815490820154604051339285927f896066547269dcd0db6295ca6c7f14f927d692103e47c7615259469b74bc7b5d92612162929190918252602082015260400190565b60405180910390a35050565b600080612179614fa9565b612181614fff565b600060608161218f886140ab565b6001600160a01b0316036121b6576040516307ed98ed60e31b815260040160405180910390fd5b6000878152601160205260409020549550856121e5576040516307ed98ed60e31b815260040160405180910390fd5b6000878152601260205260408120549550612201600187615fa6565b6000888152600c602052604090208054919250908290811061222557612225615fb9565b600091825260209182902060408051610140810182526009909302909101805483526001810154938301939093526002830154908201526003820154606082015260048201546080820152600582015460a082015260068201546001600160a01b03811660c08301526001600160601b03600160a01b9091041660e0820152600782018054919291610100840191906122bd90615de0565b80601f01602080910402602001604051908101604052809291908181526020018280546122e990615de0565b80156123365780601f1061230b57610100808354040283529160200191612336565b820191906000526020600020905b81548152906001019060200180831161231957829003601f168201915b5050505050815260200160088201805461234f90615de0565b80601f016020809104026020016040519081016040528092919081815260200182805461237b90615de0565b80156123c85780601f1061239d576101008083540402835291602001916123c8565b820191906000526020600020905b8154815290600101906020018083116123ab57829003601f168201915b50505091909252505050600089815260136020908152604091829020825161010080820185528254828601908152600184015460ff8082161515606086015261ffff84830416608086015263010000008204811660a08601526401000000008204811660c0860152650100000000009091041660e084015282528451908101909452600282018054959a509094919392850192918290829061246990615de0565b80601f016020809104026020016040519081016040528092919081815260200182805461249590615de0565b80156124e25780601f106124b7576101008083540402835291602001916124e2565b820191906000526020600020905b8154815290600101906020018083116124c557829003601f168201915b505050505081526020016001820180546124fb90615de0565b80601f016020809104026020016040519081016040528092919081815260200182805461252790615de0565b80156125745780601f1061254957610100808354040283529160200191612574565b820191906000526020600020905b81548152906001019060200180831161255757829003601f168201915b5050509183525050600282015460ff8082161515602084015261ffff6101008304166040840152630100000082048116606084015264010000000090910416608082015260038201805460a0909201916125cd90615de0565b80601f01602080910402602001604051908101604052809291908181526020018280546125f990615de0565b80156126465780601f1061261b57610100808354040283529160200191612646565b820191906000526020600020905b81548152906001019060200180831161262957829003601f168201915b5050505050815260200160048201805461265f90615de0565b80601f016020809104026020016040519081016040528092919081815260200182805461268b90615de0565b80156126d85780601f106126ad576101008083540402835291602001916126d8565b820191906000526020600020905b8154815290600101906020018083116126bb57829003601f168201915b505050919092525050509052506000888152601a60209081526040808320858452909152902054909450925061270d88613499565b91505091939550919395565b60606000806000606485111561274257604051630327a73960e61b815260040160405180910390fd5b6000878152600c60205260408120805494509086900361279d57604080516000808252602082019092529061145b565b61277a614fa9565b8152602001906001900390816127725790505094506000925086915061166e9050565b8387106127e55760408051600080825260208201909252906114a4565b6127c2614fa9565b8152602001906001900390816127ba5790505094506000925083915061166e9050565b60006127f18789615f93565b9050848111156127fe5750835b600061280a8983615fa6565b9050806001600160401b0381111561282457612824615a28565b60405190808252806020026020018201604052801561285d57816020015b61284a614fa9565b8152602001906001900390816128425790505b50965060005b818110156116635783612876828c615f93565b8154811061288657612886615fb9565b600091825260209182902060408051610140810182526009909302909101805483526001810154938301939093526002830154908201526003820154606082015260048201546080820152600582015460a082015260068201546001600160a01b03811660c08301526001600160601b03600160a01b9091041660e08201526007820180549192916101008401919061291e90615de0565b80601f016020809104026020016040519081016040528092919081815260200182805461294a90615de0565b80156129975780601f1061296c57610100808354040283529160200191612997565b820191906000526020600020905b81548152906001019060200180831161297a57829003601f168201915b505050505081526020016008820180546129b090615de0565b80601f01602080910402602001604051908101604052809291908181526020018280546129dc90615de0565b8015612a295780601f106129fe57610100808354040283529160200191612a29565b820191906000526020600020905b815481529060010190602001808311612a0c57829003601f168201915b505050505081525050888281518110612a4457612a44615fb9565b60200260200101819052508080612a5a90615fcf565b915050612863565b606060018054610d6c90615de0565b610e23338383614857565b60196020528160005260406000208181548110612a9857600080fd5b90600052602060002001600091509150505481565b612ab56146b6565b33612abf866140ab565b6001600160a01b031614612ae65760405163daffd8a560e01b815260040160405180910390fd5b811580612af457506103e882115b15612b1257604051630ef9fbf360e21b815260040160405180910390fd5b6000858152601760205260409020600381015460ff1615612b4657604051631fcb6b9160e01b815260040160405180910390fd5b8054606411612b6857604051637df0b86160e01b815260040160405180910390fd5b80548514612b8957604051637df0b86160e01b815260040160405180910390fd5b6000612bca85858080601f0160208091040260200160405190810160405280939291908181526020018383808284376000920191909152506146e092505050565b90508215801590612bdb5750828114155b15612bf95760405163016c02f160e61b815260040160405180910390fd5b600087815260186020908152604080832089845290915290208681556001810182905560028101612c2b868883615fe8565b504260038201556004810180546001600160a01b031916331790558254612c53906001615f93565b83554260028401556004830154612c6b908690615f93565b6004840155600088815260196020908152604082208054600181018255908352912001879055612c9a88614710565b6040805183815260208101879052339189918b917f9a8c5a1082b04a31158c2062cc003f0764f93a8614a3643f01df8346f0c39f8d910160405180910390a4505050611b1c6001600b55565b60c0870135338114612d0b576040516303b2487b60e11b815260040160405180910390fd5b60405163c894e75760e01b81526001600160a01b037f0000000000000000000000000000000000000000000000000000000000000000169063c894e75790612d5d908e908e908e908e906004016160a1565b602060405180830381865afa158015612d7a573d6000803e3d6000fd5b505050506040513d601f19601f82011682018060405250810190612d9e91906160ed565b612dbb576040516303b2487b60e11b815260040160405180910390fd5b6000612dd8612dd38a358b60015b60200201356148f6565b614936565b90506000612def612dd360408c01358c6003612dc9565b90506000612e06612dd360808d01358d6005612dc9565b604051909150339084907f3015fe19dc9f8f0d942de39092410a57589dd94d2c9134719335fe04e3695eca90600090a3612e478383838d8d8d8d8d8d6141b3565b5050505050505050505050505050565b818181612e775760405163e5d242ed60e01b815260040160405180910390fd5b801580612e9157506000828152600c602052604090205481115b15612eaf57604051630dd4272d60e41b815260040160405180910390fd5b6000848152600f60209081526040808320338452909152902054838103612ed657506110a8565b6000612ee3600186615fa6565b905060007f00000000000000000000000000000000000000000000000000000000000000006001600160a01b0316636bf90c716040518163ffffffff1660e01b8152600401602060405180830381865afa158015612f45573d6000803e3d6000fd5b505050506040513d601f19601f82011682018060405250810190612f69919061610a565b905080156130ce576000878152600c60205260408120805484908110612f9157612f91615fb9565b600091825260208083208b8452601682526040808520888652909252908320546009909202019250908115612ffb576000612fcb836140ab565b90506001600160a01b03811615612fe457809150612ff5565b60068401546001600160a01b031691505b5061300b565b5060068201546001600160a01b03165b6040516323b872dd60e01b81523360048201526001600160a01b038281166024830152604482018690526000917f0000000000000000000000000000000000000000000000000000000000000000909116906323b872dd906064016020604051808303816000875af1158015613085573d6000803e3d6000fd5b505050506040513d601f19601f820116820180604052508101906130a991906160ed565b9050806130c957604051635da1e97760e11b815260040160405180910390fd5b505050505b821561312d5760006130e1600185615fa6565b6000898152601a60209081526040808320848452909152902054909150801561312a5761310f600182615fa6565b60008a8152601a602090815260408083208684529091529020555b50505b6000878152601a602090815260408083208584529091528120805460019290613157908490615f93565b90915550506000878152600f6020908152604080832033808552908352928190208990558051898152918201849052429082015288907f55e71c43a79fd68c0c9f416c70da96b84745f57bf4c2456beb089b4ad7bb3ac89060600160405180910390a350505050505050565b6131ce84848461101e565b6110a8338585858561494b565b6131e3614fa9565b6000808484816132065760405163e5d242ed60e01b815260040160405180910390fd5b80158061322057506000828152600c602052604090205481115b1561323e57604051630dd4272d60e41b815260040160405180910390fd5b600061324b600188615fa6565b6000898152600c602052604090208054919250908290811061326f5761326f615fb9565b600091825260209182902060408051610140810182526009909302909101805483526001810154938301939093526002830154908201526003820154606082015260048201546080820152600582015460a082015260068201546001600160a01b03811660c08301526001600160601b03600160a01b9091041660e08201526007820180549192916101008401919061330790615de0565b80601f016020809104026020016040519081016040528092919081815260200182805461333390615de0565b80156133805780601f1061335557610100808354040283529160200191613380565b820191906000526020600020905b81548152906001019060200180831161336357829003601f168201915b5050505050815260200160088201805461339990615de0565b80601f01602080910402602001604051908101604052809291908181526020018280546133c590615de0565b80156134125780601f106133e757610100808354040283529160200191613412565b820191906000526020600020905b8154815290600101906020018083116133f557829003601f168201915b505050919092525050506000898152601a602090815260408083208584528252808320549b83526016825280832094835293905291909120549098909650945050505050565b80516000908290158061346d57506101008151115b1561348b57604051635f895cef60e11b815260040160405180910390fd5b805160209091012092915050565b60606134a482614066565b50600082815260146020526040902080546134be90615de0565b80601f01602080910402602001604051908101604052809291908181526020018280546134ea90615de0565b80156135375780601f1061350c57610100808354040283529160200191613537565b820191906000526020600020905b81548152906001019060200180831161351a57829003601f168201915b50505050509050919050565b805160009061356557604051635f895cef60e11b815260040160405180910390fd5b600c826060015160ff16111561358e576040516348c5148960e11b815260040160405180910390fd5b601f826080015160ff1611156135b7576040516309eabf7d60e21b815260040160405180910390fd5b81516020830151608082901c916fffffffffffffffffffffffffffffffff16906000906135e55760006135e8565b60015b60ff1660018660a0015160ff16901b6008876080015160ff16901b6010886060015160ff16901b6018896040015161ffff16901b17171717905061362a615097565b838152602081018390526040808201839052516320cf0a3760e01b815260009073__$fc5a2451f3e054f75c2faf9b3818033d8b$__906320cf0a3790613674908590600401616123565b602060405180830381865af4158015613691573d6000803e3d6000fd5b505050506040513d601f19601f820116820180604052508101906136b5919061610a565b9050806136c181614936565b98975050505050505050565b60186020908152600092835260408084209091529082529020805460018201546002830180549293919261370090615de0565b80601f016020809104026020016040519081016040528092919081815260200182805461372c90615de0565b80156137795780601f1061374e57610100808354040283529160200191613779565b820191906000526020600020905b81548152906001019060200180831161375c57829003601f168201915b5050505060038301546004909301549192916001600160a01b0316905085565b6137a16146b6565b8484816137c15760405163e5d242ed60e01b815260040160405180910390fd5b8015806137db57506000828152600c602052604090205481115b156137f957604051630dd4272d60e41b815260040160405180910390fd5b6000613806600188615fa6565b60008981526016602090815260408083208484529091529020549091501561384157604051634028e5e560e11b815260040160405180910390fd5b6000888152600f60209081526040808320338452909152902054871461387a5760405163786bb09f60e11b815260040160405180910390fd5b61010085111561389d576040516313f04adb60e01b815260040160405180910390fd5b6101006138ad60c0860186616154565b6138bb9060e0810190616174565b905011156138dc5760405163f283c51960e01b815260040160405180910390fd5b6101006138ec60c0860186616154565b6138fa906020810190616174565b9050111561391b576040516367181a3960e11b815260040160405180910390fd5b61010061392b60c0860186616154565b6139399060c0810190616174565b9050111561395a57604051633769847160e01b815260040160405180910390fd5b60006139b061396c60c0870187616154565b6139769080616174565b8080601f01602080910402602001604051908101604052809392919081815260200183838082843760009201919091525061345892505050565b9050843581146139d357604051632f38f48f60e21b815260040160405180910390fd5b60006139e7610b6336889003880188615bba565b9050898114613a0957604051632f38f48f60e21b815260040160405180910390fd5b6000601060008154613a1a90615fcf565b91829055509050613a2b3382614a75565b613a6b818a8a8080601f0160208091040260200160405190810160405280939291908181526020018383808284376000920191909152506140c692505050565b60008181526011602090815260408083208e9055601282528083208d90558d8352601682528083208784528252808320849055838352601390915290208790613ab4828261639a565b905050336001600160a01b0316818c7fbce71c21e84db5e7dca78ea57ad63b6c66f74f74efc25e33592370ecf39e093b8d8d8d42604051613af89493929190616483565b60405180910390a4505050505050611b1c6001600b55565b6001600160a01b03918216600090815260056020908152604080832093909416825291909152205460ff1690565b613b46614f6e565b6000613b51846140ab565b6001600160a01b031603613b78576040516307ed98ed60e31b815260040160405180910390fd5b600083815260176020526040902080548310613ba757604051637df0b86160e01b815260040160405180910390fd5b6018600085815260200190815260200160002060008481526020019081526020016000206040518060a00160405290816000820154815260200160018201548152602001600282018054613bfa90615de0565b80601f0160208091040260200160405190810160405280929190818152602001828054613c2690615de0565b8015613c735780601f10613c4857610100808354040283529160200191613c73565b820191906000526020600020905b815481529060010190602001808311613c5657829003601f168201915b5050509183525050600382015460208201526004909101546001600160a01b0316604090910152949350505050565b613caa6147d8565b6001600160a01b038116613cd457604051631e4fbdf760e01b815260006004820152602401611044565b613cdd81614805565b50565b606080606060008060006064871115613d0c57604051630327a73960e61b815260040160405180910390fd5b6000898152600c602052604081208054945090889003613d565750506040805160008082526020820181815282840182815260608401909452919750909550909350905086613f51565b838910613d8d5750506040805160008082526020820181815282840182815260608401909452919750909550909350905081613f51565b6000613d99898b615f93565b905084811115613da65750835b6000613db28b83615fa6565b9050806001600160401b03811115613dcc57613dcc615a28565b604051908082528060200260200182016040528015613df5578160200160208202803683370190505b509850806001600160401b03811115613e1057613e10615a28565b604051908082528060200260200182016040528015613e39578160200160208202803683370190505b509750806001600160401b03811115613e5457613e54615a28565b604051908082528060200260200182016040528015613e7d578160200160208202803683370190505b50965060005b81811015613f46576000613e97828e615f93565b9050613ea4816001615f93565b8b8381518110613eb657613eb6615fb9565b60209081029190910181019190915260008f8152601a8252604080822084835290925220548a518b9084908110613eef57613eef615fb9565b60209081029190910181019190915260008f8152601682526040808220848352909252205489518a9084908110613f2857613f28615fb9565b60209081029190910101525080613f3e81615fcf565b915050613e83565b505084811093509150505b93975093979195509350565b60156020528160005260406000208181548110613f7957600080fd5b90600052602060002001600091509150508054613f9590615de0565b80601f0160208091040260200160405190810160405280929190818152602001828054613fc190615de0565b801561400e5780601f10613fe35761010080835404028352916020019161400e565b820191906000526020600020905b815481529060010190602001808311613ff157829003601f168201915b505050505081565b60006001600160e01b031982166380ac58cd60e01b148061404757506001600160e01b03198216635b5e139f60e01b145b80610d5757506301ffc9a760e01b6001600160e01b0319831614610d57565b600080614072836140ab565b90506001600160a01b038116610d5757604051637e27328960e01b815260048101849052602401611044565b61190c8383836001614a8f565b6000908152600260205260409020546001600160a01b031690565b600082815260146020526040902061190c8282615e75565b6000806140ec858585614b95565b90506001600160a01b0381166141495761414484600880546000838152600960205260408120829055600182018355919091527ff3f7a9fe364faab93b216da50a3214154f22a0a2b415b23a84c8169e8b636ee30155565b61416c565b846001600160a01b0316816001600160a01b03161461416c5761416c8185614c89565b6001600160a01b0385166141885761418384614d0a565b6141ab565b846001600160a01b0316816001600160a01b0316146141ab576141ab8585614db9565b949350505050565b6101008311156141d657604051635fab396360e11b815260040160405180910390fd5b6101008111156141f957604051630601a0fb60e51b815260040160405180910390fd5b6000888152600c602052604090205486111561422857604051631f9510eb60e01b815260040160405180910390fd5b6000878152600c60205260409020548511156142575760405163782ce69f60e01b815260040160405180910390fd5b60008989898989898960405160200161427697969594939291906164ae565b60408051601f19818403018152918152815160209283012060008d8152600e845282812082825290935291205490915060ff16156142c7576040516314396b6760e11b815260040160405180910390fd5b60008a8152600e602090815260408083208484528252808320805460ff191660011790558c8352600c82528083208151610140810183528e81528084018e90528083018d90526060810194909452608084018b905260a084018a90523360c08501526001600160601b03421660e08501528151601f89018490048402810184019092528782529291610100830191908990899081908401838280828437600092019190915250505090825250604080516020601f8801819004810282018101909252868152918101919087908790819084018382808284376000920182905250939094525050835460018181018655948252602091829020845160099092020190815590830151938101939093555060408101516002830155606081015160038301556080810151600483015560a0810151600583015560c081015160e08201516001600160601b0316600160a01b026001600160a01b0390911617600683015561010081015190919060078201906144409082615e75565b5061012082015160088201906144569082615e75565b50505060008a8152600c602052604090208054908190614477600183615fa6565b8154811061448757614487615fb9565b600091825260209091206003600990920201015589156144ee5760008a8152601b602090815260408083208b8452825280832081518083019092528e8252818301858152815460018181018455928652939094209151600290930290910191825591519101555b8815614541576000898152601b602090815260408083208a8452825280832081518083019092528e8252818301858152815460018181018455928652939094209151600290930290910191825591519101555b8060010361455f57600d805490600061455983615fcf565b91905055505b336001600160a01b0316818c7ff24ca8fe8e48960e559267341f81e7b0f07746d1e98c729930fe251bd2875484428e8d8f8e8e8e6040516145a697969594939291906164e4565b60405180910390a46145b78a614e09565b80156145c757506145c789614e09565b156146a9576040516335313c2160e11b81523360048201526000907f00000000000000000000000000000000000000000000000000000000000000006001600160a01b031690636a627842906024016020604051808303816000875af1158015614635573d6000803e3d6000fd5b505050506040513d601f19601f82011682018060405250810190614659919061610a565b905080156146a757818c336001600160a01b03167fdefc43c3e9b037326c59d7c3f29c0b6b5c94a6fbfcced006b763e74a3115da6d8460405161469e91815260200190565b60405180910390a45b505b5050505050505050505050565b6002600b54036146d957604051633ee5aeb560e01b815260040160405180910390fd5b6002600b55565b6000816040516020016146f39190616516565b604051602081830303815290604052805190602001209050919050565b60008181526017602090815260408083206019909252822080549192909190036147405750600060019091015550565b606060005b82548110156147c257600083828154811061476257614762615fb9565b600091825260208083209091015488835260188252604080842082855283529283902060010154925190935061479c918691849101616528565b6040516020818303038152906040529350505080806147ba90615fcf565b915050614745565b5080516020909101206001909201919091555050565b600a546001600160a01b03163314611fcf5760405163118cdaa760e01b8152336004820152602401611044565b600a80546001600160a01b038381166001600160a01b0319831681179093556040519116919082907f8be0079c531659141344cd1fd0a4f28419497f9722a3daafe3b4186f6b6457e090600090a35050565b6001600160a01b03821661488957604051630b61174360e31b81526001600160a01b0383166004820152602401611044565b6001600160a01b03838116600081815260056020908152604080832094871680845294825291829020805460ff191686151590811790915591519182527f17307eab39ab6107e8899845ad3d59bd9653f200f220920489ca2b5937696c31910160405180910390a3505050565b6000608083901c15158061490d5750608082901c15155b1561492b576040516303b2487b60e11b815260040160405180910390fd5b5060809190911b1790565b6000816040516020016146f391815260200190565b6001600160a01b0383163b15611b1c57604051630a85bd0160e11b81526001600160a01b0384169063150b7a029061498d90889088908790879060040161654a565b6020604051808303816000875af19250505080156149c8575060408051601f3d908101601f191682019092526149c59181019061657d565b60015b614a31573d8080156149f6576040519150601f19603f3d011682016040523d82523d6000602084013e6149fb565b606091505b508051600003614a2957604051633250574960e11b81526001600160a01b0385166004820152602401611044565b805160208201fd5b6001600160e01b03198116630a85bd0160e11b14614a6d57604051633250574960e11b81526001600160a01b0385166004820152602401611044565b505050505050565b610e23828260405180602001604052806000815250614e2a565b8080614aa357506001600160a01b03821615155b15614b65576000614ab384614066565b90506001600160a01b03831615801590614adf5750826001600160a01b0316816001600160a01b031614155b8015614af25750614af08184613b10565b155b15614b1b5760405163a9fbf51f60e01b81526001600160a01b0384166004820152602401611044565b8115614b635783856001600160a01b0316826001600160a01b03167f8c5be1e5ebec7d5bd14f71427d1e84f3dd0314c0f7b2291e5b200ac8c7c3b92560405160405180910390a45b505b5050600090815260046020526040902080546001600160a01b0319166001600160a01b0392909216919091179055565b600080614ba1846140ab565b90506001600160a01b03831615614bbd57614bbd818486614e42565b6001600160a01b03811615614bfb57614bda600085600080614a8f565b6001600160a01b038116600090815260036020526040902080546000190190555b6001600160a01b03851615614c2a576001600160a01b0385166000908152600360205260409020805460010190555b60008481526002602052604080822080546001600160a01b0319166001600160a01b0389811691821790925591518793918516917fddf252ad1be2c89b69c2b068fc378daa952ba7f163c4a11628f55a4df523b3ef91a4949350505050565b6000614c9483611f75565b6000838152600760209081526040808320546001600160a01b0388168452600690925290912091925090818314614ceb57600083815260208281526040808320548584528184208190558352600790915290208290555b6000938452600760209081526040808620869055938552525081205550565b600854600090614d1c90600190615fa6565b60008381526009602052604081205460088054939450909284908110614d4457614d44615fb9565b906000526020600020015490508060088381548110614d6557614d65615fb9565b6000918252602080832090910192909255828152600990915260408082208490558582528120556008805480614d9d57614d9d61659a565b6001900381819060005260206000200160009055905550505050565b60006001614dc684611f75565b614dd09190615fa6565b6001600160a01b039093166000908152600660209081526040808320868452825280832085905593825260079052919091209190915550565b60008115801590610d575750506000908152600c6020526040902054151590565b614e348383614ea6565b61190c33600085858561494b565b614e4d838383614f0b565b61190c576001600160a01b038316614e7b57604051637e27328960e01b815260048101829052602401611044565b60405163177e802f60e01b81526001600160a01b038316600482015260248101829052604401611044565b6001600160a01b038216614ed057604051633250574960e11b815260006004820152602401611044565b6000614ede838360006140de565b90506001600160a01b0381161561190c576040516339e3563760e11b815260006004820152602401611044565b60006001600160a01b038316158015906141ab5750826001600160a01b0316846001600160a01b03161480614f455750614f458484613b10565b806141ab5750506000908152600460205260409020546001600160a01b03908116911614919050565b6040518060a001604052806000815260200160008019168152602001606081526020016000815260200160006001600160a01b031681525090565b604080516101408101825260008082526020820181905291810182905260608082018390526080820183905260a0820183905260c0820183905260e0820192909252610100810182905261012081019190915290565b60408051610100810182526000918101828152606082018390526080820183905260a0820183905260c0820183905260e082019290925290819081526020016150926040518061010001604052806060815260200160608152602001600015158152602001600061ffff168152602001600060ff168152602001600060ff16815260200160608152602001606081525090565b905290565b60405180606001604052806003906020820280368337509192915050565b6001600160e01b031981168114613cdd57600080fd5b6000602082840312156150dd57600080fd5b81356150e8816150b5565b9392505050565b60005b8381101561510a5781810151838201526020016150f2565b50506000910152565b6000815180845261512b8160208601602086016150ef565b601f01601f19169290920160200192915050565b6020815260006150e86020830184615113565b60006020828403121561516457600080fd5b5035919050565b80356001600160a01b038116811461518257600080fd5b919050565b6000806040838503121561519a57600080fd5b6151a38361516b565b946020939093013593505050565b600080604083850312156151c457600080fd5b50508035926020909101359150565b6000806000606084860312156151e857600080fd5b505081359360208301359350604090920135919050565b60008083601f84011261521157600080fd5b5081356001600160401b0381111561522857600080fd5b60208301915083602082850101111561524057600080fd5b9250929050565b60008060006040848603121561525c57600080fd5b8335925060208401356001600160401b0381111561527957600080fd5b615285868287016151ff565b9497909650939450505050565b6000806000606084860312156152a757600080fd5b6152b08461516b565b92506152be6020850161516b565b9150604084013590509250925092565b8051825260208101511515602083015261ffff604082015116604083015260ff606082015116606083015260ff608082015116608083015260ff60a08201511660a08301525050565b6000610100825181855261532d82860182615113565b915050602083015184820360208601526153478282615113565b915050604083015161535d604086018215159052565b506060830151615373606086018261ffff169052565b506080830151615388608086018260ff169052565b5060a083015161539d60a086018260ff169052565b5060c083015184820360c08601526153b58282615113565b91505060e083015184820360e08601526153cf8282615113565b95945050505050565b6153e281846152ce565b60e060c082015260006141ab60e0830184615317565b80518252602081015160208301526000604082015160a0604085015261542160a0850182615113565b606084810151908601526080938401516001600160a01b031693909401929092525090919050565b6000608082016080835280875180835260a08501915060a08160051b86010192506020808a0160005b838110156154a057609f1988870301855261548e8683516153f8565b95509382019390820190600101615472565b5050850197909752509315156040830152506060015292915050565b600080600080600080600080600060e08a8c0312156154da57600080fd5b8935985060208a0135975060408a0135965060608a0135955060808a0135945060a08a01356001600160401b038082111561551457600080fd5b6155208d838e016151ff565b909650945060c08c013591508082111561553957600080fd5b506155468c828d016151ff565b915080935050809150509295985092959850929598565b6000608082016080835280875180835260a08501915060a08160051b86010192506020808a0160005b838110156154a057609f198887030185526155a2868351615113565b95509382019390820190600101615586565b6000806000806000608086880312156155cc57600080fd5b853594506020860135935060408601356001600160401b038111156155f057600080fd5b6155fc888289016151ff565b96999598509660600135949350505050565b6000806000806080858703121561562457600080fd5b5050823594602084013594506040840135936060013592509050565b600081518084526020808501945080840160005b8381101561567057815187529582019590820190600101615654565b509495945050505050565b60a0808252865190820181905260009060209060c0840190828a01845b828110156156b457815184529284019290840190600101615698565b505050838103828501526156c88189615640565b6040850197909752505050911515606083015260809091015292915050565b60006101408c83528b60208401528a60408401528960608401528860808401528760a084015260018060a01b03871660c08401526001600160601b03861660e08401528061010084015261573d81840186615113565b90508281036101208401526157528185615113565b9d9c50505050505050505050505050565b60006020828403121561577557600080fd5b6150e88261516b565b6000610140825184526020830151602085015260408301516040850152606083015160608501526080830151608085015260a083015160a085015260c08301516157d360c08601826001600160a01b03169052565b5060e08301516157ee60e08601826001600160601b03169052565b5061010080840151828287015261580783870182615113565b9250505061012080840151858303828701526158238382615113565b9695505050505050565b86815285602082015260c06040820152600061584c60c083018761577e565b828103606084015261585f8187516152ce565b602086015160e060c083015261587860e0830182615317565b91505084608084015282810360a08401526158938185615113565b9998505050505050505050565b6000608082016080835280875180835260a08501915060a08160051b86010192506020808a0160005b838110156154a057609f198887030185526158e586835161577e565b955093820193908201906001016158c9565b8015158114613cdd57600080fd5b6000806040838503121561591857600080fd5b6159218361516b565b91506020830135615931816158f7565b809150509250929050565b8060408101831015610d5757600080fd5b6000806000806000806000806000806102608b8d03121561596d57600080fd5b6159778c8c61593c565b995060c08b018c81111561598a57600080fd5b60408c01995061599a8d8261593c565b9850506101e08b018c8111156159af57600080fd5b6101008c0197503595506102008b013594506102208b01356001600160401b03808211156159dc57600080fd5b6159e88e838f016151ff565b90965094506102408d0135915080821115615a0257600080fd5b50615a0f8d828e016151ff565b915080935050809150509295989b9194979a5092959850565b634e487b7160e01b600052604160045260246000fd5b60006001600160401b0380841115615a5857615a58615a28565b604051601f8501601f19908116603f01168101908282118183101715615a8057615a80615a28565b81604052809350858152868686011115615a9957600080fd5b858560208301376000602087830101525050509392505050565b60008060008060808587031215615ac957600080fd5b615ad28561516b565b9350615ae06020860161516b565b92506040850135915060608501356001600160401b03811115615b0257600080fd5b8501601f81018713615b1357600080fd5b615b2287823560208401615a3e565b91505092959194509250565b606081526000615b41606083018661577e565b60208301949094525060400152919050565b600060208284031215615b6557600080fd5b81356001600160401b03811115615b7b57600080fd5b8201601f81018413615b8c57600080fd5b6141ab84823560208401615a3e565b61ffff81168114613cdd57600080fd5b60ff81168114613cdd57600080fd5b600060c08284031215615bcc57600080fd5b60405160c081018181106001600160401b0382111715615bee57615bee615a28565b604052823581526020830135615c03816158f7565b60208201526040830135615c1681615b9b565b60408201526060830135615c2981615bab565b60608201526080830135615c3c81615bab565b608082015260a0830135615c4f81615bab565b60a08201529392505050565b85815284602082015260a060408201526000615c7a60a0830186615113565b6060830194909452506001600160a01b03919091166080909101529392505050565b600080600080600060808688031215615cb457600080fd5b853594506020860135935060408601356001600160401b0380821115615cd957600080fd5b615ce589838a016151ff565b90955093506060880135915080821115615cfe57600080fd5b50860160e08189031215615d1157600080fd5b809150509295509295909350565b60008060408385031215615d3257600080fd5b615d3b8361516b565b9150615d496020840161516b565b90509250929050565b6020815260006150e860208301846153f8565b60008060408385031215615d7857600080fd5b82359150615d496020840161516b565b60c081526000615d9b60c0830189615640565b8281036020840152615dad8189615640565b90508281036040840152615dc18188615640565b60608401969096525050911515608083015260a0909101529392505050565b600181811c90821680615df457607f821691505b602082108103615e1457634e487b7160e01b600052602260045260246000fd5b50919050565b601f82111561190c57600081815260208120601f850160051c81016020861015615e415750805b601f850160051c820191505b81811015614a6d57828155600101615e4d565b600019600383901b1c191660019190911b1790565b81516001600160401b03811115615e8e57615e8e615a28565b615ea281615e9c8454615de0565b84615e1a565b602080601f831160018114615ed15760008415615ebf5750858301515b615ec98582615e60565b865550614a6d565b600085815260208120601f198616915b82811015615f0057888601518255948401946001909101908401615ee1565b5085821015615f1e5787850151600019600388901b60f8161c191681555b5050505050600190811b01905550565b81835281816020850137506000828201602090810191909152601f909101601f19169091010190565b604081526000615f6a6040830186615113565b8281036020840152615823818587615f2e565b634e487b7160e01b600052601160045260246000fd5b80820180821115610d5757610d57615f7d565b81810381811115610d5757610d57615f7d565b634e487b7160e01b600052603260045260246000fd5b600060018201615fe157615fe1615f7d565b5060010190565b6001600160401b03831115615fff57615fff615a28565b6160138361600d8354615de0565b83615e1a565b6000601f841160018114616041576000851561602f5750838201355b6160398682615e60565b845550611b1c565b600083815260209020601f19861690835b828110156160725786850135825560209485019460019092019101616052565b508682101561608f5760001960f88860031b161c19848701351681555b505060018560011b0183555050505050565b6101e081016040808784378083018660005b60028110156160d0578382843791830191908301906001016160b3565b505050808560c08501375060e08361010084013795945050505050565b6000602082840312156160ff57600080fd5b81516150e8816158f7565b60006020828403121561611c57600080fd5b5051919050565b60608101818360005b600381101561614b57815183526020928301929091019060010161612c565b50505092915050565b6000823560fe1983360301811261616a57600080fd5b9190910192915050565b6000808335601e1984360301811261618b57600080fd5b8301803591506001600160401b038211156161a557600080fd5b60200191503681900382131561524057600080fd5b60008135610d57816158f7565b60008135610d5781615b9b565b60008135610d5781615bab565b6161eb8283616174565b6001600160401b0381111561620257616202615a28565b616216816162108554615de0565b85615e1a565b6000601f82116001811461624457600083156162325750838201355b61623c8482615e60565b86555061629e565b600085815260209020601f19841690835b828110156162755786850135825560209485019460019092019101616255565b50848210156162925760001960f88660031b161c19848701351681555b505060018360011b0185555b505050506162af6020830183616174565b6162bd818360018601615fe8565b5050600281016162e66162d2604085016161ba565b825490151560ff1660ff1991909116178255565b61630d6162f5606085016161c7565b825462ffff00191660089190911b62ffff0016178255565b61633661631c608085016161d4565b825463ff000000191660189190911b63ff00000016178255565b61636161634560a085016161d4565b825464ff00000000191660209190911b64ff0000000016178255565b5061636f60c0830183616174565b61637d818360038601615fe8565b505061638c60e0830183616174565b6110a8818360048601615fe8565b813581556001810160208301356163b0816158f7565b815460ff191660ff821515161782555060408301356163ce81615b9b565b815462ffff001916600882901b62ffff00161782555060608301356163f281615bab565b815463ff0000001916601882901b63ff0000001617825550608083013561641881615bab565b815464ff000000001916602082901b64ff00000000161782555060a083013561644081615bab565b815465ff0000000000191660289190911b65ff00000000001617905560c08201353683900360fe1901811261647457600080fd5b61190c818401600284016161e1565b84815260606020820152600061649d606083018587615f2e565b905082604083015295945050505050565b878152866020820152856040820152846060820152836080820152818360a08301376000910160a0019081529695505050505050565b87815286602082015285604082015284606082015283608082015260c060a0820152600061589360c083018486615f2e565b6000825161616a8184602087016150ef565b6000835161653a8184602088016150ef565b9190910191825250602001919050565b6001600160a01b038581168252841660208201526040810183905260806060820181905260009061582390830184615113565b60006020828403121561658f57600080fd5b81516150e8816150b5565b634e487b7160e01b600052603160045260246000fdfea2646970667358221220223f25cc5aaf3a1fcb7213349a23362f102bd64550a7299fb3fc7a1c30a4868464736f6c63430008140033",
  "linkReferences": {
    "poseidon-solidity/PoseidonT4.sol": {
      "PoseidonT4": [
        {
          "length": 20,
          "start": 14824
        }
      ]
    }
  },
  "deployedLinkReferences": {
    "poseidon-solidity/PoseidonT4.sol": {
      "PoseidonT4": [
        {
          "length": 20,
          "start": 13900
        }
      ]
    }
  }
}