{
  "_format": "hh-sol-artifact-1",
  "contractName": "DeepFamily",
  "sourceName": "contracts/DeepFamily.sol",
  "abi": [
    {
      "inputs": [
        {
          "internalType": "address",
          "name": "_deepFamilyTokenContract",
          "type": "address"
        },
        {
          "internalType": "address",
          "name": "_personHashVerifier",
          "type": "address"
        }
      ],
      "stateMutability": "nonpayable",
      "type": "constructor"
    },
    {
      "inputs": [],
      "name": "BasicInfoMismatch",
      "type": "error"
    },
    {
      "inputs": [],
      "name": "ChunkHashMismatch",
      "type": "error"
    },
    {
      "inputs": [],
      "name": "ChunkIndexOutOfRange",
      "type": "error"
    },
    {
      "inputs": [],
      "name": "DirectETHNotAccepted",
      "type": "error"
    },
    {
      "inputs": [],
      "name": "DuplicateVersion",
      "type": "error"
    },
    {
      "inputs": [],
      "name": "ERC721EnumerableForbiddenBatchMint",
      "type": "error"
    },
    {
      "inputs": [
        {
          "internalType": "address",
          "name": "sender",
          "type": "address"
        },
        {
          "internalType": "uint256",
          "name": "tokenId",
          "type": "uint256"
        },
        {
          "internalType": "address",
          "name": "owner",
          "type": "address"
        }
      ],
      "name": "ERC721IncorrectOwner",
      "type": "error"
    },
    {
      "inputs": [
        {
          "internalType": "address",
          "name": "operator",
          "type": "address"
        },
        {
          "internalType": "uint256",
          "name": "tokenId",
          "type": "uint256"
        }
      ],
      "name": "ERC721InsufficientApproval",
      "type": "error"
    },
    {
      "inputs": [
        {
          "internalType": "address",
          "name": "approver",
          "type": "address"
        }
      ],
      "name": "ERC721InvalidApprover",
      "type": "error"
    },
    {
      "inputs": [
        {
          "internalType": "address",
          "name": "operator",
          "type": "address"
        }
      ],
      "name": "ERC721InvalidOperator",
      "type": "error"
    },
    {
      "inputs": [
        {
          "internalType": "address",
          "name": "owner",
          "type": "address"
        }
      ],
      "name": "ERC721InvalidOwner",
      "type": "error"
    },
    {
      "inputs": [
        {
          "internalType": "address",
          "name": "receiver",
          "type": "address"
        }
      ],
      "name": "ERC721InvalidReceiver",
      "type": "error"
    },
    {
      "inputs": [
        {
          "internalType": "address",
          "name": "sender",
          "type": "address"
        }
      ],
      "name": "ERC721InvalidSender",
      "type": "error"
    },
    {
      "inputs": [
        {
          "internalType": "uint256",
          "name": "tokenId",
          "type": "uint256"
        }
      ],
      "name": "ERC721NonexistentToken",
      "type": "error"
    },
    {
      "inputs": [
        {
          "internalType": "address",
          "name": "owner",
          "type": "address"
        },
        {
          "internalType": "uint256",
          "name": "index",
          "type": "uint256"
        }
      ],
      "name": "ERC721OutOfBoundsIndex",
      "type": "error"
    },
    {
      "inputs": [],
      "name": "EndorsementFeeTransferFailed",
      "type": "error"
    },
    {
      "inputs": [],
      "name": "InvalidBirthDay",
      "type": "error"
    },
    {
      "inputs": [],
      "name": "InvalidBirthMonth",
      "type": "error"
    },
    {
      "inputs": [],
      "name": "InvalidBirthPlace",
      "type": "error"
    },
    {
      "inputs": [],
      "name": "InvalidCIDLength",
      "type": "error"
    },
    {
      "inputs": [],
      "name": "InvalidChunkContent",
      "type": "error"
    },
    {
      "inputs": [],
      "name": "InvalidDeathPlace",
      "type": "error"
    },
    {
      "inputs": [],
      "name": "InvalidFatherVersionIndex",
      "type": "error"
    },
    {
      "inputs": [],
      "name": "InvalidFullName",
      "type": "error"
    },
    {
      "inputs": [],
      "name": "InvalidMotherVersionIndex",
      "type": "error"
    },
    {
      "inputs": [],
      "name": "InvalidPersonHash",
      "type": "error"
    },
    {
      "inputs": [],
      "name": "InvalidStory",
      "type": "error"
    },
    {
      "inputs": [],
      "name": "InvalidTagLength",
      "type": "error"
    },
    {
      "inputs": [],
      "name": "InvalidTokenId",
      "type": "error"
    },
    {
      "inputs": [],
      "name": "InvalidTokenURI",
      "type": "error"
    },
    {
      "inputs": [],
      "name": "InvalidVersionIndex",
      "type": "error"
    },
    {
      "inputs": [],
      "name": "InvalidZKProof",
      "type": "error"
    },
    {
      "inputs": [],
      "name": "MustBeNFTHolder",
      "type": "error"
    },
    {
      "inputs": [],
      "name": "MustEndorseVersionFirst",
      "type": "error"
    },
    {
      "inputs": [
        {
          "internalType": "address",
          "name": "owner",
          "type": "address"
        }
      ],
      "name": "OwnableInvalidOwner",
      "type": "error"
    },
    {
      "inputs": [
        {
          "internalType": "address",
          "name": "account",
          "type": "address"
        }
      ],
      "name": "OwnableUnauthorizedAccount",
      "type": "error"
    },
    {
      "inputs": [],
      "name": "PageSizeExceedsLimit",
      "type": "error"
    },
    {
      "inputs": [],
      "name": "ReentrancyGuardReentrantCall",
      "type": "error"
    },
    {
      "inputs": [],
      "name": "StoryAlreadySealed",
      "type": "error"
    },
    {
      "inputs": [],
      "name": "StoryNotFound",
      "type": "error"
    },
    {
      "inputs": [],
      "name": "TokenContractNotSet",
      "type": "error"
    },
    {
      "inputs": [],
      "name": "VerifierNotSet",
      "type": "error"
    },
    {
      "inputs": [],
      "name": "VersionAlreadyMinted",
      "type": "error"
    },
    {
      "anonymous": false,
      "inputs": [
        {
          "indexed": true,
          "internalType": "address",
          "name": "owner",
          "type": "address"
        },
        {
          "indexed": true,
          "internalType": "address",
          "name": "approved",
          "type": "address"
        },
        {
          "indexed": true,
          "internalType": "uint256",
          "name": "tokenId",
          "type": "uint256"
        }
      ],
      "name": "Approval",
      "type": "event"
    },
    {
      "anonymous": false,
      "inputs": [
        {
          "indexed": true,
          "internalType": "address",
          "name": "owner",
          "type": "address"
        },
        {
          "indexed": true,
          "internalType": "address",
          "name": "operator",
          "type": "address"
        },
        {
          "indexed": false,
          "internalType": "bool",
          "name": "approved",
          "type": "bool"
        }
      ],
      "name": "ApprovalForAll",
      "type": "event"
    },
    {
      "anonymous": false,
      "inputs": [
        {
          "indexed": true,
          "internalType": "address",
          "name": "previousOwner",
          "type": "address"
        },
        {
          "indexed": true,
          "internalType": "address",
          "name": "newOwner",
          "type": "address"
        }
      ],
      "name": "OwnershipTransferred",
      "type": "event"
    },
    {
      "anonymous": false,
      "inputs": [
        {
          "indexed": true,
          "internalType": "bytes32",
          "name": "personHash",
          "type": "bytes32"
        },
        {
          "indexed": true,
          "internalType": "address",
          "name": "prover",
          "type": "address"
        }
      ],
      "name": "PersonHashZKVerified",
      "type": "event"
    },
    {
      "anonymous": false,
      "inputs": [
        {
          "indexed": true,
          "internalType": "bytes32",
          "name": "personHash",
          "type": "bytes32"
        },
        {
          "indexed": true,
          "internalType": "uint256",
          "name": "tokenId",
          "type": "uint256"
        },
        {
          "indexed": true,
          "internalType": "address",
          "name": "owner",
          "type": "address"
        },
        {
          "indexed": false,
          "internalType": "uint256",
          "name": "versionIndex",
          "type": "uint256"
        },
        {
          "indexed": false,
          "internalType": "string",
          "name": "tokenURI",
          "type": "string"
        },
        {
          "indexed": false,
          "internalType": "uint256",
          "name": "timestamp",
          "type": "uint256"
        }
      ],
      "name": "PersonNFTMinted",
      "type": "event"
    },
    {
      "anonymous": false,
      "inputs": [
        {
          "indexed": true,
          "internalType": "bytes32",
          "name": "personHash",
          "type": "bytes32"
        },
        {
          "indexed": true,
          "internalType": "uint256",
          "name": "versionIndex",
          "type": "uint256"
        },
        {
          "indexed": true,
          "internalType": "address",
          "name": "addedBy",
          "type": "address"
        },
        {
          "indexed": false,
          "internalType": "uint256",
          "name": "timestamp",
          "type": "uint256"
        },
        {
          "indexed": false,
          "internalType": "bytes32",
          "name": "fatherHash",
          "type": "bytes32"
        },
        {
          "indexed": false,
          "internalType": "uint256",
          "name": "fatherVersionIndex",
          "type": "uint256"
        },
        {
          "indexed": false,
          "internalType": "bytes32",
          "name": "motherHash",
          "type": "bytes32"
        },
        {
          "indexed": false,
          "internalType": "uint256",
          "name": "motherVersionIndex",
          "type": "uint256"
        },
        {
          "indexed": false,
          "internalType": "string",
          "name": "tag",
          "type": "string"
        }
      ],
      "name": "PersonVersionAdded",
      "type": "event"
    },
    {
      "anonymous": false,
      "inputs": [
        {
          "indexed": true,
          "internalType": "bytes32",
          "name": "personHash",
          "type": "bytes32"
        },
        {
          "indexed": true,
          "internalType": "address",
          "name": "endorser",
          "type": "address"
        },
        {
          "indexed": false,
          "internalType": "uint256",
          "name": "versionIndex",
          "type": "uint256"
        },
        {
          "indexed": false,
          "internalType": "uint256",
          "name": "endorsementFee",
          "type": "uint256"
        },
        {
          "indexed": false,
          "internalType": "uint256",
          "name": "timestamp",
          "type": "uint256"
        }
      ],
      "name": "PersonVersionEndorsed",
      "type": "event"
    },
    {
      "anonymous": false,
      "inputs": [
        {
          "indexed": true,
          "internalType": "uint256",
          "name": "tokenId",
          "type": "uint256"
        },
        {
          "indexed": true,
          "internalType": "uint256",
          "name": "chunkIndex",
          "type": "uint256"
        },
        {
          "indexed": false,
          "internalType": "bytes32",
          "name": "chunkHash",
          "type": "bytes32"
        },
        {
          "indexed": true,
          "internalType": "address",
          "name": "editor",
          "type": "address"
        },
        {
          "indexed": false,
          "internalType": "uint256",
          "name": "contentLength",
          "type": "uint256"
        }
      ],
      "name": "StoryChunkAdded",
      "type": "event"
    },
    {
      "anonymous": false,
      "inputs": [
        {
          "indexed": true,
          "internalType": "uint256",
          "name": "tokenId",
          "type": "uint256"
        },
        {
          "indexed": true,
          "internalType": "uint256",
          "name": "chunkIndex",
          "type": "uint256"
        },
        {
          "indexed": false,
          "internalType": "bytes32",
          "name": "oldHash",
          "type": "bytes32"
        },
        {
          "indexed": false,
          "internalType": "bytes32",
          "name": "newHash",
          "type": "bytes32"
        },
        {
          "indexed": true,
          "internalType": "address",
          "name": "editor",
          "type": "address"
        }
      ],
      "name": "StoryChunkUpdated",
      "type": "event"
    },
    {
      "anonymous": false,
      "inputs": [
        {
          "indexed": true,
          "internalType": "uint256",
          "name": "tokenId",
          "type": "uint256"
        },
        {
          "indexed": false,
          "internalType": "uint256",
          "name": "totalChunks",
          "type": "uint256"
        },
        {
          "indexed": false,
          "internalType": "bytes32",
          "name": "fullStoryHash",
          "type": "bytes32"
        },
        {
          "indexed": true,
          "internalType": "address",
          "name": "sealer",
          "type": "address"
        }
      ],
      "name": "StorySealed",
      "type": "event"
    },
    {
      "anonymous": false,
      "inputs": [
        {
          "indexed": true,
          "internalType": "address",
          "name": "miner",
          "type": "address"
        },
        {
          "indexed": true,
          "internalType": "bytes32",
          "name": "personHash",
          "type": "bytes32"
        },
        {
          "indexed": true,
          "internalType": "uint256",
          "name": "versionIndex",
          "type": "uint256"
        },
        {
          "indexed": false,
          "internalType": "uint256",
          "name": "reward",
          "type": "uint256"
        }
      ],
      "name": "TokenRewardDistributed",
      "type": "event"
    },
    {
      "anonymous": false,
      "inputs": [
        {
          "indexed": true,
          "internalType": "uint256",
          "name": "tokenId",
          "type": "uint256"
        },
        {
          "indexed": true,
          "internalType": "address",
          "name": "owner",
          "type": "address"
        },
        {
          "indexed": false,
          "internalType": "string",
          "name": "oldURI",
          "type": "string"
        },
        {
          "indexed": false,
          "internalType": "string",
          "name": "newURI",
          "type": "string"
        }
      ],
      "name": "TokenURIUpdated",
      "type": "event"
    },
    {
      "anonymous": false,
      "inputs": [
        {
          "indexed": true,
          "internalType": "address",
          "name": "from",
          "type": "address"
        },
        {
          "indexed": true,
          "internalType": "address",
          "name": "to",
          "type": "address"
        },
        {
          "indexed": true,
          "internalType": "uint256",
          "name": "tokenId",
          "type": "uint256"
        }
      ],
      "name": "Transfer",
      "type": "event"
    },
    {
      "stateMutability": "payable",
      "type": "fallback"
    },
    {
      "inputs": [],
      "name": "DEEP_FAMILY_TOKEN_CONTRACT",
      "outputs": [
        {
          "internalType": "address",
          "name": "",
          "type": "address"
        }
      ],
      "stateMutability": "view",
      "type": "function"
    },
    {
      "inputs": [],
      "name": "MAX_CHUNK_CONTENT_LENGTH",
      "outputs": [
        {
          "internalType": "uint256",
          "name": "",
          "type": "uint256"
        }
      ],
      "stateMutability": "view",
      "type": "function"
    },
    {
      "inputs": [],
      "name": "MAX_LONG_TEXT_LENGTH",
      "outputs": [
        {
          "internalType": "uint256",
          "name": "",
          "type": "uint256"
        }
      ],
      "stateMutability": "view",
      "type": "function"
    },
    {
      "inputs": [],
      "name": "MAX_QUERY_PAGE_SIZE",
      "outputs": [
        {
          "internalType": "uint256",
          "name": "",
          "type": "uint256"
        }
      ],
      "stateMutability": "view",
      "type": "function"
    },
    {
      "inputs": [],
      "name": "MAX_STORY_CHUNKS",
      "outputs": [
        {
          "internalType": "uint256",
          "name": "",
          "type": "uint256"
        }
      ],
      "stateMutability": "view",
      "type": "function"
    },
    {
      "inputs": [],
      "name": "PERSON_HASH_VERIFIER",
      "outputs": [
        {
          "internalType": "address",
          "name": "",
          "type": "address"
        }
      ],
      "stateMutability": "view",
      "type": "function"
    },
    {
      "inputs": [
        {
          "internalType": "uint256",
          "name": "",
          "type": "uint256"
        },
        {
          "internalType": "uint256",
          "name": "",
          "type": "uint256"
        }
      ],
      "name": "activeChunkIndices",
      "outputs": [
        {
          "internalType": "uint256",
          "name": "",
          "type": "uint256"
        }
      ],
      "stateMutability": "view",
      "type": "function"
    },
    {
      "inputs": [
        {
          "internalType": "bytes32",
          "name": "personHash",
          "type": "bytes32"
        },
        {
          "internalType": "bytes32",
          "name": "fatherHash",
          "type": "bytes32"
        },
        {
          "internalType": "bytes32",
          "name": "motherHash",
          "type": "bytes32"
        },
        {
          "internalType": "uint256",
          "name": "fatherVersionIndex",
          "type": "uint256"
        },
        {
          "internalType": "uint256",
          "name": "motherVersionIndex",
          "type": "uint256"
        },
        {
          "internalType": "string",
          "name": "tag",
          "type": "string"
        },
        {
          "internalType": "string",
          "name": "metadataCID",
          "type": "string"
        }
      ],
      "name": "addPerson",
      "outputs": [],
      "stateMutability": "nonpayable",
      "type": "function"
    },
    {
      "inputs": [
        {
          "internalType": "uint256[2]",
          "name": "a",
          "type": "uint256[2]"
        },
        {
          "internalType": "uint256[2][2]",
          "name": "b",
          "type": "uint256[2][2]"
        },
        {
          "internalType": "uint256[2]",
          "name": "c",
          "type": "uint256[2]"
        },
        {
          "internalType": "uint256[]",
          "name": "publicSignals",
          "type": "uint256[]"
        },
        {
          "internalType": "uint256",
          "name": "fatherVersionIndex",
          "type": "uint256"
        },
        {
          "internalType": "uint256",
          "name": "motherVersionIndex",
          "type": "uint256"
        },
        {
          "internalType": "string",
          "name": "tag",
          "type": "string"
        },
        {
          "internalType": "string",
          "name": "metadataCID",
          "type": "string"
        }
      ],
      "name": "addPersonZK",
      "outputs": [],
      "stateMutability": "nonpayable",
      "type": "function"
    },
    {
      "inputs": [
        {
          "internalType": "uint256",
          "name": "tokenId",
          "type": "uint256"
        },
        {
          "internalType": "uint256",
          "name": "chunkIndex",
          "type": "uint256"
        },
        {
          "internalType": "string",
          "name": "content",
          "type": "string"
        },
        {
          "internalType": "bytes32",
          "name": "expectedHash",
          "type": "bytes32"
        }
      ],
      "name": "addStoryChunk",
      "outputs": [],
      "stateMutability": "nonpayable",
      "type": "function"
    },
    {
      "inputs": [
        {
          "internalType": "address",
          "name": "to",
          "type": "address"
        },
        {
          "internalType": "uint256",
          "name": "tokenId",
          "type": "uint256"
        }
      ],
      "name": "approve",
      "outputs": [],
      "stateMutability": "nonpayable",
      "type": "function"
    },
    {
      "inputs": [
        {
          "internalType": "address",
          "name": "owner",
          "type": "address"
        }
      ],
      "name": "balanceOf",
      "outputs": [
        {
          "internalType": "uint256",
          "name": "",
          "type": "uint256"
        }
      ],
      "stateMutability": "view",
      "type": "function"
    },
    {
      "inputs": [
        {
          "internalType": "bytes32",
          "name": "",
          "type": "bytes32"
        },
        {
          "internalType": "uint256",
          "name": "",
          "type": "uint256"
        },
        {
          "internalType": "uint256",
          "name": "",
          "type": "uint256"
        }
      ],
      "name": "childrenOf",
      "outputs": [
        {
          "internalType": "bytes32",
          "name": "childHash",
          "type": "bytes32"
        },
        {
          "internalType": "uint256",
          "name": "childVersionIndex",
          "type": "uint256"
        }
      ],
      "stateMutability": "view",
      "type": "function"
    },
    {
      "inputs": [
        {
          "internalType": "bytes32",
          "name": "personHash",
          "type": "bytes32"
        }
      ],
      "name": "countPersonVersions",
      "outputs": [
        {
          "internalType": "uint256",
          "name": "versionCount",
          "type": "uint256"
        }
      ],
      "stateMutability": "view",
      "type": "function"
    },
    {
      "inputs": [
        {
          "internalType": "bytes32",
          "name": "personHash",
          "type": "bytes32"
        },
        {
          "internalType": "uint256",
          "name": "versionIndex",
          "type": "uint256"
        }
      ],
      "name": "endorseVersion",
      "outputs": [],
      "stateMutability": "nonpayable",
      "type": "function"
    },
    {
      "inputs": [
        {
          "internalType": "bytes32",
          "name": "",
          "type": "bytes32"
        },
        {
          "internalType": "address",
          "name": "",
          "type": "address"
        }
      ],
      "name": "endorsedVersionIndex",
      "outputs": [
        {
          "internalType": "uint256",
          "name": "",
          "type": "uint256"
        }
      ],
      "stateMutability": "view",
      "type": "function"
    },
    {
      "inputs": [
        {
          "internalType": "uint256",
          "name": "tokenId",
          "type": "uint256"
        }
      ],
      "name": "getApproved",
      "outputs": [
        {
          "internalType": "address",
          "name": "",
          "type": "address"
        }
      ],
      "stateMutability": "view",
      "type": "function"
    },
    {
      "inputs": [
        {
          "internalType": "string",
          "name": "fullName",
          "type": "string"
        }
      ],
      "name": "getFullNameHash",
      "outputs": [
        {
          "internalType": "bytes32",
          "name": "",
          "type": "bytes32"
        }
      ],
      "stateMutability": "pure",
      "type": "function"
    },
    {
      "inputs": [
        {
          "internalType": "uint256",
          "name": "tokenId",
          "type": "uint256"
        }
      ],
      "name": "getNFTDetails",
      "outputs": [
        {
          "internalType": "bytes32",
          "name": "personHash",
          "type": "bytes32"
        },
        {
          "internalType": "uint256",
          "name": "versionIndex",
          "type": "uint256"
        },
        {
          "components": [
            {
              "internalType": "bytes32",
              "name": "personHash",
              "type": "bytes32"
            },
            {
              "internalType": "bytes32",
              "name": "fatherHash",
              "type": "bytes32"
            },
            {
              "internalType": "bytes32",
              "name": "motherHash",
              "type": "bytes32"
            },
            {
              "internalType": "uint256",
              "name": "versionIndex",
              "type": "uint256"
            },
            {
              "internalType": "uint256",
              "name": "fatherVersionIndex",
              "type": "uint256"
            },
            {
              "internalType": "uint256",
              "name": "motherVersionIndex",
              "type": "uint256"
            },
            {
              "internalType": "address",
              "name": "addedBy",
              "type": "address"
            },
            {
              "internalType": "uint96",
              "name": "timestamp",
              "type": "uint96"
            },
            {
              "internalType": "string",
              "name": "tag",
              "type": "string"
            },
            {
              "internalType": "string",
              "name": "metadataCID",
              "type": "string"
            }
          ],
          "internalType": "struct DeepFamily.PersonVersion",
          "name": "version",
          "type": "tuple"
        },
        {
          "components": [
            {
              "components": [
                {
                  "internalType": "bytes32",
                  "name": "fullNameHash",
                  "type": "bytes32"
                },
                {
                  "internalType": "bool",
                  "name": "isBirthBC",
                  "type": "bool"
                },
                {
                  "internalType": "uint16",
                  "name": "birthYear",
                  "type": "uint16"
                },
                {
                  "internalType": "uint8",
                  "name": "birthMonth",
                  "type": "uint8"
                },
                {
                  "internalType": "uint8",
                  "name": "birthDay",
                  "type": "uint8"
                },
                {
                  "internalType": "uint8",
                  "name": "gender",
                  "type": "uint8"
                }
              ],
              "internalType": "struct DeepFamily.PersonBasicInfo",
              "name": "basicInfo",
              "type": "tuple"
            },
            {
              "components": [
                {
                  "internalType": "string",
                  "name": "fullName",
                  "type": "string"
                },
                {
                  "internalType": "string",
                  "name": "birthPlace",
                  "type": "string"
                },
                {
                  "internalType": "bool",
                  "name": "isDeathBC",
                  "type": "bool"
                },
                {
                  "internalType": "uint16",
                  "name": "deathYear",
                  "type": "uint16"
                },
                {
                  "internalType": "uint8",
                  "name": "deathMonth",
                  "type": "uint8"
                },
                {
                  "internalType": "uint8",
                  "name": "deathDay",
                  "type": "uint8"
                },
                {
                  "internalType": "string",
                  "name": "deathPlace",
                  "type": "string"
                },
                {
                  "internalType": "string",
                  "name": "story",
                  "type": "string"
                }
              ],
              "internalType": "struct DeepFamily.PersonSupplementInfo",
              "name": "supplementInfo",
              "type": "tuple"
            }
          ],
          "internalType": "struct DeepFamily.PersonCoreInfo",
          "name": "coreInfo",
          "type": "tuple"
        },
        {
          "internalType": "uint256",
          "name": "endorsementCount",
          "type": "uint256"
        },
        {
          "internalType": "string",
          "name": "nftTokenURI",
          "type": "string"
        }
      ],
      "stateMutability": "view",
      "type": "function"
    },
    {
      "inputs": [
        {
          "components": [
            {
              "internalType": "bytes32",
              "name": "fullNameHash",
              "type": "bytes32"
            },
            {
              "internalType": "bool",
              "name": "isBirthBC",
              "type": "bool"
            },
            {
              "internalType": "uint16",
              "name": "birthYear",
              "type": "uint16"
            },
            {
              "internalType": "uint8",
              "name": "birthMonth",
              "type": "uint8"
            },
            {
              "internalType": "uint8",
              "name": "birthDay",
              "type": "uint8"
            },
            {
              "internalType": "uint8",
              "name": "gender",
              "type": "uint8"
            }
          ],
          "internalType": "struct DeepFamily.PersonBasicInfo",
          "name": "basicInfo",
          "type": "tuple"
        }
      ],
      "name": "getPersonHash",
      "outputs": [
        {
          "internalType": "bytes32",
          "name": "",
          "type": "bytes32"
        }
      ],
      "stateMutability": "pure",
      "type": "function"
    },
    {
      "inputs": [
        {
          "internalType": "uint256",
          "name": "tokenId",
          "type": "uint256"
        },
        {
          "internalType": "uint256",
          "name": "chunkIndex",
          "type": "uint256"
        }
      ],
      "name": "getStoryChunk",
      "outputs": [
        {
          "components": [
            {
              "internalType": "uint256",
              "name": "chunkIndex",
              "type": "uint256"
            },
            {
              "internalType": "bytes32",
              "name": "chunkHash",
              "type": "bytes32"
            },
            {
              "internalType": "string",
              "name": "content",
              "type": "string"
            },
            {
              "internalType": "uint256",
              "name": "timestamp",
              "type": "uint256"
            },
            {
              "internalType": "address",
              "name": "lastEditor",
              "type": "address"
            }
          ],
          "internalType": "struct DeepFamily.StoryChunk",
          "name": "chunk",
          "type": "tuple"
        }
      ],
      "stateMutability": "view",
      "type": "function"
    },
    {
      "inputs": [
        {
          "internalType": "uint256",
          "name": "tokenId",
          "type": "uint256"
        }
      ],
      "name": "getStoryMetadata",
      "outputs": [
        {
          "components": [
            {
              "internalType": "uint256",
              "name": "totalChunks",
              "type": "uint256"
            },
            {
              "internalType": "bytes32",
              "name": "fullStoryHash",
              "type": "bytes32"
            },
            {
              "internalType": "uint256",
              "name": "lastUpdateTime",
              "type": "uint256"
            },
            {
              "internalType": "bool",
              "name": "isSealed",
              "type": "bool"
            },
            {
              "internalType": "uint256",
              "name": "totalLength",
              "type": "uint256"
            }
          ],
          "internalType": "struct DeepFamily.StoryMetadata",
          "name": "metadata",
          "type": "tuple"
        }
      ],
      "stateMutability": "view",
      "type": "function"
    },
    {
      "inputs": [
        {
          "internalType": "bytes32",
          "name": "personHash",
          "type": "bytes32"
        },
        {
          "internalType": "uint256",
          "name": "versionIndex",
          "type": "uint256"
        }
      ],
      "name": "getVersionDetails",
      "outputs": [
        {
          "components": [
            {
              "internalType": "bytes32",
              "name": "personHash",
              "type": "bytes32"
            },
            {
              "internalType": "bytes32",
              "name": "fatherHash",
              "type": "bytes32"
            },
            {
              "internalType": "bytes32",
              "name": "motherHash",
              "type": "bytes32"
            },
            {
              "internalType": "uint256",
              "name": "versionIndex",
              "type": "uint256"
            },
            {
              "internalType": "uint256",
              "name": "fatherVersionIndex",
              "type": "uint256"
            },
            {
              "internalType": "uint256",
              "name": "motherVersionIndex",
              "type": "uint256"
            },
            {
              "internalType": "address",
              "name": "addedBy",
              "type": "address"
            },
            {
              "internalType": "uint96",
              "name": "timestamp",
              "type": "uint96"
            },
            {
              "internalType": "string",
              "name": "tag",
              "type": "string"
            },
            {
              "internalType": "string",
              "name": "metadataCID",
              "type": "string"
            }
          ],
          "internalType": "struct DeepFamily.PersonVersion",
          "name": "version",
          "type": "tuple"
        },
        {
          "internalType": "uint256",
          "name": "endorsementCount",
          "type": "uint256"
        },
        {
          "internalType": "uint256",
          "name": "tokenId",
          "type": "uint256"
        }
      ],
      "stateMutability": "view",
      "type": "function"
    },
    {
      "inputs": [
        {
          "internalType": "address",
          "name": "owner",
          "type": "address"
        },
        {
          "internalType": "address",
          "name": "operator",
          "type": "address"
        }
      ],
      "name": "isApprovedForAll",
      "outputs": [
        {
          "internalType": "bool",
          "name": "",
          "type": "bool"
        }
      ],
      "stateMutability": "view",
      "type": "function"
    },
    {
      "inputs": [
        {
          "internalType": "bytes32",
          "name": "parentHash",
          "type": "bytes32"
        },
        {
          "internalType": "uint256",
          "name": "parentVersionIndex",
          "type": "uint256"
        },
        {
          "internalType": "uint256",
          "name": "offset",
          "type": "uint256"
        },
        {
          "internalType": "uint256",
          "name": "limit",
          "type": "uint256"
        }
      ],
      "name": "listChildren",
      "outputs": [
        {
          "internalType": "bytes32[]",
          "name": "childHashes",
          "type": "bytes32[]"
        },
        {
          "internalType": "uint256[]",
          "name": "childVersionIndices",
          "type": "uint256[]"
        },
        {
          "internalType": "uint256",
          "name": "totalCount",
          "type": "uint256"
        },
        {
          "internalType": "bool",
          "name": "hasMore",
          "type": "bool"
        },
        {
          "internalType": "uint256",
          "name": "nextOffset",
          "type": "uint256"
        }
      ],
      "stateMutability": "view",
      "type": "function"
    },
    {
      "inputs": [
        {
          "internalType": "bytes32",
          "name": "personHash",
          "type": "bytes32"
        },
        {
          "internalType": "uint256",
          "name": "offset",
          "type": "uint256"
        },
        {
          "internalType": "uint256",
          "name": "limit",
          "type": "uint256"
        }
      ],
      "name": "listPersonVersions",
      "outputs": [
        {
          "components": [
            {
              "internalType": "bytes32",
              "name": "personHash",
              "type": "bytes32"
            },
            {
              "internalType": "bytes32",
              "name": "fatherHash",
              "type": "bytes32"
            },
            {
              "internalType": "bytes32",
              "name": "motherHash",
              "type": "bytes32"
            },
            {
              "internalType": "uint256",
              "name": "versionIndex",
              "type": "uint256"
            },
            {
              "internalType": "uint256",
              "name": "fatherVersionIndex",
              "type": "uint256"
            },
            {
              "internalType": "uint256",
              "name": "motherVersionIndex",
              "type": "uint256"
            },
            {
              "internalType": "address",
              "name": "addedBy",
              "type": "address"
            },
            {
              "internalType": "uint96",
              "name": "timestamp",
              "type": "uint96"
            },
            {
              "internalType": "string",
              "name": "tag",
              "type": "string"
            },
            {
              "internalType": "string",
              "name": "metadataCID",
              "type": "string"
            }
          ],
          "internalType": "struct DeepFamily.PersonVersion[]",
          "name": "versions",
          "type": "tuple[]"
        },
        {
          "internalType": "uint256",
          "name": "totalVersions",
          "type": "uint256"
        },
        {
          "internalType": "bool",
          "name": "hasMore",
          "type": "bool"
        },
        {
          "internalType": "uint256",
          "name": "nextOffset",
          "type": "uint256"
        }
      ],
      "stateMutability": "view",
      "type": "function"
    },
    {
      "inputs": [
        {
          "internalType": "uint256",
          "name": "tokenId",
          "type": "uint256"
        },
        {
          "internalType": "uint256",
          "name": "offset",
          "type": "uint256"
        },
        {
          "internalType": "uint256",
          "name": "limit",
          "type": "uint256"
        }
      ],
      "name": "listStoryChunks",
      "outputs": [
        {
          "components": [
            {
              "internalType": "uint256",
              "name": "chunkIndex",
              "type": "uint256"
            },
            {
              "internalType": "bytes32",
              "name": "chunkHash",
              "type": "bytes32"
            },
            {
              "internalType": "string",
              "name": "content",
              "type": "string"
            },
            {
              "internalType": "uint256",
              "name": "timestamp",
              "type": "uint256"
            },
            {
              "internalType": "address",
              "name": "lastEditor",
              "type": "address"
            }
          ],
          "internalType": "struct DeepFamily.StoryChunk[]",
          "name": "chunks",
          "type": "tuple[]"
        },
        {
          "internalType": "uint256",
          "name": "totalChunks",
          "type": "uint256"
        },
        {
          "internalType": "bool",
          "name": "hasMore",
          "type": "bool"
        },
        {
          "internalType": "uint256",
          "name": "nextOffset",
          "type": "uint256"
        }
      ],
      "stateMutability": "view",
      "type": "function"
    },
    {
      "inputs": [
        {
          "internalType": "uint256",
          "name": "tokenId",
          "type": "uint256"
        },
        {
          "internalType": "uint256",
          "name": "offset",
          "type": "uint256"
        },
        {
          "internalType": "uint256",
          "name": "limit",
          "type": "uint256"
        }
      ],
      "name": "listTokenURIHistory",
      "outputs": [
        {
          "internalType": "string[]",
          "name": "uris",
          "type": "string[]"
        },
        {
          "internalType": "uint256",
          "name": "totalCount",
          "type": "uint256"
        },
        {
          "internalType": "bool",
          "name": "hasMore",
          "type": "bool"
        },
        {
          "internalType": "uint256",
          "name": "nextOffset",
          "type": "uint256"
        }
      ],
      "stateMutability": "view",
      "type": "function"
    },
    {
      "inputs": [
        {
          "internalType": "bytes32",
          "name": "personHash",
          "type": "bytes32"
        },
        {
          "internalType": "uint256",
          "name": "offset",
          "type": "uint256"
        },
        {
          "internalType": "uint256",
          "name": "limit",
          "type": "uint256"
        }
      ],
      "name": "listVersionsEndorsementStats",
      "outputs": [
        {
          "internalType": "uint256[]",
          "name": "versionIndices",
          "type": "uint256[]"
        },
        {
          "internalType": "uint256[]",
          "name": "endorsementCounts",
          "type": "uint256[]"
        },
        {
          "internalType": "uint256[]",
          "name": "tokenIds",
          "type": "uint256[]"
        },
        {
          "internalType": "uint256",
          "name": "totalVersions",
          "type": "uint256"
        },
        {
          "internalType": "bool",
          "name": "hasMore",
          "type": "bool"
        },
        {
          "internalType": "uint256",
          "name": "nextOffset",
          "type": "uint256"
        }
      ],
      "stateMutability": "view",
      "type": "function"
    },
    {
      "inputs": [
        {
          "internalType": "bytes32",
          "name": "personHash",
          "type": "bytes32"
        },
        {
          "internalType": "uint256",
          "name": "versionIndex",
          "type": "uint256"
        },
        {
          "internalType": "string",
          "name": "_tokenURI",
          "type": "string"
        },
        {
          "components": [
            {
              "components": [
                {
                  "internalType": "bytes32",
                  "name": "fullNameHash",
                  "type": "bytes32"
                },
                {
                  "internalType": "bool",
                  "name": "isBirthBC",
                  "type": "bool"
                },
                {
                  "internalType": "uint16",
                  "name": "birthYear",
                  "type": "uint16"
                },
                {
                  "internalType": "uint8",
                  "name": "birthMonth",
                  "type": "uint8"
                },
                {
                  "internalType": "uint8",
                  "name": "birthDay",
                  "type": "uint8"
                },
                {
                  "internalType": "uint8",
                  "name": "gender",
                  "type": "uint8"
                }
              ],
              "internalType": "struct DeepFamily.PersonBasicInfo",
              "name": "basicInfo",
              "type": "tuple"
            },
            {
              "components": [
                {
                  "internalType": "string",
                  "name": "fullName",
                  "type": "string"
                },
                {
                  "internalType": "string",
                  "name": "birthPlace",
                  "type": "string"
                },
                {
                  "internalType": "bool",
                  "name": "isDeathBC",
                  "type": "bool"
                },
                {
                  "internalType": "uint16",
                  "name": "deathYear",
                  "type": "uint16"
                },
                {
                  "internalType": "uint8",
                  "name": "deathMonth",
                  "type": "uint8"
                },
                {
                  "internalType": "uint8",
                  "name": "deathDay",
                  "type": "uint8"
                },
                {
                  "internalType": "string",
                  "name": "deathPlace",
                  "type": "string"
                },
                {
                  "internalType": "string",
                  "name": "story",
                  "type": "string"
                }
              ],
              "internalType": "struct DeepFamily.PersonSupplementInfo",
              "name": "supplementInfo",
              "type": "tuple"
            }
          ],
          "internalType": "struct DeepFamily.PersonCoreInfo",
          "name": "coreInfo",
          "type": "tuple"
        }
      ],
      "name": "mintPersonNFT",
      "outputs": [],
      "stateMutability": "nonpayable",
      "type": "function"
    },
    {
      "inputs": [],
      "name": "name",
      "outputs": [
        {
          "internalType": "string",
          "name": "",
          "type": "string"
        }
      ],
      "stateMutability": "view",
      "type": "function"
    },
    {
      "inputs": [
        {
          "internalType": "uint256",
          "name": "",
          "type": "uint256"
        }
      ],
      "name": "nftCoreInfo",
      "outputs": [
        {
          "components": [
            {
              "internalType": "bytes32",
              "name": "fullNameHash",
              "type": "bytes32"
            },
            {
              "internalType": "bool",
              "name": "isBirthBC",
              "type": "bool"
            },
            {
              "internalType": "uint16",
              "name": "birthYear",
              "type": "uint16"
            },
            {
              "internalType": "uint8",
              "name": "birthMonth",
              "type": "uint8"
            },
            {
              "internalType": "uint8",
              "name": "birthDay",
              "type": "uint8"
            },
            {
              "internalType": "uint8",
              "name": "gender",
              "type": "uint8"
            }
          ],
          "internalType": "struct DeepFamily.PersonBasicInfo",
          "name": "basicInfo",
          "type": "tuple"
        },
        {
          "components": [
            {
              "internalType": "string",
              "name": "fullName",
              "type": "string"
            },
            {
              "internalType": "string",
              "name": "birthPlace",
              "type": "string"
            },
            {
              "internalType": "bool",
              "name": "isDeathBC",
              "type": "bool"
            },
            {
              "internalType": "uint16",
              "name": "deathYear",
              "type": "uint16"
            },
            {
              "internalType": "uint8",
              "name": "deathMonth",
              "type": "uint8"
            },
            {
              "internalType": "uint8",
              "name": "deathDay",
              "type": "uint8"
            },
            {
              "internalType": "string",
              "name": "deathPlace",
              "type": "string"
            },
            {
              "internalType": "string",
              "name": "story",
              "type": "string"
            }
          ],
          "internalType": "struct DeepFamily.PersonSupplementInfo",
          "name": "supplementInfo",
          "type": "tuple"
        }
      ],
      "stateMutability": "view",
      "type": "function"
    },
    {
      "inputs": [],
      "name": "owner",
      "outputs": [
        {
          "internalType": "address",
          "name": "",
          "type": "address"
        }
      ],
      "stateMutability": "view",
      "type": "function"
    },
    {
      "inputs": [
        {
          "internalType": "uint256",
          "name": "tokenId",
          "type": "uint256"
        }
      ],
      "name": "ownerOf",
      "outputs": [
        {
          "internalType": "address",
          "name": "",
          "type": "address"
        }
      ],
      "stateMutability": "view",
      "type": "function"
    },
    {
      "inputs": [
        {
          "internalType": "bytes32",
          "name": "",
          "type": "bytes32"
        },
        {
          "internalType": "uint256",
          "name": "",
          "type": "uint256"
        }
      ],
      "name": "personVersions",
      "outputs": [
        {
          "internalType": "bytes32",
          "name": "personHash",
          "type": "bytes32"
        },
        {
          "internalType": "bytes32",
          "name": "fatherHash",
          "type": "bytes32"
        },
        {
          "internalType": "bytes32",
          "name": "motherHash",
          "type": "bytes32"
        },
        {
          "internalType": "uint256",
          "name": "versionIndex",
          "type": "uint256"
        },
        {
          "internalType": "uint256",
          "name": "fatherVersionIndex",
          "type": "uint256"
        },
        {
          "internalType": "uint256",
          "name": "motherVersionIndex",
          "type": "uint256"
        },
        {
          "internalType": "address",
          "name": "addedBy",
          "type": "address"
        },
        {
          "internalType": "uint96",
          "name": "timestamp",
          "type": "uint96"
        },
        {
          "internalType": "string",
          "name": "tag",
          "type": "string"
        },
        {
          "internalType": "string",
          "name": "metadataCID",
          "type": "string"
        }
      ],
      "stateMutability": "view",
      "type": "function"
    },
    {
      "inputs": [],
      "name": "renounceOwnership",
      "outputs": [],
      "stateMutability": "nonpayable",
      "type": "function"
    },
    {
      "inputs": [
        {
          "internalType": "address",
          "name": "from",
          "type": "address"
        },
        {
          "internalType": "address",
          "name": "to",
          "type": "address"
        },
        {
          "internalType": "uint256",
          "name": "tokenId",
          "type": "uint256"
        }
      ],
      "name": "safeTransferFrom",
      "outputs": [],
      "stateMutability": "nonpayable",
      "type": "function"
    },
    {
      "inputs": [
        {
          "internalType": "address",
          "name": "from",
          "type": "address"
        },
        {
          "internalType": "address",
          "name": "to",
          "type": "address"
        },
        {
          "internalType": "uint256",
          "name": "tokenId",
          "type": "uint256"
        },
        {
          "internalType": "bytes",
          "name": "data",
          "type": "bytes"
        }
      ],
      "name": "safeTransferFrom",
      "outputs": [],
      "stateMutability": "nonpayable",
      "type": "function"
    },
    {
      "inputs": [
        {
          "internalType": "uint256",
          "name": "tokenId",
          "type": "uint256"
        }
      ],
      "name": "sealStory",
      "outputs": [],
      "stateMutability": "nonpayable",
      "type": "function"
    },
    {
      "inputs": [
        {
          "internalType": "address",
          "name": "operator",
          "type": "address"
        },
        {
          "internalType": "bool",
          "name": "approved",
          "type": "bool"
        }
      ],
      "name": "setApprovalForAll",
      "outputs": [],
      "stateMutability": "nonpayable",
      "type": "function"
    },
    {
      "inputs": [
        {
          "internalType": "uint256",
          "name": "",
          "type": "uint256"
        },
        {
          "internalType": "uint256",
          "name": "",
          "type": "uint256"
        }
      ],
      "name": "storyChunks",
      "outputs": [
        {
          "internalType": "uint256",
          "name": "chunkIndex",
          "type": "uint256"
        },
        {
          "internalType": "bytes32",
          "name": "chunkHash",
          "type": "bytes32"
        },
        {
          "internalType": "string",
          "name": "content",
          "type": "string"
        },
        {
          "internalType": "uint256",
          "name": "timestamp",
          "type": "uint256"
        },
        {
          "internalType": "address",
          "name": "lastEditor",
          "type": "address"
        }
      ],
      "stateMutability": "view",
      "type": "function"
    },
    {
      "inputs": [
        {
          "internalType": "uint256",
          "name": "",
          "type": "uint256"
        }
      ],
      "name": "storyMetadata",
      "outputs": [
        {
          "internalType": "uint256",
          "name": "totalChunks",
          "type": "uint256"
        },
        {
          "internalType": "bytes32",
          "name": "fullStoryHash",
          "type": "bytes32"
        },
        {
          "internalType": "uint256",
          "name": "lastUpdateTime",
          "type": "uint256"
        },
        {
          "internalType": "bool",
          "name": "isSealed",
          "type": "bool"
        },
        {
          "internalType": "uint256",
          "name": "totalLength",
          "type": "uint256"
        }
      ],
      "stateMutability": "view",
      "type": "function"
    },
    {
      "inputs": [
        {
          "internalType": "bytes4",
          "name": "interfaceId",
          "type": "bytes4"
        }
      ],
      "name": "supportsInterface",
      "outputs": [
        {
          "internalType": "bool",
          "name": "",
          "type": "bool"
        }
      ],
      "stateMutability": "view",
      "type": "function"
    },
    {
      "inputs": [],
      "name": "symbol",
      "outputs": [
        {
          "internalType": "string",
          "name": "",
          "type": "string"
        }
      ],
      "stateMutability": "view",
      "type": "function"
    },
    {
      "inputs": [
        {
          "internalType": "uint256",
          "name": "index",
          "type": "uint256"
        }
      ],
      "name": "tokenByIndex",
      "outputs": [
        {
          "internalType": "uint256",
          "name": "",
          "type": "uint256"
        }
      ],
      "stateMutability": "view",
      "type": "function"
    },
    {
      "inputs": [],
      "name": "tokenCounter",
      "outputs": [
        {
          "internalType": "uint256",
          "name": "",
          "type": "uint256"
        }
      ],
      "stateMutability": "view",
      "type": "function"
    },
    {
      "inputs": [
        {
          "internalType": "uint256",
          "name": "",
          "type": "uint256"
        }
      ],
      "name": "tokenIdToPerson",
      "outputs": [
        {
          "internalType": "bytes32",
          "name": "",
          "type": "bytes32"
        }
      ],
      "stateMutability": "view",
      "type": "function"
    },
    {
      "inputs": [
        {
          "internalType": "uint256",
          "name": "",
          "type": "uint256"
        }
      ],
      "name": "tokenIdToVersionIndex",
      "outputs": [
        {
          "internalType": "uint256",
          "name": "",
          "type": "uint256"
        }
      ],
      "stateMutability": "view",
      "type": "function"
    },
    {
      "inputs": [
        {
          "internalType": "address",
          "name": "owner",
          "type": "address"
        },
        {
          "internalType": "uint256",
          "name": "index",
          "type": "uint256"
        }
      ],
      "name": "tokenOfOwnerByIndex",
      "outputs": [
        {
          "internalType": "uint256",
          "name": "",
          "type": "uint256"
        }
      ],
      "stateMutability": "view",
      "type": "function"
    },
    {
      "inputs": [
        {
          "internalType": "uint256",
          "name": "tokenId",
          "type": "uint256"
        }
      ],
      "name": "tokenURI",
      "outputs": [
        {
          "internalType": "string",
          "name": "",
          "type": "string"
        }
      ],
      "stateMutability": "view",
      "type": "function"
    },
    {
      "inputs": [
        {
          "internalType": "uint256",
          "name": "",
          "type": "uint256"
        },
        {
          "internalType": "uint256",
          "name": "",
          "type": "uint256"
        }
      ],
      "name": "tokenURIHistory",
      "outputs": [
        {
          "internalType": "string",
          "name": "",
          "type": "string"
        }
      ],
      "stateMutability": "view",
      "type": "function"
    },
    {
      "inputs": [],
      "name": "totalPersonsCount",
      "outputs": [
        {
          "internalType": "uint256",
          "name": "",
          "type": "uint256"
        }
      ],
      "stateMutability": "view",
      "type": "function"
    },
    {
      "inputs": [],
      "name": "totalSupply",
      "outputs": [
        {
          "internalType": "uint256",
          "name": "",
          "type": "uint256"
        }
      ],
      "stateMutability": "view",
      "type": "function"
    },
    {
      "inputs": [
        {
          "internalType": "address",
          "name": "from",
          "type": "address"
        },
        {
          "internalType": "address",
          "name": "to",
          "type": "address"
        },
        {
          "internalType": "uint256",
          "name": "tokenId",
          "type": "uint256"
        }
      ],
      "name": "transferFrom",
      "outputs": [],
      "stateMutability": "nonpayable",
      "type": "function"
    },
    {
      "inputs": [
        {
          "internalType": "address",
          "name": "newOwner",
          "type": "address"
        }
      ],
      "name": "transferOwnership",
      "outputs": [],
      "stateMutability": "nonpayable",
      "type": "function"
    },
    {
      "inputs": [
        {
          "internalType": "uint256",
          "name": "tokenId",
          "type": "uint256"
        },
        {
          "internalType": "uint256",
          "name": "chunkIndex",
          "type": "uint256"
        },
        {
          "internalType": "string",
          "name": "newContent",
          "type": "string"
        },
        {
          "internalType": "bytes32",
          "name": "expectedHash",
          "type": "bytes32"
        }
      ],
      "name": "updateStoryChunk",
      "outputs": [],
      "stateMutability": "nonpayable",
      "type": "function"
    },
    {
      "inputs": [
        {
          "internalType": "uint256",
          "name": "tokenId",
          "type": "uint256"
        },
        {
          "internalType": "string",
          "name": "newURI",
          "type": "string"
        }
      ],
      "name": "updateTokenURI",
      "outputs": [],
      "stateMutability": "nonpayable",
      "type": "function"
    },
    {
      "inputs": [
        {
          "internalType": "bytes32",
          "name": "",
          "type": "bytes32"
        },
        {
          "internalType": "uint256",
          "name": "",
          "type": "uint256"
        }
      ],
      "name": "versionEndorsementCount",
      "outputs": [
        {
          "internalType": "uint256",
          "name": "",
          "type": "uint256"
        }
      ],
      "stateMutability": "view",
      "type": "function"
    },
    {
      "inputs": [
        {
          "internalType": "bytes32",
          "name": "",
          "type": "bytes32"
        },
        {
          "internalType": "bytes32",
          "name": "",
          "type": "bytes32"
        }
      ],
      "name": "versionExists",
      "outputs": [
        {
          "internalType": "bool",
          "name": "",
          "type": "bool"
        }
      ],
      "stateMutability": "view",
      "type": "function"
    },
    {
      "inputs": [
        {
          "internalType": "bytes32",
          "name": "",
          "type": "bytes32"
        },
        {
          "internalType": "uint256",
          "name": "",
          "type": "uint256"
        }
      ],
      "name": "versionToTokenId",
      "outputs": [
        {
          "internalType": "uint256",
          "name": "",
          "type": "uint256"
        }
      ],
      "stateMutability": "view",
      "type": "function"
    },
    {
      "stateMutability": "payable",
      "type": "receive"
    }
  ],
  "bytecode": "0x60c06040523480156200001157600080fd5b50604051620069fe380380620069fe8339810160408190526200003491620001b1565b336040518060400160405280600a8152602001694465657046616d696c7960b01b8152506040518060400160405280600681526020016546616d696c7960d01b81525081600090816200008891906200028e565b5060016200009782826200028e565b5050506001600160a01b038116620000c957604051631e4fbdf760e01b81526000600482015260240160405180910390fd5b620000d48162000142565b506001600b556001600160a01b0382166200010257604051634c32eccd60e11b815260040160405180910390fd5b6001600160a01b0381166200012a57604051635fce01bb60e01b815260040160405180910390fd5b6001600160a01b039182166080521660a0526200035a565b600a80546001600160a01b038381166001600160a01b0319831681179093556040519116919082907f8be0079c531659141344cd1fd0a4f28419497f9722a3daafe3b4186f6b6457e090600090a35050565b80516001600160a01b0381168114620001ac57600080fd5b919050565b60008060408385031215620001c557600080fd5b620001d08362000194565b9150620001e06020840162000194565b90509250929050565b634e487b7160e01b600052604160045260246000fd5b600181811c908216806200021457607f821691505b6020821081036200023557634e487b7160e01b600052602260045260246000fd5b50919050565b601f8211156200028957600081815260208120601f850160051c81016020861015620002645750805b601f850160051c820191505b81811015620002855782815560010162000270565b5050505b505050565b81516001600160401b03811115620002aa57620002aa620001e9565b620002c281620002bb8454620001ff565b846200023b565b602080601f831160018114620002fa5760008415620002e15750858301515b600019600386901b1c1916600185901b17855562000285565b600085815260208120601f198616915b828110156200032b578886015182559484019460019091019084016200030a565b50858210156200034a5787850151600019600388901b60f8161c191681555b5050505050600190811b01905550565b60805160a0516166626200039c60003960008181610a8b0152612b68015260008181610b9001528181612f80015281816130d1015261460801526166626000f3fe60806040526004361061039a5760003560e01c8063797e57e5116101dc578063c2dbf81511610102578063dbcdc08f116100a0578063f2fde38b1161006f578063f2fde38b14610c88578063f74faf6614610ca8578063fe980dd614610ce0578063fe9c3c0514610d12576103b8565b8063dbcdc08f14610bea578063e12b5e8d14610c1b578063e985e9c514610c3b578063f1fad06714610c5b576103b8565b8063c893eb56116100dc578063c893eb5614610b48578063d082e38114610b68578063d1486a1b14610b7e578063d596b1b014610bb2576103b8565b8063c2dbf81514610af2578063c841eb1f14610b12578063c87b56dd14610b28576103b8565b8063a22cb4651161017a578063b88d4fde11610149578063b88d4fde14610a59578063bcecdf1d14610a79578063bd7eef2314610aad578063c090fba214610ac3576103b8565b8063a22cb465146109d9578063a92c6ad6146109f9578063b0ac331f14610a19578063b5c7198d14610a39576103b8565b80638da5cb5b116101b65780638da5cb5b146109565780638f2360b31461097457806395d89b41146109a457806397259721146109b9576103b8565b8063797e57e51461088d57806382260f35146108ad57806383af7191146108df576103b8565b80633791b66a116102c15780636352211e1161025f578063715018a61161022e578063715018a6146107d15780637189567c146107e65780637559704d1461084a57806376f0f85d14610877576103b8565b80636352211e1461072e57806367b9b3e11461074e578063690a76bf1461078457806370a08231146107b1576103b8565b806346cdf8691161029b57806346cdf869146106905780634f6ccce7146106b0578063538ffa0b146106d057806357611dfb146106fd576103b8565b80633791b66a1461060557806342842e0e14610635578063431a342a14610655576103b8565b8063164e38ee11610339578063278d5fce11610308578063278d5fce1461056757806328273a2a146105955780632f745c59146105c55780632f8afa61146105e5576103b8565b8063164e38ee146104dd57806318160ddd1461051257806318e97fd11461052757806323b872dd14610547576103b8565b806307b8fe9c1161037557806307b8fe9c146103d1578063081812fc1461044b578063095ea7b3146104835780631516fa25146104a5576103b8565b8062eee6a1146103d157806301ffc9a7146103f957806306fdde0314610429576103b8565b366103b85760405163af9f22fb60e01b815260040160405180910390fd5b60405163af9f22fb60e01b815260040160405180910390fd5b3480156103dd57600080fd5b506103e6606481565b6040519081526020015b60405180910390f35b34801561040557600080fd5b506104196104143660046150e1565b610d32565b60405190151581526020016103f0565b34801561043557600080fd5b5061043e610d5d565b6040516103f09190615155565b34801561045757600080fd5b5061046b610466366004615168565b610def565b6040516001600160a01b0390911681526020016103f0565b34801561048f57600080fd5b506104a361049e36600461519d565b610e18565b005b3480156104b157600080fd5b506103e66104c03660046151c7565b601a60209081526000928352604080842090915290825290205481565b3480156104e957600080fd5b506104fd6104f83660046151e9565b610e27565b604080519283526020830191909152016103f0565b34801561051e57600080fd5b506008546103e6565b34801561053357600080fd5b506104a361054236600461525d565b610e71565b34801561055357600080fd5b506104a36105623660046152a8565b61101e565b34801561057357600080fd5b50610587610582366004615168565b6110ae565b6040516103f09291906153ee565b3480156105a157600080fd5b506105b56105b03660046151e9565b6113b7565b6040516103f0949392919061545f565b3480156105d157600080fd5b506103e66105e036600461519d565b611677565b3480156105f157600080fd5b506104a36106003660046154d2565b6116dc565b34801561061157600080fd5b506106256106203660046151e9565b6116f8565b6040516103f09493929190615573565b34801561064157600080fd5b506104a36106503660046152a8565b6118f1565b34801561066157600080fd5b506104196106703660046151c7565b600e60209081526000928352604080842090915290825290205460ff1681565b34801561069c57600080fd5b506104a36106ab3660046155ca565b611911565b3480156106bc57600080fd5b506103e66106cb366004615168565b611b23565b3480156106dc57600080fd5b506103e66106eb366004615168565b60126020526000908152604090205481565b34801561070957600080fd5b5061071d610718366004615624565b611b7c565b6040516103f0959493929190615691565b34801561073a57600080fd5b5061046b610749366004615168565b611dd0565b34801561075a57600080fd5b5061076e6107693660046151c7565b611ddb565b6040516103f09a999897969594939291906156fd565b34801561079057600080fd5b506103e661079f366004615168565b60116020526000908152604090205481565b3480156107bd57600080fd5b506103e66107cc366004615779565b611f75565b3480156107dd57600080fd5b506104a3611fbd565b3480156107f257600080fd5b50610806610801366004615168565b611fd1565b6040516103f09190600060a0820190508251825260208301516020830152604083015160408301526060830151151560608301526080830151608083015292915050565b34801561085657600080fd5b506103e6610865366004615168565b6000908152600c602052604090205490565b34801561088357600080fd5b506103e661010081565b34801561089957600080fd5b506104a36108a8366004615168565b612080565b3480156108b957600080fd5b506108cd6108c8366004615168565b61216e565b6040516103f096959493929190615843565b3480156108eb57600080fd5b5061092c6108fa366004615168565b6017602052600090815260409020805460018201546002830154600384015460049094015492939192909160ff169085565b6040805195865260208601949094529284019190915215156060830152608082015260a0016103f0565b34801561096257600080fd5b50600a546001600160a01b031661046b565b34801561098057600080fd5b5061099461098f3660046151e9565b612719565b6040516103f094939291906158b6565b3480156109b057600080fd5b5061043e612a62565b3480156109c557600080fd5b506104a36109d4366004615973565b612a71565b3480156109e557600080fd5b506104a36109f4366004615a71565b612c79565b348015610a0557600080fd5b506103e6610a143660046151c7565b612c84565b348015610a2557600080fd5b506104a3610a343660046155ca565b612cb5565b348015610a4557600080fd5b506104a3610a543660046151c7565b612eee565b348015610a6557600080fd5b506104a3610a74366004615b33565b61325a565b348015610a8557600080fd5b5061046b7f000000000000000000000000000000000000000000000000000000000000000081565b348015610ab957600080fd5b506103e6600d5481565b348015610acf57600080fd5b50610ae3610ade3660046151c7565b613272565b6040516103f093929190615bae565b348015610afe57600080fd5b506103e6610b0d366004615bd3565b6134ef565b348015610b1e57600080fd5b506103e66103e881565b348015610b3457600080fd5b5061043e610b43366004615168565b613530565b348015610b5457600080fd5b506103e6610b63366004615c3a565b6135da565b348015610b7457600080fd5b506103e660105481565b348015610b8a57600080fd5b5061046b7f000000000000000000000000000000000000000000000000000000000000000081565b348015610bbe57600080fd5b506103e6610bcd3660046151c7565b601660209081526000928352604080842090915290825290205481565b348015610bf657600080fd5b50610c0a610c053660046151c7565b6136f1565b6040516103f0959493929190615cdb565b348015610c2757600080fd5b506104a3610c36366004615d1c565b6137bd565b348015610c4757600080fd5b50610419610c56366004615d9f565b613b34565b348015610c6757600080fd5b50610c7b610c763660046151c7565b613b62565b6040516103f09190615dd2565b348015610c9457600080fd5b506104a3610ca3366004615779565b613cc6565b348015610cb457600080fd5b506103e6610cc3366004615de5565b600f60209081526000928352604080842090915290825290205481565b348015610cec57600080fd5b50610d00610cfb3660046151e9565b613d04565b6040516103f096959493929190615e08565b348015610d1e57600080fd5b5061043e610d2d3660046151c7565b613f81565b60006001600160e01b0319821663780e9d6360e01b1480610d575750610d578261403a565b92915050565b606060008054610d6c90615e60565b80601f0160208091040260200160405190810160405280929190818152602001828054610d9890615e60565b8015610de55780601f10610dba57610100808354040283529160200191610de5565b820191906000526020600020905b815481529060010190602001808311610dc857829003601f168201915b5050505050905090565b6000610dfa8261408a565b506000828152600460205260409020546001600160a01b0316610d57565b610e238282336140c2565b5050565b601b6020528260005260406000206020528160005260406000208181548110610e4f57600080fd5b6000918252602090912060029091020180546001909101549093509150839050565b33610e7b846140cf565b6001600160a01b031614610ea25760405163daffd8a560e01b815260040160405180910390fd5b610100811115610ec5576040516313f04adb60e01b815260040160405180910390fd5b60008381526014602052604081208054610ede90615e60565b80601f0160208091040260200160405190810160405280929190818152602001828054610f0a90615e60565b8015610f575780601f10610f2c57610100808354040283529160200191610f57565b820191906000526020600020905b815481529060010190602001808311610f3a57829003601f168201915b50505050509050600081511115610f9257600084815260156020908152604082208054600181018255908352912001610f908282615ef5565b505b610fd28484848080601f0160208091040260200160405190810160405280939291908181526020018383808284376000920191909152506140ea92505050565b336001600160a01b0316847f121742bae49dddcfbb9763fd1170f0dbc15b13707126182671611bbeeeae7cd883868660405161101093929190615fd7565b60405180910390a350505050565b6001600160a01b03821661104d57604051633250574960e11b8152600060048201526024015b60405180910390fd5b600061105a838333614102565b9050836001600160a01b0316816001600160a01b0316146110a8576040516364283d7b60e01b81526001600160a01b0380861660048301526024820184905282166044820152606401611044565b50505050565b601360209081526000918252604091829020825160c08101845281548152600182015460ff80821615159483019490945261010080820461ffff168387015263010000008204851660608401526401000000008204851660808401526501000000000090910490931660a082015283519283019093526002810180549192918290829061113a90615e60565b80601f016020809104026020016040519081016040528092919081815260200182805461116690615e60565b80156111b35780601f10611188576101008083540402835291602001916111b3565b820191906000526020600020905b81548152906001019060200180831161119657829003601f168201915b505050505081526020016001820180546111cc90615e60565b80601f01602080910402602001604051908101604052809291908181526020018280546111f890615e60565b80156112455780601f1061121a57610100808354040283529160200191611245565b820191906000526020600020905b81548152906001019060200180831161122857829003601f168201915b5050509183525050600282015460ff8082161515602084015261ffff6101008304166040840152630100000082048116606084015264010000000090910416608082015260038201805460a09092019161129e90615e60565b80601f01602080910402602001604051908101604052809291908181526020018280546112ca90615e60565b80156113175780601f106112ec57610100808354040283529160200191611317565b820191906000526020600020905b8154815290600101906020018083116112fa57829003601f168201915b5050505050815260200160048201805461133090615e60565b80601f016020809104026020016040519081016040528092919081815260200182805461135c90615e60565b80156113a95780601f1061137e576101008083540402835291602001916113a9565b820191906000526020600020905b81548152906001019060200180831161138c57829003601f168201915b505050505081525050905082565b606060008080806113c7886140cf565b6001600160a01b0316036113ee576040516307ed98ed60e31b815260040160405180910390fd5b606485111561141057604051630327a73960e61b815260040160405180910390fd5b6000878152601760205260408120805494509086900361146c57604080516000808252602082019092529061145b565b611448614fa2565b8152602001906001900390816114405790505b5094506000925086915061166e9050565b8387106114b55760408051600080825260208201909252906114a4565b611491614fa2565b8152602001906001900390816114895790505b5094506000925083915061166e9050565b60006114c18789616013565b9050848111156114ce5750835b60006114da8983616026565b9050806001600160401b038111156114f4576114f4615aa8565b60405190808252806020026020018201604052801561152d57816020015b61151a614fa2565b8152602001906001900390816115125790505b50965060005b818110156116635760008b815260186020526040812090611554838d616013565b81526020019081526020016000206040518060a0016040529081600082015481526020016001820154815260200160028201805461159190615e60565b80601f01602080910402602001604051908101604052809291908181526020018280546115bd90615e60565b801561160a5780601f106115df5761010080835404028352916020019161160a565b820191906000526020600020905b8154815290600101906020018083116115ed57829003601f168201915b5050509183525050600382015460208201526004909101546001600160a01b0316604090910152885189908390811061164557611645616039565b6020026020010181905250808061165b9061604f565b915050611533565b505084811093509150505b93509350935093565b600061168283611f75565b82106116b35760405163295f44f760e21b81526001600160a01b038416600482015260248101839052604401611044565b506001600160a01b03919091166000908152600660209081526040808320938352929052205490565b6116ed8989898989898989896141d7565b505050505050505050565b600083815260156020526040812080546060929091819085820361175157604080516000808252602082019092529061145b565b606081526020019060019003908161172c5790505094506000925086915061166e9050565b8387106117935760408051600080825260208201909252906114a4565b606081526020019060019003908161176e5790505094506000925083915061166e9050565b600061179f8789616013565b9050848111156117ac5750835b60006117b88983616026565b9050806001600160401b038111156117d2576117d2615aa8565b60405190808252806020026020018201604052801561180557816020015b60608152602001906001900390816117f05790505b50965060005b81811015611663578361181e828c616013565b8154811061182e5761182e616039565b90600052602060002001805461184390615e60565b80601f016020809104026020016040519081016040528092919081815260200182805461186f90615e60565b80156118bc5780601f10611891576101008083540402835291602001916118bc565b820191906000526020600020905b81548152906001019060200180831161189f57829003601f168201915b50505050508882815181106118d3576118d3616039565b602002602001018190525080806118e99061604f565b91505061180b565b61190c8383836040518060200160405280600081525061325a565b505050565b6119196146da565b33611923866140cf565b6001600160a01b03161461194a5760405163daffd8a560e01b815260040160405180910390fd5b6000858152601760205260409020600381015460ff161561197e57604051631fcb6b9160e01b815260040160405180910390fd5b8054851061199f57604051637df0b86160e01b815260040160405180910390fd5b8215806119ad57506103e883115b156119cb57604051630ef9fbf360e21b815260040160405180910390fd5b600086815260186020908152604080832088845282528083208151601f88018490048402810184019092528682529291611a209190889088908190840183828082843760009201919091525061470492505050565b90508315801590611a315750838114155b15611a4f5760405163016c02f160e61b815260040160405180910390fd5b600182015460028301805460009190611a6790615e60565b6001860185905591505060028401611a80888a83616068565b504260038501819055600480860180546001600160a01b0319163317905560028701919091558501548790611ab6908390616026565b611ac09190616013565b6004860155611ace8a614717565b604080518381526020810185905233918b918d917f065c2222316af985857085b11b199dc175990521803ca44d2ab1a4ef4c0ea6ef910160405180910390a45050505050611b1c6001600b55565b5050505050565b6000611b2e60085490565b8210611b575760405163295f44f760e21b81526000600482015260248101839052604401611044565b60088281548110611b6a57611b6a616039565b90600052602060002001549050919050565b60608060008080888881611ba35760405163e5d242ed60e01b815260040160405180910390fd5b801580611bbd57506000828152600c602052604090205481115b15611bdb57604051630dd4272d60e41b815260040160405180910390fd5b6064881115611bfd57604051630327a73960e61b815260040160405180910390fd5b60008b8152601b602090815260408083208d845290915281208054965090899003611c495750604080516000808252602082018181528284019093529098509096509350889250611dc3565b858a10611c775750604080516000808252602082018181528284019093529098509096509350849250611dc3565b6000611c838a8c616013565b905086811115611c905750855b6000611c9c8c83616026565b9050806001600160401b03811115611cb657611cb6615aa8565b604051908082528060200260200182016040528015611cdf578160200160208202803683370190505b509950806001600160401b03811115611cfa57611cfa615aa8565b604051908082528060200260200182016040528015611d23578160200160208202803683370190505b50985060005b81811015611db857600084828f611d409190616013565b81548110611d5057611d50616039565b9060005260206000209060020201905080600001548c8381518110611d7757611d77616039565b60200260200101818152505080600101548b8381518110611d9a57611d9a616039565b60209081029190910101525080611db08161604f565b915050611d29565b505086811095509350505b5050945094509450945094565b6000610d578261408a565b600c6020528160005260406000208181548110611df757600080fd5b600091825260209091206009909102018054600182015460028301546003840154600485015460058601546006870154600788018054979a5095985093969295919490936001600160a01b03811693600160a01b9091046001600160601b031692909190611e6490615e60565b80601f0160208091040260200160405190810160405280929190818152602001828054611e9090615e60565b8015611edd5780601f10611eb257610100808354040283529160200191611edd565b820191906000526020600020905b815481529060010190602001808311611ec057829003601f168201915b505050505090806008018054611ef290615e60565b80601f0160208091040260200160405190810160405280929190818152602001828054611f1e90615e60565b8015611f6b5780601f10611f4057610100808354040283529160200191611f6b565b820191906000526020600020905b815481529060010190602001808311611f4e57829003601f168201915b505050505090508a565b60006001600160a01b038216611fa1576040516322718ad960e21b815260006004820152602401611044565b506001600160a01b031660009081526003602052604090205490565b611fc56147df565b611fcf600061480c565b565b6040805160a081018252600080825260208201819052918101829052606081018290526080810182905290612005836140cf565b6001600160a01b03160361202c576040516307ed98ed60e31b815260040160405180910390fd5b50600090815260176020908152604091829020825160a08101845281548152600182015492810192909252600281015492820192909252600382015460ff1615156060820152600490910154608082015290565b3361208a826140cf565b6001600160a01b0316146120b15760405163daffd8a560e01b815260040160405180910390fd5b6000818152601760205260409020600381015460ff16156120e557604051631fcb6b9160e01b815260040160405180910390fd5b805460000361210757604051637dc66bf560e11b815260040160405180910390fd5b60038101805460ff19166001908117909155426002830155815490820154604051339285927f896066547269dcd0db6295ca6c7f14f927d692103e47c7615259469b74bc7b5d92612162929190918252602082015260400190565b60405180910390a35050565b600080612179614fdd565b612181615033565b600060608161218f886140cf565b6001600160a01b0316036121b6576040516307ed98ed60e31b815260040160405180910390fd5b6000878152601160205260409020549550856121e5576040516307ed98ed60e31b815260040160405180910390fd5b6000878152601260205260408120549550612201600187616026565b6000888152600c602052604090208054919250908290811061222557612225616039565b600091825260209182902060408051610140810182526009909302909101805483526001810154938301939093526002830154908201526003820154606082015260048201546080820152600582015460a082015260068201546001600160a01b03811660c08301526001600160601b03600160a01b9091041660e0820152600782018054919291610100840191906122bd90615e60565b80601f01602080910402602001604051908101604052809291908181526020018280546122e990615e60565b80156123365780601f1061230b57610100808354040283529160200191612336565b820191906000526020600020905b81548152906001019060200180831161231957829003601f168201915b5050505050815260200160088201805461234f90615e60565b80601f016020809104026020016040519081016040528092919081815260200182805461237b90615e60565b80156123c85780601f1061239d576101008083540402835291602001916123c8565b820191906000526020600020905b8154815290600101906020018083116123ab57829003601f168201915b50505091909252505050600089815260136020908152604091829020825161010080820185528254828601908152600184015460ff8082161515606086015261ffff84830416608086015263010000008204811660a08601526401000000008204811660c0860152650100000000009091041660e084015282528451908101909452600282018054959a509094919392850192918290829061246990615e60565b80601f016020809104026020016040519081016040528092919081815260200182805461249590615e60565b80156124e25780601f106124b7576101008083540402835291602001916124e2565b820191906000526020600020905b8154815290600101906020018083116124c557829003601f168201915b505050505081526020016001820180546124fb90615e60565b80601f016020809104026020016040519081016040528092919081815260200182805461252790615e60565b80156125745780601f1061254957610100808354040283529160200191612574565b820191906000526020600020905b81548152906001019060200180831161255757829003601f168201915b5050509183525050600282015460ff8082161515602084015261ffff6101008304166040840152630100000082048116606084015264010000000090910416608082015260038201805460a0909201916125cd90615e60565b80601f01602080910402602001604051908101604052809291908181526020018280546125f990615e60565b80156126465780601f1061261b57610100808354040283529160200191612646565b820191906000526020600020905b81548152906001019060200180831161262957829003601f168201915b5050505050815260200160048201805461265f90615e60565b80601f016020809104026020016040519081016040528092919081815260200182805461268b90615e60565b80156126d85780601f106126ad576101008083540402835291602001916126d8565b820191906000526020600020905b8154815290600101906020018083116126bb57829003601f168201915b505050919092525050509052506000888152601a60209081526040808320858452909152902054909450925061270d88613530565b91505091939550919395565b60606000806000606485111561274257604051630327a73960e61b815260040160405180910390fd5b6000878152600c60205260408120805494509086900361279d57604080516000808252602082019092529061145b565b61277a614fdd565b8152602001906001900390816127725790505094506000925086915061166e9050565b8387106127e55760408051600080825260208201909252906114a4565b6127c2614fdd565b8152602001906001900390816127ba5790505094506000925083915061166e9050565b60006127f18789616013565b9050848111156127fe5750835b600061280a8983616026565b9050806001600160401b0381111561282457612824615aa8565b60405190808252806020026020018201604052801561285d57816020015b61284a614fdd565b8152602001906001900390816128425790505b50965060005b818110156116635783612876828c616013565b8154811061288657612886616039565b600091825260209182902060408051610140810182526009909302909101805483526001810154938301939093526002830154908201526003820154606082015260048201546080820152600582015460a082015260068201546001600160a01b03811660c08301526001600160601b03600160a01b9091041660e08201526007820180549192916101008401919061291e90615e60565b80601f016020809104026020016040519081016040528092919081815260200182805461294a90615e60565b80156129975780601f1061296c57610100808354040283529160200191612997565b820191906000526020600020905b81548152906001019060200180831161297a57829003601f168201915b505050505081526020016008820180546129b090615e60565b80601f01602080910402602001604051908101604052809291908181526020018280546129dc90615e60565b8015612a295780601f106129fe57610100808354040283529160200191612a29565b820191906000526020600020905b815481529060010190602001808311612a0c57829003601f168201915b505050505081525050888281518110612a4457612a44616039565b60200260200101819052508080612a5a9061604f565b915050612863565b606060018054610d6c90615e60565b612a7d60066001616013565b8714612a9c576040516303b2487b60e11b815260040160405180910390fd5b60005b6006811015612aed576080898983818110612abc57612abc616039565b90506020020135901c600014612ae5576040516303b2487b60e11b815260040160405180910390fd5b600101612a9f565b50600088886006818110612b0357612b03616039565b90506020020135905060a081901c600014612b31576040516303b2487b60e11b815260040160405180910390fd5b338114612b51576040516303b2487b60e11b815260040160405180910390fd5b6040516361971b8760e11b81526001600160a01b037f0000000000000000000000000000000000000000000000000000000000000000169063c32e370e90612ba5908f908f908f908f908f90600401616121565b602060405180830381865afa158015612bc2573d6000803e3d6000fd5b505050506040513d601f19601f82011682018060405250810190612be6919061619a565b612c03576040516303b2487b60e11b815260040160405180910390fd5b612c35612c128a8a600061485e565b612c1e8b8b600261485e565b612c2a8c8c600461485e565b8a8a8a8a8a8a6141d7565b33612c428a8a600061485e565b6040517f3015fe19dc9f8f0d942de39092410a57589dd94d2c9134719335fe04e3695eca90600090a3505050505050505050505050565b610e233383836148e0565b60196020528160005260406000208181548110612ca057600080fd5b90600052602060002001600091509150505481565b612cbd6146da565b33612cc7866140cf565b6001600160a01b031614612cee5760405163daffd8a560e01b815260040160405180910390fd5b811580612cfc57506103e882115b15612d1a57604051630ef9fbf360e21b815260040160405180910390fd5b6000858152601760205260409020600381015460ff1615612d4e57604051631fcb6b9160e01b815260040160405180910390fd5b8054606411612d7057604051637df0b86160e01b815260040160405180910390fd5b80548514612d9157604051637df0b86160e01b815260040160405180910390fd5b6000612dd285858080601f01602080910402602001604051908101604052809392919081815260200183838082843760009201919091525061470492505050565b90508215801590612de35750828114155b15612e015760405163016c02f160e61b815260040160405180910390fd5b600087815260186020908152604080832089845290915290208681556001810182905560028101612e33868883616068565b504260038201556004810180546001600160a01b031916331790558254612e5b906001616013565b83554260028401556004830154612e73908690616013565b6004840155600088815260196020908152604082208054600181018255908352912001879055612ea288614717565b6040805183815260208101879052339189918b917f9a8c5a1082b04a31158c2062cc003f0764f93a8614a3643f01df8346f0c39f8d910160405180910390a4505050611b1c6001600b55565b818181612f0e5760405163e5d242ed60e01b815260040160405180910390fd5b801580612f2857506000828152600c602052604090205481115b15612f4657604051630dd4272d60e41b815260040160405180910390fd5b6000848152600f60209081526040808320338452909152902054838103612f6d57506110a8565b6000612f7a600186616026565b905060007f00000000000000000000000000000000000000000000000000000000000000006001600160a01b0316636bf90c716040518163ffffffff1660e01b8152600401602060405180830381865afa158015612fdc573d6000803e3d6000fd5b505050506040513d601f19601f8201168201806040525081019061300091906161b7565b90508015613165576000878152600c6020526040812080548490811061302857613028616039565b600091825260208083208b8452601682526040808520888652909252908320546009909202019250908115613092576000613062836140cf565b90506001600160a01b0381161561307b5780915061308c565b60068401546001600160a01b031691505b506130a2565b5060068201546001600160a01b03165b6040516323b872dd60e01b81523360048201526001600160a01b038281166024830152604482018690526000917f0000000000000000000000000000000000000000000000000000000000000000909116906323b872dd906064016020604051808303816000875af115801561311c573d6000803e3d6000fd5b505050506040513d601f19601f82011682018060405250810190613140919061619a565b90508061316057604051635da1e97760e11b815260040160405180910390fd5b505050505b82156131c4576000613178600185616026565b6000898152601a6020908152604080832084845290915290205490915080156131c1576131a6600182616026565b60008a8152601a602090815260408083208684529091529020555b50505b6000878152601a6020908152604080832085845290915281208054600192906131ee908490616013565b90915550506000878152600f6020908152604080832033808552908352928190208990558051898152918201849052429082015288907f55e71c43a79fd68c0c9f416c70da96b84745f57bf4c2456beb089b4ad7bb3ac89060600160405180910390a350505050505050565b61326584848461101e565b6110a8338585858561497f565b61327a614fdd565b60008084848161329d5760405163e5d242ed60e01b815260040160405180910390fd5b8015806132b757506000828152600c602052604090205481115b156132d557604051630dd4272d60e41b815260040160405180910390fd5b60006132e2600188616026565b6000898152600c602052604090208054919250908290811061330657613306616039565b600091825260209182902060408051610140810182526009909302909101805483526001810154938301939093526002830154908201526003820154606082015260048201546080820152600582015460a082015260068201546001600160a01b03811660c08301526001600160601b03600160a01b9091041660e08201526007820180549192916101008401919061339e90615e60565b80601f01602080910402602001604051908101604052809291908181526020018280546133ca90615e60565b80156134175780601f106133ec57610100808354040283529160200191613417565b820191906000526020600020905b8154815290600101906020018083116133fa57829003601f168201915b5050505050815260200160088201805461343090615e60565b80601f016020809104026020016040519081016040528092919081815260200182805461345c90615e60565b80156134a95780601f1061347e576101008083540402835291602001916134a9565b820191906000526020600020905b81548152906001019060200180831161348c57829003601f168201915b505050919092525050506000898152601a602090815260408083208584528252808320549b83526016825280832094835293905291909120549098909650945050505050565b80516000908290158061350457506101008151115b1561352257604051635f895cef60e11b815260040160405180910390fd5b805160209091012092915050565b606061353b8261408a565b506000828152601460205260409020805461355590615e60565b80601f016020809104026020016040519081016040528092919081815260200182805461358190615e60565b80156135ce5780601f106135a3576101008083540402835291602001916135ce565b820191906000526020600020905b8154815290600101906020018083116135b157829003601f168201915b50505050509050919050565b80516000906135fc57604051635f895cef60e11b815260040160405180910390fd5b600c826060015160ff161115613625576040516348c5148960e11b815260040160405180910390fd5b601f826080015160ff16111561364e576040516309eabf7d60e21b815260040160405180910390fd5b81516020830151613660576000613663565b60015b6040808501516060860151608087015160a088015193516136d49695949060200195865260f894851b6001600160f81b0319908116602088015260f09490941b6001600160f01b031916602187015291841b83166023860152831b8216602485015290911b16602582015260260190565b604051602081830303815290604052805190602001209050919050565b60186020908152600092835260408084209091529082529020805460018201546002830180549293919261372490615e60565b80601f016020809104026020016040519081016040528092919081815260200182805461375090615e60565b801561379d5780601f106137725761010080835404028352916020019161379d565b820191906000526020600020905b81548152906001019060200180831161378057829003601f168201915b5050505060038301546004909301549192916001600160a01b0316905085565b6137c56146da565b8484816137e55760405163e5d242ed60e01b815260040160405180910390fd5b8015806137ff57506000828152600c602052604090205481115b1561381d57604051630dd4272d60e41b815260040160405180910390fd5b600061382a600188616026565b60008981526016602090815260408083208484529091529020549091501561386557604051634028e5e560e11b815260040160405180910390fd5b6000888152600f60209081526040808320338452909152902054871461389e5760405163786bb09f60e11b815260040160405180910390fd5b6101008511156138c1576040516313f04adb60e01b815260040160405180910390fd5b6101006138d160c08601866161d0565b6138df9060e08101906161f0565b905011156139005760405163f283c51960e01b815260040160405180910390fd5b61010061391060c08601866161d0565b61391e9060208101906161f0565b9050111561393f576040516367181a3960e11b815260040160405180910390fd5b61010061394f60c08601866161d0565b61395d9060c08101906161f0565b9050111561397e57604051633769847160e01b815260040160405180910390fd5b60006139d461399060c08701876161d0565b61399a90806161f0565b8080601f0160208091040260200160405190810160405280939291908181526020018383808284376000920191909152506134ef92505050565b9050843581146139f757604051632f38f48f60e21b815260040160405180910390fd5b6000613a0b610b6336889003880188615c3a565b9050898114613a2d57604051632f38f48f60e21b815260040160405180910390fd5b6000601060008154613a3e9061604f565b91829055509050613a4f3382614aa9565b613a8f818a8a8080601f0160208091040260200160405190810160405280939291908181526020018383808284376000920191909152506140ea92505050565b60008181526011602090815260408083208e9055601282528083208d90558d8352601682528083208784528252808320849055838352601390915290208790613ad88282616416565b905050336001600160a01b0316818c7fbce71c21e84db5e7dca78ea57ad63b6c66f74f74efc25e33592370ecf39e093b8d8d8d42604051613b1c94939291906164ff565b60405180910390a4505050505050611b1c6001600b55565b6001600160a01b03918216600090815260056020908152604080832093909416825291909152205460ff1690565b613b6a614fa2565b6000613b75846140cf565b6001600160a01b031603613b9c576040516307ed98ed60e31b815260040160405180910390fd5b600083815260176020526040902080548310613bcb57604051637df0b86160e01b815260040160405180910390fd5b6018600085815260200190815260200160002060008481526020019081526020016000206040518060a00160405290816000820154815260200160018201548152602001600282018054613c1e90615e60565b80601f0160208091040260200160405190810160405280929190818152602001828054613c4a90615e60565b8015613c975780601f10613c6c57610100808354040283529160200191613c97565b820191906000526020600020905b815481529060010190602001808311613c7a57829003601f168201915b5050509183525050600382015460208201526004909101546001600160a01b0316604090910152949350505050565b613cce6147df565b6001600160a01b038116613cf857604051631e4fbdf760e01b815260006004820152602401611044565b613d018161480c565b50565b606080606060008060006064871115613d3057604051630327a73960e61b815260040160405180910390fd5b6000898152600c602052604081208054945090889003613d7a5750506040805160008082526020820181815282840182815260608401909452919750909550909350905086613f75565b838910613db15750506040805160008082526020820181815282840182815260608401909452919750909550909350905081613f75565b6000613dbd898b616013565b905084811115613dca5750835b6000613dd68b83616026565b9050806001600160401b03811115613df057613df0615aa8565b604051908082528060200260200182016040528015613e19578160200160208202803683370190505b509850806001600160401b03811115613e3457613e34615aa8565b604051908082528060200260200182016040528015613e5d578160200160208202803683370190505b509750806001600160401b03811115613e7857613e78615aa8565b604051908082528060200260200182016040528015613ea1578160200160208202803683370190505b50965060005b81811015613f6a576000613ebb828e616013565b9050613ec8816001616013565b8b8381518110613eda57613eda616039565b60209081029190910181019190915260008f8152601a8252604080822084835290925220548a518b9084908110613f1357613f13616039565b60209081029190910181019190915260008f8152601682526040808220848352909252205489518a9084908110613f4c57613f4c616039565b60209081029190910101525080613f628161604f565b915050613ea7565b505084811093509150505b93975093979195509350565b60156020528160005260406000208181548110613f9d57600080fd5b90600052602060002001600091509150508054613fb990615e60565b80601f0160208091040260200160405190810160405280929190818152602001828054613fe590615e60565b80156140325780601f1061400757610100808354040283529160200191614032565b820191906000526020600020905b81548152906001019060200180831161401557829003601f168201915b505050505081565b60006001600160e01b031982166380ac58cd60e01b148061406b57506001600160e01b03198216635b5e139f60e01b145b80610d5757506301ffc9a760e01b6001600160e01b0319831614610d57565b600080614096836140cf565b90506001600160a01b038116610d5757604051637e27328960e01b815260048101849052602401611044565b61190c8383836001614ac3565b6000908152600260205260409020546001600160a01b031690565b600082815260146020526040902061190c8282615ef5565b600080614110858585614bc9565b90506001600160a01b03811661416d5761416884600880546000838152600960205260408120829055600182018355919091527ff3f7a9fe364faab93b216da50a3214154f22a0a2b415b23a84c8169e8b636ee30155565b614190565b846001600160a01b0316816001600160a01b031614614190576141908185614cbd565b6001600160a01b0385166141ac576141a784614d3e565b6141cf565b846001600160a01b0316816001600160a01b0316146141cf576141cf8585614ded565b949350505050565b6101008311156141fa57604051635fab396360e11b815260040160405180910390fd5b61010081111561421d57604051630601a0fb60e51b815260040160405180910390fd5b6000888152600c602052604090205486111561424c57604051631f9510eb60e01b815260040160405180910390fd5b6000878152600c602052604090205485111561427b5760405163782ce69f60e01b815260040160405180910390fd5b60008989898989878760405160200161429a979695949392919061652a565b60408051601f19818403018152918152815160209283012060008d8152600e845282812082825290935291205490915060ff16156142eb576040516314396b6760e11b815260040160405180910390fd5b60008a8152600e602090815260408083208484528252808320805460ff191660011790558c8352600c82528083208151610140810183528e81528084018e90528083018d90526060810194909452608084018b905260a084018a90523360c08501526001600160601b03421660e08501528151601f89018490048402810184019092528782529291610100830191908990899081908401838280828437600092019190915250505090825250604080516020601f8801819004810282018101909252868152918101919087908790819084018382808284376000920182905250939094525050835460018181018655948252602091829020845160099092020190815590830151938101939093555060408101516002830155606081015160038301556080810151600483015560a0810151600583015560c081015160e08201516001600160601b0316600160a01b026001600160a01b0390911617600683015561010081015190919060078201906144649082615ef5565b50610120820151600882019061447a9082615ef5565b50505060008a8152600c60205260409020805490819061449b600183616026565b815481106144ab576144ab616039565b600091825260209091206003600990920201015589156145125760008a8152601b602090815260408083208b8452825280832081518083019092528e8252818301858152815460018181018455928652939094209151600290930290910191825591519101555b8815614565576000898152601b602090815260408083208a8452825280832081518083019092528e8252818301858152815460018181018455928652939094209151600290930290910191825591519101555b8060010361458357600d805490600061457d8361604f565b91905055505b336001600160a01b0316818c7ff24ca8fe8e48960e559267341f81e7b0f07746d1e98c729930fe251bd2875484428e8d8f8e8e8e6040516145ca9796959493929190616560565b60405180910390a46145db8a614e3d565b80156145eb57506145eb89614e3d565b156146cd576040516335313c2160e11b81523360048201526000907f00000000000000000000000000000000000000000000000000000000000000006001600160a01b031690636a627842906024016020604051808303816000875af1158015614659573d6000803e3d6000fd5b505050506040513d601f19601f8201168201806040525081019061467d91906161b7565b905080156146cb57818c336001600160a01b03167fdefc43c3e9b037326c59d7c3f29c0b6b5c94a6fbfcced006b763e74a3115da6d846040516146c291815260200190565b60405180910390a45b505b5050505050505050505050565b6002600b54036146fd57604051633ee5aeb560e01b815260040160405180910390fd5b6002600b55565b6000816040516020016136d49190616592565b60008181526017602090815260408083206019909252822080549192909190036147475750600060019091015550565b606060005b82548110156147c957600083828154811061476957614769616039565b60009182526020808320909101548883526018825260408084208285528352928390206001015492519093506147a39186918491016165a4565b6040516020818303038152906040529350505080806147c19061604f565b91505061474c565b5080516020909101206001909201919091555050565b600a546001600160a01b03163314611fcf5760405163118cdaa760e01b8152336004820152602401611044565b600a80546001600160a01b038381166001600160a01b0319831681179093556040519116919082907f8be0079c531659141344cd1fd0a4f28419497f9722a3daafe3b4186f6b6457e090600090a35050565b60008084848481811061487357614873616039565b905060200201359050600085858560010181811061489357614893616039565b905060200201359050608082901c60001415806148b35750608081901c15155b156148d1576040516303b2487b60e11b815260040160405180910390fd5b60809190911b17949350505050565b6001600160a01b03821661491257604051630b61174360e31b81526001600160a01b0383166004820152602401611044565b6001600160a01b03838116600081815260056020908152604080832094871680845294825291829020805460ff191686151590811790915591519182527f17307eab39ab6107e8899845ad3d59bd9653f200f220920489ca2b5937696c31910160405180910390a3505050565b6001600160a01b0383163b15611b1c57604051630a85bd0160e11b81526001600160a01b0384169063150b7a02906149c19088908890879087906004016165c6565b6020604051808303816000875af19250505080156149fc575060408051601f3d908101601f191682019092526149f9918101906165f9565b60015b614a65573d808015614a2a576040519150601f19603f3d011682016040523d82523d6000602084013e614a2f565b606091505b508051600003614a5d57604051633250574960e11b81526001600160a01b0385166004820152602401611044565b805160208201fd5b6001600160e01b03198116630a85bd0160e11b14614aa157604051633250574960e11b81526001600160a01b0385166004820152602401611044565b505050505050565b610e23828260405180602001604052806000815250614e5e565b8080614ad757506001600160a01b03821615155b15614b99576000614ae78461408a565b90506001600160a01b03831615801590614b135750826001600160a01b0316816001600160a01b031614155b8015614b265750614b248184613b34565b155b15614b4f5760405163a9fbf51f60e01b81526001600160a01b0384166004820152602401611044565b8115614b975783856001600160a01b0316826001600160a01b03167f8c5be1e5ebec7d5bd14f71427d1e84f3dd0314c0f7b2291e5b200ac8c7c3b92560405160405180910390a45b505b5050600090815260046020526040902080546001600160a01b0319166001600160a01b0392909216919091179055565b600080614bd5846140cf565b90506001600160a01b03831615614bf157614bf1818486614e76565b6001600160a01b03811615614c2f57614c0e600085600080614ac3565b6001600160a01b038116600090815260036020526040902080546000190190555b6001600160a01b03851615614c5e576001600160a01b0385166000908152600360205260409020805460010190555b60008481526002602052604080822080546001600160a01b0319166001600160a01b0389811691821790925591518793918516917fddf252ad1be2c89b69c2b068fc378daa952ba7f163c4a11628f55a4df523b3ef91a4949350505050565b6000614cc883611f75565b6000838152600760209081526040808320546001600160a01b0388168452600690925290912091925090818314614d1f57600083815260208281526040808320548584528184208190558352600790915290208290555b6000938452600760209081526040808620869055938552525081205550565b600854600090614d5090600190616026565b60008381526009602052604081205460088054939450909284908110614d7857614d78616039565b906000526020600020015490508060088381548110614d9957614d99616039565b6000918252602080832090910192909255828152600990915260408082208490558582528120556008805480614dd157614dd1616616565b6001900381819060005260206000200160009055905550505050565b60006001614dfa84611f75565b614e049190616026565b6001600160a01b039093166000908152600660209081526040808320868452825280832085905593825260079052919091209190915550565b60008115801590610d575750506000908152600c6020526040902054151590565b614e688383614eda565b61190c33600085858561497f565b614e81838383614f3f565b61190c576001600160a01b038316614eaf57604051637e27328960e01b815260048101829052602401611044565b60405163177e802f60e01b81526001600160a01b038316600482015260248101829052604401611044565b6001600160a01b038216614f0457604051633250574960e11b815260006004820152602401611044565b6000614f1283836000614102565b90506001600160a01b0381161561190c576040516339e3563760e11b815260006004820152602401611044565b60006001600160a01b038316158015906141cf5750826001600160a01b0316846001600160a01b03161480614f795750614f798484613b34565b806141cf5750506000908152600460205260409020546001600160a01b03908116911614919050565b6040518060a001604052806000815260200160008019168152602001606081526020016000815260200160006001600160a01b031681525090565b604080516101408101825260008082526020820181905291810182905260608082018390526080820183905260a0820183905260c0820183905260e0820192909252610100810182905261012081019190915290565b60408051610100810182526000918101828152606082018390526080820183905260a0820183905260c0820183905260e082019290925290819081526020016150c66040518061010001604052806060815260200160608152602001600015158152602001600061ffff168152602001600060ff168152602001600060ff16815260200160608152602001606081525090565b905290565b6001600160e01b031981168114613d0157600080fd5b6000602082840312156150f357600080fd5b81356150fe816150cb565b9392505050565b60005b83811015615120578181015183820152602001615108565b50506000910152565b60008151808452615141816020860160208601615105565b601f01601f19169290920160200192915050565b6020815260006150fe6020830184615129565b60006020828403121561517a57600080fd5b5035919050565b80356001600160a01b038116811461519857600080fd5b919050565b600080604083850312156151b057600080fd5b6151b983615181565b946020939093013593505050565b600080604083850312156151da57600080fd5b50508035926020909101359150565b6000806000606084860312156151fe57600080fd5b505081359360208301359350604090920135919050565b60008083601f84011261522757600080fd5b5081356001600160401b0381111561523e57600080fd5b60208301915083602082850101111561525657600080fd5b9250929050565b60008060006040848603121561527257600080fd5b8335925060208401356001600160401b0381111561528f57600080fd5b61529b86828701615215565b9497909650939450505050565b6000806000606084860312156152bd57600080fd5b6152c684615181565b92506152d460208501615181565b9150604084013590509250925092565b8051825260208101511515602083015261ffff604082015116604083015260ff606082015116606083015260ff608082015116608083015260ff60a08201511660a08301525050565b6000610100825181855261534382860182615129565b9150506020830151848203602086015261535d8282615129565b9150506040830151615373604086018215159052565b506060830151615389606086018261ffff169052565b50608083015161539e608086018260ff169052565b5060a08301516153b360a086018260ff169052565b5060c083015184820360c08601526153cb8282615129565b91505060e083015184820360e08601526153e58282615129565b95945050505050565b6153f881846152e4565b60e060c082015260006141cf60e083018461532d565b80518252602081015160208301526000604082015160a0604085015261543760a0850182615129565b606084810151908601526080938401516001600160a01b031693909401929092525090919050565b6000608082016080835280875180835260a08501915060a08160051b86010192506020808a0160005b838110156154b657609f198887030185526154a486835161540e565b95509382019390820190600101615488565b5050850197909752509315156040830152506060015292915050565b600080600080600080600080600060e08a8c0312156154f057600080fd5b8935985060208a0135975060408a0135965060608a0135955060808a0135945060a08a01356001600160401b038082111561552a57600080fd5b6155368d838e01615215565b909650945060c08c013591508082111561554f57600080fd5b5061555c8c828d01615215565b915080935050809150509295985092959850929598565b6000608082016080835280875180835260a08501915060a08160051b86010192506020808a0160005b838110156154b657609f198887030185526155b8868351615129565b9550938201939082019060010161559c565b6000806000806000608086880312156155e257600080fd5b853594506020860135935060408601356001600160401b0381111561560657600080fd5b61561288828901615215565b96999598509660600135949350505050565b6000806000806080858703121561563a57600080fd5b5050823594602084013594506040840135936060013592509050565b600081518084526020808501945080840160005b838110156156865781518752958201959082019060010161566a565b509495945050505050565b60a0808252865190820181905260009060209060c0840190828a01845b828110156156ca578151845292840192908401906001016156ae565b505050838103828501526156de8189615656565b6040850197909752505050911515606083015260809091015292915050565b60006101408c83528b60208401528a60408401528960608401528860808401528760a084015260018060a01b03871660c08401526001600160601b03861660e08401528061010084015261575381840186615129565b90508281036101208401526157688185615129565b9d9c50505050505050505050505050565b60006020828403121561578b57600080fd5b6150fe82615181565b6000610140825184526020830151602085015260408301516040850152606083015160608501526080830151608085015260a083015160a085015260c08301516157e960c08601826001600160a01b03169052565b5060e083015161580460e08601826001600160601b03169052565b5061010080840151828287015261581d83870182615129565b9250505061012080840151858303828701526158398382615129565b9695505050505050565b86815285602082015260c06040820152600061586260c0830187615794565b82810360608401526158758187516152e4565b602086015160e060c083015261588e60e083018261532d565b91505084608084015282810360a08401526158a98185615129565b9998505050505050505050565b6000608082016080835280875180835260a08501915060a08160051b86010192506020808a0160005b838110156154b657609f198887030185526158fb868351615794565b955093820193908201906001016158df565b8060408101831015610d5757600080fd5b8060808101831015610d5757600080fd5b60008083601f84011261594157600080fd5b5081356001600160401b0381111561595857600080fd5b6020830191508360208260051b850101111561525657600080fd5b60008060008060008060008060008060006101a08c8e03121561599557600080fd5b61599f8d8d61590d565b9a506159ae8d60408e0161591e565b99506159bd8d60c08e0161590d565b98506001600160401b03806101008e013511156159d957600080fd5b6159ea8e6101008f01358f0161592f565b90995097506101208d013596506101408d013595506101608d0135811015615a1157600080fd5b615a228e6101608f01358f01615215565b90955093506101808d0135811015615a3957600080fd5b50615a4b8d6101808e01358e01615215565b81935080925050509295989b509295989b9093969950565b8015158114613d0157600080fd5b60008060408385031215615a8457600080fd5b615a8d83615181565b91506020830135615a9d81615a63565b809150509250929050565b634e487b7160e01b600052604160045260246000fd5b60006001600160401b0380841115615ad857615ad8615aa8565b604051601f8501601f19908116603f01168101908282118183101715615b0057615b00615aa8565b81604052809350858152868686011115615b1957600080fd5b858560208301376000602087830101525050509392505050565b60008060008060808587031215615b4957600080fd5b615b5285615181565b9350615b6060208601615181565b92506040850135915060608501356001600160401b03811115615b8257600080fd5b8501601f81018713615b9357600080fd5b615ba287823560208401615abe565b91505092959194509250565b606081526000615bc16060830186615794565b60208301949094525060400152919050565b600060208284031215615be557600080fd5b81356001600160401b03811115615bfb57600080fd5b8201601f81018413615c0c57600080fd5b6141cf84823560208401615abe565b61ffff81168114613d0157600080fd5b60ff81168114613d0157600080fd5b600060c08284031215615c4c57600080fd5b60405160c081018181106001600160401b0382111715615c6e57615c6e615aa8565b604052823581526020830135615c8381615a63565b60208201526040830135615c9681615c1b565b60408201526060830135615ca981615c2b565b60608201526080830135615cbc81615c2b565b608082015260a0830135615ccf81615c2b565b60a08201529392505050565b85815284602082015260a060408201526000615cfa60a0830186615129565b6060830194909452506001600160a01b03919091166080909101529392505050565b600080600080600060808688031215615d3457600080fd5b853594506020860135935060408601356001600160401b0380821115615d5957600080fd5b615d6589838a01615215565b90955093506060880135915080821115615d7e57600080fd5b50860160e08189031215615d9157600080fd5b809150509295509295909350565b60008060408385031215615db257600080fd5b615dbb83615181565b9150615dc960208401615181565b90509250929050565b6020815260006150fe602083018461540e565b60008060408385031215615df857600080fd5b82359150615dc960208401615181565b60c081526000615e1b60c0830189615656565b8281036020840152615e2d8189615656565b90508281036040840152615e418188615656565b60608401969096525050911515608083015260a0909101529392505050565b600181811c90821680615e7457607f821691505b602082108103615e9457634e487b7160e01b600052602260045260246000fd5b50919050565b601f82111561190c57600081815260208120601f850160051c81016020861015615ec15750805b601f850160051c820191505b81811015614aa157828155600101615ecd565b600019600383901b1c191660019190911b1790565b81516001600160401b03811115615f0e57615f0e615aa8565b615f2281615f1c8454615e60565b84615e9a565b602080601f831160018114615f515760008415615f3f5750858301515b615f498582615ee0565b865550614aa1565b600085815260208120601f198616915b82811015615f8057888601518255948401946001909101908401615f61565b5085821015615f9e5787850151600019600388901b60f8161c191681555b5050505050600190811b01905550565b81835281816020850137506000828201602090810191909152601f909101601f19169091010190565b604081526000615fea6040830186615129565b8281036020840152615839818587615fae565b634e487b7160e01b600052601160045260246000fd5b80820180821115610d5757610d57615ffd565b81810381811115610d5757610d57615ffd565b634e487b7160e01b600052603260045260246000fd5b60006001820161606157616061615ffd565b5060010190565b6001600160401b0383111561607f5761607f615aa8565b6160938361608d8354615e60565b83615e9a565b6000601f8411600181146160c157600085156160af5750838201355b6160b98682615ee0565b845550611b1c565b600083815260209020601f19861690835b828110156160f257868501358255602094850194600190920191016160d2565b508682101561610f5760001960f88860031b161c19848701351681555b505060018560011b0183555050505050565b60006101206040808985378084018860005b600281101561615057838284379183019190830190600101616133565b505050808760c086013750610100830181905282018390526101406001600160fb1b0384111561617f57600080fd5b8360051b808683860137929092019091019695505050505050565b6000602082840312156161ac57600080fd5b81516150fe81615a63565b6000602082840312156161c957600080fd5b5051919050565b6000823560fe198336030181126161e657600080fd5b9190910192915050565b6000808335601e1984360301811261620757600080fd5b8301803591506001600160401b0382111561622157600080fd5b60200191503681900382131561525657600080fd5b60008135610d5781615a63565b60008135610d5781615c1b565b60008135610d5781615c2b565b61626782836161f0565b6001600160401b0381111561627e5761627e615aa8565b6162928161628c8554615e60565b85615e9a565b6000601f8211600181146162c057600083156162ae5750838201355b6162b88482615ee0565b86555061631a565b600085815260209020601f19841690835b828110156162f157868501358255602094850194600190920191016162d1565b508482101561630e5760001960f88660031b161c19848701351681555b505060018360011b0185555b5050505061632b60208301836161f0565b616339818360018601616068565b50506002810161636261634e60408501616236565b825490151560ff1660ff1991909116178255565b61638961637160608501616243565b825462ffff00191660089190911b62ffff0016178255565b6163b261639860808501616250565b825463ff000000191660189190911b63ff00000016178255565b6163dd6163c160a08501616250565b825464ff00000000191660209190911b64ff0000000016178255565b506163eb60c08301836161f0565b6163f9818360038601616068565b505061640860e08301836161f0565b6110a8818360048601616068565b8135815560018101602083013561642c81615a63565b815460ff191660ff8215151617825550604083013561644a81615c1b565b815462ffff001916600882901b62ffff001617825550606083013561646e81615c2b565b815463ff0000001916601882901b63ff0000001617825550608083013561649481615c2b565b815464ff000000001916602082901b64ff00000000161782555060a08301356164bc81615c2b565b815465ff0000000000191660289190911b65ff00000000001617905560c08201353683900360fe190181126164f057600080fd5b61190c8184016002840161625d565b848152606060208201526000616519606083018587615fae565b905082604083015295945050505050565b878152866020820152856040820152846060820152836080820152818360a08301376000910160a0019081529695505050505050565b87815286602082015285604082015284606082015283608082015260c060a082015260006158a960c083018486615fae565b600082516161e6818460208701615105565b600083516165b6818460208801615105565b9190910191825250602001919050565b6001600160a01b038581168252841660208201526040810183905260806060820181905260009061583990830184615129565b60006020828403121561660b57600080fd5b81516150fe816150cb565b634e487b7160e01b600052603160045260246000fdfea26469706673582212202f4775f5b0d5cd7043f7a87511652a79a3eefa11bb8a2a32bc2cce054612165664736f6c63430008140033",
  "linkReferences": {},
  "deployedLinkReferences": {}
}