{
  "_format": "hh-sol-artifact-1",
  "contractName": "DeepFamily",
  "sourceName": "contracts/DeepFamily.sol",
  "abi": [
    {
      "inputs": [
        {
          "internalType": "address",
          "name": "_deepFamilyTokenContract",
          "type": "address"
        },
        {
          "internalType": "address",
          "name": "_personHashVerifier",
          "type": "address"
        }
      ],
      "stateMutability": "nonpayable",
      "type": "constructor"
    },
    {
      "inputs": [],
      "name": "BasicInfoMismatch",
      "type": "error"
    },
    {
      "inputs": [],
      "name": "ChunkHashMismatch",
      "type": "error"
    },
    {
      "inputs": [],
      "name": "ChunkIndexOutOfRange",
      "type": "error"
    },
    {
      "inputs": [],
      "name": "DirectETHNotAccepted",
      "type": "error"
    },
    {
      "inputs": [],
      "name": "DuplicateVersion",
      "type": "error"
    },
    {
      "inputs": [],
      "name": "ERC721EnumerableForbiddenBatchMint",
      "type": "error"
    },
    {
      "inputs": [
        {
          "internalType": "address",
          "name": "sender",
          "type": "address"
        },
        {
          "internalType": "uint256",
          "name": "tokenId",
          "type": "uint256"
        },
        {
          "internalType": "address",
          "name": "owner",
          "type": "address"
        }
      ],
      "name": "ERC721IncorrectOwner",
      "type": "error"
    },
    {
      "inputs": [
        {
          "internalType": "address",
          "name": "operator",
          "type": "address"
        },
        {
          "internalType": "uint256",
          "name": "tokenId",
          "type": "uint256"
        }
      ],
      "name": "ERC721InsufficientApproval",
      "type": "error"
    },
    {
      "inputs": [
        {
          "internalType": "address",
          "name": "approver",
          "type": "address"
        }
      ],
      "name": "ERC721InvalidApprover",
      "type": "error"
    },
    {
      "inputs": [
        {
          "internalType": "address",
          "name": "operator",
          "type": "address"
        }
      ],
      "name": "ERC721InvalidOperator",
      "type": "error"
    },
    {
      "inputs": [
        {
          "internalType": "address",
          "name": "owner",
          "type": "address"
        }
      ],
      "name": "ERC721InvalidOwner",
      "type": "error"
    },
    {
      "inputs": [
        {
          "internalType": "address",
          "name": "receiver",
          "type": "address"
        }
      ],
      "name": "ERC721InvalidReceiver",
      "type": "error"
    },
    {
      "inputs": [
        {
          "internalType": "address",
          "name": "sender",
          "type": "address"
        }
      ],
      "name": "ERC721InvalidSender",
      "type": "error"
    },
    {
      "inputs": [
        {
          "internalType": "uint256",
          "name": "tokenId",
          "type": "uint256"
        }
      ],
      "name": "ERC721NonexistentToken",
      "type": "error"
    },
    {
      "inputs": [
        {
          "internalType": "address",
          "name": "owner",
          "type": "address"
        },
        {
          "internalType": "uint256",
          "name": "index",
          "type": "uint256"
        }
      ],
      "name": "ERC721OutOfBoundsIndex",
      "type": "error"
    },
    {
      "inputs": [],
      "name": "EndorsementFeeTransferFailed",
      "type": "error"
    },
    {
      "inputs": [],
      "name": "InvalidBirthDay",
      "type": "error"
    },
    {
      "inputs": [],
      "name": "InvalidBirthMonth",
      "type": "error"
    },
    {
      "inputs": [],
      "name": "InvalidBirthPlace",
      "type": "error"
    },
    {
      "inputs": [],
      "name": "InvalidCIDLength",
      "type": "error"
    },
    {
      "inputs": [],
      "name": "InvalidChunkContent",
      "type": "error"
    },
    {
      "inputs": [],
      "name": "InvalidDeathPlace",
      "type": "error"
    },
    {
      "inputs": [],
      "name": "InvalidFatherVersionIndex",
      "type": "error"
    },
    {
      "inputs": [],
      "name": "InvalidFullName",
      "type": "error"
    },
    {
      "inputs": [],
      "name": "InvalidMotherVersionIndex",
      "type": "error"
    },
    {
      "inputs": [],
      "name": "InvalidPersonHash",
      "type": "error"
    },
    {
      "inputs": [],
      "name": "InvalidStory",
      "type": "error"
    },
    {
      "inputs": [],
      "name": "InvalidTagLength",
      "type": "error"
    },
    {
      "inputs": [],
      "name": "InvalidTokenId",
      "type": "error"
    },
    {
      "inputs": [],
      "name": "InvalidTokenURI",
      "type": "error"
    },
    {
      "inputs": [],
      "name": "InvalidVersionIndex",
      "type": "error"
    },
    {
      "inputs": [],
      "name": "InvalidZKProof",
      "type": "error"
    },
    {
      "inputs": [],
      "name": "MustBeNFTHolder",
      "type": "error"
    },
    {
      "inputs": [],
      "name": "MustEndorseVersionFirst",
      "type": "error"
    },
    {
      "inputs": [
        {
          "internalType": "address",
          "name": "owner",
          "type": "address"
        }
      ],
      "name": "OwnableInvalidOwner",
      "type": "error"
    },
    {
      "inputs": [
        {
          "internalType": "address",
          "name": "account",
          "type": "address"
        }
      ],
      "name": "OwnableUnauthorizedAccount",
      "type": "error"
    },
    {
      "inputs": [],
      "name": "PageSizeExceedsLimit",
      "type": "error"
    },
    {
      "inputs": [],
      "name": "ReentrancyGuardReentrantCall",
      "type": "error"
    },
    {
      "inputs": [],
      "name": "StoryAlreadySealed",
      "type": "error"
    },
    {
      "inputs": [],
      "name": "StoryNotFound",
      "type": "error"
    },
    {
      "inputs": [],
      "name": "TokenContractNotSet",
      "type": "error"
    },
    {
      "inputs": [],
      "name": "VerifierNotSet",
      "type": "error"
    },
    {
      "inputs": [],
      "name": "VersionAlreadyMinted",
      "type": "error"
    },
    {
      "anonymous": false,
      "inputs": [
        {
          "indexed": true,
          "internalType": "address",
          "name": "owner",
          "type": "address"
        },
        {
          "indexed": true,
          "internalType": "address",
          "name": "approved",
          "type": "address"
        },
        {
          "indexed": true,
          "internalType": "uint256",
          "name": "tokenId",
          "type": "uint256"
        }
      ],
      "name": "Approval",
      "type": "event"
    },
    {
      "anonymous": false,
      "inputs": [
        {
          "indexed": true,
          "internalType": "address",
          "name": "owner",
          "type": "address"
        },
        {
          "indexed": true,
          "internalType": "address",
          "name": "operator",
          "type": "address"
        },
        {
          "indexed": false,
          "internalType": "bool",
          "name": "approved",
          "type": "bool"
        }
      ],
      "name": "ApprovalForAll",
      "type": "event"
    },
    {
      "anonymous": false,
      "inputs": [
        {
          "indexed": true,
          "internalType": "address",
          "name": "previousOwner",
          "type": "address"
        },
        {
          "indexed": true,
          "internalType": "address",
          "name": "newOwner",
          "type": "address"
        }
      ],
      "name": "OwnershipTransferred",
      "type": "event"
    },
    {
      "anonymous": false,
      "inputs": [
        {
          "indexed": true,
          "internalType": "bytes32",
          "name": "nameHash",
          "type": "bytes32"
        },
        {
          "indexed": true,
          "internalType": "bytes32",
          "name": "personHash",
          "type": "bytes32"
        }
      ],
      "name": "PersonDiscoverable",
      "type": "event"
    },
    {
      "anonymous": false,
      "inputs": [
        {
          "indexed": true,
          "internalType": "bytes32",
          "name": "personHash",
          "type": "bytes32"
        },
        {
          "indexed": true,
          "internalType": "address",
          "name": "prover",
          "type": "address"
        }
      ],
      "name": "PersonHashZKVerified",
      "type": "event"
    },
    {
      "anonymous": false,
      "inputs": [
        {
          "indexed": true,
          "internalType": "bytes32",
          "name": "personHash",
          "type": "bytes32"
        },
        {
          "indexed": true,
          "internalType": "uint256",
          "name": "tokenId",
          "type": "uint256"
        },
        {
          "indexed": true,
          "internalType": "address",
          "name": "owner",
          "type": "address"
        },
        {
          "indexed": false,
          "internalType": "uint256",
          "name": "versionIndex",
          "type": "uint256"
        },
        {
          "indexed": false,
          "internalType": "string",
          "name": "tokenURI",
          "type": "string"
        },
        {
          "indexed": false,
          "internalType": "uint256",
          "name": "timestamp",
          "type": "uint256"
        }
      ],
      "name": "PersonNFTMinted",
      "type": "event"
    },
    {
      "anonymous": false,
      "inputs": [
        {
          "indexed": true,
          "internalType": "bytes32",
          "name": "personHash",
          "type": "bytes32"
        },
        {
          "indexed": true,
          "internalType": "uint256",
          "name": "versionIndex",
          "type": "uint256"
        },
        {
          "indexed": true,
          "internalType": "address",
          "name": "addedBy",
          "type": "address"
        },
        {
          "indexed": false,
          "internalType": "uint256",
          "name": "timestamp",
          "type": "uint256"
        },
        {
          "indexed": false,
          "internalType": "bytes32",
          "name": "fatherHash",
          "type": "bytes32"
        },
        {
          "indexed": false,
          "internalType": "uint256",
          "name": "fatherVersionIndex",
          "type": "uint256"
        },
        {
          "indexed": false,
          "internalType": "bytes32",
          "name": "motherHash",
          "type": "bytes32"
        },
        {
          "indexed": false,
          "internalType": "uint256",
          "name": "motherVersionIndex",
          "type": "uint256"
        },
        {
          "indexed": false,
          "internalType": "string",
          "name": "tag",
          "type": "string"
        }
      ],
      "name": "PersonVersionAdded",
      "type": "event"
    },
    {
      "anonymous": false,
      "inputs": [
        {
          "indexed": true,
          "internalType": "bytes32",
          "name": "personHash",
          "type": "bytes32"
        },
        {
          "indexed": true,
          "internalType": "address",
          "name": "endorser",
          "type": "address"
        },
        {
          "indexed": false,
          "internalType": "uint256",
          "name": "versionIndex",
          "type": "uint256"
        },
        {
          "indexed": false,
          "internalType": "uint256",
          "name": "endorsementFee",
          "type": "uint256"
        },
        {
          "indexed": false,
          "internalType": "uint256",
          "name": "timestamp",
          "type": "uint256"
        }
      ],
      "name": "PersonVersionEndorsed",
      "type": "event"
    },
    {
      "anonymous": false,
      "inputs": [
        {
          "indexed": true,
          "internalType": "uint256",
          "name": "tokenId",
          "type": "uint256"
        },
        {
          "indexed": true,
          "internalType": "uint256",
          "name": "chunkIndex",
          "type": "uint256"
        },
        {
          "indexed": false,
          "internalType": "bytes32",
          "name": "chunkHash",
          "type": "bytes32"
        },
        {
          "indexed": true,
          "internalType": "address",
          "name": "editor",
          "type": "address"
        },
        {
          "indexed": false,
          "internalType": "uint256",
          "name": "contentLength",
          "type": "uint256"
        }
      ],
      "name": "StoryChunkAdded",
      "type": "event"
    },
    {
      "anonymous": false,
      "inputs": [
        {
          "indexed": true,
          "internalType": "uint256",
          "name": "tokenId",
          "type": "uint256"
        },
        {
          "indexed": true,
          "internalType": "uint256",
          "name": "chunkIndex",
          "type": "uint256"
        },
        {
          "indexed": false,
          "internalType": "bytes32",
          "name": "oldHash",
          "type": "bytes32"
        },
        {
          "indexed": false,
          "internalType": "bytes32",
          "name": "newHash",
          "type": "bytes32"
        },
        {
          "indexed": true,
          "internalType": "address",
          "name": "editor",
          "type": "address"
        }
      ],
      "name": "StoryChunkUpdated",
      "type": "event"
    },
    {
      "anonymous": false,
      "inputs": [
        {
          "indexed": true,
          "internalType": "uint256",
          "name": "tokenId",
          "type": "uint256"
        },
        {
          "indexed": false,
          "internalType": "uint256",
          "name": "totalChunks",
          "type": "uint256"
        },
        {
          "indexed": false,
          "internalType": "bytes32",
          "name": "fullStoryHash",
          "type": "bytes32"
        },
        {
          "indexed": true,
          "internalType": "address",
          "name": "sealer",
          "type": "address"
        }
      ],
      "name": "StorySealed",
      "type": "event"
    },
    {
      "anonymous": false,
      "inputs": [
        {
          "indexed": true,
          "internalType": "address",
          "name": "miner",
          "type": "address"
        },
        {
          "indexed": true,
          "internalType": "bytes32",
          "name": "personHash",
          "type": "bytes32"
        },
        {
          "indexed": true,
          "internalType": "uint256",
          "name": "versionIndex",
          "type": "uint256"
        },
        {
          "indexed": false,
          "internalType": "uint256",
          "name": "reward",
          "type": "uint256"
        }
      ],
      "name": "TokenRewardDistributed",
      "type": "event"
    },
    {
      "anonymous": false,
      "inputs": [
        {
          "indexed": true,
          "internalType": "uint256",
          "name": "tokenId",
          "type": "uint256"
        },
        {
          "indexed": true,
          "internalType": "address",
          "name": "owner",
          "type": "address"
        },
        {
          "indexed": false,
          "internalType": "string",
          "name": "oldURI",
          "type": "string"
        },
        {
          "indexed": false,
          "internalType": "string",
          "name": "newURI",
          "type": "string"
        }
      ],
      "name": "TokenURIUpdated",
      "type": "event"
    },
    {
      "anonymous": false,
      "inputs": [
        {
          "indexed": true,
          "internalType": "address",
          "name": "from",
          "type": "address"
        },
        {
          "indexed": true,
          "internalType": "address",
          "name": "to",
          "type": "address"
        },
        {
          "indexed": true,
          "internalType": "uint256",
          "name": "tokenId",
          "type": "uint256"
        }
      ],
      "name": "Transfer",
      "type": "event"
    },
    {
      "stateMutability": "payable",
      "type": "fallback"
    },
    {
      "inputs": [],
      "name": "DEEP_FAMILY_TOKEN_CONTRACT",
      "outputs": [
        {
          "internalType": "address",
          "name": "",
          "type": "address"
        }
      ],
      "stateMutability": "view",
      "type": "function"
    },
    {
      "inputs": [],
      "name": "MAX_CHUNK_CONTENT_LENGTH",
      "outputs": [
        {
          "internalType": "uint256",
          "name": "",
          "type": "uint256"
        }
      ],
      "stateMutability": "view",
      "type": "function"
    },
    {
      "inputs": [],
      "name": "MAX_LONG_TEXT_LENGTH",
      "outputs": [
        {
          "internalType": "uint256",
          "name": "",
          "type": "uint256"
        }
      ],
      "stateMutability": "view",
      "type": "function"
    },
    {
      "inputs": [],
      "name": "MAX_QUERY_PAGE_SIZE",
      "outputs": [
        {
          "internalType": "uint256",
          "name": "",
          "type": "uint256"
        }
      ],
      "stateMutability": "view",
      "type": "function"
    },
    {
      "inputs": [],
      "name": "MAX_STORY_CHUNKS",
      "outputs": [
        {
          "internalType": "uint256",
          "name": "",
          "type": "uint256"
        }
      ],
      "stateMutability": "view",
      "type": "function"
    },
    {
      "inputs": [],
      "name": "PERSON_HASH_VERIFIER",
      "outputs": [
        {
          "internalType": "address",
          "name": "",
          "type": "address"
        }
      ],
      "stateMutability": "view",
      "type": "function"
    },
    {
      "inputs": [
        {
          "internalType": "uint256",
          "name": "",
          "type": "uint256"
        },
        {
          "internalType": "uint256",
          "name": "",
          "type": "uint256"
        }
      ],
      "name": "activeChunkIndices",
      "outputs": [
        {
          "internalType": "uint256",
          "name": "",
          "type": "uint256"
        }
      ],
      "stateMutability": "view",
      "type": "function"
    },
    {
      "inputs": [
        {
          "internalType": "bytes32",
          "name": "personHash",
          "type": "bytes32"
        },
        {
          "internalType": "bytes32",
          "name": "nameHash",
          "type": "bytes32"
        },
        {
          "internalType": "bytes32",
          "name": "fatherHash",
          "type": "bytes32"
        },
        {
          "internalType": "bytes32",
          "name": "motherHash",
          "type": "bytes32"
        },
        {
          "internalType": "uint256",
          "name": "fatherVersionIndex",
          "type": "uint256"
        },
        {
          "internalType": "uint256",
          "name": "motherVersionIndex",
          "type": "uint256"
        },
        {
          "internalType": "string",
          "name": "tag",
          "type": "string"
        },
        {
          "internalType": "string",
          "name": "metadataCID",
          "type": "string"
        }
      ],
      "name": "addPerson",
      "outputs": [],
      "stateMutability": "nonpayable",
      "type": "function"
    },
    {
      "inputs": [
        {
          "internalType": "uint256[2]",
          "name": "a",
          "type": "uint256[2]"
        },
        {
          "internalType": "uint256[2][2]",
          "name": "b",
          "type": "uint256[2][2]"
        },
        {
          "internalType": "uint256[2]",
          "name": "c",
          "type": "uint256[2]"
        },
        {
          "internalType": "uint256[]",
          "name": "publicSignals",
          "type": "uint256[]"
        },
        {
          "internalType": "uint256",
          "name": "fatherVersionIndex",
          "type": "uint256"
        },
        {
          "internalType": "uint256",
          "name": "motherVersionIndex",
          "type": "uint256"
        },
        {
          "internalType": "string",
          "name": "tag",
          "type": "string"
        },
        {
          "internalType": "string",
          "name": "metadataCID",
          "type": "string"
        }
      ],
      "name": "addPersonZK",
      "outputs": [],
      "stateMutability": "nonpayable",
      "type": "function"
    },
    {
      "inputs": [
        {
          "internalType": "uint256",
          "name": "tokenId",
          "type": "uint256"
        },
        {
          "internalType": "uint256",
          "name": "chunkIndex",
          "type": "uint256"
        },
        {
          "internalType": "string",
          "name": "content",
          "type": "string"
        },
        {
          "internalType": "bytes32",
          "name": "expectedHash",
          "type": "bytes32"
        }
      ],
      "name": "addStoryChunk",
      "outputs": [],
      "stateMutability": "nonpayable",
      "type": "function"
    },
    {
      "inputs": [
        {
          "internalType": "address",
          "name": "to",
          "type": "address"
        },
        {
          "internalType": "uint256",
          "name": "tokenId",
          "type": "uint256"
        }
      ],
      "name": "approve",
      "outputs": [],
      "stateMutability": "nonpayable",
      "type": "function"
    },
    {
      "inputs": [
        {
          "internalType": "address",
          "name": "owner",
          "type": "address"
        }
      ],
      "name": "balanceOf",
      "outputs": [
        {
          "internalType": "uint256",
          "name": "",
          "type": "uint256"
        }
      ],
      "stateMutability": "view",
      "type": "function"
    },
    {
      "inputs": [
        {
          "internalType": "bytes32",
          "name": "",
          "type": "bytes32"
        },
        {
          "internalType": "uint256",
          "name": "",
          "type": "uint256"
        },
        {
          "internalType": "uint256",
          "name": "",
          "type": "uint256"
        }
      ],
      "name": "childrenOf",
      "outputs": [
        {
          "internalType": "bytes32",
          "name": "childHash",
          "type": "bytes32"
        },
        {
          "internalType": "uint256",
          "name": "childVersionIndex",
          "type": "uint256"
        }
      ],
      "stateMutability": "view",
      "type": "function"
    },
    {
      "inputs": [
        {
          "internalType": "bytes32",
          "name": "personHash",
          "type": "bytes32"
        }
      ],
      "name": "countPersonVersions",
      "outputs": [
        {
          "internalType": "uint256",
          "name": "versionCount",
          "type": "uint256"
        }
      ],
      "stateMutability": "view",
      "type": "function"
    },
    {
      "inputs": [
        {
          "internalType": "bytes32",
          "name": "personHash",
          "type": "bytes32"
        },
        {
          "internalType": "uint256",
          "name": "versionIndex",
          "type": "uint256"
        }
      ],
      "name": "endorseVersion",
      "outputs": [],
      "stateMutability": "nonpayable",
      "type": "function"
    },
    {
      "inputs": [
        {
          "internalType": "bytes32",
          "name": "",
          "type": "bytes32"
        },
        {
          "internalType": "address",
          "name": "",
          "type": "address"
        }
      ],
      "name": "endorsedVersionIndex",
      "outputs": [
        {
          "internalType": "uint256",
          "name": "",
          "type": "uint256"
        }
      ],
      "stateMutability": "view",
      "type": "function"
    },
    {
      "inputs": [
        {
          "internalType": "uint256",
          "name": "tokenId",
          "type": "uint256"
        }
      ],
      "name": "getApproved",
      "outputs": [
        {
          "internalType": "address",
          "name": "",
          "type": "address"
        }
      ],
      "stateMutability": "view",
      "type": "function"
    },
    {
      "inputs": [
        {
          "internalType": "uint256",
          "name": "tokenId",
          "type": "uint256"
        }
      ],
      "name": "getNFTDetails",
      "outputs": [
        {
          "internalType": "bytes32",
          "name": "personHash",
          "type": "bytes32"
        },
        {
          "internalType": "uint256",
          "name": "versionIndex",
          "type": "uint256"
        },
        {
          "components": [
            {
              "internalType": "bytes32",
              "name": "personHash",
              "type": "bytes32"
            },
            {
              "internalType": "bytes32",
              "name": "fatherHash",
              "type": "bytes32"
            },
            {
              "internalType": "bytes32",
              "name": "motherHash",
              "type": "bytes32"
            },
            {
              "internalType": "uint256",
              "name": "versionIndex",
              "type": "uint256"
            },
            {
              "internalType": "uint256",
              "name": "fatherVersionIndex",
              "type": "uint256"
            },
            {
              "internalType": "uint256",
              "name": "motherVersionIndex",
              "type": "uint256"
            },
            {
              "internalType": "address",
              "name": "addedBy",
              "type": "address"
            },
            {
              "internalType": "uint96",
              "name": "timestamp",
              "type": "uint96"
            },
            {
              "internalType": "string",
              "name": "tag",
              "type": "string"
            },
            {
              "internalType": "string",
              "name": "metadataCID",
              "type": "string"
            }
          ],
          "internalType": "struct DeepFamily.PersonVersion",
          "name": "version",
          "type": "tuple"
        },
        {
          "components": [
            {
              "components": [
                {
                  "internalType": "string",
                  "name": "fullName",
                  "type": "string"
                },
                {
                  "internalType": "bool",
                  "name": "isBirthBC",
                  "type": "bool"
                },
                {
                  "internalType": "uint16",
                  "name": "birthYear",
                  "type": "uint16"
                },
                {
                  "internalType": "uint8",
                  "name": "birthMonth",
                  "type": "uint8"
                },
                {
                  "internalType": "uint8",
                  "name": "birthDay",
                  "type": "uint8"
                },
                {
                  "internalType": "uint8",
                  "name": "gender",
                  "type": "uint8"
                }
              ],
              "internalType": "struct DeepFamily.PersonBasicInfo",
              "name": "basicInfo",
              "type": "tuple"
            },
            {
              "components": [
                {
                  "internalType": "string",
                  "name": "birthPlace",
                  "type": "string"
                },
                {
                  "internalType": "bool",
                  "name": "isDeathBC",
                  "type": "bool"
                },
                {
                  "internalType": "uint16",
                  "name": "deathYear",
                  "type": "uint16"
                },
                {
                  "internalType": "uint8",
                  "name": "deathMonth",
                  "type": "uint8"
                },
                {
                  "internalType": "uint8",
                  "name": "deathDay",
                  "type": "uint8"
                },
                {
                  "internalType": "string",
                  "name": "deathPlace",
                  "type": "string"
                },
                {
                  "internalType": "string",
                  "name": "story",
                  "type": "string"
                }
              ],
              "internalType": "struct DeepFamily.PersonSupplementInfo",
              "name": "supplementInfo",
              "type": "tuple"
            }
          ],
          "internalType": "struct DeepFamily.PersonCoreInfo",
          "name": "coreInfo",
          "type": "tuple"
        },
        {
          "internalType": "uint256",
          "name": "endorsementCount",
          "type": "uint256"
        },
        {
          "internalType": "string",
          "name": "nftTokenURI",
          "type": "string"
        }
      ],
      "stateMutability": "view",
      "type": "function"
    },
    {
      "inputs": [
        {
          "components": [
            {
              "internalType": "string",
              "name": "fullName",
              "type": "string"
            },
            {
              "internalType": "bool",
              "name": "isBirthBC",
              "type": "bool"
            },
            {
              "internalType": "uint16",
              "name": "birthYear",
              "type": "uint16"
            },
            {
              "internalType": "uint8",
              "name": "birthMonth",
              "type": "uint8"
            },
            {
              "internalType": "uint8",
              "name": "birthDay",
              "type": "uint8"
            },
            {
              "internalType": "uint8",
              "name": "gender",
              "type": "uint8"
            }
          ],
          "internalType": "struct DeepFamily.PersonBasicInfo",
          "name": "basicInfo",
          "type": "tuple"
        }
      ],
      "name": "getPersonHash",
      "outputs": [
        {
          "internalType": "bytes32",
          "name": "",
          "type": "bytes32"
        }
      ],
      "stateMutability": "pure",
      "type": "function"
    },
    {
      "inputs": [
        {
          "internalType": "uint256",
          "name": "tokenId",
          "type": "uint256"
        },
        {
          "internalType": "uint256",
          "name": "chunkIndex",
          "type": "uint256"
        }
      ],
      "name": "getStoryChunk",
      "outputs": [
        {
          "components": [
            {
              "internalType": "uint256",
              "name": "chunkIndex",
              "type": "uint256"
            },
            {
              "internalType": "bytes32",
              "name": "chunkHash",
              "type": "bytes32"
            },
            {
              "internalType": "string",
              "name": "content",
              "type": "string"
            },
            {
              "internalType": "uint256",
              "name": "timestamp",
              "type": "uint256"
            },
            {
              "internalType": "address",
              "name": "lastEditor",
              "type": "address"
            }
          ],
          "internalType": "struct DeepFamily.StoryChunk",
          "name": "chunk",
          "type": "tuple"
        }
      ],
      "stateMutability": "view",
      "type": "function"
    },
    {
      "inputs": [
        {
          "internalType": "uint256",
          "name": "tokenId",
          "type": "uint256"
        }
      ],
      "name": "getStoryMetadata",
      "outputs": [
        {
          "components": [
            {
              "internalType": "uint256",
              "name": "totalChunks",
              "type": "uint256"
            },
            {
              "internalType": "bytes32",
              "name": "fullStoryHash",
              "type": "bytes32"
            },
            {
              "internalType": "uint256",
              "name": "lastUpdateTime",
              "type": "uint256"
            },
            {
              "internalType": "bool",
              "name": "isSealed",
              "type": "bool"
            },
            {
              "internalType": "uint256",
              "name": "totalLength",
              "type": "uint256"
            }
          ],
          "internalType": "struct DeepFamily.StoryMetadata",
          "name": "metadata",
          "type": "tuple"
        }
      ],
      "stateMutability": "view",
      "type": "function"
    },
    {
      "inputs": [
        {
          "internalType": "bytes32",
          "name": "personHash",
          "type": "bytes32"
        },
        {
          "internalType": "uint256",
          "name": "versionIndex",
          "type": "uint256"
        }
      ],
      "name": "getVersionDetails",
      "outputs": [
        {
          "components": [
            {
              "internalType": "bytes32",
              "name": "personHash",
              "type": "bytes32"
            },
            {
              "internalType": "bytes32",
              "name": "fatherHash",
              "type": "bytes32"
            },
            {
              "internalType": "bytes32",
              "name": "motherHash",
              "type": "bytes32"
            },
            {
              "internalType": "uint256",
              "name": "versionIndex",
              "type": "uint256"
            },
            {
              "internalType": "uint256",
              "name": "fatherVersionIndex",
              "type": "uint256"
            },
            {
              "internalType": "uint256",
              "name": "motherVersionIndex",
              "type": "uint256"
            },
            {
              "internalType": "address",
              "name": "addedBy",
              "type": "address"
            },
            {
              "internalType": "uint96",
              "name": "timestamp",
              "type": "uint96"
            },
            {
              "internalType": "string",
              "name": "tag",
              "type": "string"
            },
            {
              "internalType": "string",
              "name": "metadataCID",
              "type": "string"
            }
          ],
          "internalType": "struct DeepFamily.PersonVersion",
          "name": "version",
          "type": "tuple"
        },
        {
          "internalType": "uint256",
          "name": "endorsementCount",
          "type": "uint256"
        },
        {
          "internalType": "uint256",
          "name": "tokenId",
          "type": "uint256"
        }
      ],
      "stateMutability": "view",
      "type": "function"
    },
    {
      "inputs": [
        {
          "internalType": "address",
          "name": "owner",
          "type": "address"
        },
        {
          "internalType": "address",
          "name": "operator",
          "type": "address"
        }
      ],
      "name": "isApprovedForAll",
      "outputs": [
        {
          "internalType": "bool",
          "name": "",
          "type": "bool"
        }
      ],
      "stateMutability": "view",
      "type": "function"
    },
    {
      "inputs": [
        {
          "internalType": "bytes32",
          "name": "parentHash",
          "type": "bytes32"
        },
        {
          "internalType": "uint256",
          "name": "parentVersionIndex",
          "type": "uint256"
        },
        {
          "internalType": "uint256",
          "name": "offset",
          "type": "uint256"
        },
        {
          "internalType": "uint256",
          "name": "limit",
          "type": "uint256"
        }
      ],
      "name": "listChildren",
      "outputs": [
        {
          "internalType": "bytes32[]",
          "name": "childHashes",
          "type": "bytes32[]"
        },
        {
          "internalType": "uint256[]",
          "name": "childVersionIndices",
          "type": "uint256[]"
        },
        {
          "internalType": "uint256",
          "name": "totalCount",
          "type": "uint256"
        },
        {
          "internalType": "bool",
          "name": "hasMore",
          "type": "bool"
        },
        {
          "internalType": "uint256",
          "name": "nextOffset",
          "type": "uint256"
        }
      ],
      "stateMutability": "view",
      "type": "function"
    },
    {
      "inputs": [
        {
          "internalType": "string",
          "name": "fullName",
          "type": "string"
        },
        {
          "internalType": "uint256",
          "name": "offset",
          "type": "uint256"
        },
        {
          "internalType": "uint256",
          "name": "limit",
          "type": "uint256"
        }
      ],
      "name": "listPersonHashesByFullName",
      "outputs": [
        {
          "internalType": "bytes32[]",
          "name": "personHashes",
          "type": "bytes32[]"
        },
        {
          "internalType": "uint256",
          "name": "totalCount",
          "type": "uint256"
        },
        {
          "internalType": "bool",
          "name": "hasMore",
          "type": "bool"
        },
        {
          "internalType": "uint256",
          "name": "nextOffset",
          "type": "uint256"
        }
      ],
      "stateMutability": "view",
      "type": "function"
    },
    {
      "inputs": [
        {
          "internalType": "bytes32",
          "name": "personHash",
          "type": "bytes32"
        },
        {
          "internalType": "uint256",
          "name": "offset",
          "type": "uint256"
        },
        {
          "internalType": "uint256",
          "name": "limit",
          "type": "uint256"
        }
      ],
      "name": "listPersonVersions",
      "outputs": [
        {
          "components": [
            {
              "internalType": "bytes32",
              "name": "personHash",
              "type": "bytes32"
            },
            {
              "internalType": "bytes32",
              "name": "fatherHash",
              "type": "bytes32"
            },
            {
              "internalType": "bytes32",
              "name": "motherHash",
              "type": "bytes32"
            },
            {
              "internalType": "uint256",
              "name": "versionIndex",
              "type": "uint256"
            },
            {
              "internalType": "uint256",
              "name": "fatherVersionIndex",
              "type": "uint256"
            },
            {
              "internalType": "uint256",
              "name": "motherVersionIndex",
              "type": "uint256"
            },
            {
              "internalType": "address",
              "name": "addedBy",
              "type": "address"
            },
            {
              "internalType": "uint96",
              "name": "timestamp",
              "type": "uint96"
            },
            {
              "internalType": "string",
              "name": "tag",
              "type": "string"
            },
            {
              "internalType": "string",
              "name": "metadataCID",
              "type": "string"
            }
          ],
          "internalType": "struct DeepFamily.PersonVersion[]",
          "name": "versions",
          "type": "tuple[]"
        },
        {
          "internalType": "uint256",
          "name": "totalVersions",
          "type": "uint256"
        },
        {
          "internalType": "bool",
          "name": "hasMore",
          "type": "bool"
        },
        {
          "internalType": "uint256",
          "name": "nextOffset",
          "type": "uint256"
        }
      ],
      "stateMutability": "view",
      "type": "function"
    },
    {
      "inputs": [
        {
          "internalType": "uint256",
          "name": "tokenId",
          "type": "uint256"
        },
        {
          "internalType": "uint256",
          "name": "offset",
          "type": "uint256"
        },
        {
          "internalType": "uint256",
          "name": "limit",
          "type": "uint256"
        }
      ],
      "name": "listStoryChunks",
      "outputs": [
        {
          "components": [
            {
              "internalType": "uint256",
              "name": "chunkIndex",
              "type": "uint256"
            },
            {
              "internalType": "bytes32",
              "name": "chunkHash",
              "type": "bytes32"
            },
            {
              "internalType": "string",
              "name": "content",
              "type": "string"
            },
            {
              "internalType": "uint256",
              "name": "timestamp",
              "type": "uint256"
            },
            {
              "internalType": "address",
              "name": "lastEditor",
              "type": "address"
            }
          ],
          "internalType": "struct DeepFamily.StoryChunk[]",
          "name": "chunks",
          "type": "tuple[]"
        },
        {
          "internalType": "uint256",
          "name": "totalChunks",
          "type": "uint256"
        },
        {
          "internalType": "bool",
          "name": "hasMore",
          "type": "bool"
        },
        {
          "internalType": "uint256",
          "name": "nextOffset",
          "type": "uint256"
        }
      ],
      "stateMutability": "view",
      "type": "function"
    },
    {
      "inputs": [
        {
          "internalType": "uint256",
          "name": "tokenId",
          "type": "uint256"
        },
        {
          "internalType": "uint256",
          "name": "offset",
          "type": "uint256"
        },
        {
          "internalType": "uint256",
          "name": "limit",
          "type": "uint256"
        }
      ],
      "name": "listTokenURIHistory",
      "outputs": [
        {
          "internalType": "string[]",
          "name": "uris",
          "type": "string[]"
        },
        {
          "internalType": "uint256",
          "name": "totalCount",
          "type": "uint256"
        },
        {
          "internalType": "bool",
          "name": "hasMore",
          "type": "bool"
        },
        {
          "internalType": "uint256",
          "name": "nextOffset",
          "type": "uint256"
        }
      ],
      "stateMutability": "view",
      "type": "function"
    },
    {
      "inputs": [
        {
          "internalType": "bytes32",
          "name": "personHash",
          "type": "bytes32"
        },
        {
          "internalType": "uint256",
          "name": "offset",
          "type": "uint256"
        },
        {
          "internalType": "uint256",
          "name": "limit",
          "type": "uint256"
        }
      ],
      "name": "listVersionsEndorsementStats",
      "outputs": [
        {
          "internalType": "uint256[]",
          "name": "versionIndices",
          "type": "uint256[]"
        },
        {
          "internalType": "uint256[]",
          "name": "endorsementCounts",
          "type": "uint256[]"
        },
        {
          "internalType": "uint256[]",
          "name": "tokenIds",
          "type": "uint256[]"
        },
        {
          "internalType": "uint256",
          "name": "totalVersions",
          "type": "uint256"
        },
        {
          "internalType": "bool",
          "name": "hasMore",
          "type": "bool"
        },
        {
          "internalType": "uint256",
          "name": "nextOffset",
          "type": "uint256"
        }
      ],
      "stateMutability": "view",
      "type": "function"
    },
    {
      "inputs": [
        {
          "internalType": "bytes32",
          "name": "personHash",
          "type": "bytes32"
        },
        {
          "internalType": "uint256",
          "name": "versionIndex",
          "type": "uint256"
        },
        {
          "internalType": "string",
          "name": "_tokenURI",
          "type": "string"
        },
        {
          "components": [
            {
              "components": [
                {
                  "internalType": "string",
                  "name": "fullName",
                  "type": "string"
                },
                {
                  "internalType": "bool",
                  "name": "isBirthBC",
                  "type": "bool"
                },
                {
                  "internalType": "uint16",
                  "name": "birthYear",
                  "type": "uint16"
                },
                {
                  "internalType": "uint8",
                  "name": "birthMonth",
                  "type": "uint8"
                },
                {
                  "internalType": "uint8",
                  "name": "birthDay",
                  "type": "uint8"
                },
                {
                  "internalType": "uint8",
                  "name": "gender",
                  "type": "uint8"
                }
              ],
              "internalType": "struct DeepFamily.PersonBasicInfo",
              "name": "basicInfo",
              "type": "tuple"
            },
            {
              "components": [
                {
                  "internalType": "string",
                  "name": "birthPlace",
                  "type": "string"
                },
                {
                  "internalType": "bool",
                  "name": "isDeathBC",
                  "type": "bool"
                },
                {
                  "internalType": "uint16",
                  "name": "deathYear",
                  "type": "uint16"
                },
                {
                  "internalType": "uint8",
                  "name": "deathMonth",
                  "type": "uint8"
                },
                {
                  "internalType": "uint8",
                  "name": "deathDay",
                  "type": "uint8"
                },
                {
                  "internalType": "string",
                  "name": "deathPlace",
                  "type": "string"
                },
                {
                  "internalType": "string",
                  "name": "story",
                  "type": "string"
                }
              ],
              "internalType": "struct DeepFamily.PersonSupplementInfo",
              "name": "supplementInfo",
              "type": "tuple"
            }
          ],
          "internalType": "struct DeepFamily.PersonCoreInfo",
          "name": "coreInfo",
          "type": "tuple"
        }
      ],
      "name": "mintPersonNFT",
      "outputs": [],
      "stateMutability": "nonpayable",
      "type": "function"
    },
    {
      "inputs": [],
      "name": "name",
      "outputs": [
        {
          "internalType": "string",
          "name": "",
          "type": "string"
        }
      ],
      "stateMutability": "view",
      "type": "function"
    },
    {
      "inputs": [
        {
          "internalType": "bytes32",
          "name": "",
          "type": "bytes32"
        },
        {
          "internalType": "uint256",
          "name": "",
          "type": "uint256"
        }
      ],
      "name": "nameToPersonHashes",
      "outputs": [
        {
          "internalType": "bytes32",
          "name": "",
          "type": "bytes32"
        }
      ],
      "stateMutability": "view",
      "type": "function"
    },
    {
      "inputs": [
        {
          "internalType": "uint256",
          "name": "",
          "type": "uint256"
        }
      ],
      "name": "nftCoreInfo",
      "outputs": [
        {
          "components": [
            {
              "internalType": "string",
              "name": "fullName",
              "type": "string"
            },
            {
              "internalType": "bool",
              "name": "isBirthBC",
              "type": "bool"
            },
            {
              "internalType": "uint16",
              "name": "birthYear",
              "type": "uint16"
            },
            {
              "internalType": "uint8",
              "name": "birthMonth",
              "type": "uint8"
            },
            {
              "internalType": "uint8",
              "name": "birthDay",
              "type": "uint8"
            },
            {
              "internalType": "uint8",
              "name": "gender",
              "type": "uint8"
            }
          ],
          "internalType": "struct DeepFamily.PersonBasicInfo",
          "name": "basicInfo",
          "type": "tuple"
        },
        {
          "components": [
            {
              "internalType": "string",
              "name": "birthPlace",
              "type": "string"
            },
            {
              "internalType": "bool",
              "name": "isDeathBC",
              "type": "bool"
            },
            {
              "internalType": "uint16",
              "name": "deathYear",
              "type": "uint16"
            },
            {
              "internalType": "uint8",
              "name": "deathMonth",
              "type": "uint8"
            },
            {
              "internalType": "uint8",
              "name": "deathDay",
              "type": "uint8"
            },
            {
              "internalType": "string",
              "name": "deathPlace",
              "type": "string"
            },
            {
              "internalType": "string",
              "name": "story",
              "type": "string"
            }
          ],
          "internalType": "struct DeepFamily.PersonSupplementInfo",
          "name": "supplementInfo",
          "type": "tuple"
        }
      ],
      "stateMutability": "view",
      "type": "function"
    },
    {
      "inputs": [],
      "name": "owner",
      "outputs": [
        {
          "internalType": "address",
          "name": "",
          "type": "address"
        }
      ],
      "stateMutability": "view",
      "type": "function"
    },
    {
      "inputs": [
        {
          "internalType": "uint256",
          "name": "tokenId",
          "type": "uint256"
        }
      ],
      "name": "ownerOf",
      "outputs": [
        {
          "internalType": "address",
          "name": "",
          "type": "address"
        }
      ],
      "stateMutability": "view",
      "type": "function"
    },
    {
      "inputs": [
        {
          "internalType": "bytes32",
          "name": "",
          "type": "bytes32"
        },
        {
          "internalType": "bytes32",
          "name": "",
          "type": "bytes32"
        }
      ],
      "name": "personHashIndexed",
      "outputs": [
        {
          "internalType": "bool",
          "name": "",
          "type": "bool"
        }
      ],
      "stateMutability": "view",
      "type": "function"
    },
    {
      "inputs": [
        {
          "internalType": "bytes32",
          "name": "",
          "type": "bytes32"
        },
        {
          "internalType": "uint256",
          "name": "",
          "type": "uint256"
        }
      ],
      "name": "personVersions",
      "outputs": [
        {
          "internalType": "bytes32",
          "name": "personHash",
          "type": "bytes32"
        },
        {
          "internalType": "bytes32",
          "name": "fatherHash",
          "type": "bytes32"
        },
        {
          "internalType": "bytes32",
          "name": "motherHash",
          "type": "bytes32"
        },
        {
          "internalType": "uint256",
          "name": "versionIndex",
          "type": "uint256"
        },
        {
          "internalType": "uint256",
          "name": "fatherVersionIndex",
          "type": "uint256"
        },
        {
          "internalType": "uint256",
          "name": "motherVersionIndex",
          "type": "uint256"
        },
        {
          "internalType": "address",
          "name": "addedBy",
          "type": "address"
        },
        {
          "internalType": "uint96",
          "name": "timestamp",
          "type": "uint96"
        },
        {
          "internalType": "string",
          "name": "tag",
          "type": "string"
        },
        {
          "internalType": "string",
          "name": "metadataCID",
          "type": "string"
        }
      ],
      "stateMutability": "view",
      "type": "function"
    },
    {
      "inputs": [],
      "name": "renounceOwnership",
      "outputs": [],
      "stateMutability": "nonpayable",
      "type": "function"
    },
    {
      "inputs": [
        {
          "internalType": "address",
          "name": "from",
          "type": "address"
        },
        {
          "internalType": "address",
          "name": "to",
          "type": "address"
        },
        {
          "internalType": "uint256",
          "name": "tokenId",
          "type": "uint256"
        }
      ],
      "name": "safeTransferFrom",
      "outputs": [],
      "stateMutability": "nonpayable",
      "type": "function"
    },
    {
      "inputs": [
        {
          "internalType": "address",
          "name": "from",
          "type": "address"
        },
        {
          "internalType": "address",
          "name": "to",
          "type": "address"
        },
        {
          "internalType": "uint256",
          "name": "tokenId",
          "type": "uint256"
        },
        {
          "internalType": "bytes",
          "name": "data",
          "type": "bytes"
        }
      ],
      "name": "safeTransferFrom",
      "outputs": [],
      "stateMutability": "nonpayable",
      "type": "function"
    },
    {
      "inputs": [
        {
          "internalType": "uint256",
          "name": "tokenId",
          "type": "uint256"
        }
      ],
      "name": "sealStory",
      "outputs": [],
      "stateMutability": "nonpayable",
      "type": "function"
    },
    {
      "inputs": [
        {
          "internalType": "address",
          "name": "operator",
          "type": "address"
        },
        {
          "internalType": "bool",
          "name": "approved",
          "type": "bool"
        }
      ],
      "name": "setApprovalForAll",
      "outputs": [],
      "stateMutability": "nonpayable",
      "type": "function"
    },
    {
      "inputs": [
        {
          "internalType": "uint256",
          "name": "",
          "type": "uint256"
        },
        {
          "internalType": "uint256",
          "name": "",
          "type": "uint256"
        }
      ],
      "name": "storyChunks",
      "outputs": [
        {
          "internalType": "uint256",
          "name": "chunkIndex",
          "type": "uint256"
        },
        {
          "internalType": "bytes32",
          "name": "chunkHash",
          "type": "bytes32"
        },
        {
          "internalType": "string",
          "name": "content",
          "type": "string"
        },
        {
          "internalType": "uint256",
          "name": "timestamp",
          "type": "uint256"
        },
        {
          "internalType": "address",
          "name": "lastEditor",
          "type": "address"
        }
      ],
      "stateMutability": "view",
      "type": "function"
    },
    {
      "inputs": [
        {
          "internalType": "uint256",
          "name": "",
          "type": "uint256"
        }
      ],
      "name": "storyMetadata",
      "outputs": [
        {
          "internalType": "uint256",
          "name": "totalChunks",
          "type": "uint256"
        },
        {
          "internalType": "bytes32",
          "name": "fullStoryHash",
          "type": "bytes32"
        },
        {
          "internalType": "uint256",
          "name": "lastUpdateTime",
          "type": "uint256"
        },
        {
          "internalType": "bool",
          "name": "isSealed",
          "type": "bool"
        },
        {
          "internalType": "uint256",
          "name": "totalLength",
          "type": "uint256"
        }
      ],
      "stateMutability": "view",
      "type": "function"
    },
    {
      "inputs": [
        {
          "internalType": "bytes4",
          "name": "interfaceId",
          "type": "bytes4"
        }
      ],
      "name": "supportsInterface",
      "outputs": [
        {
          "internalType": "bool",
          "name": "",
          "type": "bool"
        }
      ],
      "stateMutability": "view",
      "type": "function"
    },
    {
      "inputs": [],
      "name": "symbol",
      "outputs": [
        {
          "internalType": "string",
          "name": "",
          "type": "string"
        }
      ],
      "stateMutability": "view",
      "type": "function"
    },
    {
      "inputs": [
        {
          "internalType": "uint256",
          "name": "index",
          "type": "uint256"
        }
      ],
      "name": "tokenByIndex",
      "outputs": [
        {
          "internalType": "uint256",
          "name": "",
          "type": "uint256"
        }
      ],
      "stateMutability": "view",
      "type": "function"
    },
    {
      "inputs": [],
      "name": "tokenCounter",
      "outputs": [
        {
          "internalType": "uint256",
          "name": "",
          "type": "uint256"
        }
      ],
      "stateMutability": "view",
      "type": "function"
    },
    {
      "inputs": [
        {
          "internalType": "uint256",
          "name": "",
          "type": "uint256"
        }
      ],
      "name": "tokenIdToPerson",
      "outputs": [
        {
          "internalType": "bytes32",
          "name": "",
          "type": "bytes32"
        }
      ],
      "stateMutability": "view",
      "type": "function"
    },
    {
      "inputs": [
        {
          "internalType": "uint256",
          "name": "",
          "type": "uint256"
        }
      ],
      "name": "tokenIdToVersionIndex",
      "outputs": [
        {
          "internalType": "uint256",
          "name": "",
          "type": "uint256"
        }
      ],
      "stateMutability": "view",
      "type": "function"
    },
    {
      "inputs": [
        {
          "internalType": "address",
          "name": "owner",
          "type": "address"
        },
        {
          "internalType": "uint256",
          "name": "index",
          "type": "uint256"
        }
      ],
      "name": "tokenOfOwnerByIndex",
      "outputs": [
        {
          "internalType": "uint256",
          "name": "",
          "type": "uint256"
        }
      ],
      "stateMutability": "view",
      "type": "function"
    },
    {
      "inputs": [
        {
          "internalType": "uint256",
          "name": "tokenId",
          "type": "uint256"
        }
      ],
      "name": "tokenURI",
      "outputs": [
        {
          "internalType": "string",
          "name": "",
          "type": "string"
        }
      ],
      "stateMutability": "view",
      "type": "function"
    },
    {
      "inputs": [
        {
          "internalType": "uint256",
          "name": "",
          "type": "uint256"
        },
        {
          "internalType": "uint256",
          "name": "",
          "type": "uint256"
        }
      ],
      "name": "tokenURIHistory",
      "outputs": [
        {
          "internalType": "string",
          "name": "",
          "type": "string"
        }
      ],
      "stateMutability": "view",
      "type": "function"
    },
    {
      "inputs": [],
      "name": "totalPersonsCount",
      "outputs": [
        {
          "internalType": "uint256",
          "name": "",
          "type": "uint256"
        }
      ],
      "stateMutability": "view",
      "type": "function"
    },
    {
      "inputs": [],
      "name": "totalSupply",
      "outputs": [
        {
          "internalType": "uint256",
          "name": "",
          "type": "uint256"
        }
      ],
      "stateMutability": "view",
      "type": "function"
    },
    {
      "inputs": [
        {
          "internalType": "address",
          "name": "from",
          "type": "address"
        },
        {
          "internalType": "address",
          "name": "to",
          "type": "address"
        },
        {
          "internalType": "uint256",
          "name": "tokenId",
          "type": "uint256"
        }
      ],
      "name": "transferFrom",
      "outputs": [],
      "stateMutability": "nonpayable",
      "type": "function"
    },
    {
      "inputs": [
        {
          "internalType": "address",
          "name": "newOwner",
          "type": "address"
        }
      ],
      "name": "transferOwnership",
      "outputs": [],
      "stateMutability": "nonpayable",
      "type": "function"
    },
    {
      "inputs": [
        {
          "internalType": "uint256",
          "name": "tokenId",
          "type": "uint256"
        },
        {
          "internalType": "uint256",
          "name": "chunkIndex",
          "type": "uint256"
        },
        {
          "internalType": "string",
          "name": "newContent",
          "type": "string"
        },
        {
          "internalType": "bytes32",
          "name": "expectedHash",
          "type": "bytes32"
        }
      ],
      "name": "updateStoryChunk",
      "outputs": [],
      "stateMutability": "nonpayable",
      "type": "function"
    },
    {
      "inputs": [
        {
          "internalType": "uint256",
          "name": "tokenId",
          "type": "uint256"
        },
        {
          "internalType": "string",
          "name": "newURI",
          "type": "string"
        }
      ],
      "name": "updateTokenURI",
      "outputs": [],
      "stateMutability": "nonpayable",
      "type": "function"
    },
    {
      "inputs": [
        {
          "internalType": "bytes32",
          "name": "",
          "type": "bytes32"
        },
        {
          "internalType": "uint256",
          "name": "",
          "type": "uint256"
        }
      ],
      "name": "versionEndorsementCount",
      "outputs": [
        {
          "internalType": "uint256",
          "name": "",
          "type": "uint256"
        }
      ],
      "stateMutability": "view",
      "type": "function"
    },
    {
      "inputs": [
        {
          "internalType": "bytes32",
          "name": "",
          "type": "bytes32"
        },
        {
          "internalType": "bytes32",
          "name": "",
          "type": "bytes32"
        }
      ],
      "name": "versionExists",
      "outputs": [
        {
          "internalType": "bool",
          "name": "",
          "type": "bool"
        }
      ],
      "stateMutability": "view",
      "type": "function"
    },
    {
      "inputs": [
        {
          "internalType": "bytes32",
          "name": "",
          "type": "bytes32"
        },
        {
          "internalType": "uint256",
          "name": "",
          "type": "uint256"
        }
      ],
      "name": "versionToTokenId",
      "outputs": [
        {
          "internalType": "uint256",
          "name": "",
          "type": "uint256"
        }
      ],
      "stateMutability": "view",
      "type": "function"
    },
    {
      "stateMutability": "payable",
      "type": "receive"
    }
  ],
  "bytecode": "0x60c06040523480156200001157600080fd5b5060405162006e9e38038062006e9e8339810160408190526200003491620001b1565b336040518060400160405280600a8152602001694465657046616d696c7960b01b8152506040518060400160405280600681526020016546616d696c7960d01b81525081600090816200008891906200028e565b5060016200009782826200028e565b5050506001600160a01b038116620000c957604051631e4fbdf760e01b81526000600482015260240160405180910390fd5b620000d48162000142565b506001600b556001600160a01b0382166200010257604051634c32eccd60e11b815260040160405180910390fd5b6001600160a01b0381166200012a57604051635fce01bb60e01b815260040160405180910390fd5b6001600160a01b039182166080521660a0526200035a565b600a80546001600160a01b038381166001600160a01b0319831681179093556040519116919082907f8be0079c531659141344cd1fd0a4f28419497f9722a3daafe3b4186f6b6457e090600090a35050565b80516001600160a01b0381168114620001ac57600080fd5b919050565b60008060408385031215620001c557600080fd5b620001d08362000194565b9150620001e06020840162000194565b90509250929050565b634e487b7160e01b600052604160045260246000fd5b600181811c908216806200021457607f821691505b6020821081036200023557634e487b7160e01b600052602260045260246000fd5b50919050565b601f8211156200028957600081815260208120601f850160051c81016020861015620002645750805b601f850160051c820191505b81811015620002855782815560010162000270565b5050505b505050565b81516001600160401b03811115620002aa57620002aa620001e9565b620002c281620002bb8454620001ff565b846200023b565b602080601f831160018114620002fa5760008415620002e15750858301515b600019600386901b1c1916600185901b17855562000285565b600085815260208120601f198616915b828110156200032b578886015182559484019460019091019084016200030a565b50858210156200034a5787850151600019600388901b60f8161c191681555b5050505050600190811b01905550565b60805160a051616afb620003a360003960008181610af10152613091015260008181610bb6015281816134e3015281816136650152818161370a0152614bb70152616afb6000f3fe6080604052600436106103b05760003560e01c8063797e57e5116101e7578063c090fba21161010d578063f1af5875116100a0578063f74faf661161006f578063f74faf6614610d09578063fa1b116314610d41578063fe980dd614610d61578063fe9c3c0514610d93576103ce565b8063f1af587514610c61578063f1fad06714610c81578063f2fde38b14610cae578063f6b14bb914610cce576103ce565b8063d1486a1b116100dc578063d1486a1b14610ba4578063d596b1b014610bd8578063dbcdc08f14610c10578063e985e9c514610c41576103ce565b8063c090fba214610b29578063c841eb1f14610b58578063c87b56dd14610b6e578063d082e38114610b8e576103ce565b8063a22cb46511610185578063b5c7198d11610154578063b5c7198d14610a9f578063b88d4fde14610abf578063bcecdf1d14610adf578063bd7eef2314610b13576103ce565b8063a22cb46514610a1f578063a92c6ad614610a3f578063b00cd7f114610a5f578063b0ac331f14610a7f576103ce565b80638da5cb5b116101c15780638da5cb5b1461099c5780638f2360b3146109ba57806395d89b41146109ea57806397259721146109ff576103ce565b8063797e57e5146108d357806382260f35146108f357806383af719114610925576103ce565b80633cb1af45116102d75780636352211e1161026a578063715018a611610239578063715018a6146108175780637189567c1461082c5780637559704d1461089057806376f0f85d146108bd576103ce565b80636352211e1461077457806367b9b3e114610794578063690a76bf146107ca57806370a08231146107f7576103ce565b80634f6ccce7116102a65780634f6ccce7146106c6578063538ffa0b146106e657806357611dfb146107135780635ea5c6e714610744576103ce565b80633cb1af451461062b57806342842e0e1461064b578063431a342a1461066b57806346cdf869146106a6576103ce565b8063164e38ee1161034f578063278d5fce1161031e578063278d5fce1461057d57806328273a2a146105ab5780632f745c59146105db5780633791b66a146105fb576103ce565b8063164e38ee146104f357806318160ddd1461052857806318e97fd11461053d57806323b872dd1461055d576103ce565b806307b8fe9c1161038b57806307b8fe9c146103e7578063081812fc14610461578063095ea7b3146104995780631516fa25146104bb576103ce565b8062eee6a1146103e757806301ffc9a71461040f57806306fdde031461043f576103ce565b366103ce5760405163af9f22fb60e01b815260040160405180910390fd5b60405163af9f22fb60e01b815260040160405180910390fd5b3480156103f357600080fd5b506103fc606481565b6040519081526020015b60405180910390f35b34801561041b57600080fd5b5061042f61042a3660046153d9565b610db3565b6040519015158152602001610406565b34801561044b57600080fd5b50610454610dde565b604051610406919061544d565b34801561046d57600080fd5b5061048161047c366004615460565b610e70565b6040516001600160a01b039091168152602001610406565b3480156104a557600080fd5b506104b96104b4366004615495565b610e99565b005b3480156104c757600080fd5b506103fc6104d63660046154bf565b601a60209081526000928352604080842090915290825290205481565b3480156104ff57600080fd5b5061051361050e3660046154e1565b610ea8565b60408051928352602083019190915201610406565b34801561053457600080fd5b506008546103fc565b34801561054957600080fd5b506104b9610558366004615555565b610ef2565b34801561056957600080fd5b506104b96105783660046155a0565b61109f565b34801561058957600080fd5b5061059d610598366004615460565b61112f565b6040516104069291906156c3565b3480156105b757600080fd5b506105cb6105c63660046154e1565b611443565b6040516104069493929190615739565b3480156105e757600080fd5b506103fc6105f6366004615495565b611703565b34801561060757600080fd5b5061061b6106163660046154e1565b611768565b60405161040694939291906157ac565b34801561063757600080fd5b506104b9610646366004615803565b611961565b34801561065757600080fd5b506104b96106663660046155a0565b611c65565b34801561067757600080fd5b5061042f6106863660046154bf565b600e60209081526000928352604080842090915290825290205460ff1681565b3480156106b257600080fd5b506104b96106c1366004615886565b611c85565b3480156106d257600080fd5b506103fc6106e1366004615460565b611e7e565b3480156106f257600080fd5b506103fc610701366004615460565b60126020526000908152604090205481565b34801561071f57600080fd5b5061073361072e3660046158e0565b611ed7565b60405161040695949392919061594d565b34801561075057600080fd5b5061076461075f366004615990565b61212b565b60405161040694939291906159e0565b34801561078057600080fd5b5061048161078f366004615460565b6122d6565b3480156107a057600080fd5b506107b46107af3660046154bf565b6122e1565b6040516104069a99989796959493929190615a0f565b3480156107d657600080fd5b506103fc6107e5366004615460565b60116020526000908152604090205481565b34801561080357600080fd5b506103fc610812366004615a8b565b61247b565b34801561082357600080fd5b506104b96124c3565b34801561083857600080fd5b5061084c610847366004615460565b6124d7565b6040516104069190600060a0820190508251825260208301516020830152604083015160408301526060830151151560608301526080830151608083015292915050565b34801561089c57600080fd5b506103fc6108ab366004615460565b6000908152600c602052604090205490565b3480156108c957600080fd5b506103fc61010081565b3480156108df57600080fd5b506104b96108ee366004615460565b612586565b3480156108ff57600080fd5b5061091361090e366004615460565b612674565b60405161040696959493929190615b55565b34801561093157600080fd5b50610972610940366004615460565b6017602052600090815260409020805460018201546002830154600384015460049094015492939192909160ff169085565b6040805195865260208601949094529284019190915215156060830152608082015260a001610406565b3480156109a857600080fd5b50600a546001600160a01b0316610481565b3480156109c657600080fd5b506109da6109d53660046154e1565b612ca1565b6040516104069493929190615bd1565b3480156109f657600080fd5b50610454612fea565b348015610a0b57600080fd5b506104b9610a1a366004615c8e565b612ff9565b348015610a2b57600080fd5b506104b9610a3a366004615d97565b6131c0565b348015610a4b57600080fd5b506103fc610a5a3660046154bf565b6131cb565b348015610a6b57600080fd5b506103fc610a7a3660046154bf565b6131fc565b348015610a8b57600080fd5b506104b9610a9a366004615886565b613218565b348015610aab57600080fd5b506104b9610aba3660046154bf565b613451565b348015610acb57600080fd5b506104b9610ada366004615e81565b6138a1565b348015610aeb57600080fd5b506104817f000000000000000000000000000000000000000000000000000000000000000081565b348015610b1f57600080fd5b506103fc600d5481565b348015610b3557600080fd5b50610b49610b443660046154bf565b6138b9565b60405161040693929190615efc565b348015610b6457600080fd5b506103fc6103e881565b348015610b7a57600080fd5b50610454610b89366004615460565b613b36565b348015610b9a57600080fd5b506103fc60105481565b348015610bb057600080fd5b506104817f000000000000000000000000000000000000000000000000000000000000000081565b348015610be457600080fd5b506103fc610bf33660046154bf565b601660209081526000928352604080842090915290825290205481565b348015610c1c57600080fd5b50610c30610c2b3660046154bf565b613be0565b604051610406959493929190615f21565b348015610c4d57600080fd5b5061042f610c5c366004615f62565b613cac565b348015610c6d57600080fd5b506103fc610c7c36600461607a565b613cda565b348015610c8d57600080fd5b50610ca1610c9c3660046154bf565b613dbb565b60405161040691906160ae565b348015610cba57600080fd5b506104b9610cc9366004615a8b565b613f1f565b348015610cda57600080fd5b5061042f610ce93660046154bf565b601c60209081526000928352604080842090915290825290205460ff1681565b348015610d1557600080fd5b506103fc610d243660046160c1565b600f60209081526000928352604080842090915290825290205481565b348015610d4d57600080fd5b506104b9610d5c3660046160e4565b613f5d565b348015610d6d57600080fd5b50610d81610d7c3660046154e1565b613f7b565b60405161040696959493929190616190565b348015610d9f57600080fd5b50610454610dae3660046154bf565b6141f8565b60006001600160e01b0319821663780e9d6360e01b1480610dd85750610dd8826142b1565b92915050565b606060008054610ded906161e8565b80601f0160208091040260200160405190810160405280929190818152602001828054610e19906161e8565b8015610e665780601f10610e3b57610100808354040283529160200191610e66565b820191906000526020600020905b815481529060010190602001808311610e4957829003601f168201915b5050505050905090565b6000610e7b82614301565b506000828152600460205260409020546001600160a01b0316610dd8565b610ea4828233614339565b5050565b601d6020528260005260406000206020528160005260406000208181548110610ed057600080fd5b6000918252602090912060029091020180546001909101549093509150839050565b33610efc84614346565b6001600160a01b031614610f235760405163daffd8a560e01b815260040160405180910390fd5b610100811115610f46576040516313f04adb60e01b815260040160405180910390fd5b60008381526014602052604081208054610f5f906161e8565b80601f0160208091040260200160405190810160405280929190818152602001828054610f8b906161e8565b8015610fd85780601f10610fad57610100808354040283529160200191610fd8565b820191906000526020600020905b815481529060010190602001808311610fbb57829003601f168201915b5050505050905060008151111561101357600084815260156020908152604082208054600181018255908352912001611011828261627d565b505b6110538484848080601f01602080910402602001604051908101604052809392919081815260200183838082843760009201919091525061436192505050565b336001600160a01b0316847f121742bae49dddcfbb9763fd1170f0dbc15b13707126182671611bbeeeae7cd88386866040516110919392919061635f565b60405180910390a350505050565b6001600160a01b0382166110ce57604051633250574960e11b8152600060048201526024015b60405180910390fd5b60006110db838333614379565b9050836001600160a01b0316816001600160a01b031614611129576040516364283d7b60e01b81526001600160a01b03808616600483015260248201849052821660448201526064016110c5565b50505050565b6013602052806000526040600020600091509050806000016040518060c0016040529081600082018054611162906161e8565b80601f016020809104026020016040519081016040528092919081815260200182805461118e906161e8565b80156111db5780601f106111b0576101008083540402835291602001916111db565b820191906000526020600020905b8154815290600101906020018083116111be57829003601f168201915b50505091835250506001919091015460ff8082161515602084015261ffff6101008304166040808501919091526301000000830482166060850152640100000000830482166080850152650100000000009092041660a090920191909152805160e0810190915260028301805492939282908290611258906161e8565b80601f0160208091040260200160405190810160405280929190818152602001828054611284906161e8565b80156112d15780601f106112a6576101008083540402835291602001916112d1565b820191906000526020600020905b8154815290600101906020018083116112b457829003601f168201915b5050509183525050600182015460ff8082161515602084015261ffff6101008304166040840152630100000082048116606084015264010000000090910416608082015260028201805460a09092019161132a906161e8565b80601f0160208091040260200160405190810160405280929190818152602001828054611356906161e8565b80156113a35780601f10611378576101008083540402835291602001916113a3565b820191906000526020600020905b81548152906001019060200180831161138657829003601f168201915b505050505081526020016003820180546113bc906161e8565b80601f01602080910402602001604051908101604052809291908181526020018280546113e8906161e8565b80156114355780601f1061140a57610100808354040283529160200191611435565b820191906000526020600020905b81548152906001019060200180831161141857829003601f168201915b505050505081525050905082565b6060600080808061145388614346565b6001600160a01b03160361147a576040516307ed98ed60e31b815260040160405180910390fd5b606485111561149c57604051630327a73960e61b815260040160405180910390fd5b600087815260176020526040812080549450908690036114f85760408051600080825260208201909252906114e7565b6114d4615332565b8152602001906001900390816114cc5790505b509450600092508691506116fa9050565b838710611541576040805160008082526020820190925290611530565b61151d615332565b8152602001906001900390816115155790505b509450600092508391506116fa9050565b600061154d878961639b565b90508481111561155a5750835b600061156689836163ae565b9050806001600160401b0381111561158057611580615dce565b6040519080825280602002602001820160405280156115b957816020015b6115a6615332565b81526020019060019003908161159e5790505b50965060005b818110156116ef5760008b8152601860205260408120906115e0838d61639b565b81526020019081526020016000206040518060a0016040529081600082015481526020016001820154815260200160028201805461161d906161e8565b80601f0160208091040260200160405190810160405280929190818152602001828054611649906161e8565b80156116965780601f1061166b57610100808354040283529160200191611696565b820191906000526020600020905b81548152906001019060200180831161167957829003601f168201915b5050509183525050600382015460208201526004909101546001600160a01b031660409091015288518990839081106116d1576116d16163c1565b602002602001018190525080806116e7906163d7565b9150506115bf565b505084811093509150505b93509350935093565b600061170e8361247b565b821061173f5760405163295f44f760e21b81526001600160a01b0384166004820152602481018390526044016110c5565b506001600160a01b03919091166000908152600660209081526040808320938352929052205490565b60008381526015602052604081208054606092909181908582036117c15760408051600080825260208201909252906114e7565b606081526020019060019003908161179c579050509450600092508691506116fa9050565b838710611803576040805160008082526020820190925290611530565b60608152602001906001900390816117de579050509450600092508391506116fa9050565b600061180f878961639b565b90508481111561181c5750835b600061182889836163ae565b9050806001600160401b0381111561184257611842615dce565b60405190808252806020026020018201604052801561187557816020015b60608152602001906001900390816118605790505b50965060005b818110156116ef578361188e828c61639b565b8154811061189e5761189e6163c1565b9060005260206000200180546118b3906161e8565b80601f01602080910402602001604051908101604052809291908181526020018280546118df906161e8565b801561192c5780601f106119015761010080835404028352916020019161192c565b820191906000526020600020905b81548152906001019060200180831161190f57829003601f168201915b5050505050888281518110611943576119436163c1565b60200260200101819052508080611959906163d7565b91505061187b565b61196961444e565b8484816119895760405163e5d242ed60e01b815260040160405180910390fd5b8015806119a357506000828152600c602052604090205481115b156119c157604051630dd4272d60e41b815260040160405180910390fd5b60006119ce6001886163ae565b600089815260166020908152604080832084845290915290205490915015611a0957604051634028e5e560e11b815260040160405180910390fd5b6000888152600f602090815260408083203384529091529020548714611a425760405163786bb09f60e11b815260040160405180910390fd5b610100851115611a65576040516313f04adb60e01b815260040160405180910390fd5b610100611a7560208601866163f0565b611a839060c0810190616410565b90501115611aa45760405163f283c51960e01b815260040160405180910390fd5b610100611ab460208601866163f0565b611abe9080616410565b90501115611adf576040516367181a3960e11b815260040160405180910390fd5b610100611aef60208601866163f0565b611afd9060a0810190616410565b90501115611b1e57604051633769847160e01b815260040160405180910390fd5b6000611b36611b2d8680616456565b610c7c9061646c565b9050888114611b5857604051632f38f48f60e21b815260040160405180910390fd5b6000601060008154611b69906163d7565b91829055509050611b7a3382614478565b611bba8189898080601f01602080910402602001604051908101604052809392919081815260200183838082843760009201919091525061436192505050565b60008181526011602090815260408083208d9055601282528083208c90558c8352601682528083208684528252808320849055838352601390915290208690611c0382826166f4565b905050336001600160a01b0316818b7fbce71c21e84db5e7dca78ea57ad63b6c66f74f74efc25e33592370ecf39e093b8c8c8c42604051611c479493929190616853565b60405180910390a45050505050611c5e6001600b55565b5050505050565b611c80838383604051806020016040528060008152506138a1565b505050565b611c8d61444e565b33611c9786614346565b6001600160a01b031614611cbe5760405163daffd8a560e01b815260040160405180910390fd5b6000858152601760205260409020600381015460ff1615611cf257604051631fcb6b9160e01b815260040160405180910390fd5b80548510611d1357604051637df0b86160e01b815260040160405180910390fd5b821580611d2157506103e883115b15611d3f57604051630ef9fbf360e21b815260040160405180910390fd5b600086815260186020908152604080832088845282528083208151601f88018490048402810184019092528682529291611d949190889088908190840183828082843760009201919091525061449292505050565b90508315801590611da55750838114155b15611dc35760405163016c02f160e61b815260040160405180910390fd5b600182015460028301805460009190611ddb906161e8565b6001860185905591505060028401611df4888a83616478565b504260038501819055600480860180546001600160a01b0319163317905560028701919091558501548790611e2a9083906163ae565b611e34919061639b565b6004860155611e428a6144c2565b604080518381526020810185905233918b918d917f065c2222316af985857085b11b199dc175990521803ca44d2ab1a4ef4c0ea6ef9101611c47565b6000611e8960085490565b8210611eb25760405163295f44f760e21b815260006004820152602481018390526044016110c5565b60088281548110611ec557611ec56163c1565b90600052602060002001549050919050565b60608060008080888881611efe5760405163e5d242ed60e01b815260040160405180910390fd5b801580611f1857506000828152600c602052604090205481115b15611f3657604051630dd4272d60e41b815260040160405180910390fd5b6064881115611f5857604051630327a73960e61b815260040160405180910390fd5b60008b8152601d602090815260408083208d845290915281208054965090899003611fa4575060408051600080825260208201818152828401909352909850909650935088925061211e565b858a10611fd2575060408051600080825260208201818152828401909352909850909650935084925061211e565b6000611fde8a8c61639b565b905086811115611feb5750855b6000611ff78c836163ae565b9050806001600160401b0381111561201157612011615dce565b60405190808252806020026020018201604052801561203a578160200160208202803683370190505b509950806001600160401b0381111561205557612055615dce565b60405190808252806020026020018201604052801561207e578160200160208202803683370190505b50985060005b8181101561211357600084828f61209b919061639b565b815481106120ab576120ab6163c1565b9060005260206000209060020201905080600001548c83815181106120d2576120d26163c1565b60200260200101818152505080600101548b83815181106120f5576120f56163c1565b6020908102919091010152508061210b816163d7565b915050612084565b505086811095509350505b5050945094509450945094565b60606000806000606485111561215457604051630327a73960e61b815260040160405180910390fd5b600061219589898080601f01602080910402602001604051908101604052809392919081815260200183838082843760009201919091525061449292505050565b6000818152601b60205260408120805496509192508790036121cf57505060408051600080825260208201909252945091508590506122cb565b8488106121f457505060408051600080825260208201909252945091508290506122cb565b6000612200888a61639b565b90508581111561220d5750845b60006122198a836163ae565b9050806001600160401b0381111561223357612233615dce565b60405190808252806020026020018201604052801561225c578160200160208202803683370190505b50975060005b818110156122bf5783612275828d61639b565b81548110612285576122856163c1565b90600052602060002001548982815181106122a2576122a26163c1565b6020908102919091010152806122b7816163d7565b915050612262565b50508581109450925050505b945094509450949050565b6000610dd882614301565b600c60205281600052604060002081815481106122fd57600080fd5b600091825260209091206009909102018054600182015460028301546003840154600485015460058601546006870154600788018054979a5095985093969295919490936001600160a01b03811693600160a01b9091046001600160601b03169290919061236a906161e8565b80601f0160208091040260200160405190810160405280929190818152602001828054612396906161e8565b80156123e35780601f106123b8576101008083540402835291602001916123e3565b820191906000526020600020905b8154815290600101906020018083116123c657829003601f168201915b5050505050908060080180546123f8906161e8565b80601f0160208091040260200160405190810160405280929190818152602001828054612424906161e8565b80156124715780601f1061244657610100808354040283529160200191612471565b820191906000526020600020905b81548152906001019060200180831161245457829003601f168201915b505050505090508a565b60006001600160a01b0382166124a7576040516322718ad960e21b8152600060048201526024016110c5565b506001600160a01b031660009081526003602052604090205490565b6124cb61458a565b6124d560006145b7565b565b6040805160a08101825260008082526020820181905291810182905260608101829052608081018290529061250b83614346565b6001600160a01b031603612532576040516307ed98ed60e31b815260040160405180910390fd5b50600090815260176020908152604091829020825160a08101845281548152600182015492810192909252600281015492820192909252600382015460ff1615156060820152600490910154608082015290565b3361259082614346565b6001600160a01b0316146125b75760405163daffd8a560e01b815260040160405180910390fd5b6000818152601760205260409020600381015460ff16156125eb57604051631fcb6b9160e01b815260040160405180910390fd5b805460000361260d57604051637dc66bf560e11b815260040160405180910390fd5b60038101805460ff19166001908117909155426002830155815490820154604051339285927f896066547269dcd0db6295ca6c7f14f927d692103e47c7615259469b74bc7b5d92612668929190918252602082015260400190565b60405180910390a35050565b60008061267f61536d565b6126fb6040805161010081018252606091810182815260009282018390526080820183905260a0820183905260c0820183905260e082019290925290819081526040805160e081018252606080825260006020838101829052938301819052818301819052608083015260a0820181905260c082015291015290565b600060608161270988614346565b6001600160a01b031603612730576040516307ed98ed60e31b815260040160405180910390fd5b60008781526011602052604090205495508561275f576040516307ed98ed60e31b815260040160405180910390fd5b600087815260126020526040812054955061277b6001876163ae565b6000888152600c602052604090208054919250908290811061279f5761279f6163c1565b600091825260209182902060408051610140810182526009909302909101805483526001810154938301939093526002830154908201526003820154606082015260048201546080820152600582015460a082015260068201546001600160a01b03811660c08301526001600160601b03600160a01b9091041660e082015260078201805491929161010084019190612837906161e8565b80601f0160208091040260200160405190810160405280929190818152602001828054612863906161e8565b80156128b05780601f10612885576101008083540402835291602001916128b0565b820191906000526020600020905b81548152906001019060200180831161289357829003601f168201915b505050505081526020016008820180546128c9906161e8565b80601f01602080910402602001604051908101604052809291908181526020018280546128f5906161e8565b80156129425780601f1061291757610100808354040283529160200191612942565b820191906000526020600020905b81548152906001019060200180831161292557829003601f168201915b50505091909252505050600089815260136020526040908190208151610100810183528154939850929091839190820190839082908290612982906161e8565b80601f01602080910402602001604051908101604052809291908181526020018280546129ae906161e8565b80156129fb5780601f106129d0576101008083540402835291602001916129fb565b820191906000526020600020905b8154815290600101906020018083116129de57829003601f168201915b50505091835250506001919091015460ff808216151560208085019190915261ffff61010084041660408086019190915263010000008404831660608601526401000000008404831660808601526501000000000090930490911660a090930192909252918352815160e08101909252600284018054939091019282908290612a83906161e8565b80601f0160208091040260200160405190810160405280929190818152602001828054612aaf906161e8565b8015612afc5780601f10612ad157610100808354040283529160200191612afc565b820191906000526020600020905b815481529060010190602001808311612adf57829003601f168201915b5050509183525050600182015460ff8082161515602084015261ffff6101008304166040840152630100000082048116606084015264010000000090910416608082015260028201805460a090920191612b55906161e8565b80601f0160208091040260200160405190810160405280929190818152602001828054612b81906161e8565b8015612bce5780601f10612ba357610100808354040283529160200191612bce565b820191906000526020600020905b815481529060010190602001808311612bb157829003601f168201915b50505050508152602001600382018054612be7906161e8565b80601f0160208091040260200160405190810160405280929190818152602001828054612c13906161e8565b8015612c605780601f10612c3557610100808354040283529160200191612c60565b820191906000526020600020905b815481529060010190602001808311612c4357829003601f168201915b505050919092525050509052506000888152601a602090815260408083208584529091529020549094509250612c9588613b36565b91505091939550919395565b606060008060006064851115612cca57604051630327a73960e61b815260040160405180910390fd5b6000878152600c602052604081208054945090869003612d255760408051600080825260208201909252906114e7565b612d0261536d565b815260200190600190039081612cfa579050509450600092508691506116fa9050565b838710612d6d576040805160008082526020820190925290611530565b612d4a61536d565b815260200190600190039081612d42579050509450600092508391506116fa9050565b6000612d79878961639b565b905084811115612d865750835b6000612d9289836163ae565b9050806001600160401b03811115612dac57612dac615dce565b604051908082528060200260200182016040528015612de557816020015b612dd261536d565b815260200190600190039081612dca5790505b50965060005b818110156116ef5783612dfe828c61639b565b81548110612e0e57612e0e6163c1565b600091825260209182902060408051610140810182526009909302909101805483526001810154938301939093526002830154908201526003820154606082015260048201546080820152600582015460a082015260068201546001600160a01b03811660c08301526001600160601b03600160a01b9091041660e082015260078201805491929161010084019190612ea6906161e8565b80601f0160208091040260200160405190810160405280929190818152602001828054612ed2906161e8565b8015612f1f5780601f10612ef457610100808354040283529160200191612f1f565b820191906000526020600020905b815481529060010190602001808311612f0257829003601f168201915b50505050508152602001600882018054612f38906161e8565b80601f0160208091040260200160405190810160405280929190818152602001828054612f64906161e8565b8015612fb15780601f10612f8657610100808354040283529160200191612fb1565b820191906000526020600020905b815481529060010190602001808311612f9457829003601f168201915b505050505081525050888281518110612fcc57612fcc6163c1565b60200260200101819052508080612fe2906163d7565b915050612deb565b606060018054610ded906161e8565b601087101561301b576040516303b2487b60e11b815260040160405180910390fd5b60005b601081101561307657604089898381811061303b5761303b6163c1565b90506020020135901c600014613064576040516303b2487b60e11b815260040160405180910390fd5b8061306e816163d7565b91505061301e565b506040516361971b8760e11b81526000906001600160a01b037f0000000000000000000000000000000000000000000000000000000000000000169063c32e370e906130ce908f908f908f908f908f9060040161687e565b602060405180830381865afa1580156130eb573d6000803e3d6000fd5b505050506040513d601f19601f8201168201806040525081019061310f91906168f7565b90508061312f576040516303b2487b60e11b815260040160405180910390fd5b600061313d8a8a6000614609565b9050600061314d8b8b6004614609565b9050600061315d8c8c6008614609565b9050600061316d8d8d600c614609565b9050613181848484848f8f8f8f8f8f6146f8565b604051339085907f3015fe19dc9f8f0d942de39092410a57589dd94d2c9134719335fe04e3695eca90600090a350505050505050505050505050505050565b610ea4338383614c8a565b601960205281600052604060002081815481106131e757600080fd5b90600052602060002001600091509150505481565b601b60205281600052604060002081815481106131e757600080fd5b61322061444e565b3361322a86614346565b6001600160a01b0316146132515760405163daffd8a560e01b815260040160405180910390fd5b81158061325f57506103e882115b1561327d57604051630ef9fbf360e21b815260040160405180910390fd5b6000858152601760205260409020600381015460ff16156132b157604051631fcb6b9160e01b815260040160405180910390fd5b80546064116132d357604051637df0b86160e01b815260040160405180910390fd5b805485146132f457604051637df0b86160e01b815260040160405180910390fd5b600061333585858080601f01602080910402602001604051908101604052809392919081815260200183838082843760009201919091525061449292505050565b905082158015906133465750828114155b156133645760405163016c02f160e61b815260040160405180910390fd5b600087815260186020908152604080832089845290915290208681556001810182905560028101613396868883616478565b504260038201556004810180546001600160a01b0319163317905582546133be90600161639b565b835542600284015560048301546133d690869061639b565b6004840155600088815260196020908152604082208054600181018255908352912001879055613405886144c2565b6040805183815260208101879052339189918b917f9a8c5a1082b04a31158c2062cc003f0764f93a8614a3643f01df8346f0c39f8d910160405180910390a4505050611c5e6001600b55565b8181816134715760405163e5d242ed60e01b815260040160405180910390fd5b80158061348b57506000828152600c602052604090205481115b156134a957604051630dd4272d60e41b815260040160405180910390fd5b6000848152600f602090815260408083203384529091529020548381036134d05750611129565b60006134dd6001866163ae565b905060007f00000000000000000000000000000000000000000000000000000000000000006001600160a01b0316636bf90c716040518163ffffffff1660e01b8152600401602060405180830381865afa15801561353f573d6000803e3d6000fd5b505050506040513d601f19601f820116820180604052508101906135639190616914565b905080156137ac576000878152600c6020526040812080548490811061358b5761358b6163c1565b600091825260208083208b84526016825260408085208886529092529083205460099290920201600681015490935090916001600160a01b0390911690848184156136365760006135db86614346565b90506001600160a01b038116158015906136075750846001600160a01b0316816001600160a01b031614155b1561363457600061361960028a61692d565b90506000613627828b6163ae565b9295509093509091508390505b505b6040516323b872dd60e01b81523360048201526001600160a01b038581166024830152604482018490526000917f0000000000000000000000000000000000000000000000000000000000000000909116906323b872dd906064016020604051808303816000875af11580156136b0573d6000803e3d6000fd5b505050506040513d601f19601f820116820180604052508101906136d491906168f7565b90506001821561377a576040516323b872dd60e01b81523360048201526001600160a01b038681166024830152604482018590527f000000000000000000000000000000000000000000000000000000000000000016906323b872dd906064016020604051808303816000875af1158015613753573d6000803e3d6000fd5b505050506040513d601f19601f8201168201806040525081019061377791906168f7565b90505b811580613785575080155b156137a357604051635da1e97760e11b815260040160405180910390fd5b50505050505050505b821561380b5760006137bf6001856163ae565b6000898152601a602090815260408083208484529091529020549091508015613808576137ed6001826163ae565b60008a8152601a602090815260408083208684529091529020555b50505b6000878152601a60209081526040808320858452909152812080546001929061383590849061639b565b90915550506000878152600f6020908152604080832033808552908352928190208990558051898152918201849052429082015288907f55e71c43a79fd68c0c9f416c70da96b84745f57bf4c2456beb089b4ad7bb3ac89060600160405180910390a350505050505050565b6138ac84848461109f565b6111293385858585614d29565b6138c161536d565b6000808484816138e45760405163e5d242ed60e01b815260040160405180910390fd5b8015806138fe57506000828152600c602052604090205481115b1561391c57604051630dd4272d60e41b815260040160405180910390fd5b60006139296001886163ae565b6000898152600c602052604090208054919250908290811061394d5761394d6163c1565b600091825260209182902060408051610140810182526009909302909101805483526001810154938301939093526002830154908201526003820154606082015260048201546080820152600582015460a082015260068201546001600160a01b03811660c08301526001600160601b03600160a01b9091041660e0820152600782018054919291610100840191906139e5906161e8565b80601f0160208091040260200160405190810160405280929190818152602001828054613a11906161e8565b8015613a5e5780601f10613a3357610100808354040283529160200191613a5e565b820191906000526020600020905b815481529060010190602001808311613a4157829003601f168201915b50505050508152602001600882018054613a77906161e8565b80601f0160208091040260200160405190810160405280929190818152602001828054613aa3906161e8565b8015613af05780601f10613ac557610100808354040283529160200191613af0565b820191906000526020600020905b815481529060010190602001808311613ad357829003601f168201915b505050919092525050506000898152601a602090815260408083208584528252808320549b83526016825280832094835293905291909120549098909650945050505050565b6060613b4182614301565b5060008281526014602052604090208054613b5b906161e8565b80601f0160208091040260200160405190810160405280929190818152602001828054613b87906161e8565b8015613bd45780601f10613ba957610100808354040283529160200191613bd4565b820191906000526020600020905b815481529060010190602001808311613bb757829003601f168201915b50505050509050919050565b601860209081526000928352604080842090915290825290208054600182015460028301805492939192613c13906161e8565b80601f0160208091040260200160405190810160405280929190818152602001828054613c3f906161e8565b8015613c8c5780601f10613c6157610100808354040283529160200191613c8c565b820191906000526020600020905b815481529060010190602001808311613c6f57829003601f168201915b5050505060038301546004909301549192916001600160a01b0316905085565b6001600160a01b03918216600090815260056020908152604080832093909416825291909152205460ff1690565b80518051600091901580613cf057506101008151115b15613d0e57604051635f895cef60e11b815260040160405180910390fd5b600c836060015160ff161115613d37576040516348c5148960e11b815260040160405180910390fd5b601f836080015160ff161115613d60576040516309eabf7d60e21b815260040160405180910390fd5b8051818460200151613d73576000613d76565b60015b6040808701516060880151608089015160a08a01519351613d9d979695949060200161694f565b60405160208183030381529060405280519060200120915050919050565b613dc3615332565b6000613dce84614346565b6001600160a01b031603613df5576040516307ed98ed60e31b815260040160405180910390fd5b600083815260176020526040902080548310613e2457604051637df0b86160e01b815260040160405180910390fd5b6018600085815260200190815260200160002060008481526020019081526020016000206040518060a00160405290816000820154815260200160018201548152602001600282018054613e77906161e8565b80601f0160208091040260200160405190810160405280929190818152602001828054613ea3906161e8565b8015613ef05780601f10613ec557610100808354040283529160200191613ef0565b820191906000526020600020905b815481529060010190602001808311613ed357829003601f168201915b5050509183525050600382015460208201526004909101546001600160a01b0316604090910152949350505050565b613f2761458a565b6001600160a01b038116613f5157604051631e4fbdf760e01b8152600060048201526024016110c5565b613f5a816145b7565b50565b613f6f8a8a8a8a8a8a8a8a8a8a6146f8565b50505050505050505050565b606080606060008060006064871115613fa757604051630327a73960e61b815260040160405180910390fd5b6000898152600c602052604081208054945090889003613ff157505060408051600080825260208201818152828401828152606084019094529197509095509093509050866141ec565b83891061402857505060408051600080825260208201818152828401828152606084019094529197509095509093509050816141ec565b6000614034898b61639b565b9050848111156140415750835b600061404d8b836163ae565b9050806001600160401b0381111561406757614067615dce565b604051908082528060200260200182016040528015614090578160200160208202803683370190505b509850806001600160401b038111156140ab576140ab615dce565b6040519080825280602002602001820160405280156140d4578160200160208202803683370190505b509750806001600160401b038111156140ef576140ef615dce565b604051908082528060200260200182016040528015614118578160200160208202803683370190505b50965060005b818110156141e1576000614132828e61639b565b905061413f81600161639b565b8b8381518110614151576141516163c1565b60209081029190910181019190915260008f8152601a8252604080822084835290925220548a518b908490811061418a5761418a6163c1565b60209081029190910181019190915260008f8152601682526040808220848352909252205489518a90849081106141c3576141c36163c1565b602090810291909101015250806141d9816163d7565b91505061411e565b505084811093509150505b93975093979195509350565b6015602052816000526040600020818154811061421457600080fd5b90600052602060002001600091509150508054614230906161e8565b80601f016020809104026020016040519081016040528092919081815260200182805461425c906161e8565b80156142a95780601f1061427e576101008083540402835291602001916142a9565b820191906000526020600020905b81548152906001019060200180831161428c57829003601f168201915b505050505081565b60006001600160e01b031982166380ac58cd60e01b14806142e257506001600160e01b03198216635b5e139f60e01b145b80610dd857506301ffc9a760e01b6001600160e01b0319831614610dd8565b60008061430d83614346565b90506001600160a01b038116610dd857604051637e27328960e01b8152600481018490526024016110c5565b611c808383836001614e53565b6000908152600260205260409020546001600160a01b031690565b6000828152601460205260409020611c80828261627d565b600080614387858585614f59565b90506001600160a01b0381166143e4576143df84600880546000838152600960205260408120829055600182018355919091527ff3f7a9fe364faab93b216da50a3214154f22a0a2b415b23a84c8169e8b636ee30155565b614407565b846001600160a01b0316816001600160a01b03161461440757614407818561504d565b6001600160a01b0385166144235761441e846150ce565b614446565b846001600160a01b0316816001600160a01b03161461444657614446858561517d565b949350505050565b6002600b540361447157604051633ee5aeb560e01b815260040160405180910390fd5b6002600b55565b610ea48282604051806020016040528060008152506151cd565b6000816040516020016144a591906169c3565b604051602081830303815290604052805190602001209050919050565b60008181526017602090815260408083206019909252822080549192909190036144f25750600060019091015550565b606060005b8254811015614574576000838281548110614514576145146163c1565b600091825260208083209091015488835260188252604080842082855283529283902060010154925190935061454e9186918491016169d5565b60405160208183030381529060405293505050808061456c906163d7565b9150506144f7565b5080516020909101206001909201919091555050565b600a546001600160a01b031633146124d55760405163118cdaa760e01b81523360048201526024016110c5565b600a80546001600160a01b038381166001600160a01b0319831681179093556040519116919082907f8be0079c531659141344cd1fd0a4f28419497f9722a3daafe3b4186f6b6457e090600090a35050565b60008084848481811061461e5761461e6163c1565b905060200201359050600085858560010181811061463e5761463e6163c1565b905060200201359050600086868660020181811061465e5761465e6163c1565b905060200201359050600087878760030181811061467e5761467e6163c1565b905060200201359050604084901c600014158061469e5750604083901c15155b806146ac5750604082901c15155b806146ba5750604081901c15155b156146d8576040516303b2487b60e11b815260040160405180910390fd5b60c09390931b60809290921b9190911760409190911b1717949350505050565b61010083111561471b57604051635fab396360e11b815260040160405180910390fd5b61010081111561473e57604051630601a0fb60e51b815260040160405180910390fd5b6000888152600c602052604090205486111561476d57604051631f9510eb60e01b815260040160405180910390fd5b6000878152600c602052604090205485111561479c5760405163782ce69f60e01b815260040160405180910390fd5b60008a8989898987876040516020016147bb97969594939291906169f7565b60408051601f19818403018152918152815160209283012060008e8152600e845282812082825290935291205490915060ff161561480c576040516314396b6760e11b815260040160405180910390fd5b60008b8152600e602090815260408083208484528252808320805460ff191660011790558d8352600c82528083208151610140810183528f81528084018e90528083018d90526060810194909452608084018b905260a084018a90523360c08501526001600160601b03421660e08501528151601f89018490048402810184019092528782529291610100830191908990899081908401838280828437600092019190915250505090825250604080516020601f8801819004810282018101909252868152918101919087908790819084018382808284376000920182905250939094525050835460018181018655948252602091829020845160099092020190815590830151938101939093555060408101516002830155606081015160038301556080810151600483015560a0810151600583015560c081015160e08201516001600160601b0316600160a01b026001600160a01b039091161760068301556101008101519091906007820190614985908261627d565b50610120820151600882019061499b908261627d565b50505060008b8152600c6020526040902080549081906149bc6001836163ae565b815481106149cc576149cc6163c1565b60009182526020909120600360099092020101558915614a335760008a8152601d602090815260408083208b8452825280832081518083019092528f8252818301858152815460018181018455928652939094209151600290930290910191825591519101555b8815614a86576000898152601d602090815260408083208a8452825280832081518083019092528f8252818301858152815460018181018455928652939094209151600290930290910191825591519101555b80600103614aa457600d8054906000614a9e836163d7565b91905055505b336001600160a01b0316818d7ff24ca8fe8e48960e559267341f81e7b0f07746d1e98c729930fe251bd2875484428e8d8f8e8e8e604051614aeb9796959493929190616a2d565b60405180910390a460008b8152601c602090815260408083208f845290915290205460ff16614b815760008b8152601c602090815260408083208f84528252808320805460ff191660019081179091558e8452601b83528184208054918201815584529183209091018e9055518d918d917f8cdcebfc3a865a36157e8d3cd9a232f9c77037ad01fdd554953ba2722badc9af9190a35b614b8a8a6151e5565b8015614b9a5750614b9a896151e5565b15614c7c576040516335313c2160e11b81523360048201526000907f00000000000000000000000000000000000000000000000000000000000000006001600160a01b031690636a627842906024016020604051808303816000875af1158015614c08573d6000803e3d6000fd5b505050506040513d601f19601f82011682018060405250810190614c2c9190616914565b90508015614c7a57818d336001600160a01b03167fdefc43c3e9b037326c59d7c3f29c0b6b5c94a6fbfcced006b763e74a3115da6d84604051614c7191815260200190565b60405180910390a45b505b505050505050505050505050565b6001600160a01b038216614cbc57604051630b61174360e31b81526001600160a01b03831660048201526024016110c5565b6001600160a01b03838116600081815260056020908152604080832094871680845294825291829020805460ff191686151590811790915591519182527f17307eab39ab6107e8899845ad3d59bd9653f200f220920489ca2b5937696c31910160405180910390a3505050565b6001600160a01b0383163b15611c5e57604051630a85bd0160e11b81526001600160a01b0384169063150b7a0290614d6b908890889087908790600401616a5f565b6020604051808303816000875af1925050508015614da6575060408051601f3d908101601f19168201909252614da391810190616a92565b60015b614e0f573d808015614dd4576040519150601f19603f3d011682016040523d82523d6000602084013e614dd9565b606091505b508051600003614e0757604051633250574960e11b81526001600160a01b03851660048201526024016110c5565b805181602001fd5b6001600160e01b03198116630a85bd0160e11b14614e4b57604051633250574960e11b81526001600160a01b03851660048201526024016110c5565b505050505050565b8080614e6757506001600160a01b03821615155b15614f29576000614e7784614301565b90506001600160a01b03831615801590614ea35750826001600160a01b0316816001600160a01b031614155b8015614eb65750614eb48184613cac565b155b15614edf5760405163a9fbf51f60e01b81526001600160a01b03841660048201526024016110c5565b8115614f275783856001600160a01b0316826001600160a01b03167f8c5be1e5ebec7d5bd14f71427d1e84f3dd0314c0f7b2291e5b200ac8c7c3b92560405160405180910390a45b505b5050600090815260046020526040902080546001600160a01b0319166001600160a01b0392909216919091179055565b600080614f6584614346565b90506001600160a01b03831615614f8157614f81818486615206565b6001600160a01b03811615614fbf57614f9e600085600080614e53565b6001600160a01b038116600090815260036020526040902080546000190190555b6001600160a01b03851615614fee576001600160a01b0385166000908152600360205260409020805460010190555b60008481526002602052604080822080546001600160a01b0319166001600160a01b0389811691821790925591518793918516917fddf252ad1be2c89b69c2b068fc378daa952ba7f163c4a11628f55a4df523b3ef91a4949350505050565b60006150588361247b565b6000838152600760209081526040808320546001600160a01b03881684526006909252909120919250908183146150af57600083815260208281526040808320548584528184208190558352600790915290208290555b6000938452600760209081526040808620869055938552525081205550565b6008546000906150e0906001906163ae565b60008381526009602052604081205460088054939450909284908110615108576151086163c1565b906000526020600020015490508060088381548110615129576151296163c1565b600091825260208083209091019290925582815260099091526040808220849055858252812055600880548061516157615161616aaf565b6001900381819060005260206000200160009055905550505050565b6000600161518a8461247b565b61519491906163ae565b6001600160a01b039093166000908152600660209081526040808320868452825280832085905593825260079052919091209190915550565b6151d7838361526a565b611c80336000858585614d29565b60008115801590610dd85750506000908152600c6020526040902054151590565b6152118383836152cf565b611c80576001600160a01b03831661523f57604051637e27328960e01b8152600481018290526024016110c5565b60405163177e802f60e01b81526001600160a01b0383166004820152602481018290526044016110c5565b6001600160a01b03821661529457604051633250574960e11b8152600060048201526024016110c5565b60006152a283836000614379565b90506001600160a01b03811615611c80576040516339e3563760e11b8152600060048201526024016110c5565b60006001600160a01b038316158015906144465750826001600160a01b0316846001600160a01b0316148061530957506153098484613cac565b806144465750506000908152600460205260409020546001600160a01b03908116911614919050565b6040518060a001604052806000815260200160008019168152602001606081526020016000815260200160006001600160a01b031681525090565b604080516101408101825260008082526020820181905291810182905260608082018390526080820183905260a0820183905260c0820183905260e0820192909252610100810182905261012081019190915290565b6001600160e01b031981168114613f5a57600080fd5b6000602082840312156153eb57600080fd5b81356153f6816153c3565b9392505050565b60005b83811015615418578181015183820152602001615400565b50506000910152565b600081518084526154398160208601602086016153fd565b601f01601f19169290920160200192915050565b6020815260006153f66020830184615421565b60006020828403121561547257600080fd5b5035919050565b80356001600160a01b038116811461549057600080fd5b919050565b600080604083850312156154a857600080fd5b6154b183615479565b946020939093013593505050565b600080604083850312156154d257600080fd5b50508035926020909101359150565b6000806000606084860312156154f657600080fd5b505081359360208301359350604090920135919050565b60008083601f84011261551f57600080fd5b5081356001600160401b0381111561553657600080fd5b60208301915083602082850101111561554e57600080fd5b9250929050565b60008060006040848603121561556a57600080fd5b8335925060208401356001600160401b0381111561558757600080fd5b6155938682870161550d565b9497909650939450505050565b6000806000606084860312156155b557600080fd5b6155be84615479565b92506155cc60208501615479565b9150604084013590509250925092565b6000815160c084526155f160c0850182615421565b905060208301511515602085015261ffff604084015116604085015260ff606084015116606085015260ff608084015116608085015260ff60a08401511660a08501528091505092915050565b6000815160e0845261565360e0850182615421565b905060208301511515602085015261ffff604084015116604085015260ff606084015116606085015260ff608084015116608085015260a083015184820360a08601526156a08282615421565b91505060c083015184820360c08601526156ba8282615421565b95945050505050565b6040815260006156d660408301856155dc565b82810360208401526156ba818561563e565b80518252602081015160208301526000604082015160a0604085015261571160a0850182615421565b606084810151908601526080938401516001600160a01b031693909401929092525090919050565b6000608082016080835280875180835260a08501915060a08160051b86010192506020808a0160005b8381101561579057609f1988870301855261577e8683516156e8565b95509382019390820190600101615762565b5050850197909752509315156040830152506060015292915050565b6000608082016080835280875180835260a08501915060a08160051b86010192506020808a0160005b8381101561579057609f198887030185526157f1868351615421565b955093820193908201906001016157d5565b60008060008060006080868803121561581b57600080fd5b853594506020860135935060408601356001600160401b038082111561584057600080fd5b61584c89838a0161550d565b9095509350606088013591508082111561586557600080fd5b5086016040818903121561587857600080fd5b809150509295509295909350565b60008060008060006080868803121561589e57600080fd5b853594506020860135935060408601356001600160401b038111156158c257600080fd5b6158ce8882890161550d565b96999598509660600135949350505050565b600080600080608085870312156158f657600080fd5b5050823594602084013594506040840135936060013592509050565b600081518084526020808501945080840160005b8381101561594257815187529582019590820190600101615926565b509495945050505050565b60a08152600061596060a0830188615912565b82810360208401526159728188615912565b60408401969096525050911515606083015260809091015292915050565b600080600080606085870312156159a657600080fd5b84356001600160401b038111156159bc57600080fd5b6159c88782880161550d565b90989097506020870135966040013595509350505050565b6080815260006159f36080830187615912565b6020830195909552509115156040830152606090910152919050565b60006101408c83528b60208401528a60408401528960608401528860808401528760a084015260018060a01b03871660c08401526001600160601b03861660e084015280610100840152615a6581840186615421565b9050828103610120840152615a7a8185615421565b9d9c50505050505050505050505050565b600060208284031215615a9d57600080fd5b6153f682615479565b6000610140825184526020830151602085015260408301516040850152606083015160608501526080830151608085015260a083015160a085015260c0830151615afb60c08601826001600160a01b03169052565b5060e0830151615b1660e08601826001600160601b03169052565b50610100808401518282870152615b2f83870182615421565b925050506101208084015185830382870152615b4b8382615421565b9695505050505050565b86815285602082015260c060408201526000615b7460c0830187615aa6565b8281036060840152855160408252615b8f60408301826155dc565b905060208701518282036020840152615ba8828261563e565b9250505084608084015282810360a0840152615bc48185615421565b9998505050505050505050565b6000608082016080835280875180835260a08501915060a08160051b86010192506020808a0160005b8381101561579057609f19888703018552615c16868351615aa6565b95509382019390820190600101615bfa565b8060408101831015610dd857600080fd5b8060808101831015610dd857600080fd5b60008083601f840112615c5c57600080fd5b5081356001600160401b03811115615c7357600080fd5b6020830191508360208260051b850101111561554e57600080fd5b60008060008060008060008060008060006101a08c8e031215615cb057600080fd5b615cba8d8d615c28565b9a50615cc98d60408e01615c39565b9950615cd88d60c08e01615c28565b98506001600160401b03806101008e01351115615cf457600080fd5b615d058e6101008f01358f01615c4a565b90995097506101208d013596506101408d013595506101608d0135811015615d2c57600080fd5b615d3d8e6101608f01358f0161550d565b90955093506101808d0135811015615d5457600080fd5b50615d668d6101808e01358e0161550d565b81935080925050509295989b509295989b9093969950565b8015158114613f5a57600080fd5b803561549081615d7e565b60008060408385031215615daa57600080fd5b615db383615479565b91506020830135615dc381615d7e565b809150509250929050565b634e487b7160e01b600052604160045260246000fd5b60405160c081016001600160401b0381118282101715615e0657615e06615dce565b60405290565b60006001600160401b0380841115615e2657615e26615dce565b604051601f8501601f19908116603f01168101908282118183101715615e4e57615e4e615dce565b81604052809350858152868686011115615e6757600080fd5b858560208301376000602087830101525050509392505050565b60008060008060808587031215615e9757600080fd5b615ea085615479565b9350615eae60208601615479565b92506040850135915060608501356001600160401b03811115615ed057600080fd5b8501601f81018713615ee157600080fd5b615ef087823560208401615e0c565b91505092959194509250565b606081526000615f0f6060830186615aa6565b60208301949094525060400152919050565b85815284602082015260a060408201526000615f4060a0830186615421565b6060830194909452506001600160a01b03919091166080909101529392505050565b60008060408385031215615f7557600080fd5b615f7e83615479565b9150615f8c60208401615479565b90509250929050565b61ffff81168114613f5a57600080fd5b803561549081615f95565b60ff81168114613f5a57600080fd5b803561549081615fb0565b600060c08284031215615fdc57600080fd5b615fe4615de4565b905081356001600160401b03811115615ffc57600080fd5b8201601f8101841361600d57600080fd5b61601c84823560208401615e0c565b82525061602b60208301615d8c565b602082015261603c60408301615fa5565b604082015261604d60608301615fbf565b606082015261605e60808301615fbf565b608082015261606f60a08301615fbf565b60a082015292915050565b60006020828403121561608c57600080fd5b81356001600160401b038111156160a257600080fd5b61444684828501615fca565b6020815260006153f660208301846156e8565b600080604083850312156160d457600080fd5b82359150615f8c60208401615479565b6000806000806000806000806000806101008b8d03121561610457600080fd5b8a35995060208b0135985060408b0135975060608b0135965060808b0135955060a08b0135945060c08b01356001600160401b038082111561614557600080fd5b6161518e838f0161550d565b909650945060e08d013591508082111561616a57600080fd5b506161778d828e0161550d565b915080935050809150509295989b9194979a5092959850565b60c0815260006161a360c0830189615912565b82810360208401526161b58189615912565b905082810360408401526161c98188615912565b60608401969096525050911515608083015260a0909101529392505050565b600181811c908216806161fc57607f821691505b60208210810361621c57634e487b7160e01b600052602260045260246000fd5b50919050565b601f821115611c8057600081815260208120601f850160051c810160208610156162495750805b601f850160051c820191505b81811015614e4b57828155600101616255565b600019600383901b1c191660019190911b1790565b81516001600160401b0381111561629657616296615dce565b6162aa816162a484546161e8565b84616222565b602080601f8311600181146162d957600084156162c75750858301515b6162d18582616268565b865550614e4b565b600085815260208120601f198616915b82811015616308578886015182559484019460019091019084016162e9565b50858210156163265787850151600019600388901b60f8161c191681555b5050505050600190811b01905550565b81835281816020850137506000828201602090810191909152601f909101601f19169091010190565b6040815260006163726040830186615421565b8281036020840152615b4b818587616336565b634e487b7160e01b600052601160045260246000fd5b80820180821115610dd857610dd8616385565b81810381811115610dd857610dd8616385565b634e487b7160e01b600052603260045260246000fd5b6000600182016163e9576163e9616385565b5060010190565b6000823560de1983360301811261640657600080fd5b9190910192915050565b6000808335601e1984360301811261642757600080fd5b8301803591506001600160401b0382111561644157600080fd5b60200191503681900382131561554e57600080fd5b6000823560be1983360301811261640657600080fd5b6000610dd83683615fca565b6001600160401b0383111561648f5761648f615dce565b6164a38361649d83546161e8565b83616222565b6000601f8411600181146164d157600085156164bf5750838201355b6164c98682616268565b845550611c5e565b600083815260209020601f19861690835b8281101561650257868501358255602094850194600190920191016164e2565b508682101561651f5760001960f88860031b161c19848701351681555b505060018560011b0183555050505050565b60008135610dd881615d7e565b60008135610dd881615f95565b60008135610dd881615fb0565b6165628283616410565b6001600160401b0381111561657957616579615dce565b61658d8161658785546161e8565b85616222565b6000601f8211600181146165bb57600083156165a95750838201355b6165b38482616268565b865550616615565b600085815260209020601f19841690835b828110156165ec57868501358255602094850194600190920191016165cc565b50848210156166095760001960f88660031b161c19848701351681555b505060018360011b0185555b505050506001810161664061662c60208501616531565b825490151560ff1660ff1991909116178255565b61666761664f6040850161653e565b825462ffff00191660089190911b62ffff0016178255565b6166906166766060850161654b565b825463ff000000191660189190911b63ff00000016178255565b6166bb61669f6080850161654b565b825464ff00000000191660209190911b64ff0000000016178255565b506166c960a0830183616410565b6166d7818360028601616478565b50506166e660c0830183616410565b611129818360038601616478565b813560be1983360301811261670857600080fd5b82016167148180616410565b6001600160401b0381111561672b5761672b615dce565b61673f8161673986546161e8565b86616222565b6000601f82116001811461676d576000831561675b5750838201355b6167658482616268565b8755506167c7565b600086815260209020601f19841690835b8281101561679e578685013582556020948501946001909201910161677e565b50848210156167bb5760001960f88660031b161c19848701351681555b505060018360011b0186555b50505050600182016167de61662c60208401616531565b6167ed61664f6040840161653e565b6167fc6166766060840161654b565b61680b61669f6080840161654b565b61683861681a60a0840161654b565b825465ff0000000000191660289190911b65ff000000000016178255565b5050610ea461684a60208401846163f0565b60028301616558565b84815260606020820152600061686d606083018587616336565b905082604083015295945050505050565b60006101206040808985378084018860005b60028110156168ad57838284379183019190830190600101616890565b505050808760c086013750610100830181905282018390526101406001600160fb1b038411156168dc57600080fd5b8360051b808683860137929092019091019695505050505050565b60006020828403121561690957600080fd5b81516153f681615d7e565b60006020828403121561692657600080fd5b5051919050565b60008261694a57634e487b7160e01b600052601260045260246000fd5b500490565b600061ffff60f01b808a60f01b1683528851616972816002860160208d016153fd565b60f898891b6001600160f81b03199081166002959092019485019190915260f09790971b1660038301525092851b8416600584015290841b8316600683015290921b16600782015260080192915050565b600082516164068184602087016153fd565b600083516169e78184602088016153fd565b9190910191825250602001919050565b878152866020820152856040820152846060820152836080820152818360a08301376000910160a0019081529695505050505050565b87815286602082015285604082015284606082015283608082015260c060a08201526000615bc460c083018486616336565b6001600160a01b0385811682528416602082015260408101839052608060608201819052600090615b4b90830184615421565b600060208284031215616aa457600080fd5b81516153f6816153c3565b634e487b7160e01b600052603160045260246000fdfea26469706673582212200769d47ff9be601b80a97acd5f8d7ac471c1792bd0f3a9862be46631520c8a0964736f6c63430008140033",
  "linkReferences": {},
  "deployedLinkReferences": {}
}