{
  "_format": "hh-sol-artifact-1",
  "contractName": "DeepFamily",
  "sourceName": "contracts/DeepFamily.sol",
  "abi": [
    {
      "inputs": [
        {
          "internalType": "address",
          "name": "_deepFamilyTokenContract",
          "type": "address"
        },
        {
          "internalType": "address",
          "name": "_personHashVerifier",
          "type": "address"
        }
      ],
      "stateMutability": "nonpayable",
      "type": "constructor"
    },
    {
      "inputs": [],
      "name": "BasicInfoMismatch",
      "type": "error"
    },
    {
      "inputs": [],
      "name": "ChunkHashMismatch",
      "type": "error"
    },
    {
      "inputs": [],
      "name": "ChunkIndexOutOfRange",
      "type": "error"
    },
    {
      "inputs": [],
      "name": "DirectETHNotAccepted",
      "type": "error"
    },
    {
      "inputs": [],
      "name": "DuplicateVersion",
      "type": "error"
    },
    {
      "inputs": [],
      "name": "ERC721EnumerableForbiddenBatchMint",
      "type": "error"
    },
    {
      "inputs": [
        {
          "internalType": "address",
          "name": "sender",
          "type": "address"
        },
        {
          "internalType": "uint256",
          "name": "tokenId",
          "type": "uint256"
        },
        {
          "internalType": "address",
          "name": "owner",
          "type": "address"
        }
      ],
      "name": "ERC721IncorrectOwner",
      "type": "error"
    },
    {
      "inputs": [
        {
          "internalType": "address",
          "name": "operator",
          "type": "address"
        },
        {
          "internalType": "uint256",
          "name": "tokenId",
          "type": "uint256"
        }
      ],
      "name": "ERC721InsufficientApproval",
      "type": "error"
    },
    {
      "inputs": [
        {
          "internalType": "address",
          "name": "approver",
          "type": "address"
        }
      ],
      "name": "ERC721InvalidApprover",
      "type": "error"
    },
    {
      "inputs": [
        {
          "internalType": "address",
          "name": "operator",
          "type": "address"
        }
      ],
      "name": "ERC721InvalidOperator",
      "type": "error"
    },
    {
      "inputs": [
        {
          "internalType": "address",
          "name": "owner",
          "type": "address"
        }
      ],
      "name": "ERC721InvalidOwner",
      "type": "error"
    },
    {
      "inputs": [
        {
          "internalType": "address",
          "name": "receiver",
          "type": "address"
        }
      ],
      "name": "ERC721InvalidReceiver",
      "type": "error"
    },
    {
      "inputs": [
        {
          "internalType": "address",
          "name": "sender",
          "type": "address"
        }
      ],
      "name": "ERC721InvalidSender",
      "type": "error"
    },
    {
      "inputs": [
        {
          "internalType": "uint256",
          "name": "tokenId",
          "type": "uint256"
        }
      ],
      "name": "ERC721NonexistentToken",
      "type": "error"
    },
    {
      "inputs": [
        {
          "internalType": "address",
          "name": "owner",
          "type": "address"
        },
        {
          "internalType": "uint256",
          "name": "index",
          "type": "uint256"
        }
      ],
      "name": "ERC721OutOfBoundsIndex",
      "type": "error"
    },
    {
      "inputs": [],
      "name": "EndorsementFeeTransferFailed",
      "type": "error"
    },
    {
      "inputs": [],
      "name": "InvalidBirthDay",
      "type": "error"
    },
    {
      "inputs": [],
      "name": "InvalidBirthMonth",
      "type": "error"
    },
    {
      "inputs": [],
      "name": "InvalidBirthPlace",
      "type": "error"
    },
    {
      "inputs": [],
      "name": "InvalidCIDLength",
      "type": "error"
    },
    {
      "inputs": [],
      "name": "InvalidChunkContent",
      "type": "error"
    },
    {
      "inputs": [],
      "name": "InvalidDeathPlace",
      "type": "error"
    },
    {
      "inputs": [],
      "name": "InvalidFatherVersionIndex",
      "type": "error"
    },
    {
      "inputs": [],
      "name": "InvalidFullName",
      "type": "error"
    },
    {
      "inputs": [],
      "name": "InvalidMotherVersionIndex",
      "type": "error"
    },
    {
      "inputs": [],
      "name": "InvalidPersonHash",
      "type": "error"
    },
    {
      "inputs": [],
      "name": "InvalidStory",
      "type": "error"
    },
    {
      "inputs": [],
      "name": "InvalidTagLength",
      "type": "error"
    },
    {
      "inputs": [],
      "name": "InvalidTokenId",
      "type": "error"
    },
    {
      "inputs": [],
      "name": "InvalidTokenURI",
      "type": "error"
    },
    {
      "inputs": [],
      "name": "InvalidVersionIndex",
      "type": "error"
    },
    {
      "inputs": [],
      "name": "InvalidZKProof",
      "type": "error"
    },
    {
      "inputs": [],
      "name": "MustBeNFTHolder",
      "type": "error"
    },
    {
      "inputs": [],
      "name": "MustEndorseVersionFirst",
      "type": "error"
    },
    {
      "inputs": [
        {
          "internalType": "address",
          "name": "owner",
          "type": "address"
        }
      ],
      "name": "OwnableInvalidOwner",
      "type": "error"
    },
    {
      "inputs": [
        {
          "internalType": "address",
          "name": "account",
          "type": "address"
        }
      ],
      "name": "OwnableUnauthorizedAccount",
      "type": "error"
    },
    {
      "inputs": [],
      "name": "PageSizeExceedsLimit",
      "type": "error"
    },
    {
      "inputs": [],
      "name": "ReentrancyGuardReentrantCall",
      "type": "error"
    },
    {
      "inputs": [],
      "name": "StoryAlreadySealed",
      "type": "error"
    },
    {
      "inputs": [],
      "name": "StoryNotFound",
      "type": "error"
    },
    {
      "inputs": [],
      "name": "TokenContractNotSet",
      "type": "error"
    },
    {
      "inputs": [],
      "name": "VerifierNotSet",
      "type": "error"
    },
    {
      "inputs": [],
      "name": "VersionAlreadyMinted",
      "type": "error"
    },
    {
      "anonymous": false,
      "inputs": [
        {
          "indexed": true,
          "internalType": "address",
          "name": "owner",
          "type": "address"
        },
        {
          "indexed": true,
          "internalType": "address",
          "name": "approved",
          "type": "address"
        },
        {
          "indexed": true,
          "internalType": "uint256",
          "name": "tokenId",
          "type": "uint256"
        }
      ],
      "name": "Approval",
      "type": "event"
    },
    {
      "anonymous": false,
      "inputs": [
        {
          "indexed": true,
          "internalType": "address",
          "name": "owner",
          "type": "address"
        },
        {
          "indexed": true,
          "internalType": "address",
          "name": "operator",
          "type": "address"
        },
        {
          "indexed": false,
          "internalType": "bool",
          "name": "approved",
          "type": "bool"
        }
      ],
      "name": "ApprovalForAll",
      "type": "event"
    },
    {
      "anonymous": false,
      "inputs": [
        {
          "indexed": true,
          "internalType": "address",
          "name": "previousOwner",
          "type": "address"
        },
        {
          "indexed": true,
          "internalType": "address",
          "name": "newOwner",
          "type": "address"
        }
      ],
      "name": "OwnershipTransferred",
      "type": "event"
    },
    {
      "anonymous": false,
      "inputs": [
        {
          "indexed": true,
          "internalType": "bytes32",
          "name": "personHash",
          "type": "bytes32"
        },
        {
          "indexed": true,
          "internalType": "address",
          "name": "prover",
          "type": "address"
        }
      ],
      "name": "PersonHashZKVerified",
      "type": "event"
    },
    {
      "anonymous": false,
      "inputs": [
        {
          "indexed": true,
          "internalType": "bytes32",
          "name": "personHash",
          "type": "bytes32"
        },
        {
          "indexed": true,
          "internalType": "uint256",
          "name": "tokenId",
          "type": "uint256"
        },
        {
          "indexed": true,
          "internalType": "address",
          "name": "owner",
          "type": "address"
        },
        {
          "indexed": false,
          "internalType": "uint256",
          "name": "versionIndex",
          "type": "uint256"
        },
        {
          "indexed": false,
          "internalType": "string",
          "name": "tokenURI",
          "type": "string"
        },
        {
          "indexed": false,
          "internalType": "uint256",
          "name": "timestamp",
          "type": "uint256"
        }
      ],
      "name": "PersonNFTMinted",
      "type": "event"
    },
    {
      "anonymous": false,
      "inputs": [
        {
          "indexed": true,
          "internalType": "bytes32",
          "name": "personHash",
          "type": "bytes32"
        },
        {
          "indexed": true,
          "internalType": "uint256",
          "name": "versionIndex",
          "type": "uint256"
        },
        {
          "indexed": true,
          "internalType": "address",
          "name": "addedBy",
          "type": "address"
        },
        {
          "indexed": false,
          "internalType": "uint256",
          "name": "timestamp",
          "type": "uint256"
        },
        {
          "indexed": false,
          "internalType": "bytes32",
          "name": "fatherHash",
          "type": "bytes32"
        },
        {
          "indexed": false,
          "internalType": "uint256",
          "name": "fatherVersionIndex",
          "type": "uint256"
        },
        {
          "indexed": false,
          "internalType": "bytes32",
          "name": "motherHash",
          "type": "bytes32"
        },
        {
          "indexed": false,
          "internalType": "uint256",
          "name": "motherVersionIndex",
          "type": "uint256"
        },
        {
          "indexed": false,
          "internalType": "string",
          "name": "tag",
          "type": "string"
        }
      ],
      "name": "PersonVersionAdded",
      "type": "event"
    },
    {
      "anonymous": false,
      "inputs": [
        {
          "indexed": true,
          "internalType": "bytes32",
          "name": "personHash",
          "type": "bytes32"
        },
        {
          "indexed": true,
          "internalType": "address",
          "name": "endorser",
          "type": "address"
        },
        {
          "indexed": false,
          "internalType": "uint256",
          "name": "versionIndex",
          "type": "uint256"
        },
        {
          "indexed": false,
          "internalType": "uint256",
          "name": "endorsementFee",
          "type": "uint256"
        },
        {
          "indexed": false,
          "internalType": "uint256",
          "name": "timestamp",
          "type": "uint256"
        }
      ],
      "name": "PersonVersionEndorsed",
      "type": "event"
    },
    {
      "anonymous": false,
      "inputs": [
        {
          "indexed": true,
          "internalType": "uint256",
          "name": "tokenId",
          "type": "uint256"
        },
        {
          "indexed": true,
          "internalType": "uint256",
          "name": "chunkIndex",
          "type": "uint256"
        },
        {
          "indexed": false,
          "internalType": "bytes32",
          "name": "chunkHash",
          "type": "bytes32"
        },
        {
          "indexed": true,
          "internalType": "address",
          "name": "editor",
          "type": "address"
        },
        {
          "indexed": false,
          "internalType": "uint256",
          "name": "contentLength",
          "type": "uint256"
        }
      ],
      "name": "StoryChunkAdded",
      "type": "event"
    },
    {
      "anonymous": false,
      "inputs": [
        {
          "indexed": true,
          "internalType": "uint256",
          "name": "tokenId",
          "type": "uint256"
        },
        {
          "indexed": true,
          "internalType": "uint256",
          "name": "chunkIndex",
          "type": "uint256"
        },
        {
          "indexed": false,
          "internalType": "bytes32",
          "name": "oldHash",
          "type": "bytes32"
        },
        {
          "indexed": false,
          "internalType": "bytes32",
          "name": "newHash",
          "type": "bytes32"
        },
        {
          "indexed": true,
          "internalType": "address",
          "name": "editor",
          "type": "address"
        }
      ],
      "name": "StoryChunkUpdated",
      "type": "event"
    },
    {
      "anonymous": false,
      "inputs": [
        {
          "indexed": true,
          "internalType": "uint256",
          "name": "tokenId",
          "type": "uint256"
        },
        {
          "indexed": false,
          "internalType": "uint256",
          "name": "totalChunks",
          "type": "uint256"
        },
        {
          "indexed": false,
          "internalType": "bytes32",
          "name": "fullStoryHash",
          "type": "bytes32"
        },
        {
          "indexed": true,
          "internalType": "address",
          "name": "sealer",
          "type": "address"
        }
      ],
      "name": "StorySealed",
      "type": "event"
    },
    {
      "anonymous": false,
      "inputs": [
        {
          "indexed": true,
          "internalType": "address",
          "name": "miner",
          "type": "address"
        },
        {
          "indexed": true,
          "internalType": "bytes32",
          "name": "personHash",
          "type": "bytes32"
        },
        {
          "indexed": true,
          "internalType": "uint256",
          "name": "versionIndex",
          "type": "uint256"
        },
        {
          "indexed": false,
          "internalType": "uint256",
          "name": "reward",
          "type": "uint256"
        }
      ],
      "name": "TokenRewardDistributed",
      "type": "event"
    },
    {
      "anonymous": false,
      "inputs": [
        {
          "indexed": true,
          "internalType": "uint256",
          "name": "tokenId",
          "type": "uint256"
        },
        {
          "indexed": true,
          "internalType": "address",
          "name": "owner",
          "type": "address"
        },
        {
          "indexed": false,
          "internalType": "string",
          "name": "oldURI",
          "type": "string"
        },
        {
          "indexed": false,
          "internalType": "string",
          "name": "newURI",
          "type": "string"
        }
      ],
      "name": "TokenURIUpdated",
      "type": "event"
    },
    {
      "anonymous": false,
      "inputs": [
        {
          "indexed": true,
          "internalType": "address",
          "name": "from",
          "type": "address"
        },
        {
          "indexed": true,
          "internalType": "address",
          "name": "to",
          "type": "address"
        },
        {
          "indexed": true,
          "internalType": "uint256",
          "name": "tokenId",
          "type": "uint256"
        }
      ],
      "name": "Transfer",
      "type": "event"
    },
    {
      "stateMutability": "payable",
      "type": "fallback"
    },
    {
      "inputs": [],
      "name": "DEEP_FAMILY_TOKEN_CONTRACT",
      "outputs": [
        {
          "internalType": "address",
          "name": "",
          "type": "address"
        }
      ],
      "stateMutability": "view",
      "type": "function"
    },
    {
      "inputs": [],
      "name": "MAX_CHUNK_CONTENT_LENGTH",
      "outputs": [
        {
          "internalType": "uint256",
          "name": "",
          "type": "uint256"
        }
      ],
      "stateMutability": "view",
      "type": "function"
    },
    {
      "inputs": [],
      "name": "MAX_LONG_TEXT_LENGTH",
      "outputs": [
        {
          "internalType": "uint256",
          "name": "",
          "type": "uint256"
        }
      ],
      "stateMutability": "view",
      "type": "function"
    },
    {
      "inputs": [],
      "name": "MAX_QUERY_PAGE_SIZE",
      "outputs": [
        {
          "internalType": "uint256",
          "name": "",
          "type": "uint256"
        }
      ],
      "stateMutability": "view",
      "type": "function"
    },
    {
      "inputs": [],
      "name": "MAX_STORY_CHUNKS",
      "outputs": [
        {
          "internalType": "uint256",
          "name": "",
          "type": "uint256"
        }
      ],
      "stateMutability": "view",
      "type": "function"
    },
    {
      "inputs": [],
      "name": "PERSON_HASH_VERIFIER",
      "outputs": [
        {
          "internalType": "address",
          "name": "",
          "type": "address"
        }
      ],
      "stateMutability": "view",
      "type": "function"
    },
    {
      "inputs": [
        {
          "internalType": "uint256",
          "name": "",
          "type": "uint256"
        },
        {
          "internalType": "uint256",
          "name": "",
          "type": "uint256"
        }
      ],
      "name": "activeChunkIndices",
      "outputs": [
        {
          "internalType": "uint256",
          "name": "",
          "type": "uint256"
        }
      ],
      "stateMutability": "view",
      "type": "function"
    },
    {
      "inputs": [
        {
          "internalType": "bytes32",
          "name": "personHash",
          "type": "bytes32"
        },
        {
          "internalType": "bytes32",
          "name": "fatherHash",
          "type": "bytes32"
        },
        {
          "internalType": "bytes32",
          "name": "motherHash",
          "type": "bytes32"
        },
        {
          "internalType": "uint256",
          "name": "fatherVersionIndex",
          "type": "uint256"
        },
        {
          "internalType": "uint256",
          "name": "motherVersionIndex",
          "type": "uint256"
        },
        {
          "internalType": "string",
          "name": "tag",
          "type": "string"
        },
        {
          "internalType": "string",
          "name": "metadataCID",
          "type": "string"
        }
      ],
      "name": "addPerson",
      "outputs": [],
      "stateMutability": "nonpayable",
      "type": "function"
    },
    {
      "inputs": [
        {
          "internalType": "uint256[2]",
          "name": "a",
          "type": "uint256[2]"
        },
        {
          "internalType": "uint256[2][2]",
          "name": "b",
          "type": "uint256[2][2]"
        },
        {
          "internalType": "uint256[2]",
          "name": "c",
          "type": "uint256[2]"
        },
        {
          "internalType": "uint256[]",
          "name": "publicSignals",
          "type": "uint256[]"
        },
        {
          "internalType": "uint256",
          "name": "fatherVersionIndex",
          "type": "uint256"
        },
        {
          "internalType": "uint256",
          "name": "motherVersionIndex",
          "type": "uint256"
        },
        {
          "internalType": "string",
          "name": "tag",
          "type": "string"
        },
        {
          "internalType": "string",
          "name": "metadataCID",
          "type": "string"
        }
      ],
      "name": "addPersonZK",
      "outputs": [],
      "stateMutability": "nonpayable",
      "type": "function"
    },
    {
      "inputs": [
        {
          "internalType": "uint256",
          "name": "tokenId",
          "type": "uint256"
        },
        {
          "internalType": "uint256",
          "name": "chunkIndex",
          "type": "uint256"
        },
        {
          "internalType": "string",
          "name": "content",
          "type": "string"
        },
        {
          "internalType": "bytes32",
          "name": "expectedHash",
          "type": "bytes32"
        }
      ],
      "name": "addStoryChunk",
      "outputs": [],
      "stateMutability": "nonpayable",
      "type": "function"
    },
    {
      "inputs": [
        {
          "internalType": "address",
          "name": "to",
          "type": "address"
        },
        {
          "internalType": "uint256",
          "name": "tokenId",
          "type": "uint256"
        }
      ],
      "name": "approve",
      "outputs": [],
      "stateMutability": "nonpayable",
      "type": "function"
    },
    {
      "inputs": [
        {
          "internalType": "address",
          "name": "owner",
          "type": "address"
        }
      ],
      "name": "balanceOf",
      "outputs": [
        {
          "internalType": "uint256",
          "name": "",
          "type": "uint256"
        }
      ],
      "stateMutability": "view",
      "type": "function"
    },
    {
      "inputs": [
        {
          "internalType": "bytes32",
          "name": "",
          "type": "bytes32"
        },
        {
          "internalType": "uint256",
          "name": "",
          "type": "uint256"
        },
        {
          "internalType": "uint256",
          "name": "",
          "type": "uint256"
        }
      ],
      "name": "childrenOf",
      "outputs": [
        {
          "internalType": "bytes32",
          "name": "childHash",
          "type": "bytes32"
        },
        {
          "internalType": "uint256",
          "name": "childVersionIndex",
          "type": "uint256"
        }
      ],
      "stateMutability": "view",
      "type": "function"
    },
    {
      "inputs": [
        {
          "internalType": "bytes32",
          "name": "personHash",
          "type": "bytes32"
        }
      ],
      "name": "countPersonVersions",
      "outputs": [
        {
          "internalType": "uint256",
          "name": "versionCount",
          "type": "uint256"
        }
      ],
      "stateMutability": "view",
      "type": "function"
    },
    {
      "inputs": [
        {
          "internalType": "bytes32",
          "name": "personHash",
          "type": "bytes32"
        },
        {
          "internalType": "uint256",
          "name": "versionIndex",
          "type": "uint256"
        }
      ],
      "name": "endorseVersion",
      "outputs": [],
      "stateMutability": "nonpayable",
      "type": "function"
    },
    {
      "inputs": [
        {
          "internalType": "bytes32",
          "name": "",
          "type": "bytes32"
        },
        {
          "internalType": "address",
          "name": "",
          "type": "address"
        }
      ],
      "name": "endorsedVersionIndex",
      "outputs": [
        {
          "internalType": "uint256",
          "name": "",
          "type": "uint256"
        }
      ],
      "stateMutability": "view",
      "type": "function"
    },
    {
      "inputs": [
        {
          "internalType": "uint256",
          "name": "tokenId",
          "type": "uint256"
        }
      ],
      "name": "getApproved",
      "outputs": [
        {
          "internalType": "address",
          "name": "",
          "type": "address"
        }
      ],
      "stateMutability": "view",
      "type": "function"
    },
    {
      "inputs": [
        {
          "internalType": "string",
          "name": "fullName",
          "type": "string"
        }
      ],
      "name": "getFullNameHash",
      "outputs": [
        {
          "internalType": "bytes32",
          "name": "",
          "type": "bytes32"
        }
      ],
      "stateMutability": "pure",
      "type": "function"
    },
    {
      "inputs": [
        {
          "internalType": "uint256",
          "name": "tokenId",
          "type": "uint256"
        }
      ],
      "name": "getNFTDetails",
      "outputs": [
        {
          "internalType": "bytes32",
          "name": "personHash",
          "type": "bytes32"
        },
        {
          "internalType": "uint256",
          "name": "versionIndex",
          "type": "uint256"
        },
        {
          "components": [
            {
              "internalType": "bytes32",
              "name": "personHash",
              "type": "bytes32"
            },
            {
              "internalType": "bytes32",
              "name": "fatherHash",
              "type": "bytes32"
            },
            {
              "internalType": "bytes32",
              "name": "motherHash",
              "type": "bytes32"
            },
            {
              "internalType": "uint256",
              "name": "versionIndex",
              "type": "uint256"
            },
            {
              "internalType": "uint256",
              "name": "fatherVersionIndex",
              "type": "uint256"
            },
            {
              "internalType": "uint256",
              "name": "motherVersionIndex",
              "type": "uint256"
            },
            {
              "internalType": "address",
              "name": "addedBy",
              "type": "address"
            },
            {
              "internalType": "uint96",
              "name": "timestamp",
              "type": "uint96"
            },
            {
              "internalType": "string",
              "name": "tag",
              "type": "string"
            },
            {
              "internalType": "string",
              "name": "metadataCID",
              "type": "string"
            }
          ],
          "internalType": "struct DeepFamily.PersonVersion",
          "name": "version",
          "type": "tuple"
        },
        {
          "components": [
            {
              "components": [
                {
                  "internalType": "bytes32",
                  "name": "fullNameHash",
                  "type": "bytes32"
                },
                {
                  "internalType": "bool",
                  "name": "isBirthBC",
                  "type": "bool"
                },
                {
                  "internalType": "uint16",
                  "name": "birthYear",
                  "type": "uint16"
                },
                {
                  "internalType": "uint8",
                  "name": "birthMonth",
                  "type": "uint8"
                },
                {
                  "internalType": "uint8",
                  "name": "birthDay",
                  "type": "uint8"
                },
                {
                  "internalType": "uint8",
                  "name": "gender",
                  "type": "uint8"
                }
              ],
              "internalType": "struct DeepFamily.PersonBasicInfo",
              "name": "basicInfo",
              "type": "tuple"
            },
            {
              "components": [
                {
                  "internalType": "string",
                  "name": "fullName",
                  "type": "string"
                },
                {
                  "internalType": "string",
                  "name": "birthPlace",
                  "type": "string"
                },
                {
                  "internalType": "bool",
                  "name": "isDeathBC",
                  "type": "bool"
                },
                {
                  "internalType": "uint16",
                  "name": "deathYear",
                  "type": "uint16"
                },
                {
                  "internalType": "uint8",
                  "name": "deathMonth",
                  "type": "uint8"
                },
                {
                  "internalType": "uint8",
                  "name": "deathDay",
                  "type": "uint8"
                },
                {
                  "internalType": "string",
                  "name": "deathPlace",
                  "type": "string"
                },
                {
                  "internalType": "string",
                  "name": "story",
                  "type": "string"
                }
              ],
              "internalType": "struct DeepFamily.PersonSupplementInfo",
              "name": "supplementInfo",
              "type": "tuple"
            }
          ],
          "internalType": "struct DeepFamily.PersonCoreInfo",
          "name": "coreInfo",
          "type": "tuple"
        },
        {
          "internalType": "uint256",
          "name": "endorsementCount",
          "type": "uint256"
        },
        {
          "internalType": "string",
          "name": "nftTokenURI",
          "type": "string"
        }
      ],
      "stateMutability": "view",
      "type": "function"
    },
    {
      "inputs": [
        {
          "components": [
            {
              "internalType": "bytes32",
              "name": "fullNameHash",
              "type": "bytes32"
            },
            {
              "internalType": "bool",
              "name": "isBirthBC",
              "type": "bool"
            },
            {
              "internalType": "uint16",
              "name": "birthYear",
              "type": "uint16"
            },
            {
              "internalType": "uint8",
              "name": "birthMonth",
              "type": "uint8"
            },
            {
              "internalType": "uint8",
              "name": "birthDay",
              "type": "uint8"
            },
            {
              "internalType": "uint8",
              "name": "gender",
              "type": "uint8"
            }
          ],
          "internalType": "struct DeepFamily.PersonBasicInfo",
          "name": "basicInfo",
          "type": "tuple"
        }
      ],
      "name": "getPersonHash",
      "outputs": [
        {
          "internalType": "bytes32",
          "name": "",
          "type": "bytes32"
        }
      ],
      "stateMutability": "pure",
      "type": "function"
    },
    {
      "inputs": [
        {
          "internalType": "uint256",
          "name": "tokenId",
          "type": "uint256"
        },
        {
          "internalType": "uint256",
          "name": "chunkIndex",
          "type": "uint256"
        }
      ],
      "name": "getStoryChunk",
      "outputs": [
        {
          "components": [
            {
              "internalType": "uint256",
              "name": "chunkIndex",
              "type": "uint256"
            },
            {
              "internalType": "bytes32",
              "name": "chunkHash",
              "type": "bytes32"
            },
            {
              "internalType": "string",
              "name": "content",
              "type": "string"
            },
            {
              "internalType": "uint256",
              "name": "timestamp",
              "type": "uint256"
            },
            {
              "internalType": "address",
              "name": "lastEditor",
              "type": "address"
            }
          ],
          "internalType": "struct DeepFamily.StoryChunk",
          "name": "chunk",
          "type": "tuple"
        }
      ],
      "stateMutability": "view",
      "type": "function"
    },
    {
      "inputs": [
        {
          "internalType": "uint256",
          "name": "tokenId",
          "type": "uint256"
        }
      ],
      "name": "getStoryMetadata",
      "outputs": [
        {
          "components": [
            {
              "internalType": "uint256",
              "name": "totalChunks",
              "type": "uint256"
            },
            {
              "internalType": "bytes32",
              "name": "fullStoryHash",
              "type": "bytes32"
            },
            {
              "internalType": "uint256",
              "name": "lastUpdateTime",
              "type": "uint256"
            },
            {
              "internalType": "bool",
              "name": "isSealed",
              "type": "bool"
            },
            {
              "internalType": "uint256",
              "name": "totalLength",
              "type": "uint256"
            }
          ],
          "internalType": "struct DeepFamily.StoryMetadata",
          "name": "metadata",
          "type": "tuple"
        }
      ],
      "stateMutability": "view",
      "type": "function"
    },
    {
      "inputs": [
        {
          "internalType": "bytes32",
          "name": "personHash",
          "type": "bytes32"
        },
        {
          "internalType": "uint256",
          "name": "versionIndex",
          "type": "uint256"
        }
      ],
      "name": "getVersionDetails",
      "outputs": [
        {
          "components": [
            {
              "internalType": "bytes32",
              "name": "personHash",
              "type": "bytes32"
            },
            {
              "internalType": "bytes32",
              "name": "fatherHash",
              "type": "bytes32"
            },
            {
              "internalType": "bytes32",
              "name": "motherHash",
              "type": "bytes32"
            },
            {
              "internalType": "uint256",
              "name": "versionIndex",
              "type": "uint256"
            },
            {
              "internalType": "uint256",
              "name": "fatherVersionIndex",
              "type": "uint256"
            },
            {
              "internalType": "uint256",
              "name": "motherVersionIndex",
              "type": "uint256"
            },
            {
              "internalType": "address",
              "name": "addedBy",
              "type": "address"
            },
            {
              "internalType": "uint96",
              "name": "timestamp",
              "type": "uint96"
            },
            {
              "internalType": "string",
              "name": "tag",
              "type": "string"
            },
            {
              "internalType": "string",
              "name": "metadataCID",
              "type": "string"
            }
          ],
          "internalType": "struct DeepFamily.PersonVersion",
          "name": "version",
          "type": "tuple"
        },
        {
          "internalType": "uint256",
          "name": "endorsementCount",
          "type": "uint256"
        },
        {
          "internalType": "uint256",
          "name": "tokenId",
          "type": "uint256"
        }
      ],
      "stateMutability": "view",
      "type": "function"
    },
    {
      "inputs": [
        {
          "internalType": "address",
          "name": "owner",
          "type": "address"
        },
        {
          "internalType": "address",
          "name": "operator",
          "type": "address"
        }
      ],
      "name": "isApprovedForAll",
      "outputs": [
        {
          "internalType": "bool",
          "name": "",
          "type": "bool"
        }
      ],
      "stateMutability": "view",
      "type": "function"
    },
    {
      "inputs": [
        {
          "internalType": "bytes32",
          "name": "parentHash",
          "type": "bytes32"
        },
        {
          "internalType": "uint256",
          "name": "parentVersionIndex",
          "type": "uint256"
        },
        {
          "internalType": "uint256",
          "name": "offset",
          "type": "uint256"
        },
        {
          "internalType": "uint256",
          "name": "limit",
          "type": "uint256"
        }
      ],
      "name": "listChildren",
      "outputs": [
        {
          "internalType": "bytes32[]",
          "name": "childHashes",
          "type": "bytes32[]"
        },
        {
          "internalType": "uint256[]",
          "name": "childVersionIndices",
          "type": "uint256[]"
        },
        {
          "internalType": "uint256",
          "name": "totalCount",
          "type": "uint256"
        },
        {
          "internalType": "bool",
          "name": "hasMore",
          "type": "bool"
        },
        {
          "internalType": "uint256",
          "name": "nextOffset",
          "type": "uint256"
        }
      ],
      "stateMutability": "view",
      "type": "function"
    },
    {
      "inputs": [
        {
          "internalType": "bytes32",
          "name": "personHash",
          "type": "bytes32"
        },
        {
          "internalType": "uint256",
          "name": "offset",
          "type": "uint256"
        },
        {
          "internalType": "uint256",
          "name": "limit",
          "type": "uint256"
        }
      ],
      "name": "listPersonVersions",
      "outputs": [
        {
          "components": [
            {
              "internalType": "bytes32",
              "name": "personHash",
              "type": "bytes32"
            },
            {
              "internalType": "bytes32",
              "name": "fatherHash",
              "type": "bytes32"
            },
            {
              "internalType": "bytes32",
              "name": "motherHash",
              "type": "bytes32"
            },
            {
              "internalType": "uint256",
              "name": "versionIndex",
              "type": "uint256"
            },
            {
              "internalType": "uint256",
              "name": "fatherVersionIndex",
              "type": "uint256"
            },
            {
              "internalType": "uint256",
              "name": "motherVersionIndex",
              "type": "uint256"
            },
            {
              "internalType": "address",
              "name": "addedBy",
              "type": "address"
            },
            {
              "internalType": "uint96",
              "name": "timestamp",
              "type": "uint96"
            },
            {
              "internalType": "string",
              "name": "tag",
              "type": "string"
            },
            {
              "internalType": "string",
              "name": "metadataCID",
              "type": "string"
            }
          ],
          "internalType": "struct DeepFamily.PersonVersion[]",
          "name": "versions",
          "type": "tuple[]"
        },
        {
          "internalType": "uint256",
          "name": "totalVersions",
          "type": "uint256"
        },
        {
          "internalType": "bool",
          "name": "hasMore",
          "type": "bool"
        },
        {
          "internalType": "uint256",
          "name": "nextOffset",
          "type": "uint256"
        }
      ],
      "stateMutability": "view",
      "type": "function"
    },
    {
      "inputs": [
        {
          "internalType": "uint256",
          "name": "tokenId",
          "type": "uint256"
        },
        {
          "internalType": "uint256",
          "name": "offset",
          "type": "uint256"
        },
        {
          "internalType": "uint256",
          "name": "limit",
          "type": "uint256"
        }
      ],
      "name": "listStoryChunks",
      "outputs": [
        {
          "components": [
            {
              "internalType": "uint256",
              "name": "chunkIndex",
              "type": "uint256"
            },
            {
              "internalType": "bytes32",
              "name": "chunkHash",
              "type": "bytes32"
            },
            {
              "internalType": "string",
              "name": "content",
              "type": "string"
            },
            {
              "internalType": "uint256",
              "name": "timestamp",
              "type": "uint256"
            },
            {
              "internalType": "address",
              "name": "lastEditor",
              "type": "address"
            }
          ],
          "internalType": "struct DeepFamily.StoryChunk[]",
          "name": "chunks",
          "type": "tuple[]"
        },
        {
          "internalType": "uint256",
          "name": "totalChunks",
          "type": "uint256"
        },
        {
          "internalType": "bool",
          "name": "hasMore",
          "type": "bool"
        },
        {
          "internalType": "uint256",
          "name": "nextOffset",
          "type": "uint256"
        }
      ],
      "stateMutability": "view",
      "type": "function"
    },
    {
      "inputs": [
        {
          "internalType": "uint256",
          "name": "tokenId",
          "type": "uint256"
        },
        {
          "internalType": "uint256",
          "name": "offset",
          "type": "uint256"
        },
        {
          "internalType": "uint256",
          "name": "limit",
          "type": "uint256"
        }
      ],
      "name": "listTokenURIHistory",
      "outputs": [
        {
          "internalType": "string[]",
          "name": "uris",
          "type": "string[]"
        },
        {
          "internalType": "uint256",
          "name": "totalCount",
          "type": "uint256"
        },
        {
          "internalType": "bool",
          "name": "hasMore",
          "type": "bool"
        },
        {
          "internalType": "uint256",
          "name": "nextOffset",
          "type": "uint256"
        }
      ],
      "stateMutability": "view",
      "type": "function"
    },
    {
      "inputs": [
        {
          "internalType": "bytes32",
          "name": "personHash",
          "type": "bytes32"
        },
        {
          "internalType": "uint256",
          "name": "offset",
          "type": "uint256"
        },
        {
          "internalType": "uint256",
          "name": "limit",
          "type": "uint256"
        }
      ],
      "name": "listVersionsEndorsementStats",
      "outputs": [
        {
          "internalType": "uint256[]",
          "name": "versionIndices",
          "type": "uint256[]"
        },
        {
          "internalType": "uint256[]",
          "name": "endorsementCounts",
          "type": "uint256[]"
        },
        {
          "internalType": "uint256[]",
          "name": "tokenIds",
          "type": "uint256[]"
        },
        {
          "internalType": "uint256",
          "name": "totalVersions",
          "type": "uint256"
        },
        {
          "internalType": "bool",
          "name": "hasMore",
          "type": "bool"
        },
        {
          "internalType": "uint256",
          "name": "nextOffset",
          "type": "uint256"
        }
      ],
      "stateMutability": "view",
      "type": "function"
    },
    {
      "inputs": [
        {
          "internalType": "bytes32",
          "name": "personHash",
          "type": "bytes32"
        },
        {
          "internalType": "uint256",
          "name": "versionIndex",
          "type": "uint256"
        },
        {
          "internalType": "string",
          "name": "_tokenURI",
          "type": "string"
        },
        {
          "components": [
            {
              "components": [
                {
                  "internalType": "bytes32",
                  "name": "fullNameHash",
                  "type": "bytes32"
                },
                {
                  "internalType": "bool",
                  "name": "isBirthBC",
                  "type": "bool"
                },
                {
                  "internalType": "uint16",
                  "name": "birthYear",
                  "type": "uint16"
                },
                {
                  "internalType": "uint8",
                  "name": "birthMonth",
                  "type": "uint8"
                },
                {
                  "internalType": "uint8",
                  "name": "birthDay",
                  "type": "uint8"
                },
                {
                  "internalType": "uint8",
                  "name": "gender",
                  "type": "uint8"
                }
              ],
              "internalType": "struct DeepFamily.PersonBasicInfo",
              "name": "basicInfo",
              "type": "tuple"
            },
            {
              "components": [
                {
                  "internalType": "string",
                  "name": "fullName",
                  "type": "string"
                },
                {
                  "internalType": "string",
                  "name": "birthPlace",
                  "type": "string"
                },
                {
                  "internalType": "bool",
                  "name": "isDeathBC",
                  "type": "bool"
                },
                {
                  "internalType": "uint16",
                  "name": "deathYear",
                  "type": "uint16"
                },
                {
                  "internalType": "uint8",
                  "name": "deathMonth",
                  "type": "uint8"
                },
                {
                  "internalType": "uint8",
                  "name": "deathDay",
                  "type": "uint8"
                },
                {
                  "internalType": "string",
                  "name": "deathPlace",
                  "type": "string"
                },
                {
                  "internalType": "string",
                  "name": "story",
                  "type": "string"
                }
              ],
              "internalType": "struct DeepFamily.PersonSupplementInfo",
              "name": "supplementInfo",
              "type": "tuple"
            }
          ],
          "internalType": "struct DeepFamily.PersonCoreInfo",
          "name": "coreInfo",
          "type": "tuple"
        }
      ],
      "name": "mintPersonNFT",
      "outputs": [],
      "stateMutability": "nonpayable",
      "type": "function"
    },
    {
      "inputs": [],
      "name": "name",
      "outputs": [
        {
          "internalType": "string",
          "name": "",
          "type": "string"
        }
      ],
      "stateMutability": "view",
      "type": "function"
    },
    {
      "inputs": [
        {
          "internalType": "uint256",
          "name": "",
          "type": "uint256"
        }
      ],
      "name": "nftCoreInfo",
      "outputs": [
        {
          "components": [
            {
              "internalType": "bytes32",
              "name": "fullNameHash",
              "type": "bytes32"
            },
            {
              "internalType": "bool",
              "name": "isBirthBC",
              "type": "bool"
            },
            {
              "internalType": "uint16",
              "name": "birthYear",
              "type": "uint16"
            },
            {
              "internalType": "uint8",
              "name": "birthMonth",
              "type": "uint8"
            },
            {
              "internalType": "uint8",
              "name": "birthDay",
              "type": "uint8"
            },
            {
              "internalType": "uint8",
              "name": "gender",
              "type": "uint8"
            }
          ],
          "internalType": "struct DeepFamily.PersonBasicInfo",
          "name": "basicInfo",
          "type": "tuple"
        },
        {
          "components": [
            {
              "internalType": "string",
              "name": "fullName",
              "type": "string"
            },
            {
              "internalType": "string",
              "name": "birthPlace",
              "type": "string"
            },
            {
              "internalType": "bool",
              "name": "isDeathBC",
              "type": "bool"
            },
            {
              "internalType": "uint16",
              "name": "deathYear",
              "type": "uint16"
            },
            {
              "internalType": "uint8",
              "name": "deathMonth",
              "type": "uint8"
            },
            {
              "internalType": "uint8",
              "name": "deathDay",
              "type": "uint8"
            },
            {
              "internalType": "string",
              "name": "deathPlace",
              "type": "string"
            },
            {
              "internalType": "string",
              "name": "story",
              "type": "string"
            }
          ],
          "internalType": "struct DeepFamily.PersonSupplementInfo",
          "name": "supplementInfo",
          "type": "tuple"
        }
      ],
      "stateMutability": "view",
      "type": "function"
    },
    {
      "inputs": [],
      "name": "owner",
      "outputs": [
        {
          "internalType": "address",
          "name": "",
          "type": "address"
        }
      ],
      "stateMutability": "view",
      "type": "function"
    },
    {
      "inputs": [
        {
          "internalType": "uint256",
          "name": "tokenId",
          "type": "uint256"
        }
      ],
      "name": "ownerOf",
      "outputs": [
        {
          "internalType": "address",
          "name": "",
          "type": "address"
        }
      ],
      "stateMutability": "view",
      "type": "function"
    },
    {
      "inputs": [
        {
          "internalType": "bytes32",
          "name": "",
          "type": "bytes32"
        },
        {
          "internalType": "uint256",
          "name": "",
          "type": "uint256"
        }
      ],
      "name": "personVersions",
      "outputs": [
        {
          "internalType": "bytes32",
          "name": "personHash",
          "type": "bytes32"
        },
        {
          "internalType": "bytes32",
          "name": "fatherHash",
          "type": "bytes32"
        },
        {
          "internalType": "bytes32",
          "name": "motherHash",
          "type": "bytes32"
        },
        {
          "internalType": "uint256",
          "name": "versionIndex",
          "type": "uint256"
        },
        {
          "internalType": "uint256",
          "name": "fatherVersionIndex",
          "type": "uint256"
        },
        {
          "internalType": "uint256",
          "name": "motherVersionIndex",
          "type": "uint256"
        },
        {
          "internalType": "address",
          "name": "addedBy",
          "type": "address"
        },
        {
          "internalType": "uint96",
          "name": "timestamp",
          "type": "uint96"
        },
        {
          "internalType": "string",
          "name": "tag",
          "type": "string"
        },
        {
          "internalType": "string",
          "name": "metadataCID",
          "type": "string"
        }
      ],
      "stateMutability": "view",
      "type": "function"
    },
    {
      "inputs": [],
      "name": "renounceOwnership",
      "outputs": [],
      "stateMutability": "nonpayable",
      "type": "function"
    },
    {
      "inputs": [
        {
          "internalType": "address",
          "name": "from",
          "type": "address"
        },
        {
          "internalType": "address",
          "name": "to",
          "type": "address"
        },
        {
          "internalType": "uint256",
          "name": "tokenId",
          "type": "uint256"
        }
      ],
      "name": "safeTransferFrom",
      "outputs": [],
      "stateMutability": "nonpayable",
      "type": "function"
    },
    {
      "inputs": [
        {
          "internalType": "address",
          "name": "from",
          "type": "address"
        },
        {
          "internalType": "address",
          "name": "to",
          "type": "address"
        },
        {
          "internalType": "uint256",
          "name": "tokenId",
          "type": "uint256"
        },
        {
          "internalType": "bytes",
          "name": "data",
          "type": "bytes"
        }
      ],
      "name": "safeTransferFrom",
      "outputs": [],
      "stateMutability": "nonpayable",
      "type": "function"
    },
    {
      "inputs": [
        {
          "internalType": "uint256",
          "name": "tokenId",
          "type": "uint256"
        }
      ],
      "name": "sealStory",
      "outputs": [],
      "stateMutability": "nonpayable",
      "type": "function"
    },
    {
      "inputs": [
        {
          "internalType": "address",
          "name": "operator",
          "type": "address"
        },
        {
          "internalType": "bool",
          "name": "approved",
          "type": "bool"
        }
      ],
      "name": "setApprovalForAll",
      "outputs": [],
      "stateMutability": "nonpayable",
      "type": "function"
    },
    {
      "inputs": [
        {
          "internalType": "uint256",
          "name": "",
          "type": "uint256"
        },
        {
          "internalType": "uint256",
          "name": "",
          "type": "uint256"
        }
      ],
      "name": "storyChunks",
      "outputs": [
        {
          "internalType": "uint256",
          "name": "chunkIndex",
          "type": "uint256"
        },
        {
          "internalType": "bytes32",
          "name": "chunkHash",
          "type": "bytes32"
        },
        {
          "internalType": "string",
          "name": "content",
          "type": "string"
        },
        {
          "internalType": "uint256",
          "name": "timestamp",
          "type": "uint256"
        },
        {
          "internalType": "address",
          "name": "lastEditor",
          "type": "address"
        }
      ],
      "stateMutability": "view",
      "type": "function"
    },
    {
      "inputs": [
        {
          "internalType": "uint256",
          "name": "",
          "type": "uint256"
        }
      ],
      "name": "storyMetadata",
      "outputs": [
        {
          "internalType": "uint256",
          "name": "totalChunks",
          "type": "uint256"
        },
        {
          "internalType": "bytes32",
          "name": "fullStoryHash",
          "type": "bytes32"
        },
        {
          "internalType": "uint256",
          "name": "lastUpdateTime",
          "type": "uint256"
        },
        {
          "internalType": "bool",
          "name": "isSealed",
          "type": "bool"
        },
        {
          "internalType": "uint256",
          "name": "totalLength",
          "type": "uint256"
        }
      ],
      "stateMutability": "view",
      "type": "function"
    },
    {
      "inputs": [
        {
          "internalType": "bytes4",
          "name": "interfaceId",
          "type": "bytes4"
        }
      ],
      "name": "supportsInterface",
      "outputs": [
        {
          "internalType": "bool",
          "name": "",
          "type": "bool"
        }
      ],
      "stateMutability": "view",
      "type": "function"
    },
    {
      "inputs": [],
      "name": "symbol",
      "outputs": [
        {
          "internalType": "string",
          "name": "",
          "type": "string"
        }
      ],
      "stateMutability": "view",
      "type": "function"
    },
    {
      "inputs": [
        {
          "internalType": "uint256",
          "name": "index",
          "type": "uint256"
        }
      ],
      "name": "tokenByIndex",
      "outputs": [
        {
          "internalType": "uint256",
          "name": "",
          "type": "uint256"
        }
      ],
      "stateMutability": "view",
      "type": "function"
    },
    {
      "inputs": [],
      "name": "tokenCounter",
      "outputs": [
        {
          "internalType": "uint256",
          "name": "",
          "type": "uint256"
        }
      ],
      "stateMutability": "view",
      "type": "function"
    },
    {
      "inputs": [
        {
          "internalType": "uint256",
          "name": "",
          "type": "uint256"
        }
      ],
      "name": "tokenIdToPerson",
      "outputs": [
        {
          "internalType": "bytes32",
          "name": "",
          "type": "bytes32"
        }
      ],
      "stateMutability": "view",
      "type": "function"
    },
    {
      "inputs": [
        {
          "internalType": "uint256",
          "name": "",
          "type": "uint256"
        }
      ],
      "name": "tokenIdToVersionIndex",
      "outputs": [
        {
          "internalType": "uint256",
          "name": "",
          "type": "uint256"
        }
      ],
      "stateMutability": "view",
      "type": "function"
    },
    {
      "inputs": [
        {
          "internalType": "address",
          "name": "owner",
          "type": "address"
        },
        {
          "internalType": "uint256",
          "name": "index",
          "type": "uint256"
        }
      ],
      "name": "tokenOfOwnerByIndex",
      "outputs": [
        {
          "internalType": "uint256",
          "name": "",
          "type": "uint256"
        }
      ],
      "stateMutability": "view",
      "type": "function"
    },
    {
      "inputs": [
        {
          "internalType": "uint256",
          "name": "tokenId",
          "type": "uint256"
        }
      ],
      "name": "tokenURI",
      "outputs": [
        {
          "internalType": "string",
          "name": "",
          "type": "string"
        }
      ],
      "stateMutability": "view",
      "type": "function"
    },
    {
      "inputs": [
        {
          "internalType": "uint256",
          "name": "",
          "type": "uint256"
        },
        {
          "internalType": "uint256",
          "name": "",
          "type": "uint256"
        }
      ],
      "name": "tokenURIHistory",
      "outputs": [
        {
          "internalType": "string",
          "name": "",
          "type": "string"
        }
      ],
      "stateMutability": "view",
      "type": "function"
    },
    {
      "inputs": [],
      "name": "totalPersonsCount",
      "outputs": [
        {
          "internalType": "uint256",
          "name": "",
          "type": "uint256"
        }
      ],
      "stateMutability": "view",
      "type": "function"
    },
    {
      "inputs": [],
      "name": "totalSupply",
      "outputs": [
        {
          "internalType": "uint256",
          "name": "",
          "type": "uint256"
        }
      ],
      "stateMutability": "view",
      "type": "function"
    },
    {
      "inputs": [
        {
          "internalType": "address",
          "name": "from",
          "type": "address"
        },
        {
          "internalType": "address",
          "name": "to",
          "type": "address"
        },
        {
          "internalType": "uint256",
          "name": "tokenId",
          "type": "uint256"
        }
      ],
      "name": "transferFrom",
      "outputs": [],
      "stateMutability": "nonpayable",
      "type": "function"
    },
    {
      "inputs": [
        {
          "internalType": "address",
          "name": "newOwner",
          "type": "address"
        }
      ],
      "name": "transferOwnership",
      "outputs": [],
      "stateMutability": "nonpayable",
      "type": "function"
    },
    {
      "inputs": [
        {
          "internalType": "uint256",
          "name": "tokenId",
          "type": "uint256"
        },
        {
          "internalType": "uint256",
          "name": "chunkIndex",
          "type": "uint256"
        },
        {
          "internalType": "string",
          "name": "newContent",
          "type": "string"
        },
        {
          "internalType": "bytes32",
          "name": "expectedHash",
          "type": "bytes32"
        }
      ],
      "name": "updateStoryChunk",
      "outputs": [],
      "stateMutability": "nonpayable",
      "type": "function"
    },
    {
      "inputs": [
        {
          "internalType": "uint256",
          "name": "tokenId",
          "type": "uint256"
        },
        {
          "internalType": "string",
          "name": "newURI",
          "type": "string"
        }
      ],
      "name": "updateTokenURI",
      "outputs": [],
      "stateMutability": "nonpayable",
      "type": "function"
    },
    {
      "inputs": [
        {
          "internalType": "bytes32",
          "name": "",
          "type": "bytes32"
        },
        {
          "internalType": "uint256",
          "name": "",
          "type": "uint256"
        }
      ],
      "name": "versionEndorsementCount",
      "outputs": [
        {
          "internalType": "uint256",
          "name": "",
          "type": "uint256"
        }
      ],
      "stateMutability": "view",
      "type": "function"
    },
    {
      "inputs": [
        {
          "internalType": "bytes32",
          "name": "",
          "type": "bytes32"
        },
        {
          "internalType": "bytes32",
          "name": "",
          "type": "bytes32"
        }
      ],
      "name": "versionExists",
      "outputs": [
        {
          "internalType": "bool",
          "name": "",
          "type": "bool"
        }
      ],
      "stateMutability": "view",
      "type": "function"
    },
    {
      "inputs": [
        {
          "internalType": "bytes32",
          "name": "",
          "type": "bytes32"
        },
        {
          "internalType": "uint256",
          "name": "",
          "type": "uint256"
        }
      ],
      "name": "versionToTokenId",
      "outputs": [
        {
          "internalType": "uint256",
          "name": "",
          "type": "uint256"
        }
      ],
      "stateMutability": "view",
      "type": "function"
    },
    {
      "stateMutability": "payable",
      "type": "receive"
    }
  ],
  "bytecode": "0x60c06040523480156200001157600080fd5b5060405162006b3938038062006b398339810160408190526200003491620001b1565b336040518060400160405280600a8152602001694465657046616d696c7960b01b8152506040518060400160405280600681526020016546616d696c7960d01b81525081600090816200008891906200028e565b5060016200009782826200028e565b5050506001600160a01b038116620000c957604051631e4fbdf760e01b81526000600482015260240160405180910390fd5b620000d48162000142565b506001600b556001600160a01b0382166200010257604051634c32eccd60e11b815260040160405180910390fd5b6001600160a01b0381166200012a57604051635fce01bb60e01b815260040160405180910390fd5b6001600160a01b039182166080521660a0526200035a565b600a80546001600160a01b038381166001600160a01b0319831681179093556040519116919082907f8be0079c531659141344cd1fd0a4f28419497f9722a3daafe3b4186f6b6457e090600090a35050565b80516001600160a01b0381168114620001ac57600080fd5b919050565b60008060408385031215620001c557600080fd5b620001d08362000194565b9150620001e06020840162000194565b90509250929050565b634e487b7160e01b600052604160045260246000fd5b600181811c908216806200021457607f821691505b6020821081036200023557634e487b7160e01b600052602260045260246000fd5b50919050565b601f8211156200028957600081815260208120601f850160051c81016020861015620002645750805b601f850160051c820191505b81811015620002855782815560010162000270565b5050505b505050565b81516001600160401b03811115620002aa57620002aa620001e9565b620002c281620002bb8454620001ff565b846200023b565b602080601f831160018114620002fa5760008415620002e15750858301515b600019600386901b1c1916600185901b17855562000285565b600085815260208120601f198616915b828110156200032b578886015182559484019460019091019084016200030a565b50858210156200034a5787850151600019600388901b60f8161c191681555b5050505050600190811b01905550565b60805160a05161679d6200039c60003960008181610a8b0152612ba0015260008181610b9001528181612fd60152818161312701526146c4015261679d6000f3fe60806040526004361061039a5760003560e01c8063797e57e5116101dc578063c2dbf81511610102578063dbcdc08f116100a0578063f2fde38b1161006f578063f2fde38b14610c88578063f74faf6614610ca8578063fe980dd614610ce0578063fe9c3c0514610d12576103b8565b8063dbcdc08f14610bea578063e12b5e8d14610c1b578063e985e9c514610c3b578063f1fad06714610c5b576103b8565b8063c893eb56116100dc578063c893eb5614610b48578063d082e38114610b68578063d1486a1b14610b7e578063d596b1b014610bb2576103b8565b8063c2dbf81514610af2578063c841eb1f14610b12578063c87b56dd14610b28576103b8565b8063a22cb4651161017a578063b88d4fde11610149578063b88d4fde14610a59578063bcecdf1d14610a79578063bd7eef2314610aad578063c090fba214610ac3576103b8565b8063a22cb465146109d9578063a92c6ad6146109f9578063b0ac331f14610a19578063b5c7198d14610a39576103b8565b80638da5cb5b116101b65780638da5cb5b146109565780638f2360b31461097457806395d89b41146109a457806397259721146109b9576103b8565b8063797e57e51461088d57806382260f35146108ad57806383af7191146108df576103b8565b80633791b66a116102c15780636352211e1161025f578063715018a61161022e578063715018a6146107d15780637189567c146107e65780637559704d1461084a57806376f0f85d14610877576103b8565b80636352211e1461072e57806367b9b3e11461074e578063690a76bf1461078457806370a08231146107b1576103b8565b806346cdf8691161029b57806346cdf869146106905780634f6ccce7146106b0578063538ffa0b146106d057806357611dfb146106fd576103b8565b80633791b66a1461060557806342842e0e14610635578063431a342a14610655576103b8565b8063164e38ee11610339578063278d5fce11610308578063278d5fce1461056757806328273a2a146105955780632f745c59146105c55780632f8afa61146105e5576103b8565b8063164e38ee146104dd57806318160ddd1461051257806318e97fd11461052757806323b872dd14610547576103b8565b806307b8fe9c1161037557806307b8fe9c146103d1578063081812fc1461044b578063095ea7b3146104835780631516fa25146104a5576103b8565b8062eee6a1146103d157806301ffc9a7146103f957806306fdde0314610429576103b8565b366103b85760405163af9f22fb60e01b815260040160405180910390fd5b60405163af9f22fb60e01b815260040160405180910390fd5b3480156103dd57600080fd5b506103e6606481565b6040519081526020015b60405180910390f35b34801561040557600080fd5b506104196104143660046151f6565b610d32565b60405190151581526020016103f0565b34801561043557600080fd5b5061043e610d5d565b6040516103f0919061526a565b34801561045757600080fd5b5061046b61046636600461527d565b610def565b6040516001600160a01b0390911681526020016103f0565b34801561048f57600080fd5b506104a361049e3660046152b2565b610e18565b005b3480156104b157600080fd5b506103e66104c03660046152dc565b601a60209081526000928352604080842090915290825290205481565b3480156104e957600080fd5b506104fd6104f83660046152fe565b610e27565b604080519283526020830191909152016103f0565b34801561051e57600080fd5b506008546103e6565b34801561053357600080fd5b506104a3610542366004615372565b610e71565b34801561055357600080fd5b506104a36105623660046153bd565b61101e565b34801561057357600080fd5b5061058761058236600461527d565b6110ae565b6040516103f0929190615503565b3480156105a157600080fd5b506105b56105b03660046152fe565b6113b7565b6040516103f09493929190615574565b3480156105d157600080fd5b506103e66105e03660046152b2565b611677565b3480156105f157600080fd5b506104a36106003660046155e7565b6116dc565b34801561061157600080fd5b506106256106203660046152fe565b6116f8565b6040516103f09493929190615688565b34801561064157600080fd5b506104a36106503660046153bd565b6118f1565b34801561066157600080fd5b506104196106703660046152dc565b600e60209081526000928352604080842090915290825290205460ff1681565b34801561069c57600080fd5b506104a36106ab3660046156df565b611911565b3480156106bc57600080fd5b506103e66106cb36600461527d565b611b23565b3480156106dc57600080fd5b506103e66106eb36600461527d565b60126020526000908152604090205481565b34801561070957600080fd5b5061071d610718366004615739565b611b7c565b6040516103f09594939291906157a6565b34801561073a57600080fd5b5061046b61074936600461527d565b611dd0565b34801561075a57600080fd5b5061076e6107693660046152dc565b611ddb565b6040516103f09a99989796959493929190615812565b34801561079057600080fd5b506103e661079f36600461527d565b60116020526000908152604090205481565b3480156107bd57600080fd5b506103e66107cc36600461588e565b611f75565b3480156107dd57600080fd5b506104a3611fbd565b3480156107f257600080fd5b5061080661080136600461527d565b611fd1565b6040516103f09190600060a0820190508251825260208301516020830152604083015160408301526060830151151560608301526080830151608083015292915050565b34801561085657600080fd5b506103e661086536600461527d565b6000908152600c602052604090205490565b34801561088357600080fd5b506103e661010081565b34801561089957600080fd5b506104a36108a836600461527d565b612080565b3480156108b957600080fd5b506108cd6108c836600461527d565b61216e565b6040516103f096959493929190615958565b3480156108eb57600080fd5b5061092c6108fa36600461527d565b6017602052600090815260409020805460018201546002830154600384015460049094015492939192909160ff169085565b6040805195865260208601949094529284019190915215156060830152608082015260a0016103f0565b34801561096257600080fd5b50600a546001600160a01b031661046b565b34801561098057600080fd5b5061099461098f3660046152fe565b612719565b6040516103f094939291906159cb565b3480156109b057600080fd5b5061043e612a62565b3480156109c557600080fd5b506104a36109d4366004615a88565b612a71565b3480156109e557600080fd5b506104a36109f4366004615b86565b612ccf565b348015610a0557600080fd5b506103e6610a143660046152dc565b612cda565b348015610a2557600080fd5b506104a3610a343660046156df565b612d0b565b348015610a4557600080fd5b506104a3610a543660046152dc565b612f44565b348015610a6557600080fd5b506104a3610a74366004615c48565b6132b0565b348015610a8557600080fd5b5061046b7f000000000000000000000000000000000000000000000000000000000000000081565b348015610ab957600080fd5b506103e6600d5481565b348015610acf57600080fd5b50610ae3610ade3660046152dc565b6132c8565b6040516103f093929190615cc3565b348015610afe57600080fd5b506103e6610b0d366004615ce8565b613545565b348015610b1e57600080fd5b506103e66103e881565b348015610b3457600080fd5b5061043e610b4336600461527d565b613586565b348015610b5457600080fd5b506103e6610b63366004615d4f565b613630565b348015610b7457600080fd5b506103e660105481565b348015610b8a57600080fd5b5061046b7f000000000000000000000000000000000000000000000000000000000000000081565b348015610bbe57600080fd5b506103e6610bcd3660046152dc565b601660209081526000928352604080842090915290825290205481565b348015610bf657600080fd5b50610c0a610c053660046152dc565b6137ad565b6040516103f0959493929190615df0565b348015610c2757600080fd5b506104a3610c36366004615e31565b613879565b348015610c4757600080fd5b50610419610c56366004615eb4565b613bf0565b348015610c6757600080fd5b50610c7b610c763660046152dc565b613c1e565b6040516103f09190615ee7565b348015610c9457600080fd5b506104a3610ca336600461588e565b613d82565b348015610cb457600080fd5b506103e6610cc3366004615efa565b600f60209081526000928352604080842090915290825290205481565b348015610cec57600080fd5b50610d00610cfb3660046152fe565b613dc0565b6040516103f096959493929190615f1d565b348015610d1e57600080fd5b5061043e610d2d3660046152dc565b61403d565b60006001600160e01b0319821663780e9d6360e01b1480610d575750610d57826140f6565b92915050565b606060008054610d6c90615f75565b80601f0160208091040260200160405190810160405280929190818152602001828054610d9890615f75565b8015610de55780601f10610dba57610100808354040283529160200191610de5565b820191906000526020600020905b815481529060010190602001808311610dc857829003601f168201915b5050505050905090565b6000610dfa82614146565b506000828152600460205260409020546001600160a01b0316610d57565b610e2382823361417e565b5050565b601b6020528260005260406000206020528160005260406000208181548110610e4f57600080fd5b6000918252602090912060029091020180546001909101549093509150839050565b33610e7b8461418b565b6001600160a01b031614610ea25760405163daffd8a560e01b815260040160405180910390fd5b610100811115610ec5576040516313f04adb60e01b815260040160405180910390fd5b60008381526014602052604081208054610ede90615f75565b80601f0160208091040260200160405190810160405280929190818152602001828054610f0a90615f75565b8015610f575780601f10610f2c57610100808354040283529160200191610f57565b820191906000526020600020905b815481529060010190602001808311610f3a57829003601f168201915b50505050509050600081511115610f9257600084815260156020908152604082208054600181018255908352912001610f90828261600a565b505b610fd28484848080601f0160208091040260200160405190810160405280939291908181526020018383808284376000920191909152506141a692505050565b336001600160a01b0316847f121742bae49dddcfbb9763fd1170f0dbc15b13707126182671611bbeeeae7cd8838686604051611010939291906160ec565b60405180910390a350505050565b6001600160a01b03821661104d57604051633250574960e11b8152600060048201526024015b60405180910390fd5b600061105a8383336141be565b9050836001600160a01b0316816001600160a01b0316146110a8576040516364283d7b60e01b81526001600160a01b0380861660048301526024820184905282166044820152606401611044565b50505050565b601360209081526000918252604091829020825160c08101845281548152600182015460ff80821615159483019490945261010080820461ffff168387015263010000008204851660608401526401000000008204851660808401526501000000000090910490931660a082015283519283019093526002810180549192918290829061113a90615f75565b80601f016020809104026020016040519081016040528092919081815260200182805461116690615f75565b80156111b35780601f10611188576101008083540402835291602001916111b3565b820191906000526020600020905b81548152906001019060200180831161119657829003601f168201915b505050505081526020016001820180546111cc90615f75565b80601f01602080910402602001604051908101604052809291908181526020018280546111f890615f75565b80156112455780601f1061121a57610100808354040283529160200191611245565b820191906000526020600020905b81548152906001019060200180831161122857829003601f168201915b5050509183525050600282015460ff8082161515602084015261ffff6101008304166040840152630100000082048116606084015264010000000090910416608082015260038201805460a09092019161129e90615f75565b80601f01602080910402602001604051908101604052809291908181526020018280546112ca90615f75565b80156113175780601f106112ec57610100808354040283529160200191611317565b820191906000526020600020905b8154815290600101906020018083116112fa57829003601f168201915b5050505050815260200160048201805461133090615f75565b80601f016020809104026020016040519081016040528092919081815260200182805461135c90615f75565b80156113a95780601f1061137e576101008083540402835291602001916113a9565b820191906000526020600020905b81548152906001019060200180831161138c57829003601f168201915b505050505081525050905082565b606060008080806113c78861418b565b6001600160a01b0316036113ee576040516307ed98ed60e31b815260040160405180910390fd5b606485111561141057604051630327a73960e61b815260040160405180910390fd5b6000878152601760205260408120805494509086900361146c57604080516000808252602082019092529061145b565b61144861507b565b8152602001906001900390816114405790505b5094506000925086915061166e9050565b8387106114b55760408051600080825260208201909252906114a4565b61149161507b565b8152602001906001900390816114895790505b5094506000925083915061166e9050565b60006114c18789616128565b9050848111156114ce5750835b60006114da898361613b565b9050806001600160401b038111156114f4576114f4615bbd565b60405190808252806020026020018201604052801561152d57816020015b61151a61507b565b8152602001906001900390816115125790505b50965060005b818110156116635760008b815260186020526040812090611554838d616128565b81526020019081526020016000206040518060a0016040529081600082015481526020016001820154815260200160028201805461159190615f75565b80601f01602080910402602001604051908101604052809291908181526020018280546115bd90615f75565b801561160a5780601f106115df5761010080835404028352916020019161160a565b820191906000526020600020905b8154815290600101906020018083116115ed57829003601f168201915b5050509183525050600382015460208201526004909101546001600160a01b031660409091015288518990839081106116455761164561614e565b6020026020010181905250808061165b90616164565b915050611533565b505084811093509150505b93509350935093565b600061168283611f75565b82106116b35760405163295f44f760e21b81526001600160a01b038416600482015260248101839052604401611044565b506001600160a01b03919091166000908152600660209081526040808320938352929052205490565b6116ed898989898989898989614293565b505050505050505050565b600083815260156020526040812080546060929091819085820361175157604080516000808252602082019092529061145b565b606081526020019060019003908161172c5790505094506000925086915061166e9050565b8387106117935760408051600080825260208201909252906114a4565b606081526020019060019003908161176e5790505094506000925083915061166e9050565b600061179f8789616128565b9050848111156117ac5750835b60006117b8898361613b565b9050806001600160401b038111156117d2576117d2615bbd565b60405190808252806020026020018201604052801561180557816020015b60608152602001906001900390816117f05790505b50965060005b81811015611663578361181e828c616128565b8154811061182e5761182e61614e565b90600052602060002001805461184390615f75565b80601f016020809104026020016040519081016040528092919081815260200182805461186f90615f75565b80156118bc5780601f10611891576101008083540402835291602001916118bc565b820191906000526020600020905b81548152906001019060200180831161189f57829003601f168201915b50505050508882815181106118d3576118d361614e565b602002602001018190525080806118e990616164565b91505061180b565b61190c838383604051806020016040528060008152506132b0565b505050565b611919614796565b336119238661418b565b6001600160a01b03161461194a5760405163daffd8a560e01b815260040160405180910390fd5b6000858152601760205260409020600381015460ff161561197e57604051631fcb6b9160e01b815260040160405180910390fd5b8054851061199f57604051637df0b86160e01b815260040160405180910390fd5b8215806119ad57506103e883115b156119cb57604051630ef9fbf360e21b815260040160405180910390fd5b600086815260186020908152604080832088845282528083208151601f88018490048402810184019092528682529291611a20919088908890819084018382808284376000920191909152506147c092505050565b90508315801590611a315750838114155b15611a4f5760405163016c02f160e61b815260040160405180910390fd5b600182015460028301805460009190611a6790615f75565b6001860185905591505060028401611a80888a8361617d565b504260038501819055600480860180546001600160a01b0319163317905560028701919091558501548790611ab690839061613b565b611ac09190616128565b6004860155611ace8a6147f0565b604080518381526020810185905233918b918d917f065c2222316af985857085b11b199dc175990521803ca44d2ab1a4ef4c0ea6ef910160405180910390a45050505050611b1c6001600b55565b5050505050565b6000611b2e60085490565b8210611b575760405163295f44f760e21b81526000600482015260248101839052604401611044565b60088281548110611b6a57611b6a61614e565b90600052602060002001549050919050565b60608060008080888881611ba35760405163e5d242ed60e01b815260040160405180910390fd5b801580611bbd57506000828152600c602052604090205481115b15611bdb57604051630dd4272d60e41b815260040160405180910390fd5b6064881115611bfd57604051630327a73960e61b815260040160405180910390fd5b60008b8152601b602090815260408083208d845290915281208054965090899003611c495750604080516000808252602082018181528284019093529098509096509350889250611dc3565b858a10611c775750604080516000808252602082018181528284019093529098509096509350849250611dc3565b6000611c838a8c616128565b905086811115611c905750855b6000611c9c8c8361613b565b9050806001600160401b03811115611cb657611cb6615bbd565b604051908082528060200260200182016040528015611cdf578160200160208202803683370190505b509950806001600160401b03811115611cfa57611cfa615bbd565b604051908082528060200260200182016040528015611d23578160200160208202803683370190505b50985060005b81811015611db857600084828f611d409190616128565b81548110611d5057611d5061614e565b9060005260206000209060020201905080600001548c8381518110611d7757611d7761614e565b60200260200101818152505080600101548b8381518110611d9a57611d9a61614e565b60209081029190910101525080611db081616164565b915050611d29565b505086811095509350505b5050945094509450945094565b6000610d5782614146565b600c6020528160005260406000208181548110611df757600080fd5b600091825260209091206009909102018054600182015460028301546003840154600485015460058601546006870154600788018054979a5095985093969295919490936001600160a01b03811693600160a01b9091046001600160601b031692909190611e6490615f75565b80601f0160208091040260200160405190810160405280929190818152602001828054611e9090615f75565b8015611edd5780601f10611eb257610100808354040283529160200191611edd565b820191906000526020600020905b815481529060010190602001808311611ec057829003601f168201915b505050505090806008018054611ef290615f75565b80601f0160208091040260200160405190810160405280929190818152602001828054611f1e90615f75565b8015611f6b5780601f10611f4057610100808354040283529160200191611f6b565b820191906000526020600020905b815481529060010190602001808311611f4e57829003601f168201915b505050505090508a565b60006001600160a01b038216611fa1576040516322718ad960e21b815260006004820152602401611044565b506001600160a01b031660009081526003602052604090205490565b611fc56148b8565b611fcf60006148e5565b565b6040805160a0810182526000808252602082018190529181018290526060810182905260808101829052906120058361418b565b6001600160a01b03160361202c576040516307ed98ed60e31b815260040160405180910390fd5b50600090815260176020908152604091829020825160a08101845281548152600182015492810192909252600281015492820192909252600382015460ff1615156060820152600490910154608082015290565b3361208a8261418b565b6001600160a01b0316146120b15760405163daffd8a560e01b815260040160405180910390fd5b6000818152601760205260409020600381015460ff16156120e557604051631fcb6b9160e01b815260040160405180910390fd5b805460000361210757604051637dc66bf560e11b815260040160405180910390fd5b60038101805460ff19166001908117909155426002830155815490820154604051339285927f896066547269dcd0db6295ca6c7f14f927d692103e47c7615259469b74bc7b5d92612162929190918252602082015260400190565b60405180910390a35050565b6000806121796150b6565b61218161510c565b600060608161218f8861418b565b6001600160a01b0316036121b6576040516307ed98ed60e31b815260040160405180910390fd5b6000878152601160205260409020549550856121e5576040516307ed98ed60e31b815260040160405180910390fd5b600087815260126020526040812054955061220160018761613b565b6000888152600c60205260409020805491925090829081106122255761222561614e565b600091825260209182902060408051610140810182526009909302909101805483526001810154938301939093526002830154908201526003820154606082015260048201546080820152600582015460a082015260068201546001600160a01b03811660c08301526001600160601b03600160a01b9091041660e0820152600782018054919291610100840191906122bd90615f75565b80601f01602080910402602001604051908101604052809291908181526020018280546122e990615f75565b80156123365780601f1061230b57610100808354040283529160200191612336565b820191906000526020600020905b81548152906001019060200180831161231957829003601f168201915b5050505050815260200160088201805461234f90615f75565b80601f016020809104026020016040519081016040528092919081815260200182805461237b90615f75565b80156123c85780601f1061239d576101008083540402835291602001916123c8565b820191906000526020600020905b8154815290600101906020018083116123ab57829003601f168201915b50505091909252505050600089815260136020908152604091829020825161010080820185528254828601908152600184015460ff8082161515606086015261ffff84830416608086015263010000008204811660a08601526401000000008204811660c0860152650100000000009091041660e084015282528451908101909452600282018054959a509094919392850192918290829061246990615f75565b80601f016020809104026020016040519081016040528092919081815260200182805461249590615f75565b80156124e25780601f106124b7576101008083540402835291602001916124e2565b820191906000526020600020905b8154815290600101906020018083116124c557829003601f168201915b505050505081526020016001820180546124fb90615f75565b80601f016020809104026020016040519081016040528092919081815260200182805461252790615f75565b80156125745780601f1061254957610100808354040283529160200191612574565b820191906000526020600020905b81548152906001019060200180831161255757829003601f168201915b5050509183525050600282015460ff8082161515602084015261ffff6101008304166040840152630100000082048116606084015264010000000090910416608082015260038201805460a0909201916125cd90615f75565b80601f01602080910402602001604051908101604052809291908181526020018280546125f990615f75565b80156126465780601f1061261b57610100808354040283529160200191612646565b820191906000526020600020905b81548152906001019060200180831161262957829003601f168201915b5050505050815260200160048201805461265f90615f75565b80601f016020809104026020016040519081016040528092919081815260200182805461268b90615f75565b80156126d85780601f106126ad576101008083540402835291602001916126d8565b820191906000526020600020905b8154815290600101906020018083116126bb57829003601f168201915b505050919092525050509052506000888152601a60209081526040808320858452909152902054909450925061270d88613586565b91505091939550919395565b60606000806000606485111561274257604051630327a73960e61b815260040160405180910390fd5b6000878152600c60205260408120805494509086900361279d57604080516000808252602082019092529061145b565b61277a6150b6565b8152602001906001900390816127725790505094506000925086915061166e9050565b8387106127e55760408051600080825260208201909252906114a4565b6127c26150b6565b8152602001906001900390816127ba5790505094506000925083915061166e9050565b60006127f18789616128565b9050848111156127fe5750835b600061280a898361613b565b9050806001600160401b0381111561282457612824615bbd565b60405190808252806020026020018201604052801561285d57816020015b61284a6150b6565b8152602001906001900390816128425790505b50965060005b818110156116635783612876828c616128565b815481106128865761288661614e565b600091825260209182902060408051610140810182526009909302909101805483526001810154938301939093526002830154908201526003820154606082015260048201546080820152600582015460a082015260068201546001600160a01b03811660c08301526001600160601b03600160a01b9091041660e08201526007820180549192916101008401919061291e90615f75565b80601f016020809104026020016040519081016040528092919081815260200182805461294a90615f75565b80156129975780601f1061296c57610100808354040283529160200191612997565b820191906000526020600020905b81548152906001019060200180831161297a57829003601f168201915b505050505081526020016008820180546129b090615f75565b80601f01602080910402602001604051908101604052809291908181526020018280546129dc90615f75565b8015612a295780601f106129fe57610100808354040283529160200191612a29565b820191906000526020600020905b815481529060010190602001808311612a0c57829003601f168201915b505050505081525050888281518110612a4457612a4461614e565b60200260200101819052508080612a5a90616164565b915050612863565b606060018054610d6c90615f75565b612a7d60066001616128565b8714612a9c576040516303b2487b60e11b815260040160405180910390fd5b60005b6006811015612aed576080898983818110612abc57612abc61614e565b90506020020135901c600014612ae5576040516303b2487b60e11b815260040160405180910390fd5b600101612a9f565b50600088886006818110612b0357612b0361614e565b90506020020135905060a081901c600014612b31576040516303b2487b60e11b815260040160405180910390fd5b338114612b51576040516303b2487b60e11b815260040160405180910390fd5b612b596151a4565b60005b6007811015612b9d578a8a82818110612b7757612b7761614e565b90506020020135828260078110612b9057612b9061614e565b6020020152600101612b5c565b507f00000000000000000000000000000000000000000000000000000000000000006001600160a01b031663c894e7578e8e8e856040518563ffffffff1660e01b8152600401612bf09493929190616236565b602060405180830381865afa158015612c0d573d6000803e3d6000fd5b505050506040513d601f19601f82011682018060405250810190612c3191906162a4565b612c4e576040516303b2487b60e11b815260040160405180910390fd5b6000612c5c8b8b6000614937565b90506000612c6c8c8c6002614937565b90506000612c7c8d8d6004614937565b604051909150339084907f3015fe19dc9f8f0d942de39092410a57589dd94d2c9134719335fe04e3695eca90600090a3612cbd8383838e8e8e8e8e8e614293565b50505050505050505050505050505050565b610e233383836149b9565b60196020528160005260406000208181548110612cf657600080fd5b90600052602060002001600091509150505481565b612d13614796565b33612d1d8661418b565b6001600160a01b031614612d445760405163daffd8a560e01b815260040160405180910390fd5b811580612d5257506103e882115b15612d7057604051630ef9fbf360e21b815260040160405180910390fd5b6000858152601760205260409020600381015460ff1615612da457604051631fcb6b9160e01b815260040160405180910390fd5b8054606411612dc657604051637df0b86160e01b815260040160405180910390fd5b80548514612de757604051637df0b86160e01b815260040160405180910390fd5b6000612e2885858080601f0160208091040260200160405190810160405280939291908181526020018383808284376000920191909152506147c092505050565b90508215801590612e395750828114155b15612e575760405163016c02f160e61b815260040160405180910390fd5b600087815260186020908152604080832089845290915290208681556001810182905560028101612e8986888361617d565b504260038201556004810180546001600160a01b031916331790558254612eb1906001616128565b83554260028401556004830154612ec9908690616128565b6004840155600088815260196020908152604082208054600181018255908352912001879055612ef8886147f0565b6040805183815260208101879052339189918b917f9a8c5a1082b04a31158c2062cc003f0764f93a8614a3643f01df8346f0c39f8d910160405180910390a4505050611b1c6001600b55565b818181612f645760405163e5d242ed60e01b815260040160405180910390fd5b801580612f7e57506000828152600c602052604090205481115b15612f9c57604051630dd4272d60e41b815260040160405180910390fd5b6000848152600f60209081526040808320338452909152902054838103612fc357506110a8565b6000612fd060018661613b565b905060007f00000000000000000000000000000000000000000000000000000000000000006001600160a01b0316636bf90c716040518163ffffffff1660e01b8152600401602060405180830381865afa158015613032573d6000803e3d6000fd5b505050506040513d601f19601f8201168201806040525081019061305691906162c1565b905080156131bb576000878152600c6020526040812080548490811061307e5761307e61614e565b600091825260208083208b84526016825260408085208886529092529083205460099092020192509081156130e85760006130b88361418b565b90506001600160a01b038116156130d1578091506130e2565b60068401546001600160a01b031691505b506130f8565b5060068201546001600160a01b03165b6040516323b872dd60e01b81523360048201526001600160a01b038281166024830152604482018690526000917f0000000000000000000000000000000000000000000000000000000000000000909116906323b872dd906064016020604051808303816000875af1158015613172573d6000803e3d6000fd5b505050506040513d601f19601f8201168201806040525081019061319691906162a4565b9050806131b657604051635da1e97760e11b815260040160405180910390fd5b505050505b821561321a5760006131ce60018561613b565b6000898152601a602090815260408083208484529091529020549091508015613217576131fc60018261613b565b60008a8152601a602090815260408083208684529091529020555b50505b6000878152601a602090815260408083208584529091528120805460019290613244908490616128565b90915550506000878152600f6020908152604080832033808552908352928190208990558051898152918201849052429082015288907f55e71c43a79fd68c0c9f416c70da96b84745f57bf4c2456beb089b4ad7bb3ac89060600160405180910390a350505050505050565b6132bb84848461101e565b6110a83385858585614a58565b6132d06150b6565b6000808484816132f35760405163e5d242ed60e01b815260040160405180910390fd5b80158061330d57506000828152600c602052604090205481115b1561332b57604051630dd4272d60e41b815260040160405180910390fd5b600061333860018861613b565b6000898152600c602052604090208054919250908290811061335c5761335c61614e565b600091825260209182902060408051610140810182526009909302909101805483526001810154938301939093526002830154908201526003820154606082015260048201546080820152600582015460a082015260068201546001600160a01b03811660c08301526001600160601b03600160a01b9091041660e0820152600782018054919291610100840191906133f490615f75565b80601f016020809104026020016040519081016040528092919081815260200182805461342090615f75565b801561346d5780601f106134425761010080835404028352916020019161346d565b820191906000526020600020905b81548152906001019060200180831161345057829003601f168201915b5050505050815260200160088201805461348690615f75565b80601f01602080910402602001604051908101604052809291908181526020018280546134b290615f75565b80156134ff5780601f106134d4576101008083540402835291602001916134ff565b820191906000526020600020905b8154815290600101906020018083116134e257829003601f168201915b505050919092525050506000898152601a602090815260408083208584528252808320549b83526016825280832094835293905291909120549098909650945050505050565b80516000908290158061355a57506101008151115b1561357857604051635f895cef60e11b815260040160405180910390fd5b805160209091012092915050565b606061359182614146565b50600082815260146020526040902080546135ab90615f75565b80601f01602080910402602001604051908101604052809291908181526020018280546135d790615f75565b80156136245780601f106135f957610100808354040283529160200191613624565b820191906000526020600020905b81548152906001019060200180831161360757829003601f168201915b50505050509050919050565b805160009061365257604051635f895cef60e11b815260040160405180910390fd5b600c826060015160ff16111561367b576040516348c5148960e11b815260040160405180910390fd5b601f826080015160ff1611156136a4576040516309eabf7d60e21b815260040160405180910390fd5b81516020830151608082901c916fffffffffffffffffffffffffffffffff16906000906136d25760006136d5565b60015b60ff1660018660a0015160ff16901b6008876080015160ff16901b6010886060015160ff16901b6018896040015161ffff16901b1717171790506137176151c2565b838152602081018390526040808201839052516320cf0a3760e01b815260009073__$fc5a2451f3e054f75c2faf9b3818033d8b$__906320cf0a37906137619085906004016162da565b602060405180830381865af415801561377e573d6000803e3d6000fd5b505050506040513d601f19601f820116820180604052508101906137a291906162c1565b979650505050505050565b6018602090815260009283526040808420909152908252902080546001820154600283018054929391926137e090615f75565b80601f016020809104026020016040519081016040528092919081815260200182805461380c90615f75565b80156138595780601f1061382e57610100808354040283529160200191613859565b820191906000526020600020905b81548152906001019060200180831161383c57829003601f168201915b5050505060038301546004909301549192916001600160a01b0316905085565b613881614796565b8484816138a15760405163e5d242ed60e01b815260040160405180910390fd5b8015806138bb57506000828152600c602052604090205481115b156138d957604051630dd4272d60e41b815260040160405180910390fd5b60006138e660018861613b565b60008981526016602090815260408083208484529091529020549091501561392157604051634028e5e560e11b815260040160405180910390fd5b6000888152600f60209081526040808320338452909152902054871461395a5760405163786bb09f60e11b815260040160405180910390fd5b61010085111561397d576040516313f04adb60e01b815260040160405180910390fd5b61010061398d60c086018661630b565b61399b9060e081019061632b565b905011156139bc5760405163f283c51960e01b815260040160405180910390fd5b6101006139cc60c086018661630b565b6139da90602081019061632b565b905011156139fb576040516367181a3960e11b815260040160405180910390fd5b610100613a0b60c086018661630b565b613a199060c081019061632b565b90501115613a3a57604051633769847160e01b815260040160405180910390fd5b6000613a90613a4c60c087018761630b565b613a56908061632b565b8080601f01602080910402602001604051908101604052809392919081815260200183838082843760009201919091525061354592505050565b905084358114613ab357604051632f38f48f60e21b815260040160405180910390fd5b6000613ac7610b6336889003880188615d4f565b9050898114613ae957604051632f38f48f60e21b815260040160405180910390fd5b6000601060008154613afa90616164565b91829055509050613b0b3382614b82565b613b4b818a8a8080601f0160208091040260200160405190810160405280939291908181526020018383808284376000920191909152506141a692505050565b60008181526011602090815260408083208e9055601282528083208d90558d8352601682528083208784528252808320849055838352601390915290208790613b948282616551565b905050336001600160a01b0316818c7fbce71c21e84db5e7dca78ea57ad63b6c66f74f74efc25e33592370ecf39e093b8d8d8d42604051613bd8949392919061663a565b60405180910390a4505050505050611b1c6001600b55565b6001600160a01b03918216600090815260056020908152604080832093909416825291909152205460ff1690565b613c2661507b565b6000613c318461418b565b6001600160a01b031603613c58576040516307ed98ed60e31b815260040160405180910390fd5b600083815260176020526040902080548310613c8757604051637df0b86160e01b815260040160405180910390fd5b6018600085815260200190815260200160002060008481526020019081526020016000206040518060a00160405290816000820154815260200160018201548152602001600282018054613cda90615f75565b80601f0160208091040260200160405190810160405280929190818152602001828054613d0690615f75565b8015613d535780601f10613d2857610100808354040283529160200191613d53565b820191906000526020600020905b815481529060010190602001808311613d3657829003601f168201915b5050509183525050600382015460208201526004909101546001600160a01b0316604090910152949350505050565b613d8a6148b8565b6001600160a01b038116613db457604051631e4fbdf760e01b815260006004820152602401611044565b613dbd816148e5565b50565b606080606060008060006064871115613dec57604051630327a73960e61b815260040160405180910390fd5b6000898152600c602052604081208054945090889003613e365750506040805160008082526020820181815282840182815260608401909452919750909550909350905086614031565b838910613e6d5750506040805160008082526020820181815282840182815260608401909452919750909550909350905081614031565b6000613e79898b616128565b905084811115613e865750835b6000613e928b8361613b565b9050806001600160401b03811115613eac57613eac615bbd565b604051908082528060200260200182016040528015613ed5578160200160208202803683370190505b509850806001600160401b03811115613ef057613ef0615bbd565b604051908082528060200260200182016040528015613f19578160200160208202803683370190505b509750806001600160401b03811115613f3457613f34615bbd565b604051908082528060200260200182016040528015613f5d578160200160208202803683370190505b50965060005b81811015614026576000613f77828e616128565b9050613f84816001616128565b8b8381518110613f9657613f9661614e565b60209081029190910181019190915260008f8152601a8252604080822084835290925220548a518b9084908110613fcf57613fcf61614e565b60209081029190910181019190915260008f8152601682526040808220848352909252205489518a90849081106140085761400861614e565b6020908102919091010152508061401e81616164565b915050613f63565b505084811093509150505b93975093979195509350565b6015602052816000526040600020818154811061405957600080fd5b9060005260206000200160009150915050805461407590615f75565b80601f01602080910402602001604051908101604052809291908181526020018280546140a190615f75565b80156140ee5780601f106140c3576101008083540402835291602001916140ee565b820191906000526020600020905b8154815290600101906020018083116140d157829003601f168201915b505050505081565b60006001600160e01b031982166380ac58cd60e01b148061412757506001600160e01b03198216635b5e139f60e01b145b80610d5757506301ffc9a760e01b6001600160e01b0319831614610d57565b6000806141528361418b565b90506001600160a01b038116610d5757604051637e27328960e01b815260048101849052602401611044565b61190c8383836001614b9c565b6000908152600260205260409020546001600160a01b031690565b600082815260146020526040902061190c828261600a565b6000806141cc858585614ca2565b90506001600160a01b0381166142295761422484600880546000838152600960205260408120829055600182018355919091527ff3f7a9fe364faab93b216da50a3214154f22a0a2b415b23a84c8169e8b636ee30155565b61424c565b846001600160a01b0316816001600160a01b03161461424c5761424c8185614d96565b6001600160a01b0385166142685761426384614e17565b61428b565b846001600160a01b0316816001600160a01b03161461428b5761428b8585614ec6565b949350505050565b6101008311156142b657604051635fab396360e11b815260040160405180910390fd5b6101008111156142d957604051630601a0fb60e51b815260040160405180910390fd5b6000888152600c602052604090205486111561430857604051631f9510eb60e01b815260040160405180910390fd5b6000878152600c60205260409020548511156143375760405163782ce69f60e01b815260040160405180910390fd5b6000898989898987876040516020016143569796959493929190616665565b60408051601f19818403018152918152815160209283012060008d8152600e845282812082825290935291205490915060ff16156143a7576040516314396b6760e11b815260040160405180910390fd5b60008a8152600e602090815260408083208484528252808320805460ff191660011790558c8352600c82528083208151610140810183528e81528084018e90528083018d90526060810194909452608084018b905260a084018a90523360c08501526001600160601b03421660e08501528151601f89018490048402810184019092528782529291610100830191908990899081908401838280828437600092019190915250505090825250604080516020601f8801819004810282018101909252868152918101919087908790819084018382808284376000920182905250939094525050835460018181018655948252602091829020845160099092020190815590830151938101939093555060408101516002830155606081015160038301556080810151600483015560a0810151600583015560c081015160e08201516001600160601b0316600160a01b026001600160a01b039091161760068301556101008101519091906007820190614520908261600a565b506101208201516008820190614536908261600a565b50505060008a8152600c60205260409020805490819061455760018361613b565b815481106145675761456761614e565b600091825260209091206003600990920201015589156145ce5760008a8152601b602090815260408083208b8452825280832081518083019092528e8252818301858152815460018181018455928652939094209151600290930290910191825591519101555b8815614621576000898152601b602090815260408083208a8452825280832081518083019092528e8252818301858152815460018181018455928652939094209151600290930290910191825591519101555b8060010361463f57600d805490600061463983616164565b91905055505b336001600160a01b0316818c7ff24ca8fe8e48960e559267341f81e7b0f07746d1e98c729930fe251bd2875484428e8d8f8e8e8e604051614686979695949392919061669b565b60405180910390a46146978a614f16565b80156146a757506146a789614f16565b15614789576040516335313c2160e11b81523360048201526000907f00000000000000000000000000000000000000000000000000000000000000006001600160a01b031690636a627842906024016020604051808303816000875af1158015614715573d6000803e3d6000fd5b505050506040513d601f19601f8201168201806040525081019061473991906162c1565b9050801561478757818c336001600160a01b03167fdefc43c3e9b037326c59d7c3f29c0b6b5c94a6fbfcced006b763e74a3115da6d8460405161477e91815260200190565b60405180910390a45b505b5050505050505050505050565b6002600b54036147b957604051633ee5aeb560e01b815260040160405180910390fd5b6002600b55565b6000816040516020016147d391906166cd565b604051602081830303815290604052805190602001209050919050565b60008181526017602090815260408083206019909252822080549192909190036148205750600060019091015550565b606060005b82548110156148a25760008382815481106148425761484261614e565b600091825260208083209091015488835260188252604080842082855283529283902060010154925190935061487c9186918491016166df565b60405160208183030381529060405293505050808061489a90616164565b915050614825565b5080516020909101206001909201919091555050565b600a546001600160a01b03163314611fcf5760405163118cdaa760e01b8152336004820152602401611044565b600a80546001600160a01b038381166001600160a01b0319831681179093556040519116919082907f8be0079c531659141344cd1fd0a4f28419497f9722a3daafe3b4186f6b6457e090600090a35050565b60008084848481811061494c5761494c61614e565b905060200201359050600085858560010181811061496c5761496c61614e565b905060200201359050608082901c600014158061498c5750608081901c15155b156149aa576040516303b2487b60e11b815260040160405180910390fd5b60809190911b17949350505050565b6001600160a01b0382166149eb57604051630b61174360e31b81526001600160a01b0383166004820152602401611044565b6001600160a01b03838116600081815260056020908152604080832094871680845294825291829020805460ff191686151590811790915591519182527f17307eab39ab6107e8899845ad3d59bd9653f200f220920489ca2b5937696c31910160405180910390a3505050565b6001600160a01b0383163b15611b1c57604051630a85bd0160e11b81526001600160a01b0384169063150b7a0290614a9a908890889087908790600401616701565b6020604051808303816000875af1925050508015614ad5575060408051601f3d908101601f19168201909252614ad291810190616734565b60015b614b3e573d808015614b03576040519150601f19603f3d011682016040523d82523d6000602084013e614b08565b606091505b508051600003614b3657604051633250574960e11b81526001600160a01b0385166004820152602401611044565b805160208201fd5b6001600160e01b03198116630a85bd0160e11b14614b7a57604051633250574960e11b81526001600160a01b0385166004820152602401611044565b505050505050565b610e23828260405180602001604052806000815250614f37565b8080614bb057506001600160a01b03821615155b15614c72576000614bc084614146565b90506001600160a01b03831615801590614bec5750826001600160a01b0316816001600160a01b031614155b8015614bff5750614bfd8184613bf0565b155b15614c285760405163a9fbf51f60e01b81526001600160a01b0384166004820152602401611044565b8115614c705783856001600160a01b0316826001600160a01b03167f8c5be1e5ebec7d5bd14f71427d1e84f3dd0314c0f7b2291e5b200ac8c7c3b92560405160405180910390a45b505b5050600090815260046020526040902080546001600160a01b0319166001600160a01b0392909216919091179055565b600080614cae8461418b565b90506001600160a01b03831615614cca57614cca818486614f4f565b6001600160a01b03811615614d0857614ce7600085600080614b9c565b6001600160a01b038116600090815260036020526040902080546000190190555b6001600160a01b03851615614d37576001600160a01b0385166000908152600360205260409020805460010190555b60008481526002602052604080822080546001600160a01b0319166001600160a01b0389811691821790925591518793918516917fddf252ad1be2c89b69c2b068fc378daa952ba7f163c4a11628f55a4df523b3ef91a4949350505050565b6000614da183611f75565b6000838152600760209081526040808320546001600160a01b0388168452600690925290912091925090818314614df857600083815260208281526040808320548584528184208190558352600790915290208290555b6000938452600760209081526040808620869055938552525081205550565b600854600090614e299060019061613b565b60008381526009602052604081205460088054939450909284908110614e5157614e5161614e565b906000526020600020015490508060088381548110614e7257614e7261614e565b6000918252602080832090910192909255828152600990915260408082208490558582528120556008805480614eaa57614eaa616751565b6001900381819060005260206000200160009055905550505050565b60006001614ed384611f75565b614edd919061613b565b6001600160a01b039093166000908152600660209081526040808320868452825280832085905593825260079052919091209190915550565b60008115801590610d575750506000908152600c6020526040902054151590565b614f418383614fb3565b61190c336000858585614a58565b614f5a838383615018565b61190c576001600160a01b038316614f8857604051637e27328960e01b815260048101829052602401611044565b60405163177e802f60e01b81526001600160a01b038316600482015260248101829052604401611044565b6001600160a01b038216614fdd57604051633250574960e11b815260006004820152602401611044565b6000614feb838360006141be565b90506001600160a01b0381161561190c576040516339e3563760e11b815260006004820152602401611044565b60006001600160a01b0383161580159061428b5750826001600160a01b0316846001600160a01b0316148061505257506150528484613bf0565b8061428b5750506000908152600460205260409020546001600160a01b03908116911614919050565b6040518060a001604052806000815260200160008019168152602001606081526020016000815260200160006001600160a01b031681525090565b604080516101408101825260008082526020820181905291810182905260608082018390526080820183905260a0820183905260c0820183905260e0820192909252610100810182905261012081019190915290565b60408051610100810182526000918101828152606082018390526080820183905260a0820183905260c0820183905260e0820192909252908190815260200161519f6040518061010001604052806060815260200160608152602001600015158152602001600061ffff168152602001600060ff168152602001600060ff16815260200160608152602001606081525090565b905290565b6040518060e001604052806007906020820280368337509192915050565b60405180606001604052806003906020820280368337509192915050565b6001600160e01b031981168114613dbd57600080fd5b60006020828403121561520857600080fd5b8135615213816151e0565b9392505050565b60005b8381101561523557818101518382015260200161521d565b50506000910152565b6000815180845261525681602086016020860161521a565b601f01601f19169290920160200192915050565b602081526000615213602083018461523e565b60006020828403121561528f57600080fd5b5035919050565b80356001600160a01b03811681146152ad57600080fd5b919050565b600080604083850312156152c557600080fd5b6152ce83615296565b946020939093013593505050565b600080604083850312156152ef57600080fd5b50508035926020909101359150565b60008060006060848603121561531357600080fd5b505081359360208301359350604090920135919050565b60008083601f84011261533c57600080fd5b5081356001600160401b0381111561535357600080fd5b60208301915083602082850101111561536b57600080fd5b9250929050565b60008060006040848603121561538757600080fd5b8335925060208401356001600160401b038111156153a457600080fd5b6153b08682870161532a565b9497909650939450505050565b6000806000606084860312156153d257600080fd5b6153db84615296565b92506153e960208501615296565b9150604084013590509250925092565b8051825260208101511515602083015261ffff604082015116604083015260ff606082015116606083015260ff608082015116608083015260ff60a08201511660a08301525050565b600061010082518185526154588286018261523e565b91505060208301518482036020860152615472828261523e565b9150506040830151615488604086018215159052565b50606083015161549e606086018261ffff169052565b5060808301516154b3608086018260ff169052565b5060a08301516154c860a086018260ff169052565b5060c083015184820360c08601526154e0828261523e565b91505060e083015184820360e08601526154fa828261523e565b95945050505050565b61550d81846153f9565b60e060c0820152600061428b60e0830184615442565b80518252602081015160208301526000604082015160a0604085015261554c60a085018261523e565b606084810151908601526080938401516001600160a01b031693909401929092525090919050565b6000608082016080835280875180835260a08501915060a08160051b86010192506020808a0160005b838110156155cb57609f198887030185526155b9868351615523565b9550938201939082019060010161559d565b5050850197909752509315156040830152506060015292915050565b600080600080600080600080600060e08a8c03121561560557600080fd5b8935985060208a0135975060408a0135965060608a0135955060808a0135945060a08a01356001600160401b038082111561563f57600080fd5b61564b8d838e0161532a565b909650945060c08c013591508082111561566457600080fd5b506156718c828d0161532a565b915080935050809150509295985092959850929598565b6000608082016080835280875180835260a08501915060a08160051b86010192506020808a0160005b838110156155cb57609f198887030185526156cd86835161523e565b955093820193908201906001016156b1565b6000806000806000608086880312156156f757600080fd5b853594506020860135935060408601356001600160401b0381111561571b57600080fd5b6157278882890161532a565b96999598509660600135949350505050565b6000806000806080858703121561574f57600080fd5b5050823594602084013594506040840135936060013592509050565b600081518084526020808501945080840160005b8381101561579b5781518752958201959082019060010161577f565b509495945050505050565b60a0808252865190820181905260009060209060c0840190828a01845b828110156157df578151845292840192908401906001016157c3565b505050838103828501526157f3818961576b565b6040850197909752505050911515606083015260809091015292915050565b60006101408c83528b60208401528a60408401528960608401528860808401528760a084015260018060a01b03871660c08401526001600160601b03861660e0840152806101008401526158688184018661523e565b905082810361012084015261587d818561523e565b9d9c50505050505050505050505050565b6000602082840312156158a057600080fd5b61521382615296565b6000610140825184526020830151602085015260408301516040850152606083015160608501526080830151608085015260a083015160a085015260c08301516158fe60c08601826001600160a01b03169052565b5060e083015161591960e08601826001600160601b03169052565b506101008084015182828701526159328387018261523e565b92505050610120808401518583038287015261594e838261523e565b9695505050505050565b86815285602082015260c06040820152600061597760c08301876158a9565b828103606084015261598a8187516153f9565b602086015160e060c08301526159a360e0830182615442565b91505084608084015282810360a08401526159be818561523e565b9998505050505050505050565b6000608082016080835280875180835260a08501915060a08160051b86010192506020808a0160005b838110156155cb57609f19888703018552615a108683516158a9565b955093820193908201906001016159f4565b8060408101831015610d5757600080fd5b8060808101831015610d5757600080fd5b60008083601f840112615a5657600080fd5b5081356001600160401b03811115615a6d57600080fd5b6020830191508360208260051b850101111561536b57600080fd5b60008060008060008060008060008060006101a08c8e031215615aaa57600080fd5b615ab48d8d615a22565b9a50615ac38d60408e01615a33565b9950615ad28d60c08e01615a22565b98506001600160401b03806101008e01351115615aee57600080fd5b615aff8e6101008f01358f01615a44565b90995097506101208d013596506101408d013595506101608d0135811015615b2657600080fd5b615b378e6101608f01358f0161532a565b90955093506101808d0135811015615b4e57600080fd5b50615b608d6101808e01358e0161532a565b81935080925050509295989b509295989b9093969950565b8015158114613dbd57600080fd5b60008060408385031215615b9957600080fd5b615ba283615296565b91506020830135615bb281615b78565b809150509250929050565b634e487b7160e01b600052604160045260246000fd5b60006001600160401b0380841115615bed57615bed615bbd565b604051601f8501601f19908116603f01168101908282118183101715615c1557615c15615bbd565b81604052809350858152868686011115615c2e57600080fd5b858560208301376000602087830101525050509392505050565b60008060008060808587031215615c5e57600080fd5b615c6785615296565b9350615c7560208601615296565b92506040850135915060608501356001600160401b03811115615c9757600080fd5b8501601f81018713615ca857600080fd5b615cb787823560208401615bd3565b91505092959194509250565b606081526000615cd660608301866158a9565b60208301949094525060400152919050565b600060208284031215615cfa57600080fd5b81356001600160401b03811115615d1057600080fd5b8201601f81018413615d2157600080fd5b61428b84823560208401615bd3565b61ffff81168114613dbd57600080fd5b60ff81168114613dbd57600080fd5b600060c08284031215615d6157600080fd5b60405160c081018181106001600160401b0382111715615d8357615d83615bbd565b604052823581526020830135615d9881615b78565b60208201526040830135615dab81615d30565b60408201526060830135615dbe81615d40565b60608201526080830135615dd181615d40565b608082015260a0830135615de481615d40565b60a08201529392505050565b85815284602082015260a060408201526000615e0f60a083018661523e565b6060830194909452506001600160a01b03919091166080909101529392505050565b600080600080600060808688031215615e4957600080fd5b853594506020860135935060408601356001600160401b0380821115615e6e57600080fd5b615e7a89838a0161532a565b90955093506060880135915080821115615e9357600080fd5b50860160e08189031215615ea657600080fd5b809150509295509295909350565b60008060408385031215615ec757600080fd5b615ed083615296565b9150615ede60208401615296565b90509250929050565b6020815260006152136020830184615523565b60008060408385031215615f0d57600080fd5b82359150615ede60208401615296565b60c081526000615f3060c083018961576b565b8281036020840152615f42818961576b565b90508281036040840152615f56818861576b565b60608401969096525050911515608083015260a0909101529392505050565b600181811c90821680615f8957607f821691505b602082108103615fa957634e487b7160e01b600052602260045260246000fd5b50919050565b601f82111561190c57600081815260208120601f850160051c81016020861015615fd65750805b601f850160051c820191505b81811015614b7a57828155600101615fe2565b600019600383901b1c191660019190911b1790565b81516001600160401b0381111561602357616023615bbd565b616037816160318454615f75565b84615faf565b602080601f83116001811461606657600084156160545750858301515b61605e8582615ff5565b865550614b7a565b600085815260208120601f198616915b8281101561609557888601518255948401946001909101908401616076565b50858210156160b35787850151600019600388901b60f8161c191681555b5050505050600190811b01905550565b81835281816020850137506000828201602090810191909152601f909101601f19169091010190565b6040815260006160ff604083018661523e565b828103602084015261594e8185876160c3565b634e487b7160e01b600052601160045260246000fd5b80820180821115610d5757610d57616112565b81810381811115610d5757610d57616112565b634e487b7160e01b600052603260045260246000fd5b60006001820161617657616176616112565b5060010190565b6001600160401b0383111561619457616194615bbd565b6161a8836161a28354615f75565b83615faf565b6000601f8411600181146161d657600085156161c45750838201355b6161ce8682615ff5565b845550611b1c565b600083815260209020601f19861690835b8281101561620757868501358255602094850194600190920191016161e7565b50868210156162245760001960f88860031b161c19848701351681555b505060018560011b0183555050505050565b6101e081016040808784378083018660005b600281101561626557838284379183019190830190600101616248565b505050808560c08501375061010082018360005b6007811015616298578151835260209283019290910190600101616279565b50505095945050505050565b6000602082840312156162b657600080fd5b815161521381615b78565b6000602082840312156162d357600080fd5b5051919050565b60608101818360005b60038110156163025781518352602092830192909101906001016162e3565b50505092915050565b6000823560fe1983360301811261632157600080fd5b9190910192915050565b6000808335601e1984360301811261634257600080fd5b8301803591506001600160401b0382111561635c57600080fd5b60200191503681900382131561536b57600080fd5b60008135610d5781615b78565b60008135610d5781615d30565b60008135610d5781615d40565b6163a2828361632b565b6001600160401b038111156163b9576163b9615bbd565b6163cd816163c78554615f75565b85615faf565b6000601f8211600181146163fb57600083156163e95750838201355b6163f38482615ff5565b865550616455565b600085815260209020601f19841690835b8281101561642c578685013582556020948501946001909201910161640c565b50848210156164495760001960f88660031b161c19848701351681555b505060018360011b0185555b50505050616466602083018361632b565b61647481836001860161617d565b50506002810161649d61648960408501616371565b825490151560ff1660ff1991909116178255565b6164c46164ac6060850161637e565b825462ffff00191660089190911b62ffff0016178255565b6164ed6164d36080850161638b565b825463ff000000191660189190911b63ff00000016178255565b6165186164fc60a0850161638b565b825464ff00000000191660209190911b64ff0000000016178255565b5061652660c083018361632b565b61653481836003860161617d565b505061654360e083018361632b565b6110a881836004860161617d565b8135815560018101602083013561656781615b78565b815460ff191660ff8215151617825550604083013561658581615d30565b815462ffff001916600882901b62ffff00161782555060608301356165a981615d40565b815463ff0000001916601882901b63ff000000161782555060808301356165cf81615d40565b815464ff000000001916602082901b64ff00000000161782555060a08301356165f781615d40565b815465ff0000000000191660289190911b65ff00000000001617905560c08201353683900360fe1901811261662b57600080fd5b61190c81840160028401616398565b8481526060602082015260006166546060830185876160c3565b905082604083015295945050505050565b878152866020820152856040820152846060820152836080820152818360a08301376000910160a0019081529695505050505050565b87815286602082015285604082015284606082015283608082015260c060a082015260006159be60c0830184866160c3565b6000825161632181846020870161521a565b600083516166f181846020880161521a565b9190910191825250602001919050565b6001600160a01b038581168252841660208201526040810183905260806060820181905260009061594e9083018461523e565b60006020828403121561674657600080fd5b8151615213816151e0565b634e487b7160e01b600052603160045260246000fdfea264697066735822122061a23d945b9db33b87a595f51af4ac696aed6088539d214bfdaa3b529ad73d6964736f6c63430008140033",
  "linkReferences": {
    "poseidon-solidity/PoseidonT4.sol": {
      "PoseidonT4": [
        {
          "length": 20,
          "start": 15061
        }
      ]
    }
  },
  "deployedLinkReferences": {
    "poseidon-solidity/PoseidonT4.sol": {
      "PoseidonT4": [
        {
          "length": 20,
          "start": 14137
        }
      ]
    }
  }
}