{
  "_format": "hh-sol-artifact-1",
  "contractName": "DeepFamily",
  "sourceName": "contracts/DeepFamily.sol",
  "abi": [
    {
      "inputs": [
        {
          "internalType": "address",
          "name": "_deepFamilyTokenContract",
          "type": "address"
        },
        {
          "internalType": "address",
          "name": "_personHashVerifier",
          "type": "address"
        },
        {
          "internalType": "address",
          "name": "_namePoseidonVerifier",
          "type": "address"
        }
      ],
      "stateMutability": "nonpayable",
      "type": "constructor"
    },
    {
      "inputs": [],
      "name": "BasicInfoMismatch",
      "type": "error"
    },
    {
      "inputs": [],
      "name": "ChunkHashMismatch",
      "type": "error"
    },
    {
      "inputs": [],
      "name": "ChunkIndexOutOfRange",
      "type": "error"
    },
    {
      "inputs": [],
      "name": "DirectETHNotAccepted",
      "type": "error"
    },
    {
      "inputs": [],
      "name": "DuplicateVersion",
      "type": "error"
    },
    {
      "inputs": [],
      "name": "ERC721EnumerableForbiddenBatchMint",
      "type": "error"
    },
    {
      "inputs": [
        {
          "internalType": "address",
          "name": "sender",
          "type": "address"
        },
        {
          "internalType": "uint256",
          "name": "tokenId",
          "type": "uint256"
        },
        {
          "internalType": "address",
          "name": "owner",
          "type": "address"
        }
      ],
      "name": "ERC721IncorrectOwner",
      "type": "error"
    },
    {
      "inputs": [
        {
          "internalType": "address",
          "name": "operator",
          "type": "address"
        },
        {
          "internalType": "uint256",
          "name": "tokenId",
          "type": "uint256"
        }
      ],
      "name": "ERC721InsufficientApproval",
      "type": "error"
    },
    {
      "inputs": [
        {
          "internalType": "address",
          "name": "approver",
          "type": "address"
        }
      ],
      "name": "ERC721InvalidApprover",
      "type": "error"
    },
    {
      "inputs": [
        {
          "internalType": "address",
          "name": "operator",
          "type": "address"
        }
      ],
      "name": "ERC721InvalidOperator",
      "type": "error"
    },
    {
      "inputs": [
        {
          "internalType": "address",
          "name": "owner",
          "type": "address"
        }
      ],
      "name": "ERC721InvalidOwner",
      "type": "error"
    },
    {
      "inputs": [
        {
          "internalType": "address",
          "name": "receiver",
          "type": "address"
        }
      ],
      "name": "ERC721InvalidReceiver",
      "type": "error"
    },
    {
      "inputs": [
        {
          "internalType": "address",
          "name": "sender",
          "type": "address"
        }
      ],
      "name": "ERC721InvalidSender",
      "type": "error"
    },
    {
      "inputs": [
        {
          "internalType": "uint256",
          "name": "tokenId",
          "type": "uint256"
        }
      ],
      "name": "ERC721NonexistentToken",
      "type": "error"
    },
    {
      "inputs": [
        {
          "internalType": "address",
          "name": "owner",
          "type": "address"
        },
        {
          "internalType": "uint256",
          "name": "index",
          "type": "uint256"
        }
      ],
      "name": "ERC721OutOfBoundsIndex",
      "type": "error"
    },
    {
      "inputs": [],
      "name": "EndorsementFeeTransferFailed",
      "type": "error"
    },
    {
      "inputs": [],
      "name": "InvalidBirthDay",
      "type": "error"
    },
    {
      "inputs": [],
      "name": "InvalidBirthMonth",
      "type": "error"
    },
    {
      "inputs": [],
      "name": "InvalidBirthPlace",
      "type": "error"
    },
    {
      "inputs": [],
      "name": "InvalidCIDLength",
      "type": "error"
    },
    {
      "inputs": [],
      "name": "InvalidChunkContent",
      "type": "error"
    },
    {
      "inputs": [],
      "name": "InvalidDeathPlace",
      "type": "error"
    },
    {
      "inputs": [],
      "name": "InvalidFatherVersionIndex",
      "type": "error"
    },
    {
      "inputs": [],
      "name": "InvalidFullName",
      "type": "error"
    },
    {
      "inputs": [],
      "name": "InvalidMotherVersionIndex",
      "type": "error"
    },
    {
      "inputs": [],
      "name": "InvalidPersonHash",
      "type": "error"
    },
    {
      "inputs": [],
      "name": "InvalidStory",
      "type": "error"
    },
    {
      "inputs": [],
      "name": "InvalidTagLength",
      "type": "error"
    },
    {
      "inputs": [],
      "name": "InvalidTokenId",
      "type": "error"
    },
    {
      "inputs": [],
      "name": "InvalidTokenURI",
      "type": "error"
    },
    {
      "inputs": [],
      "name": "InvalidVersionIndex",
      "type": "error"
    },
    {
      "inputs": [],
      "name": "InvalidZKProof",
      "type": "error"
    },
    {
      "inputs": [],
      "name": "MustBeNFTHolder",
      "type": "error"
    },
    {
      "inputs": [],
      "name": "MustEndorseVersionFirst",
      "type": "error"
    },
    {
      "inputs": [],
      "name": "NameVerifierNotSet",
      "type": "error"
    },
    {
      "inputs": [
        {
          "internalType": "address",
          "name": "owner",
          "type": "address"
        }
      ],
      "name": "OwnableInvalidOwner",
      "type": "error"
    },
    {
      "inputs": [
        {
          "internalType": "address",
          "name": "account",
          "type": "address"
        }
      ],
      "name": "OwnableUnauthorizedAccount",
      "type": "error"
    },
    {
      "inputs": [],
      "name": "PageSizeExceedsLimit",
      "type": "error"
    },
    {
      "inputs": [],
      "name": "ReentrancyGuardReentrantCall",
      "type": "error"
    },
    {
      "inputs": [],
      "name": "StoryAlreadySealed",
      "type": "error"
    },
    {
      "inputs": [],
      "name": "StoryNotFound",
      "type": "error"
    },
    {
      "inputs": [],
      "name": "TokenContractNotSet",
      "type": "error"
    },
    {
      "inputs": [],
      "name": "VerifierNotSet",
      "type": "error"
    },
    {
      "inputs": [],
      "name": "VersionAlreadyMinted",
      "type": "error"
    },
    {
      "anonymous": false,
      "inputs": [
        {
          "indexed": true,
          "internalType": "address",
          "name": "owner",
          "type": "address"
        },
        {
          "indexed": true,
          "internalType": "address",
          "name": "approved",
          "type": "address"
        },
        {
          "indexed": true,
          "internalType": "uint256",
          "name": "tokenId",
          "type": "uint256"
        }
      ],
      "name": "Approval",
      "type": "event"
    },
    {
      "anonymous": false,
      "inputs": [
        {
          "indexed": true,
          "internalType": "address",
          "name": "owner",
          "type": "address"
        },
        {
          "indexed": true,
          "internalType": "address",
          "name": "operator",
          "type": "address"
        },
        {
          "indexed": false,
          "internalType": "bool",
          "name": "approved",
          "type": "bool"
        }
      ],
      "name": "ApprovalForAll",
      "type": "event"
    },
    {
      "anonymous": false,
      "inputs": [
        {
          "indexed": true,
          "internalType": "address",
          "name": "previousOwner",
          "type": "address"
        },
        {
          "indexed": true,
          "internalType": "address",
          "name": "newOwner",
          "type": "address"
        }
      ],
      "name": "OwnershipTransferred",
      "type": "event"
    },
    {
      "anonymous": false,
      "inputs": [
        {
          "indexed": true,
          "internalType": "bytes32",
          "name": "personHash",
          "type": "bytes32"
        },
        {
          "indexed": true,
          "internalType": "address",
          "name": "prover",
          "type": "address"
        }
      ],
      "name": "PersonHashZKVerified",
      "type": "event"
    },
    {
      "anonymous": false,
      "inputs": [
        {
          "indexed": true,
          "internalType": "bytes32",
          "name": "personHash",
          "type": "bytes32"
        },
        {
          "indexed": true,
          "internalType": "uint256",
          "name": "tokenId",
          "type": "uint256"
        },
        {
          "indexed": true,
          "internalType": "address",
          "name": "owner",
          "type": "address"
        },
        {
          "indexed": false,
          "internalType": "uint256",
          "name": "versionIndex",
          "type": "uint256"
        },
        {
          "indexed": false,
          "internalType": "string",
          "name": "tokenURI",
          "type": "string"
        },
        {
          "indexed": false,
          "internalType": "uint256",
          "name": "timestamp",
          "type": "uint256"
        }
      ],
      "name": "PersonNFTMinted",
      "type": "event"
    },
    {
      "anonymous": false,
      "inputs": [
        {
          "indexed": true,
          "internalType": "bytes32",
          "name": "personHash",
          "type": "bytes32"
        },
        {
          "indexed": true,
          "internalType": "uint256",
          "name": "versionIndex",
          "type": "uint256"
        },
        {
          "indexed": true,
          "internalType": "address",
          "name": "addedBy",
          "type": "address"
        },
        {
          "indexed": false,
          "internalType": "uint256",
          "name": "timestamp",
          "type": "uint256"
        },
        {
          "indexed": false,
          "internalType": "bytes32",
          "name": "fatherHash",
          "type": "bytes32"
        },
        {
          "indexed": false,
          "internalType": "uint256",
          "name": "fatherVersionIndex",
          "type": "uint256"
        },
        {
          "indexed": false,
          "internalType": "bytes32",
          "name": "motherHash",
          "type": "bytes32"
        },
        {
          "indexed": false,
          "internalType": "uint256",
          "name": "motherVersionIndex",
          "type": "uint256"
        },
        {
          "indexed": false,
          "internalType": "string",
          "name": "tag",
          "type": "string"
        }
      ],
      "name": "PersonVersionAdded",
      "type": "event"
    },
    {
      "anonymous": false,
      "inputs": [
        {
          "indexed": true,
          "internalType": "bytes32",
          "name": "personHash",
          "type": "bytes32"
        },
        {
          "indexed": true,
          "internalType": "address",
          "name": "endorser",
          "type": "address"
        },
        {
          "indexed": false,
          "internalType": "uint256",
          "name": "versionIndex",
          "type": "uint256"
        },
        {
          "indexed": false,
          "internalType": "uint256",
          "name": "endorsementFee",
          "type": "uint256"
        },
        {
          "indexed": false,
          "internalType": "uint256",
          "name": "timestamp",
          "type": "uint256"
        }
      ],
      "name": "PersonVersionEndorsed",
      "type": "event"
    },
    {
      "anonymous": false,
      "inputs": [
        {
          "indexed": true,
          "internalType": "uint256",
          "name": "tokenId",
          "type": "uint256"
        },
        {
          "indexed": true,
          "internalType": "uint256",
          "name": "chunkIndex",
          "type": "uint256"
        },
        {
          "indexed": false,
          "internalType": "bytes32",
          "name": "chunkHash",
          "type": "bytes32"
        },
        {
          "indexed": true,
          "internalType": "address",
          "name": "editor",
          "type": "address"
        },
        {
          "indexed": false,
          "internalType": "uint256",
          "name": "contentLength",
          "type": "uint256"
        }
      ],
      "name": "StoryChunkAdded",
      "type": "event"
    },
    {
      "anonymous": false,
      "inputs": [
        {
          "indexed": true,
          "internalType": "uint256",
          "name": "tokenId",
          "type": "uint256"
        },
        {
          "indexed": true,
          "internalType": "uint256",
          "name": "chunkIndex",
          "type": "uint256"
        },
        {
          "indexed": false,
          "internalType": "bytes32",
          "name": "oldHash",
          "type": "bytes32"
        },
        {
          "indexed": false,
          "internalType": "bytes32",
          "name": "newHash",
          "type": "bytes32"
        },
        {
          "indexed": true,
          "internalType": "address",
          "name": "editor",
          "type": "address"
        }
      ],
      "name": "StoryChunkUpdated",
      "type": "event"
    },
    {
      "anonymous": false,
      "inputs": [
        {
          "indexed": true,
          "internalType": "uint256",
          "name": "tokenId",
          "type": "uint256"
        },
        {
          "indexed": false,
          "internalType": "uint256",
          "name": "totalChunks",
          "type": "uint256"
        },
        {
          "indexed": false,
          "internalType": "bytes32",
          "name": "fullStoryHash",
          "type": "bytes32"
        },
        {
          "indexed": true,
          "internalType": "address",
          "name": "sealer",
          "type": "address"
        }
      ],
      "name": "StorySealed",
      "type": "event"
    },
    {
      "anonymous": false,
      "inputs": [
        {
          "indexed": true,
          "internalType": "address",
          "name": "miner",
          "type": "address"
        },
        {
          "indexed": true,
          "internalType": "bytes32",
          "name": "personHash",
          "type": "bytes32"
        },
        {
          "indexed": true,
          "internalType": "uint256",
          "name": "versionIndex",
          "type": "uint256"
        },
        {
          "indexed": false,
          "internalType": "uint256",
          "name": "reward",
          "type": "uint256"
        }
      ],
      "name": "TokenRewardDistributed",
      "type": "event"
    },
    {
      "anonymous": false,
      "inputs": [
        {
          "indexed": true,
          "internalType": "uint256",
          "name": "tokenId",
          "type": "uint256"
        },
        {
          "indexed": true,
          "internalType": "address",
          "name": "owner",
          "type": "address"
        },
        {
          "indexed": false,
          "internalType": "string",
          "name": "oldURI",
          "type": "string"
        },
        {
          "indexed": false,
          "internalType": "string",
          "name": "newURI",
          "type": "string"
        }
      ],
      "name": "TokenURIUpdated",
      "type": "event"
    },
    {
      "anonymous": false,
      "inputs": [
        {
          "indexed": true,
          "internalType": "address",
          "name": "from",
          "type": "address"
        },
        {
          "indexed": true,
          "internalType": "address",
          "name": "to",
          "type": "address"
        },
        {
          "indexed": true,
          "internalType": "uint256",
          "name": "tokenId",
          "type": "uint256"
        }
      ],
      "name": "Transfer",
      "type": "event"
    },
    {
      "stateMutability": "payable",
      "type": "fallback"
    },
    {
      "inputs": [],
      "name": "DEEP_FAMILY_TOKEN_CONTRACT",
      "outputs": [
        {
          "internalType": "address",
          "name": "",
          "type": "address"
        }
      ],
      "stateMutability": "view",
      "type": "function"
    },
    {
      "inputs": [],
      "name": "MAX_CHUNK_CONTENT_LENGTH",
      "outputs": [
        {
          "internalType": "uint256",
          "name": "",
          "type": "uint256"
        }
      ],
      "stateMutability": "view",
      "type": "function"
    },
    {
      "inputs": [],
      "name": "MAX_LONG_TEXT_LENGTH",
      "outputs": [
        {
          "internalType": "uint256",
          "name": "",
          "type": "uint256"
        }
      ],
      "stateMutability": "view",
      "type": "function"
    },
    {
      "inputs": [],
      "name": "MAX_QUERY_PAGE_SIZE",
      "outputs": [
        {
          "internalType": "uint256",
          "name": "",
          "type": "uint256"
        }
      ],
      "stateMutability": "view",
      "type": "function"
    },
    {
      "inputs": [],
      "name": "MAX_STORY_CHUNKS",
      "outputs": [
        {
          "internalType": "uint256",
          "name": "",
          "type": "uint256"
        }
      ],
      "stateMutability": "view",
      "type": "function"
    },
    {
      "inputs": [],
      "name": "NAME_POSEIDON_VERIFIER",
      "outputs": [
        {
          "internalType": "address",
          "name": "",
          "type": "address"
        }
      ],
      "stateMutability": "view",
      "type": "function"
    },
    {
      "inputs": [],
      "name": "PERSON_HASH_VERIFIER",
      "outputs": [
        {
          "internalType": "address",
          "name": "",
          "type": "address"
        }
      ],
      "stateMutability": "view",
      "type": "function"
    },
    {
      "inputs": [
        {
          "internalType": "uint256",
          "name": "",
          "type": "uint256"
        },
        {
          "internalType": "uint256",
          "name": "",
          "type": "uint256"
        }
      ],
      "name": "activeChunkIndices",
      "outputs": [
        {
          "internalType": "uint256",
          "name": "",
          "type": "uint256"
        }
      ],
      "stateMutability": "view",
      "type": "function"
    },
    {
      "inputs": [
        {
          "internalType": "uint256[2]",
          "name": "a",
          "type": "uint256[2]"
        },
        {
          "internalType": "uint256[2][2]",
          "name": "b",
          "type": "uint256[2][2]"
        },
        {
          "internalType": "uint256[2]",
          "name": "c",
          "type": "uint256[2]"
        },
        {
          "internalType": "uint256[7]",
          "name": "publicSignals",
          "type": "uint256[7]"
        },
        {
          "internalType": "uint256",
          "name": "fatherVersionIndex",
          "type": "uint256"
        },
        {
          "internalType": "uint256",
          "name": "motherVersionIndex",
          "type": "uint256"
        },
        {
          "internalType": "string",
          "name": "tag",
          "type": "string"
        },
        {
          "internalType": "string",
          "name": "metadataCID",
          "type": "string"
        }
      ],
      "name": "addPersonZK",
      "outputs": [],
      "stateMutability": "nonpayable",
      "type": "function"
    },
    {
      "inputs": [
        {
          "internalType": "uint256",
          "name": "tokenId",
          "type": "uint256"
        },
        {
          "internalType": "uint256",
          "name": "chunkIndex",
          "type": "uint256"
        },
        {
          "internalType": "string",
          "name": "content",
          "type": "string"
        },
        {
          "internalType": "bytes32",
          "name": "expectedHash",
          "type": "bytes32"
        }
      ],
      "name": "addStoryChunk",
      "outputs": [],
      "stateMutability": "nonpayable",
      "type": "function"
    },
    {
      "inputs": [
        {
          "internalType": "address",
          "name": "to",
          "type": "address"
        },
        {
          "internalType": "uint256",
          "name": "tokenId",
          "type": "uint256"
        }
      ],
      "name": "approve",
      "outputs": [],
      "stateMutability": "nonpayable",
      "type": "function"
    },
    {
      "inputs": [
        {
          "internalType": "address",
          "name": "owner",
          "type": "address"
        }
      ],
      "name": "balanceOf",
      "outputs": [
        {
          "internalType": "uint256",
          "name": "",
          "type": "uint256"
        }
      ],
      "stateMutability": "view",
      "type": "function"
    },
    {
      "inputs": [
        {
          "internalType": "bytes32",
          "name": "",
          "type": "bytes32"
        },
        {
          "internalType": "uint256",
          "name": "",
          "type": "uint256"
        },
        {
          "internalType": "uint256",
          "name": "",
          "type": "uint256"
        }
      ],
      "name": "childrenOf",
      "outputs": [
        {
          "internalType": "bytes32",
          "name": "childHash",
          "type": "bytes32"
        },
        {
          "internalType": "uint256",
          "name": "childVersionIndex",
          "type": "uint256"
        }
      ],
      "stateMutability": "view",
      "type": "function"
    },
    {
      "inputs": [
        {
          "internalType": "bytes32",
          "name": "personHash",
          "type": "bytes32"
        },
        {
          "internalType": "uint256",
          "name": "versionIndex",
          "type": "uint256"
        }
      ],
      "name": "endorseVersion",
      "outputs": [],
      "stateMutability": "nonpayable",
      "type": "function"
    },
    {
      "inputs": [
        {
          "internalType": "bytes32",
          "name": "",
          "type": "bytes32"
        },
        {
          "internalType": "address",
          "name": "",
          "type": "address"
        }
      ],
      "name": "endorsedVersionIndex",
      "outputs": [
        {
          "internalType": "uint256",
          "name": "",
          "type": "uint256"
        }
      ],
      "stateMutability": "view",
      "type": "function"
    },
    {
      "inputs": [
        {
          "internalType": "uint256",
          "name": "tokenId",
          "type": "uint256"
        }
      ],
      "name": "getApproved",
      "outputs": [
        {
          "internalType": "address",
          "name": "",
          "type": "address"
        }
      ],
      "stateMutability": "view",
      "type": "function"
    },
    {
      "inputs": [
        {
          "internalType": "uint256",
          "name": "tokenId",
          "type": "uint256"
        }
      ],
      "name": "getNFTDetails",
      "outputs": [
        {
          "internalType": "bytes32",
          "name": "personHash",
          "type": "bytes32"
        },
        {
          "internalType": "uint256",
          "name": "versionIndex",
          "type": "uint256"
        },
        {
          "components": [
            {
              "internalType": "bytes32",
              "name": "personHash",
              "type": "bytes32"
            },
            {
              "internalType": "bytes32",
              "name": "fatherHash",
              "type": "bytes32"
            },
            {
              "internalType": "bytes32",
              "name": "motherHash",
              "type": "bytes32"
            },
            {
              "internalType": "uint256",
              "name": "versionIndex",
              "type": "uint256"
            },
            {
              "internalType": "uint256",
              "name": "fatherVersionIndex",
              "type": "uint256"
            },
            {
              "internalType": "uint256",
              "name": "motherVersionIndex",
              "type": "uint256"
            },
            {
              "internalType": "address",
              "name": "addedBy",
              "type": "address"
            },
            {
              "internalType": "uint96",
              "name": "timestamp",
              "type": "uint96"
            },
            {
              "internalType": "string",
              "name": "tag",
              "type": "string"
            },
            {
              "internalType": "string",
              "name": "metadataCID",
              "type": "string"
            }
          ],
          "internalType": "struct DeepFamily.PersonVersion",
          "name": "version",
          "type": "tuple"
        },
        {
          "components": [
            {
              "components": [
                {
                  "internalType": "bytes32",
                  "name": "fullNameCommitment",
                  "type": "bytes32"
                },
                {
                  "internalType": "bool",
                  "name": "isBirthBC",
                  "type": "bool"
                },
                {
                  "internalType": "uint16",
                  "name": "birthYear",
                  "type": "uint16"
                },
                {
                  "internalType": "uint8",
                  "name": "birthMonth",
                  "type": "uint8"
                },
                {
                  "internalType": "uint8",
                  "name": "birthDay",
                  "type": "uint8"
                },
                {
                  "internalType": "uint8",
                  "name": "gender",
                  "type": "uint8"
                }
              ],
              "internalType": "struct DeepFamily.PersonBasicInfo",
              "name": "basicInfo",
              "type": "tuple"
            },
            {
              "components": [
                {
                  "internalType": "string",
                  "name": "fullName",
                  "type": "string"
                },
                {
                  "internalType": "string",
                  "name": "birthPlace",
                  "type": "string"
                },
                {
                  "internalType": "bool",
                  "name": "isDeathBC",
                  "type": "bool"
                },
                {
                  "internalType": "uint16",
                  "name": "deathYear",
                  "type": "uint16"
                },
                {
                  "internalType": "uint8",
                  "name": "deathMonth",
                  "type": "uint8"
                },
                {
                  "internalType": "uint8",
                  "name": "deathDay",
                  "type": "uint8"
                },
                {
                  "internalType": "string",
                  "name": "deathPlace",
                  "type": "string"
                },
                {
                  "internalType": "string",
                  "name": "story",
                  "type": "string"
                }
              ],
              "internalType": "struct DeepFamily.PersonSupplementInfo",
              "name": "supplementInfo",
              "type": "tuple"
            }
          ],
          "internalType": "struct DeepFamily.PersonCoreInfo",
          "name": "coreInfo",
          "type": "tuple"
        },
        {
          "internalType": "uint256",
          "name": "endorsementCount",
          "type": "uint256"
        },
        {
          "internalType": "string",
          "name": "nftTokenURI",
          "type": "string"
        }
      ],
      "stateMutability": "view",
      "type": "function"
    },
    {
      "inputs": [
        {
          "components": [
            {
              "internalType": "bytes32",
              "name": "fullNameCommitment",
              "type": "bytes32"
            },
            {
              "internalType": "bool",
              "name": "isBirthBC",
              "type": "bool"
            },
            {
              "internalType": "uint16",
              "name": "birthYear",
              "type": "uint16"
            },
            {
              "internalType": "uint8",
              "name": "birthMonth",
              "type": "uint8"
            },
            {
              "internalType": "uint8",
              "name": "birthDay",
              "type": "uint8"
            },
            {
              "internalType": "uint8",
              "name": "gender",
              "type": "uint8"
            }
          ],
          "internalType": "struct DeepFamily.PersonBasicInfo",
          "name": "basicInfo",
          "type": "tuple"
        }
      ],
      "name": "getPersonHash",
      "outputs": [
        {
          "internalType": "bytes32",
          "name": "",
          "type": "bytes32"
        }
      ],
      "stateMutability": "pure",
      "type": "function"
    },
    {
      "inputs": [
        {
          "internalType": "uint256",
          "name": "tokenId",
          "type": "uint256"
        },
        {
          "internalType": "uint256",
          "name": "chunkIndex",
          "type": "uint256"
        }
      ],
      "name": "getStoryChunk",
      "outputs": [
        {
          "components": [
            {
              "internalType": "uint256",
              "name": "chunkIndex",
              "type": "uint256"
            },
            {
              "internalType": "bytes32",
              "name": "chunkHash",
              "type": "bytes32"
            },
            {
              "internalType": "string",
              "name": "content",
              "type": "string"
            },
            {
              "internalType": "uint256",
              "name": "timestamp",
              "type": "uint256"
            },
            {
              "internalType": "address",
              "name": "lastEditor",
              "type": "address"
            }
          ],
          "internalType": "struct DeepFamily.StoryChunk",
          "name": "chunk",
          "type": "tuple"
        }
      ],
      "stateMutability": "view",
      "type": "function"
    },
    {
      "inputs": [
        {
          "internalType": "uint256",
          "name": "tokenId",
          "type": "uint256"
        }
      ],
      "name": "getStoryMetadata",
      "outputs": [
        {
          "components": [
            {
              "internalType": "uint256",
              "name": "totalChunks",
              "type": "uint256"
            },
            {
              "internalType": "bytes32",
              "name": "fullStoryHash",
              "type": "bytes32"
            },
            {
              "internalType": "uint256",
              "name": "lastUpdateTime",
              "type": "uint256"
            },
            {
              "internalType": "bool",
              "name": "isSealed",
              "type": "bool"
            },
            {
              "internalType": "uint256",
              "name": "totalLength",
              "type": "uint256"
            }
          ],
          "internalType": "struct DeepFamily.StoryMetadata",
          "name": "metadata",
          "type": "tuple"
        }
      ],
      "stateMutability": "view",
      "type": "function"
    },
    {
      "inputs": [
        {
          "internalType": "bytes32",
          "name": "personHash",
          "type": "bytes32"
        },
        {
          "internalType": "uint256",
          "name": "versionIndex",
          "type": "uint256"
        }
      ],
      "name": "getVersionDetails",
      "outputs": [
        {
          "components": [
            {
              "internalType": "bytes32",
              "name": "personHash",
              "type": "bytes32"
            },
            {
              "internalType": "bytes32",
              "name": "fatherHash",
              "type": "bytes32"
            },
            {
              "internalType": "bytes32",
              "name": "motherHash",
              "type": "bytes32"
            },
            {
              "internalType": "uint256",
              "name": "versionIndex",
              "type": "uint256"
            },
            {
              "internalType": "uint256",
              "name": "fatherVersionIndex",
              "type": "uint256"
            },
            {
              "internalType": "uint256",
              "name": "motherVersionIndex",
              "type": "uint256"
            },
            {
              "internalType": "address",
              "name": "addedBy",
              "type": "address"
            },
            {
              "internalType": "uint96",
              "name": "timestamp",
              "type": "uint96"
            },
            {
              "internalType": "string",
              "name": "tag",
              "type": "string"
            },
            {
              "internalType": "string",
              "name": "metadataCID",
              "type": "string"
            }
          ],
          "internalType": "struct DeepFamily.PersonVersion",
          "name": "version",
          "type": "tuple"
        },
        {
          "internalType": "uint256",
          "name": "endorsementCount",
          "type": "uint256"
        },
        {
          "internalType": "uint256",
          "name": "tokenId",
          "type": "uint256"
        }
      ],
      "stateMutability": "view",
      "type": "function"
    },
    {
      "inputs": [
        {
          "internalType": "address",
          "name": "owner",
          "type": "address"
        },
        {
          "internalType": "address",
          "name": "operator",
          "type": "address"
        }
      ],
      "name": "isApprovedForAll",
      "outputs": [
        {
          "internalType": "bool",
          "name": "",
          "type": "bool"
        }
      ],
      "stateMutability": "view",
      "type": "function"
    },
    {
      "inputs": [
        {
          "internalType": "bytes32",
          "name": "parentHash",
          "type": "bytes32"
        },
        {
          "internalType": "uint256",
          "name": "parentVersionIndex",
          "type": "uint256"
        },
        {
          "internalType": "uint256",
          "name": "offset",
          "type": "uint256"
        },
        {
          "internalType": "uint256",
          "name": "limit",
          "type": "uint256"
        }
      ],
      "name": "listChildren",
      "outputs": [
        {
          "internalType": "bytes32[]",
          "name": "childHashes",
          "type": "bytes32[]"
        },
        {
          "internalType": "uint256[]",
          "name": "childVersionIndices",
          "type": "uint256[]"
        },
        {
          "internalType": "uint256",
          "name": "totalCount",
          "type": "uint256"
        },
        {
          "internalType": "bool",
          "name": "hasMore",
          "type": "bool"
        },
        {
          "internalType": "uint256",
          "name": "nextOffset",
          "type": "uint256"
        }
      ],
      "stateMutability": "view",
      "type": "function"
    },
    {
      "inputs": [
        {
          "internalType": "bytes32",
          "name": "personHash",
          "type": "bytes32"
        },
        {
          "internalType": "uint256",
          "name": "offset",
          "type": "uint256"
        },
        {
          "internalType": "uint256",
          "name": "limit",
          "type": "uint256"
        }
      ],
      "name": "listPersonVersions",
      "outputs": [
        {
          "components": [
            {
              "internalType": "bytes32",
              "name": "personHash",
              "type": "bytes32"
            },
            {
              "internalType": "bytes32",
              "name": "fatherHash",
              "type": "bytes32"
            },
            {
              "internalType": "bytes32",
              "name": "motherHash",
              "type": "bytes32"
            },
            {
              "internalType": "uint256",
              "name": "versionIndex",
              "type": "uint256"
            },
            {
              "internalType": "uint256",
              "name": "fatherVersionIndex",
              "type": "uint256"
            },
            {
              "internalType": "uint256",
              "name": "motherVersionIndex",
              "type": "uint256"
            },
            {
              "internalType": "address",
              "name": "addedBy",
              "type": "address"
            },
            {
              "internalType": "uint96",
              "name": "timestamp",
              "type": "uint96"
            },
            {
              "internalType": "string",
              "name": "tag",
              "type": "string"
            },
            {
              "internalType": "string",
              "name": "metadataCID",
              "type": "string"
            }
          ],
          "internalType": "struct DeepFamily.PersonVersion[]",
          "name": "versions",
          "type": "tuple[]"
        },
        {
          "internalType": "uint256",
          "name": "totalVersions",
          "type": "uint256"
        },
        {
          "internalType": "bool",
          "name": "hasMore",
          "type": "bool"
        },
        {
          "internalType": "uint256",
          "name": "nextOffset",
          "type": "uint256"
        }
      ],
      "stateMutability": "view",
      "type": "function"
    },
    {
      "inputs": [
        {
          "internalType": "uint256",
          "name": "tokenId",
          "type": "uint256"
        },
        {
          "internalType": "uint256",
          "name": "offset",
          "type": "uint256"
        },
        {
          "internalType": "uint256",
          "name": "limit",
          "type": "uint256"
        }
      ],
      "name": "listStoryChunks",
      "outputs": [
        {
          "components": [
            {
              "internalType": "uint256",
              "name": "chunkIndex",
              "type": "uint256"
            },
            {
              "internalType": "bytes32",
              "name": "chunkHash",
              "type": "bytes32"
            },
            {
              "internalType": "string",
              "name": "content",
              "type": "string"
            },
            {
              "internalType": "uint256",
              "name": "timestamp",
              "type": "uint256"
            },
            {
              "internalType": "address",
              "name": "lastEditor",
              "type": "address"
            }
          ],
          "internalType": "struct DeepFamily.StoryChunk[]",
          "name": "chunks",
          "type": "tuple[]"
        },
        {
          "internalType": "uint256",
          "name": "totalChunks",
          "type": "uint256"
        },
        {
          "internalType": "bool",
          "name": "hasMore",
          "type": "bool"
        },
        {
          "internalType": "uint256",
          "name": "nextOffset",
          "type": "uint256"
        }
      ],
      "stateMutability": "view",
      "type": "function"
    },
    {
      "inputs": [
        {
          "internalType": "uint256",
          "name": "tokenId",
          "type": "uint256"
        },
        {
          "internalType": "uint256",
          "name": "offset",
          "type": "uint256"
        },
        {
          "internalType": "uint256",
          "name": "limit",
          "type": "uint256"
        }
      ],
      "name": "listTokenURIHistory",
      "outputs": [
        {
          "internalType": "string[]",
          "name": "uris",
          "type": "string[]"
        },
        {
          "internalType": "uint256",
          "name": "totalCount",
          "type": "uint256"
        },
        {
          "internalType": "bool",
          "name": "hasMore",
          "type": "bool"
        },
        {
          "internalType": "uint256",
          "name": "nextOffset",
          "type": "uint256"
        }
      ],
      "stateMutability": "view",
      "type": "function"
    },
    {
      "inputs": [
        {
          "internalType": "bytes32",
          "name": "personHash",
          "type": "bytes32"
        },
        {
          "internalType": "uint256",
          "name": "offset",
          "type": "uint256"
        },
        {
          "internalType": "uint256",
          "name": "limit",
          "type": "uint256"
        }
      ],
      "name": "listVersionsEndorsementStats",
      "outputs": [
        {
          "internalType": "uint256[]",
          "name": "versionIndices",
          "type": "uint256[]"
        },
        {
          "internalType": "uint256[]",
          "name": "endorsementCounts",
          "type": "uint256[]"
        },
        {
          "internalType": "uint256[]",
          "name": "tokenIds",
          "type": "uint256[]"
        },
        {
          "internalType": "uint256",
          "name": "totalVersions",
          "type": "uint256"
        },
        {
          "internalType": "bool",
          "name": "hasMore",
          "type": "bool"
        },
        {
          "internalType": "uint256",
          "name": "nextOffset",
          "type": "uint256"
        }
      ],
      "stateMutability": "view",
      "type": "function"
    },
    {
      "inputs": [
        {
          "internalType": "uint256[2]",
          "name": "a",
          "type": "uint256[2]"
        },
        {
          "internalType": "uint256[2][2]",
          "name": "b",
          "type": "uint256[2][2]"
        },
        {
          "internalType": "uint256[2]",
          "name": "c",
          "type": "uint256[2]"
        },
        {
          "internalType": "uint256[4]",
          "name": "publicSignals",
          "type": "uint256[4]"
        },
        {
          "internalType": "bytes32",
          "name": "personHash",
          "type": "bytes32"
        },
        {
          "internalType": "uint256",
          "name": "versionIndex",
          "type": "uint256"
        },
        {
          "internalType": "string",
          "name": "_tokenURI",
          "type": "string"
        },
        {
          "components": [
            {
              "components": [
                {
                  "internalType": "bytes32",
                  "name": "fullNameCommitment",
                  "type": "bytes32"
                },
                {
                  "internalType": "bool",
                  "name": "isBirthBC",
                  "type": "bool"
                },
                {
                  "internalType": "uint16",
                  "name": "birthYear",
                  "type": "uint16"
                },
                {
                  "internalType": "uint8",
                  "name": "birthMonth",
                  "type": "uint8"
                },
                {
                  "internalType": "uint8",
                  "name": "birthDay",
                  "type": "uint8"
                },
                {
                  "internalType": "uint8",
                  "name": "gender",
                  "type": "uint8"
                }
              ],
              "internalType": "struct DeepFamily.PersonBasicInfo",
              "name": "basicInfo",
              "type": "tuple"
            },
            {
              "components": [
                {
                  "internalType": "string",
                  "name": "fullName",
                  "type": "string"
                },
                {
                  "internalType": "string",
                  "name": "birthPlace",
                  "type": "string"
                },
                {
                  "internalType": "bool",
                  "name": "isDeathBC",
                  "type": "bool"
                },
                {
                  "internalType": "uint16",
                  "name": "deathYear",
                  "type": "uint16"
                },
                {
                  "internalType": "uint8",
                  "name": "deathMonth",
                  "type": "uint8"
                },
                {
                  "internalType": "uint8",
                  "name": "deathDay",
                  "type": "uint8"
                },
                {
                  "internalType": "string",
                  "name": "deathPlace",
                  "type": "string"
                },
                {
                  "internalType": "string",
                  "name": "story",
                  "type": "string"
                }
              ],
              "internalType": "struct DeepFamily.PersonSupplementInfo",
              "name": "supplementInfo",
              "type": "tuple"
            }
          ],
          "internalType": "struct DeepFamily.PersonCoreInfo",
          "name": "coreInfo",
          "type": "tuple"
        }
      ],
      "name": "mintPersonNFT",
      "outputs": [],
      "stateMutability": "nonpayable",
      "type": "function"
    },
    {
      "inputs": [],
      "name": "name",
      "outputs": [
        {
          "internalType": "string",
          "name": "",
          "type": "string"
        }
      ],
      "stateMutability": "view",
      "type": "function"
    },
    {
      "inputs": [
        {
          "internalType": "uint256",
          "name": "",
          "type": "uint256"
        }
      ],
      "name": "nftCoreInfo",
      "outputs": [
        {
          "components": [
            {
              "internalType": "bytes32",
              "name": "fullNameCommitment",
              "type": "bytes32"
            },
            {
              "internalType": "bool",
              "name": "isBirthBC",
              "type": "bool"
            },
            {
              "internalType": "uint16",
              "name": "birthYear",
              "type": "uint16"
            },
            {
              "internalType": "uint8",
              "name": "birthMonth",
              "type": "uint8"
            },
            {
              "internalType": "uint8",
              "name": "birthDay",
              "type": "uint8"
            },
            {
              "internalType": "uint8",
              "name": "gender",
              "type": "uint8"
            }
          ],
          "internalType": "struct DeepFamily.PersonBasicInfo",
          "name": "basicInfo",
          "type": "tuple"
        },
        {
          "components": [
            {
              "internalType": "string",
              "name": "fullName",
              "type": "string"
            },
            {
              "internalType": "string",
              "name": "birthPlace",
              "type": "string"
            },
            {
              "internalType": "bool",
              "name": "isDeathBC",
              "type": "bool"
            },
            {
              "internalType": "uint16",
              "name": "deathYear",
              "type": "uint16"
            },
            {
              "internalType": "uint8",
              "name": "deathMonth",
              "type": "uint8"
            },
            {
              "internalType": "uint8",
              "name": "deathDay",
              "type": "uint8"
            },
            {
              "internalType": "string",
              "name": "deathPlace",
              "type": "string"
            },
            {
              "internalType": "string",
              "name": "story",
              "type": "string"
            }
          ],
          "internalType": "struct DeepFamily.PersonSupplementInfo",
          "name": "supplementInfo",
          "type": "tuple"
        }
      ],
      "stateMutability": "view",
      "type": "function"
    },
    {
      "inputs": [],
      "name": "owner",
      "outputs": [
        {
          "internalType": "address",
          "name": "",
          "type": "address"
        }
      ],
      "stateMutability": "view",
      "type": "function"
    },
    {
      "inputs": [
        {
          "internalType": "uint256",
          "name": "tokenId",
          "type": "uint256"
        }
      ],
      "name": "ownerOf",
      "outputs": [
        {
          "internalType": "address",
          "name": "",
          "type": "address"
        }
      ],
      "stateMutability": "view",
      "type": "function"
    },
    {
      "inputs": [
        {
          "internalType": "bytes32",
          "name": "",
          "type": "bytes32"
        },
        {
          "internalType": "uint256",
          "name": "",
          "type": "uint256"
        }
      ],
      "name": "personVersions",
      "outputs": [
        {
          "internalType": "bytes32",
          "name": "personHash",
          "type": "bytes32"
        },
        {
          "internalType": "bytes32",
          "name": "fatherHash",
          "type": "bytes32"
        },
        {
          "internalType": "bytes32",
          "name": "motherHash",
          "type": "bytes32"
        },
        {
          "internalType": "uint256",
          "name": "versionIndex",
          "type": "uint256"
        },
        {
          "internalType": "uint256",
          "name": "fatherVersionIndex",
          "type": "uint256"
        },
        {
          "internalType": "uint256",
          "name": "motherVersionIndex",
          "type": "uint256"
        },
        {
          "internalType": "address",
          "name": "addedBy",
          "type": "address"
        },
        {
          "internalType": "uint96",
          "name": "timestamp",
          "type": "uint96"
        },
        {
          "internalType": "string",
          "name": "tag",
          "type": "string"
        },
        {
          "internalType": "string",
          "name": "metadataCID",
          "type": "string"
        }
      ],
      "stateMutability": "view",
      "type": "function"
    },
    {
      "inputs": [],
      "name": "renounceOwnership",
      "outputs": [],
      "stateMutability": "nonpayable",
      "type": "function"
    },
    {
      "inputs": [
        {
          "internalType": "address",
          "name": "from",
          "type": "address"
        },
        {
          "internalType": "address",
          "name": "to",
          "type": "address"
        },
        {
          "internalType": "uint256",
          "name": "tokenId",
          "type": "uint256"
        }
      ],
      "name": "safeTransferFrom",
      "outputs": [],
      "stateMutability": "nonpayable",
      "type": "function"
    },
    {
      "inputs": [
        {
          "internalType": "address",
          "name": "from",
          "type": "address"
        },
        {
          "internalType": "address",
          "name": "to",
          "type": "address"
        },
        {
          "internalType": "uint256",
          "name": "tokenId",
          "type": "uint256"
        },
        {
          "internalType": "bytes",
          "name": "data",
          "type": "bytes"
        }
      ],
      "name": "safeTransferFrom",
      "outputs": [],
      "stateMutability": "nonpayable",
      "type": "function"
    },
    {
      "inputs": [
        {
          "internalType": "uint256",
          "name": "tokenId",
          "type": "uint256"
        }
      ],
      "name": "sealStory",
      "outputs": [],
      "stateMutability": "nonpayable",
      "type": "function"
    },
    {
      "inputs": [
        {
          "internalType": "address",
          "name": "operator",
          "type": "address"
        },
        {
          "internalType": "bool",
          "name": "approved",
          "type": "bool"
        }
      ],
      "name": "setApprovalForAll",
      "outputs": [],
      "stateMutability": "nonpayable",
      "type": "function"
    },
    {
      "inputs": [
        {
          "internalType": "uint256",
          "name": "",
          "type": "uint256"
        },
        {
          "internalType": "uint256",
          "name": "",
          "type": "uint256"
        }
      ],
      "name": "storyChunks",
      "outputs": [
        {
          "internalType": "uint256",
          "name": "chunkIndex",
          "type": "uint256"
        },
        {
          "internalType": "bytes32",
          "name": "chunkHash",
          "type": "bytes32"
        },
        {
          "internalType": "string",
          "name": "content",
          "type": "string"
        },
        {
          "internalType": "uint256",
          "name": "timestamp",
          "type": "uint256"
        },
        {
          "internalType": "address",
          "name": "lastEditor",
          "type": "address"
        }
      ],
      "stateMutability": "view",
      "type": "function"
    },
    {
      "inputs": [
        {
          "internalType": "uint256",
          "name": "",
          "type": "uint256"
        }
      ],
      "name": "storyMetadata",
      "outputs": [
        {
          "internalType": "uint256",
          "name": "totalChunks",
          "type": "uint256"
        },
        {
          "internalType": "bytes32",
          "name": "fullStoryHash",
          "type": "bytes32"
        },
        {
          "internalType": "uint256",
          "name": "lastUpdateTime",
          "type": "uint256"
        },
        {
          "internalType": "bool",
          "name": "isSealed",
          "type": "bool"
        },
        {
          "internalType": "uint256",
          "name": "totalLength",
          "type": "uint256"
        }
      ],
      "stateMutability": "view",
      "type": "function"
    },
    {
      "inputs": [
        {
          "internalType": "bytes4",
          "name": "interfaceId",
          "type": "bytes4"
        }
      ],
      "name": "supportsInterface",
      "outputs": [
        {
          "internalType": "bool",
          "name": "",
          "type": "bool"
        }
      ],
      "stateMutability": "view",
      "type": "function"
    },
    {
      "inputs": [],
      "name": "symbol",
      "outputs": [
        {
          "internalType": "string",
          "name": "",
          "type": "string"
        }
      ],
      "stateMutability": "view",
      "type": "function"
    },
    {
      "inputs": [
        {
          "internalType": "uint256",
          "name": "index",
          "type": "uint256"
        }
      ],
      "name": "tokenByIndex",
      "outputs": [
        {
          "internalType": "uint256",
          "name": "",
          "type": "uint256"
        }
      ],
      "stateMutability": "view",
      "type": "function"
    },
    {
      "inputs": [],
      "name": "tokenCounter",
      "outputs": [
        {
          "internalType": "uint256",
          "name": "",
          "type": "uint256"
        }
      ],
      "stateMutability": "view",
      "type": "function"
    },
    {
      "inputs": [
        {
          "internalType": "uint256",
          "name": "",
          "type": "uint256"
        }
      ],
      "name": "tokenIdToPerson",
      "outputs": [
        {
          "internalType": "bytes32",
          "name": "",
          "type": "bytes32"
        }
      ],
      "stateMutability": "view",
      "type": "function"
    },
    {
      "inputs": [
        {
          "internalType": "uint256",
          "name": "",
          "type": "uint256"
        }
      ],
      "name": "tokenIdToVersionIndex",
      "outputs": [
        {
          "internalType": "uint256",
          "name": "",
          "type": "uint256"
        }
      ],
      "stateMutability": "view",
      "type": "function"
    },
    {
      "inputs": [
        {
          "internalType": "address",
          "name": "owner",
          "type": "address"
        },
        {
          "internalType": "uint256",
          "name": "index",
          "type": "uint256"
        }
      ],
      "name": "tokenOfOwnerByIndex",
      "outputs": [
        {
          "internalType": "uint256",
          "name": "",
          "type": "uint256"
        }
      ],
      "stateMutability": "view",
      "type": "function"
    },
    {
      "inputs": [
        {
          "internalType": "uint256",
          "name": "tokenId",
          "type": "uint256"
        }
      ],
      "name": "tokenURI",
      "outputs": [
        {
          "internalType": "string",
          "name": "",
          "type": "string"
        }
      ],
      "stateMutability": "view",
      "type": "function"
    },
    {
      "inputs": [
        {
          "internalType": "uint256",
          "name": "",
          "type": "uint256"
        },
        {
          "internalType": "uint256",
          "name": "",
          "type": "uint256"
        }
      ],
      "name": "tokenURIHistory",
      "outputs": [
        {
          "internalType": "string",
          "name": "",
          "type": "string"
        }
      ],
      "stateMutability": "view",
      "type": "function"
    },
    {
      "inputs": [],
      "name": "totalPersonsCount",
      "outputs": [
        {
          "internalType": "uint256",
          "name": "",
          "type": "uint256"
        }
      ],
      "stateMutability": "view",
      "type": "function"
    },
    {
      "inputs": [],
      "name": "totalSupply",
      "outputs": [
        {
          "internalType": "uint256",
          "name": "",
          "type": "uint256"
        }
      ],
      "stateMutability": "view",
      "type": "function"
    },
    {
      "inputs": [
        {
          "internalType": "address",
          "name": "from",
          "type": "address"
        },
        {
          "internalType": "address",
          "name": "to",
          "type": "address"
        },
        {
          "internalType": "uint256",
          "name": "tokenId",
          "type": "uint256"
        }
      ],
      "name": "transferFrom",
      "outputs": [],
      "stateMutability": "nonpayable",
      "type": "function"
    },
    {
      "inputs": [
        {
          "internalType": "address",
          "name": "newOwner",
          "type": "address"
        }
      ],
      "name": "transferOwnership",
      "outputs": [],
      "stateMutability": "nonpayable",
      "type": "function"
    },
    {
      "inputs": [
        {
          "internalType": "uint256",
          "name": "tokenId",
          "type": "uint256"
        },
        {
          "internalType": "uint256",
          "name": "chunkIndex",
          "type": "uint256"
        },
        {
          "internalType": "string",
          "name": "newContent",
          "type": "string"
        },
        {
          "internalType": "bytes32",
          "name": "expectedHash",
          "type": "bytes32"
        }
      ],
      "name": "updateStoryChunk",
      "outputs": [],
      "stateMutability": "nonpayable",
      "type": "function"
    },
    {
      "inputs": [
        {
          "internalType": "uint256",
          "name": "tokenId",
          "type": "uint256"
        },
        {
          "internalType": "string",
          "name": "newURI",
          "type": "string"
        }
      ],
      "name": "updateTokenURI",
      "outputs": [],
      "stateMutability": "nonpayable",
      "type": "function"
    },
    {
      "inputs": [
        {
          "internalType": "bytes32",
          "name": "",
          "type": "bytes32"
        },
        {
          "internalType": "uint256",
          "name": "",
          "type": "uint256"
        }
      ],
      "name": "versionEndorsementCount",
      "outputs": [
        {
          "internalType": "uint256",
          "name": "",
          "type": "uint256"
        }
      ],
      "stateMutability": "view",
      "type": "function"
    },
    {
      "inputs": [
        {
          "internalType": "bytes32",
          "name": "",
          "type": "bytes32"
        },
        {
          "internalType": "bytes32",
          "name": "",
          "type": "bytes32"
        }
      ],
      "name": "versionExists",
      "outputs": [
        {
          "internalType": "bool",
          "name": "",
          "type": "bool"
        }
      ],
      "stateMutability": "view",
      "type": "function"
    },
    {
      "inputs": [
        {
          "internalType": "bytes32",
          "name": "",
          "type": "bytes32"
        },
        {
          "internalType": "uint256",
          "name": "",
          "type": "uint256"
        }
      ],
      "name": "versionToTokenId",
      "outputs": [
        {
          "internalType": "uint256",
          "name": "",
          "type": "uint256"
        }
      ],
      "stateMutability": "view",
      "type": "function"
    },
    {
      "stateMutability": "payable",
      "type": "receive"
    }
  ],
  "bytecode": "0x60e06040523480156200001157600080fd5b50604051620069f6380380620069f68339810160408190526200003491620001df565b336040518060400160405280600a8152602001694465657046616d696c7960b01b8152506040518060400160405280600681526020016546616d696c7960d01b8152508160009081620000889190620002ce565b506001620000978282620002ce565b5050506001600160a01b038116620000c957604051631e4fbdf760e01b81526000600482015260240160405180910390fd5b620000d48162000170565b506001600b556001600160a01b0383166200010257604051634c32eccd60e11b815260040160405180910390fd5b6001600160a01b0382166200012a57604051635fce01bb60e01b815260040160405180910390fd5b6001600160a01b038116620001525760405163abd45c1f60e01b815260040160405180910390fd5b6001600160a01b0392831660805290821660a0521660c0526200039a565b600a80546001600160a01b038381166001600160a01b0319831681179093556040519116919082907f8be0079c531659141344cd1fd0a4f28419497f9722a3daafe3b4186f6b6457e090600090a35050565b80516001600160a01b0381168114620001da57600080fd5b919050565b600080600060608486031215620001f557600080fd5b6200020084620001c2565b92506200021060208501620001c2565b91506200022060408501620001c2565b90509250925092565b634e487b7160e01b600052604160045260246000fd5b600181811c908216806200025457607f821691505b6020821081036200027557634e487b7160e01b600052602260045260246000fd5b50919050565b601f821115620002c957600081815260208120601f850160051c81016020861015620002a45750805b601f850160051c820191505b81811015620002c557828155600101620002b0565b5050505b505050565b81516001600160401b03811115620002ea57620002ea62000229565b6200030281620002fb84546200023f565b846200027b565b602080601f8311600181146200033a5760008415620003215750858301515b600019600386901b1c1916600185901b178555620002c5565b600085815260208120601f198616915b828110156200036b578886015182559484019460019091019084016200034a565b50858210156200038a5787850151600019600388901b60f8161c191681555b5050505050600190811b01905550565b60805160a05160c051616609620003ed6000396000818161054301526120a7015260008181610a7c01526130a2015260008181610b6101528181613263015281816133b4015261491701526166096000f3fe6080604052600436106103845760003560e01c806376f0f85d116101d1578063bd7eef2311610102578063d596b1b0116100a0578063f2fde38b1161006f578063f2fde38b14610c39578063f74faf6614610c59578063fe980dd614610c91578063fe9c3c0514610cc3576103a2565b8063d596b1b014610b83578063dbcdc08f14610bbb578063e985e9c514610bec578063f1fad06714610c0c576103a2565b8063c87b56dd116100dc578063c87b56dd14610af9578063c893eb5614610b19578063d082e38114610b39578063d1486a1b14610b4f576103a2565b8063bd7eef2314610a9e578063c090fba214610ab4578063c841eb1f14610ae3576103a2565b8063a22cb4651161016f578063b570b2ab11610149578063b570b2ab14610a0a578063b5c7198d14610a2a578063b88d4fde14610a4a578063bcecdf1d14610a6a576103a2565b8063a22cb465146109aa578063a92c6ad6146109ca578063b0ac331f146109ea576103a2565b806383af7191116101ab57806383af7191146108d05780638da5cb5b146109475780638f2360b31461096557806395d89b4114610995576103a2565b806376f0f85d14610868578063797e57e51461087e57806382260f351461089e576103a2565b80632f745c59116102b657806357611dfb116102545780636be9cd02116102235780636be9cd02146107af57806370a08231146107cf578063715018a6146107ef5780637189567c14610804576103a2565b806357611dfb146106fb5780636352211e1461072c57806367b9b3e11461074c578063690a76bf14610782576103a2565b8063431a342a11610290578063431a342a1461065357806346cdf8691461068e5780634f6ccce7146106ae578063538ffa0b146106ce576103a2565b80632f745c59146105e35780633791b66a1461060357806342842e0e14610633576103a2565b8063164e38ee116103235780631d5d7be9116102fd5780631d5d7be91461053157806323b872dd14610565578063278d5fce1461058557806328273a2a146105b3576103a2565b8063164e38ee146104c757806318160ddd146104fc57806318e97fd114610511576103a2565b806307b8fe9c1161035f57806307b8fe9c146103bb578063081812fc14610435578063095ea7b31461046d5780631516fa251461048f576103a2565b8062eee6a1146103bb57806301ffc9a7146103e357806306fdde0314610413576103a2565b366103a25760405163af9f22fb60e01b815260040160405180910390fd5b60405163af9f22fb60e01b815260040160405180910390fd5b3480156103c757600080fd5b506103d0606481565b6040519081526020015b60405180910390f35b3480156103ef57600080fd5b506104036103fe36600461514f565b610ce3565b60405190151581526020016103da565b34801561041f57600080fd5b50610428610d0e565b6040516103da91906151bc565b34801561044157600080fd5b506104556104503660046151cf565b610da0565b6040516001600160a01b0390911681526020016103da565b34801561047957600080fd5b5061048d610488366004615204565b610dc9565b005b34801561049b57600080fd5b506103d06104aa36600461522e565b601a60209081526000928352604080842090915290825290205481565b3480156104d357600080fd5b506104e76104e2366004615250565b610dd8565b604080519283526020830191909152016103da565b34801561050857600080fd5b506008546103d0565b34801561051d57600080fd5b5061048d61052c3660046152c4565b610e22565b34801561053d57600080fd5b506104557f000000000000000000000000000000000000000000000000000000000000000081565b34801561057157600080fd5b5061048d61058036600461530f565b610fcf565b34801561059157600080fd5b506105a56105a03660046151cf565b61105f565b6040516103da929190615455565b3480156105bf57600080fd5b506105d36105ce366004615250565b611368565b6040516103da94939291906154c6565b3480156105ef57600080fd5b506103d06105fe366004615204565b6115c9565b34801561060f57600080fd5b5061062361061e366004615250565b61162e565b6040516103da9493929190615539565b34801561063f57600080fd5b5061048d61064e36600461530f565b611804565b34801561065f57600080fd5b5061040361066e36600461522e565b600e60209081526000928352604080842090915290825290205460ff1681565b34801561069a57600080fd5b5061048d6106a9366004615590565b611824565b3480156106ba57600080fd5b506103d06106c93660046151cf565b611a36565b3480156106da57600080fd5b506103d06106e93660046151cf565b60126020526000908152604090205481565b34801561070757600080fd5b5061071b6107163660046155ea565b611a8f565b6040516103da959493929190615657565b34801561073857600080fd5b506104556107473660046151cf565b611c95565b34801561075857600080fd5b5061076c61076736600461522e565b611ca0565b6040516103da9a999897969594939291906156c3565b34801561078e57600080fd5b506103d061079d3660046151cf565b60116020526000908152604090205481565b3480156107bb57600080fd5b5061048d6107ca366004615761565b611e3a565b3480156107db57600080fd5b506103d06107ea36600461582f565b61235d565b3480156107fb57600080fd5b5061048d6123a5565b34801561081057600080fd5b5061082461081f3660046151cf565b6123b9565b6040516103da9190600060a0820190508251825260208301516020830152604083015160408301526060830151151560608301526080830151608083015292915050565b34801561087457600080fd5b506103d061010081565b34801561088a57600080fd5b5061048d6108993660046151cf565b61246c565b3480156108aa57600080fd5b506108be6108b93660046151cf565b61255a565b6040516103da969594939291906158f9565b3480156108dc57600080fd5b5061091d6108eb3660046151cf565b6017602052600090815260409020805460018201546002830154600384015460049094015492939192909160ff169085565b6040805195865260208601949094529284019190915215156060830152608082015260a0016103da565b34801561095357600080fd5b50600a546001600160a01b0316610455565b34801561097157600080fd5b50610985610980366004615250565b612b05565b6040516103da949392919061596c565b3480156109a157600080fd5b50610428612de2565b3480156109b657600080fd5b5061048d6109c53660046159d1565b612df1565b3480156109d657600080fd5b506103d06109e536600461522e565b612dfc565b3480156109f657600080fd5b5061048d610a05366004615590565b612e2d565b348015610a1657600080fd5b5061048d610a25366004615a08565b613066565b348015610a3657600080fd5b5061048d610a4536600461522e565b6131d1565b348015610a5657600080fd5b5061048d610a65366004615b23565b61353d565b348015610a7657600080fd5b506104557f000000000000000000000000000000000000000000000000000000000000000081565b348015610aaa57600080fd5b506103d0600d5481565b348015610ac057600080fd5b50610ad4610acf36600461522e565b613555565b6040516103da93929190615be2565b348015610aef57600080fd5b506103d06103e881565b348015610b0557600080fd5b50610428610b143660046151cf565b6137d2565b348015610b2557600080fd5b506103d0610b34366004615c26565b61387c565b348015610b4557600080fd5b506103d060105481565b348015610b5b57600080fd5b506104557f000000000000000000000000000000000000000000000000000000000000000081565b348015610b8f57600080fd5b506103d0610b9e36600461522e565b601660209081526000928352604080842090915290825290205481565b348015610bc757600080fd5b50610bdb610bd636600461522e565b613a06565b6040516103da959493929190615cc7565b348015610bf857600080fd5b50610403610c07366004615d08565b613ad2565b348015610c1857600080fd5b50610c2c610c2736600461522e565b613b00565b6040516103da9190615d3b565b348015610c4557600080fd5b5061048d610c5436600461582f565b613c66565b348015610c6557600080fd5b506103d0610c74366004615d4e565b600f60209081526000928352604080842090915290825290205481565b348015610c9d57600080fd5b50610cb1610cac366004615250565b613ca4565b6040516103da96959493929190615d71565b348015610ccf57600080fd5b50610428610cde36600461522e565b613ed4565b60006001600160e01b0319821663780e9d6360e01b1480610d085750610d0882613f8d565b92915050565b606060008054610d1d90615dc9565b80601f0160208091040260200160405190810160405280929190818152602001828054610d4990615dc9565b8015610d965780601f10610d6b57610100808354040283529160200191610d96565b820191906000526020600020905b815481529060010190602001808311610d7957829003601f168201915b5050505050905090565b6000610dab82613fdd565b506000828152600460205260409020546001600160a01b0316610d08565b610dd4828233614015565b5050565b601b6020528260005260406000206020528160005260406000208181548110610e0057600080fd5b6000918252602090912060029091020180546001909101549093509150839050565b33610e2c84614022565b6001600160a01b031614610e535760405163daffd8a560e01b815260040160405180910390fd5b610100811115610e76576040516313f04adb60e01b815260040160405180910390fd5b60008381526014602052604081208054610e8f90615dc9565b80601f0160208091040260200160405190810160405280929190818152602001828054610ebb90615dc9565b8015610f085780601f10610edd57610100808354040283529160200191610f08565b820191906000526020600020905b815481529060010190602001808311610eeb57829003601f168201915b50505050509050600081511115610f4357600084815260156020908152604082208054600181018255908352912001610f418282615e5e565b505b610f838484848080601f01602080910402602001604051908101604052809392919081815260200183838082843760009201919091525061403d92505050565b336001600160a01b0316847f121742bae49dddcfbb9763fd1170f0dbc15b13707126182671611bbeeeae7cd8838686604051610fc193929190615f40565b60405180910390a350505050565b6001600160a01b038216610ffe57604051633250574960e11b8152600060048201526024015b60405180910390fd5b600061100b838333614055565b9050836001600160a01b0316816001600160a01b031614611059576040516364283d7b60e01b81526001600160a01b0380861660048301526024820184905282166044820152606401610ff5565b50505050565b601360209081526000918252604091829020825160c08101845281548152600182015460ff80821615159483019490945261010080820461ffff168387015263010000008204851660608401526401000000008204851660808401526501000000000090910490931660a08201528351928301909352600281018054919291829082906110eb90615dc9565b80601f016020809104026020016040519081016040528092919081815260200182805461111790615dc9565b80156111645780601f1061113957610100808354040283529160200191611164565b820191906000526020600020905b81548152906001019060200180831161114757829003601f168201915b5050505050815260200160018201805461117d90615dc9565b80601f01602080910402602001604051908101604052809291908181526020018280546111a990615dc9565b80156111f65780601f106111cb576101008083540402835291602001916111f6565b820191906000526020600020905b8154815290600101906020018083116111d957829003601f168201915b5050509183525050600282015460ff8082161515602084015261ffff6101008304166040840152630100000082048116606084015264010000000090910416608082015260038201805460a09092019161124f90615dc9565b80601f016020809104026020016040519081016040528092919081815260200182805461127b90615dc9565b80156112c85780601f1061129d576101008083540402835291602001916112c8565b820191906000526020600020905b8154815290600101906020018083116112ab57829003601f168201915b505050505081526020016004820180546112e190615dc9565b80601f016020809104026020016040519081016040528092919081815260200182805461130d90615dc9565b801561135a5780601f1061132f5761010080835404028352916020019161135a565b820191906000526020600020905b81548152906001019060200180831161133d57829003601f168201915b505050505081525050905082565b606060008080868161137982614022565b6001600160a01b0316036113a0576040516307ed98ed60e31b815260040160405180910390fd5b600088815260176020526040812080549550906113be868a8a61412c565b905080604001516000036114185760408051600080825260208201909252906113fd565b6113ea614ff2565b8152602001906001900390816113e25790505b508682608001518360600151965096509650965050506115bf565b80604001516001600160401b0381111561143457611434615add565b60405190808252806020026020018201604052801561146d57816020015b61145a614ff2565b8152602001906001900390816114525790505b50965060005b81604001518110156115ac5760008b8152601860205260408120835190919061149d908490615f7c565b81526020019081526020016000206040518060a001604052908160008201548152602001600182015481526020016002820180546114da90615dc9565b80601f016020809104026020016040519081016040528092919081815260200182805461150690615dc9565b80156115535780601f1061152857610100808354040283529160200191611553565b820191906000526020600020905b81548152906001019060200180831161153657829003601f168201915b5050509183525050600382015460208201526004909101546001600160a01b0316604090910152885189908390811061158e5761158e615f8f565b602002602001018190525080806115a490615fa5565b915050611473565b5060808101516060909101519094509250505b5093509350935093565b60006115d48361235d565b82106116055760405163295f44f760e21b81526001600160a01b038416600482015260248101839052604401610ff5565b506001600160a01b03919091166000908152600660209081526040808320938352929052205490565b60008381526015602052604081208054606092909181908161165185898961412c565b905080604001516000036116a557604080516000808252602082019092529061168a565b60608152602001906001900390816116755790505b508582608001518360600151955095509550955050506117fb565b80604001516001600160401b038111156116c1576116c1615add565b6040519080825280602002602001820160405280156116f457816020015b60608152602001906001900390816116df5790505b50955060005b81604001518110156117e85781518390611715908390615f7c565b8154811061172557611725615f8f565b90600052602060002001805461173a90615dc9565b80601f016020809104026020016040519081016040528092919081815260200182805461176690615dc9565b80156117b35780601f10611788576101008083540402835291602001916117b3565b820191906000526020600020905b81548152906001019060200180831161179657829003601f168201915b50505050508782815181106117ca576117ca615f8f565b602002602001018190525080806117e090615fa5565b9150506116fa565b5060808101516060909101519093509150505b93509350935093565b61181f8383836040518060200160405280600081525061353d565b505050565b61182c61422c565b3361183686614022565b6001600160a01b03161461185d5760405163daffd8a560e01b815260040160405180910390fd5b6000858152601760205260409020600381015460ff161561189157604051631fcb6b9160e01b815260040160405180910390fd5b805485106118b257604051637df0b86160e01b815260040160405180910390fd5b8215806118c057506103e883115b156118de57604051630ef9fbf360e21b815260040160405180910390fd5b600086815260186020908152604080832088845282528083208151601f880184900484028101840190925286825292916119339190889088908190840183828082843760009201919091525061425692505050565b905083158015906119445750838114155b156119625760405163016c02f160e61b815260040160405180910390fd5b60018201546002830180546000919061197a90615dc9565b6001860185905591505060028401611993888a83615fbe565b504260038501819055600480860180546001600160a01b03191633179055600287019190915585015487906119c9908390616077565b6119d39190615f7c565b60048601556119e18a614286565b604080518381526020810185905233918b918d917f065c2222316af985857085b11b199dc175990521803ca44d2ab1a4ef4c0ea6ef910160405180910390a45050505050611a2f6001600b55565b5050505050565b6000611a4160085490565b8210611a6a5760405163295f44f760e21b81526000600482015260248101839052604401610ff5565b60088281548110611a7d57611a7d615f8f565b90600052602060002001549050919050565b6060806000808088611ab45760405163e5d242ed60e01b815260040160405180910390fd5b6000898152600c6020526040902054881115611ae357604051630dd4272d60e41b815260040160405180910390fd5b6000898152601b602090815260408083208b845290915281208054945090611b0c858a8a61412c565b90508060400151600003611b4d576040805160008082526020820190815281830190925260808301516060909301519098509096509093509150611c8a9050565b80604001516001600160401b03811115611b6957611b69615add565b604051908082528060200260200182016040528015611b92578160200160208202803683370190505b50965080604001516001600160401b03811115611bb157611bb1615add565b604051908082528060200260200182016040528015611bda578160200160208202803683370190505b50955060005b8160400151811015611c7757600083828460000151611bff9190615f7c565b81548110611c0f57611c0f615f8f565b906000526020600020906002020190508060000154898381518110611c3657611c36615f8f565b6020026020010181815250508060010154888381518110611c5957611c59615f8f565b60209081029190910101525080611c6f81615fa5565b915050611be0565b5060808101516060909101519093509150505b945094509450945094565b6000610d0882613fdd565b600c6020528160005260406000208181548110611cbc57600080fd5b600091825260209091206009909102018054600182015460028301546003840154600485015460058601546006870154600788018054979a5095985093969295919490936001600160a01b03811693600160a01b9091046001600160601b031692909190611d2990615dc9565b80601f0160208091040260200160405190810160405280929190818152602001828054611d5590615dc9565b8015611da25780601f10611d7757610100808354040283529160200191611da2565b820191906000526020600020905b815481529060010190602001808311611d8557829003601f168201915b505050505090806008018054611db790615dc9565b80601f0160208091040260200160405190810160405280929190818152602001828054611de390615dc9565b8015611e305780601f10611e0557610100808354040283529160200191611e30565b820191906000526020600020905b815481529060010190602001808311611e1357829003601f168201915b505050505090508a565b611e4261422c565b848481611e625760405163e5d242ed60e01b815260040160405180910390fd5b801580611e7c57506000828152600c602052604090205481115b15611e9a57604051630dd4272d60e41b815260040160405180910390fd5b6000611ea7600188616077565b600089815260166020908152604080832084845290915290205490915015611ee257604051634028e5e560e11b815260040160405180910390fd5b6000888152600f602090815260408083203384529091529020548714611f1b5760405163786bb09f60e11b815260040160405180910390fd5b610100851115611f3e576040516313f04adb60e01b815260040160405180910390fd5b611f4b60c085018561608a565b611f5590806160aa565b9050600003611f7757604051635f895cef60e11b815260040160405180910390fd5b610100611f8760c086018661608a565b611f9190806160aa565b90501115611fb257604051635f895cef60e11b815260040160405180910390fd5b610100611fc260c086018661608a565b611fd09060e08101906160aa565b90501115611ff15760405163f283c51960e01b815260040160405180910390fd5b61010061200160c086018661608a565b61200f9060208101906160aa565b90501115612030576040516367181a3960e11b815260040160405180910390fd5b61010061204060c086018661608a565b61204e9060c08101906160aa565b9050111561206f57604051633769847160e01b815260040160405180910390fd5b6000612083610b3436879003870187615c26565b90508881146120a557604051632f38f48f60e21b815260040160405180910390fd5b7f00000000000000000000000000000000000000000000000000000000000000006001600160a01b0316635fe8c13b8e8e8e8e6040518563ffffffff1660e01b81526004016120f79493929190616114565b602060405180830381865afa158015612114573d6000803e3d6000fd5b505050506040513d601f19601f820116820180604052508101906121389190616145565b612155576040516303b2487b60e11b815260040160405180910390fd5b600061216a8b358c60015b602002013561434e565b90508535811461218d57604051632f38f48f60e21b815260040160405180910390fd5b600061219f60408d01358d6003612160565b905060006121f76121b360c08a018a61608a565b6121bd90806160aa565b8080601f01602080910402602001604051908101604052809392919081815260200183838082843760009201919091525061425692505050565b905081811461221957604051632f38f48f60e21b815260040160405180910390fd5b600060106000815461222a90615fa5565b9182905550905061223b338261438e565b61227b818c8c8080601f01602080910402602001604051908101604052809392919081815260200183838082843760009201919091525061403d92505050565b8c60116000838152602001908152602001600020819055508b601260008381526020019081526020016000208190555080601660008f8152602001908152602001600020600088815260200190815260200160002081905550886013600083815260200190815260200160002081816122f49190616342565b905050336001600160a01b0316818e7fbce71c21e84db5e7dca78ea57ad63b6c66f74f74efc25e33592370ecf39e093b8f8f8f42604051612338949392919061642b565b60405180910390a450505050505050506123526001600b55565b505050505050505050565b60006001600160a01b038216612389576040516322718ad960e21b815260006004820152602401610ff5565b506001600160a01b031660009081526003602052604090205490565b6123ad6143a8565b6123b760006143d5565b565b6040805160a0810182526000808252602082018190529181018290526060810182905260808101919091528160006123f082614022565b6001600160a01b031603612417576040516307ed98ed60e31b815260040160405180910390fd5b5050600090815260176020908152604091829020825160a08101845281548152600182015492810192909252600281015492820192909252600382015460ff1615156060820152600490910154608082015290565b3361247682614022565b6001600160a01b03161461249d5760405163daffd8a560e01b815260040160405180910390fd5b6000818152601760205260409020600381015460ff16156124d157604051631fcb6b9160e01b815260040160405180910390fd5b80546000036124f357604051637dc66bf560e11b815260040160405180910390fd5b60038101805460ff19166001908117909155426002830155815490820154604051339285927f896066547269dcd0db6295ca6c7f14f927d692103e47c7615259469b74bc7b5d9261254e929190918252602082015260400190565b60405180910390a35050565b60008061256561502d565b61256d615083565b600060608161257b88614022565b6001600160a01b0316036125a2576040516307ed98ed60e31b815260040160405180910390fd5b6000878152601160205260409020549550856125d1576040516307ed98ed60e31b815260040160405180910390fd5b60008781526012602052604081205495506125ed600187616077565b6000888152600c602052604090208054919250908290811061261157612611615f8f565b600091825260209182902060408051610140810182526009909302909101805483526001810154938301939093526002830154908201526003820154606082015260048201546080820152600582015460a082015260068201546001600160a01b03811660c08301526001600160601b03600160a01b9091041660e0820152600782018054919291610100840191906126a990615dc9565b80601f01602080910402602001604051908101604052809291908181526020018280546126d590615dc9565b80156127225780601f106126f757610100808354040283529160200191612722565b820191906000526020600020905b81548152906001019060200180831161270557829003601f168201915b5050505050815260200160088201805461273b90615dc9565b80601f016020809104026020016040519081016040528092919081815260200182805461276790615dc9565b80156127b45780601f10612789576101008083540402835291602001916127b4565b820191906000526020600020905b81548152906001019060200180831161279757829003601f168201915b50505091909252505050600089815260136020908152604091829020825161010080820185528254828601908152600184015460ff8082161515606086015261ffff84830416608086015263010000008204811660a08601526401000000008204811660c0860152650100000000009091041660e084015282528451908101909452600282018054959a509094919392850192918290829061285590615dc9565b80601f016020809104026020016040519081016040528092919081815260200182805461288190615dc9565b80156128ce5780601f106128a3576101008083540402835291602001916128ce565b820191906000526020600020905b8154815290600101906020018083116128b157829003601f168201915b505050505081526020016001820180546128e790615dc9565b80601f016020809104026020016040519081016040528092919081815260200182805461291390615dc9565b80156129605780601f1061293557610100808354040283529160200191612960565b820191906000526020600020905b81548152906001019060200180831161294357829003601f168201915b5050509183525050600282015460ff8082161515602084015261ffff6101008304166040840152630100000082048116606084015264010000000090910416608082015260038201805460a0909201916129b990615dc9565b80601f01602080910402602001604051908101604052809291908181526020018280546129e590615dc9565b8015612a325780601f10612a0757610100808354040283529160200191612a32565b820191906000526020600020905b815481529060010190602001808311612a1557829003601f168201915b50505050508152602001600482018054612a4b90615dc9565b80601f0160208091040260200160405190810160405280929190818152602001828054612a7790615dc9565b8015612ac45780601f10612a9957610100808354040283529160200191612ac4565b820191906000526020600020905b815481529060010190602001808311612aa757829003601f168201915b505050919092525050509052506000888152601a602090815260408083208584529091529020549094509250612af9886137d2565b91505091939550919395565b6000838152600c6020526040812080546060929091819081612b2885898961412c565b90508060400151600003612b8057604080516000808252602082019092529061168a565b612b5461502d565b815260200190600190039081612b4c575050608082015160609092015190965090935091506117fb9050565b80604001516001600160401b03811115612b9c57612b9c615add565b604051908082528060200260200182016040528015612bd557816020015b612bc261502d565b815260200190600190039081612bba5790505b50955060005b81604001518110156117e85781518390612bf6908390615f7c565b81548110612c0657612c06615f8f565b600091825260209182902060408051610140810182526009909302909101805483526001810154938301939093526002830154908201526003820154606082015260048201546080820152600582015460a082015260068201546001600160a01b03811660c08301526001600160601b03600160a01b9091041660e082015260078201805491929161010084019190612c9e90615dc9565b80601f0160208091040260200160405190810160405280929190818152602001828054612cca90615dc9565b8015612d175780601f10612cec57610100808354040283529160200191612d17565b820191906000526020600020905b815481529060010190602001808311612cfa57829003601f168201915b50505050508152602001600882018054612d3090615dc9565b80601f0160208091040260200160405190810160405280929190818152602001828054612d5c90615dc9565b8015612da95780601f10612d7e57610100808354040283529160200191612da9565b820191906000526020600020905b815481529060010190602001808311612d8c57829003601f168201915b505050505081525050878281518110612dc457612dc4615f8f565b60200260200101819052508080612dda90615fa5565b915050612bdb565b606060018054610d1d90615dc9565b610dd4338383614427565b60196020528160005260406000208181548110612e1857600080fd5b90600052602060002001600091509150505481565b612e3561422c565b33612e3f86614022565b6001600160a01b031614612e665760405163daffd8a560e01b815260040160405180910390fd5b811580612e7457506103e882115b15612e9257604051630ef9fbf360e21b815260040160405180910390fd5b6000858152601760205260409020600381015460ff1615612ec657604051631fcb6b9160e01b815260040160405180910390fd5b8054606411612ee857604051637df0b86160e01b815260040160405180910390fd5b80548514612f0957604051637df0b86160e01b815260040160405180910390fd5b6000612f4a85858080601f01602080910402602001604051908101604052809392919081815260200183838082843760009201919091525061425692505050565b90508215801590612f5b5750828114155b15612f795760405163016c02f160e61b815260040160405180910390fd5b600087815260186020908152604080832089845290915290208681556001810182905560028101612fab868883615fbe565b504260038201556004810180546001600160a01b031916331790558254612fd3906001615f7c565b83554260028401556004830154612feb908690615f7c565b600484015560008881526019602090815260408220805460018101825590835291200187905561301a88614286565b6040805183815260208101879052339189918b917f9a8c5a1082b04a31158c2062cc003f0764f93a8614a3643f01df8346f0c39f8d910160405180910390a4505050611a2f6001600b55565b60c087013533811461308b576040516303b2487b60e11b815260040160405180910390fd5b60405163c894e75760e01b81526001600160a01b037f0000000000000000000000000000000000000000000000000000000000000000169063c894e757906130dd908e908e908e908e90600401616456565b602060405180830381865afa1580156130fa573d6000803e3d6000fd5b505050506040513d601f19601f8201168201806040525081019061311e9190616145565b61313b576040516303b2487b60e11b815260040160405180910390fd5b600061315261314d8a358b6001612160565b6144c6565b9050600061316961314d60408c01358c6003612160565b9050600061318061314d60808d01358d6005612160565b604051909150339084907f3015fe19dc9f8f0d942de39092410a57589dd94d2c9134719335fe04e3695eca90600090a36131c18383838d8d8d8d8d8d6144e6565b5050505050505050505050505050565b8181816131f15760405163e5d242ed60e01b815260040160405180910390fd5b80158061320b57506000828152600c602052604090205481115b1561322957604051630dd4272d60e41b815260040160405180910390fd5b6000848152600f602090815260408083203384529091529020548381036132505750611059565b600061325d600186616077565b905060007f00000000000000000000000000000000000000000000000000000000000000006001600160a01b0316636bf90c716040518163ffffffff1660e01b8152600401602060405180830381865afa1580156132bf573d6000803e3d6000fd5b505050506040513d601f19601f820116820180604052508101906132e39190616487565b90508015613448576000878152600c6020526040812080548490811061330b5761330b615f8f565b600091825260208083208b845260168252604080852088865290925290832054600990920201925090811561337557600061334583614022565b90506001600160a01b0381161561335e5780915061336f565b60068401546001600160a01b031691505b50613385565b5060068201546001600160a01b03165b6040516323b872dd60e01b81523360048201526001600160a01b038281166024830152604482018690526000917f0000000000000000000000000000000000000000000000000000000000000000909116906323b872dd906064016020604051808303816000875af11580156133ff573d6000803e3d6000fd5b505050506040513d601f19601f820116820180604052508101906134239190616145565b90508061344357604051635da1e97760e11b815260040160405180910390fd5b505050505b82156134a757600061345b600185616077565b6000898152601a6020908152604080832084845290915290205490915080156134a457613489600182616077565b60008a8152601a602090815260408083208684529091529020555b50505b6000878152601a6020908152604080832085845290915281208054600192906134d1908490615f7c565b90915550506000878152600f6020908152604080832033808552908352928190208990558051898152918201849052429082015288907f55e71c43a79fd68c0c9f416c70da96b84745f57bf4c2456beb089b4ad7bb3ac89060600160405180910390a350505050505050565b613548848484610fcf565b61105933858585856149e9565b61355d61502d565b6000808484816135805760405163e5d242ed60e01b815260040160405180910390fd5b80158061359a57506000828152600c602052604090205481115b156135b857604051630dd4272d60e41b815260040160405180910390fd5b60006135c5600188616077565b6000898152600c60205260409020805491925090829081106135e9576135e9615f8f565b600091825260209182902060408051610140810182526009909302909101805483526001810154938301939093526002830154908201526003820154606082015260048201546080820152600582015460a082015260068201546001600160a01b03811660c08301526001600160601b03600160a01b9091041660e08201526007820180549192916101008401919061368190615dc9565b80601f01602080910402602001604051908101604052809291908181526020018280546136ad90615dc9565b80156136fa5780601f106136cf576101008083540402835291602001916136fa565b820191906000526020600020905b8154815290600101906020018083116136dd57829003601f168201915b5050505050815260200160088201805461371390615dc9565b80601f016020809104026020016040519081016040528092919081815260200182805461373f90615dc9565b801561378c5780601f106137615761010080835404028352916020019161378c565b820191906000526020600020905b81548152906001019060200180831161376f57829003601f168201915b505050919092525050506000898152601a602090815260408083208584528252808320549b83526016825280832094835293905291909120549098909650945050505050565b60606137dd82613fdd565b50600082815260146020526040902080546137f790615dc9565b80601f016020809104026020016040519081016040528092919081815260200182805461382390615dc9565b80156138705780601f1061384557610100808354040283529160200191613870565b820191906000526020600020905b81548152906001019060200180831161385357829003601f168201915b50505050509050919050565b805160009061389e57604051635f895cef60e11b815260040160405180910390fd5b600c826060015160ff1611156138c7576040516348c5148960e11b815260040160405180910390fd5b601f826080015160ff1611156138f0576040516309eabf7d60e21b815260040160405180910390fd5b81516020830151608082901c916fffffffffffffffffffffffffffffffff169060009061391e576000613921565b60015b60ff1660018660a0015160ff16901b6008876080015160ff16901b6010886060015160ff16901b6018896040015161ffff16901b17171717905061396361511b565b838152602081018390526040808201839052516320cf0a3760e01b815260009073__$fc5a2451f3e054f75c2faf9b3818033d8b$__906320cf0a37906139ad9085906004016164a0565b602060405180830381865af41580156139ca573d6000803e3d6000fd5b505050506040513d601f19601f820116820180604052508101906139ee9190616487565b9050806139fa816144c6565b98975050505050505050565b601860209081526000928352604080842090915290825290208054600182015460028301805492939192613a3990615dc9565b80601f0160208091040260200160405190810160405280929190818152602001828054613a6590615dc9565b8015613ab25780601f10613a8757610100808354040283529160200191613ab2565b820191906000526020600020905b815481529060010190602001808311613a9557829003601f168201915b5050505060038301546004909301549192916001600160a01b0316905085565b6001600160a01b03918216600090815260056020908152604080832093909416825291909152205460ff1690565b613b08614ff2565b826000613b1482614022565b6001600160a01b031603613b3b576040516307ed98ed60e31b815260040160405180910390fd5b600084815260176020526040902080548410613b6a57604051637df0b86160e01b815260040160405180910390fd5b6018600086815260200190815260200160002060008581526020019081526020016000206040518060a00160405290816000820154815260200160018201548152602001600282018054613bbd90615dc9565b80601f0160208091040260200160405190810160405280929190818152602001828054613be990615dc9565b8015613c365780601f10613c0b57610100808354040283529160200191613c36565b820191906000526020600020905b815481529060010190602001808311613c1957829003601f168201915b5050509183525050600382015460208201526004909101546001600160a01b031660409091015295945050505050565b613c6e6143a8565b6001600160a01b038116613c9857604051631e4fbdf760e01b815260006004820152602401610ff5565b613ca1816143d5565b50565b6000838152600c6020526040812054606091829182918080613cc7848a8a61412c565b90508060400151600003613d1057604080516000808252602082018181528284019182526060808401909452608085015194909301519199509197509095509092509050613ec8565b80604001516001600160401b03811115613d2c57613d2c615add565b604051908082528060200260200182016040528015613d55578160200160208202803683370190505b50965080604001516001600160401b03811115613d7457613d74615add565b604051908082528060200260200182016040528015613d9d578160200160208202803683370190505b50955080604001516001600160401b03811115613dbc57613dbc615add565b604051908082528060200260200182016040528015613de5578160200160208202803683370190505b50945060005b8160400151811015613eb6578151600090613e07908390615f7c565b9050613e14816001615f7c565b898381518110613e2657613e26615f8f565b60209081029190910181019190915260008d8152601a8252604080822084835290925220548851899084908110613e5f57613e5f615f8f565b60209081029190910181019190915260008d815260168252604080822084835290925220548751889084908110613e9857613e98615f8f565b60209081029190910101525080613eae81615fa5565b915050613deb565b50608081015160609091015190925090505b93975093979195509350565b60156020528160005260406000208181548110613ef057600080fd5b90600052602060002001600091509150508054613f0c90615dc9565b80601f0160208091040260200160405190810160405280929190818152602001828054613f3890615dc9565b8015613f855780601f10613f5a57610100808354040283529160200191613f85565b820191906000526020600020905b815481529060010190602001808311613f6857829003601f168201915b505050505081565b60006001600160e01b031982166380ac58cd60e01b1480613fbe57506001600160e01b03198216635b5e139f60e01b145b80610d0857506301ffc9a760e01b6001600160e01b0319831614610d08565b600080613fe983614022565b90506001600160a01b038116610d0857604051637e27328960e01b815260048101849052602401610ff5565b61181f8383836001614b13565b6000908152600260205260409020546001600160a01b031690565b600082815260146020526040902061181f8282615e5e565b600080614063858585614c19565b90506001600160a01b0381166140c0576140bb84600880546000838152600960205260408120829055600182018355919091527ff3f7a9fe364faab93b216da50a3214154f22a0a2b415b23a84c8169e8b636ee30155565b6140e3565b846001600160a01b0316816001600160a01b0316146140e3576140e38185614d0d565b6001600160a01b0385166140ff576140fa84614d8e565b614122565b846001600160a01b0316816001600160a01b031614614122576141228585614e3d565b90505b9392505050565b6141606040518060a00160405280600081526020016000815260200160008152602001600081526020016000151581525090565b606482111561418257604051630327a73960e61b815260040160405180910390fd5b81158061418f5750838310155b156141d3576040518060a0016040528084815260200184815260200160008152602001858510156141c057846141c2565b855b815260006020909101529050614125565b60006141df8385615f7c565b9050848111156141ec5750835b6040518060a00160405280858152602001828152602001858361420f9190616077565b815260200182815260200186831015158152509150509392505050565b6002600b540361424f57604051633ee5aeb560e01b815260040160405180910390fd5b6002600b55565b60008160405160200161426991906164d1565b604051602081830303815290604052805190602001209050919050565b60008181526017602090815260408083206019909252822080549192909190036142b65750600060019091015550565b606060005b82548110156143385760008382815481106142d8576142d8615f8f565b60009182526020808320909101548883526018825260408084208285528352928390206001015492519093506143129186918491016164e3565b60405160208183030381529060405293505050808061433090615fa5565b9150506142bb565b5080516020909101206001909201919091555050565b6000608083901c1515806143655750608082901c15155b15614383576040516303b2487b60e11b815260040160405180910390fd5b5060809190911b1790565b610dd4828260405180602001604052806000815250614e8d565b600a546001600160a01b031633146123b75760405163118cdaa760e01b8152336004820152602401610ff5565b600a80546001600160a01b038381166001600160a01b0319831681179093556040519116919082907f8be0079c531659141344cd1fd0a4f28419497f9722a3daafe3b4186f6b6457e090600090a35050565b6001600160a01b03821661445957604051630b61174360e31b81526001600160a01b0383166004820152602401610ff5565b6001600160a01b03838116600081815260056020908152604080832094871680845294825291829020805460ff191686151590811790915591519182527f17307eab39ab6107e8899845ad3d59bd9653f200f220920489ca2b5937696c31910160405180910390a3505050565b6000816144d557506000919050565b604080516020810184905201614269565b61010083111561450957604051635fab396360e11b815260040160405180910390fd5b61010081111561452c57604051630601a0fb60e51b815260040160405180910390fd5b6000888152600c602052604090205486111561455b57604051631f9510eb60e01b815260040160405180910390fd5b6000878152600c602052604090205485111561458a5760405163782ce69f60e01b815260040160405180910390fd5b6000898989898989896040516020016145a99796959493929190616505565b60408051601f19818403018152918152815160209283012060008d8152600e845282812082825290935291205490915060ff16156145fa576040516314396b6760e11b815260040160405180910390fd5b60008a8152600e602090815260408083208484528252808320805460ff191660011790558c8352600c82528083208151610140810183528e81528084018e90528083018d90526060810194909452608084018b905260a084018a90523360c08501526001600160601b03421660e08501528151601f89018490048402810184019092528782529291610100830191908990899081908401838280828437600092019190915250505090825250604080516020601f8801819004810282018101909252868152918101919087908790819084018382808284376000920182905250939094525050835460018181018655948252602091829020845160099092020190815590830151938101939093555060408101516002830155606081015160038301556080810151600483015560a0810151600583015560c081015160e08201516001600160601b0316600160a01b026001600160a01b0390911617600683015561010081015190919060078201906147739082615e5e565b5061012082015160088201906147899082615e5e565b50505060008a8152600c6020526040902080549081906147aa600183616077565b815481106147ba576147ba615f8f565b600091825260209091206003600990920201015589156148215760008a8152601b602090815260408083208b8452825280832081518083019092528e8252818301858152815460018181018455928652939094209151600290930290910191825591519101555b8815614874576000898152601b602090815260408083208a8452825280832081518083019092528e8252818301858152815460018181018455928652939094209151600290930290910191825591519101555b8060010361489257600d805490600061488c83615fa5565b91905055505b336001600160a01b0316818c7ff24ca8fe8e48960e559267341f81e7b0f07746d1e98c729930fe251bd2875484428e8d8f8e8e8e6040516148d9979695949392919061653b565b60405180910390a46148ea8a614ea5565b80156148fa57506148fa89614ea5565b156149dc576040516335313c2160e11b81523360048201526000907f00000000000000000000000000000000000000000000000000000000000000006001600160a01b031690636a627842906024016020604051808303816000875af1158015614968573d6000803e3d6000fd5b505050506040513d601f19601f8201168201806040525081019061498c9190616487565b905080156149da57818c336001600160a01b03167fdefc43c3e9b037326c59d7c3f29c0b6b5c94a6fbfcced006b763e74a3115da6d846040516149d191815260200190565b60405180910390a45b505b5050505050505050505050565b6001600160a01b0383163b15611a2f57604051630a85bd0160e11b81526001600160a01b0384169063150b7a0290614a2b90889088908790879060040161656d565b6020604051808303816000875af1925050508015614a66575060408051601f3d908101601f19168201909252614a63918101906165a0565b60015b614acf573d808015614a94576040519150601f19603f3d011682016040523d82523d6000602084013e614a99565b606091505b508051600003614ac757604051633250574960e11b81526001600160a01b0385166004820152602401610ff5565b805160208201fd5b6001600160e01b03198116630a85bd0160e11b14614b0b57604051633250574960e11b81526001600160a01b0385166004820152602401610ff5565b505050505050565b8080614b2757506001600160a01b03821615155b15614be9576000614b3784613fdd565b90506001600160a01b03831615801590614b635750826001600160a01b0316816001600160a01b031614155b8015614b765750614b748184613ad2565b155b15614b9f5760405163a9fbf51f60e01b81526001600160a01b0384166004820152602401610ff5565b8115614be75783856001600160a01b0316826001600160a01b03167f8c5be1e5ebec7d5bd14f71427d1e84f3dd0314c0f7b2291e5b200ac8c7c3b92560405160405180910390a45b505b5050600090815260046020526040902080546001600160a01b0319166001600160a01b0392909216919091179055565b600080614c2584614022565b90506001600160a01b03831615614c4157614c41818486614ec6565b6001600160a01b03811615614c7f57614c5e600085600080614b13565b6001600160a01b038116600090815260036020526040902080546000190190555b6001600160a01b03851615614cae576001600160a01b0385166000908152600360205260409020805460010190555b60008481526002602052604080822080546001600160a01b0319166001600160a01b0389811691821790925591518793918516917fddf252ad1be2c89b69c2b068fc378daa952ba7f163c4a11628f55a4df523b3ef91a4949350505050565b6000614d188361235d565b6000838152600760209081526040808320546001600160a01b0388168452600690925290912091925090818314614d6f57600083815260208281526040808320548584528184208190558352600790915290208290555b6000938452600760209081526040808620869055938552525081205550565b600854600090614da090600190616077565b60008381526009602052604081205460088054939450909284908110614dc857614dc8615f8f565b906000526020600020015490508060088381548110614de957614de9615f8f565b6000918252602080832090910192909255828152600990915260408082208490558582528120556008805480614e2157614e216165bd565b6001900381819060005260206000200160009055905550505050565b60006001614e4a8461235d565b614e549190616077565b6001600160a01b039093166000908152600660209081526040808320868452825280832085905593825260079052919091209190915550565b614e978383614f2a565b61181f3360008585856149e9565b60008115801590610d085750506000908152600c6020526040902054151590565b614ed1838383614f8f565b61181f576001600160a01b038316614eff57604051637e27328960e01b815260048101829052602401610ff5565b60405163177e802f60e01b81526001600160a01b038316600482015260248101829052604401610ff5565b6001600160a01b038216614f5457604051633250574960e11b815260006004820152602401610ff5565b6000614f6283836000614055565b90506001600160a01b0381161561181f576040516339e3563760e11b815260006004820152602401610ff5565b60006001600160a01b038316158015906141225750826001600160a01b0316846001600160a01b03161480614fc95750614fc98484613ad2565b806141225750506000908152600460205260409020546001600160a01b03908116911614919050565b6040518060a001604052806000815260200160008019168152602001606081526020016000815260200160006001600160a01b031681525090565b604080516101408101825260008082526020820181905291810182905260608082018390526080820183905260a0820183905260c0820183905260e0820192909252610100810182905261012081019190915290565b60408051610100810182526000918101828152606082018390526080820183905260a0820183905260c0820183905260e082019290925290819081526020016151166040518061010001604052806060815260200160608152602001600015158152602001600061ffff168152602001600060ff168152602001600060ff16815260200160608152602001606081525090565b905290565b60405180606001604052806003906020820280368337509192915050565b6001600160e01b031981168114613ca157600080fd5b60006020828403121561516157600080fd5b813561412581615139565b60005b8381101561518757818101518382015260200161516f565b50506000910152565b600081518084526151a881602086016020860161516c565b601f01601f19169290920160200192915050565b6020815260006141256020830184615190565b6000602082840312156151e157600080fd5b5035919050565b80356001600160a01b03811681146151ff57600080fd5b919050565b6000806040838503121561521757600080fd5b615220836151e8565b946020939093013593505050565b6000806040838503121561524157600080fd5b50508035926020909101359150565b60008060006060848603121561526557600080fd5b505081359360208301359350604090920135919050565b60008083601f84011261528e57600080fd5b5081356001600160401b038111156152a557600080fd5b6020830191508360208285010111156152bd57600080fd5b9250929050565b6000806000604084860312156152d957600080fd5b8335925060208401356001600160401b038111156152f657600080fd5b6153028682870161527c565b9497909650939450505050565b60008060006060848603121561532457600080fd5b61532d846151e8565b925061533b602085016151e8565b9150604084013590509250925092565b8051825260208101511515602083015261ffff604082015116604083015260ff606082015116606083015260ff608082015116608083015260ff60a08201511660a08301525050565b600061010082518185526153aa82860182615190565b915050602083015184820360208601526153c48282615190565b91505060408301516153da604086018215159052565b5060608301516153f0606086018261ffff169052565b506080830151615405608086018260ff169052565b5060a083015161541a60a086018260ff169052565b5060c083015184820360c08601526154328282615190565b91505060e083015184820360e086015261544c8282615190565b95945050505050565b61545f818461534b565b60e060c0820152600061412260e0830184615394565b80518252602081015160208301526000604082015160a0604085015261549e60a0850182615190565b606084810151908601526080938401516001600160a01b031693909401929092525090919050565b6000608082016080835280875180835260a08501915060a08160051b86010192506020808a0160005b8381101561551d57609f1988870301855261550b868351615475565b955093820193908201906001016154ef565b5050850197909752509315156040830152506060015292915050565b6000608082016080835280875180835260a08501915060a08160051b86010192506020808a0160005b8381101561551d57609f1988870301855261557e868351615190565b95509382019390820190600101615562565b6000806000806000608086880312156155a857600080fd5b853594506020860135935060408601356001600160401b038111156155cc57600080fd5b6155d88882890161527c565b96999598509660600135949350505050565b6000806000806080858703121561560057600080fd5b5050823594602084013594506040840135936060013592509050565b600081518084526020808501945080840160005b8381101561564c57815187529582019590820190600101615630565b509495945050505050565b60a0808252865190820181905260009060209060c0840190828a01845b8281101561569057815184529284019290840190600101615674565b505050838103828501526156a4818961561c565b6040850197909752505050911515606083015260809091015292915050565b60006101408c83528b60208401528a60408401528960608401528860808401528760a084015260018060a01b03871660c08401526001600160601b03861660e08401528061010084015261571981840186615190565b905082810361012084015261572e8185615190565b9d9c50505050505050505050505050565b8060408101831015610d0857600080fd5b8060808101831015610d0857600080fd5b60008060008060008060008060006102008a8c03121561578057600080fd5b61578a8b8b61573f565b98506157998b60408c01615750565b97506157a88b60c08c0161573f565b96506157b88b6101008c01615750565b95506101808a013594506101a08a013593506101c08a01356001600160401b03808211156157e557600080fd5b6157f18d838e0161527c565b90955093506101e08c013591508082111561580b57600080fd5b508a0160e0818d03121561581e57600080fd5b809150509295985092959850929598565b60006020828403121561584157600080fd5b614125826151e8565b6000610140825184526020830151602085015260408301516040850152606083015160608501526080830151608085015260a083015160a085015260c083015161589f60c08601826001600160a01b03169052565b5060e08301516158ba60e08601826001600160601b03169052565b506101008084015182828701526158d383870182615190565b9250505061012080840151858303828701526158ef8382615190565b9695505050505050565b86815285602082015260c06040820152600061591860c083018761584a565b828103606084015261592b81875161534b565b602086015160e060c083015261594460e0830182615394565b91505084608084015282810360a084015261595f8185615190565b9998505050505050505050565b6000608082016080835280875180835260a08501915060a08160051b86010192506020808a0160005b8381101561551d57609f198887030185526159b186835161584a565b95509382019390820190600101615995565b8015158114613ca157600080fd5b600080604083850312156159e457600080fd5b6159ed836151e8565b915060208301356159fd816159c3565b809150509250929050565b6000806000806000806000806000806102608b8d031215615a2857600080fd5b615a328c8c61573f565b9950615a418c60408d01615750565b9850615a508c60c08d0161573f565b97506101e08b018c811115615a6457600080fd5b6101008c0197503595506102008b013594506102208b01356001600160401b0380821115615a9157600080fd5b615a9d8e838f0161527c565b90965094506102408d0135915080821115615ab757600080fd5b50615ac48d828e0161527c565b915080935050809150509295989b9194979a5092959850565b634e487b7160e01b600052604160045260246000fd5b604051601f8201601f191681016001600160401b0381118282101715615b1b57615b1b615add565b604052919050565b60008060008060808587031215615b3957600080fd5b615b42856151e8565b93506020615b518187016151e8565b93506040860135925060608601356001600160401b0380821115615b7457600080fd5b818801915088601f830112615b8857600080fd5b813581811115615b9a57615b9a615add565b615bac601f8201601f19168501615af3565b91508082528984828501011115615bc257600080fd5b808484018584013760008482840101525080935050505092959194509250565b606081526000615bf5606083018661584a565b60208301949094525060400152919050565b61ffff81168114613ca157600080fd5b60ff81168114613ca157600080fd5b600060c08284031215615c3857600080fd5b60405160c081018181106001600160401b0382111715615c5a57615c5a615add565b604052823581526020830135615c6f816159c3565b60208201526040830135615c8281615c07565b60408201526060830135615c9581615c17565b60608201526080830135615ca881615c17565b608082015260a0830135615cbb81615c17565b60a08201529392505050565b85815284602082015260a060408201526000615ce660a0830186615190565b6060830194909452506001600160a01b03919091166080909101529392505050565b60008060408385031215615d1b57600080fd5b615d24836151e8565b9150615d32602084016151e8565b90509250929050565b6020815260006141256020830184615475565b60008060408385031215615d6157600080fd5b82359150615d32602084016151e8565b60c081526000615d8460c083018961561c565b8281036020840152615d96818961561c565b90508281036040840152615daa818861561c565b60608401969096525050911515608083015260a0909101529392505050565b600181811c90821680615ddd57607f821691505b602082108103615dfd57634e487b7160e01b600052602260045260246000fd5b50919050565b601f82111561181f57600081815260208120601f850160051c81016020861015615e2a5750805b601f850160051c820191505b81811015614b0b57828155600101615e36565b600019600383901b1c191660019190911b1790565b81516001600160401b03811115615e7757615e77615add565b615e8b81615e858454615dc9565b84615e03565b602080601f831160018114615eba5760008415615ea85750858301515b615eb28582615e49565b865550614b0b565b600085815260208120601f198616915b82811015615ee957888601518255948401946001909101908401615eca565b5085821015615f075787850151600019600388901b60f8161c191681555b5050505050600190811b01905550565b81835281816020850137506000828201602090810191909152601f909101601f19169091010190565b604081526000615f536040830186615190565b82810360208401526158ef818587615f17565b634e487b7160e01b600052601160045260246000fd5b80820180821115610d0857610d08615f66565b634e487b7160e01b600052603260045260246000fd5b600060018201615fb757615fb7615f66565b5060010190565b6001600160401b03831115615fd557615fd5615add565b615fe983615fe38354615dc9565b83615e03565b6000601f84116001811461601757600085156160055750838201355b61600f8682615e49565b845550611a2f565b600083815260209020601f19861690835b828110156160485786850135825560209485019460019092019101616028565b50868210156160655760001960f88860031b161c19848701351681555b505060018560011b0183555050505050565b81810381811115610d0857610d08615f66565b6000823560fe198336030181126160a057600080fd5b9190910192915050565b6000808335601e198436030181126160c157600080fd5b8301803591506001600160401b038211156160db57600080fd5b6020019150368190038213156152bd57600080fd5b8060005b6002811015611059576040808386379384019391909101906001016160f4565b6101808101604086833761612b60408301866160f0565b60408460c084013760808361010084013795945050505050565b60006020828403121561615757600080fd5b8151614125816159c3565b60008135610d08816159c3565b60008135610d0881615c07565b60008135610d0881615c17565b61619382836160aa565b6001600160401b038111156161aa576161aa615add565b6161be816161b88554615dc9565b85615e03565b6000601f8211600181146161ec57600083156161da5750838201355b6161e48482615e49565b865550616246565b600085815260209020601f19841690835b8281101561621d57868501358255602094850194600190920191016161fd565b508482101561623a5760001960f88660031b161c19848701351681555b505060018360011b0185555b5050505061625760208301836160aa565b616265818360018601615fbe565b50506002810161628e61627a60408501616162565b825490151560ff1660ff1991909116178255565b6162b561629d6060850161616f565b825462ffff00191660089190911b62ffff0016178255565b6162de6162c46080850161617c565b825463ff000000191660189190911b63ff00000016178255565b6163096162ed60a0850161617c565b825464ff00000000191660209190911b64ff0000000016178255565b5061631760c08301836160aa565b616325818360038601615fbe565b505061633460e08301836160aa565b611059818360048601615fbe565b81358155600181016020830135616358816159c3565b815460ff191660ff8215151617825550604083013561637681615c07565b815462ffff001916600882901b62ffff001617825550606083013561639a81615c17565b815463ff0000001916601882901b63ff000000161782555060808301356163c081615c17565b815464ff000000001916602082901b64ff00000000161782555060a08301356163e881615c17565b815465ff0000000000191660289190911b65ff00000000001617905560c08201353683900360fe1901811261641c57600080fd5b61181f81840160028401616189565b848152606060208201526000616445606083018587615f17565b905082604083015295945050505050565b6101e08101604086833761646d60408301866160f0565b60408460c084013760e08361010084013795945050505050565b60006020828403121561649957600080fd5b5051919050565b60608101818360005b60038110156164c85781518352602092830192909101906001016164a9565b50505092915050565b600082516160a081846020870161516c565b600083516164f581846020880161516c565b9190910191825250602001919050565b878152866020820152856040820152846060820152836080820152818360a08301376000910160a0019081529695505050505050565b87815286602082015285604082015284606082015283608082015260c060a0820152600061595f60c083018486615f17565b6001600160a01b03858116825284166020820152604081018390526080606082018190526000906158ef90830184615190565b6000602082840312156165b257600080fd5b815161412581615139565b634e487b7160e01b600052603160045260246000fdfea2646970667358221220a7ad10ad430efe2c45abdb3c87e87c503fdccd825efb88ee17e39fd849ecc90b64736f6c63430008140033",
  "linkReferences": {
    "poseidon-solidity/PoseidonT4.sol": {
      "PoseidonT4": [
        {
          "length": 20,
          "start": 15730
        }
      ]
    }
  },
  "deployedLinkReferences": {
    "poseidon-solidity/PoseidonT4.sol": {
      "PoseidonT4": [
        {
          "length": 20,
          "start": 14725
        }
      ]
    }
  }
}