{
  "_format": "hh-sol-artifact-1",
  "contractName": "DeepFamily",
  "sourceName": "contracts/DeepFamily.sol",
  "abi": [
    {
      "inputs": [
        {
          "internalType": "address",
          "name": "_deepFamilyTokenContract",
          "type": "address"
        },
        {
          "internalType": "address",
          "name": "_personHashVerifier",
          "type": "address"
        },
        {
          "internalType": "address",
          "name": "_namePoseidonVerifier",
          "type": "address"
        }
      ],
      "stateMutability": "nonpayable",
      "type": "constructor"
    },
    {
      "inputs": [],
      "name": "AlreadyEndorsed",
      "type": "error"
    },
    {
      "inputs": [],
      "name": "BasicInfoMismatch",
      "type": "error"
    },
    {
      "inputs": [],
      "name": "CallerMismatch",
      "type": "error"
    },
    {
      "inputs": [],
      "name": "ChunkHashMismatch",
      "type": "error"
    },
    {
      "inputs": [],
      "name": "ChunkIndexOutOfRange",
      "type": "error"
    },
    {
      "inputs": [],
      "name": "DirectETHNotAccepted",
      "type": "error"
    },
    {
      "inputs": [],
      "name": "DuplicateVersion",
      "type": "error"
    },
    {
      "inputs": [],
      "name": "ERC721EnumerableForbiddenBatchMint",
      "type": "error"
    },
    {
      "inputs": [
        {
          "internalType": "address",
          "name": "sender",
          "type": "address"
        },
        {
          "internalType": "uint256",
          "name": "tokenId",
          "type": "uint256"
        },
        {
          "internalType": "address",
          "name": "owner",
          "type": "address"
        }
      ],
      "name": "ERC721IncorrectOwner",
      "type": "error"
    },
    {
      "inputs": [
        {
          "internalType": "address",
          "name": "operator",
          "type": "address"
        },
        {
          "internalType": "uint256",
          "name": "tokenId",
          "type": "uint256"
        }
      ],
      "name": "ERC721InsufficientApproval",
      "type": "error"
    },
    {
      "inputs": [
        {
          "internalType": "address",
          "name": "approver",
          "type": "address"
        }
      ],
      "name": "ERC721InvalidApprover",
      "type": "error"
    },
    {
      "inputs": [
        {
          "internalType": "address",
          "name": "operator",
          "type": "address"
        }
      ],
      "name": "ERC721InvalidOperator",
      "type": "error"
    },
    {
      "inputs": [
        {
          "internalType": "address",
          "name": "owner",
          "type": "address"
        }
      ],
      "name": "ERC721InvalidOwner",
      "type": "error"
    },
    {
      "inputs": [
        {
          "internalType": "address",
          "name": "receiver",
          "type": "address"
        }
      ],
      "name": "ERC721InvalidReceiver",
      "type": "error"
    },
    {
      "inputs": [
        {
          "internalType": "address",
          "name": "sender",
          "type": "address"
        }
      ],
      "name": "ERC721InvalidSender",
      "type": "error"
    },
    {
      "inputs": [
        {
          "internalType": "uint256",
          "name": "tokenId",
          "type": "uint256"
        }
      ],
      "name": "ERC721NonexistentToken",
      "type": "error"
    },
    {
      "inputs": [
        {
          "internalType": "address",
          "name": "owner",
          "type": "address"
        },
        {
          "internalType": "uint256",
          "name": "index",
          "type": "uint256"
        }
      ],
      "name": "ERC721OutOfBoundsIndex",
      "type": "error"
    },
    {
      "inputs": [],
      "name": "EndorsementFeeTransferFailed",
      "type": "error"
    },
    {
      "inputs": [],
      "name": "InvalidBirthDay",
      "type": "error"
    },
    {
      "inputs": [],
      "name": "InvalidBirthMonth",
      "type": "error"
    },
    {
      "inputs": [],
      "name": "InvalidBirthPlace",
      "type": "error"
    },
    {
      "inputs": [],
      "name": "InvalidBirthYear",
      "type": "error"
    },
    {
      "inputs": [],
      "name": "InvalidCIDLength",
      "type": "error"
    },
    {
      "inputs": [],
      "name": "InvalidChunkContent",
      "type": "error"
    },
    {
      "inputs": [],
      "name": "InvalidDeathDay",
      "type": "error"
    },
    {
      "inputs": [],
      "name": "InvalidDeathMonth",
      "type": "error"
    },
    {
      "inputs": [],
      "name": "InvalidDeathPlace",
      "type": "error"
    },
    {
      "inputs": [],
      "name": "InvalidFatherVersionIndex",
      "type": "error"
    },
    {
      "inputs": [],
      "name": "InvalidFullName",
      "type": "error"
    },
    {
      "inputs": [],
      "name": "InvalidMotherVersionIndex",
      "type": "error"
    },
    {
      "inputs": [],
      "name": "InvalidParentHash",
      "type": "error"
    },
    {
      "inputs": [],
      "name": "InvalidPersonHash",
      "type": "error"
    },
    {
      "inputs": [],
      "name": "InvalidStory",
      "type": "error"
    },
    {
      "inputs": [],
      "name": "InvalidTagLength",
      "type": "error"
    },
    {
      "inputs": [],
      "name": "InvalidTokenId",
      "type": "error"
    },
    {
      "inputs": [],
      "name": "InvalidTokenURI",
      "type": "error"
    },
    {
      "inputs": [],
      "name": "InvalidVersionIndex",
      "type": "error"
    },
    {
      "inputs": [],
      "name": "InvalidZKProof",
      "type": "error"
    },
    {
      "inputs": [],
      "name": "MustBeAdult",
      "type": "error"
    },
    {
      "inputs": [],
      "name": "MustBeNFTHolder",
      "type": "error"
    },
    {
      "inputs": [],
      "name": "MustEndorseVersionFirst",
      "type": "error"
    },
    {
      "inputs": [],
      "name": "NameVerifierNotSet",
      "type": "error"
    },
    {
      "inputs": [],
      "name": "NotEndorsed",
      "type": "error"
    },
    {
      "inputs": [
        {
          "internalType": "address",
          "name": "owner",
          "type": "address"
        }
      ],
      "name": "OwnableInvalidOwner",
      "type": "error"
    },
    {
      "inputs": [
        {
          "internalType": "address",
          "name": "account",
          "type": "address"
        }
      ],
      "name": "OwnableUnauthorizedAccount",
      "type": "error"
    },
    {
      "inputs": [],
      "name": "PageSizeExceedsLimit",
      "type": "error"
    },
    {
      "inputs": [],
      "name": "ProtocolFeeTooHigh",
      "type": "error"
    },
    {
      "inputs": [],
      "name": "ReentrancyGuardReentrantCall",
      "type": "error"
    },
    {
      "inputs": [],
      "name": "StoryAlreadySealed",
      "type": "error"
    },
    {
      "inputs": [],
      "name": "StoryNotFound",
      "type": "error"
    },
    {
      "inputs": [],
      "name": "TokenContractNotSet",
      "type": "error"
    },
    {
      "inputs": [],
      "name": "VerifierNotSet",
      "type": "error"
    },
    {
      "inputs": [],
      "name": "VersionAlreadyMinted",
      "type": "error"
    },
    {
      "anonymous": false,
      "inputs": [
        {
          "indexed": true,
          "internalType": "address",
          "name": "owner",
          "type": "address"
        },
        {
          "indexed": true,
          "internalType": "address",
          "name": "approved",
          "type": "address"
        },
        {
          "indexed": true,
          "internalType": "uint256",
          "name": "tokenId",
          "type": "uint256"
        }
      ],
      "name": "Approval",
      "type": "event"
    },
    {
      "anonymous": false,
      "inputs": [
        {
          "indexed": true,
          "internalType": "address",
          "name": "owner",
          "type": "address"
        },
        {
          "indexed": true,
          "internalType": "address",
          "name": "operator",
          "type": "address"
        },
        {
          "indexed": false,
          "internalType": "bool",
          "name": "approved",
          "type": "bool"
        }
      ],
      "name": "ApprovalForAll",
      "type": "event"
    },
    {
      "anonymous": false,
      "inputs": [
        {
          "indexed": true,
          "internalType": "bytes32",
          "name": "personHash",
          "type": "bytes32"
        },
        {
          "indexed": true,
          "internalType": "address",
          "name": "user",
          "type": "address"
        },
        {
          "indexed": false,
          "internalType": "uint256",
          "name": "versionIndex",
          "type": "uint256"
        },
        {
          "indexed": false,
          "internalType": "uint256",
          "name": "timestamp",
          "type": "uint256"
        }
      ],
      "name": "EndorsementCancelled",
      "type": "event"
    },
    {
      "anonymous": false,
      "inputs": [
        {
          "indexed": true,
          "internalType": "address",
          "name": "previousOwner",
          "type": "address"
        },
        {
          "indexed": true,
          "internalType": "address",
          "name": "newOwner",
          "type": "address"
        }
      ],
      "name": "OwnershipTransferred",
      "type": "event"
    },
    {
      "anonymous": false,
      "inputs": [
        {
          "indexed": true,
          "internalType": "bytes32",
          "name": "personHash",
          "type": "bytes32"
        },
        {
          "indexed": true,
          "internalType": "address",
          "name": "prover",
          "type": "address"
        }
      ],
      "name": "PersonHashZKVerified",
      "type": "event"
    },
    {
      "anonymous": false,
      "inputs": [
        {
          "indexed": true,
          "internalType": "bytes32",
          "name": "personHash",
          "type": "bytes32"
        },
        {
          "indexed": true,
          "internalType": "uint256",
          "name": "tokenId",
          "type": "uint256"
        },
        {
          "indexed": true,
          "internalType": "address",
          "name": "owner",
          "type": "address"
        },
        {
          "indexed": false,
          "internalType": "uint256",
          "name": "versionIndex",
          "type": "uint256"
        },
        {
          "indexed": false,
          "internalType": "string",
          "name": "tokenURI",
          "type": "string"
        },
        {
          "indexed": false,
          "internalType": "uint256",
          "name": "timestamp",
          "type": "uint256"
        }
      ],
      "name": "PersonNFTMinted",
      "type": "event"
    },
    {
      "anonymous": false,
      "inputs": [
        {
          "indexed": true,
          "internalType": "bytes32",
          "name": "personHash",
          "type": "bytes32"
        },
        {
          "indexed": true,
          "internalType": "uint256",
          "name": "versionIndex",
          "type": "uint256"
        },
        {
          "indexed": true,
          "internalType": "address",
          "name": "addedBy",
          "type": "address"
        },
        {
          "indexed": false,
          "internalType": "uint256",
          "name": "timestamp",
          "type": "uint256"
        },
        {
          "indexed": false,
          "internalType": "bytes32",
          "name": "fatherHash",
          "type": "bytes32"
        },
        {
          "indexed": false,
          "internalType": "uint256",
          "name": "fatherVersionIndex",
          "type": "uint256"
        },
        {
          "indexed": false,
          "internalType": "bytes32",
          "name": "motherHash",
          "type": "bytes32"
        },
        {
          "indexed": false,
          "internalType": "uint256",
          "name": "motherVersionIndex",
          "type": "uint256"
        },
        {
          "indexed": false,
          "internalType": "string",
          "name": "tag",
          "type": "string"
        }
      ],
      "name": "PersonVersionAdded",
      "type": "event"
    },
    {
      "anonymous": false,
      "inputs": [
        {
          "indexed": true,
          "internalType": "bytes32",
          "name": "personHash",
          "type": "bytes32"
        },
        {
          "indexed": true,
          "internalType": "address",
          "name": "endorser",
          "type": "address"
        },
        {
          "indexed": false,
          "internalType": "uint256",
          "name": "versionIndex",
          "type": "uint256"
        },
        {
          "indexed": false,
          "internalType": "address",
          "name": "recipient",
          "type": "address"
        },
        {
          "indexed": false,
          "internalType": "uint256",
          "name": "recipientShare",
          "type": "uint256"
        },
        {
          "indexed": false,
          "internalType": "address",
          "name": "protocolRecipient",
          "type": "address"
        },
        {
          "indexed": false,
          "internalType": "uint256",
          "name": "protocolShare",
          "type": "uint256"
        },
        {
          "indexed": false,
          "internalType": "uint256",
          "name": "endorsementFee",
          "type": "uint256"
        },
        {
          "indexed": false,
          "internalType": "uint256",
          "name": "timestamp",
          "type": "uint256"
        }
      ],
      "name": "PersonVersionEndorsed",
      "type": "event"
    },
    {
      "anonymous": false,
      "inputs": [
        {
          "indexed": false,
          "internalType": "uint256",
          "name": "previousBps",
          "type": "uint256"
        },
        {
          "indexed": false,
          "internalType": "uint256",
          "name": "newBps",
          "type": "uint256"
        }
      ],
      "name": "ProtocolEndorsementFeeUpdated",
      "type": "event"
    },
    {
      "anonymous": false,
      "inputs": [
        {
          "indexed": true,
          "internalType": "uint256",
          "name": "tokenId",
          "type": "uint256"
        },
        {
          "indexed": true,
          "internalType": "uint256",
          "name": "chunkIndex",
          "type": "uint256"
        },
        {
          "indexed": false,
          "internalType": "bytes32",
          "name": "chunkHash",
          "type": "bytes32"
        },
        {
          "indexed": true,
          "internalType": "address",
          "name": "editor",
          "type": "address"
        },
        {
          "indexed": false,
          "internalType": "uint256",
          "name": "contentLength",
          "type": "uint256"
        },
        {
          "indexed": false,
          "internalType": "uint8",
          "name": "chunkType",
          "type": "uint8"
        },
        {
          "indexed": false,
          "internalType": "string",
          "name": "attachmentCID",
          "type": "string"
        }
      ],
      "name": "StoryChunkAdded",
      "type": "event"
    },
    {
      "anonymous": false,
      "inputs": [
        {
          "indexed": true,
          "internalType": "uint256",
          "name": "tokenId",
          "type": "uint256"
        },
        {
          "indexed": false,
          "internalType": "uint256",
          "name": "totalChunks",
          "type": "uint256"
        },
        {
          "indexed": false,
          "internalType": "bytes32",
          "name": "fullStoryHash",
          "type": "bytes32"
        },
        {
          "indexed": true,
          "internalType": "address",
          "name": "sealer",
          "type": "address"
        }
      ],
      "name": "StorySealed",
      "type": "event"
    },
    {
      "anonymous": false,
      "inputs": [
        {
          "indexed": true,
          "internalType": "address",
          "name": "miner",
          "type": "address"
        },
        {
          "indexed": true,
          "internalType": "bytes32",
          "name": "personHash",
          "type": "bytes32"
        },
        {
          "indexed": true,
          "internalType": "uint256",
          "name": "versionIndex",
          "type": "uint256"
        },
        {
          "indexed": false,
          "internalType": "uint256",
          "name": "reward",
          "type": "uint256"
        }
      ],
      "name": "TokenRewardDistributed",
      "type": "event"
    },
    {
      "anonymous": false,
      "inputs": [
        {
          "indexed": true,
          "internalType": "uint256",
          "name": "tokenId",
          "type": "uint256"
        },
        {
          "indexed": true,
          "internalType": "address",
          "name": "owner",
          "type": "address"
        },
        {
          "indexed": false,
          "internalType": "string",
          "name": "oldURI",
          "type": "string"
        },
        {
          "indexed": false,
          "internalType": "string",
          "name": "newURI",
          "type": "string"
        }
      ],
      "name": "TokenURIUpdated",
      "type": "event"
    },
    {
      "anonymous": false,
      "inputs": [
        {
          "indexed": true,
          "internalType": "address",
          "name": "from",
          "type": "address"
        },
        {
          "indexed": true,
          "internalType": "address",
          "name": "to",
          "type": "address"
        },
        {
          "indexed": true,
          "internalType": "uint256",
          "name": "tokenId",
          "type": "uint256"
        }
      ],
      "name": "Transfer",
      "type": "event"
    },
    {
      "stateMutability": "payable",
      "type": "fallback"
    },
    {
      "inputs": [],
      "name": "DEEP_FAMILY_TOKEN_CONTRACT",
      "outputs": [
        {
          "internalType": "address",
          "name": "",
          "type": "address"
        }
      ],
      "stateMutability": "view",
      "type": "function"
    },
    {
      "inputs": [],
      "name": "FEE_BPS_DENOMINATOR",
      "outputs": [
        {
          "internalType": "uint256",
          "name": "",
          "type": "uint256"
        }
      ],
      "stateMutability": "view",
      "type": "function"
    },
    {
      "inputs": [],
      "name": "MAX_CHUNK_CONTENT_LENGTH",
      "outputs": [
        {
          "internalType": "uint256",
          "name": "",
          "type": "uint256"
        }
      ],
      "stateMutability": "view",
      "type": "function"
    },
    {
      "inputs": [],
      "name": "MAX_LONG_TEXT_LENGTH",
      "outputs": [
        {
          "internalType": "uint256",
          "name": "",
          "type": "uint256"
        }
      ],
      "stateMutability": "view",
      "type": "function"
    },
    {
      "inputs": [],
      "name": "MAX_QUERY_PAGE_SIZE",
      "outputs": [
        {
          "internalType": "uint256",
          "name": "",
          "type": "uint256"
        }
      ],
      "stateMutability": "view",
      "type": "function"
    },
    {
      "inputs": [],
      "name": "MINIMUM_MINT_AGE",
      "outputs": [
        {
          "internalType": "uint256",
          "name": "",
          "type": "uint256"
        }
      ],
      "stateMutability": "view",
      "type": "function"
    },
    {
      "inputs": [],
      "name": "NAME_POSEIDON_VERIFIER",
      "outputs": [
        {
          "internalType": "address",
          "name": "",
          "type": "address"
        }
      ],
      "stateMutability": "view",
      "type": "function"
    },
    {
      "inputs": [],
      "name": "PERSON_HASH_VERIFIER",
      "outputs": [
        {
          "internalType": "address",
          "name": "",
          "type": "address"
        }
      ],
      "stateMutability": "view",
      "type": "function"
    },
    {
      "inputs": [],
      "name": "PROTOCOL_FEE_BPS_MAX",
      "outputs": [
        {
          "internalType": "uint256",
          "name": "",
          "type": "uint256"
        }
      ],
      "stateMutability": "view",
      "type": "function"
    },
    {
      "inputs": [
        {
          "internalType": "uint256[2]",
          "name": "a",
          "type": "uint256[2]"
        },
        {
          "internalType": "uint256[2][2]",
          "name": "b",
          "type": "uint256[2][2]"
        },
        {
          "internalType": "uint256[2]",
          "name": "c",
          "type": "uint256[2]"
        },
        {
          "internalType": "uint256[7]",
          "name": "publicSignals",
          "type": "uint256[7]"
        },
        {
          "internalType": "uint256",
          "name": "fatherVersionIndex",
          "type": "uint256"
        },
        {
          "internalType": "uint256",
          "name": "motherVersionIndex",
          "type": "uint256"
        },
        {
          "internalType": "string",
          "name": "tag",
          "type": "string"
        },
        {
          "internalType": "string",
          "name": "metadataCID",
          "type": "string"
        }
      ],
      "name": "addPersonZK",
      "outputs": [],
      "stateMutability": "nonpayable",
      "type": "function"
    },
    {
      "inputs": [
        {
          "internalType": "uint256",
          "name": "tokenId",
          "type": "uint256"
        },
        {
          "internalType": "uint256",
          "name": "chunkIndex",
          "type": "uint256"
        },
        {
          "internalType": "uint8",
          "name": "chunkType",
          "type": "uint8"
        },
        {
          "internalType": "string",
          "name": "content",
          "type": "string"
        },
        {
          "internalType": "string",
          "name": "attachmentCID",
          "type": "string"
        },
        {
          "internalType": "bytes32",
          "name": "expectedHash",
          "type": "bytes32"
        }
      ],
      "name": "addStoryChunk",
      "outputs": [],
      "stateMutability": "nonpayable",
      "type": "function"
    },
    {
      "inputs": [
        {
          "internalType": "address",
          "name": "to",
          "type": "address"
        },
        {
          "internalType": "uint256",
          "name": "tokenId",
          "type": "uint256"
        }
      ],
      "name": "approve",
      "outputs": [],
      "stateMutability": "nonpayable",
      "type": "function"
    },
    {
      "inputs": [
        {
          "internalType": "address",
          "name": "owner",
          "type": "address"
        }
      ],
      "name": "balanceOf",
      "outputs": [
        {
          "internalType": "uint256",
          "name": "",
          "type": "uint256"
        }
      ],
      "stateMutability": "view",
      "type": "function"
    },
    {
      "inputs": [
        {
          "internalType": "bytes32",
          "name": "personHash",
          "type": "bytes32"
        }
      ],
      "name": "cancelEndorsement",
      "outputs": [],
      "stateMutability": "nonpayable",
      "type": "function"
    },
    {
      "inputs": [
        {
          "internalType": "bytes32",
          "name": "",
          "type": "bytes32"
        },
        {
          "internalType": "uint256",
          "name": "",
          "type": "uint256"
        },
        {
          "internalType": "uint256",
          "name": "",
          "type": "uint256"
        }
      ],
      "name": "childrenOf",
      "outputs": [
        {
          "internalType": "bytes32",
          "name": "childHash",
          "type": "bytes32"
        },
        {
          "internalType": "uint256",
          "name": "childVersionIndex",
          "type": "uint256"
        }
      ],
      "stateMutability": "view",
      "type": "function"
    },
    {
      "inputs": [
        {
          "internalType": "bytes32",
          "name": "personHash",
          "type": "bytes32"
        },
        {
          "internalType": "uint256",
          "name": "versionIndex",
          "type": "uint256"
        }
      ],
      "name": "endorseVersion",
      "outputs": [],
      "stateMutability": "nonpayable",
      "type": "function"
    },
    {
      "inputs": [
        {
          "internalType": "bytes32",
          "name": "",
          "type": "bytes32"
        },
        {
          "internalType": "address",
          "name": "",
          "type": "address"
        }
      ],
      "name": "endorsedVersionIndex",
      "outputs": [
        {
          "internalType": "uint256",
          "name": "",
          "type": "uint256"
        }
      ],
      "stateMutability": "view",
      "type": "function"
    },
    {
      "inputs": [
        {
          "internalType": "uint256",
          "name": "tokenId",
          "type": "uint256"
        }
      ],
      "name": "getApproved",
      "outputs": [
        {
          "internalType": "address",
          "name": "",
          "type": "address"
        }
      ],
      "stateMutability": "view",
      "type": "function"
    },
    {
      "inputs": [
        {
          "internalType": "uint256",
          "name": "tokenId",
          "type": "uint256"
        }
      ],
      "name": "getNFTDetails",
      "outputs": [
        {
          "internalType": "bytes32",
          "name": "personHash",
          "type": "bytes32"
        },
        {
          "internalType": "uint256",
          "name": "versionIndex",
          "type": "uint256"
        },
        {
          "components": [
            {
              "internalType": "bytes32",
              "name": "personHash",
              "type": "bytes32"
            },
            {
              "internalType": "bytes32",
              "name": "fatherHash",
              "type": "bytes32"
            },
            {
              "internalType": "bytes32",
              "name": "motherHash",
              "type": "bytes32"
            },
            {
              "internalType": "uint256",
              "name": "versionIndex",
              "type": "uint256"
            },
            {
              "internalType": "uint256",
              "name": "fatherVersionIndex",
              "type": "uint256"
            },
            {
              "internalType": "uint256",
              "name": "motherVersionIndex",
              "type": "uint256"
            },
            {
              "internalType": "address",
              "name": "addedBy",
              "type": "address"
            },
            {
              "internalType": "uint96",
              "name": "timestamp",
              "type": "uint96"
            },
            {
              "internalType": "string",
              "name": "tag",
              "type": "string"
            },
            {
              "internalType": "string",
              "name": "metadataCID",
              "type": "string"
            }
          ],
          "internalType": "struct DeepFamily.PersonVersion",
          "name": "version",
          "type": "tuple"
        },
        {
          "components": [
            {
              "components": [
                {
                  "internalType": "bytes32",
                  "name": "fullNameCommitment",
                  "type": "bytes32"
                },
                {
                  "internalType": "bool",
                  "name": "isBirthBC",
                  "type": "bool"
                },
                {
                  "internalType": "uint16",
                  "name": "birthYear",
                  "type": "uint16"
                },
                {
                  "internalType": "uint8",
                  "name": "birthMonth",
                  "type": "uint8"
                },
                {
                  "internalType": "uint8",
                  "name": "birthDay",
                  "type": "uint8"
                },
                {
                  "internalType": "uint8",
                  "name": "gender",
                  "type": "uint8"
                }
              ],
              "internalType": "struct DeepFamily.PersonBasicInfo",
              "name": "basicInfo",
              "type": "tuple"
            },
            {
              "components": [
                {
                  "internalType": "string",
                  "name": "fullName",
                  "type": "string"
                },
                {
                  "internalType": "string",
                  "name": "birthPlace",
                  "type": "string"
                },
                {
                  "internalType": "bool",
                  "name": "isDeathBC",
                  "type": "bool"
                },
                {
                  "internalType": "uint16",
                  "name": "deathYear",
                  "type": "uint16"
                },
                {
                  "internalType": "uint8",
                  "name": "deathMonth",
                  "type": "uint8"
                },
                {
                  "internalType": "uint8",
                  "name": "deathDay",
                  "type": "uint8"
                },
                {
                  "internalType": "string",
                  "name": "deathPlace",
                  "type": "string"
                },
                {
                  "internalType": "string",
                  "name": "story",
                  "type": "string"
                }
              ],
              "internalType": "struct DeepFamily.PersonSupplementInfo",
              "name": "supplementInfo",
              "type": "tuple"
            }
          ],
          "internalType": "struct DeepFamily.PersonCoreInfo",
          "name": "coreInfo",
          "type": "tuple"
        },
        {
          "internalType": "uint256",
          "name": "endorsementCount",
          "type": "uint256"
        },
        {
          "internalType": "string",
          "name": "nftTokenURI",
          "type": "string"
        }
      ],
      "stateMutability": "view",
      "type": "function"
    },
    {
      "inputs": [
        {
          "components": [
            {
              "internalType": "bytes32",
              "name": "fullNameCommitment",
              "type": "bytes32"
            },
            {
              "internalType": "bool",
              "name": "isBirthBC",
              "type": "bool"
            },
            {
              "internalType": "uint16",
              "name": "birthYear",
              "type": "uint16"
            },
            {
              "internalType": "uint8",
              "name": "birthMonth",
              "type": "uint8"
            },
            {
              "internalType": "uint8",
              "name": "birthDay",
              "type": "uint8"
            },
            {
              "internalType": "uint8",
              "name": "gender",
              "type": "uint8"
            }
          ],
          "internalType": "struct DeepFamily.PersonBasicInfo",
          "name": "basicInfo",
          "type": "tuple"
        }
      ],
      "name": "getPersonHash",
      "outputs": [
        {
          "internalType": "bytes32",
          "name": "",
          "type": "bytes32"
        }
      ],
      "stateMutability": "pure",
      "type": "function"
    },
    {
      "inputs": [
        {
          "internalType": "uint256",
          "name": "tokenId",
          "type": "uint256"
        },
        {
          "internalType": "uint256",
          "name": "chunkIndex",
          "type": "uint256"
        }
      ],
      "name": "getStoryChunk",
      "outputs": [
        {
          "components": [
            {
              "internalType": "uint256",
              "name": "chunkIndex",
              "type": "uint256"
            },
            {
              "internalType": "bytes32",
              "name": "chunkHash",
              "type": "bytes32"
            },
            {
              "internalType": "string",
              "name": "content",
              "type": "string"
            },
            {
              "internalType": "uint256",
              "name": "timestamp",
              "type": "uint256"
            },
            {
              "internalType": "address",
              "name": "editor",
              "type": "address"
            },
            {
              "internalType": "uint8",
              "name": "chunkType",
              "type": "uint8"
            },
            {
              "internalType": "string",
              "name": "attachmentCID",
              "type": "string"
            }
          ],
          "internalType": "struct DeepFamily.StoryChunk",
          "name": "chunk",
          "type": "tuple"
        }
      ],
      "stateMutability": "view",
      "type": "function"
    },
    {
      "inputs": [
        {
          "internalType": "uint256",
          "name": "tokenId",
          "type": "uint256"
        }
      ],
      "name": "getStoryMetadata",
      "outputs": [
        {
          "components": [
            {
              "internalType": "uint256",
              "name": "totalChunks",
              "type": "uint256"
            },
            {
              "internalType": "bytes32",
              "name": "fullStoryHash",
              "type": "bytes32"
            },
            {
              "internalType": "uint256",
              "name": "lastUpdateTime",
              "type": "uint256"
            },
            {
              "internalType": "bool",
              "name": "isSealed",
              "type": "bool"
            },
            {
              "internalType": "uint256",
              "name": "totalLength",
              "type": "uint256"
            }
          ],
          "internalType": "struct DeepFamily.StoryMetadata",
          "name": "metadata",
          "type": "tuple"
        }
      ],
      "stateMutability": "view",
      "type": "function"
    },
    {
      "inputs": [
        {
          "internalType": "bytes32",
          "name": "personHash",
          "type": "bytes32"
        },
        {
          "internalType": "uint256",
          "name": "versionIndex",
          "type": "uint256"
        }
      ],
      "name": "getVersionDetails",
      "outputs": [
        {
          "components": [
            {
              "internalType": "bytes32",
              "name": "personHash",
              "type": "bytes32"
            },
            {
              "internalType": "bytes32",
              "name": "fatherHash",
              "type": "bytes32"
            },
            {
              "internalType": "bytes32",
              "name": "motherHash",
              "type": "bytes32"
            },
            {
              "internalType": "uint256",
              "name": "versionIndex",
              "type": "uint256"
            },
            {
              "internalType": "uint256",
              "name": "fatherVersionIndex",
              "type": "uint256"
            },
            {
              "internalType": "uint256",
              "name": "motherVersionIndex",
              "type": "uint256"
            },
            {
              "internalType": "address",
              "name": "addedBy",
              "type": "address"
            },
            {
              "internalType": "uint96",
              "name": "timestamp",
              "type": "uint96"
            },
            {
              "internalType": "string",
              "name": "tag",
              "type": "string"
            },
            {
              "internalType": "string",
              "name": "metadataCID",
              "type": "string"
            }
          ],
          "internalType": "struct DeepFamily.PersonVersion",
          "name": "version",
          "type": "tuple"
        },
        {
          "internalType": "uint256",
          "name": "endorsementCount",
          "type": "uint256"
        },
        {
          "internalType": "uint256",
          "name": "tokenId",
          "type": "uint256"
        }
      ],
      "stateMutability": "view",
      "type": "function"
    },
    {
      "inputs": [
        {
          "internalType": "address",
          "name": "owner",
          "type": "address"
        },
        {
          "internalType": "address",
          "name": "operator",
          "type": "address"
        }
      ],
      "name": "isApprovedForAll",
      "outputs": [
        {
          "internalType": "bool",
          "name": "",
          "type": "bool"
        }
      ],
      "stateMutability": "view",
      "type": "function"
    },
    {
      "inputs": [
        {
          "internalType": "bytes32",
          "name": "parentHash",
          "type": "bytes32"
        },
        {
          "internalType": "uint256",
          "name": "parentVersionIndex",
          "type": "uint256"
        },
        {
          "internalType": "uint256",
          "name": "offset",
          "type": "uint256"
        },
        {
          "internalType": "uint256",
          "name": "limit",
          "type": "uint256"
        }
      ],
      "name": "listChildren",
      "outputs": [
        {
          "internalType": "bytes32[]",
          "name": "childHashes",
          "type": "bytes32[]"
        },
        {
          "internalType": "uint256[]",
          "name": "childVersionIndices",
          "type": "uint256[]"
        },
        {
          "internalType": "uint256",
          "name": "totalCount",
          "type": "uint256"
        },
        {
          "internalType": "bool",
          "name": "hasMore",
          "type": "bool"
        },
        {
          "internalType": "uint256",
          "name": "nextOffset",
          "type": "uint256"
        }
      ],
      "stateMutability": "view",
      "type": "function"
    },
    {
      "inputs": [
        {
          "internalType": "bytes32",
          "name": "personHash",
          "type": "bytes32"
        },
        {
          "internalType": "uint256",
          "name": "offset",
          "type": "uint256"
        },
        {
          "internalType": "uint256",
          "name": "limit",
          "type": "uint256"
        }
      ],
      "name": "listPersonVersions",
      "outputs": [
        {
          "components": [
            {
              "internalType": "bytes32",
              "name": "personHash",
              "type": "bytes32"
            },
            {
              "internalType": "bytes32",
              "name": "fatherHash",
              "type": "bytes32"
            },
            {
              "internalType": "bytes32",
              "name": "motherHash",
              "type": "bytes32"
            },
            {
              "internalType": "uint256",
              "name": "versionIndex",
              "type": "uint256"
            },
            {
              "internalType": "uint256",
              "name": "fatherVersionIndex",
              "type": "uint256"
            },
            {
              "internalType": "uint256",
              "name": "motherVersionIndex",
              "type": "uint256"
            },
            {
              "internalType": "address",
              "name": "addedBy",
              "type": "address"
            },
            {
              "internalType": "uint96",
              "name": "timestamp",
              "type": "uint96"
            },
            {
              "internalType": "string",
              "name": "tag",
              "type": "string"
            },
            {
              "internalType": "string",
              "name": "metadataCID",
              "type": "string"
            }
          ],
          "internalType": "struct DeepFamily.PersonVersion[]",
          "name": "versions",
          "type": "tuple[]"
        },
        {
          "internalType": "uint256",
          "name": "totalVersions",
          "type": "uint256"
        },
        {
          "internalType": "bool",
          "name": "hasMore",
          "type": "bool"
        },
        {
          "internalType": "uint256",
          "name": "nextOffset",
          "type": "uint256"
        }
      ],
      "stateMutability": "view",
      "type": "function"
    },
    {
      "inputs": [
        {
          "internalType": "uint256",
          "name": "tokenId",
          "type": "uint256"
        },
        {
          "internalType": "uint256",
          "name": "offset",
          "type": "uint256"
        },
        {
          "internalType": "uint256",
          "name": "limit",
          "type": "uint256"
        }
      ],
      "name": "listStoryChunks",
      "outputs": [
        {
          "components": [
            {
              "internalType": "uint256",
              "name": "chunkIndex",
              "type": "uint256"
            },
            {
              "internalType": "bytes32",
              "name": "chunkHash",
              "type": "bytes32"
            },
            {
              "internalType": "string",
              "name": "content",
              "type": "string"
            },
            {
              "internalType": "uint256",
              "name": "timestamp",
              "type": "uint256"
            },
            {
              "internalType": "address",
              "name": "editor",
              "type": "address"
            },
            {
              "internalType": "uint8",
              "name": "chunkType",
              "type": "uint8"
            },
            {
              "internalType": "string",
              "name": "attachmentCID",
              "type": "string"
            }
          ],
          "internalType": "struct DeepFamily.StoryChunk[]",
          "name": "chunks",
          "type": "tuple[]"
        },
        {
          "internalType": "uint256",
          "name": "totalChunks",
          "type": "uint256"
        },
        {
          "internalType": "bool",
          "name": "hasMore",
          "type": "bool"
        },
        {
          "internalType": "uint256",
          "name": "nextOffset",
          "type": "uint256"
        }
      ],
      "stateMutability": "view",
      "type": "function"
    },
    {
      "inputs": [
        {
          "internalType": "uint256",
          "name": "tokenId",
          "type": "uint256"
        },
        {
          "internalType": "uint256",
          "name": "offset",
          "type": "uint256"
        },
        {
          "internalType": "uint256",
          "name": "limit",
          "type": "uint256"
        }
      ],
      "name": "listTokenURIHistory",
      "outputs": [
        {
          "internalType": "string[]",
          "name": "uris",
          "type": "string[]"
        },
        {
          "internalType": "uint256",
          "name": "totalCount",
          "type": "uint256"
        },
        {
          "internalType": "bool",
          "name": "hasMore",
          "type": "bool"
        },
        {
          "internalType": "uint256",
          "name": "nextOffset",
          "type": "uint256"
        }
      ],
      "stateMutability": "view",
      "type": "function"
    },
    {
      "inputs": [
        {
          "internalType": "address",
          "name": "user",
          "type": "address"
        },
        {
          "internalType": "uint256",
          "name": "offset",
          "type": "uint256"
        },
        {
          "internalType": "uint256",
          "name": "limit",
          "type": "uint256"
        }
      ],
      "name": "listUserEndorsements",
      "outputs": [
        {
          "internalType": "bytes32[]",
          "name": "personHashes",
          "type": "bytes32[]"
        },
        {
          "internalType": "uint256[]",
          "name": "versionIndices",
          "type": "uint256[]"
        },
        {
          "internalType": "uint256[]",
          "name": "endorsementCounts",
          "type": "uint256[]"
        },
        {
          "internalType": "uint256[]",
          "name": "tokenIds",
          "type": "uint256[]"
        },
        {
          "internalType": "uint256",
          "name": "totalCount",
          "type": "uint256"
        },
        {
          "internalType": "bool",
          "name": "hasMore",
          "type": "bool"
        },
        {
          "internalType": "uint256",
          "name": "nextOffset",
          "type": "uint256"
        }
      ],
      "stateMutability": "view",
      "type": "function"
    },
    {
      "inputs": [
        {
          "internalType": "bytes32",
          "name": "personHash",
          "type": "bytes32"
        },
        {
          "internalType": "uint256",
          "name": "offset",
          "type": "uint256"
        },
        {
          "internalType": "uint256",
          "name": "limit",
          "type": "uint256"
        }
      ],
      "name": "listVersionEndorsements",
      "outputs": [
        {
          "internalType": "uint256[]",
          "name": "versionIndices",
          "type": "uint256[]"
        },
        {
          "internalType": "uint256[]",
          "name": "endorsementCounts",
          "type": "uint256[]"
        },
        {
          "internalType": "uint256[]",
          "name": "tokenIds",
          "type": "uint256[]"
        },
        {
          "internalType": "uint256",
          "name": "totalVersions",
          "type": "uint256"
        },
        {
          "internalType": "bool",
          "name": "hasMore",
          "type": "bool"
        },
        {
          "internalType": "uint256",
          "name": "nextOffset",
          "type": "uint256"
        }
      ],
      "stateMutability": "view",
      "type": "function"
    },
    {
      "inputs": [
        {
          "internalType": "uint256[2]",
          "name": "a",
          "type": "uint256[2]"
        },
        {
          "internalType": "uint256[2][2]",
          "name": "b",
          "type": "uint256[2][2]"
        },
        {
          "internalType": "uint256[2]",
          "name": "c",
          "type": "uint256[2]"
        },
        {
          "internalType": "uint256[5]",
          "name": "publicSignals",
          "type": "uint256[5]"
        },
        {
          "internalType": "bytes32",
          "name": "personHash",
          "type": "bytes32"
        },
        {
          "internalType": "uint256",
          "name": "versionIndex",
          "type": "uint256"
        },
        {
          "internalType": "string",
          "name": "_tokenURI",
          "type": "string"
        },
        {
          "components": [
            {
              "components": [
                {
                  "internalType": "bytes32",
                  "name": "fullNameCommitment",
                  "type": "bytes32"
                },
                {
                  "internalType": "bool",
                  "name": "isBirthBC",
                  "type": "bool"
                },
                {
                  "internalType": "uint16",
                  "name": "birthYear",
                  "type": "uint16"
                },
                {
                  "internalType": "uint8",
                  "name": "birthMonth",
                  "type": "uint8"
                },
                {
                  "internalType": "uint8",
                  "name": "birthDay",
                  "type": "uint8"
                },
                {
                  "internalType": "uint8",
                  "name": "gender",
                  "type": "uint8"
                }
              ],
              "internalType": "struct DeepFamily.PersonBasicInfo",
              "name": "basicInfo",
              "type": "tuple"
            },
            {
              "components": [
                {
                  "internalType": "string",
                  "name": "fullName",
                  "type": "string"
                },
                {
                  "internalType": "string",
                  "name": "birthPlace",
                  "type": "string"
                },
                {
                  "internalType": "bool",
                  "name": "isDeathBC",
                  "type": "bool"
                },
                {
                  "internalType": "uint16",
                  "name": "deathYear",
                  "type": "uint16"
                },
                {
                  "internalType": "uint8",
                  "name": "deathMonth",
                  "type": "uint8"
                },
                {
                  "internalType": "uint8",
                  "name": "deathDay",
                  "type": "uint8"
                },
                {
                  "internalType": "string",
                  "name": "deathPlace",
                  "type": "string"
                },
                {
                  "internalType": "string",
                  "name": "story",
                  "type": "string"
                }
              ],
              "internalType": "struct DeepFamily.PersonSupplementInfo",
              "name": "supplementInfo",
              "type": "tuple"
            }
          ],
          "internalType": "struct DeepFamily.PersonCoreInfo",
          "name": "coreInfo",
          "type": "tuple"
        }
      ],
      "name": "mintPersonNFT",
      "outputs": [],
      "stateMutability": "nonpayable",
      "type": "function"
    },
    {
      "inputs": [],
      "name": "name",
      "outputs": [
        {
          "internalType": "string",
          "name": "",
          "type": "string"
        }
      ],
      "stateMutability": "view",
      "type": "function"
    },
    {
      "inputs": [
        {
          "internalType": "uint256",
          "name": "",
          "type": "uint256"
        }
      ],
      "name": "nftCoreInfo",
      "outputs": [
        {
          "components": [
            {
              "internalType": "bytes32",
              "name": "fullNameCommitment",
              "type": "bytes32"
            },
            {
              "internalType": "bool",
              "name": "isBirthBC",
              "type": "bool"
            },
            {
              "internalType": "uint16",
              "name": "birthYear",
              "type": "uint16"
            },
            {
              "internalType": "uint8",
              "name": "birthMonth",
              "type": "uint8"
            },
            {
              "internalType": "uint8",
              "name": "birthDay",
              "type": "uint8"
            },
            {
              "internalType": "uint8",
              "name": "gender",
              "type": "uint8"
            }
          ],
          "internalType": "struct DeepFamily.PersonBasicInfo",
          "name": "basicInfo",
          "type": "tuple"
        },
        {
          "components": [
            {
              "internalType": "string",
              "name": "fullName",
              "type": "string"
            },
            {
              "internalType": "string",
              "name": "birthPlace",
              "type": "string"
            },
            {
              "internalType": "bool",
              "name": "isDeathBC",
              "type": "bool"
            },
            {
              "internalType": "uint16",
              "name": "deathYear",
              "type": "uint16"
            },
            {
              "internalType": "uint8",
              "name": "deathMonth",
              "type": "uint8"
            },
            {
              "internalType": "uint8",
              "name": "deathDay",
              "type": "uint8"
            },
            {
              "internalType": "string",
              "name": "deathPlace",
              "type": "string"
            },
            {
              "internalType": "string",
              "name": "story",
              "type": "string"
            }
          ],
          "internalType": "struct DeepFamily.PersonSupplementInfo",
          "name": "supplementInfo",
          "type": "tuple"
        }
      ],
      "stateMutability": "view",
      "type": "function"
    },
    {
      "inputs": [],
      "name": "owner",
      "outputs": [
        {
          "internalType": "address",
          "name": "",
          "type": "address"
        }
      ],
      "stateMutability": "view",
      "type": "function"
    },
    {
      "inputs": [
        {
          "internalType": "uint256",
          "name": "tokenId",
          "type": "uint256"
        }
      ],
      "name": "ownerOf",
      "outputs": [
        {
          "internalType": "address",
          "name": "",
          "type": "address"
        }
      ],
      "stateMutability": "view",
      "type": "function"
    },
    {
      "inputs": [
        {
          "internalType": "bytes32",
          "name": "",
          "type": "bytes32"
        },
        {
          "internalType": "uint256",
          "name": "",
          "type": "uint256"
        }
      ],
      "name": "personVersions",
      "outputs": [
        {
          "internalType": "bytes32",
          "name": "personHash",
          "type": "bytes32"
        },
        {
          "internalType": "bytes32",
          "name": "fatherHash",
          "type": "bytes32"
        },
        {
          "internalType": "bytes32",
          "name": "motherHash",
          "type": "bytes32"
        },
        {
          "internalType": "uint256",
          "name": "versionIndex",
          "type": "uint256"
        },
        {
          "internalType": "uint256",
          "name": "fatherVersionIndex",
          "type": "uint256"
        },
        {
          "internalType": "uint256",
          "name": "motherVersionIndex",
          "type": "uint256"
        },
        {
          "internalType": "address",
          "name": "addedBy",
          "type": "address"
        },
        {
          "internalType": "uint96",
          "name": "timestamp",
          "type": "uint96"
        },
        {
          "internalType": "string",
          "name": "tag",
          "type": "string"
        },
        {
          "internalType": "string",
          "name": "metadataCID",
          "type": "string"
        }
      ],
      "stateMutability": "view",
      "type": "function"
    },
    {
      "inputs": [],
      "name": "protocolEndorsementFeeBps",
      "outputs": [
        {
          "internalType": "uint256",
          "name": "",
          "type": "uint256"
        }
      ],
      "stateMutability": "view",
      "type": "function"
    },
    {
      "inputs": [],
      "name": "renounceOwnership",
      "outputs": [],
      "stateMutability": "nonpayable",
      "type": "function"
    },
    {
      "inputs": [
        {
          "internalType": "address",
          "name": "from",
          "type": "address"
        },
        {
          "internalType": "address",
          "name": "to",
          "type": "address"
        },
        {
          "internalType": "uint256",
          "name": "tokenId",
          "type": "uint256"
        }
      ],
      "name": "safeTransferFrom",
      "outputs": [],
      "stateMutability": "nonpayable",
      "type": "function"
    },
    {
      "inputs": [
        {
          "internalType": "address",
          "name": "from",
          "type": "address"
        },
        {
          "internalType": "address",
          "name": "to",
          "type": "address"
        },
        {
          "internalType": "uint256",
          "name": "tokenId",
          "type": "uint256"
        },
        {
          "internalType": "bytes",
          "name": "data",
          "type": "bytes"
        }
      ],
      "name": "safeTransferFrom",
      "outputs": [],
      "stateMutability": "nonpayable",
      "type": "function"
    },
    {
      "inputs": [
        {
          "internalType": "uint256",
          "name": "tokenId",
          "type": "uint256"
        }
      ],
      "name": "sealStory",
      "outputs": [],
      "stateMutability": "nonpayable",
      "type": "function"
    },
    {
      "inputs": [
        {
          "internalType": "address",
          "name": "operator",
          "type": "address"
        },
        {
          "internalType": "bool",
          "name": "approved",
          "type": "bool"
        }
      ],
      "name": "setApprovalForAll",
      "outputs": [],
      "stateMutability": "nonpayable",
      "type": "function"
    },
    {
      "inputs": [
        {
          "internalType": "uint256",
          "name": "",
          "type": "uint256"
        },
        {
          "internalType": "uint256",
          "name": "",
          "type": "uint256"
        }
      ],
      "name": "storyChunks",
      "outputs": [
        {
          "internalType": "uint256",
          "name": "chunkIndex",
          "type": "uint256"
        },
        {
          "internalType": "bytes32",
          "name": "chunkHash",
          "type": "bytes32"
        },
        {
          "internalType": "string",
          "name": "content",
          "type": "string"
        },
        {
          "internalType": "uint256",
          "name": "timestamp",
          "type": "uint256"
        },
        {
          "internalType": "address",
          "name": "editor",
          "type": "address"
        },
        {
          "internalType": "uint8",
          "name": "chunkType",
          "type": "uint8"
        },
        {
          "internalType": "string",
          "name": "attachmentCID",
          "type": "string"
        }
      ],
      "stateMutability": "view",
      "type": "function"
    },
    {
      "inputs": [
        {
          "internalType": "uint256",
          "name": "",
          "type": "uint256"
        }
      ],
      "name": "storyMetadata",
      "outputs": [
        {
          "internalType": "uint256",
          "name": "totalChunks",
          "type": "uint256"
        },
        {
          "internalType": "bytes32",
          "name": "fullStoryHash",
          "type": "bytes32"
        },
        {
          "internalType": "uint256",
          "name": "lastUpdateTime",
          "type": "uint256"
        },
        {
          "internalType": "bool",
          "name": "isSealed",
          "type": "bool"
        },
        {
          "internalType": "uint256",
          "name": "totalLength",
          "type": "uint256"
        }
      ],
      "stateMutability": "view",
      "type": "function"
    },
    {
      "inputs": [
        {
          "internalType": "bytes4",
          "name": "interfaceId",
          "type": "bytes4"
        }
      ],
      "name": "supportsInterface",
      "outputs": [
        {
          "internalType": "bool",
          "name": "",
          "type": "bool"
        }
      ],
      "stateMutability": "view",
      "type": "function"
    },
    {
      "inputs": [],
      "name": "symbol",
      "outputs": [
        {
          "internalType": "string",
          "name": "",
          "type": "string"
        }
      ],
      "stateMutability": "view",
      "type": "function"
    },
    {
      "inputs": [
        {
          "internalType": "uint256",
          "name": "index",
          "type": "uint256"
        }
      ],
      "name": "tokenByIndex",
      "outputs": [
        {
          "internalType": "uint256",
          "name": "",
          "type": "uint256"
        }
      ],
      "stateMutability": "view",
      "type": "function"
    },
    {
      "inputs": [],
      "name": "tokenCounter",
      "outputs": [
        {
          "internalType": "uint256",
          "name": "",
          "type": "uint256"
        }
      ],
      "stateMutability": "view",
      "type": "function"
    },
    {
      "inputs": [
        {
          "internalType": "uint256",
          "name": "",
          "type": "uint256"
        }
      ],
      "name": "tokenIdToPerson",
      "outputs": [
        {
          "internalType": "bytes32",
          "name": "",
          "type": "bytes32"
        }
      ],
      "stateMutability": "view",
      "type": "function"
    },
    {
      "inputs": [
        {
          "internalType": "uint256",
          "name": "",
          "type": "uint256"
        }
      ],
      "name": "tokenIdToVersionIndex",
      "outputs": [
        {
          "internalType": "uint256",
          "name": "",
          "type": "uint256"
        }
      ],
      "stateMutability": "view",
      "type": "function"
    },
    {
      "inputs": [
        {
          "internalType": "address",
          "name": "owner",
          "type": "address"
        },
        {
          "internalType": "uint256",
          "name": "index",
          "type": "uint256"
        }
      ],
      "name": "tokenOfOwnerByIndex",
      "outputs": [
        {
          "internalType": "uint256",
          "name": "",
          "type": "uint256"
        }
      ],
      "stateMutability": "view",
      "type": "function"
    },
    {
      "inputs": [
        {
          "internalType": "uint256",
          "name": "tokenId",
          "type": "uint256"
        }
      ],
      "name": "tokenURI",
      "outputs": [
        {
          "internalType": "string",
          "name": "",
          "type": "string"
        }
      ],
      "stateMutability": "view",
      "type": "function"
    },
    {
      "inputs": [
        {
          "internalType": "uint256",
          "name": "",
          "type": "uint256"
        },
        {
          "internalType": "uint256",
          "name": "",
          "type": "uint256"
        }
      ],
      "name": "tokenURIHistory",
      "outputs": [
        {
          "internalType": "string",
          "name": "",
          "type": "string"
        }
      ],
      "stateMutability": "view",
      "type": "function"
    },
    {
      "inputs": [],
      "name": "totalPersonsCount",
      "outputs": [
        {
          "internalType": "uint256",
          "name": "",
          "type": "uint256"
        }
      ],
      "stateMutability": "view",
      "type": "function"
    },
    {
      "inputs": [],
      "name": "totalSupply",
      "outputs": [
        {
          "internalType": "uint256",
          "name": "",
          "type": "uint256"
        }
      ],
      "stateMutability": "view",
      "type": "function"
    },
    {
      "inputs": [
        {
          "internalType": "address",
          "name": "from",
          "type": "address"
        },
        {
          "internalType": "address",
          "name": "to",
          "type": "address"
        },
        {
          "internalType": "uint256",
          "name": "tokenId",
          "type": "uint256"
        }
      ],
      "name": "transferFrom",
      "outputs": [],
      "stateMutability": "nonpayable",
      "type": "function"
    },
    {
      "inputs": [
        {
          "internalType": "address",
          "name": "newOwner",
          "type": "address"
        }
      ],
      "name": "transferOwnership",
      "outputs": [],
      "stateMutability": "nonpayable",
      "type": "function"
    },
    {
      "inputs": [
        {
          "internalType": "uint256",
          "name": "newBps",
          "type": "uint256"
        }
      ],
      "name": "updateProtocolEndorsementFee",
      "outputs": [],
      "stateMutability": "nonpayable",
      "type": "function"
    },
    {
      "inputs": [
        {
          "internalType": "uint256",
          "name": "tokenId",
          "type": "uint256"
        },
        {
          "internalType": "string",
          "name": "newURI",
          "type": "string"
        }
      ],
      "name": "updateTokenURI",
      "outputs": [],
      "stateMutability": "nonpayable",
      "type": "function"
    },
    {
      "inputs": [
        {
          "internalType": "bytes32",
          "name": "",
          "type": "bytes32"
        },
        {
          "internalType": "uint256",
          "name": "",
          "type": "uint256"
        }
      ],
      "name": "versionEndorsementCount",
      "outputs": [
        {
          "internalType": "uint256",
          "name": "",
          "type": "uint256"
        }
      ],
      "stateMutability": "view",
      "type": "function"
    },
    {
      "inputs": [
        {
          "internalType": "bytes32",
          "name": "",
          "type": "bytes32"
        },
        {
          "internalType": "bytes32",
          "name": "",
          "type": "bytes32"
        }
      ],
      "name": "versionExists",
      "outputs": [
        {
          "internalType": "bool",
          "name": "",
          "type": "bool"
        }
      ],
      "stateMutability": "view",
      "type": "function"
    },
    {
      "inputs": [
        {
          "internalType": "bytes32",
          "name": "",
          "type": "bytes32"
        },
        {
          "internalType": "uint256",
          "name": "",
          "type": "uint256"
        }
      ],
      "name": "versionToTokenId",
      "outputs": [
        {
          "internalType": "uint256",
          "name": "",
          "type": "uint256"
        }
      ],
      "stateMutability": "view",
      "type": "function"
    },
    {
      "stateMutability": "payable",
      "type": "receive"
    }
  ],
  "bytecode": "0x60e06040526101f4601a553480156200001757600080fd5b50604051620078c4380380620078c48339810160408190526200003a91620001e5565b336040518060400160405280600a8152602001694465657046616d696c7960b01b8152506040518060400160405280600681526020016546616d696c7960d01b81525081600090816200008e9190620002d4565b5060016200009d8282620002d4565b5050506001600160a01b038116620000cf57604051631e4fbdf760e01b81526000600482015260240160405180910390fd5b620000da8162000176565b506001600b556001600160a01b0383166200010857604051634c32eccd60e11b815260040160405180910390fd5b6001600160a01b0382166200013057604051635fce01bb60e01b815260040160405180910390fd5b6001600160a01b038116620001585760405163abd45c1f60e01b815260040160405180910390fd5b6001600160a01b0392831660805290821660a0521660c052620003a0565b600a80546001600160a01b038381166001600160a01b0319831681179093556040519116919082907f8be0079c531659141344cd1fd0a4f28419497f9722a3daafe3b4186f6b6457e090600090a35050565b80516001600160a01b0381168114620001e057600080fd5b919050565b600080600060608486031215620001fb57600080fd5b6200020684620001c8565b92506200021660208501620001c8565b91506200022660408501620001c8565b90509250925092565b634e487b7160e01b600052604160045260246000fd5b600181811c908216806200025a57607f821691505b6020821081036200027b57634e487b7160e01b600052602260045260246000fd5b50919050565b601f821115620002cf57600081815260208120601f850160051c81016020861015620002aa5750805b601f850160051c820191505b81811015620002cb57828155600101620002b6565b5050505b505050565b81516001600160401b03811115620002f057620002f06200022f565b620003088162000301845462000245565b8462000281565b602080601f831160018114620003405760008415620003275750858301515b600019600386901b1c1916600185901b178555620002cb565b600085815260208120601f198616915b82811015620003715788860151825594840194600190910190840162000350565b5085821015620003905787850151600019600388901b60f8161c191681555b5050505050600190811b01905550565b60805160a05160c0516174d1620003f3600039600081816105a201526133b3015260008181610b320152613712015260008181610c17015281816138f701528181613a98015261543101526174d16000f3fe6080604052600436106103b05760003560e01c80637aac7e11116101e7578063bcecdf1d1161010d578063d596b1b0116100a0578063f1fad0671161006f578063f1fad06714610cf6578063f2fde38b14610d23578063f74faf6614610d43578063fe9c3c0514610d7b576103ce565b8063d596b1b014610c39578063dbcdc08f14610c71578063e985e9c514610ca4578063f19c58a714610cc4576103ce565b8063c87b56dd116100dc578063c87b56dd14610baf578063c893eb5614610bcf578063d082e38114610bef578063d1486a1b14610c05576103ce565b8063bcecdf1d14610b20578063bd7eef2314610b54578063c090fba214610b6a578063c841eb1f14610b99576103ce565b806395d89b4111610185578063b570b2ab11610154578063b570b2ab14610aaa578063b5c7198d14610aca578063b7fb7ee614610aea578063b88d4fde14610b00576103ce565b806395d89b4114610a35578063a22cb46514610a4a578063a294fd6414610a6a578063b4283e3314610a8a576103ce565b806383af7191116101c157806383af7191146109505780638da5cb5b146109c75780638f2360b3146109e55780638f4ae57c14610a15576103ce565b80637aac7e11146108f35780637e927db51461090857806382260f351461091e576103ce565b80633791b66a116102d75780636352211e1161026a578063715018a611610239578063715018a6146108445780637189567c1461085957806376f0f85d146108bd578063797e57e5146108d3576103ce565b80636352211e146107a157806367b9b3e1146107c1578063690a76bf146107f757806370a0823114610824576103ce565b8063538ffa0b116102a6578063538ffa0b1461070d57806357611dfb1461073a578063583d434f1461076b5780635a4b65d614610781576103ce565b80633791b66a1461066257806342842e0e14610692578063431a342a146106b25780634f6ccce7146106ed576103ce565b8063164e38ee1161034f57806323b872dd1161031e57806323b872dd146105c4578063278d5fce146105e457806328273a2a146106125780632f745c5914610642576103ce565b8063164e38ee1461052657806318160ddd1461055b57806318e97fd1146105705780631d5d7be914610590576103ce565b8063081812fc1161038b578063081812fc14610461578063084979d114610499578063095ea7b3146104cc5780631516fa25146104ee576103ce565b8062eee6a1146103e757806301ffc9a71461040f57806306fdde031461043f576103ce565b366103ce5760405163af9f22fb60e01b815260040160405180910390fd5b60405163af9f22fb60e01b815260040160405180910390fd5b3480156103f357600080fd5b506103fc606481565b6040519081526020015b60405180910390f35b34801561041b57600080fd5b5061042f61042a366004615de7565b610d9b565b6040519015158152602001610406565b34801561044b57600080fd5b50610454610dc6565b6040516104069190615e54565b34801561046d57600080fd5b5061048161047c366004615e67565b610e58565b6040516001600160a01b039091168152602001610406565b3480156104a557600080fd5b506104b96104b4366004615e9c565b610e81565b6040516104069796959493929190615f0a565b3480156104d857600080fd5b506104ec6104e7366004615f77565b611201565b005b3480156104fa57600080fd5b506103fc610509366004615fa1565b601960209081526000928352604080842090915290825290205481565b34801561053257600080fd5b50610546610541366004615fc3565b611210565b60408051928352602083019190915201610406565b34801561056757600080fd5b506008546103fc565b34801561057c57600080fd5b506104ec61058b366004616037565b61125a565b34801561059c57600080fd5b506104817f000000000000000000000000000000000000000000000000000000000000000081565b3480156105d057600080fd5b506104ec6105df366004616082565b611407565b3480156105f057600080fd5b506106046105ff366004615e67565b611497565b6040516104069291906161c8565b34801561061e57600080fd5b5061063261062d366004615fc3565b6117a0565b6040516104069493929190616253565b34801561064e57600080fd5b506103fc61065d366004615f77565b611aa4565b34801561066e57600080fd5b5061068261067d366004615fc3565b611b09565b60405161040694939291906162c6565b34801561069e57600080fd5b506104ec6106ad366004616082565b611cdf565b3480156106be57600080fd5b5061042f6106cd366004615fa1565b600e60209081526000928352604080842090915290825290205460ff1681565b3480156106f957600080fd5b506103fc610708366004615e67565b611cff565b34801561071957600080fd5b506103fc610728366004615e67565b60126020526000908152604090205481565b34801561074657600080fd5b5061075a61075536600461631d565b611d58565b60405161040695949392919061634f565b34801561077757600080fd5b506103fc61271081565b34801561078d57600080fd5b506104ec61079c3660046163a1565b611f5e565b3480156107ad57600080fd5b506104816107bc366004615e67565b6121e7565b3480156107cd57600080fd5b506107e16107dc366004615fa1565b6121f2565b6040516104069a9998979695949392919061643d565b34801561080357600080fd5b506103fc610812366004615e67565b60116020526000908152604090205481565b34801561083057600080fd5b506103fc61083f3660046164b9565b61238c565b34801561085057600080fd5b506104ec6123d4565b34801561086557600080fd5b50610879610874366004615e67565b6123e8565b6040516104069190600060a0820190508251825260208301516020830152604083015160408301526060830151151560608301526080830151608083015292915050565b3480156108c957600080fd5b506103fc61010081565b3480156108df57600080fd5b506104ec6108ee366004615e67565b61249b565b3480156108ff57600080fd5b506103fc601281565b34801561091457600080fd5b506103fc601a5481565b34801561092a57600080fd5b5061093e610939366004615e67565b612589565b60405161040696959493929190616583565b34801561095c57600080fd5b5061099d61096b366004615e67565b6017602052600090815260409020805460018201546002830154600384015460049094015492939192909160ff169085565b6040805195865260208601949094529284019190915215156060830152608082015260a001610406565b3480156109d357600080fd5b50600a546001600160a01b0316610481565b3480156109f157600080fd5b50610a05610a00366004615fc3565b612b34565b60405161040694939291906165f6565b348015610a2157600080fd5b506104ec610a30366004615e67565b612e11565b348015610a4157600080fd5b50610454613068565b348015610a5657600080fd5b506104ec610a6536600461665b565b613077565b348015610a7657600080fd5b506104ec610a853660046166b4565b613082565b348015610a9657600080fd5b506104ec610aa5366004615e67565b613654565b348015610ab657600080fd5b506104ec610ac5366004616786565b6136cf565b348015610ad657600080fd5b506104ec610ae5366004615fa1565b61384a565b348015610af657600080fd5b506103fc6107d081565b348015610b0c57600080fd5b506104ec610b1b3660046168a1565b613dce565b348015610b2c57600080fd5b506104817f000000000000000000000000000000000000000000000000000000000000000081565b348015610b6057600080fd5b506103fc600d5481565b348015610b7657600080fd5b50610b8a610b85366004615fa1565b613de6565b60405161040693929190616960565b348015610ba557600080fd5b506103fc61080081565b348015610bbb57600080fd5b50610454610bca366004615e67565b614060565b348015610bdb57600080fd5b506103fc610bea366004616995565b61410a565b348015610bfb57600080fd5b506103fc60105481565b348015610c1157600080fd5b506104817f000000000000000000000000000000000000000000000000000000000000000081565b348015610c4557600080fd5b506103fc610c54366004615fa1565b601660209081526000928352604080842090915290825290205481565b348015610c7d57600080fd5b50610c91610c8c366004615fa1565b614294565b6040516104069796959493929190616a36565b348015610cb057600080fd5b5061042f610cbf366004616a94565b6143fd565b348015610cd057600080fd5b50610ce4610cdf366004615fc3565b61442b565b60405161040696959493929190616ac7565b348015610d0257600080fd5b50610d16610d11366004615fa1565b61466c565b6040516104069190616b1f565b348015610d2f57600080fd5b506104ec610d3e3660046164b9565b614878565b348015610d4f57600080fd5b506103fc610d5e366004616b32565b600f60209081526000928352604080842090915290825290205481565b348015610d8757600080fd5b50610454610d96366004615fa1565b6148b3565b60006001600160e01b0319821663780e9d6360e01b1480610dc05750610dc08261496c565b92915050565b606060008054610dd590616b55565b80601f0160208091040260200160405190810160405280929190818152602001828054610e0190616b55565b8015610e4e5780601f10610e2357610100808354040283529160200191610e4e565b820191906000526020600020905b815481529060010190602001808311610e3157829003601f168201915b5050505050905090565b6000610e63826149bc565b506000828152600460205260409020546001600160a01b0316610dc0565b6001600160a01b0383166000908152601c6020526040812054606091829182918291908080610eb1848b8b6149f4565b90508060400151600003610f03576040805160008082526020820181815282840182815260608085019384526080808601909652948601519590940151929b50995091975090955090925090506111f4565b80604001516001600160401b03811115610f1f57610f1f61685b565b604051908082528060200260200182016040528015610f48578160200160208202803683370190505b50975080604001516001600160401b03811115610f6757610f6761685b565b604051908082528060200260200182016040528015610f90578160200160208202803683370190505b50965080604001516001600160401b03811115610faf57610faf61685b565b604051908082528060200260200182016040528015610fd8578160200160208202803683370190505b50955080604001516001600160401b03811115610ff757610ff761685b565b604051908082528060200260200182016040528015611020578160200160208202803683370190505b50945060005b81604001518110156111e2576001600160a01b038c166000908152601c602052604081208351611057908490616ba5565b8154811061106757611067616bb8565b90600052602060002001549050808a838151811061108757611087616bb8565b602002602001018181525050600f600082815260200190815260200160002060008e6001600160a01b03166001600160a01b03168152602001908152602001600020548983815181106110dc576110dc616bb8565b60200260200101818152505060008983815181106110fc576110fc616bb8565b602002602001015111156111cf5760196000828152602001908152602001600020600060018b858151811061113357611133616bb8565b60200260200101516111459190616bce565b81526020019081526020016000205488838151811061116657611166616bb8565b6020026020010181815250506016600082815260200190815260200160002060008a848151811061119957611199616bb8565b60200260200101518152602001908152602001600020548783815181106111c2576111c2616bb8565b6020026020010181815250505b50806111da81616be1565b915050611026565b50608081015160609091015190925090505b9397509397509397909450565b61120c828233614af5565b5050565b601b602052826000526040600020602052816000526040600020818154811061123857600080fd5b6000918252602090912060029091020180546001909101549093509150839050565b3361126484614b02565b6001600160a01b03161461128b5760405163daffd8a560e01b815260040160405180910390fd5b6101008111156112ae576040516313f04adb60e01b815260040160405180910390fd5b600083815260146020526040812080546112c790616b55565b80601f01602080910402602001604051908101604052809291908181526020018280546112f390616b55565b80156113405780601f1061131557610100808354040283529160200191611340565b820191906000526020600020905b81548152906001019060200180831161132357829003601f168201915b5050505050905060008151111561137b576000848152601560209081526040822080546001810182559083529120016113798282616c55565b505b6113bb8484848080601f016020809104026020016040519081016040528093929190818152602001838380828437600092019190915250614b1d92505050565b336001600160a01b0316847f121742bae49dddcfbb9763fd1170f0dbc15b13707126182671611bbeeeae7cd88386866040516113f993929190616d37565b60405180910390a350505050565b6001600160a01b03821661143657604051633250574960e11b8152600060048201526024015b60405180910390fd5b6000611443838333614b35565b9050836001600160a01b0316816001600160a01b031614611491576040516364283d7b60e01b81526001600160a01b038086166004830152602482018490528216604482015260640161142d565b50505050565b601360209081526000918252604091829020825160c08101845281548152600182015460ff80821615159483019490945261010080820461ffff168387015263010000008204851660608401526401000000008204851660808401526501000000000090910490931660a082015283519283019093526002810180549192918290829061152390616b55565b80601f016020809104026020016040519081016040528092919081815260200182805461154f90616b55565b801561159c5780601f106115715761010080835404028352916020019161159c565b820191906000526020600020905b81548152906001019060200180831161157f57829003601f168201915b505050505081526020016001820180546115b590616b55565b80601f01602080910402602001604051908101604052809291908181526020018280546115e190616b55565b801561162e5780601f106116035761010080835404028352916020019161162e565b820191906000526020600020905b81548152906001019060200180831161161157829003601f168201915b5050509183525050600282015460ff8082161515602084015261ffff6101008304166040840152630100000082048116606084015264010000000090910416608082015260038201805460a09092019161168790616b55565b80601f01602080910402602001604051908101604052809291908181526020018280546116b390616b55565b80156117005780601f106116d557610100808354040283529160200191611700565b820191906000526020600020905b8154815290600101906020018083116116e357829003601f168201915b5050505050815260200160048201805461171990616b55565b80601f016020809104026020016040519081016040528092919081815260200182805461174590616b55565b80156117925780601f1061176757610100808354040283529160200191611792565b820191906000526020600020905b81548152906001019060200180831161177557829003601f168201915b505050505081525050905082565b60606000808086816117b182614b02565b6001600160a01b0316036117d8576040516307ed98ed60e31b815260040160405180910390fd5b600088815260176020526040812080549550906117f6868a8a6149f4565b90508060400151600003611850576040805160008082526020820190925290611835565b611822615c8a565b81526020019060019003908161181a5790505b50868260800151836060015196509650965096505050611a9a565b80604001516001600160401b0381111561186c5761186c61685b565b6040519080825280602002602001820160405280156118a557816020015b611892615c8a565b81526020019060019003908161188a5790505b50965060005b8160400151811015611a875760008b815260186020526040812083519091906118d5908490616ba5565b81526020019081526020016000206040518060e0016040529081600082015481526020016001820154815260200160028201805461191290616b55565b80601f016020809104026020016040519081016040528092919081815260200182805461193e90616b55565b801561198b5780601f106119605761010080835404028352916020019161198b565b820191906000526020600020905b81548152906001019060200180831161196e57829003601f168201915b50505091835250506003820154602082015260048201546001600160a01b0381166040830152600160a01b900460ff1660608201526005820180546080909201916119d590616b55565b80601f0160208091040260200160405190810160405280929190818152602001828054611a0190616b55565b8015611a4e5780601f10611a2357610100808354040283529160200191611a4e565b820191906000526020600020905b815481529060010190602001808311611a3157829003601f168201915b505050505081525050888281518110611a6957611a69616bb8565b60200260200101819052508080611a7f90616be1565b9150506118ab565b5060808101516060909101519094509250505b5093509350935093565b6000611aaf8361238c565b8210611ae05760405163295f44f760e21b81526001600160a01b03841660048201526024810183905260440161142d565b506001600160a01b03919091166000908152600660209081526040808320938352929052205490565b600083815260156020526040812080546060929091819081611b2c8589896149f4565b90508060400151600003611b80576040805160008082526020820190925290611b65565b6060815260200190600190039081611b505790505b50858260800151836060015195509550955095505050611cd6565b80604001516001600160401b03811115611b9c57611b9c61685b565b604051908082528060200260200182016040528015611bcf57816020015b6060815260200190600190039081611bba5790505b50955060005b8160400151811015611cc35781518390611bf0908390616ba5565b81548110611c0057611c00616bb8565b906000526020600020018054611c1590616b55565b80601f0160208091040260200160405190810160405280929190818152602001828054611c4190616b55565b8015611c8e5780601f10611c6357610100808354040283529160200191611c8e565b820191906000526020600020905b815481529060010190602001808311611c7157829003601f168201915b5050505050878281518110611ca557611ca5616bb8565b60200260200101819052508080611cbb90616be1565b915050611bd5565b5060808101516060909101519093509150505b93509350935093565b611cfa83838360405180602001604052806000815250613dce565b505050565b6000611d0a60085490565b8210611d335760405163295f44f760e21b8152600060048201526024810183905260440161142d565b60088281548110611d4657611d46616bb8565b90600052602060002001549050919050565b6060806000808088611d7d5760405163e5d242ed60e01b815260040160405180910390fd5b6000898152600c6020526040902054881115611dac57604051630dd4272d60e41b815260040160405180910390fd5b6000898152601b602090815260408083208b845290915281208054945090611dd5858a8a6149f4565b90508060400151600003611e16576040805160008082526020820190815281830190925260808301516060909301519098509096509093509150611f539050565b80604001516001600160401b03811115611e3257611e3261685b565b604051908082528060200260200182016040528015611e5b578160200160208202803683370190505b50965080604001516001600160401b03811115611e7a57611e7a61685b565b604051908082528060200260200182016040528015611ea3578160200160208202803683370190505b50955060005b8160400151811015611f4057600083828460000151611ec89190616ba5565b81548110611ed857611ed8616bb8565b906000526020600020906002020190508060000154898381518110611eff57611eff616bb8565b6020026020010181815250508060010154888381518110611f2257611f22616bb8565b60209081029190910101525080611f3881616be1565b915050611ea9565b5060808101516060909101519093509150505b945094509450945094565b611f66614c0a565b33611f7089614b02565b6001600160a01b031614611f975760405163daffd8a560e01b815260040160405180910390fd5b831580611fa5575061080084115b15611fc357604051630ef9fbf360e21b815260040160405180910390fd5b6000888152601760205260409020600381015460ff1615611ff757604051631fcb6b9160e01b815260040160405180910390fd5b8054881461201857604051637df0b86160e01b815260040160405180910390fd5b600061205987878080601f016020809104026020016040519081016040528093929190818152602001838380828437600092019190915250614c3492505050565b9050821580159061206a5750828114155b156120885760405163016c02f160e61b815260040160405180910390fd5b6101008411156120ab57604051630601a0fb60e51b815260040160405180910390fd5b60008a81526018602090815260408083208c8452909152902089815560018101829055600281016120dd888a83616d5d565b504260038201556004810180546001600160a81b0319163360ff60a01b191617600160a01b60ff8c160217905560058101612119868883616d5d565b508254612127906001616ba5565b8355426002840155600483015461213f908890616ba5565b6004840155600183015460408051602081019290925281018b905260608101839052608001604051602081830303815290604052805190602001208360010181905550336001600160a01b03168a8c7fc986c8203b7382f6ec9faf400a0793cbeb1612afb4dfe81fc13c1b04a310aea7858c8c90508e8c8c6040516121c8959493929190616e16565b60405180910390a45050506121dd6001600b55565b5050505050505050565b6000610dc0826149bc565b600c602052816000526040600020818154811061220e57600080fd5b600091825260209091206009909102018054600182015460028301546003840154600485015460058601546006870154600788018054979a5095985093969295919490936001600160a01b03811693600160a01b9091046001600160601b03169290919061227b90616b55565b80601f01602080910402602001604051908101604052809291908181526020018280546122a790616b55565b80156122f45780601f106122c9576101008083540402835291602001916122f4565b820191906000526020600020905b8154815290600101906020018083116122d757829003601f168201915b50505050509080600801805461230990616b55565b80601f016020809104026020016040519081016040528092919081815260200182805461233590616b55565b80156123825780601f1061235757610100808354040283529160200191612382565b820191906000526020600020905b81548152906001019060200180831161236557829003601f168201915b505050505090508a565b60006001600160a01b0382166123b8576040516322718ad960e21b81526000600482015260240161142d565b506001600160a01b031660009081526003602052604090205490565b6123dc614c64565b6123e66000614c91565b565b6040805160a08101825260008082526020820181905291810182905260608101829052608081019190915281600061241f82614b02565b6001600160a01b031603612446576040516307ed98ed60e31b815260040160405180910390fd5b5050600090815260176020908152604091829020825160a08101845281548152600182015492810192909252600281015492820192909252600382015460ff1615156060820152600490910154608082015290565b336124a582614b02565b6001600160a01b0316146124cc5760405163daffd8a560e01b815260040160405180910390fd5b6000818152601760205260409020600381015460ff161561250057604051631fcb6b9160e01b815260040160405180910390fd5b805460000361252257604051637dc66bf560e11b815260040160405180910390fd5b60038101805460ff19166001908117909155426002830155815490820154604051339285927f896066547269dcd0db6295ca6c7f14f927d692103e47c7615259469b74bc7b5d9261257d929190918252602082015260400190565b60405180910390a35050565b600080612594615cc5565b61259c615d1b565b60006060816125aa88614b02565b6001600160a01b0316036125d1576040516307ed98ed60e31b815260040160405180910390fd5b600087815260116020526040902054955085612600576040516307ed98ed60e31b815260040160405180910390fd5b600087815260126020526040812054955061261c600187616bce565b6000888152600c602052604090208054919250908290811061264057612640616bb8565b600091825260209182902060408051610140810182526009909302909101805483526001810154938301939093526002830154908201526003820154606082015260048201546080820152600582015460a082015260068201546001600160a01b03811660c08301526001600160601b03600160a01b9091041660e0820152600782018054919291610100840191906126d890616b55565b80601f016020809104026020016040519081016040528092919081815260200182805461270490616b55565b80156127515780601f1061272657610100808354040283529160200191612751565b820191906000526020600020905b81548152906001019060200180831161273457829003601f168201915b5050505050815260200160088201805461276a90616b55565b80601f016020809104026020016040519081016040528092919081815260200182805461279690616b55565b80156127e35780601f106127b8576101008083540402835291602001916127e3565b820191906000526020600020905b8154815290600101906020018083116127c657829003601f168201915b50505091909252505050600089815260136020908152604091829020825161010080820185528254828601908152600184015460ff8082161515606086015261ffff84830416608086015263010000008204811660a08601526401000000008204811660c0860152650100000000009091041660e084015282528451908101909452600282018054959a509094919392850192918290829061288490616b55565b80601f01602080910402602001604051908101604052809291908181526020018280546128b090616b55565b80156128fd5780601f106128d2576101008083540402835291602001916128fd565b820191906000526020600020905b8154815290600101906020018083116128e057829003601f168201915b5050505050815260200160018201805461291690616b55565b80601f016020809104026020016040519081016040528092919081815260200182805461294290616b55565b801561298f5780601f106129645761010080835404028352916020019161298f565b820191906000526020600020905b81548152906001019060200180831161297257829003601f168201915b5050509183525050600282015460ff8082161515602084015261ffff6101008304166040840152630100000082048116606084015264010000000090910416608082015260038201805460a0909201916129e890616b55565b80601f0160208091040260200160405190810160405280929190818152602001828054612a1490616b55565b8015612a615780601f10612a3657610100808354040283529160200191612a61565b820191906000526020600020905b815481529060010190602001808311612a4457829003601f168201915b50505050508152602001600482018054612a7a90616b55565b80601f0160208091040260200160405190810160405280929190818152602001828054612aa690616b55565b8015612af35780601f10612ac857610100808354040283529160200191612af3565b820191906000526020600020905b815481529060010190602001808311612ad657829003601f168201915b5050509190925250505090525060008881526019602090815260408083208584529091529020549094509250612b2888614060565b91505091939550919395565b6000838152600c6020526040812080546060929091819081612b578589896149f4565b90508060400151600003612baf576040805160008082526020820190925290611b65565b612b83615cc5565b815260200190600190039081612b7b57505060808201516060909201519096509093509150611cd69050565b80604001516001600160401b03811115612bcb57612bcb61685b565b604051908082528060200260200182016040528015612c0457816020015b612bf1615cc5565b815260200190600190039081612be95790505b50955060005b8160400151811015611cc35781518390612c25908390616ba5565b81548110612c3557612c35616bb8565b600091825260209182902060408051610140810182526009909302909101805483526001810154938301939093526002830154908201526003820154606082015260048201546080820152600582015460a082015260068201546001600160a01b03811660c08301526001600160601b03600160a01b9091041660e082015260078201805491929161010084019190612ccd90616b55565b80601f0160208091040260200160405190810160405280929190818152602001828054612cf990616b55565b8015612d465780601f10612d1b57610100808354040283529160200191612d46565b820191906000526020600020905b815481529060010190602001808311612d2957829003601f168201915b50505050508152602001600882018054612d5f90616b55565b80601f0160208091040260200160405190810160405280929190818152602001828054612d8b90616b55565b8015612dd85780601f10612dad57610100808354040283529160200191612dd8565b820191906000526020600020905b815481529060010190602001808311612dbb57829003601f168201915b505050505081525050878281518110612df357612df3616bb8565b60200260200101819052508080612e0990616be1565b915050612c0a565b612e19614c0a565b80612e375760405163e5d242ed60e01b815260040160405180910390fd5b6000818152600f6020908152604080832033845290915281205490819003612e725760405163175f16a160e01b815260040160405180910390fd5b6000612e7f600183616bce565b60008481526019602090815260408083208484529091529020549091508015612ec857612ead600182616bce565b60008581526019602090815260408083208684529091529020555b336000908152601d602090815260408083208784529091529020548015612ffe576000612ef6600183616bce565b336000908152601c602052604081205491925090612f1690600190616bce565b9050808214612fad57336000908152601c60205260408120805483908110612f4057612f40616bb8565b9060005260206000200154905080601c6000336001600160a01b03166001600160a01b031681526020019081526020016000208481548110612f8457612f84616bb8565b6000918252602080832090910192909255338152601d8252604080822093825292909152208390555b336000908152601c60205260409020805480612fcb57612fcb616e4a565b600082815260208082208301600019908101839055909201909255338252601d815260408083208a845290915281205550505b6000858152600f6020908152604080832033808552908352818420939093558051878152429281019290925287917f203917c2c13a758e439cfec1127753207a42e9750a151a07a4f9484e3e5901b6910160405180910390a3505050506130656001600b55565b50565b606060018054610dd590616b55565b61120c338383614ce3565b61308a614c0a565b8484816130aa5760405163e5d242ed60e01b815260040160405180910390fd5b8015806130c457506000828152600c602052604090205481115b156130e257604051630dd4272d60e41b815260040160405180910390fd5b608088013533146131065760405163bd8cc73160e01b815260040160405180910390fd5b60008781526016602090815260408083208984529091529020541561313e57604051634028e5e560e11b815260040160405180910390fd5b6000878152600f6020908152604080832033845290915290205486146131775760405163786bb09f60e11b815260040160405180910390fd5b61010084111561319a576040516313f04adb60e01b815260040160405180910390fd5b6131a760c0840184616e60565b6131b19080616e80565b90506000036131d357604051635f895cef60e11b815260040160405180910390fd5b6101006131e360c0850185616e60565b6131ed9080616e80565b9050111561320e57604051635f895cef60e11b815260040160405180910390fd5b61010061321e60c0850185616e60565b61322c9060e0810190616e80565b9050111561324d5760405163f283c51960e01b815260040160405180910390fd5b61010061325d60c0850185616e60565b61326b906020810190616e80565b9050111561328c576040516367181a3960e11b815260040160405180910390fd5b61010061329c60c0850185616e60565b6132aa9060c0810190616e80565b905011156132cb57604051633769847160e01b815260040160405180910390fd5b600c6132da60c0850185616e60565b6132eb9060a0810190608001616ec6565b60ff16111561330d57604051630282898760e21b815260040160405180910390fd5b601f61331c60c0850185616e60565b61332d9060c081019060a001616ec6565b60ff16111561334f57604051638d177e8360e01b815260040160405180910390fd5b6000613363610bea36869003860186616995565b905087811461338557604051632f38f48f60e21b815260040160405180910390fd5b61339c61339736869003860186616995565b614d82565b6040516334baeab960e01b81526001600160a01b037f000000000000000000000000000000000000000000000000000000000000000016906334baeab9906133ee908f908f908f908f90600401616f07565b602060405180830381865afa15801561340b573d6000803e3d6000fd5b505050506040513d601f19601f8201168201806040525081019061342f9190616f38565b61344c576040516303b2487b60e11b815260040160405180910390fd5b60006134618a358b60015b6020020135614ec2565b90508435811461348457604051632f38f48f60e21b815260040160405180910390fd5b600061349660408c01358c6003613457565b905060006134ee6134aa60c0890189616e60565b6134b49080616e80565b8080601f016020809104026020016040519081016040528093929190818152602001838380828437600092019190915250614c3492505050565b905081811461351057604051632f38f48f60e21b815260040160405180910390fd5b600060106000815461352190616be1565b91905081905590508b60116000838152602001908152602001600020819055508a601260008381526020019081526020016000208190555080601660008e815260200190815260200160002060008d815260200190815260200160002081905550876013600083815260200190815260200160002081816135a29190617135565b9050506135e5818b8b8080601f016020809104026020016040519081016040528093929190818152602001838380828437600092019190915250614b1d92505050565b6135ef3382614f02565b336001600160a01b0316818d7fbce71c21e84db5e7dca78ea57ad63b6c66f74f74efc25e33592370ecf39e093b8e8e8e42604051613630949392919061721e565b60405180910390a4505050505050506136496001600b55565b505050505050505050565b61365c614c64565b6107d081111561367f5760405163499fddb160e01b815260040160405180910390fd5b601a5481810361368d575050565b601a82905560408051828152602081018490527ffa7ce4b1b3c9db75cae1c9e74a97c900b9377a24cc2ac49f55c7466a1404c5e0910160405180910390a15050565b6136d7614c0a565b60c087013533146136fb5760405163bd8cc73160e01b815260040160405180910390fd5b60405163c894e75760e01b81526001600160a01b037f0000000000000000000000000000000000000000000000000000000000000000169063c894e7579061374d908d908d908d908d90600401617249565b602060405180830381865afa15801561376a573d6000803e3d6000fd5b505050506040513d601f19601f8201168201806040525081019061378e9190616f38565b6137ab576040516303b2487b60e11b815260040160405180910390fd5b60006137c26137bd89358a6001613457565b614f1c565b905060006137d96137bd60408b01358b6003613457565b905060006137f06137bd60808c01358c6005613457565b604051909150339084907f3015fe19dc9f8f0d942de39092410a57589dd94d2c9134719335fe04e3695eca90600090a36138318383838c8c8c8c8c8c614f3c565b50505061383e6001600b55565b50505050505050505050565b613852614c0a565b8181816138725760405163e5d242ed60e01b815260040160405180910390fd5b80158061388c57506000828152600c602052604090205481115b156138aa57604051630dd4272d60e41b815260040160405180910390fd5b6000848152600f602090815260408083203384529091529020548381036138e4576040516354d92fcb60e01b815260040160405180910390fd5b60006138f1600186616bce565b905060007f00000000000000000000000000000000000000000000000000000000000000006001600160a01b0316636bf90c716040518163ffffffff1660e01b8152600401602060405180830381865afa158015613953573d6000803e3d6000fd5b505050506040513d601f19601f82011682018060405250810190613977919061727a565b90506000808085156139e0576000613990600188616bce565b60008c815260196020908152604080832084845290915290205490915080156139d9576139be600182616bce565b60008d81526019602090815260408083208684529091529020555b5050613a35565b336000908152601c60205260409020546139fb906001616ba5565b336000818152601d602090815260408083208f8452825280832094909455918152601c825291822080546001810182559083529120018a90555b60008a81526019602090815260408083208884529091528120805460019290613a5f908490616ba5565b909155505060008a8152600f6020908152604080832033845290915290208990558315613d495760008a8152600c6020526040812080547f000000000000000000000000000000000000000000000000000000000000000092919088908110613aca57613aca616bb8565b906000526020600020906009020190506000601660008e815260200190815260200160002060008d815260200190815260200160002054905080600014613b46576000613b1682614b02565b90506001600160a01b03811615613b2f57809650613b40565b60068301546001600160a01b031696505b50613b57565b60068201546001600160a01b031695505b6000612710601a5489613b6a9190617293565b613b7491906172c0565b9050613b808189616bce565b94508415613c27576040516323b872dd60e01b81523360048201526001600160a01b03888116602483015260448201879052600091908616906323b872dd906064016020604051808303816000875af1158015613be1573d6000803e3d6000fd5b505050506040513d601f19601f82011682018060405250810190613c059190616f38565b905080613c2557604051635da1e97760e11b815260040160405180910390fd5b505b8015613d4457600a546001600160a01b0316955085613ca55760405163079cc67960e41b8152336004820152602481018290526001600160a01b038516906379cc679090604401600060405180830381600087803b158015613c8857600080fd5b505af1158015613c9c573d6000803e3d6000fd5b50505050613d44565b6040516323b872dd60e01b81523360048201526001600160a01b03878116602483015260448201839052600091908616906323b872dd906064016020604051808303816000875af1158015613cfe573d6000803e3d6000fd5b505050506040513d601f19601f82011682018060405250810190613d229190616f38565b905080613d4257604051635da1e97760e11b815260040160405180910390fd5b505b505050505b338a7fd797cb7be92b1c65367745105ff0f8f7f0752feac9ef8841c23b1edfa31e2c128b868587613d7a828c616bce565b604080519586526001600160a01b0394851660208701528501929092529091166060830152608082015260a081018890524260c082015260e00160405180910390a3505050505050505061120c6001600b55565b613dd9848484611407565b6114913385858585615503565b613dee615cc5565b600080848481613e115760405163e5d242ed60e01b815260040160405180910390fd5b801580613e2b57506000828152600c602052604090205481115b15613e4957604051630dd4272d60e41b815260040160405180910390fd5b6000613e56600188616bce565b6000898152600c6020526040902080549192509082908110613e7a57613e7a616bb8565b600091825260209182902060408051610140810182526009909302909101805483526001810154938301939093526002830154908201526003820154606082015260048201546080820152600582015460a082015260068201546001600160a01b03811660c08301526001600160601b03600160a01b9091041660e082015260078201805491929161010084019190613f1290616b55565b80601f0160208091040260200160405190810160405280929190818152602001828054613f3e90616b55565b8015613f8b5780601f10613f6057610100808354040283529160200191613f8b565b820191906000526020600020905b815481529060010190602001808311613f6e57829003601f168201915b50505050508152602001600882018054613fa490616b55565b80601f0160208091040260200160405190810160405280929190818152602001828054613fd090616b55565b801561401d5780601f10613ff25761010080835404028352916020019161401d565b820191906000526020600020905b81548152906001019060200180831161400057829003601f168201915b505050919092525050506000898152601960209081526040808320948352938152838220549a825260168152838220998252989098529620549597945050505050565b606061406b826149bc565b506000828152601460205260409020805461408590616b55565b80601f01602080910402602001604051908101604052809291908181526020018280546140b190616b55565b80156140fe5780601f106140d3576101008083540402835291602001916140fe565b820191906000526020600020905b8154815290600101906020018083116140e157829003601f168201915b50505050509050919050565b805160009061412c57604051635f895cef60e11b815260040160405180910390fd5b600c826060015160ff161115614155576040516348c5148960e11b815260040160405180910390fd5b601f826080015160ff16111561417e576040516309eabf7d60e21b815260040160405180910390fd5b81516020830151608082901c916fffffffffffffffffffffffffffffffff16906000906141ac5760006141af565b60015b60ff1660018660a0015160ff16901b6008876080015160ff16901b6010886060015160ff16901b6018896040015161ffff16901b1717171790506141f1615db3565b838152602081018390526040808201839052516320cf0a3760e01b815260009073__$fc5a2451f3e054f75c2faf9b3818033d8b$__906320cf0a379061423b9085906004016172d4565b602060405180830381865af4158015614258573d6000803e3d6000fd5b505050506040513d601f19601f8201168201806040525081019061427c919061727a565b90508061428881614f1c565b98975050505050505050565b6018602090815260009283526040808420909152908252902080546001820154600283018054929391926142c790616b55565b80601f01602080910402602001604051908101604052809291908181526020018280546142f390616b55565b80156143405780601f1061431557610100808354040283529160200191614340565b820191906000526020600020905b81548152906001019060200180831161432357829003601f168201915b5050505060038301546004840154600585018054949592946001600160a01b0383169450600160a01b90920460ff16929161437a90616b55565b80601f01602080910402602001604051908101604052809291908181526020018280546143a690616b55565b80156143f35780601f106143c8576101008083540402835291602001916143f3565b820191906000526020600020905b8154815290600101906020018083116143d657829003601f168201915b5050505050905087565b6001600160a01b03918216600090815260056020908152604080832093909416825291909152205460ff1690565b6000838152600c602052604081205460609182918291808061444e848a8a6149f4565b9050806040015160000361449757604080516000808252602082018181528284019182526060808401909452608085015194909301519199509197509095509092509050614660565b80604001516001600160401b038111156144b3576144b361685b565b6040519080825280602002602001820160405280156144dc578160200160208202803683370190505b50965080604001516001600160401b038111156144fb576144fb61685b565b604051908082528060200260200182016040528015614524578160200160208202803683370190505b50955080604001516001600160401b038111156145435761454361685b565b60405190808252806020026020018201604052801561456c578160200160208202803683370190505b50945060005b816040015181101561464e57815160009061458e908390616ba5565b905061459b816001616ba5565b8983815181106145ad576145ad616bb8565b60209081029190910181019190915260008d8152601982526040808220848352909252205488518990849081106145e6576145e6616bb8565b60209081029190910181019190915260008d81526016909152604081209061460f836001616ba5565b81526020019081526020016000205487838151811061463057614630616bb8565b6020908102919091010152508061464681616be1565b915050614572565b50608081015160609091015190925090505b93975093979195509350565b614674615c8a565b82600061468082614b02565b6001600160a01b0316036146a7576040516307ed98ed60e31b815260040160405180910390fd5b6000848152601760205260409020805484106146d657604051637df0b86160e01b815260040160405180910390fd5b6018600086815260200190815260200160002060008581526020019081526020016000206040518060e0016040529081600082015481526020016001820154815260200160028201805461472990616b55565b80601f016020809104026020016040519081016040528092919081815260200182805461475590616b55565b80156147a25780601f10614777576101008083540402835291602001916147a2565b820191906000526020600020905b81548152906001019060200180831161478557829003601f168201915b50505091835250506003820154602082015260048201546001600160a01b0381166040830152600160a01b900460ff1660608201526005820180546080909201916147ec90616b55565b80601f016020809104026020016040519081016040528092919081815260200182805461481890616b55565b80156148655780601f1061483a57610100808354040283529160200191614865565b820191906000526020600020905b81548152906001019060200180831161484857829003601f168201915b5050505050815250509250505092915050565b614880614c64565b6001600160a01b0381166148aa57604051631e4fbdf760e01b81526000600482015260240161142d565b61306581614c91565b601560205281600052604060002081815481106148cf57600080fd5b906000526020600020016000915091505080546148eb90616b55565b80601f016020809104026020016040519081016040528092919081815260200182805461491790616b55565b80156149645780601f1061493957610100808354040283529160200191614964565b820191906000526020600020905b81548152906001019060200180831161494757829003601f168201915b505050505081565b60006001600160e01b031982166380ac58cd60e01b148061499d57506001600160e01b03198216635b5e139f60e01b145b80610dc057506301ffc9a760e01b6001600160e01b0319831614610dc0565b6000806149c883614b02565b90506001600160a01b038116610dc057604051637e27328960e01b81526004810184905260240161142d565b614a286040518060a00160405280600081526020016000815260200160008152602001600081526020016000151581525090565b6064821115614a4a57604051630327a73960e61b815260040160405180910390fd5b811580614a575750838310155b15614a9b576040518060a001604052808481526020018481526020016000815260200185851015614a885784614a8a565b855b815260006020909101529050614aee565b6000614aa78385616ba5565b905084811115614ab45750835b6040518060a001604052808581526020018281526020018583614ad79190616bce565b815260200182815260200186831015158152509150505b9392505050565b611cfa838383600161562d565b6000908152600260205260409020546001600160a01b031690565b6000828152601460205260409020611cfa8282616c55565b600080614b43858585615733565b90506001600160a01b038116614ba057614b9b84600880546000838152600960205260408120829055600182018355919091527ff3f7a9fe364faab93b216da50a3214154f22a0a2b415b23a84c8169e8b636ee30155565b614bc3565b846001600160a01b0316816001600160a01b031614614bc357614bc38185615827565b6001600160a01b038516614bdf57614bda846158a8565b614c02565b846001600160a01b0316816001600160a01b031614614c0257614c028585615957565b949350505050565b6002600b5403614c2d57604051633ee5aeb560e01b815260040160405180910390fd5b6002600b55565b600081604051602001614c479190617305565b604051602081830303815290604052805190602001209050919050565b600a546001600160a01b031633146123e65760405163118cdaa760e01b815233600482015260240161142d565b600a80546001600160a01b038381166001600160a01b0319831681179093556040519116919082907f8be0079c531659141344cd1fd0a4f28419497f9722a3daafe3b4186f6b6457e090600090a35050565b6001600160a01b038216614d1557604051630b61174360e31b81526001600160a01b038316600482015260240161142d565b6001600160a01b03838116600081815260056020908152604080832094871680845294825291829020805460ff191686151590811790915591519182527f17307eab39ab6107e8899845ad3d59bd9653f200f220920489ca2b5937696c31910160405180910390a3505050565b806020015115614d8f5750565b806040015161ffff16600003614da25750565b6000806000614db0426159a7565b92509250925082846040015161ffff161115614ddf5760405163f8e2f35b60e01b815260040160405180910390fd5b6000846040015161ffff1684614df59190616bce565b90506012811115614e07575050505050565b6012811015614e295760405163073a2dbd60e11b815260040160405180910390fd5b846060015160ff16600003614e3f575050505050565b846060015160ff16831015614e675760405163073a2dbd60e11b815260040160405180910390fd5b846060015160ff16831115614e7d575050505050565b846080015160ff16600003614e93575050505050565b846080015160ff16821015614ebb5760405163073a2dbd60e11b815260040160405180910390fd5b5050505050565b6000608083901c151580614ed95750608082901c15155b15614ef7576040516303b2487b60e11b815260040160405180910390fd5b5060809190911b1790565b61120c8282604051806020016040528060008152506159d2565b600081614f2b57506000919050565b604080516020810184905201614c47565b88614f5a5760405163e5d242ed60e01b815260040160405180910390fd5b88881480614f6757508887145b15614f855760405163591c836760e01b815260040160405180910390fd5b8715801590614f9357508688145b15614fb15760405163591c836760e01b815260040160405180910390fd5b87158015614fbe57508515155b15614fdc57604051631f9510eb60e01b815260040160405180910390fd5b86158015614fe957508415155b156150075760405163782ce69f60e01b815260040160405180910390fd5b6000888152600c602052604090205486111561503657604051631f9510eb60e01b815260040160405180910390fd5b6000878152600c60205260409020548511156150655760405163782ce69f60e01b815260040160405180910390fd5b61010083111561508857604051635fab396360e11b815260040160405180910390fd5b6101008111156150ab57604051630601a0fb60e51b815260040160405180910390fd5b60008989898989898989896040516020016150ce99989796959493929190617317565b60408051601f19818403018152918152815160209283012060008d8152600e845282812082825290935291205490915060ff161561511f576040516314396b6760e11b815260040160405180910390fd5b60008a8152600e602090815260408083208484528252808320805460ff191660011790558c8352600c82528083208151610140810183528e81528084018e90528083018d90526060810194909452608084018b905260a084018a90523360c08501526001600160601b03421660e08501528151601f89018490048402810184019092528782529291610100830191908990899081908401838280828437600092019190915250505090825250604080516020601f8801819004810282018101909252868152918101919087908790819084018382808284376000920182905250939094525050835460018181018655948252602091829020845160099092020190815590830151938101939093555060408101516002830155606081015160038301556080810151600483015560a0810151600583015560c081015160e08201516001600160601b0316600160a01b026001600160a01b0390911617600683015561010081015190919060078201906152989082616c55565b5061012082015160088201906152ae9082616c55565b50505060008a8152600c6020526040902080549081906152cf600183616bce565b815481106152df576152df616bb8565b600091825260209091206003600990920201015589156153465760008a8152601b602090815260408083208b8452825280832081518083019092528e8252818301858152815460018181018455928652939094209151600290930290910191825591519101555b8815615399576000898152601b602090815260408083208a8452825280832081518083019092528e8252818301858152815460018181018455928652939094209151600290930290910191825591519101555b806001036153b757600d80549060006153b183616be1565b91905055505b336001600160a01b0316818c7ff24ca8fe8e48960e559267341f81e7b0f07746d1e98c729930fe251bd2875484428e8d8f8e8e8e6040516153fe979695949392919061736c565b60405180910390a4891580159061541457508815155b156154f6576040516335313c2160e11b81523360048201526000907f00000000000000000000000000000000000000000000000000000000000000006001600160a01b031690636a627842906024016020604051808303816000875af1158015615482573d6000803e3d6000fd5b505050506040513d601f19601f820116820180604052508101906154a6919061727a565b905080156154f457818c336001600160a01b03167fdefc43c3e9b037326c59d7c3f29c0b6b5c94a6fbfcced006b763e74a3115da6d846040516154eb91815260200190565b60405180910390a45b505b5050505050505050505050565b6001600160a01b0383163b15614ebb57604051630a85bd0160e11b81526001600160a01b0384169063150b7a029061554590889088908790879060040161739e565b6020604051808303816000875af1925050508015615580575060408051601f3d908101601f1916820190925261557d918101906173d1565b60015b6155e9573d8080156155ae576040519150601f19603f3d011682016040523d82523d6000602084013e6155b3565b606091505b5080516000036155e157604051633250574960e11b81526001600160a01b038516600482015260240161142d565b805160208201fd5b6001600160e01b03198116630a85bd0160e11b1461562557604051633250574960e11b81526001600160a01b038516600482015260240161142d565b505050505050565b808061564157506001600160a01b03821615155b15615703576000615651846149bc565b90506001600160a01b0383161580159061567d5750826001600160a01b0316816001600160a01b031614155b8015615690575061568e81846143fd565b155b156156b95760405163a9fbf51f60e01b81526001600160a01b038416600482015260240161142d565b81156157015783856001600160a01b0316826001600160a01b03167f8c5be1e5ebec7d5bd14f71427d1e84f3dd0314c0f7b2291e5b200ac8c7c3b92560405160405180910390a45b505b5050600090815260046020526040902080546001600160a01b0319166001600160a01b0392909216919091179055565b60008061573f84614b02565b90506001600160a01b0383161561575b5761575b8184866159ea565b6001600160a01b038116156157995761577860008560008061562d565b6001600160a01b038116600090815260036020526040902080546000190190555b6001600160a01b038516156157c8576001600160a01b0385166000908152600360205260409020805460010190555b60008481526002602052604080822080546001600160a01b0319166001600160a01b0389811691821790925591518793918516917fddf252ad1be2c89b69c2b068fc378daa952ba7f163c4a11628f55a4df523b3ef91a4949350505050565b60006158328361238c565b6000838152600760209081526040808320546001600160a01b038816845260069092529091209192509081831461588957600083815260208281526040808320548584528184208190558352600790915290208290555b6000938452600760209081526040808620869055938552525081205550565b6008546000906158ba90600190616bce565b600083815260096020526040812054600880549394509092849081106158e2576158e2616bb8565b90600052602060002001549050806008838154811061590357615903616bb8565b600091825260208083209091019290925582815260099091526040808220849055858252812055600880548061593b5761593b616e4a565b6001900381819060005260206000200160009055905550505050565b600060016159648461238c565b61596e9190616bce565b6001600160a01b039093166000908152600660209081526040808320868452825280832085905593825260079052919091209190915550565b60008080806159b962015180866172c0565b90506159c481615a4e565b919790965090945092505050565b6159dc8383615bc2565b611cfa336000858585615503565b6159f5838383615c27565b611cfa576001600160a01b038316615a2357604051637e27328960e01b81526004810182905260240161142d565b60405163177e802f60e01b81526001600160a01b03831660048201526024810182905260440161142d565b60008080838162253d8c615a658362010bd96173ee565b615a6f91906173ee565b9050600062023ab1615a82836004617416565b615a8c9190617446565b90506004615a9d8262023ab1617416565b615aa89060036173ee565b615ab29190617446565b615abc9083617474565b9150600062164b09615acf8460016173ee565b615adb90610fa0617416565b615ae59190617446565b90506004615af5826105b5617416565b615aff9190617446565b615b099084617474565b615b1490601f6173ee565b9250600061098f615b26856050617416565b615b309190617446565b905060006050615b428361098f617416565b615b4c9190617446565b615b569086617474565b9050615b63600b83617446565b9450615b7085600c617416565b615b7b8360026173ee565b615b859190617474565b91508483615b94603187617474565b615b9f906064617416565b615ba991906173ee565b615bb391906173ee565b9a919950975095505050505050565b6001600160a01b038216615bec57604051633250574960e11b81526000600482015260240161142d565b6000615bfa83836000614b35565b90506001600160a01b03811615611cfa576040516339e3563760e11b81526000600482015260240161142d565b60006001600160a01b03831615801590614c025750826001600160a01b0316846001600160a01b03161480615c615750615c6184846143fd565b80614c025750506000908152600460205260409020546001600160a01b03908116911614919050565b6040805160e08101825260008082526020820181905260609282018390528282018190526080820181905260a082015260c081019190915290565b604080516101408101825260008082526020820181905291810182905260608082018390526080820183905260a0820183905260c0820183905260e0820192909252610100810182905261012081019190915290565b60408051610100810182526000918101828152606082018390526080820183905260a0820183905260c0820183905260e08201929092529081908152602001615dae6040518061010001604052806060815260200160608152602001600015158152602001600061ffff168152602001600060ff168152602001600060ff16815260200160608152602001606081525090565b905290565b60405180606001604052806003906020820280368337509192915050565b6001600160e01b03198116811461306557600080fd5b600060208284031215615df957600080fd5b8135614aee81615dd1565b60005b83811015615e1f578181015183820152602001615e07565b50506000910152565b60008151808452615e40816020860160208601615e04565b601f01601f19169290920160200192915050565b602081526000614aee6020830184615e28565b600060208284031215615e7957600080fd5b5035919050565b80356001600160a01b0381168114615e9757600080fd5b919050565b600080600060608486031215615eb157600080fd5b615eba84615e80565b95602085013595506040909401359392505050565b600081518084526020808501945080840160005b83811015615eff57815187529582019590820190600101615ee3565b509495945050505050565b60e081526000615f1d60e083018a615ecf565b8281036020840152615f2f818a615ecf565b90508281036040840152615f438189615ecf565b90508281036060840152615f578188615ecf565b6080840196909652505091151560a083015260c090910152949350505050565b60008060408385031215615f8a57600080fd5b615f9383615e80565b946020939093013593505050565b60008060408385031215615fb457600080fd5b50508035926020909101359150565b600080600060608486031215615fd857600080fd5b505081359360208301359350604090920135919050565b60008083601f84011261600157600080fd5b5081356001600160401b0381111561601857600080fd5b60208301915083602082850101111561603057600080fd5b9250929050565b60008060006040848603121561604c57600080fd5b8335925060208401356001600160401b0381111561606957600080fd5b61607586828701615fef565b9497909650939450505050565b60008060006060848603121561609757600080fd5b6160a084615e80565b92506160ae60208501615e80565b9150604084013590509250925092565b8051825260208101511515602083015261ffff604082015116604083015260ff606082015116606083015260ff608082015116608083015260ff60a08201511660a08301525050565b6000610100825181855261611d82860182615e28565b915050602083015184820360208601526161378282615e28565b915050604083015161614d604086018215159052565b506060830151616163606086018261ffff169052565b506080830151616178608086018260ff169052565b5060a083015161618d60a086018260ff169052565b5060c083015184820360c08601526161a58282615e28565b91505060e083015184820360e08601526161bf8282615e28565b95945050505050565b6161d281846160be565b60e060c08201526000614c0260e0830184616107565b80518252602081015160208301526000604082015160e0604085015261621160e0850182615e28565b90506060830151606085015260018060a01b03608084015116608085015260ff60a08401511660a085015260c083015184820360c08601526161bf8282615e28565b6000608082016080835280875180835260a08501915060a08160051b86010192506020808a0160005b838110156162aa57609f198887030185526162988683516161e8565b9550938201939082019060010161627c565b5050850197909752509315156040830152506060015292915050565b6000608082016080835280875180835260a08501915060a08160051b86010192506020808a0160005b838110156162aa57609f1988870301855261630b868351615e28565b955093820193908201906001016162ef565b6000806000806080858703121561633357600080fd5b5050823594602084013594506040840135936060013592509050565b60a08152600061636260a0830188615ecf565b82810360208401526163748188615ecf565b60408401969096525050911515606083015260809091015292915050565b60ff8116811461306557600080fd5b60008060008060008060008060c0898b0312156163bd57600080fd5b883597506020890135965060408901356163d681616392565b955060608901356001600160401b03808211156163f257600080fd5b6163fe8c838d01615fef565b909750955060808b013591508082111561641757600080fd5b506164248b828c01615fef565b999c989b50969995989497949560a00135949350505050565b60006101408c83528b60208401528a60408401528960608401528860808401528760a084015260018060a01b03871660c08401526001600160601b03861660e08401528061010084015261649381840186615e28565b90508281036101208401526164a88185615e28565b9d9c50505050505050505050505050565b6000602082840312156164cb57600080fd5b614aee82615e80565b6000610140825184526020830151602085015260408301516040850152606083015160608501526080830151608085015260a083015160a085015260c083015161652960c08601826001600160a01b03169052565b5060e083015161654460e08601826001600160601b03169052565b5061010080840151828287015261655d83870182615e28565b9250505061012080840151858303828701526165798382615e28565b9695505050505050565b86815285602082015260c0604082015260006165a260c08301876164d4565b82810360608401526165b58187516160be565b602086015160e060c08301526165ce60e0830182616107565b91505084608084015282810360a08401526165e98185615e28565b9998505050505050505050565b6000608082016080835280875180835260a08501915060a08160051b86010192506020808a0160005b838110156162aa57609f1988870301855261663b8683516164d4565b9550938201939082019060010161661f565b801515811461306557600080fd5b6000806040838503121561666e57600080fd5b61667783615e80565b915060208301356166878161664d565b809150509250929050565b8060408101831015610dc057600080fd5b8060808101831015610dc057600080fd5b60008060008060008060008060006102208a8c0312156166d357600080fd5b6166dd8b8b616692565b98506166ec8b60408c016166a3565b97506166fb8b60c08c01616692565b96506101a08a018b81111561670f57600080fd5b6101008b0196503594506101c08a013593506101e08a01356001600160401b038082111561673c57600080fd5b6167488d838e01615fef565b90955093506102008c013591508082111561676257600080fd5b508a0160e0818d03121561677557600080fd5b809150509295985092959850929598565b6000806000806000806000806000806102608b8d0312156167a657600080fd5b6167b08c8c616692565b99506167bf8c60408d016166a3565b98506167ce8c60c08d01616692565b97506101e08b018c8111156167e257600080fd5b6101008c0197503595506102008b013594506102208b01356001600160401b038082111561680f57600080fd5b61681b8e838f01615fef565b90965094506102408d013591508082111561683557600080fd5b506168428d828e01615fef565b915080935050809150509295989b9194979a5092959850565b634e487b7160e01b600052604160045260246000fd5b604051601f8201601f191681016001600160401b03811182821017156168995761689961685b565b604052919050565b600080600080608085870312156168b757600080fd5b6168c085615e80565b935060206168cf818701615e80565b93506040860135925060608601356001600160401b03808211156168f257600080fd5b818801915088601f83011261690657600080fd5b8135818111156169185761691861685b565b61692a601f8201601f19168501616871565b9150808252898482850101111561694057600080fd5b808484018584013760008482840101525080935050505092959194509250565b60608152600061697360608301866164d4565b60208301949094525060400152919050565b61ffff8116811461306557600080fd5b600060c082840312156169a757600080fd5b60405160c081018181106001600160401b03821117156169c9576169c961685b565b6040528235815260208301356169de8161664d565b602082015260408301356169f181616985565b60408201526060830135616a0481616392565b60608201526080830135616a1781616392565b608082015260a0830135616a2a81616392565b60a08201529392505050565b87815286602082015260e060408201526000616a5560e0830188615e28565b606083018790526001600160a01b038616608084015260ff851660a084015282810360c0840152616a868185615e28565b9a9950505050505050505050565b60008060408385031215616aa757600080fd5b616ab083615e80565b9150616abe60208401615e80565b90509250929050565b60c081526000616ada60c0830189615ecf565b8281036020840152616aec8189615ecf565b90508281036040840152616b008188615ecf565b60608401969096525050911515608083015260a0909101529392505050565b602081526000614aee60208301846161e8565b60008060408385031215616b4557600080fd5b82359150616abe60208401615e80565b600181811c90821680616b6957607f821691505b602082108103616b8957634e487b7160e01b600052602260045260246000fd5b50919050565b634e487b7160e01b600052601160045260246000fd5b80820180821115610dc057610dc0616b8f565b634e487b7160e01b600052603260045260246000fd5b81810381811115610dc057610dc0616b8f565b600060018201616bf357616bf3616b8f565b5060010190565b601f821115611cfa57600081815260208120601f850160051c81016020861015616c215750805b601f850160051c820191505b8181101561562557828155600101616c2d565b600019600383901b1c191660019190911b1790565b81516001600160401b03811115616c6e57616c6e61685b565b616c8281616c7c8454616b55565b84616bfa565b602080601f831160018114616cb15760008415616c9f5750858301515b616ca98582616c40565b865550615625565b600085815260208120601f198616915b82811015616ce057888601518255948401946001909101908401616cc1565b5085821015616cfe5787850151600019600388901b60f8161c191681555b5050505050600190811b01905550565b81835281816020850137506000828201602090810191909152601f909101601f19169091010190565b604081526000616d4a6040830186615e28565b8281036020840152616579818587616d0e565b6001600160401b03831115616d7457616d7461685b565b616d8883616d828354616b55565b83616bfa565b6000601f841160018114616db65760008515616da45750838201355b616dae8682616c40565b845550614ebb565b600083815260209020601f19861690835b82811015616de75786850135825560209485019460019092019101616dc7565b5086821015616e045760001960f88860031b161c19848701351681555b505060018560011b0183555050505050565b85815284602082015260ff84166040820152608060608201526000616e3f608083018486616d0e565b979650505050505050565b634e487b7160e01b600052603160045260246000fd5b6000823560fe19833603018112616e7657600080fd5b9190910192915050565b6000808335601e19843603018112616e9757600080fd5b8301803591506001600160401b03821115616eb157600080fd5b60200191503681900382131561603057600080fd5b600060208284031215616ed857600080fd5b8135614aee81616392565b8060005b600281101561149157604080838637938401939190910190600101616ee7565b6101a081016040868337616f1e6040830186616ee3565b60408460c084013760a08361010084013795945050505050565b600060208284031215616f4a57600080fd5b8151614aee8161664d565b60008135610dc08161664d565b60008135610dc081616985565b60008135610dc081616392565b616f868283616e80565b6001600160401b03811115616f9d57616f9d61685b565b616fb181616fab8554616b55565b85616bfa565b6000601f821160018114616fdf5760008315616fcd5750838201355b616fd78482616c40565b865550617039565b600085815260209020601f19841690835b828110156170105786850135825560209485019460019092019101616ff0565b508482101561702d5760001960f88660031b161c19848701351681555b505060018360011b0185555b5050505061704a6020830183616e80565b617058818360018601616d5d565b50506002810161708161706d60408501616f55565b825490151560ff1660ff1991909116178255565b6170a861709060608501616f62565b825462ffff00191660089190911b62ffff0016178255565b6170d16170b760808501616f6f565b825463ff000000191660189190911b63ff00000016178255565b6170fc6170e060a08501616f6f565b825464ff00000000191660209190911b64ff0000000016178255565b5061710a60c0830183616e80565b617118818360038601616d5d565b505061712760e0830183616e80565b611491818360048601616d5d565b8135815560018101602083013561714b8161664d565b815460ff191660ff8215151617825550604083013561716981616985565b815462ffff001916600882901b62ffff001617825550606083013561718d81616392565b815463ff0000001916601882901b63ff000000161782555060808301356171b381616392565b815464ff000000001916602082901b64ff00000000161782555060a08301356171db81616392565b815465ff0000000000191660289190911b65ff00000000001617905560c08201353683900360fe1901811261720f57600080fd5b611cfa81840160028401616f7c565b848152606060208201526000617238606083018587616d0e565b905082604083015295945050505050565b6101e0810160408683376172606040830186616ee3565b60408460c084013760e08361010084013795945050505050565b60006020828403121561728c57600080fd5b5051919050565b8082028115828204841417610dc057610dc0616b8f565b634e487b7160e01b600052601260045260246000fd5b6000826172cf576172cf6172aa565b500490565b60608101818360005b60038110156172fc5781518352602092830192909101906001016172dd565b50505092915050565b60008251616e76818460208701615e04565b89815288602082015287604082015286606082015285608082015260e060a0820152600061734960e083018688616d0e565b82810360c084015261735c818587616d0e565b9c9b505050505050505050505050565b87815286602082015285604082015284606082015283608082015260c060a082015260006165e960c083018486616d0e565b6001600160a01b038581168252841660208201526040810183905260806060820181905260009061657990830184615e28565b6000602082840312156173e357600080fd5b8151614aee81615dd1565b808201828112600083128015821682158216171561740e5761740e616b8f565b505092915050565b80820260008212600160ff1b8414161561743257617432616b8f565b8181058314821517610dc057610dc0616b8f565b600082617455576174556172aa565b600160ff1b82146000198414161561746f5761746f616b8f565b500590565b818103600083128015838313168383128216171561749457617494616b8f565b509291505056fea2646970667358221220b3965a728f06c0b3c9a4f436fdb0063313319c0dd7e2ffcd5cc4c9ba1cdc64f964736f6c63430008140033",
  "linkReferences": {
    "poseidon-solidity/PoseidonT4.sol": {
      "PoseidonT4": [
        {
          "length": 20,
          "start": 17926
        }
      ]
    }
  },
  "deployedLinkReferences": {
    "poseidon-solidity/PoseidonT4.sol": {
      "PoseidonT4": [
        {
          "length": 20,
          "start": 16915
        }
      ]
    }
  }
}