{
  "_format": "hh-sol-artifact-1",
  "contractName": "DeepFamily",
  "sourceName": "contracts/DeepFamily.sol",
  "abi": [
    {
      "inputs": [
        {
          "internalType": "address",
          "name": "_deepFamilyTokenContract",
          "type": "address"
        },
        {
          "internalType": "address",
          "name": "_personHashVerifier",
          "type": "address"
        },
        {
          "internalType": "address",
          "name": "_namePoseidonVerifier",
          "type": "address"
        }
      ],
      "stateMutability": "nonpayable",
      "type": "constructor"
    },
    {
      "inputs": [],
      "name": "AlreadyEndorsed",
      "type": "error"
    },
    {
      "inputs": [],
      "name": "BasicInfoMismatch",
      "type": "error"
    },
    {
      "inputs": [],
      "name": "CallerMismatch",
      "type": "error"
    },
    {
      "inputs": [],
      "name": "ChunkHashMismatch",
      "type": "error"
    },
    {
      "inputs": [],
      "name": "ChunkIndexOutOfRange",
      "type": "error"
    },
    {
      "inputs": [],
      "name": "DirectETHNotAccepted",
      "type": "error"
    },
    {
      "inputs": [],
      "name": "DuplicateVersion",
      "type": "error"
    },
    {
      "inputs": [],
      "name": "ERC721EnumerableForbiddenBatchMint",
      "type": "error"
    },
    {
      "inputs": [
        {
          "internalType": "address",
          "name": "sender",
          "type": "address"
        },
        {
          "internalType": "uint256",
          "name": "tokenId",
          "type": "uint256"
        },
        {
          "internalType": "address",
          "name": "owner",
          "type": "address"
        }
      ],
      "name": "ERC721IncorrectOwner",
      "type": "error"
    },
    {
      "inputs": [
        {
          "internalType": "address",
          "name": "operator",
          "type": "address"
        },
        {
          "internalType": "uint256",
          "name": "tokenId",
          "type": "uint256"
        }
      ],
      "name": "ERC721InsufficientApproval",
      "type": "error"
    },
    {
      "inputs": [
        {
          "internalType": "address",
          "name": "approver",
          "type": "address"
        }
      ],
      "name": "ERC721InvalidApprover",
      "type": "error"
    },
    {
      "inputs": [
        {
          "internalType": "address",
          "name": "operator",
          "type": "address"
        }
      ],
      "name": "ERC721InvalidOperator",
      "type": "error"
    },
    {
      "inputs": [
        {
          "internalType": "address",
          "name": "owner",
          "type": "address"
        }
      ],
      "name": "ERC721InvalidOwner",
      "type": "error"
    },
    {
      "inputs": [
        {
          "internalType": "address",
          "name": "receiver",
          "type": "address"
        }
      ],
      "name": "ERC721InvalidReceiver",
      "type": "error"
    },
    {
      "inputs": [
        {
          "internalType": "address",
          "name": "sender",
          "type": "address"
        }
      ],
      "name": "ERC721InvalidSender",
      "type": "error"
    },
    {
      "inputs": [
        {
          "internalType": "uint256",
          "name": "tokenId",
          "type": "uint256"
        }
      ],
      "name": "ERC721NonexistentToken",
      "type": "error"
    },
    {
      "inputs": [
        {
          "internalType": "address",
          "name": "owner",
          "type": "address"
        },
        {
          "internalType": "uint256",
          "name": "index",
          "type": "uint256"
        }
      ],
      "name": "ERC721OutOfBoundsIndex",
      "type": "error"
    },
    {
      "inputs": [],
      "name": "EndorsementFeeTransferFailed",
      "type": "error"
    },
    {
      "inputs": [],
      "name": "FatherAlreadySet",
      "type": "error"
    },
    {
      "inputs": [],
      "name": "InvalidBirthDay",
      "type": "error"
    },
    {
      "inputs": [],
      "name": "InvalidBirthMonth",
      "type": "error"
    },
    {
      "inputs": [],
      "name": "InvalidBirthPlace",
      "type": "error"
    },
    {
      "inputs": [],
      "name": "InvalidCIDLength",
      "type": "error"
    },
    {
      "inputs": [],
      "name": "InvalidChunkContent",
      "type": "error"
    },
    {
      "inputs": [],
      "name": "InvalidDeathDay",
      "type": "error"
    },
    {
      "inputs": [],
      "name": "InvalidDeathMonth",
      "type": "error"
    },
    {
      "inputs": [],
      "name": "InvalidDeathPlace",
      "type": "error"
    },
    {
      "inputs": [],
      "name": "InvalidFatherVersionIndex",
      "type": "error"
    },
    {
      "inputs": [],
      "name": "InvalidFullName",
      "type": "error"
    },
    {
      "inputs": [],
      "name": "InvalidMotherVersionIndex",
      "type": "error"
    },
    {
      "inputs": [],
      "name": "InvalidParentHash",
      "type": "error"
    },
    {
      "inputs": [],
      "name": "InvalidPersonHash",
      "type": "error"
    },
    {
      "inputs": [],
      "name": "InvalidStory",
      "type": "error"
    },
    {
      "inputs": [],
      "name": "InvalidTagLength",
      "type": "error"
    },
    {
      "inputs": [],
      "name": "InvalidTokenId",
      "type": "error"
    },
    {
      "inputs": [],
      "name": "InvalidTokenURI",
      "type": "error"
    },
    {
      "inputs": [],
      "name": "InvalidVersionIndex",
      "type": "error"
    },
    {
      "inputs": [],
      "name": "InvalidZKProof",
      "type": "error"
    },
    {
      "inputs": [],
      "name": "MotherAlreadySet",
      "type": "error"
    },
    {
      "inputs": [],
      "name": "MustBeNFTHolder",
      "type": "error"
    },
    {
      "inputs": [],
      "name": "MustEndorseVersionFirst",
      "type": "error"
    },
    {
      "inputs": [],
      "name": "NameVerifierNotSet",
      "type": "error"
    },
    {
      "inputs": [],
      "name": "NoParentUpdate",
      "type": "error"
    },
    {
      "inputs": [],
      "name": "NotEndorsed",
      "type": "error"
    },
    {
      "inputs": [
        {
          "internalType": "address",
          "name": "owner",
          "type": "address"
        }
      ],
      "name": "OwnableInvalidOwner",
      "type": "error"
    },
    {
      "inputs": [
        {
          "internalType": "address",
          "name": "account",
          "type": "address"
        }
      ],
      "name": "OwnableUnauthorizedAccount",
      "type": "error"
    },
    {
      "inputs": [],
      "name": "PageSizeExceedsLimit",
      "type": "error"
    },
    {
      "inputs": [],
      "name": "ProtocolFeeTooHigh",
      "type": "error"
    },
    {
      "inputs": [],
      "name": "ReentrancyGuardReentrantCall",
      "type": "error"
    },
    {
      "inputs": [],
      "name": "StoryAlreadySealed",
      "type": "error"
    },
    {
      "inputs": [],
      "name": "StoryNotFound",
      "type": "error"
    },
    {
      "inputs": [],
      "name": "TokenContractNotSet",
      "type": "error"
    },
    {
      "inputs": [],
      "name": "UnauthorizedParentUpdate",
      "type": "error"
    },
    {
      "inputs": [],
      "name": "VerifierNotSet",
      "type": "error"
    },
    {
      "inputs": [],
      "name": "VersionAlreadyMinted",
      "type": "error"
    },
    {
      "anonymous": false,
      "inputs": [
        {
          "indexed": true,
          "internalType": "address",
          "name": "owner",
          "type": "address"
        },
        {
          "indexed": true,
          "internalType": "address",
          "name": "approved",
          "type": "address"
        },
        {
          "indexed": true,
          "internalType": "uint256",
          "name": "tokenId",
          "type": "uint256"
        }
      ],
      "name": "Approval",
      "type": "event"
    },
    {
      "anonymous": false,
      "inputs": [
        {
          "indexed": true,
          "internalType": "address",
          "name": "owner",
          "type": "address"
        },
        {
          "indexed": true,
          "internalType": "address",
          "name": "operator",
          "type": "address"
        },
        {
          "indexed": false,
          "internalType": "bool",
          "name": "approved",
          "type": "bool"
        }
      ],
      "name": "ApprovalForAll",
      "type": "event"
    },
    {
      "anonymous": false,
      "inputs": [
        {
          "indexed": true,
          "internalType": "bytes32",
          "name": "personHash",
          "type": "bytes32"
        },
        {
          "indexed": true,
          "internalType": "address",
          "name": "user",
          "type": "address"
        },
        {
          "indexed": false,
          "internalType": "uint256",
          "name": "versionIndex",
          "type": "uint256"
        },
        {
          "indexed": false,
          "internalType": "uint256",
          "name": "timestamp",
          "type": "uint256"
        }
      ],
      "name": "EndorsementCancelled",
      "type": "event"
    },
    {
      "anonymous": false,
      "inputs": [
        {
          "indexed": true,
          "internalType": "address",
          "name": "previousOwner",
          "type": "address"
        },
        {
          "indexed": true,
          "internalType": "address",
          "name": "newOwner",
          "type": "address"
        }
      ],
      "name": "OwnershipTransferred",
      "type": "event"
    },
    {
      "anonymous": false,
      "inputs": [
        {
          "indexed": true,
          "internalType": "bytes32",
          "name": "personHash",
          "type": "bytes32"
        },
        {
          "indexed": true,
          "internalType": "address",
          "name": "prover",
          "type": "address"
        }
      ],
      "name": "PersonHashZKVerified",
      "type": "event"
    },
    {
      "anonymous": false,
      "inputs": [
        {
          "indexed": true,
          "internalType": "bytes32",
          "name": "personHash",
          "type": "bytes32"
        },
        {
          "indexed": true,
          "internalType": "uint256",
          "name": "tokenId",
          "type": "uint256"
        },
        {
          "indexed": true,
          "internalType": "address",
          "name": "owner",
          "type": "address"
        },
        {
          "indexed": false,
          "internalType": "uint256",
          "name": "versionIndex",
          "type": "uint256"
        },
        {
          "indexed": false,
          "internalType": "string",
          "name": "tokenURI",
          "type": "string"
        },
        {
          "indexed": false,
          "internalType": "uint256",
          "name": "timestamp",
          "type": "uint256"
        }
      ],
      "name": "PersonNFTMinted",
      "type": "event"
    },
    {
      "anonymous": false,
      "inputs": [
        {
          "indexed": true,
          "internalType": "bytes32",
          "name": "personHash",
          "type": "bytes32"
        },
        {
          "indexed": true,
          "internalType": "uint256",
          "name": "versionIndex",
          "type": "uint256"
        },
        {
          "indexed": false,
          "internalType": "bytes32",
          "name": "fatherHash",
          "type": "bytes32"
        },
        {
          "indexed": false,
          "internalType": "uint256",
          "name": "fatherVersionIndex",
          "type": "uint256"
        },
        {
          "indexed": false,
          "internalType": "bytes32",
          "name": "motherHash",
          "type": "bytes32"
        },
        {
          "indexed": false,
          "internalType": "uint256",
          "name": "motherVersionIndex",
          "type": "uint256"
        },
        {
          "indexed": true,
          "internalType": "address",
          "name": "updater",
          "type": "address"
        }
      ],
      "name": "PersonParentsUpdated",
      "type": "event"
    },
    {
      "anonymous": false,
      "inputs": [
        {
          "indexed": true,
          "internalType": "bytes32",
          "name": "personHash",
          "type": "bytes32"
        },
        {
          "indexed": true,
          "internalType": "uint256",
          "name": "versionIndex",
          "type": "uint256"
        },
        {
          "indexed": true,
          "internalType": "address",
          "name": "addedBy",
          "type": "address"
        },
        {
          "indexed": false,
          "internalType": "uint256",
          "name": "timestamp",
          "type": "uint256"
        },
        {
          "indexed": false,
          "internalType": "bytes32",
          "name": "fatherHash",
          "type": "bytes32"
        },
        {
          "indexed": false,
          "internalType": "uint256",
          "name": "fatherVersionIndex",
          "type": "uint256"
        },
        {
          "indexed": false,
          "internalType": "bytes32",
          "name": "motherHash",
          "type": "bytes32"
        },
        {
          "indexed": false,
          "internalType": "uint256",
          "name": "motherVersionIndex",
          "type": "uint256"
        },
        {
          "indexed": false,
          "internalType": "string",
          "name": "tag",
          "type": "string"
        }
      ],
      "name": "PersonVersionAdded",
      "type": "event"
    },
    {
      "anonymous": false,
      "inputs": [
        {
          "indexed": true,
          "internalType": "bytes32",
          "name": "personHash",
          "type": "bytes32"
        },
        {
          "indexed": true,
          "internalType": "address",
          "name": "endorser",
          "type": "address"
        },
        {
          "indexed": false,
          "internalType": "uint256",
          "name": "versionIndex",
          "type": "uint256"
        },
        {
          "indexed": false,
          "internalType": "address",
          "name": "recipient",
          "type": "address"
        },
        {
          "indexed": false,
          "internalType": "uint256",
          "name": "recipientShare",
          "type": "uint256"
        },
        {
          "indexed": false,
          "internalType": "address",
          "name": "protocolRecipient",
          "type": "address"
        },
        {
          "indexed": false,
          "internalType": "uint256",
          "name": "protocolShare",
          "type": "uint256"
        },
        {
          "indexed": false,
          "internalType": "uint256",
          "name": "endorsementFee",
          "type": "uint256"
        },
        {
          "indexed": false,
          "internalType": "uint256",
          "name": "timestamp",
          "type": "uint256"
        }
      ],
      "name": "PersonVersionEndorsed",
      "type": "event"
    },
    {
      "anonymous": false,
      "inputs": [
        {
          "indexed": false,
          "internalType": "uint256",
          "name": "previousBps",
          "type": "uint256"
        },
        {
          "indexed": false,
          "internalType": "uint256",
          "name": "newBps",
          "type": "uint256"
        }
      ],
      "name": "ProtocolEndorsementFeeUpdated",
      "type": "event"
    },
    {
      "anonymous": false,
      "inputs": [
        {
          "indexed": true,
          "internalType": "uint256",
          "name": "tokenId",
          "type": "uint256"
        },
        {
          "indexed": true,
          "internalType": "uint256",
          "name": "chunkIndex",
          "type": "uint256"
        },
        {
          "indexed": false,
          "internalType": "bytes32",
          "name": "chunkHash",
          "type": "bytes32"
        },
        {
          "indexed": true,
          "internalType": "address",
          "name": "editor",
          "type": "address"
        },
        {
          "indexed": false,
          "internalType": "uint256",
          "name": "contentLength",
          "type": "uint256"
        },
        {
          "indexed": false,
          "internalType": "uint8",
          "name": "chunkType",
          "type": "uint8"
        },
        {
          "indexed": false,
          "internalType": "string",
          "name": "attachmentCID",
          "type": "string"
        }
      ],
      "name": "StoryChunkAdded",
      "type": "event"
    },
    {
      "anonymous": false,
      "inputs": [
        {
          "indexed": true,
          "internalType": "uint256",
          "name": "tokenId",
          "type": "uint256"
        },
        {
          "indexed": false,
          "internalType": "uint256",
          "name": "totalChunks",
          "type": "uint256"
        },
        {
          "indexed": false,
          "internalType": "bytes32",
          "name": "fullStoryHash",
          "type": "bytes32"
        },
        {
          "indexed": true,
          "internalType": "address",
          "name": "sealer",
          "type": "address"
        }
      ],
      "name": "StorySealed",
      "type": "event"
    },
    {
      "anonymous": false,
      "inputs": [
        {
          "indexed": true,
          "internalType": "address",
          "name": "miner",
          "type": "address"
        },
        {
          "indexed": true,
          "internalType": "bytes32",
          "name": "personHash",
          "type": "bytes32"
        },
        {
          "indexed": true,
          "internalType": "uint256",
          "name": "versionIndex",
          "type": "uint256"
        },
        {
          "indexed": false,
          "internalType": "uint256",
          "name": "reward",
          "type": "uint256"
        }
      ],
      "name": "TokenRewardDistributed",
      "type": "event"
    },
    {
      "anonymous": false,
      "inputs": [
        {
          "indexed": true,
          "internalType": "uint256",
          "name": "tokenId",
          "type": "uint256"
        },
        {
          "indexed": true,
          "internalType": "address",
          "name": "owner",
          "type": "address"
        },
        {
          "indexed": false,
          "internalType": "string",
          "name": "oldURI",
          "type": "string"
        },
        {
          "indexed": false,
          "internalType": "string",
          "name": "newURI",
          "type": "string"
        }
      ],
      "name": "TokenURIUpdated",
      "type": "event"
    },
    {
      "anonymous": false,
      "inputs": [
        {
          "indexed": true,
          "internalType": "address",
          "name": "from",
          "type": "address"
        },
        {
          "indexed": true,
          "internalType": "address",
          "name": "to",
          "type": "address"
        },
        {
          "indexed": true,
          "internalType": "uint256",
          "name": "tokenId",
          "type": "uint256"
        }
      ],
      "name": "Transfer",
      "type": "event"
    },
    {
      "stateMutability": "payable",
      "type": "fallback"
    },
    {
      "inputs": [],
      "name": "DEEP_FAMILY_TOKEN_CONTRACT",
      "outputs": [
        {
          "internalType": "address",
          "name": "",
          "type": "address"
        }
      ],
      "stateMutability": "view",
      "type": "function"
    },
    {
      "inputs": [],
      "name": "FEE_BPS_DENOMINATOR",
      "outputs": [
        {
          "internalType": "uint256",
          "name": "",
          "type": "uint256"
        }
      ],
      "stateMutability": "view",
      "type": "function"
    },
    {
      "inputs": [],
      "name": "MAX_CHUNK_CONTENT_LENGTH",
      "outputs": [
        {
          "internalType": "uint256",
          "name": "",
          "type": "uint256"
        }
      ],
      "stateMutability": "view",
      "type": "function"
    },
    {
      "inputs": [],
      "name": "MAX_LONG_TEXT_LENGTH",
      "outputs": [
        {
          "internalType": "uint256",
          "name": "",
          "type": "uint256"
        }
      ],
      "stateMutability": "view",
      "type": "function"
    },
    {
      "inputs": [],
      "name": "MAX_QUERY_PAGE_SIZE",
      "outputs": [
        {
          "internalType": "uint256",
          "name": "",
          "type": "uint256"
        }
      ],
      "stateMutability": "view",
      "type": "function"
    },
    {
      "inputs": [],
      "name": "NAME_POSEIDON_VERIFIER",
      "outputs": [
        {
          "internalType": "address",
          "name": "",
          "type": "address"
        }
      ],
      "stateMutability": "view",
      "type": "function"
    },
    {
      "inputs": [],
      "name": "PERSON_HASH_VERIFIER",
      "outputs": [
        {
          "internalType": "address",
          "name": "",
          "type": "address"
        }
      ],
      "stateMutability": "view",
      "type": "function"
    },
    {
      "inputs": [],
      "name": "PROTOCOL_FEE_BPS_MAX",
      "outputs": [
        {
          "internalType": "uint256",
          "name": "",
          "type": "uint256"
        }
      ],
      "stateMutability": "view",
      "type": "function"
    },
    {
      "inputs": [
        {
          "internalType": "uint256[2]",
          "name": "a",
          "type": "uint256[2]"
        },
        {
          "internalType": "uint256[2][2]",
          "name": "b",
          "type": "uint256[2][2]"
        },
        {
          "internalType": "uint256[2]",
          "name": "c",
          "type": "uint256[2]"
        },
        {
          "internalType": "uint256[7]",
          "name": "publicSignals",
          "type": "uint256[7]"
        },
        {
          "internalType": "uint256",
          "name": "fatherVersionIndex",
          "type": "uint256"
        },
        {
          "internalType": "uint256",
          "name": "motherVersionIndex",
          "type": "uint256"
        },
        {
          "internalType": "string",
          "name": "tag",
          "type": "string"
        },
        {
          "internalType": "string",
          "name": "metadataCID",
          "type": "string"
        }
      ],
      "name": "addPersonZK",
      "outputs": [],
      "stateMutability": "nonpayable",
      "type": "function"
    },
    {
      "inputs": [
        {
          "internalType": "uint256",
          "name": "tokenId",
          "type": "uint256"
        },
        {
          "internalType": "uint256",
          "name": "chunkIndex",
          "type": "uint256"
        },
        {
          "internalType": "uint8",
          "name": "chunkType",
          "type": "uint8"
        },
        {
          "internalType": "string",
          "name": "content",
          "type": "string"
        },
        {
          "internalType": "string",
          "name": "attachmentCID",
          "type": "string"
        },
        {
          "internalType": "bytes32",
          "name": "expectedHash",
          "type": "bytes32"
        }
      ],
      "name": "addStoryChunk",
      "outputs": [],
      "stateMutability": "nonpayable",
      "type": "function"
    },
    {
      "inputs": [
        {
          "internalType": "address",
          "name": "to",
          "type": "address"
        },
        {
          "internalType": "uint256",
          "name": "tokenId",
          "type": "uint256"
        }
      ],
      "name": "approve",
      "outputs": [],
      "stateMutability": "nonpayable",
      "type": "function"
    },
    {
      "inputs": [
        {
          "internalType": "address",
          "name": "owner",
          "type": "address"
        }
      ],
      "name": "balanceOf",
      "outputs": [
        {
          "internalType": "uint256",
          "name": "",
          "type": "uint256"
        }
      ],
      "stateMutability": "view",
      "type": "function"
    },
    {
      "inputs": [
        {
          "internalType": "bytes32",
          "name": "personHash",
          "type": "bytes32"
        }
      ],
      "name": "cancelEndorsement",
      "outputs": [],
      "stateMutability": "nonpayable",
      "type": "function"
    },
    {
      "inputs": [
        {
          "internalType": "bytes32",
          "name": "",
          "type": "bytes32"
        },
        {
          "internalType": "uint256",
          "name": "",
          "type": "uint256"
        },
        {
          "internalType": "uint256",
          "name": "",
          "type": "uint256"
        }
      ],
      "name": "childrenOf",
      "outputs": [
        {
          "internalType": "bytes32",
          "name": "childHash",
          "type": "bytes32"
        },
        {
          "internalType": "uint256",
          "name": "childVersionIndex",
          "type": "uint256"
        }
      ],
      "stateMutability": "view",
      "type": "function"
    },
    {
      "inputs": [
        {
          "internalType": "bytes32",
          "name": "personHash",
          "type": "bytes32"
        },
        {
          "internalType": "uint256",
          "name": "versionIndex",
          "type": "uint256"
        }
      ],
      "name": "endorseVersion",
      "outputs": [],
      "stateMutability": "nonpayable",
      "type": "function"
    },
    {
      "inputs": [
        {
          "internalType": "bytes32",
          "name": "",
          "type": "bytes32"
        },
        {
          "internalType": "address",
          "name": "",
          "type": "address"
        }
      ],
      "name": "endorsedVersionIndex",
      "outputs": [
        {
          "internalType": "uint256",
          "name": "",
          "type": "uint256"
        }
      ],
      "stateMutability": "view",
      "type": "function"
    },
    {
      "inputs": [
        {
          "internalType": "uint256",
          "name": "tokenId",
          "type": "uint256"
        }
      ],
      "name": "getApproved",
      "outputs": [
        {
          "internalType": "address",
          "name": "",
          "type": "address"
        }
      ],
      "stateMutability": "view",
      "type": "function"
    },
    {
      "inputs": [
        {
          "internalType": "uint256",
          "name": "tokenId",
          "type": "uint256"
        }
      ],
      "name": "getNFTDetails",
      "outputs": [
        {
          "internalType": "bytes32",
          "name": "personHash",
          "type": "bytes32"
        },
        {
          "internalType": "uint256",
          "name": "versionIndex",
          "type": "uint256"
        },
        {
          "components": [
            {
              "internalType": "bytes32",
              "name": "personHash",
              "type": "bytes32"
            },
            {
              "internalType": "bytes32",
              "name": "fatherHash",
              "type": "bytes32"
            },
            {
              "internalType": "bytes32",
              "name": "motherHash",
              "type": "bytes32"
            },
            {
              "internalType": "uint256",
              "name": "versionIndex",
              "type": "uint256"
            },
            {
              "internalType": "uint256",
              "name": "fatherVersionIndex",
              "type": "uint256"
            },
            {
              "internalType": "uint256",
              "name": "motherVersionIndex",
              "type": "uint256"
            },
            {
              "internalType": "address",
              "name": "addedBy",
              "type": "address"
            },
            {
              "internalType": "uint96",
              "name": "timestamp",
              "type": "uint96"
            },
            {
              "internalType": "string",
              "name": "tag",
              "type": "string"
            },
            {
              "internalType": "string",
              "name": "metadataCID",
              "type": "string"
            }
          ],
          "internalType": "struct DeepFamily.PersonVersion",
          "name": "version",
          "type": "tuple"
        },
        {
          "components": [
            {
              "components": [
                {
                  "internalType": "bytes32",
                  "name": "fullNameCommitment",
                  "type": "bytes32"
                },
                {
                  "internalType": "bool",
                  "name": "isBirthBC",
                  "type": "bool"
                },
                {
                  "internalType": "uint16",
                  "name": "birthYear",
                  "type": "uint16"
                },
                {
                  "internalType": "uint8",
                  "name": "birthMonth",
                  "type": "uint8"
                },
                {
                  "internalType": "uint8",
                  "name": "birthDay",
                  "type": "uint8"
                },
                {
                  "internalType": "uint8",
                  "name": "gender",
                  "type": "uint8"
                }
              ],
              "internalType": "struct DeepFamily.PersonBasicInfo",
              "name": "basicInfo",
              "type": "tuple"
            },
            {
              "components": [
                {
                  "internalType": "string",
                  "name": "fullName",
                  "type": "string"
                },
                {
                  "internalType": "string",
                  "name": "birthPlace",
                  "type": "string"
                },
                {
                  "internalType": "bool",
                  "name": "isDeathBC",
                  "type": "bool"
                },
                {
                  "internalType": "uint16",
                  "name": "deathYear",
                  "type": "uint16"
                },
                {
                  "internalType": "uint8",
                  "name": "deathMonth",
                  "type": "uint8"
                },
                {
                  "internalType": "uint8",
                  "name": "deathDay",
                  "type": "uint8"
                },
                {
                  "internalType": "string",
                  "name": "deathPlace",
                  "type": "string"
                },
                {
                  "internalType": "string",
                  "name": "story",
                  "type": "string"
                }
              ],
              "internalType": "struct DeepFamily.PersonSupplementInfo",
              "name": "supplementInfo",
              "type": "tuple"
            }
          ],
          "internalType": "struct DeepFamily.PersonCoreInfo",
          "name": "coreInfo",
          "type": "tuple"
        },
        {
          "internalType": "uint256",
          "name": "endorsementCount",
          "type": "uint256"
        },
        {
          "internalType": "string",
          "name": "nftTokenURI",
          "type": "string"
        }
      ],
      "stateMutability": "view",
      "type": "function"
    },
    {
      "inputs": [
        {
          "components": [
            {
              "internalType": "bytes32",
              "name": "fullNameCommitment",
              "type": "bytes32"
            },
            {
              "internalType": "bool",
              "name": "isBirthBC",
              "type": "bool"
            },
            {
              "internalType": "uint16",
              "name": "birthYear",
              "type": "uint16"
            },
            {
              "internalType": "uint8",
              "name": "birthMonth",
              "type": "uint8"
            },
            {
              "internalType": "uint8",
              "name": "birthDay",
              "type": "uint8"
            },
            {
              "internalType": "uint8",
              "name": "gender",
              "type": "uint8"
            }
          ],
          "internalType": "struct DeepFamily.PersonBasicInfo",
          "name": "basicInfo",
          "type": "tuple"
        }
      ],
      "name": "getPersonHash",
      "outputs": [
        {
          "internalType": "bytes32",
          "name": "",
          "type": "bytes32"
        }
      ],
      "stateMutability": "pure",
      "type": "function"
    },
    {
      "inputs": [
        {
          "internalType": "uint256",
          "name": "tokenId",
          "type": "uint256"
        },
        {
          "internalType": "uint256",
          "name": "chunkIndex",
          "type": "uint256"
        }
      ],
      "name": "getStoryChunk",
      "outputs": [
        {
          "components": [
            {
              "internalType": "uint256",
              "name": "chunkIndex",
              "type": "uint256"
            },
            {
              "internalType": "bytes32",
              "name": "chunkHash",
              "type": "bytes32"
            },
            {
              "internalType": "string",
              "name": "content",
              "type": "string"
            },
            {
              "internalType": "uint256",
              "name": "timestamp",
              "type": "uint256"
            },
            {
              "internalType": "address",
              "name": "editor",
              "type": "address"
            },
            {
              "internalType": "uint8",
              "name": "chunkType",
              "type": "uint8"
            },
            {
              "internalType": "string",
              "name": "attachmentCID",
              "type": "string"
            }
          ],
          "internalType": "struct DeepFamily.StoryChunk",
          "name": "chunk",
          "type": "tuple"
        }
      ],
      "stateMutability": "view",
      "type": "function"
    },
    {
      "inputs": [
        {
          "internalType": "uint256",
          "name": "tokenId",
          "type": "uint256"
        }
      ],
      "name": "getStoryMetadata",
      "outputs": [
        {
          "components": [
            {
              "internalType": "uint256",
              "name": "totalChunks",
              "type": "uint256"
            },
            {
              "internalType": "bytes32",
              "name": "fullStoryHash",
              "type": "bytes32"
            },
            {
              "internalType": "uint256",
              "name": "lastUpdateTime",
              "type": "uint256"
            },
            {
              "internalType": "bool",
              "name": "isSealed",
              "type": "bool"
            },
            {
              "internalType": "uint256",
              "name": "totalLength",
              "type": "uint256"
            }
          ],
          "internalType": "struct DeepFamily.StoryMetadata",
          "name": "metadata",
          "type": "tuple"
        }
      ],
      "stateMutability": "view",
      "type": "function"
    },
    {
      "inputs": [
        {
          "internalType": "bytes32",
          "name": "personHash",
          "type": "bytes32"
        },
        {
          "internalType": "uint256",
          "name": "versionIndex",
          "type": "uint256"
        }
      ],
      "name": "getVersionDetails",
      "outputs": [
        {
          "components": [
            {
              "internalType": "bytes32",
              "name": "personHash",
              "type": "bytes32"
            },
            {
              "internalType": "bytes32",
              "name": "fatherHash",
              "type": "bytes32"
            },
            {
              "internalType": "bytes32",
              "name": "motherHash",
              "type": "bytes32"
            },
            {
              "internalType": "uint256",
              "name": "versionIndex",
              "type": "uint256"
            },
            {
              "internalType": "uint256",
              "name": "fatherVersionIndex",
              "type": "uint256"
            },
            {
              "internalType": "uint256",
              "name": "motherVersionIndex",
              "type": "uint256"
            },
            {
              "internalType": "address",
              "name": "addedBy",
              "type": "address"
            },
            {
              "internalType": "uint96",
              "name": "timestamp",
              "type": "uint96"
            },
            {
              "internalType": "string",
              "name": "tag",
              "type": "string"
            },
            {
              "internalType": "string",
              "name": "metadataCID",
              "type": "string"
            }
          ],
          "internalType": "struct DeepFamily.PersonVersion",
          "name": "version",
          "type": "tuple"
        },
        {
          "internalType": "uint256",
          "name": "endorsementCount",
          "type": "uint256"
        },
        {
          "internalType": "uint256",
          "name": "tokenId",
          "type": "uint256"
        }
      ],
      "stateMutability": "view",
      "type": "function"
    },
    {
      "inputs": [
        {
          "internalType": "address",
          "name": "owner",
          "type": "address"
        },
        {
          "internalType": "address",
          "name": "operator",
          "type": "address"
        }
      ],
      "name": "isApprovedForAll",
      "outputs": [
        {
          "internalType": "bool",
          "name": "",
          "type": "bool"
        }
      ],
      "stateMutability": "view",
      "type": "function"
    },
    {
      "inputs": [
        {
          "internalType": "bytes32",
          "name": "parentHash",
          "type": "bytes32"
        },
        {
          "internalType": "uint256",
          "name": "parentVersionIndex",
          "type": "uint256"
        },
        {
          "internalType": "uint256",
          "name": "offset",
          "type": "uint256"
        },
        {
          "internalType": "uint256",
          "name": "limit",
          "type": "uint256"
        }
      ],
      "name": "listChildren",
      "outputs": [
        {
          "internalType": "bytes32[]",
          "name": "childHashes",
          "type": "bytes32[]"
        },
        {
          "internalType": "uint256[]",
          "name": "childVersionIndices",
          "type": "uint256[]"
        },
        {
          "internalType": "uint256",
          "name": "totalCount",
          "type": "uint256"
        },
        {
          "internalType": "bool",
          "name": "hasMore",
          "type": "bool"
        },
        {
          "internalType": "uint256",
          "name": "nextOffset",
          "type": "uint256"
        }
      ],
      "stateMutability": "view",
      "type": "function"
    },
    {
      "inputs": [
        {
          "internalType": "bytes32",
          "name": "personHash",
          "type": "bytes32"
        },
        {
          "internalType": "uint256",
          "name": "offset",
          "type": "uint256"
        },
        {
          "internalType": "uint256",
          "name": "limit",
          "type": "uint256"
        }
      ],
      "name": "listPersonVersions",
      "outputs": [
        {
          "components": [
            {
              "internalType": "bytes32",
              "name": "personHash",
              "type": "bytes32"
            },
            {
              "internalType": "bytes32",
              "name": "fatherHash",
              "type": "bytes32"
            },
            {
              "internalType": "bytes32",
              "name": "motherHash",
              "type": "bytes32"
            },
            {
              "internalType": "uint256",
              "name": "versionIndex",
              "type": "uint256"
            },
            {
              "internalType": "uint256",
              "name": "fatherVersionIndex",
              "type": "uint256"
            },
            {
              "internalType": "uint256",
              "name": "motherVersionIndex",
              "type": "uint256"
            },
            {
              "internalType": "address",
              "name": "addedBy",
              "type": "address"
            },
            {
              "internalType": "uint96",
              "name": "timestamp",
              "type": "uint96"
            },
            {
              "internalType": "string",
              "name": "tag",
              "type": "string"
            },
            {
              "internalType": "string",
              "name": "metadataCID",
              "type": "string"
            }
          ],
          "internalType": "struct DeepFamily.PersonVersion[]",
          "name": "versions",
          "type": "tuple[]"
        },
        {
          "internalType": "uint256",
          "name": "totalVersions",
          "type": "uint256"
        },
        {
          "internalType": "bool",
          "name": "hasMore",
          "type": "bool"
        },
        {
          "internalType": "uint256",
          "name": "nextOffset",
          "type": "uint256"
        }
      ],
      "stateMutability": "view",
      "type": "function"
    },
    {
      "inputs": [
        {
          "internalType": "uint256",
          "name": "tokenId",
          "type": "uint256"
        },
        {
          "internalType": "uint256",
          "name": "offset",
          "type": "uint256"
        },
        {
          "internalType": "uint256",
          "name": "limit",
          "type": "uint256"
        }
      ],
      "name": "listStoryChunks",
      "outputs": [
        {
          "components": [
            {
              "internalType": "uint256",
              "name": "chunkIndex",
              "type": "uint256"
            },
            {
              "internalType": "bytes32",
              "name": "chunkHash",
              "type": "bytes32"
            },
            {
              "internalType": "string",
              "name": "content",
              "type": "string"
            },
            {
              "internalType": "uint256",
              "name": "timestamp",
              "type": "uint256"
            },
            {
              "internalType": "address",
              "name": "editor",
              "type": "address"
            },
            {
              "internalType": "uint8",
              "name": "chunkType",
              "type": "uint8"
            },
            {
              "internalType": "string",
              "name": "attachmentCID",
              "type": "string"
            }
          ],
          "internalType": "struct DeepFamily.StoryChunk[]",
          "name": "chunks",
          "type": "tuple[]"
        },
        {
          "internalType": "uint256",
          "name": "totalChunks",
          "type": "uint256"
        },
        {
          "internalType": "bool",
          "name": "hasMore",
          "type": "bool"
        },
        {
          "internalType": "uint256",
          "name": "nextOffset",
          "type": "uint256"
        }
      ],
      "stateMutability": "view",
      "type": "function"
    },
    {
      "inputs": [
        {
          "internalType": "uint256",
          "name": "tokenId",
          "type": "uint256"
        },
        {
          "internalType": "uint256",
          "name": "offset",
          "type": "uint256"
        },
        {
          "internalType": "uint256",
          "name": "limit",
          "type": "uint256"
        }
      ],
      "name": "listTokenURIHistory",
      "outputs": [
        {
          "internalType": "string[]",
          "name": "uris",
          "type": "string[]"
        },
        {
          "internalType": "uint256",
          "name": "totalCount",
          "type": "uint256"
        },
        {
          "internalType": "bool",
          "name": "hasMore",
          "type": "bool"
        },
        {
          "internalType": "uint256",
          "name": "nextOffset",
          "type": "uint256"
        }
      ],
      "stateMutability": "view",
      "type": "function"
    },
    {
      "inputs": [
        {
          "internalType": "address",
          "name": "user",
          "type": "address"
        },
        {
          "internalType": "uint256",
          "name": "offset",
          "type": "uint256"
        },
        {
          "internalType": "uint256",
          "name": "limit",
          "type": "uint256"
        }
      ],
      "name": "listUserEndorsements",
      "outputs": [
        {
          "internalType": "bytes32[]",
          "name": "personHashes",
          "type": "bytes32[]"
        },
        {
          "internalType": "uint256[]",
          "name": "versionIndices",
          "type": "uint256[]"
        },
        {
          "internalType": "uint256[]",
          "name": "endorsementCounts",
          "type": "uint256[]"
        },
        {
          "internalType": "uint256[]",
          "name": "tokenIds",
          "type": "uint256[]"
        },
        {
          "internalType": "uint256",
          "name": "totalCount",
          "type": "uint256"
        },
        {
          "internalType": "bool",
          "name": "hasMore",
          "type": "bool"
        },
        {
          "internalType": "uint256",
          "name": "nextOffset",
          "type": "uint256"
        }
      ],
      "stateMutability": "view",
      "type": "function"
    },
    {
      "inputs": [
        {
          "internalType": "bytes32",
          "name": "personHash",
          "type": "bytes32"
        },
        {
          "internalType": "uint256",
          "name": "offset",
          "type": "uint256"
        },
        {
          "internalType": "uint256",
          "name": "limit",
          "type": "uint256"
        }
      ],
      "name": "listVersionEndorsements",
      "outputs": [
        {
          "internalType": "uint256[]",
          "name": "versionIndices",
          "type": "uint256[]"
        },
        {
          "internalType": "uint256[]",
          "name": "endorsementCounts",
          "type": "uint256[]"
        },
        {
          "internalType": "uint256[]",
          "name": "tokenIds",
          "type": "uint256[]"
        },
        {
          "internalType": "uint256",
          "name": "totalVersions",
          "type": "uint256"
        },
        {
          "internalType": "bool",
          "name": "hasMore",
          "type": "bool"
        },
        {
          "internalType": "uint256",
          "name": "nextOffset",
          "type": "uint256"
        }
      ],
      "stateMutability": "view",
      "type": "function"
    },
    {
      "inputs": [
        {
          "internalType": "uint256[2]",
          "name": "a",
          "type": "uint256[2]"
        },
        {
          "internalType": "uint256[2][2]",
          "name": "b",
          "type": "uint256[2][2]"
        },
        {
          "internalType": "uint256[2]",
          "name": "c",
          "type": "uint256[2]"
        },
        {
          "internalType": "uint256[5]",
          "name": "publicSignals",
          "type": "uint256[5]"
        },
        {
          "internalType": "bytes32",
          "name": "personHash",
          "type": "bytes32"
        },
        {
          "internalType": "uint256",
          "name": "versionIndex",
          "type": "uint256"
        },
        {
          "internalType": "string",
          "name": "_tokenURI",
          "type": "string"
        },
        {
          "components": [
            {
              "components": [
                {
                  "internalType": "bytes32",
                  "name": "fullNameCommitment",
                  "type": "bytes32"
                },
                {
                  "internalType": "bool",
                  "name": "isBirthBC",
                  "type": "bool"
                },
                {
                  "internalType": "uint16",
                  "name": "birthYear",
                  "type": "uint16"
                },
                {
                  "internalType": "uint8",
                  "name": "birthMonth",
                  "type": "uint8"
                },
                {
                  "internalType": "uint8",
                  "name": "birthDay",
                  "type": "uint8"
                },
                {
                  "internalType": "uint8",
                  "name": "gender",
                  "type": "uint8"
                }
              ],
              "internalType": "struct DeepFamily.PersonBasicInfo",
              "name": "basicInfo",
              "type": "tuple"
            },
            {
              "components": [
                {
                  "internalType": "string",
                  "name": "fullName",
                  "type": "string"
                },
                {
                  "internalType": "string",
                  "name": "birthPlace",
                  "type": "string"
                },
                {
                  "internalType": "bool",
                  "name": "isDeathBC",
                  "type": "bool"
                },
                {
                  "internalType": "uint16",
                  "name": "deathYear",
                  "type": "uint16"
                },
                {
                  "internalType": "uint8",
                  "name": "deathMonth",
                  "type": "uint8"
                },
                {
                  "internalType": "uint8",
                  "name": "deathDay",
                  "type": "uint8"
                },
                {
                  "internalType": "string",
                  "name": "deathPlace",
                  "type": "string"
                },
                {
                  "internalType": "string",
                  "name": "story",
                  "type": "string"
                }
              ],
              "internalType": "struct DeepFamily.PersonSupplementInfo",
              "name": "supplementInfo",
              "type": "tuple"
            }
          ],
          "internalType": "struct DeepFamily.PersonCoreInfo",
          "name": "coreInfo",
          "type": "tuple"
        }
      ],
      "name": "mintPersonNFT",
      "outputs": [],
      "stateMutability": "nonpayable",
      "type": "function"
    },
    {
      "inputs": [],
      "name": "name",
      "outputs": [
        {
          "internalType": "string",
          "name": "",
          "type": "string"
        }
      ],
      "stateMutability": "view",
      "type": "function"
    },
    {
      "inputs": [
        {
          "internalType": "uint256",
          "name": "",
          "type": "uint256"
        }
      ],
      "name": "nftCoreInfo",
      "outputs": [
        {
          "components": [
            {
              "internalType": "bytes32",
              "name": "fullNameCommitment",
              "type": "bytes32"
            },
            {
              "internalType": "bool",
              "name": "isBirthBC",
              "type": "bool"
            },
            {
              "internalType": "uint16",
              "name": "birthYear",
              "type": "uint16"
            },
            {
              "internalType": "uint8",
              "name": "birthMonth",
              "type": "uint8"
            },
            {
              "internalType": "uint8",
              "name": "birthDay",
              "type": "uint8"
            },
            {
              "internalType": "uint8",
              "name": "gender",
              "type": "uint8"
            }
          ],
          "internalType": "struct DeepFamily.PersonBasicInfo",
          "name": "basicInfo",
          "type": "tuple"
        },
        {
          "components": [
            {
              "internalType": "string",
              "name": "fullName",
              "type": "string"
            },
            {
              "internalType": "string",
              "name": "birthPlace",
              "type": "string"
            },
            {
              "internalType": "bool",
              "name": "isDeathBC",
              "type": "bool"
            },
            {
              "internalType": "uint16",
              "name": "deathYear",
              "type": "uint16"
            },
            {
              "internalType": "uint8",
              "name": "deathMonth",
              "type": "uint8"
            },
            {
              "internalType": "uint8",
              "name": "deathDay",
              "type": "uint8"
            },
            {
              "internalType": "string",
              "name": "deathPlace",
              "type": "string"
            },
            {
              "internalType": "string",
              "name": "story",
              "type": "string"
            }
          ],
          "internalType": "struct DeepFamily.PersonSupplementInfo",
          "name": "supplementInfo",
          "type": "tuple"
        }
      ],
      "stateMutability": "view",
      "type": "function"
    },
    {
      "inputs": [],
      "name": "owner",
      "outputs": [
        {
          "internalType": "address",
          "name": "",
          "type": "address"
        }
      ],
      "stateMutability": "view",
      "type": "function"
    },
    {
      "inputs": [
        {
          "internalType": "uint256",
          "name": "tokenId",
          "type": "uint256"
        }
      ],
      "name": "ownerOf",
      "outputs": [
        {
          "internalType": "address",
          "name": "",
          "type": "address"
        }
      ],
      "stateMutability": "view",
      "type": "function"
    },
    {
      "inputs": [
        {
          "internalType": "bytes32",
          "name": "",
          "type": "bytes32"
        },
        {
          "internalType": "uint256",
          "name": "",
          "type": "uint256"
        }
      ],
      "name": "personVersions",
      "outputs": [
        {
          "internalType": "bytes32",
          "name": "personHash",
          "type": "bytes32"
        },
        {
          "internalType": "bytes32",
          "name": "fatherHash",
          "type": "bytes32"
        },
        {
          "internalType": "bytes32",
          "name": "motherHash",
          "type": "bytes32"
        },
        {
          "internalType": "uint256",
          "name": "versionIndex",
          "type": "uint256"
        },
        {
          "internalType": "uint256",
          "name": "fatherVersionIndex",
          "type": "uint256"
        },
        {
          "internalType": "uint256",
          "name": "motherVersionIndex",
          "type": "uint256"
        },
        {
          "internalType": "address",
          "name": "addedBy",
          "type": "address"
        },
        {
          "internalType": "uint96",
          "name": "timestamp",
          "type": "uint96"
        },
        {
          "internalType": "string",
          "name": "tag",
          "type": "string"
        },
        {
          "internalType": "string",
          "name": "metadataCID",
          "type": "string"
        }
      ],
      "stateMutability": "view",
      "type": "function"
    },
    {
      "inputs": [],
      "name": "protocolEndorsementFeeBps",
      "outputs": [
        {
          "internalType": "uint256",
          "name": "",
          "type": "uint256"
        }
      ],
      "stateMutability": "view",
      "type": "function"
    },
    {
      "inputs": [],
      "name": "renounceOwnership",
      "outputs": [],
      "stateMutability": "nonpayable",
      "type": "function"
    },
    {
      "inputs": [
        {
          "internalType": "address",
          "name": "from",
          "type": "address"
        },
        {
          "internalType": "address",
          "name": "to",
          "type": "address"
        },
        {
          "internalType": "uint256",
          "name": "tokenId",
          "type": "uint256"
        }
      ],
      "name": "safeTransferFrom",
      "outputs": [],
      "stateMutability": "nonpayable",
      "type": "function"
    },
    {
      "inputs": [
        {
          "internalType": "address",
          "name": "from",
          "type": "address"
        },
        {
          "internalType": "address",
          "name": "to",
          "type": "address"
        },
        {
          "internalType": "uint256",
          "name": "tokenId",
          "type": "uint256"
        },
        {
          "internalType": "bytes",
          "name": "data",
          "type": "bytes"
        }
      ],
      "name": "safeTransferFrom",
      "outputs": [],
      "stateMutability": "nonpayable",
      "type": "function"
    },
    {
      "inputs": [
        {
          "internalType": "uint256",
          "name": "tokenId",
          "type": "uint256"
        }
      ],
      "name": "sealStory",
      "outputs": [],
      "stateMutability": "nonpayable",
      "type": "function"
    },
    {
      "inputs": [
        {
          "internalType": "address",
          "name": "operator",
          "type": "address"
        },
        {
          "internalType": "bool",
          "name": "approved",
          "type": "bool"
        }
      ],
      "name": "setApprovalForAll",
      "outputs": [],
      "stateMutability": "nonpayable",
      "type": "function"
    },
    {
      "inputs": [
        {
          "internalType": "uint256",
          "name": "",
          "type": "uint256"
        },
        {
          "internalType": "uint256",
          "name": "",
          "type": "uint256"
        }
      ],
      "name": "storyChunks",
      "outputs": [
        {
          "internalType": "uint256",
          "name": "chunkIndex",
          "type": "uint256"
        },
        {
          "internalType": "bytes32",
          "name": "chunkHash",
          "type": "bytes32"
        },
        {
          "internalType": "string",
          "name": "content",
          "type": "string"
        },
        {
          "internalType": "uint256",
          "name": "timestamp",
          "type": "uint256"
        },
        {
          "internalType": "address",
          "name": "editor",
          "type": "address"
        },
        {
          "internalType": "uint8",
          "name": "chunkType",
          "type": "uint8"
        },
        {
          "internalType": "string",
          "name": "attachmentCID",
          "type": "string"
        }
      ],
      "stateMutability": "view",
      "type": "function"
    },
    {
      "inputs": [
        {
          "internalType": "uint256",
          "name": "",
          "type": "uint256"
        }
      ],
      "name": "storyMetadata",
      "outputs": [
        {
          "internalType": "uint256",
          "name": "totalChunks",
          "type": "uint256"
        },
        {
          "internalType": "bytes32",
          "name": "fullStoryHash",
          "type": "bytes32"
        },
        {
          "internalType": "uint256",
          "name": "lastUpdateTime",
          "type": "uint256"
        },
        {
          "internalType": "bool",
          "name": "isSealed",
          "type": "bool"
        },
        {
          "internalType": "uint256",
          "name": "totalLength",
          "type": "uint256"
        }
      ],
      "stateMutability": "view",
      "type": "function"
    },
    {
      "inputs": [
        {
          "internalType": "bytes4",
          "name": "interfaceId",
          "type": "bytes4"
        }
      ],
      "name": "supportsInterface",
      "outputs": [
        {
          "internalType": "bool",
          "name": "",
          "type": "bool"
        }
      ],
      "stateMutability": "view",
      "type": "function"
    },
    {
      "inputs": [],
      "name": "symbol",
      "outputs": [
        {
          "internalType": "string",
          "name": "",
          "type": "string"
        }
      ],
      "stateMutability": "view",
      "type": "function"
    },
    {
      "inputs": [
        {
          "internalType": "uint256",
          "name": "index",
          "type": "uint256"
        }
      ],
      "name": "tokenByIndex",
      "outputs": [
        {
          "internalType": "uint256",
          "name": "",
          "type": "uint256"
        }
      ],
      "stateMutability": "view",
      "type": "function"
    },
    {
      "inputs": [],
      "name": "tokenCounter",
      "outputs": [
        {
          "internalType": "uint256",
          "name": "",
          "type": "uint256"
        }
      ],
      "stateMutability": "view",
      "type": "function"
    },
    {
      "inputs": [
        {
          "internalType": "uint256",
          "name": "",
          "type": "uint256"
        }
      ],
      "name": "tokenIdToPerson",
      "outputs": [
        {
          "internalType": "bytes32",
          "name": "",
          "type": "bytes32"
        }
      ],
      "stateMutability": "view",
      "type": "function"
    },
    {
      "inputs": [
        {
          "internalType": "uint256",
          "name": "",
          "type": "uint256"
        }
      ],
      "name": "tokenIdToVersionIndex",
      "outputs": [
        {
          "internalType": "uint256",
          "name": "",
          "type": "uint256"
        }
      ],
      "stateMutability": "view",
      "type": "function"
    },
    {
      "inputs": [
        {
          "internalType": "address",
          "name": "owner",
          "type": "address"
        },
        {
          "internalType": "uint256",
          "name": "index",
          "type": "uint256"
        }
      ],
      "name": "tokenOfOwnerByIndex",
      "outputs": [
        {
          "internalType": "uint256",
          "name": "",
          "type": "uint256"
        }
      ],
      "stateMutability": "view",
      "type": "function"
    },
    {
      "inputs": [
        {
          "internalType": "uint256",
          "name": "tokenId",
          "type": "uint256"
        }
      ],
      "name": "tokenURI",
      "outputs": [
        {
          "internalType": "string",
          "name": "",
          "type": "string"
        }
      ],
      "stateMutability": "view",
      "type": "function"
    },
    {
      "inputs": [
        {
          "internalType": "uint256",
          "name": "",
          "type": "uint256"
        },
        {
          "internalType": "uint256",
          "name": "",
          "type": "uint256"
        }
      ],
      "name": "tokenURIHistory",
      "outputs": [
        {
          "internalType": "string",
          "name": "",
          "type": "string"
        }
      ],
      "stateMutability": "view",
      "type": "function"
    },
    {
      "inputs": [],
      "name": "totalPersonsCount",
      "outputs": [
        {
          "internalType": "uint256",
          "name": "",
          "type": "uint256"
        }
      ],
      "stateMutability": "view",
      "type": "function"
    },
    {
      "inputs": [],
      "name": "totalSupply",
      "outputs": [
        {
          "internalType": "uint256",
          "name": "",
          "type": "uint256"
        }
      ],
      "stateMutability": "view",
      "type": "function"
    },
    {
      "inputs": [
        {
          "internalType": "address",
          "name": "from",
          "type": "address"
        },
        {
          "internalType": "address",
          "name": "to",
          "type": "address"
        },
        {
          "internalType": "uint256",
          "name": "tokenId",
          "type": "uint256"
        }
      ],
      "name": "transferFrom",
      "outputs": [],
      "stateMutability": "nonpayable",
      "type": "function"
    },
    {
      "inputs": [
        {
          "internalType": "address",
          "name": "newOwner",
          "type": "address"
        }
      ],
      "name": "transferOwnership",
      "outputs": [],
      "stateMutability": "nonpayable",
      "type": "function"
    },
    {
      "inputs": [
        {
          "internalType": "bytes32",
          "name": "personHash",
          "type": "bytes32"
        },
        {
          "internalType": "uint256",
          "name": "versionIndex",
          "type": "uint256"
        },
        {
          "internalType": "bytes32",
          "name": "newFatherHash",
          "type": "bytes32"
        },
        {
          "internalType": "uint256",
          "name": "newFatherVersionIndex",
          "type": "uint256"
        },
        {
          "internalType": "bytes32",
          "name": "newMotherHash",
          "type": "bytes32"
        },
        {
          "internalType": "uint256",
          "name": "newMotherVersionIndex",
          "type": "uint256"
        }
      ],
      "name": "updatePersonParents",
      "outputs": [],
      "stateMutability": "nonpayable",
      "type": "function"
    },
    {
      "inputs": [
        {
          "internalType": "uint256",
          "name": "newBps",
          "type": "uint256"
        }
      ],
      "name": "updateProtocolEndorsementFee",
      "outputs": [],
      "stateMutability": "nonpayable",
      "type": "function"
    },
    {
      "inputs": [
        {
          "internalType": "uint256",
          "name": "tokenId",
          "type": "uint256"
        },
        {
          "internalType": "string",
          "name": "newURI",
          "type": "string"
        }
      ],
      "name": "updateTokenURI",
      "outputs": [],
      "stateMutability": "nonpayable",
      "type": "function"
    },
    {
      "inputs": [
        {
          "internalType": "bytes32",
          "name": "",
          "type": "bytes32"
        },
        {
          "internalType": "uint256",
          "name": "",
          "type": "uint256"
        }
      ],
      "name": "versionEndorsementCount",
      "outputs": [
        {
          "internalType": "uint256",
          "name": "",
          "type": "uint256"
        }
      ],
      "stateMutability": "view",
      "type": "function"
    },
    {
      "inputs": [
        {
          "internalType": "bytes32",
          "name": "",
          "type": "bytes32"
        },
        {
          "internalType": "bytes32",
          "name": "",
          "type": "bytes32"
        }
      ],
      "name": "versionExists",
      "outputs": [
        {
          "internalType": "bool",
          "name": "",
          "type": "bool"
        }
      ],
      "stateMutability": "view",
      "type": "function"
    },
    {
      "inputs": [
        {
          "internalType": "bytes32",
          "name": "",
          "type": "bytes32"
        },
        {
          "internalType": "uint256",
          "name": "",
          "type": "uint256"
        }
      ],
      "name": "versionToTokenId",
      "outputs": [
        {
          "internalType": "uint256",
          "name": "",
          "type": "uint256"
        }
      ],
      "stateMutability": "view",
      "type": "function"
    },
    {
      "stateMutability": "payable",
      "type": "receive"
    }
  ],
  "bytecode": "0x60e06040526101f4601a553480156200001757600080fd5b5060405162007b1738038062007b178339810160408190526200003a91620001e5565b336040518060400160405280600a8152602001694465657046616d696c7960b01b8152506040518060400160405280600681526020016546616d696c7960d01b81525081600090816200008e9190620002d4565b5060016200009d8282620002d4565b5050506001600160a01b038116620000cf57604051631e4fbdf760e01b81526000600482015260240160405180910390fd5b620000da8162000176565b506001600b556001600160a01b0383166200010857604051634c32eccd60e11b815260040160405180910390fd5b6001600160a01b0382166200013057604051635fce01bb60e01b815260040160405180910390fd5b6001600160a01b038116620001585760405163abd45c1f60e01b815260040160405180910390fd5b6001600160a01b0392831660805290821660a0521660c052620003a0565b600a80546001600160a01b038381166001600160a01b0319831681179093556040519116919082907f8be0079c531659141344cd1fd0a4f28419497f9722a3daafe3b4186f6b6457e090600090a35050565b80516001600160a01b0381168114620001e057600080fd5b919050565b600080600060608486031215620001fb57600080fd5b6200020684620001c8565b92506200021660208501620001c8565b91506200022660408501620001c8565b90509250925092565b634e487b7160e01b600052604160045260246000fd5b600181811c908216806200025a57607f821691505b6020821081036200027b57634e487b7160e01b600052602260045260246000fd5b50919050565b601f821115620002cf57600081815260208120601f850160051c81016020861015620002aa5750805b601f850160051c820191505b81811015620002cb57828155600101620002b6565b5050505b505050565b81516001600160401b03811115620002f057620002f06200022f565b620003088162000301845462000245565b8462000281565b602080601f831160018114620003405760008415620003275750858301515b600019600386901b1c1916600185901b178555620002cb565b600085815260208120601f198616915b82811015620003715788860151825594840194600190910190840162000350565b5085821015620003905787850151600019600388901b60f8161c191681555b5050505050600190811b01905550565b60805160a05160c051617724620003f3600039600081816105a20152613898015260008181610b3d0152613bf7015260008181610c2201528181613ddc01528181613f7d01526157d601526177246000f3fe6080604052600436106103b05760003560e01c8063797e57e5116101e7578063bcecdf1d1161010d578063d596b1b0116100a0578063f1fad0671161006f578063f1fad06714610d01578063f2fde38b14610d2e578063f74faf6614610d4e578063fe9c3c0514610d86576103ce565b8063d596b1b014610c44578063dbcdc08f14610c7c578063e985e9c514610caf578063f19c58a714610ccf576103ce565b8063c87b56dd116100dc578063c87b56dd14610bba578063c893eb5614610bda578063d082e38114610bfa578063d1486a1b14610c10576103ce565b8063bcecdf1d14610b2b578063bd7eef2314610b5f578063c090fba214610b75578063c841eb1f14610ba4576103ce565b806395d89b4111610185578063b570b2ab11610154578063b570b2ab14610ab5578063b5c7198d14610ad5578063b7fb7ee614610af5578063b88d4fde14610b0b576103ce565b806395d89b4114610a40578063a22cb46514610a55578063a294fd6414610a75578063b4283e3314610a95576103ce565b806383af7191116101c157806383af71911461095b5780638da5cb5b146109d25780638f2360b3146109f05780638f4ae57c14610a20576103ce565b8063797e57e5146108f35780637e927db51461091357806382260f3514610929576103ce565b80633791b66a116102d75780636352211e1161026a57806370a082311161023957806370a0823114610844578063715018a6146108645780637189567c1461087957806376f0f85d146108dd576103ce565b80636352211e146107a157806366b3beda146107c157806367b9b3e1146107e1578063690a76bf14610817576103ce565b8063538ffa0b116102a6578063538ffa0b1461070d57806357611dfb1461073a578063583d434f1461076b5780635a4b65d614610781576103ce565b80633791b66a1461066257806342842e0e14610692578063431a342a146106b25780634f6ccce7146106ed576103ce565b8063164e38ee1161034f57806323b872dd1161031e57806323b872dd146105c4578063278d5fce146105e457806328273a2a146106125780632f745c5914610642576103ce565b8063164e38ee1461052657806318160ddd1461055b57806318e97fd1146105705780631d5d7be914610590576103ce565b8063081812fc1161038b578063081812fc14610461578063084979d114610499578063095ea7b3146104cc5780631516fa25146104ee576103ce565b8062eee6a1146103e757806301ffc9a71461040f57806306fdde031461043f576103ce565b366103ce5760405163af9f22fb60e01b815260040160405180910390fd5b60405163af9f22fb60e01b815260040160405180910390fd5b3480156103f357600080fd5b506103fc606481565b6040519081526020015b60405180910390f35b34801561041b57600080fd5b5061042f61042a366004615fec565b610da6565b6040519015158152602001610406565b34801561044b57600080fd5b50610454610dd1565b6040516104069190616059565b34801561046d57600080fd5b5061048161047c36600461606c565b610e63565b6040516001600160a01b039091168152602001610406565b3480156104a557600080fd5b506104b96104b43660046160a1565b610e8c565b604051610406979695949392919061610f565b3480156104d857600080fd5b506104ec6104e736600461617c565b61120c565b005b3480156104fa57600080fd5b506103fc6105093660046161a6565b601960209081526000928352604080842090915290825290205481565b34801561053257600080fd5b506105466105413660046161c8565b61121b565b60408051928352602083019190915201610406565b34801561056757600080fd5b506008546103fc565b34801561057c57600080fd5b506104ec61058b36600461623c565b611265565b34801561059c57600080fd5b506104817f000000000000000000000000000000000000000000000000000000000000000081565b3480156105d057600080fd5b506104ec6105df366004616287565b611412565b3480156105f057600080fd5b506106046105ff36600461606c565b6114a2565b6040516104069291906163cd565b34801561061e57600080fd5b5061063261062d3660046161c8565b6117ab565b6040516104069493929190616458565b34801561064e57600080fd5b506103fc61065d36600461617c565b611aaf565b34801561066e57600080fd5b5061068261067d3660046161c8565b611b14565b60405161040694939291906164cb565b34801561069e57600080fd5b506104ec6106ad366004616287565b611cea565b3480156106be57600080fd5b5061042f6106cd3660046161a6565b600e60209081526000928352604080842090915290825290205460ff1681565b3480156106f957600080fd5b506103fc61070836600461606c565b611d0a565b34801561071957600080fd5b506103fc61072836600461606c565b60126020526000908152604090205481565b34801561074657600080fd5b5061075a610755366004616522565b611d63565b604051610406959493929190616554565b34801561077757600080fd5b506103fc61271081565b34801561078d57600080fd5b506104ec61079c3660046165a6565b611f69565b3480156107ad57600080fd5b506104816107bc36600461606c565b6121f2565b3480156107cd57600080fd5b506104ec6107dc366004616642565b6121fd565b3480156107ed57600080fd5b506108016107fc3660046161a6565b6126ee565b6040516104069a99989796959493929190616685565b34801561082357600080fd5b506103fc61083236600461606c565b60116020526000908152604090205481565b34801561085057600080fd5b506103fc61085f366004616701565b612888565b34801561087057600080fd5b506104ec6128d0565b34801561088557600080fd5b5061089961089436600461606c565b6128e4565b6040516104069190600060a0820190508251825260208301516020830152604083015160408301526060830151151560608301526080830151608083015292915050565b3480156108e957600080fd5b506103fc61010081565b3480156108ff57600080fd5b506104ec61090e36600461606c565b612997565b34801561091f57600080fd5b506103fc601a5481565b34801561093557600080fd5b5061094961094436600461606c565b612a85565b604051610406969594939291906167cb565b34801561096757600080fd5b506109a861097636600461606c565b6017602052600090815260409020805460018201546002830154600384015460049094015492939192909160ff169085565b6040805195865260208601949094529284019190915215156060830152608082015260a001610406565b3480156109de57600080fd5b50600a546001600160a01b0316610481565b3480156109fc57600080fd5b50610a10610a0b3660046161c8565b613030565b604051610406949392919061683e565b348015610a2c57600080fd5b506104ec610a3b36600461606c565b61330d565b348015610a4c57600080fd5b50610454613564565b348015610a6157600080fd5b506104ec610a703660046168a3565b613573565b348015610a8157600080fd5b506104ec610a903660046168fc565b61357e565b348015610aa157600080fd5b506104ec610ab036600461606c565b613b39565b348015610ac157600080fd5b506104ec610ad03660046169ce565b613bb4565b348015610ae157600080fd5b506104ec610af03660046161a6565b613d2f565b348015610b0157600080fd5b506103fc6107d081565b348015610b1757600080fd5b506104ec610b26366004616ae9565b6142b3565b348015610b3757600080fd5b506104817f000000000000000000000000000000000000000000000000000000000000000081565b348015610b6b57600080fd5b506103fc600d5481565b348015610b8157600080fd5b50610b95610b903660046161a6565b6142cb565b60405161040693929190616ba8565b348015610bb057600080fd5b506103fc61080081565b348015610bc657600080fd5b50610454610bd536600461606c565b614545565b348015610be657600080fd5b506103fc610bf5366004616bdd565b6145ef565b348015610c0657600080fd5b506103fc60105481565b348015610c1c57600080fd5b506104817f000000000000000000000000000000000000000000000000000000000000000081565b348015610c5057600080fd5b506103fc610c5f3660046161a6565b601660209081526000928352604080842090915290825290205481565b348015610c8857600080fd5b50610c9c610c973660046161a6565b614779565b6040516104069796959493929190616c7e565b348015610cbb57600080fd5b5061042f610cca366004616cdc565b6148e2565b348015610cdb57600080fd5b50610cef610cea3660046161c8565b614910565b60405161040696959493929190616d0f565b348015610d0d57600080fd5b50610d21610d1c3660046161a6565b614b51565b6040516104069190616d67565b348015610d3a57600080fd5b506104ec610d49366004616701565b614d5d565b348015610d5a57600080fd5b506103fc610d69366004616d7a565b600f60209081526000928352604080842090915290825290205481565b348015610d9257600080fd5b50610454610da13660046161a6565b614d98565b60006001600160e01b0319821663780e9d6360e01b1480610dcb5750610dcb82614e51565b92915050565b606060008054610de090616d9d565b80601f0160208091040260200160405190810160405280929190818152602001828054610e0c90616d9d565b8015610e595780601f10610e2e57610100808354040283529160200191610e59565b820191906000526020600020905b815481529060010190602001808311610e3c57829003601f168201915b5050505050905090565b6000610e6e82614ea1565b506000828152600460205260409020546001600160a01b0316610dcb565b6001600160a01b0383166000908152601c6020526040812054606091829182918291908080610ebc848b8b614ed9565b90508060400151600003610f0e576040805160008082526020820181815282840182815260608085019384526080808601909652948601519590940151929b50995091975090955090925090506111ff565b80604001516001600160401b03811115610f2a57610f2a616aa3565b604051908082528060200260200182016040528015610f53578160200160208202803683370190505b50975080604001516001600160401b03811115610f7257610f72616aa3565b604051908082528060200260200182016040528015610f9b578160200160208202803683370190505b50965080604001516001600160401b03811115610fba57610fba616aa3565b604051908082528060200260200182016040528015610fe3578160200160208202803683370190505b50955080604001516001600160401b0381111561100257611002616aa3565b60405190808252806020026020018201604052801561102b578160200160208202803683370190505b50945060005b81604001518110156111ed576001600160a01b038c166000908152601c602052604081208351611062908490616ded565b8154811061107257611072616e00565b90600052602060002001549050808a838151811061109257611092616e00565b602002602001018181525050600f600082815260200190815260200160002060008e6001600160a01b03166001600160a01b03168152602001908152602001600020548983815181106110e7576110e7616e00565b602002602001018181525050600089838151811061110757611107616e00565b602002602001015111156111da5760196000828152602001908152602001600020600060018b858151811061113e5761113e616e00565b60200260200101516111509190616e16565b81526020019081526020016000205488838151811061117157611171616e00565b6020026020010181815250506016600082815260200190815260200160002060008a84815181106111a4576111a4616e00565b60200260200101518152602001908152602001600020548783815181106111cd576111cd616e00565b6020026020010181815250505b50806111e581616e29565b915050611031565b50608081015160609091015190925090505b9397509397509397909450565b611217828233614fda565b5050565b601b602052826000526040600020602052816000526040600020818154811061124357600080fd5b6000918252602090912060029091020180546001909101549093509150839050565b3361126f84614fe7565b6001600160a01b0316146112965760405163daffd8a560e01b815260040160405180910390fd5b6101008111156112b9576040516313f04adb60e01b815260040160405180910390fd5b600083815260146020526040812080546112d290616d9d565b80601f01602080910402602001604051908101604052809291908181526020018280546112fe90616d9d565b801561134b5780601f106113205761010080835404028352916020019161134b565b820191906000526020600020905b81548152906001019060200180831161132e57829003601f168201915b50505050509050600081511115611386576000848152601560209081526040822080546001810182559083529120016113848282616e9d565b505b6113c68484848080601f01602080910402602001604051908101604052809392919081815260200183838082843760009201919091525061500292505050565b336001600160a01b0316847f121742bae49dddcfbb9763fd1170f0dbc15b13707126182671611bbeeeae7cd883868660405161140493929190616f7f565b60405180910390a350505050565b6001600160a01b03821661144157604051633250574960e11b8152600060048201526024015b60405180910390fd5b600061144e83833361501a565b9050836001600160a01b0316816001600160a01b03161461149c576040516364283d7b60e01b81526001600160a01b0380861660048301526024820184905282166044820152606401611438565b50505050565b601360209081526000918252604091829020825160c08101845281548152600182015460ff80821615159483019490945261010080820461ffff168387015263010000008204851660608401526401000000008204851660808401526501000000000090910490931660a082015283519283019093526002810180549192918290829061152e90616d9d565b80601f016020809104026020016040519081016040528092919081815260200182805461155a90616d9d565b80156115a75780601f1061157c576101008083540402835291602001916115a7565b820191906000526020600020905b81548152906001019060200180831161158a57829003601f168201915b505050505081526020016001820180546115c090616d9d565b80601f01602080910402602001604051908101604052809291908181526020018280546115ec90616d9d565b80156116395780601f1061160e57610100808354040283529160200191611639565b820191906000526020600020905b81548152906001019060200180831161161c57829003601f168201915b5050509183525050600282015460ff8082161515602084015261ffff6101008304166040840152630100000082048116606084015264010000000090910416608082015260038201805460a09092019161169290616d9d565b80601f01602080910402602001604051908101604052809291908181526020018280546116be90616d9d565b801561170b5780601f106116e05761010080835404028352916020019161170b565b820191906000526020600020905b8154815290600101906020018083116116ee57829003601f168201915b5050505050815260200160048201805461172490616d9d565b80601f016020809104026020016040519081016040528092919081815260200182805461175090616d9d565b801561179d5780601f106117725761010080835404028352916020019161179d565b820191906000526020600020905b81548152906001019060200180831161178057829003601f168201915b505050505081525050905082565b60606000808086816117bc82614fe7565b6001600160a01b0316036117e3576040516307ed98ed60e31b815260040160405180910390fd5b60008881526017602052604081208054955090611801868a8a614ed9565b9050806040015160000361185b576040805160008082526020820190925290611840565b61182d615e8f565b8152602001906001900390816118255790505b50868260800151836060015196509650965096505050611aa5565b80604001516001600160401b0381111561187757611877616aa3565b6040519080825280602002602001820160405280156118b057816020015b61189d615e8f565b8152602001906001900390816118955790505b50965060005b8160400151811015611a925760008b815260186020526040812083519091906118e0908490616ded565b81526020019081526020016000206040518060e0016040529081600082015481526020016001820154815260200160028201805461191d90616d9d565b80601f016020809104026020016040519081016040528092919081815260200182805461194990616d9d565b80156119965780601f1061196b57610100808354040283529160200191611996565b820191906000526020600020905b81548152906001019060200180831161197957829003601f168201915b50505091835250506003820154602082015260048201546001600160a01b0381166040830152600160a01b900460ff1660608201526005820180546080909201916119e090616d9d565b80601f0160208091040260200160405190810160405280929190818152602001828054611a0c90616d9d565b8015611a595780601f10611a2e57610100808354040283529160200191611a59565b820191906000526020600020905b815481529060010190602001808311611a3c57829003601f168201915b505050505081525050888281518110611a7457611a74616e00565b60200260200101819052508080611a8a90616e29565b9150506118b6565b5060808101516060909101519094509250505b5093509350935093565b6000611aba83612888565b8210611aeb5760405163295f44f760e21b81526001600160a01b038416600482015260248101839052604401611438565b506001600160a01b03919091166000908152600660209081526040808320938352929052205490565b600083815260156020526040812080546060929091819081611b37858989614ed9565b90508060400151600003611b8b576040805160008082526020820190925290611b70565b6060815260200190600190039081611b5b5790505b50858260800151836060015195509550955095505050611ce1565b80604001516001600160401b03811115611ba757611ba7616aa3565b604051908082528060200260200182016040528015611bda57816020015b6060815260200190600190039081611bc55790505b50955060005b8160400151811015611cce5781518390611bfb908390616ded565b81548110611c0b57611c0b616e00565b906000526020600020018054611c2090616d9d565b80601f0160208091040260200160405190810160405280929190818152602001828054611c4c90616d9d565b8015611c995780601f10611c6e57610100808354040283529160200191611c99565b820191906000526020600020905b815481529060010190602001808311611c7c57829003601f168201915b5050505050878281518110611cb057611cb0616e00565b60200260200101819052508080611cc690616e29565b915050611be0565b5060808101516060909101519093509150505b93509350935093565b611d05838383604051806020016040528060008152506142b3565b505050565b6000611d1560085490565b8210611d3e5760405163295f44f760e21b81526000600482015260248101839052604401611438565b60088281548110611d5157611d51616e00565b90600052602060002001549050919050565b6060806000808088611d885760405163e5d242ed60e01b815260040160405180910390fd5b6000898152600c6020526040902054881115611db757604051630dd4272d60e41b815260040160405180910390fd5b6000898152601b602090815260408083208b845290915281208054945090611de0858a8a614ed9565b90508060400151600003611e21576040805160008082526020820190815281830190925260808301516060909301519098509096509093509150611f5e9050565b80604001516001600160401b03811115611e3d57611e3d616aa3565b604051908082528060200260200182016040528015611e66578160200160208202803683370190505b50965080604001516001600160401b03811115611e8557611e85616aa3565b604051908082528060200260200182016040528015611eae578160200160208202803683370190505b50955060005b8160400151811015611f4b57600083828460000151611ed39190616ded565b81548110611ee357611ee3616e00565b906000526020600020906002020190508060000154898381518110611f0a57611f0a616e00565b6020026020010181815250508060010154888381518110611f2d57611f2d616e00565b60209081029190910101525080611f4381616e29565b915050611eb4565b5060808101516060909101519093509150505b945094509450945094565b611f716150ef565b33611f7b89614fe7565b6001600160a01b031614611fa25760405163daffd8a560e01b815260040160405180910390fd5b831580611fb0575061080084115b15611fce57604051630ef9fbf360e21b815260040160405180910390fd5b6000888152601760205260409020600381015460ff161561200257604051631fcb6b9160e01b815260040160405180910390fd5b8054881461202357604051637df0b86160e01b815260040160405180910390fd5b600061206487878080601f01602080910402602001604051908101604052809392919081815260200183838082843760009201919091525061511992505050565b905082158015906120755750828114155b156120935760405163016c02f160e61b815260040160405180910390fd5b6101008411156120b657604051630601a0fb60e51b815260040160405180910390fd5b60008a81526018602090815260408083208c8452909152902089815560018101829055600281016120e8888a83616fa5565b504260038201556004810180546001600160a81b0319163360ff60a01b191617600160a01b60ff8c160217905560058101612124868883616fa5565b508254612132906001616ded565b8355426002840155600483015461214a908890616ded565b6004840155600183015460408051602081019290925281018b905260608101839052608001604051602081830303815290604052805190602001208360010181905550336001600160a01b03168a8c7fc986c8203b7382f6ec9faf400a0793cbeb1612afb4dfe81fc13c1b04a310aea7858c8c90508e8c8c6040516121d395949392919061705e565b60405180910390a45050506121e86001600b55565b5050505050505050565b6000610dcb82614ea1565b6122056150ef565b8585816122255760405163e5d242ed60e01b815260040160405180910390fd5b80158061223f57506000828152600c602052604090205481115b1561225d57604051630dd4272d60e41b815260040160405180910390fd5b851580159061226b57508386145b156122895760405163591c836760e01b815260040160405180910390fd5b6000888152600c602052604081206122a260018a616e16565b815481106122b2576122b2616e00565b6000918252602090912060099091020160068101549091506001600160a01b031633146122f257604051636ace69ed60e11b815260040160405180910390fd5b60008982600101548360020154846004015485600501548660070187600801604051602001612327979695949392919061710f565b60408051601f19818403018152919052805160209091012090506000881561244c5760018301541561236c5760405163299cda3d60e01b815260040160405180910390fd5b8a890361238c5760405163591c836760e01b815260040160405180910390fd5b6002830154158015906123a25750826002015489145b156123c05760405163591c836760e01b815260040160405180910390fd5b6000898152600c60205260409020548811156123ef57604051631f9510eb60e01b815260040160405180910390fd5b506001808301899055600483018890556000898152601b602090815260408083208b8452825280832081518083019092528e82528183018e815281548087018355918552929093209051600290930201918255519082015561246b565b871561246b5760405163591c836760e01b815260040160405180910390fd5b86156125765760028301541561249457604051633517ad3f60e21b815260040160405180910390fd5b8a87036124b45760405163591c836760e01b815260040160405180910390fd5b6001830154158015906124ca5750826001015487145b156124e85760405163591c836760e01b815260040160405180910390fd5b6000878152600c60205260409020548611156125175760405163782ce69f60e01b815260040160405180910390fd5b506002808301879055600583018690556000878152601b60209081526040808320898452825280832081518083019092528e82528183018e81528154600181810184559286529390942091519290940201908155905190820155612595565b85156125955760405163591c836760e01b815260040160405180910390fd5b806125b35760405163672dd10560e11b815260040160405180910390fd5b60008b846001015485600201548660040154876005015488600701896008016040516020016125e8979695949392919061710f565b6040516020818303038152906040528051906020012090508083146126775760008c8152600e6020908152604080832084845290915290205460ff1615612642576040516314396b6760e11b815260040160405180910390fd5b60008c8152600e60209081526040808320868452909152808220805460ff199081169091558383529120805490911660011790555b600184015460048501546002860154600587015460408051948552602085019390935291830152606082015233908c908e907fb177ed6564d95ed4e84ea8ecc0ad05956dbbd41ddf8d1e79f79254baa63ec46f9060800160405180910390a45050505050506126e66001600b55565b505050505050565b600c602052816000526040600020818154811061270a57600080fd5b600091825260209091206009909102018054600182015460028301546003840154600485015460058601546006870154600788018054979a5095985093969295919490936001600160a01b03811693600160a01b9091046001600160601b03169290919061277790616d9d565b80601f01602080910402602001604051908101604052809291908181526020018280546127a390616d9d565b80156127f05780601f106127c5576101008083540402835291602001916127f0565b820191906000526020600020905b8154815290600101906020018083116127d357829003601f168201915b50505050509080600801805461280590616d9d565b80601f016020809104026020016040519081016040528092919081815260200182805461283190616d9d565b801561287e5780601f106128535761010080835404028352916020019161287e565b820191906000526020600020905b81548152906001019060200180831161286157829003601f168201915b505050505090508a565b60006001600160a01b0382166128b4576040516322718ad960e21b815260006004820152602401611438565b506001600160a01b031660009081526003602052604090205490565b6128d8615149565b6128e26000615176565b565b6040805160a08101825260008082526020820181905291810182905260608101829052608081019190915281600061291b82614fe7565b6001600160a01b031603612942576040516307ed98ed60e31b815260040160405180910390fd5b5050600090815260176020908152604091829020825160a08101845281548152600182015492810192909252600281015492820192909252600382015460ff1615156060820152600490910154608082015290565b336129a182614fe7565b6001600160a01b0316146129c85760405163daffd8a560e01b815260040160405180910390fd5b6000818152601760205260409020600381015460ff16156129fc57604051631fcb6b9160e01b815260040160405180910390fd5b8054600003612a1e57604051637dc66bf560e11b815260040160405180910390fd5b60038101805460ff19166001908117909155426002830155815490820154604051339285927f896066547269dcd0db6295ca6c7f14f927d692103e47c7615259469b74bc7b5d92612a79929190918252602082015260400190565b60405180910390a35050565b600080612a90615eca565b612a98615f20565b6000606081612aa688614fe7565b6001600160a01b031603612acd576040516307ed98ed60e31b815260040160405180910390fd5b600087815260116020526040902054955085612afc576040516307ed98ed60e31b815260040160405180910390fd5b6000878152601260205260408120549550612b18600187616e16565b6000888152600c6020526040902080549192509082908110612b3c57612b3c616e00565b600091825260209182902060408051610140810182526009909302909101805483526001810154938301939093526002830154908201526003820154606082015260048201546080820152600582015460a082015260068201546001600160a01b03811660c08301526001600160601b03600160a01b9091041660e082015260078201805491929161010084019190612bd490616d9d565b80601f0160208091040260200160405190810160405280929190818152602001828054612c0090616d9d565b8015612c4d5780601f10612c2257610100808354040283529160200191612c4d565b820191906000526020600020905b815481529060010190602001808311612c3057829003601f168201915b50505050508152602001600882018054612c6690616d9d565b80601f0160208091040260200160405190810160405280929190818152602001828054612c9290616d9d565b8015612cdf5780601f10612cb457610100808354040283529160200191612cdf565b820191906000526020600020905b815481529060010190602001808311612cc257829003601f168201915b50505091909252505050600089815260136020908152604091829020825161010080820185528254828601908152600184015460ff8082161515606086015261ffff84830416608086015263010000008204811660a08601526401000000008204811660c0860152650100000000009091041660e084015282528451908101909452600282018054959a5090949193928501929182908290612d8090616d9d565b80601f0160208091040260200160405190810160405280929190818152602001828054612dac90616d9d565b8015612df95780601f10612dce57610100808354040283529160200191612df9565b820191906000526020600020905b815481529060010190602001808311612ddc57829003601f168201915b50505050508152602001600182018054612e1290616d9d565b80601f0160208091040260200160405190810160405280929190818152602001828054612e3e90616d9d565b8015612e8b5780601f10612e6057610100808354040283529160200191612e8b565b820191906000526020600020905b815481529060010190602001808311612e6e57829003601f168201915b5050509183525050600282015460ff8082161515602084015261ffff6101008304166040840152630100000082048116606084015264010000000090910416608082015260038201805460a090920191612ee490616d9d565b80601f0160208091040260200160405190810160405280929190818152602001828054612f1090616d9d565b8015612f5d5780601f10612f3257610100808354040283529160200191612f5d565b820191906000526020600020905b815481529060010190602001808311612f4057829003601f168201915b50505050508152602001600482018054612f7690616d9d565b80601f0160208091040260200160405190810160405280929190818152602001828054612fa290616d9d565b8015612fef5780601f10612fc457610100808354040283529160200191612fef565b820191906000526020600020905b815481529060010190602001808311612fd257829003601f168201915b505050919092525050509052506000888152601960209081526040808320858452909152902054909450925061302488614545565b91505091939550919395565b6000838152600c6020526040812080546060929091819081613053858989614ed9565b905080604001516000036130ab576040805160008082526020820190925290611b70565b61307f615eca565b81526020019060019003908161307757505060808201516060909201519096509093509150611ce19050565b80604001516001600160401b038111156130c7576130c7616aa3565b60405190808252806020026020018201604052801561310057816020015b6130ed615eca565b8152602001906001900390816130e55790505b50955060005b8160400151811015611cce5781518390613121908390616ded565b8154811061313157613131616e00565b600091825260209182902060408051610140810182526009909302909101805483526001810154938301939093526002830154908201526003820154606082015260048201546080820152600582015460a082015260068201546001600160a01b03811660c08301526001600160601b03600160a01b9091041660e0820152600782018054919291610100840191906131c990616d9d565b80601f01602080910402602001604051908101604052809291908181526020018280546131f590616d9d565b80156132425780601f1061321757610100808354040283529160200191613242565b820191906000526020600020905b81548152906001019060200180831161322557829003601f168201915b5050505050815260200160088201805461325b90616d9d565b80601f016020809104026020016040519081016040528092919081815260200182805461328790616d9d565b80156132d45780601f106132a9576101008083540402835291602001916132d4565b820191906000526020600020905b8154815290600101906020018083116132b757829003601f168201915b5050505050815250508782815181106132ef576132ef616e00565b6020026020010181905250808061330590616e29565b915050613106565b6133156150ef565b806133335760405163e5d242ed60e01b815260040160405180910390fd5b6000818152600f602090815260408083203384529091528120549081900361336e5760405163175f16a160e01b815260040160405180910390fd5b600061337b600183616e16565b600084815260196020908152604080832084845290915290205490915080156133c4576133a9600182616e16565b60008581526019602090815260408083208684529091529020555b336000908152601d6020908152604080832087845290915290205480156134fa5760006133f2600183616e16565b336000908152601c60205260408120549192509061341290600190616e16565b90508082146134a957336000908152601c6020526040812080548390811061343c5761343c616e00565b9060005260206000200154905080601c6000336001600160a01b03166001600160a01b03168152602001908152602001600020848154811061348057613480616e00565b6000918252602080832090910192909255338152601d8252604080822093825292909152208390555b336000908152601c602052604090208054806134c7576134c7617152565b600082815260208082208301600019908101839055909201909255338252601d815260408083208a845290915281205550505b6000858152600f6020908152604080832033808552908352818420939093558051878152429281019290925287917f203917c2c13a758e439cfec1127753207a42e9750a151a07a4f9484e3e5901b6910160405180910390a3505050506135616001600b55565b50565b606060018054610de090616d9d565b6112173383836151c8565b6135866150ef565b8484816135a65760405163e5d242ed60e01b815260040160405180910390fd5b8015806135c057506000828152600c602052604090205481115b156135de57604051630dd4272d60e41b815260040160405180910390fd5b608088013533146136025760405163bd8cc73160e01b815260040160405180910390fd5b60008781526016602090815260408083208984529091529020541561363a57604051634028e5e560e11b815260040160405180910390fd5b6000878152600f6020908152604080832033845290915290205486146136735760405163786bb09f60e11b815260040160405180910390fd5b610100841115613696576040516313f04adb60e01b815260040160405180910390fd5b6136a360c0840184617168565b6136ad9080617188565b90506000036136cf57604051635f895cef60e11b815260040160405180910390fd5b6101006136df60c0850185617168565b6136e99080617188565b9050111561370a57604051635f895cef60e11b815260040160405180910390fd5b61010061371a60c0850185617168565b6137289060e0810190617188565b905011156137495760405163f283c51960e01b815260040160405180910390fd5b61010061375960c0850185617168565b613767906020810190617188565b90501115613788576040516367181a3960e11b815260040160405180910390fd5b61010061379860c0850185617168565b6137a69060c0810190617188565b905011156137c757604051633769847160e01b815260040160405180910390fd5b600c6137d660c0850185617168565b6137e79060a08101906080016171ce565b60ff16111561380957604051630282898760e21b815260040160405180910390fd5b601f61381860c0850185617168565b6138299060c081019060a0016171ce565b60ff16111561384b57604051638d177e8360e01b815260040160405180910390fd5b600061385f610bf536869003860186616bdd565b905087811461388157604051632f38f48f60e21b815260040160405180910390fd5b6040516334baeab960e01b81526001600160a01b037f000000000000000000000000000000000000000000000000000000000000000016906334baeab9906138d3908f908f908f908f9060040161720f565b602060405180830381865afa1580156138f0573d6000803e3d6000fd5b505050506040513d601f19601f820116820180604052508101906139149190617240565b613931576040516303b2487b60e11b815260040160405180910390fd5b60006139468a358b60015b6020020135615267565b90508435811461396957604051632f38f48f60e21b815260040160405180910390fd5b600061397b60408c01358c600361393c565b905060006139d361398f60c0890189617168565b6139999080617188565b8080601f01602080910402602001604051908101604052809392919081815260200183838082843760009201919091525061511992505050565b90508181146139f557604051632f38f48f60e21b815260040160405180910390fd5b6000601060008154613a0690616e29565b91905081905590508b60116000838152602001908152602001600020819055508a601260008381526020019081526020016000208190555080601660008e815260200190815260200160002060008d81526020019081526020016000208190555087601360008381526020019081526020016000208181613a87919061743d565b905050613aca818b8b8080601f01602080910402602001604051908101604052809392919081815260200183838082843760009201919091525061500292505050565b613ad433826152a7565b336001600160a01b0316818d7fbce71c21e84db5e7dca78ea57ad63b6c66f74f74efc25e33592370ecf39e093b8e8e8e42604051613b159493929190617526565b60405180910390a450505050505050613b2e6001600b55565b505050505050505050565b613b41615149565b6107d0811115613b645760405163499fddb160e01b815260040160405180910390fd5b601a54818103613b72575050565b601a82905560408051828152602081018490527ffa7ce4b1b3c9db75cae1c9e74a97c900b9377a24cc2ac49f55c7466a1404c5e0910160405180910390a15050565b613bbc6150ef565b60c08701353314613be05760405163bd8cc73160e01b815260040160405180910390fd5b60405163c894e75760e01b81526001600160a01b037f0000000000000000000000000000000000000000000000000000000000000000169063c894e75790613c32908d908d908d908d90600401617551565b602060405180830381865afa158015613c4f573d6000803e3d6000fd5b505050506040513d601f19601f82011682018060405250810190613c739190617240565b613c90576040516303b2487b60e11b815260040160405180910390fd5b6000613ca7613ca289358a600161393c565b6152c1565b90506000613cbe613ca260408b01358b600361393c565b90506000613cd5613ca260808c01358c600561393c565b604051909150339084907f3015fe19dc9f8f0d942de39092410a57589dd94d2c9134719335fe04e3695eca90600090a3613d168383838c8c8c8c8c8c6152e1565b505050613d236001600b55565b50505050505050505050565b613d376150ef565b818181613d575760405163e5d242ed60e01b815260040160405180910390fd5b801580613d7157506000828152600c602052604090205481115b15613d8f57604051630dd4272d60e41b815260040160405180910390fd5b6000848152600f60209081526040808320338452909152902054838103613dc9576040516354d92fcb60e01b815260040160405180910390fd5b6000613dd6600186616e16565b905060007f00000000000000000000000000000000000000000000000000000000000000006001600160a01b0316636bf90c716040518163ffffffff1660e01b8152600401602060405180830381865afa158015613e38573d6000803e3d6000fd5b505050506040513d601f19601f82011682018060405250810190613e5c9190617582565b9050600080808515613ec5576000613e75600188616e16565b60008c81526019602090815260408083208484529091529020549091508015613ebe57613ea3600182616e16565b60008d81526019602090815260408083208684529091529020555b5050613f1a565b336000908152601c6020526040902054613ee0906001616ded565b336000818152601d602090815260408083208f8452825280832094909455918152601c825291822080546001810182559083529120018a90555b60008a81526019602090815260408083208884529091528120805460019290613f44908490616ded565b909155505060008a8152600f602090815260408083203384529091529020899055831561422e5760008a8152600c6020526040812080547f000000000000000000000000000000000000000000000000000000000000000092919088908110613faf57613faf616e00565b906000526020600020906009020190506000601660008e815260200190815260200160002060008d81526020019081526020016000205490508060001461402b576000613ffb82614fe7565b90506001600160a01b0381161561401457809650614025565b60068301546001600160a01b031696505b5061403c565b60068201546001600160a01b031695505b6000612710601a548961404f919061759b565b61405991906175b2565b90506140658189616e16565b9450841561410c576040516323b872dd60e01b81523360048201526001600160a01b03888116602483015260448201879052600091908616906323b872dd906064016020604051808303816000875af11580156140c6573d6000803e3d6000fd5b505050506040513d601f19601f820116820180604052508101906140ea9190617240565b90508061410a57604051635da1e97760e11b815260040160405180910390fd5b505b801561422957600a546001600160a01b031695508561418a5760405163079cc67960e41b8152336004820152602481018290526001600160a01b038516906379cc679090604401600060405180830381600087803b15801561416d57600080fd5b505af1158015614181573d6000803e3d6000fd5b50505050614229565b6040516323b872dd60e01b81523360048201526001600160a01b03878116602483015260448201839052600091908616906323b872dd906064016020604051808303816000875af11580156141e3573d6000803e3d6000fd5b505050506040513d601f19601f820116820180604052508101906142079190617240565b90508061422757604051635da1e97760e11b815260040160405180910390fd5b505b505050505b338a7fd797cb7be92b1c65367745105ff0f8f7f0752feac9ef8841c23b1edfa31e2c128b86858761425f828c616e16565b604080519586526001600160a01b0394851660208701528501929092529091166060830152608082015260a081018890524260c082015260e00160405180910390a350505050505050506112176001600b55565b6142be848484611412565b61149c33858585856158a8565b6142d3615eca565b6000808484816142f65760405163e5d242ed60e01b815260040160405180910390fd5b80158061431057506000828152600c602052604090205481115b1561432e57604051630dd4272d60e41b815260040160405180910390fd5b600061433b600188616e16565b6000898152600c602052604090208054919250908290811061435f5761435f616e00565b600091825260209182902060408051610140810182526009909302909101805483526001810154938301939093526002830154908201526003820154606082015260048201546080820152600582015460a082015260068201546001600160a01b03811660c08301526001600160601b03600160a01b9091041660e0820152600782018054919291610100840191906143f790616d9d565b80601f016020809104026020016040519081016040528092919081815260200182805461442390616d9d565b80156144705780601f1061444557610100808354040283529160200191614470565b820191906000526020600020905b81548152906001019060200180831161445357829003601f168201915b5050505050815260200160088201805461448990616d9d565b80601f01602080910402602001604051908101604052809291908181526020018280546144b590616d9d565b80156145025780601f106144d757610100808354040283529160200191614502565b820191906000526020600020905b8154815290600101906020018083116144e557829003601f168201915b505050919092525050506000898152601960209081526040808320948352938152838220549a825260168152838220998252989098529620549597945050505050565b606061455082614ea1565b506000828152601460205260409020805461456a90616d9d565b80601f016020809104026020016040519081016040528092919081815260200182805461459690616d9d565b80156145e35780601f106145b8576101008083540402835291602001916145e3565b820191906000526020600020905b8154815290600101906020018083116145c657829003601f168201915b50505050509050919050565b805160009061461157604051635f895cef60e11b815260040160405180910390fd5b600c826060015160ff16111561463a576040516348c5148960e11b815260040160405180910390fd5b601f826080015160ff161115614663576040516309eabf7d60e21b815260040160405180910390fd5b81516020830151608082901c916fffffffffffffffffffffffffffffffff1690600090614691576000614694565b60015b60ff1660018660a0015160ff16901b6008876080015160ff16901b6010886060015160ff16901b6018896040015161ffff16901b1717171790506146d6615fb8565b838152602081018390526040808201839052516320cf0a3760e01b815260009073__$fc5a2451f3e054f75c2faf9b3818033d8b$__906320cf0a37906147209085906004016175d4565b602060405180830381865af415801561473d573d6000803e3d6000fd5b505050506040513d601f19601f820116820180604052508101906147619190617582565b90508061476d816152c1565b98975050505050505050565b6018602090815260009283526040808420909152908252902080546001820154600283018054929391926147ac90616d9d565b80601f01602080910402602001604051908101604052809291908181526020018280546147d890616d9d565b80156148255780601f106147fa57610100808354040283529160200191614825565b820191906000526020600020905b81548152906001019060200180831161480857829003601f168201915b5050505060038301546004840154600585018054949592946001600160a01b0383169450600160a01b90920460ff16929161485f90616d9d565b80601f016020809104026020016040519081016040528092919081815260200182805461488b90616d9d565b80156148d85780601f106148ad576101008083540402835291602001916148d8565b820191906000526020600020905b8154815290600101906020018083116148bb57829003601f168201915b5050505050905087565b6001600160a01b03918216600090815260056020908152604080832093909416825291909152205460ff1690565b6000838152600c6020526040812054606091829182918080614933848a8a614ed9565b9050806040015160000361497c57604080516000808252602082018181528284019182526060808401909452608085015194909301519199509197509095509092509050614b45565b80604001516001600160401b0381111561499857614998616aa3565b6040519080825280602002602001820160405280156149c1578160200160208202803683370190505b50965080604001516001600160401b038111156149e0576149e0616aa3565b604051908082528060200260200182016040528015614a09578160200160208202803683370190505b50955080604001516001600160401b03811115614a2857614a28616aa3565b604051908082528060200260200182016040528015614a51578160200160208202803683370190505b50945060005b8160400151811015614b33578151600090614a73908390616ded565b9050614a80816001616ded565b898381518110614a9257614a92616e00565b60209081029190910181019190915260008d815260198252604080822084835290925220548851899084908110614acb57614acb616e00565b60209081029190910181019190915260008d815260169091526040812090614af4836001616ded565b815260200190815260200160002054878381518110614b1557614b15616e00565b60209081029190910101525080614b2b81616e29565b915050614a57565b50608081015160609091015190925090505b93975093979195509350565b614b59615e8f565b826000614b6582614fe7565b6001600160a01b031603614b8c576040516307ed98ed60e31b815260040160405180910390fd5b600084815260176020526040902080548410614bbb57604051637df0b86160e01b815260040160405180910390fd5b6018600086815260200190815260200160002060008581526020019081526020016000206040518060e00160405290816000820154815260200160018201548152602001600282018054614c0e90616d9d565b80601f0160208091040260200160405190810160405280929190818152602001828054614c3a90616d9d565b8015614c875780601f10614c5c57610100808354040283529160200191614c87565b820191906000526020600020905b815481529060010190602001808311614c6a57829003601f168201915b50505091835250506003820154602082015260048201546001600160a01b0381166040830152600160a01b900460ff166060820152600582018054608090920191614cd190616d9d565b80601f0160208091040260200160405190810160405280929190818152602001828054614cfd90616d9d565b8015614d4a5780601f10614d1f57610100808354040283529160200191614d4a565b820191906000526020600020905b815481529060010190602001808311614d2d57829003601f168201915b5050505050815250509250505092915050565b614d65615149565b6001600160a01b038116614d8f57604051631e4fbdf760e01b815260006004820152602401611438565b61356181615176565b60156020528160005260406000208181548110614db457600080fd5b90600052602060002001600091509150508054614dd090616d9d565b80601f0160208091040260200160405190810160405280929190818152602001828054614dfc90616d9d565b8015614e495780601f10614e1e57610100808354040283529160200191614e49565b820191906000526020600020905b815481529060010190602001808311614e2c57829003601f168201915b505050505081565b60006001600160e01b031982166380ac58cd60e01b1480614e8257506001600160e01b03198216635b5e139f60e01b145b80610dcb57506301ffc9a760e01b6001600160e01b0319831614610dcb565b600080614ead83614fe7565b90506001600160a01b038116610dcb57604051637e27328960e01b815260048101849052602401611438565b614f0d6040518060a00160405280600081526020016000815260200160008152602001600081526020016000151581525090565b6064821115614f2f57604051630327a73960e61b815260040160405180910390fd5b811580614f3c5750838310155b15614f80576040518060a001604052808481526020018481526020016000815260200185851015614f6d5784614f6f565b855b815260006020909101529050614fd3565b6000614f8c8385616ded565b905084811115614f995750835b6040518060a001604052808581526020018281526020018583614fbc9190616e16565b815260200182815260200186831015158152509150505b9392505050565b611d0583838360016159d1565b6000908152600260205260409020546001600160a01b031690565b6000828152601460205260409020611d058282616e9d565b600080615028858585615ad7565b90506001600160a01b0381166150855761508084600880546000838152600960205260408120829055600182018355919091527ff3f7a9fe364faab93b216da50a3214154f22a0a2b415b23a84c8169e8b636ee30155565b6150a8565b846001600160a01b0316816001600160a01b0316146150a8576150a88185615bcb565b6001600160a01b0385166150c4576150bf84615c4c565b6150e7565b846001600160a01b0316816001600160a01b0316146150e7576150e78585615cfb565b949350505050565b6002600b540361511257604051633ee5aeb560e01b815260040160405180910390fd5b6002600b55565b60008160405160200161512c9190617605565b604051602081830303815290604052805190602001209050919050565b600a546001600160a01b031633146128e25760405163118cdaa760e01b8152336004820152602401611438565b600a80546001600160a01b038381166001600160a01b0319831681179093556040519116919082907f8be0079c531659141344cd1fd0a4f28419497f9722a3daafe3b4186f6b6457e090600090a35050565b6001600160a01b0382166151fa57604051630b61174360e31b81526001600160a01b0383166004820152602401611438565b6001600160a01b03838116600081815260056020908152604080832094871680845294825291829020805460ff191686151590811790915591519182527f17307eab39ab6107e8899845ad3d59bd9653f200f220920489ca2b5937696c31910160405180910390a3505050565b6000608083901c15158061527e5750608082901c15155b1561529c576040516303b2487b60e11b815260040160405180910390fd5b5060809190911b1790565b611217828260405180602001604052806000815250615d4b565b6000816152d057506000919050565b60408051602081018490520161512c565b886152ff5760405163e5d242ed60e01b815260040160405180910390fd5b8888148061530c57508887145b1561532a5760405163591c836760e01b815260040160405180910390fd5b871580159061533857508688145b156153565760405163591c836760e01b815260040160405180910390fd5b8715801561536357508515155b1561538157604051631f9510eb60e01b815260040160405180910390fd5b8615801561538e57508415155b156153ac5760405163782ce69f60e01b815260040160405180910390fd5b6000888152600c60205260409020548611156153db57604051631f9510eb60e01b815260040160405180910390fd5b6000878152600c602052604090205485111561540a5760405163782ce69f60e01b815260040160405180910390fd5b61010083111561542d57604051635fab396360e11b815260040160405180910390fd5b61010081111561545057604051630601a0fb60e51b815260040160405180910390fd5b600089898989898989898960405160200161547399989796959493929190617617565b60408051601f19818403018152918152815160209283012060008d8152600e845282812082825290935291205490915060ff16156154c4576040516314396b6760e11b815260040160405180910390fd5b60008a8152600e602090815260408083208484528252808320805460ff191660011790558c8352600c82528083208151610140810183528e81528084018e90528083018d90526060810194909452608084018b905260a084018a90523360c08501526001600160601b03421660e08501528151601f89018490048402810184019092528782529291610100830191908990899081908401838280828437600092019190915250505090825250604080516020601f8801819004810282018101909252868152918101919087908790819084018382808284376000920182905250939094525050835460018181018655948252602091829020845160099092020190815590830151938101939093555060408101516002830155606081015160038301556080810151600483015560a0810151600583015560c081015160e08201516001600160601b0316600160a01b026001600160a01b03909116176006830155610100810151909190600782019061563d9082616e9d565b5061012082015160088201906156539082616e9d565b50505060008a8152600c602052604090208054908190615674600183616e16565b8154811061568457615684616e00565b600091825260209091206003600990920201015589156156eb5760008a8152601b602090815260408083208b8452825280832081518083019092528e8252818301858152815460018181018455928652939094209151600290930290910191825591519101555b881561573e576000898152601b602090815260408083208a8452825280832081518083019092528e8252818301858152815460018181018455928652939094209151600290930290910191825591519101555b8060010361575c57600d805490600061575683616e29565b91905055505b336001600160a01b0316818c7ff24ca8fe8e48960e559267341f81e7b0f07746d1e98c729930fe251bd2875484428e8d8f8e8e8e6040516157a3979695949392919061766c565b60405180910390a489158015906157b957508815155b1561589b576040516335313c2160e11b81523360048201526000907f00000000000000000000000000000000000000000000000000000000000000006001600160a01b031690636a627842906024016020604051808303816000875af1158015615827573d6000803e3d6000fd5b505050506040513d601f19601f8201168201806040525081019061584b9190617582565b9050801561589957818c336001600160a01b03167fdefc43c3e9b037326c59d7c3f29c0b6b5c94a6fbfcced006b763e74a3115da6d8460405161589091815260200190565b60405180910390a45b505b5050505050505050505050565b6001600160a01b0383163b156159ca57604051630a85bd0160e11b81526001600160a01b0384169063150b7a02906158ea90889088908790879060040161769e565b6020604051808303816000875af1925050508015615925575060408051601f3d908101601f19168201909252615922918101906176d1565b60015b61598e573d808015615953576040519150601f19603f3d011682016040523d82523d6000602084013e615958565b606091505b50805160000361598657604051633250574960e11b81526001600160a01b0385166004820152602401611438565b805160208201fd5b6001600160e01b03198116630a85bd0160e11b146126e657604051633250574960e11b81526001600160a01b0385166004820152602401611438565b5050505050565b80806159e557506001600160a01b03821615155b15615aa75760006159f584614ea1565b90506001600160a01b03831615801590615a215750826001600160a01b0316816001600160a01b031614155b8015615a345750615a3281846148e2565b155b15615a5d5760405163a9fbf51f60e01b81526001600160a01b0384166004820152602401611438565b8115615aa55783856001600160a01b0316826001600160a01b03167f8c5be1e5ebec7d5bd14f71427d1e84f3dd0314c0f7b2291e5b200ac8c7c3b92560405160405180910390a45b505b5050600090815260046020526040902080546001600160a01b0319166001600160a01b0392909216919091179055565b600080615ae384614fe7565b90506001600160a01b03831615615aff57615aff818486615d63565b6001600160a01b03811615615b3d57615b1c6000856000806159d1565b6001600160a01b038116600090815260036020526040902080546000190190555b6001600160a01b03851615615b6c576001600160a01b0385166000908152600360205260409020805460010190555b60008481526002602052604080822080546001600160a01b0319166001600160a01b0389811691821790925591518793918516917fddf252ad1be2c89b69c2b068fc378daa952ba7f163c4a11628f55a4df523b3ef91a4949350505050565b6000615bd683612888565b6000838152600760209081526040808320546001600160a01b0388168452600690925290912091925090818314615c2d57600083815260208281526040808320548584528184208190558352600790915290208290555b6000938452600760209081526040808620869055938552525081205550565b600854600090615c5e90600190616e16565b60008381526009602052604081205460088054939450909284908110615c8657615c86616e00565b906000526020600020015490508060088381548110615ca757615ca7616e00565b6000918252602080832090910192909255828152600990915260408082208490558582528120556008805480615cdf57615cdf617152565b6001900381819060005260206000200160009055905550505050565b60006001615d0884612888565b615d129190616e16565b6001600160a01b039093166000908152600660209081526040808320868452825280832085905593825260079052919091209190915550565b615d558383615dc7565b611d053360008585856158a8565b615d6e838383615e2c565b611d05576001600160a01b038316615d9c57604051637e27328960e01b815260048101829052602401611438565b60405163177e802f60e01b81526001600160a01b038316600482015260248101829052604401611438565b6001600160a01b038216615df157604051633250574960e11b815260006004820152602401611438565b6000615dff8383600061501a565b90506001600160a01b03811615611d05576040516339e3563760e11b815260006004820152602401611438565b60006001600160a01b038316158015906150e75750826001600160a01b0316846001600160a01b03161480615e665750615e6684846148e2565b806150e75750506000908152600460205260409020546001600160a01b03908116911614919050565b6040805160e08101825260008082526020820181905260609282018390528282018190526080820181905260a082015260c081019190915290565b604080516101408101825260008082526020820181905291810182905260608082018390526080820183905260a0820183905260c0820183905260e0820192909252610100810182905261012081019190915290565b60408051610100810182526000918101828152606082018390526080820183905260a0820183905260c0820183905260e08201929092529081908152602001615fb36040518061010001604052806060815260200160608152602001600015158152602001600061ffff168152602001600060ff168152602001600060ff16815260200160608152602001606081525090565b905290565b60405180606001604052806003906020820280368337509192915050565b6001600160e01b03198116811461356157600080fd5b600060208284031215615ffe57600080fd5b8135614fd381615fd6565b60005b8381101561602457818101518382015260200161600c565b50506000910152565b60008151808452616045816020860160208601616009565b601f01601f19169290920160200192915050565b602081526000614fd3602083018461602d565b60006020828403121561607e57600080fd5b5035919050565b80356001600160a01b038116811461609c57600080fd5b919050565b6000806000606084860312156160b657600080fd5b6160bf84616085565b95602085013595506040909401359392505050565b600081518084526020808501945080840160005b83811015616104578151875295820195908201906001016160e8565b509495945050505050565b60e08152600061612260e083018a6160d4565b8281036020840152616134818a6160d4565b9050828103604084015261614881896160d4565b9050828103606084015261615c81886160d4565b6080840196909652505091151560a083015260c090910152949350505050565b6000806040838503121561618f57600080fd5b61619883616085565b946020939093013593505050565b600080604083850312156161b957600080fd5b50508035926020909101359150565b6000806000606084860312156161dd57600080fd5b505081359360208301359350604090920135919050565b60008083601f84011261620657600080fd5b5081356001600160401b0381111561621d57600080fd5b60208301915083602082850101111561623557600080fd5b9250929050565b60008060006040848603121561625157600080fd5b8335925060208401356001600160401b0381111561626e57600080fd5b61627a868287016161f4565b9497909650939450505050565b60008060006060848603121561629c57600080fd5b6162a584616085565b92506162b360208501616085565b9150604084013590509250925092565b8051825260208101511515602083015261ffff604082015116604083015260ff606082015116606083015260ff608082015116608083015260ff60a08201511660a08301525050565b600061010082518185526163228286018261602d565b9150506020830151848203602086015261633c828261602d565b9150506040830151616352604086018215159052565b506060830151616368606086018261ffff169052565b50608083015161637d608086018260ff169052565b5060a083015161639260a086018260ff169052565b5060c083015184820360c08601526163aa828261602d565b91505060e083015184820360e08601526163c4828261602d565b95945050505050565b6163d781846162c3565b60e060c082015260006150e760e083018461630c565b80518252602081015160208301526000604082015160e0604085015261641660e085018261602d565b90506060830151606085015260018060a01b03608084015116608085015260ff60a08401511660a085015260c083015184820360c08601526163c4828261602d565b6000608082016080835280875180835260a08501915060a08160051b86010192506020808a0160005b838110156164af57609f1988870301855261649d8683516163ed565b95509382019390820190600101616481565b5050850197909752509315156040830152506060015292915050565b6000608082016080835280875180835260a08501915060a08160051b86010192506020808a0160005b838110156164af57609f1988870301855261651086835161602d565b955093820193908201906001016164f4565b6000806000806080858703121561653857600080fd5b5050823594602084013594506040840135936060013592509050565b60a08152600061656760a08301886160d4565b828103602084015261657981886160d4565b60408401969096525050911515606083015260809091015292915050565b60ff8116811461356157600080fd5b60008060008060008060008060c0898b0312156165c257600080fd5b883597506020890135965060408901356165db81616597565b955060608901356001600160401b03808211156165f757600080fd5b6166038c838d016161f4565b909750955060808b013591508082111561661c57600080fd5b506166298b828c016161f4565b999c989b50969995989497949560a00135949350505050565b60008060008060008060c0878903121561665b57600080fd5b505084359660208601359650604086013595606081013595506080810135945060a0013592509050565b60006101408c83528b60208401528a60408401528960608401528860808401528760a084015260018060a01b03871660c08401526001600160601b03861660e0840152806101008401526166db8184018661602d565b90508281036101208401526166f0818561602d565b9d9c50505050505050505050505050565b60006020828403121561671357600080fd5b614fd382616085565b6000610140825184526020830151602085015260408301516040850152606083015160608501526080830151608085015260a083015160a085015260c083015161677160c08601826001600160a01b03169052565b5060e083015161678c60e08601826001600160601b03169052565b506101008084015182828701526167a58387018261602d565b9250505061012080840151858303828701526167c1838261602d565b9695505050505050565b86815285602082015260c0604082015260006167ea60c083018761671c565b82810360608401526167fd8187516162c3565b602086015160e060c083015261681660e083018261630c565b91505084608084015282810360a0840152616831818561602d565b9998505050505050505050565b6000608082016080835280875180835260a08501915060a08160051b86010192506020808a0160005b838110156164af57609f1988870301855261688386835161671c565b95509382019390820190600101616867565b801515811461356157600080fd5b600080604083850312156168b657600080fd5b6168bf83616085565b915060208301356168cf81616895565b809150509250929050565b8060408101831015610dcb57600080fd5b8060808101831015610dcb57600080fd5b60008060008060008060008060006102208a8c03121561691b57600080fd5b6169258b8b6168da565b98506169348b60408c016168eb565b97506169438b60c08c016168da565b96506101a08a018b81111561695757600080fd5b6101008b0196503594506101c08a013593506101e08a01356001600160401b038082111561698457600080fd5b6169908d838e016161f4565b90955093506102008c01359150808211156169aa57600080fd5b508a0160e0818d0312156169bd57600080fd5b809150509295985092959850929598565b6000806000806000806000806000806102608b8d0312156169ee57600080fd5b6169f88c8c6168da565b9950616a078c60408d016168eb565b9850616a168c60c08d016168da565b97506101e08b018c811115616a2a57600080fd5b6101008c0197503595506102008b013594506102208b01356001600160401b0380821115616a5757600080fd5b616a638e838f016161f4565b90965094506102408d0135915080821115616a7d57600080fd5b50616a8a8d828e016161f4565b915080935050809150509295989b9194979a5092959850565b634e487b7160e01b600052604160045260246000fd5b604051601f8201601f191681016001600160401b0381118282101715616ae157616ae1616aa3565b604052919050565b60008060008060808587031215616aff57600080fd5b616b0885616085565b93506020616b17818701616085565b93506040860135925060608601356001600160401b0380821115616b3a57600080fd5b818801915088601f830112616b4e57600080fd5b813581811115616b6057616b60616aa3565b616b72601f8201601f19168501616ab9565b91508082528984828501011115616b8857600080fd5b808484018584013760008482840101525080935050505092959194509250565b606081526000616bbb606083018661671c565b60208301949094525060400152919050565b61ffff8116811461356157600080fd5b600060c08284031215616bef57600080fd5b60405160c081018181106001600160401b0382111715616c1157616c11616aa3565b604052823581526020830135616c2681616895565b60208201526040830135616c3981616bcd565b60408201526060830135616c4c81616597565b60608201526080830135616c5f81616597565b608082015260a0830135616c7281616597565b60a08201529392505050565b87815286602082015260e060408201526000616c9d60e083018861602d565b606083018790526001600160a01b038616608084015260ff851660a084015282810360c0840152616cce818561602d565b9a9950505050505050505050565b60008060408385031215616cef57600080fd5b616cf883616085565b9150616d0660208401616085565b90509250929050565b60c081526000616d2260c08301896160d4565b8281036020840152616d3481896160d4565b90508281036040840152616d4881886160d4565b60608401969096525050911515608083015260a0909101529392505050565b602081526000614fd360208301846163ed565b60008060408385031215616d8d57600080fd5b82359150616d0660208401616085565b600181811c90821680616db157607f821691505b602082108103616dd157634e487b7160e01b600052602260045260246000fd5b50919050565b634e487b7160e01b600052601160045260246000fd5b80820180821115610dcb57610dcb616dd7565b634e487b7160e01b600052603260045260246000fd5b81810381811115610dcb57610dcb616dd7565b600060018201616e3b57616e3b616dd7565b5060010190565b601f821115611d0557600081815260208120601f850160051c81016020861015616e695750805b601f850160051c820191505b818110156126e657828155600101616e75565b600019600383901b1c191660019190911b1790565b81516001600160401b03811115616eb657616eb6616aa3565b616eca81616ec48454616d9d565b84616e42565b602080601f831160018114616ef95760008415616ee75750858301515b616ef18582616e88565b8655506126e6565b600085815260208120601f198616915b82811015616f2857888601518255948401946001909101908401616f09565b5085821015616f465787850151600019600388901b60f8161c191681555b5050505050600190811b01905550565b81835281816020850137506000828201602090810191909152601f909101601f19169091010190565b604081526000616f92604083018661602d565b82810360208401526167c1818587616f56565b6001600160401b03831115616fbc57616fbc616aa3565b616fd083616fca8354616d9d565b83616e42565b6000601f841160018114616ffe5760008515616fec5750838201355b616ff68682616e88565b8455506159ca565b600083815260209020601f19861690835b8281101561702f578685013582556020948501946001909201910161700f565b508682101561704c5760001960f88860031b161c19848701351681555b505060018560011b0183555050505050565b85815284602082015260ff84166040820152608060608201526000617087608083018486616f56565b979650505050505050565b6000815461709f81616d9d565b8085526020600183811680156170bc57600181146170d657617104565b60ff1985168884015283151560051b880183019550617104565b866000528260002060005b858110156170fc5781548a82018601529083019084016170e1565b890184019650505b505050505092915050565b87815286602082015285604082015284606082015283608082015260e060a0820152600061714060e0830185617092565b82810360c0840152616cce8185617092565b634e487b7160e01b600052603160045260246000fd5b6000823560fe1983360301811261717e57600080fd5b9190910192915050565b6000808335601e1984360301811261719f57600080fd5b8301803591506001600160401b038211156171b957600080fd5b60200191503681900382131561623557600080fd5b6000602082840312156171e057600080fd5b8135614fd381616597565b8060005b600281101561149c576040808386379384019391909101906001016171ef565b6101a08101604086833761722660408301866171eb565b60408460c084013760a08361010084013795945050505050565b60006020828403121561725257600080fd5b8151614fd381616895565b60008135610dcb81616895565b60008135610dcb81616bcd565b60008135610dcb81616597565b61728e8283617188565b6001600160401b038111156172a5576172a5616aa3565b6172b9816172b38554616d9d565b85616e42565b6000601f8211600181146172e757600083156172d55750838201355b6172df8482616e88565b865550617341565b600085815260209020601f19841690835b8281101561731857868501358255602094850194600190920191016172f8565b50848210156173355760001960f88660031b161c19848701351681555b505060018360011b0185555b505050506173526020830183617188565b617360818360018601616fa5565b5050600281016173896173756040850161725d565b825490151560ff1660ff1991909116178255565b6173b06173986060850161726a565b825462ffff00191660089190911b62ffff0016178255565b6173d96173bf60808501617277565b825463ff000000191660189190911b63ff00000016178255565b6174046173e860a08501617277565b825464ff00000000191660209190911b64ff0000000016178255565b5061741260c0830183617188565b617420818360038601616fa5565b505061742f60e0830183617188565b61149c818360048601616fa5565b8135815560018101602083013561745381616895565b815460ff191660ff8215151617825550604083013561747181616bcd565b815462ffff001916600882901b62ffff001617825550606083013561749581616597565b815463ff0000001916601882901b63ff000000161782555060808301356174bb81616597565b815464ff000000001916602082901b64ff00000000161782555060a08301356174e381616597565b815465ff0000000000191660289190911b65ff00000000001617905560c08201353683900360fe1901811261751757600080fd5b611d0581840160028401617284565b848152606060208201526000617540606083018587616f56565b905082604083015295945050505050565b6101e08101604086833761756860408301866171eb565b60408460c084013760e08361010084013795945050505050565b60006020828403121561759457600080fd5b5051919050565b8082028115828204841417610dcb57610dcb616dd7565b6000826175cf57634e487b7160e01b600052601260045260246000fd5b500490565b60608101818360005b60038110156175fc5781518352602092830192909101906001016175dd565b50505092915050565b6000825161717e818460208701616009565b89815288602082015287604082015286606082015285608082015260e060a0820152600061764960e083018688616f56565b82810360c084015261765c818587616f56565b9c9b505050505050505050505050565b87815286602082015285604082015284606082015283608082015260c060a0820152600061683160c083018486616f56565b6001600160a01b03858116825284166020820152604081018390526080606082018190526000906167c19083018461602d565b6000602082840312156176e357600080fd5b8151614fd381615fd656fea26469706673582212203150ec43b0d190d9664820eaea0ec2e01d5c668650faff4c712071b9d8f0f03364736f6c63430008140033",
  "linkReferences": {
    "poseidon-solidity/PoseidonT4.sol": {
      "PoseidonT4": [
        {
          "length": 20,
          "start": 19179
        }
      ]
    }
  },
  "deployedLinkReferences": {
    "poseidon-solidity/PoseidonT4.sol": {
      "PoseidonT4": [
        {
          "length": 20,
          "start": 18168
        }
      ]
    }
  }
}