{
  "_format": "hh-sol-artifact-1",
  "contractName": "DeepFamily",
  "sourceName": "contracts/DeepFamily.sol",
  "abi": [
    {
      "inputs": [
        {
          "internalType": "address",
          "name": "_deepFamilyTokenContract",
          "type": "address"
        },
        {
          "internalType": "address",
          "name": "_personHashVerifier",
          "type": "address"
        },
        {
          "internalType": "address",
          "name": "_namePoseidonVerifier",
          "type": "address"
        }
      ],
      "stateMutability": "nonpayable",
      "type": "constructor"
    },
    {
      "inputs": [],
      "name": "BasicInfoMismatch",
      "type": "error"
    },
    {
      "inputs": [],
      "name": "ChunkHashMismatch",
      "type": "error"
    },
    {
      "inputs": [],
      "name": "ChunkIndexOutOfRange",
      "type": "error"
    },
    {
      "inputs": [],
      "name": "DirectETHNotAccepted",
      "type": "error"
    },
    {
      "inputs": [],
      "name": "DuplicateVersion",
      "type": "error"
    },
    {
      "inputs": [],
      "name": "ERC721EnumerableForbiddenBatchMint",
      "type": "error"
    },
    {
      "inputs": [
        {
          "internalType": "address",
          "name": "sender",
          "type": "address"
        },
        {
          "internalType": "uint256",
          "name": "tokenId",
          "type": "uint256"
        },
        {
          "internalType": "address",
          "name": "owner",
          "type": "address"
        }
      ],
      "name": "ERC721IncorrectOwner",
      "type": "error"
    },
    {
      "inputs": [
        {
          "internalType": "address",
          "name": "operator",
          "type": "address"
        },
        {
          "internalType": "uint256",
          "name": "tokenId",
          "type": "uint256"
        }
      ],
      "name": "ERC721InsufficientApproval",
      "type": "error"
    },
    {
      "inputs": [
        {
          "internalType": "address",
          "name": "approver",
          "type": "address"
        }
      ],
      "name": "ERC721InvalidApprover",
      "type": "error"
    },
    {
      "inputs": [
        {
          "internalType": "address",
          "name": "operator",
          "type": "address"
        }
      ],
      "name": "ERC721InvalidOperator",
      "type": "error"
    },
    {
      "inputs": [
        {
          "internalType": "address",
          "name": "owner",
          "type": "address"
        }
      ],
      "name": "ERC721InvalidOwner",
      "type": "error"
    },
    {
      "inputs": [
        {
          "internalType": "address",
          "name": "receiver",
          "type": "address"
        }
      ],
      "name": "ERC721InvalidReceiver",
      "type": "error"
    },
    {
      "inputs": [
        {
          "internalType": "address",
          "name": "sender",
          "type": "address"
        }
      ],
      "name": "ERC721InvalidSender",
      "type": "error"
    },
    {
      "inputs": [
        {
          "internalType": "uint256",
          "name": "tokenId",
          "type": "uint256"
        }
      ],
      "name": "ERC721NonexistentToken",
      "type": "error"
    },
    {
      "inputs": [
        {
          "internalType": "address",
          "name": "owner",
          "type": "address"
        },
        {
          "internalType": "uint256",
          "name": "index",
          "type": "uint256"
        }
      ],
      "name": "ERC721OutOfBoundsIndex",
      "type": "error"
    },
    {
      "inputs": [],
      "name": "EndorsementFeeTransferFailed",
      "type": "error"
    },
    {
      "inputs": [],
      "name": "InvalidBirthDay",
      "type": "error"
    },
    {
      "inputs": [],
      "name": "InvalidBirthMonth",
      "type": "error"
    },
    {
      "inputs": [],
      "name": "InvalidBirthPlace",
      "type": "error"
    },
    {
      "inputs": [],
      "name": "InvalidCIDLength",
      "type": "error"
    },
    {
      "inputs": [],
      "name": "InvalidChunkContent",
      "type": "error"
    },
    {
      "inputs": [],
      "name": "InvalidDeathPlace",
      "type": "error"
    },
    {
      "inputs": [],
      "name": "InvalidFatherVersionIndex",
      "type": "error"
    },
    {
      "inputs": [],
      "name": "InvalidFullName",
      "type": "error"
    },
    {
      "inputs": [],
      "name": "InvalidMotherVersionIndex",
      "type": "error"
    },
    {
      "inputs": [],
      "name": "InvalidPersonHash",
      "type": "error"
    },
    {
      "inputs": [],
      "name": "InvalidStory",
      "type": "error"
    },
    {
      "inputs": [],
      "name": "InvalidTagLength",
      "type": "error"
    },
    {
      "inputs": [],
      "name": "InvalidTokenId",
      "type": "error"
    },
    {
      "inputs": [],
      "name": "InvalidTokenURI",
      "type": "error"
    },
    {
      "inputs": [],
      "name": "InvalidVersionIndex",
      "type": "error"
    },
    {
      "inputs": [],
      "name": "InvalidZKProof",
      "type": "error"
    },
    {
      "inputs": [],
      "name": "MustBeNFTHolder",
      "type": "error"
    },
    {
      "inputs": [],
      "name": "MustEndorseVersionFirst",
      "type": "error"
    },
    {
      "inputs": [],
      "name": "NameVerifierNotSet",
      "type": "error"
    },
    {
      "inputs": [
        {
          "internalType": "address",
          "name": "owner",
          "type": "address"
        }
      ],
      "name": "OwnableInvalidOwner",
      "type": "error"
    },
    {
      "inputs": [
        {
          "internalType": "address",
          "name": "account",
          "type": "address"
        }
      ],
      "name": "OwnableUnauthorizedAccount",
      "type": "error"
    },
    {
      "inputs": [],
      "name": "PageSizeExceedsLimit",
      "type": "error"
    },
    {
      "inputs": [],
      "name": "ReentrancyGuardReentrantCall",
      "type": "error"
    },
    {
      "inputs": [],
      "name": "StoryAlreadySealed",
      "type": "error"
    },
    {
      "inputs": [],
      "name": "StoryNotFound",
      "type": "error"
    },
    {
      "inputs": [],
      "name": "TokenContractNotSet",
      "type": "error"
    },
    {
      "inputs": [],
      "name": "VerifierNotSet",
      "type": "error"
    },
    {
      "inputs": [],
      "name": "VersionAlreadyMinted",
      "type": "error"
    },
    {
      "anonymous": false,
      "inputs": [
        {
          "indexed": true,
          "internalType": "address",
          "name": "owner",
          "type": "address"
        },
        {
          "indexed": true,
          "internalType": "address",
          "name": "approved",
          "type": "address"
        },
        {
          "indexed": true,
          "internalType": "uint256",
          "name": "tokenId",
          "type": "uint256"
        }
      ],
      "name": "Approval",
      "type": "event"
    },
    {
      "anonymous": false,
      "inputs": [
        {
          "indexed": true,
          "internalType": "address",
          "name": "owner",
          "type": "address"
        },
        {
          "indexed": true,
          "internalType": "address",
          "name": "operator",
          "type": "address"
        },
        {
          "indexed": false,
          "internalType": "bool",
          "name": "approved",
          "type": "bool"
        }
      ],
      "name": "ApprovalForAll",
      "type": "event"
    },
    {
      "anonymous": false,
      "inputs": [
        {
          "indexed": true,
          "internalType": "address",
          "name": "previousOwner",
          "type": "address"
        },
        {
          "indexed": true,
          "internalType": "address",
          "name": "newOwner",
          "type": "address"
        }
      ],
      "name": "OwnershipTransferred",
      "type": "event"
    },
    {
      "anonymous": false,
      "inputs": [
        {
          "indexed": true,
          "internalType": "bytes32",
          "name": "personHash",
          "type": "bytes32"
        },
        {
          "indexed": true,
          "internalType": "address",
          "name": "prover",
          "type": "address"
        }
      ],
      "name": "PersonHashZKVerified",
      "type": "event"
    },
    {
      "anonymous": false,
      "inputs": [
        {
          "indexed": true,
          "internalType": "bytes32",
          "name": "personHash",
          "type": "bytes32"
        },
        {
          "indexed": true,
          "internalType": "uint256",
          "name": "tokenId",
          "type": "uint256"
        },
        {
          "indexed": true,
          "internalType": "address",
          "name": "owner",
          "type": "address"
        },
        {
          "indexed": false,
          "internalType": "uint256",
          "name": "versionIndex",
          "type": "uint256"
        },
        {
          "indexed": false,
          "internalType": "string",
          "name": "tokenURI",
          "type": "string"
        },
        {
          "indexed": false,
          "internalType": "uint256",
          "name": "timestamp",
          "type": "uint256"
        }
      ],
      "name": "PersonNFTMinted",
      "type": "event"
    },
    {
      "anonymous": false,
      "inputs": [
        {
          "indexed": true,
          "internalType": "bytes32",
          "name": "personHash",
          "type": "bytes32"
        },
        {
          "indexed": true,
          "internalType": "uint256",
          "name": "versionIndex",
          "type": "uint256"
        },
        {
          "indexed": true,
          "internalType": "address",
          "name": "addedBy",
          "type": "address"
        },
        {
          "indexed": false,
          "internalType": "uint256",
          "name": "timestamp",
          "type": "uint256"
        },
        {
          "indexed": false,
          "internalType": "bytes32",
          "name": "fatherHash",
          "type": "bytes32"
        },
        {
          "indexed": false,
          "internalType": "uint256",
          "name": "fatherVersionIndex",
          "type": "uint256"
        },
        {
          "indexed": false,
          "internalType": "bytes32",
          "name": "motherHash",
          "type": "bytes32"
        },
        {
          "indexed": false,
          "internalType": "uint256",
          "name": "motherVersionIndex",
          "type": "uint256"
        },
        {
          "indexed": false,
          "internalType": "string",
          "name": "tag",
          "type": "string"
        }
      ],
      "name": "PersonVersionAdded",
      "type": "event"
    },
    {
      "anonymous": false,
      "inputs": [
        {
          "indexed": true,
          "internalType": "bytes32",
          "name": "personHash",
          "type": "bytes32"
        },
        {
          "indexed": true,
          "internalType": "address",
          "name": "endorser",
          "type": "address"
        },
        {
          "indexed": false,
          "internalType": "uint256",
          "name": "versionIndex",
          "type": "uint256"
        },
        {
          "indexed": false,
          "internalType": "uint256",
          "name": "endorsementFee",
          "type": "uint256"
        },
        {
          "indexed": false,
          "internalType": "uint256",
          "name": "timestamp",
          "type": "uint256"
        }
      ],
      "name": "PersonVersionEndorsed",
      "type": "event"
    },
    {
      "anonymous": false,
      "inputs": [
        {
          "indexed": true,
          "internalType": "uint256",
          "name": "tokenId",
          "type": "uint256"
        },
        {
          "indexed": true,
          "internalType": "uint256",
          "name": "chunkIndex",
          "type": "uint256"
        },
        {
          "indexed": false,
          "internalType": "bytes32",
          "name": "chunkHash",
          "type": "bytes32"
        },
        {
          "indexed": true,
          "internalType": "address",
          "name": "editor",
          "type": "address"
        },
        {
          "indexed": false,
          "internalType": "uint256",
          "name": "contentLength",
          "type": "uint256"
        }
      ],
      "name": "StoryChunkAdded",
      "type": "event"
    },
    {
      "anonymous": false,
      "inputs": [
        {
          "indexed": true,
          "internalType": "uint256",
          "name": "tokenId",
          "type": "uint256"
        },
        {
          "indexed": true,
          "internalType": "uint256",
          "name": "chunkIndex",
          "type": "uint256"
        },
        {
          "indexed": false,
          "internalType": "bytes32",
          "name": "oldHash",
          "type": "bytes32"
        },
        {
          "indexed": false,
          "internalType": "bytes32",
          "name": "newHash",
          "type": "bytes32"
        },
        {
          "indexed": true,
          "internalType": "address",
          "name": "editor",
          "type": "address"
        }
      ],
      "name": "StoryChunkUpdated",
      "type": "event"
    },
    {
      "anonymous": false,
      "inputs": [
        {
          "indexed": true,
          "internalType": "uint256",
          "name": "tokenId",
          "type": "uint256"
        },
        {
          "indexed": false,
          "internalType": "uint256",
          "name": "totalChunks",
          "type": "uint256"
        },
        {
          "indexed": false,
          "internalType": "bytes32",
          "name": "fullStoryHash",
          "type": "bytes32"
        },
        {
          "indexed": true,
          "internalType": "address",
          "name": "sealer",
          "type": "address"
        }
      ],
      "name": "StorySealed",
      "type": "event"
    },
    {
      "anonymous": false,
      "inputs": [
        {
          "indexed": true,
          "internalType": "address",
          "name": "miner",
          "type": "address"
        },
        {
          "indexed": true,
          "internalType": "bytes32",
          "name": "personHash",
          "type": "bytes32"
        },
        {
          "indexed": true,
          "internalType": "uint256",
          "name": "versionIndex",
          "type": "uint256"
        },
        {
          "indexed": false,
          "internalType": "uint256",
          "name": "reward",
          "type": "uint256"
        }
      ],
      "name": "TokenRewardDistributed",
      "type": "event"
    },
    {
      "anonymous": false,
      "inputs": [
        {
          "indexed": true,
          "internalType": "uint256",
          "name": "tokenId",
          "type": "uint256"
        },
        {
          "indexed": true,
          "internalType": "address",
          "name": "owner",
          "type": "address"
        },
        {
          "indexed": false,
          "internalType": "string",
          "name": "oldURI",
          "type": "string"
        },
        {
          "indexed": false,
          "internalType": "string",
          "name": "newURI",
          "type": "string"
        }
      ],
      "name": "TokenURIUpdated",
      "type": "event"
    },
    {
      "anonymous": false,
      "inputs": [
        {
          "indexed": true,
          "internalType": "address",
          "name": "from",
          "type": "address"
        },
        {
          "indexed": true,
          "internalType": "address",
          "name": "to",
          "type": "address"
        },
        {
          "indexed": true,
          "internalType": "uint256",
          "name": "tokenId",
          "type": "uint256"
        }
      ],
      "name": "Transfer",
      "type": "event"
    },
    {
      "stateMutability": "payable",
      "type": "fallback"
    },
    {
      "inputs": [],
      "name": "DEEP_FAMILY_TOKEN_CONTRACT",
      "outputs": [
        {
          "internalType": "address",
          "name": "",
          "type": "address"
        }
      ],
      "stateMutability": "view",
      "type": "function"
    },
    {
      "inputs": [],
      "name": "MAX_CHUNK_CONTENT_LENGTH",
      "outputs": [
        {
          "internalType": "uint256",
          "name": "",
          "type": "uint256"
        }
      ],
      "stateMutability": "view",
      "type": "function"
    },
    {
      "inputs": [],
      "name": "MAX_LONG_TEXT_LENGTH",
      "outputs": [
        {
          "internalType": "uint256",
          "name": "",
          "type": "uint256"
        }
      ],
      "stateMutability": "view",
      "type": "function"
    },
    {
      "inputs": [],
      "name": "MAX_QUERY_PAGE_SIZE",
      "outputs": [
        {
          "internalType": "uint256",
          "name": "",
          "type": "uint256"
        }
      ],
      "stateMutability": "view",
      "type": "function"
    },
    {
      "inputs": [],
      "name": "MAX_STORY_CHUNKS",
      "outputs": [
        {
          "internalType": "uint256",
          "name": "",
          "type": "uint256"
        }
      ],
      "stateMutability": "view",
      "type": "function"
    },
    {
      "inputs": [],
      "name": "NAME_POSEIDON_VERIFIER",
      "outputs": [
        {
          "internalType": "address",
          "name": "",
          "type": "address"
        }
      ],
      "stateMutability": "view",
      "type": "function"
    },
    {
      "inputs": [],
      "name": "PERSON_HASH_VERIFIER",
      "outputs": [
        {
          "internalType": "address",
          "name": "",
          "type": "address"
        }
      ],
      "stateMutability": "view",
      "type": "function"
    },
    {
      "inputs": [
        {
          "internalType": "uint256",
          "name": "",
          "type": "uint256"
        },
        {
          "internalType": "uint256",
          "name": "",
          "type": "uint256"
        }
      ],
      "name": "activeChunkIndices",
      "outputs": [
        {
          "internalType": "uint256",
          "name": "",
          "type": "uint256"
        }
      ],
      "stateMutability": "view",
      "type": "function"
    },
    {
      "inputs": [
        {
          "internalType": "bytes32",
          "name": "personHash",
          "type": "bytes32"
        },
        {
          "internalType": "bytes32",
          "name": "fatherHash",
          "type": "bytes32"
        },
        {
          "internalType": "bytes32",
          "name": "motherHash",
          "type": "bytes32"
        },
        {
          "internalType": "uint256",
          "name": "fatherVersionIndex",
          "type": "uint256"
        },
        {
          "internalType": "uint256",
          "name": "motherVersionIndex",
          "type": "uint256"
        },
        {
          "internalType": "string",
          "name": "tag",
          "type": "string"
        },
        {
          "internalType": "string",
          "name": "metadataCID",
          "type": "string"
        }
      ],
      "name": "addPerson",
      "outputs": [],
      "stateMutability": "nonpayable",
      "type": "function"
    },
    {
      "inputs": [
        {
          "internalType": "uint256[2]",
          "name": "a",
          "type": "uint256[2]"
        },
        {
          "internalType": "uint256[2][2]",
          "name": "b",
          "type": "uint256[2][2]"
        },
        {
          "internalType": "uint256[2]",
          "name": "c",
          "type": "uint256[2]"
        },
        {
          "internalType": "uint256[7]",
          "name": "publicSignals",
          "type": "uint256[7]"
        },
        {
          "internalType": "uint256",
          "name": "fatherVersionIndex",
          "type": "uint256"
        },
        {
          "internalType": "uint256",
          "name": "motherVersionIndex",
          "type": "uint256"
        },
        {
          "internalType": "string",
          "name": "tag",
          "type": "string"
        },
        {
          "internalType": "string",
          "name": "metadataCID",
          "type": "string"
        }
      ],
      "name": "addPersonZK",
      "outputs": [],
      "stateMutability": "nonpayable",
      "type": "function"
    },
    {
      "inputs": [
        {
          "internalType": "uint256",
          "name": "tokenId",
          "type": "uint256"
        },
        {
          "internalType": "uint256",
          "name": "chunkIndex",
          "type": "uint256"
        },
        {
          "internalType": "string",
          "name": "content",
          "type": "string"
        },
        {
          "internalType": "bytes32",
          "name": "expectedHash",
          "type": "bytes32"
        }
      ],
      "name": "addStoryChunk",
      "outputs": [],
      "stateMutability": "nonpayable",
      "type": "function"
    },
    {
      "inputs": [
        {
          "internalType": "address",
          "name": "to",
          "type": "address"
        },
        {
          "internalType": "uint256",
          "name": "tokenId",
          "type": "uint256"
        }
      ],
      "name": "approve",
      "outputs": [],
      "stateMutability": "nonpayable",
      "type": "function"
    },
    {
      "inputs": [
        {
          "internalType": "address",
          "name": "owner",
          "type": "address"
        }
      ],
      "name": "balanceOf",
      "outputs": [
        {
          "internalType": "uint256",
          "name": "",
          "type": "uint256"
        }
      ],
      "stateMutability": "view",
      "type": "function"
    },
    {
      "inputs": [
        {
          "internalType": "bytes32",
          "name": "",
          "type": "bytes32"
        },
        {
          "internalType": "uint256",
          "name": "",
          "type": "uint256"
        },
        {
          "internalType": "uint256",
          "name": "",
          "type": "uint256"
        }
      ],
      "name": "childrenOf",
      "outputs": [
        {
          "internalType": "bytes32",
          "name": "childHash",
          "type": "bytes32"
        },
        {
          "internalType": "uint256",
          "name": "childVersionIndex",
          "type": "uint256"
        }
      ],
      "stateMutability": "view",
      "type": "function"
    },
    {
      "inputs": [
        {
          "internalType": "bytes32",
          "name": "personHash",
          "type": "bytes32"
        },
        {
          "internalType": "uint256",
          "name": "versionIndex",
          "type": "uint256"
        }
      ],
      "name": "endorseVersion",
      "outputs": [],
      "stateMutability": "nonpayable",
      "type": "function"
    },
    {
      "inputs": [
        {
          "internalType": "bytes32",
          "name": "",
          "type": "bytes32"
        },
        {
          "internalType": "address",
          "name": "",
          "type": "address"
        }
      ],
      "name": "endorsedVersionIndex",
      "outputs": [
        {
          "internalType": "uint256",
          "name": "",
          "type": "uint256"
        }
      ],
      "stateMutability": "view",
      "type": "function"
    },
    {
      "inputs": [
        {
          "internalType": "uint256",
          "name": "tokenId",
          "type": "uint256"
        }
      ],
      "name": "getApproved",
      "outputs": [
        {
          "internalType": "address",
          "name": "",
          "type": "address"
        }
      ],
      "stateMutability": "view",
      "type": "function"
    },
    {
      "inputs": [
        {
          "internalType": "uint256",
          "name": "tokenId",
          "type": "uint256"
        }
      ],
      "name": "getNFTDetails",
      "outputs": [
        {
          "internalType": "bytes32",
          "name": "personHash",
          "type": "bytes32"
        },
        {
          "internalType": "uint256",
          "name": "versionIndex",
          "type": "uint256"
        },
        {
          "components": [
            {
              "internalType": "bytes32",
              "name": "personHash",
              "type": "bytes32"
            },
            {
              "internalType": "bytes32",
              "name": "fatherHash",
              "type": "bytes32"
            },
            {
              "internalType": "bytes32",
              "name": "motherHash",
              "type": "bytes32"
            },
            {
              "internalType": "uint256",
              "name": "versionIndex",
              "type": "uint256"
            },
            {
              "internalType": "uint256",
              "name": "fatherVersionIndex",
              "type": "uint256"
            },
            {
              "internalType": "uint256",
              "name": "motherVersionIndex",
              "type": "uint256"
            },
            {
              "internalType": "address",
              "name": "addedBy",
              "type": "address"
            },
            {
              "internalType": "uint96",
              "name": "timestamp",
              "type": "uint96"
            },
            {
              "internalType": "string",
              "name": "tag",
              "type": "string"
            },
            {
              "internalType": "string",
              "name": "metadataCID",
              "type": "string"
            }
          ],
          "internalType": "struct DeepFamily.PersonVersion",
          "name": "version",
          "type": "tuple"
        },
        {
          "components": [
            {
              "components": [
                {
                  "internalType": "bytes32",
                  "name": "fullNameCommitment",
                  "type": "bytes32"
                },
                {
                  "internalType": "bool",
                  "name": "isBirthBC",
                  "type": "bool"
                },
                {
                  "internalType": "uint16",
                  "name": "birthYear",
                  "type": "uint16"
                },
                {
                  "internalType": "uint8",
                  "name": "birthMonth",
                  "type": "uint8"
                },
                {
                  "internalType": "uint8",
                  "name": "birthDay",
                  "type": "uint8"
                },
                {
                  "internalType": "uint8",
                  "name": "gender",
                  "type": "uint8"
                }
              ],
              "internalType": "struct DeepFamily.PersonBasicInfo",
              "name": "basicInfo",
              "type": "tuple"
            },
            {
              "components": [
                {
                  "internalType": "string",
                  "name": "fullName",
                  "type": "string"
                },
                {
                  "internalType": "string",
                  "name": "birthPlace",
                  "type": "string"
                },
                {
                  "internalType": "bool",
                  "name": "isDeathBC",
                  "type": "bool"
                },
                {
                  "internalType": "uint16",
                  "name": "deathYear",
                  "type": "uint16"
                },
                {
                  "internalType": "uint8",
                  "name": "deathMonth",
                  "type": "uint8"
                },
                {
                  "internalType": "uint8",
                  "name": "deathDay",
                  "type": "uint8"
                },
                {
                  "internalType": "string",
                  "name": "deathPlace",
                  "type": "string"
                },
                {
                  "internalType": "string",
                  "name": "story",
                  "type": "string"
                }
              ],
              "internalType": "struct DeepFamily.PersonSupplementInfo",
              "name": "supplementInfo",
              "type": "tuple"
            }
          ],
          "internalType": "struct DeepFamily.PersonCoreInfo",
          "name": "coreInfo",
          "type": "tuple"
        },
        {
          "internalType": "uint256",
          "name": "endorsementCount",
          "type": "uint256"
        },
        {
          "internalType": "string",
          "name": "nftTokenURI",
          "type": "string"
        }
      ],
      "stateMutability": "view",
      "type": "function"
    },
    {
      "inputs": [
        {
          "components": [
            {
              "internalType": "bytes32",
              "name": "fullNameCommitment",
              "type": "bytes32"
            },
            {
              "internalType": "bool",
              "name": "isBirthBC",
              "type": "bool"
            },
            {
              "internalType": "uint16",
              "name": "birthYear",
              "type": "uint16"
            },
            {
              "internalType": "uint8",
              "name": "birthMonth",
              "type": "uint8"
            },
            {
              "internalType": "uint8",
              "name": "birthDay",
              "type": "uint8"
            },
            {
              "internalType": "uint8",
              "name": "gender",
              "type": "uint8"
            }
          ],
          "internalType": "struct DeepFamily.PersonBasicInfo",
          "name": "basicInfo",
          "type": "tuple"
        }
      ],
      "name": "getPersonHash",
      "outputs": [
        {
          "internalType": "bytes32",
          "name": "",
          "type": "bytes32"
        }
      ],
      "stateMutability": "pure",
      "type": "function"
    },
    {
      "inputs": [
        {
          "internalType": "uint256",
          "name": "tokenId",
          "type": "uint256"
        },
        {
          "internalType": "uint256",
          "name": "chunkIndex",
          "type": "uint256"
        }
      ],
      "name": "getStoryChunk",
      "outputs": [
        {
          "components": [
            {
              "internalType": "uint256",
              "name": "chunkIndex",
              "type": "uint256"
            },
            {
              "internalType": "bytes32",
              "name": "chunkHash",
              "type": "bytes32"
            },
            {
              "internalType": "string",
              "name": "content",
              "type": "string"
            },
            {
              "internalType": "uint256",
              "name": "timestamp",
              "type": "uint256"
            },
            {
              "internalType": "address",
              "name": "lastEditor",
              "type": "address"
            }
          ],
          "internalType": "struct DeepFamily.StoryChunk",
          "name": "chunk",
          "type": "tuple"
        }
      ],
      "stateMutability": "view",
      "type": "function"
    },
    {
      "inputs": [
        {
          "internalType": "uint256",
          "name": "tokenId",
          "type": "uint256"
        }
      ],
      "name": "getStoryMetadata",
      "outputs": [
        {
          "components": [
            {
              "internalType": "uint256",
              "name": "totalChunks",
              "type": "uint256"
            },
            {
              "internalType": "bytes32",
              "name": "fullStoryHash",
              "type": "bytes32"
            },
            {
              "internalType": "uint256",
              "name": "lastUpdateTime",
              "type": "uint256"
            },
            {
              "internalType": "bool",
              "name": "isSealed",
              "type": "bool"
            },
            {
              "internalType": "uint256",
              "name": "totalLength",
              "type": "uint256"
            }
          ],
          "internalType": "struct DeepFamily.StoryMetadata",
          "name": "metadata",
          "type": "tuple"
        }
      ],
      "stateMutability": "view",
      "type": "function"
    },
    {
      "inputs": [
        {
          "internalType": "bytes32",
          "name": "personHash",
          "type": "bytes32"
        },
        {
          "internalType": "uint256",
          "name": "versionIndex",
          "type": "uint256"
        }
      ],
      "name": "getVersionDetails",
      "outputs": [
        {
          "components": [
            {
              "internalType": "bytes32",
              "name": "personHash",
              "type": "bytes32"
            },
            {
              "internalType": "bytes32",
              "name": "fatherHash",
              "type": "bytes32"
            },
            {
              "internalType": "bytes32",
              "name": "motherHash",
              "type": "bytes32"
            },
            {
              "internalType": "uint256",
              "name": "versionIndex",
              "type": "uint256"
            },
            {
              "internalType": "uint256",
              "name": "fatherVersionIndex",
              "type": "uint256"
            },
            {
              "internalType": "uint256",
              "name": "motherVersionIndex",
              "type": "uint256"
            },
            {
              "internalType": "address",
              "name": "addedBy",
              "type": "address"
            },
            {
              "internalType": "uint96",
              "name": "timestamp",
              "type": "uint96"
            },
            {
              "internalType": "string",
              "name": "tag",
              "type": "string"
            },
            {
              "internalType": "string",
              "name": "metadataCID",
              "type": "string"
            }
          ],
          "internalType": "struct DeepFamily.PersonVersion",
          "name": "version",
          "type": "tuple"
        },
        {
          "internalType": "uint256",
          "name": "endorsementCount",
          "type": "uint256"
        },
        {
          "internalType": "uint256",
          "name": "tokenId",
          "type": "uint256"
        }
      ],
      "stateMutability": "view",
      "type": "function"
    },
    {
      "inputs": [
        {
          "internalType": "address",
          "name": "owner",
          "type": "address"
        },
        {
          "internalType": "address",
          "name": "operator",
          "type": "address"
        }
      ],
      "name": "isApprovedForAll",
      "outputs": [
        {
          "internalType": "bool",
          "name": "",
          "type": "bool"
        }
      ],
      "stateMutability": "view",
      "type": "function"
    },
    {
      "inputs": [
        {
          "internalType": "bytes32",
          "name": "parentHash",
          "type": "bytes32"
        },
        {
          "internalType": "uint256",
          "name": "parentVersionIndex",
          "type": "uint256"
        },
        {
          "internalType": "uint256",
          "name": "offset",
          "type": "uint256"
        },
        {
          "internalType": "uint256",
          "name": "limit",
          "type": "uint256"
        }
      ],
      "name": "listChildren",
      "outputs": [
        {
          "internalType": "bytes32[]",
          "name": "childHashes",
          "type": "bytes32[]"
        },
        {
          "internalType": "uint256[]",
          "name": "childVersionIndices",
          "type": "uint256[]"
        },
        {
          "internalType": "uint256",
          "name": "totalCount",
          "type": "uint256"
        },
        {
          "internalType": "bool",
          "name": "hasMore",
          "type": "bool"
        },
        {
          "internalType": "uint256",
          "name": "nextOffset",
          "type": "uint256"
        }
      ],
      "stateMutability": "view",
      "type": "function"
    },
    {
      "inputs": [
        {
          "internalType": "bytes32",
          "name": "personHash",
          "type": "bytes32"
        },
        {
          "internalType": "uint256",
          "name": "offset",
          "type": "uint256"
        },
        {
          "internalType": "uint256",
          "name": "limit",
          "type": "uint256"
        }
      ],
      "name": "listPersonVersions",
      "outputs": [
        {
          "components": [
            {
              "internalType": "bytes32",
              "name": "personHash",
              "type": "bytes32"
            },
            {
              "internalType": "bytes32",
              "name": "fatherHash",
              "type": "bytes32"
            },
            {
              "internalType": "bytes32",
              "name": "motherHash",
              "type": "bytes32"
            },
            {
              "internalType": "uint256",
              "name": "versionIndex",
              "type": "uint256"
            },
            {
              "internalType": "uint256",
              "name": "fatherVersionIndex",
              "type": "uint256"
            },
            {
              "internalType": "uint256",
              "name": "motherVersionIndex",
              "type": "uint256"
            },
            {
              "internalType": "address",
              "name": "addedBy",
              "type": "address"
            },
            {
              "internalType": "uint96",
              "name": "timestamp",
              "type": "uint96"
            },
            {
              "internalType": "string",
              "name": "tag",
              "type": "string"
            },
            {
              "internalType": "string",
              "name": "metadataCID",
              "type": "string"
            }
          ],
          "internalType": "struct DeepFamily.PersonVersion[]",
          "name": "versions",
          "type": "tuple[]"
        },
        {
          "internalType": "uint256",
          "name": "totalVersions",
          "type": "uint256"
        },
        {
          "internalType": "bool",
          "name": "hasMore",
          "type": "bool"
        },
        {
          "internalType": "uint256",
          "name": "nextOffset",
          "type": "uint256"
        }
      ],
      "stateMutability": "view",
      "type": "function"
    },
    {
      "inputs": [
        {
          "internalType": "uint256",
          "name": "tokenId",
          "type": "uint256"
        },
        {
          "internalType": "uint256",
          "name": "offset",
          "type": "uint256"
        },
        {
          "internalType": "uint256",
          "name": "limit",
          "type": "uint256"
        }
      ],
      "name": "listStoryChunks",
      "outputs": [
        {
          "components": [
            {
              "internalType": "uint256",
              "name": "chunkIndex",
              "type": "uint256"
            },
            {
              "internalType": "bytes32",
              "name": "chunkHash",
              "type": "bytes32"
            },
            {
              "internalType": "string",
              "name": "content",
              "type": "string"
            },
            {
              "internalType": "uint256",
              "name": "timestamp",
              "type": "uint256"
            },
            {
              "internalType": "address",
              "name": "lastEditor",
              "type": "address"
            }
          ],
          "internalType": "struct DeepFamily.StoryChunk[]",
          "name": "chunks",
          "type": "tuple[]"
        },
        {
          "internalType": "uint256",
          "name": "totalChunks",
          "type": "uint256"
        },
        {
          "internalType": "bool",
          "name": "hasMore",
          "type": "bool"
        },
        {
          "internalType": "uint256",
          "name": "nextOffset",
          "type": "uint256"
        }
      ],
      "stateMutability": "view",
      "type": "function"
    },
    {
      "inputs": [
        {
          "internalType": "uint256",
          "name": "tokenId",
          "type": "uint256"
        },
        {
          "internalType": "uint256",
          "name": "offset",
          "type": "uint256"
        },
        {
          "internalType": "uint256",
          "name": "limit",
          "type": "uint256"
        }
      ],
      "name": "listTokenURIHistory",
      "outputs": [
        {
          "internalType": "string[]",
          "name": "uris",
          "type": "string[]"
        },
        {
          "internalType": "uint256",
          "name": "totalCount",
          "type": "uint256"
        },
        {
          "internalType": "bool",
          "name": "hasMore",
          "type": "bool"
        },
        {
          "internalType": "uint256",
          "name": "nextOffset",
          "type": "uint256"
        }
      ],
      "stateMutability": "view",
      "type": "function"
    },
    {
      "inputs": [
        {
          "internalType": "bytes32",
          "name": "personHash",
          "type": "bytes32"
        },
        {
          "internalType": "uint256",
          "name": "offset",
          "type": "uint256"
        },
        {
          "internalType": "uint256",
          "name": "limit",
          "type": "uint256"
        }
      ],
      "name": "listVersionsEndorsementStats",
      "outputs": [
        {
          "internalType": "uint256[]",
          "name": "versionIndices",
          "type": "uint256[]"
        },
        {
          "internalType": "uint256[]",
          "name": "endorsementCounts",
          "type": "uint256[]"
        },
        {
          "internalType": "uint256[]",
          "name": "tokenIds",
          "type": "uint256[]"
        },
        {
          "internalType": "uint256",
          "name": "totalVersions",
          "type": "uint256"
        },
        {
          "internalType": "bool",
          "name": "hasMore",
          "type": "bool"
        },
        {
          "internalType": "uint256",
          "name": "nextOffset",
          "type": "uint256"
        }
      ],
      "stateMutability": "view",
      "type": "function"
    },
    {
      "inputs": [
        {
          "internalType": "uint256[2]",
          "name": "a",
          "type": "uint256[2]"
        },
        {
          "internalType": "uint256[2][2]",
          "name": "b",
          "type": "uint256[2][2]"
        },
        {
          "internalType": "uint256[2]",
          "name": "c",
          "type": "uint256[2]"
        },
        {
          "internalType": "uint256[4]",
          "name": "publicSignals",
          "type": "uint256[4]"
        },
        {
          "internalType": "bytes32",
          "name": "personHash",
          "type": "bytes32"
        },
        {
          "internalType": "uint256",
          "name": "versionIndex",
          "type": "uint256"
        },
        {
          "internalType": "string",
          "name": "_tokenURI",
          "type": "string"
        },
        {
          "components": [
            {
              "components": [
                {
                  "internalType": "bytes32",
                  "name": "fullNameCommitment",
                  "type": "bytes32"
                },
                {
                  "internalType": "bool",
                  "name": "isBirthBC",
                  "type": "bool"
                },
                {
                  "internalType": "uint16",
                  "name": "birthYear",
                  "type": "uint16"
                },
                {
                  "internalType": "uint8",
                  "name": "birthMonth",
                  "type": "uint8"
                },
                {
                  "internalType": "uint8",
                  "name": "birthDay",
                  "type": "uint8"
                },
                {
                  "internalType": "uint8",
                  "name": "gender",
                  "type": "uint8"
                }
              ],
              "internalType": "struct DeepFamily.PersonBasicInfo",
              "name": "basicInfo",
              "type": "tuple"
            },
            {
              "components": [
                {
                  "internalType": "string",
                  "name": "fullName",
                  "type": "string"
                },
                {
                  "internalType": "string",
                  "name": "birthPlace",
                  "type": "string"
                },
                {
                  "internalType": "bool",
                  "name": "isDeathBC",
                  "type": "bool"
                },
                {
                  "internalType": "uint16",
                  "name": "deathYear",
                  "type": "uint16"
                },
                {
                  "internalType": "uint8",
                  "name": "deathMonth",
                  "type": "uint8"
                },
                {
                  "internalType": "uint8",
                  "name": "deathDay",
                  "type": "uint8"
                },
                {
                  "internalType": "string",
                  "name": "deathPlace",
                  "type": "string"
                },
                {
                  "internalType": "string",
                  "name": "story",
                  "type": "string"
                }
              ],
              "internalType": "struct DeepFamily.PersonSupplementInfo",
              "name": "supplementInfo",
              "type": "tuple"
            }
          ],
          "internalType": "struct DeepFamily.PersonCoreInfo",
          "name": "coreInfo",
          "type": "tuple"
        }
      ],
      "name": "mintPersonNFT",
      "outputs": [],
      "stateMutability": "nonpayable",
      "type": "function"
    },
    {
      "inputs": [],
      "name": "name",
      "outputs": [
        {
          "internalType": "string",
          "name": "",
          "type": "string"
        }
      ],
      "stateMutability": "view",
      "type": "function"
    },
    {
      "inputs": [
        {
          "internalType": "uint256",
          "name": "",
          "type": "uint256"
        }
      ],
      "name": "nftCoreInfo",
      "outputs": [
        {
          "components": [
            {
              "internalType": "bytes32",
              "name": "fullNameCommitment",
              "type": "bytes32"
            },
            {
              "internalType": "bool",
              "name": "isBirthBC",
              "type": "bool"
            },
            {
              "internalType": "uint16",
              "name": "birthYear",
              "type": "uint16"
            },
            {
              "internalType": "uint8",
              "name": "birthMonth",
              "type": "uint8"
            },
            {
              "internalType": "uint8",
              "name": "birthDay",
              "type": "uint8"
            },
            {
              "internalType": "uint8",
              "name": "gender",
              "type": "uint8"
            }
          ],
          "internalType": "struct DeepFamily.PersonBasicInfo",
          "name": "basicInfo",
          "type": "tuple"
        },
        {
          "components": [
            {
              "internalType": "string",
              "name": "fullName",
              "type": "string"
            },
            {
              "internalType": "string",
              "name": "birthPlace",
              "type": "string"
            },
            {
              "internalType": "bool",
              "name": "isDeathBC",
              "type": "bool"
            },
            {
              "internalType": "uint16",
              "name": "deathYear",
              "type": "uint16"
            },
            {
              "internalType": "uint8",
              "name": "deathMonth",
              "type": "uint8"
            },
            {
              "internalType": "uint8",
              "name": "deathDay",
              "type": "uint8"
            },
            {
              "internalType": "string",
              "name": "deathPlace",
              "type": "string"
            },
            {
              "internalType": "string",
              "name": "story",
              "type": "string"
            }
          ],
          "internalType": "struct DeepFamily.PersonSupplementInfo",
          "name": "supplementInfo",
          "type": "tuple"
        }
      ],
      "stateMutability": "view",
      "type": "function"
    },
    {
      "inputs": [],
      "name": "owner",
      "outputs": [
        {
          "internalType": "address",
          "name": "",
          "type": "address"
        }
      ],
      "stateMutability": "view",
      "type": "function"
    },
    {
      "inputs": [
        {
          "internalType": "uint256",
          "name": "tokenId",
          "type": "uint256"
        }
      ],
      "name": "ownerOf",
      "outputs": [
        {
          "internalType": "address",
          "name": "",
          "type": "address"
        }
      ],
      "stateMutability": "view",
      "type": "function"
    },
    {
      "inputs": [
        {
          "internalType": "bytes32",
          "name": "",
          "type": "bytes32"
        },
        {
          "internalType": "uint256",
          "name": "",
          "type": "uint256"
        }
      ],
      "name": "personVersions",
      "outputs": [
        {
          "internalType": "bytes32",
          "name": "personHash",
          "type": "bytes32"
        },
        {
          "internalType": "bytes32",
          "name": "fatherHash",
          "type": "bytes32"
        },
        {
          "internalType": "bytes32",
          "name": "motherHash",
          "type": "bytes32"
        },
        {
          "internalType": "uint256",
          "name": "versionIndex",
          "type": "uint256"
        },
        {
          "internalType": "uint256",
          "name": "fatherVersionIndex",
          "type": "uint256"
        },
        {
          "internalType": "uint256",
          "name": "motherVersionIndex",
          "type": "uint256"
        },
        {
          "internalType": "address",
          "name": "addedBy",
          "type": "address"
        },
        {
          "internalType": "uint96",
          "name": "timestamp",
          "type": "uint96"
        },
        {
          "internalType": "string",
          "name": "tag",
          "type": "string"
        },
        {
          "internalType": "string",
          "name": "metadataCID",
          "type": "string"
        }
      ],
      "stateMutability": "view",
      "type": "function"
    },
    {
      "inputs": [],
      "name": "renounceOwnership",
      "outputs": [],
      "stateMutability": "nonpayable",
      "type": "function"
    },
    {
      "inputs": [
        {
          "internalType": "address",
          "name": "from",
          "type": "address"
        },
        {
          "internalType": "address",
          "name": "to",
          "type": "address"
        },
        {
          "internalType": "uint256",
          "name": "tokenId",
          "type": "uint256"
        }
      ],
      "name": "safeTransferFrom",
      "outputs": [],
      "stateMutability": "nonpayable",
      "type": "function"
    },
    {
      "inputs": [
        {
          "internalType": "address",
          "name": "from",
          "type": "address"
        },
        {
          "internalType": "address",
          "name": "to",
          "type": "address"
        },
        {
          "internalType": "uint256",
          "name": "tokenId",
          "type": "uint256"
        },
        {
          "internalType": "bytes",
          "name": "data",
          "type": "bytes"
        }
      ],
      "name": "safeTransferFrom",
      "outputs": [],
      "stateMutability": "nonpayable",
      "type": "function"
    },
    {
      "inputs": [
        {
          "internalType": "uint256",
          "name": "tokenId",
          "type": "uint256"
        }
      ],
      "name": "sealStory",
      "outputs": [],
      "stateMutability": "nonpayable",
      "type": "function"
    },
    {
      "inputs": [
        {
          "internalType": "address",
          "name": "operator",
          "type": "address"
        },
        {
          "internalType": "bool",
          "name": "approved",
          "type": "bool"
        }
      ],
      "name": "setApprovalForAll",
      "outputs": [],
      "stateMutability": "nonpayable",
      "type": "function"
    },
    {
      "inputs": [
        {
          "internalType": "uint256",
          "name": "",
          "type": "uint256"
        },
        {
          "internalType": "uint256",
          "name": "",
          "type": "uint256"
        }
      ],
      "name": "storyChunks",
      "outputs": [
        {
          "internalType": "uint256",
          "name": "chunkIndex",
          "type": "uint256"
        },
        {
          "internalType": "bytes32",
          "name": "chunkHash",
          "type": "bytes32"
        },
        {
          "internalType": "string",
          "name": "content",
          "type": "string"
        },
        {
          "internalType": "uint256",
          "name": "timestamp",
          "type": "uint256"
        },
        {
          "internalType": "address",
          "name": "lastEditor",
          "type": "address"
        }
      ],
      "stateMutability": "view",
      "type": "function"
    },
    {
      "inputs": [
        {
          "internalType": "uint256",
          "name": "",
          "type": "uint256"
        }
      ],
      "name": "storyMetadata",
      "outputs": [
        {
          "internalType": "uint256",
          "name": "totalChunks",
          "type": "uint256"
        },
        {
          "internalType": "bytes32",
          "name": "fullStoryHash",
          "type": "bytes32"
        },
        {
          "internalType": "uint256",
          "name": "lastUpdateTime",
          "type": "uint256"
        },
        {
          "internalType": "bool",
          "name": "isSealed",
          "type": "bool"
        },
        {
          "internalType": "uint256",
          "name": "totalLength",
          "type": "uint256"
        }
      ],
      "stateMutability": "view",
      "type": "function"
    },
    {
      "inputs": [
        {
          "internalType": "bytes4",
          "name": "interfaceId",
          "type": "bytes4"
        }
      ],
      "name": "supportsInterface",
      "outputs": [
        {
          "internalType": "bool",
          "name": "",
          "type": "bool"
        }
      ],
      "stateMutability": "view",
      "type": "function"
    },
    {
      "inputs": [],
      "name": "symbol",
      "outputs": [
        {
          "internalType": "string",
          "name": "",
          "type": "string"
        }
      ],
      "stateMutability": "view",
      "type": "function"
    },
    {
      "inputs": [
        {
          "internalType": "uint256",
          "name": "index",
          "type": "uint256"
        }
      ],
      "name": "tokenByIndex",
      "outputs": [
        {
          "internalType": "uint256",
          "name": "",
          "type": "uint256"
        }
      ],
      "stateMutability": "view",
      "type": "function"
    },
    {
      "inputs": [],
      "name": "tokenCounter",
      "outputs": [
        {
          "internalType": "uint256",
          "name": "",
          "type": "uint256"
        }
      ],
      "stateMutability": "view",
      "type": "function"
    },
    {
      "inputs": [
        {
          "internalType": "uint256",
          "name": "",
          "type": "uint256"
        }
      ],
      "name": "tokenIdToPerson",
      "outputs": [
        {
          "internalType": "bytes32",
          "name": "",
          "type": "bytes32"
        }
      ],
      "stateMutability": "view",
      "type": "function"
    },
    {
      "inputs": [
        {
          "internalType": "uint256",
          "name": "",
          "type": "uint256"
        }
      ],
      "name": "tokenIdToVersionIndex",
      "outputs": [
        {
          "internalType": "uint256",
          "name": "",
          "type": "uint256"
        }
      ],
      "stateMutability": "view",
      "type": "function"
    },
    {
      "inputs": [
        {
          "internalType": "address",
          "name": "owner",
          "type": "address"
        },
        {
          "internalType": "uint256",
          "name": "index",
          "type": "uint256"
        }
      ],
      "name": "tokenOfOwnerByIndex",
      "outputs": [
        {
          "internalType": "uint256",
          "name": "",
          "type": "uint256"
        }
      ],
      "stateMutability": "view",
      "type": "function"
    },
    {
      "inputs": [
        {
          "internalType": "uint256",
          "name": "tokenId",
          "type": "uint256"
        }
      ],
      "name": "tokenURI",
      "outputs": [
        {
          "internalType": "string",
          "name": "",
          "type": "string"
        }
      ],
      "stateMutability": "view",
      "type": "function"
    },
    {
      "inputs": [
        {
          "internalType": "uint256",
          "name": "",
          "type": "uint256"
        },
        {
          "internalType": "uint256",
          "name": "",
          "type": "uint256"
        }
      ],
      "name": "tokenURIHistory",
      "outputs": [
        {
          "internalType": "string",
          "name": "",
          "type": "string"
        }
      ],
      "stateMutability": "view",
      "type": "function"
    },
    {
      "inputs": [],
      "name": "totalPersonsCount",
      "outputs": [
        {
          "internalType": "uint256",
          "name": "",
          "type": "uint256"
        }
      ],
      "stateMutability": "view",
      "type": "function"
    },
    {
      "inputs": [],
      "name": "totalSupply",
      "outputs": [
        {
          "internalType": "uint256",
          "name": "",
          "type": "uint256"
        }
      ],
      "stateMutability": "view",
      "type": "function"
    },
    {
      "inputs": [
        {
          "internalType": "address",
          "name": "from",
          "type": "address"
        },
        {
          "internalType": "address",
          "name": "to",
          "type": "address"
        },
        {
          "internalType": "uint256",
          "name": "tokenId",
          "type": "uint256"
        }
      ],
      "name": "transferFrom",
      "outputs": [],
      "stateMutability": "nonpayable",
      "type": "function"
    },
    {
      "inputs": [
        {
          "internalType": "address",
          "name": "newOwner",
          "type": "address"
        }
      ],
      "name": "transferOwnership",
      "outputs": [],
      "stateMutability": "nonpayable",
      "type": "function"
    },
    {
      "inputs": [
        {
          "internalType": "uint256",
          "name": "tokenId",
          "type": "uint256"
        },
        {
          "internalType": "uint256",
          "name": "chunkIndex",
          "type": "uint256"
        },
        {
          "internalType": "string",
          "name": "newContent",
          "type": "string"
        },
        {
          "internalType": "bytes32",
          "name": "expectedHash",
          "type": "bytes32"
        }
      ],
      "name": "updateStoryChunk",
      "outputs": [],
      "stateMutability": "nonpayable",
      "type": "function"
    },
    {
      "inputs": [
        {
          "internalType": "uint256",
          "name": "tokenId",
          "type": "uint256"
        },
        {
          "internalType": "string",
          "name": "newURI",
          "type": "string"
        }
      ],
      "name": "updateTokenURI",
      "outputs": [],
      "stateMutability": "nonpayable",
      "type": "function"
    },
    {
      "inputs": [
        {
          "internalType": "bytes32",
          "name": "",
          "type": "bytes32"
        },
        {
          "internalType": "uint256",
          "name": "",
          "type": "uint256"
        }
      ],
      "name": "versionEndorsementCount",
      "outputs": [
        {
          "internalType": "uint256",
          "name": "",
          "type": "uint256"
        }
      ],
      "stateMutability": "view",
      "type": "function"
    },
    {
      "inputs": [
        {
          "internalType": "bytes32",
          "name": "",
          "type": "bytes32"
        },
        {
          "internalType": "bytes32",
          "name": "",
          "type": "bytes32"
        }
      ],
      "name": "versionExists",
      "outputs": [
        {
          "internalType": "bool",
          "name": "",
          "type": "bool"
        }
      ],
      "stateMutability": "view",
      "type": "function"
    },
    {
      "inputs": [
        {
          "internalType": "bytes32",
          "name": "",
          "type": "bytes32"
        },
        {
          "internalType": "uint256",
          "name": "",
          "type": "uint256"
        }
      ],
      "name": "versionToTokenId",
      "outputs": [
        {
          "internalType": "uint256",
          "name": "",
          "type": "uint256"
        }
      ],
      "stateMutability": "view",
      "type": "function"
    },
    {
      "stateMutability": "payable",
      "type": "receive"
    }
  ],
  "bytecode": "0x60e06040523480156200001157600080fd5b5060405162006ac838038062006ac88339810160408190526200003491620001df565b336040518060400160405280600a8152602001694465657046616d696c7960b01b8152506040518060400160405280600681526020016546616d696c7960d01b8152508160009081620000889190620002ce565b506001620000978282620002ce565b5050506001600160a01b038116620000c957604051631e4fbdf760e01b81526000600482015260240160405180910390fd5b620000d48162000170565b506001600b556001600160a01b0383166200010257604051634c32eccd60e11b815260040160405180910390fd5b6001600160a01b0382166200012a57604051635fce01bb60e01b815260040160405180910390fd5b6001600160a01b038116620001525760405163abd45c1f60e01b815260040160405180910390fd5b6001600160a01b0392831660805290821660a0521660c0526200039a565b600a80546001600160a01b038381166001600160a01b0319831681179093556040519116919082907f8be0079c531659141344cd1fd0a4f28419497f9722a3daafe3b4186f6b6457e090600090a35050565b80516001600160a01b0381168114620001da57600080fd5b919050565b600080600060608486031215620001f557600080fd5b6200020084620001c2565b92506200021060208501620001c2565b91506200022060408501620001c2565b90509250925092565b634e487b7160e01b600052604160045260246000fd5b600181811c908216806200025457607f821691505b6020821081036200027557634e487b7160e01b600052602260045260246000fd5b50919050565b601f821115620002c957600081815260208120601f850160051c81016020861015620002a45750805b601f850160051c820191505b81811015620002c557828155600101620002b0565b5050505b505050565b81516001600160401b03811115620002ea57620002ea62000229565b6200030281620002fb84546200023f565b846200027b565b602080601f8311600181146200033a5760008415620003215750858301515b600019600386901b1c1916600185901b178555620002c5565b600085815260208120601f198616915b828110156200036b578886015182559484019460019091019084016200034a565b50858210156200038a5787850151600019600388901b60f8161c191681555b5050505050600190811b01905550565b60805160a05160c0516166db620003ed6000396000818161054e01526120ee015260008181610aa701526130de015260008181610b8c0152818161329f015281816133f0015261469901526166db6000f3fe60806040526004361061038f5760003560e01c80637189567c116101dc578063bd7eef2311610102578063d596b1b0116100a0578063f2fde38b1161006f578063f2fde38b14610c64578063f74faf6614610c84578063fe980dd614610cbc578063fe9c3c0514610cee576103ad565b8063d596b1b014610bae578063dbcdc08f14610be6578063e985e9c514610c17578063f1fad06714610c37576103ad565b8063c87b56dd116100dc578063c87b56dd14610b24578063c893eb5614610b44578063d082e38114610b64578063d1486a1b14610b7a576103ad565b8063bd7eef2314610ac9578063c090fba214610adf578063c841eb1f14610b0e576103ad565b806395d89b411161017a578063b570b2ab11610149578063b570b2ab14610a35578063b5c7198d14610a55578063b88d4fde14610a75578063bcecdf1d14610a95576103ad565b806395d89b41146109c0578063a22cb465146109d5578063a92c6ad6146109f5578063b0ac331f14610a15576103ad565b806382260f35116101b657806382260f35146108c957806383af7191146108fb5780638da5cb5b146109725780638f2360b314610990576103ad565b80637189567c1461082f57806376f0f85d14610893578063797e57e5146108a9576103ad565b80632f745c59116102c1578063538ffa0b1161025f578063690a76bf1161022e578063690a76bf146107ad5780636be9cd02146107da57806370a08231146107fa578063715018a61461081a576103ad565b8063538ffa0b146106f957806357611dfb146107265780636352211e1461075757806367b9b3e114610777576103ad565b806342842e0e1161029b57806342842e0e1461065e578063431a342a1461067e57806346cdf869146106b95780634f6ccce7146106d9576103ad565b80632f745c59146105ee5780632f8afa611461060e5780633791b66a1461062e576103ad565b8063164e38ee1161032e5780631d5d7be9116103085780631d5d7be91461053c57806323b872dd14610570578063278d5fce1461059057806328273a2a146105be576103ad565b8063164e38ee146104d257806318160ddd1461050757806318e97fd11461051c576103ad565b806307b8fe9c1161036a57806307b8fe9c146103c6578063081812fc14610440578063095ea7b3146104785780631516fa251461049a576103ad565b8062eee6a1146103c657806301ffc9a7146103ee57806306fdde031461041e576103ad565b366103ad5760405163af9f22fb60e01b815260040160405180910390fd5b60405163af9f22fb60e01b815260040160405180910390fd5b3480156103d257600080fd5b506103db606481565b6040519081526020015b60405180910390f35b3480156103fa57600080fd5b5061040e610409366004615180565b610d0e565b60405190151581526020016103e5565b34801561042a57600080fd5b50610433610d39565b6040516103e591906151ed565b34801561044c57600080fd5b5061046061045b366004615200565b610dcb565b6040516001600160a01b0390911681526020016103e5565b34801561048457600080fd5b50610498610493366004615235565b610df4565b005b3480156104a657600080fd5b506103db6104b536600461525f565b601a60209081526000928352604080842090915290825290205481565b3480156104de57600080fd5b506104f26104ed366004615281565b610e03565b604080519283526020830191909152016103e5565b34801561051357600080fd5b506008546103db565b34801561052857600080fd5b506104986105373660046152f5565b610e4d565b34801561054857600080fd5b506104607f000000000000000000000000000000000000000000000000000000000000000081565b34801561057c57600080fd5b5061049861058b366004615340565b610ffa565b34801561059c57600080fd5b506105b06105ab366004615200565b61108a565b6040516103e5929190615486565b3480156105ca57600080fd5b506105de6105d9366004615281565b611393565b6040516103e594939291906154f7565b3480156105fa57600080fd5b506103db610609366004615235565b6115f4565b34801561061a57600080fd5b5061049861062936600461556a565b611659565b34801561063a57600080fd5b5061064e610649366004615281565b611675565b6040516103e5949392919061560b565b34801561066a57600080fd5b50610498610679366004615340565b61184b565b34801561068a57600080fd5b5061040e61069936600461525f565b600e60209081526000928352604080842090915290825290205460ff1681565b3480156106c557600080fd5b506104986106d4366004615662565b61186b565b3480156106e557600080fd5b506103db6106f4366004615200565b611a7d565b34801561070557600080fd5b506103db610714366004615200565b60126020526000908152604090205481565b34801561073257600080fd5b506107466107413660046156bc565b611ad6565b6040516103e5959493929190615729565b34801561076357600080fd5b50610460610772366004615200565b611cdc565b34801561078357600080fd5b5061079761079236600461525f565b611ce7565b6040516103e59a99989796959493929190615795565b3480156107b957600080fd5b506103db6107c8366004615200565b60116020526000908152604090205481565b3480156107e657600080fd5b506104986107f5366004615833565b611e81565b34801561080657600080fd5b506103db610815366004615901565b612399565b34801561082657600080fd5b506104986123e1565b34801561083b57600080fd5b5061084f61084a366004615200565b6123f5565b6040516103e59190600060a0820190508251825260208301516020830152604083015160408301526060830151151560608301526080830151608083015292915050565b34801561089f57600080fd5b506103db61010081565b3480156108b557600080fd5b506104986108c4366004615200565b6124a8565b3480156108d557600080fd5b506108e96108e4366004615200565b612596565b6040516103e5969594939291906159cb565b34801561090757600080fd5b50610948610916366004615200565b6017602052600090815260409020805460018201546002830154600384015460049094015492939192909160ff169085565b6040805195865260208601949094529284019190915215156060830152608082015260a0016103e5565b34801561097e57600080fd5b50600a546001600160a01b0316610460565b34801561099c57600080fd5b506109b06109ab366004615281565b612b41565b6040516103e59493929190615a3e565b3480156109cc57600080fd5b50610433612e1e565b3480156109e157600080fd5b506104986109f0366004615aa3565b612e2d565b348015610a0157600080fd5b506103db610a1036600461525f565b612e38565b348015610a2157600080fd5b50610498610a30366004615662565b612e69565b348015610a4157600080fd5b50610498610a50366004615ada565b6130a2565b348015610a6157600080fd5b50610498610a7036600461525f565b61320d565b348015610a8157600080fd5b50610498610a90366004615bf5565b613579565b348015610aa157600080fd5b506104607f000000000000000000000000000000000000000000000000000000000000000081565b348015610ad557600080fd5b506103db600d5481565b348015610aeb57600080fd5b50610aff610afa36600461525f565b613591565b6040516103e593929190615cb4565b348015610b1a57600080fd5b506103db6103e881565b348015610b3057600080fd5b50610433610b3f366004615200565b61380e565b348015610b5057600080fd5b506103db610b5f366004615cf8565b6138b8565b348015610b7057600080fd5b506103db60105481565b348015610b8657600080fd5b506104607f000000000000000000000000000000000000000000000000000000000000000081565b348015610bba57600080fd5b506103db610bc936600461525f565b601660209081526000928352604080842090915290825290205481565b348015610bf257600080fd5b50610c06610c0136600461525f565b613a42565b6040516103e5959493929190615d99565b348015610c2357600080fd5b5061040e610c32366004615dda565b613b0e565b348015610c4357600080fd5b50610c57610c5236600461525f565b613b3c565b6040516103e59190615e0d565b348015610c7057600080fd5b50610498610c7f366004615901565b613ca2565b348015610c9057600080fd5b506103db610c9f366004615e20565b600f60209081526000928352604080842090915290825290205481565b348015610cc857600080fd5b50610cdc610cd7366004615281565b613ce0565b6040516103e596959493929190615e43565b348015610cfa57600080fd5b50610433610d0936600461525f565b613f10565b60006001600160e01b0319821663780e9d6360e01b1480610d335750610d3382613fc9565b92915050565b606060008054610d4890615e9b565b80601f0160208091040260200160405190810160405280929190818152602001828054610d7490615e9b565b8015610dc15780601f10610d9657610100808354040283529160200191610dc1565b820191906000526020600020905b815481529060010190602001808311610da457829003601f168201915b5050505050905090565b6000610dd682614019565b506000828152600460205260409020546001600160a01b0316610d33565b610dff828233614051565b5050565b601b6020528260005260406000206020528160005260406000208181548110610e2b57600080fd5b6000918252602090912060029091020180546001909101549093509150839050565b33610e578461405e565b6001600160a01b031614610e7e5760405163daffd8a560e01b815260040160405180910390fd5b610100811115610ea1576040516313f04adb60e01b815260040160405180910390fd5b60008381526014602052604081208054610eba90615e9b565b80601f0160208091040260200160405190810160405280929190818152602001828054610ee690615e9b565b8015610f335780601f10610f0857610100808354040283529160200191610f33565b820191906000526020600020905b815481529060010190602001808311610f1657829003601f168201915b50505050509050600081511115610f6e57600084815260156020908152604082208054600181018255908352912001610f6c8282615f30565b505b610fae8484848080601f01602080910402602001604051908101604052809392919081815260200183838082843760009201919091525061407992505050565b336001600160a01b0316847f121742bae49dddcfbb9763fd1170f0dbc15b13707126182671611bbeeeae7cd8838686604051610fec93929190616012565b60405180910390a350505050565b6001600160a01b03821661102957604051633250574960e11b8152600060048201526024015b60405180910390fd5b6000611036838333614091565b9050836001600160a01b0316816001600160a01b031614611084576040516364283d7b60e01b81526001600160a01b0380861660048301526024820184905282166044820152606401611020565b50505050565b601360209081526000918252604091829020825160c08101845281548152600182015460ff80821615159483019490945261010080820461ffff168387015263010000008204851660608401526401000000008204851660808401526501000000000090910490931660a082015283519283019093526002810180549192918290829061111690615e9b565b80601f016020809104026020016040519081016040528092919081815260200182805461114290615e9b565b801561118f5780601f106111645761010080835404028352916020019161118f565b820191906000526020600020905b81548152906001019060200180831161117257829003601f168201915b505050505081526020016001820180546111a890615e9b565b80601f01602080910402602001604051908101604052809291908181526020018280546111d490615e9b565b80156112215780601f106111f657610100808354040283529160200191611221565b820191906000526020600020905b81548152906001019060200180831161120457829003601f168201915b5050509183525050600282015460ff8082161515602084015261ffff6101008304166040840152630100000082048116606084015264010000000090910416608082015260038201805460a09092019161127a90615e9b565b80601f01602080910402602001604051908101604052809291908181526020018280546112a690615e9b565b80156112f35780601f106112c8576101008083540402835291602001916112f3565b820191906000526020600020905b8154815290600101906020018083116112d657829003601f168201915b5050505050815260200160048201805461130c90615e9b565b80601f016020809104026020016040519081016040528092919081815260200182805461133890615e9b565b80156113855780601f1061135a57610100808354040283529160200191611385565b820191906000526020600020905b81548152906001019060200180831161136857829003601f168201915b505050505081525050905082565b60606000808086816113a48261405e565b6001600160a01b0316036113cb576040516307ed98ed60e31b815260040160405180910390fd5b600088815260176020526040812080549550906113e9868a8a614168565b90508060400151600003611443576040805160008082526020820190925290611428565b611415615023565b81526020019060019003908161140d5790505b508682608001518360600151965096509650965050506115ea565b80604001516001600160401b0381111561145f5761145f615baf565b60405190808252806020026020018201604052801561149857816020015b611485615023565b81526020019060019003908161147d5790505b50965060005b81604001518110156115d75760008b815260186020526040812083519091906114c890849061604e565b81526020019081526020016000206040518060a0016040529081600082015481526020016001820154815260200160028201805461150590615e9b565b80601f016020809104026020016040519081016040528092919081815260200182805461153190615e9b565b801561157e5780601f106115535761010080835404028352916020019161157e565b820191906000526020600020905b81548152906001019060200180831161156157829003601f168201915b5050509183525050600382015460208201526004909101546001600160a01b031660409091015288518990839081106115b9576115b9616061565b602002602001018190525080806115cf90616077565b91505061149e565b5060808101516060909101519094509250505b5093509350935093565b60006115ff83612399565b82106116305760405163295f44f760e21b81526001600160a01b038416600482015260248101839052604401611020565b506001600160a01b03919091166000908152600660209081526040808320938352929052205490565b61166a898989898989898989614268565b505050505050505050565b600083815260156020526040812080546060929091819081611698858989614168565b905080604001516000036116ec5760408051600080825260208201909252906116d1565b60608152602001906001900390816116bc5790505b50858260800151836060015195509550955095505050611842565b80604001516001600160401b0381111561170857611708615baf565b60405190808252806020026020018201604052801561173b57816020015b60608152602001906001900390816117265790505b50955060005b816040015181101561182f578151839061175c90839061604e565b8154811061176c5761176c616061565b90600052602060002001805461178190615e9b565b80601f01602080910402602001604051908101604052809291908181526020018280546117ad90615e9b565b80156117fa5780601f106117cf576101008083540402835291602001916117fa565b820191906000526020600020905b8154815290600101906020018083116117dd57829003601f168201915b505050505087828151811061181157611811616061565b6020026020010181905250808061182790616077565b915050611741565b5060808101516060909101519093509150505b93509350935093565b61186683838360405180602001604052806000815250613579565b505050565b61187361476b565b3361187d8661405e565b6001600160a01b0316146118a45760405163daffd8a560e01b815260040160405180910390fd5b6000858152601760205260409020600381015460ff16156118d857604051631fcb6b9160e01b815260040160405180910390fd5b805485106118f957604051637df0b86160e01b815260040160405180910390fd5b82158061190757506103e883115b1561192557604051630ef9fbf360e21b815260040160405180910390fd5b600086815260186020908152604080832088845282528083208151601f8801849004840281018401909252868252929161197a9190889088908190840183828082843760009201919091525061479592505050565b9050831580159061198b5750838114155b156119a95760405163016c02f160e61b815260040160405180910390fd5b6001820154600283018054600091906119c190615e9b565b60018601859055915050600284016119da888a83616090565b504260038501819055600480860180546001600160a01b0319163317905560028701919091558501548790611a10908390616149565b611a1a919061604e565b6004860155611a288a6147c5565b604080518381526020810185905233918b918d917f065c2222316af985857085b11b199dc175990521803ca44d2ab1a4ef4c0ea6ef910160405180910390a45050505050611a766001600b55565b5050505050565b6000611a8860085490565b8210611ab15760405163295f44f760e21b81526000600482015260248101839052604401611020565b60088281548110611ac457611ac4616061565b90600052602060002001549050919050565b6060806000808088611afb5760405163e5d242ed60e01b815260040160405180910390fd5b6000898152600c6020526040902054881115611b2a57604051630dd4272d60e41b815260040160405180910390fd5b6000898152601b602090815260408083208b845290915281208054945090611b53858a8a614168565b90508060400151600003611b94576040805160008082526020820190815281830190925260808301516060909301519098509096509093509150611cd19050565b80604001516001600160401b03811115611bb057611bb0615baf565b604051908082528060200260200182016040528015611bd9578160200160208202803683370190505b50965080604001516001600160401b03811115611bf857611bf8615baf565b604051908082528060200260200182016040528015611c21578160200160208202803683370190505b50955060005b8160400151811015611cbe57600083828460000151611c46919061604e565b81548110611c5657611c56616061565b906000526020600020906002020190508060000154898381518110611c7d57611c7d616061565b6020026020010181815250508060010154888381518110611ca057611ca0616061565b60209081029190910101525080611cb681616077565b915050611c27565b5060808101516060909101519093509150505b945094509450945094565b6000610d3382614019565b600c6020528160005260406000208181548110611d0357600080fd5b600091825260209091206009909102018054600182015460028301546003840154600485015460058601546006870154600788018054979a5095985093969295919490936001600160a01b03811693600160a01b9091046001600160601b031692909190611d7090615e9b565b80601f0160208091040260200160405190810160405280929190818152602001828054611d9c90615e9b565b8015611de95780601f10611dbe57610100808354040283529160200191611de9565b820191906000526020600020905b815481529060010190602001808311611dcc57829003601f168201915b505050505090806008018054611dfe90615e9b565b80601f0160208091040260200160405190810160405280929190818152602001828054611e2a90615e9b565b8015611e775780601f10611e4c57610100808354040283529160200191611e77565b820191906000526020600020905b815481529060010190602001808311611e5a57829003601f168201915b505050505090508a565b611e8961476b565b848481611ea95760405163e5d242ed60e01b815260040160405180910390fd5b801580611ec357506000828152600c602052604090205481115b15611ee157604051630dd4272d60e41b815260040160405180910390fd5b6000611eee600188616149565b600089815260166020908152604080832084845290915290205490915015611f2957604051634028e5e560e11b815260040160405180910390fd5b6000888152600f602090815260408083203384529091529020548714611f625760405163786bb09f60e11b815260040160405180910390fd5b610100851115611f85576040516313f04adb60e01b815260040160405180910390fd5b611f9260c085018561615c565b611f9c908061617c565b9050600003611fbe57604051635f895cef60e11b815260040160405180910390fd5b610100611fce60c086018661615c565b611fd8908061617c565b90501115611ff957604051635f895cef60e11b815260040160405180910390fd5b61010061200960c086018661615c565b6120179060e081019061617c565b905011156120385760405163f283c51960e01b815260040160405180910390fd5b61010061204860c086018661615c565b61205690602081019061617c565b90501115612077576040516367181a3960e11b815260040160405180910390fd5b61010061208760c086018661615c565b6120959060c081019061617c565b905011156120b657604051633769847160e01b815260040160405180910390fd5b60006120ca610b5f36879003870187615cf8565b90508881146120ec57604051632f38f48f60e21b815260040160405180910390fd5b7f00000000000000000000000000000000000000000000000000000000000000006001600160a01b0316635fe8c13b8e8e8e8e6040518563ffffffff1660e01b815260040161213e94939291906161e6565b602060405180830381865afa15801561215b573d6000803e3d6000fd5b505050506040513d601f19601f8201168201806040525081019061217f9190616217565b61219c576040516303b2487b60e11b815260040160405180910390fd5b60006121b18b358c60015b602002013561488d565b9050853581146121d457604051632f38f48f60e21b815260040160405180910390fd5b60006121e660408d01358d60036121a7565b9050600061223e6121fa60c08a018a61615c565b612204908061617c565b8080601f01602080910402602001604051908101604052809392919081815260200183838082843760009201919091525061479592505050565b905081811461226057604051632f38f48f60e21b815260040160405180910390fd5b600060106000815461227190616077565b9182905550905061228233826148cd565b6122c2818c8c8080601f01602080910402602001604051908101604052809392919081815260200183838082843760009201919091525061407992505050565b8c60116000838152602001908152602001600020819055508b601260008381526020019081526020016000208190555080601660008f81526020019081526020016000206000888152602001908152602001600020819055508860136000838152602001908152602001600020818161233b9190616414565b905050336001600160a01b0316818e7fbce71c21e84db5e7dca78ea57ad63b6c66f74f74efc25e33592370ecf39e093b8f8f8f4260405161237f94939291906164fd565b60405180910390a4505050505050505061166a6001600b55565b60006001600160a01b0382166123c5576040516322718ad960e21b815260006004820152602401611020565b506001600160a01b031660009081526003602052604090205490565b6123e96148e7565b6123f36000614914565b565b6040805160a08101825260008082526020820181905291810182905260608101829052608081019190915281600061242c8261405e565b6001600160a01b031603612453576040516307ed98ed60e31b815260040160405180910390fd5b5050600090815260176020908152604091829020825160a08101845281548152600182015492810192909252600281015492820192909252600382015460ff1615156060820152600490910154608082015290565b336124b28261405e565b6001600160a01b0316146124d95760405163daffd8a560e01b815260040160405180910390fd5b6000818152601760205260409020600381015460ff161561250d57604051631fcb6b9160e01b815260040160405180910390fd5b805460000361252f57604051637dc66bf560e11b815260040160405180910390fd5b60038101805460ff19166001908117909155426002830155815490820154604051339285927f896066547269dcd0db6295ca6c7f14f927d692103e47c7615259469b74bc7b5d9261258a929190918252602082015260400190565b60405180910390a35050565b6000806125a161505e565b6125a96150b4565b60006060816125b78861405e565b6001600160a01b0316036125de576040516307ed98ed60e31b815260040160405180910390fd5b60008781526011602052604090205495508561260d576040516307ed98ed60e31b815260040160405180910390fd5b6000878152601260205260408120549550612629600187616149565b6000888152600c602052604090208054919250908290811061264d5761264d616061565b600091825260209182902060408051610140810182526009909302909101805483526001810154938301939093526002830154908201526003820154606082015260048201546080820152600582015460a082015260068201546001600160a01b03811660c08301526001600160601b03600160a01b9091041660e0820152600782018054919291610100840191906126e590615e9b565b80601f016020809104026020016040519081016040528092919081815260200182805461271190615e9b565b801561275e5780601f106127335761010080835404028352916020019161275e565b820191906000526020600020905b81548152906001019060200180831161274157829003601f168201915b5050505050815260200160088201805461277790615e9b565b80601f01602080910402602001604051908101604052809291908181526020018280546127a390615e9b565b80156127f05780601f106127c5576101008083540402835291602001916127f0565b820191906000526020600020905b8154815290600101906020018083116127d357829003601f168201915b50505091909252505050600089815260136020908152604091829020825161010080820185528254828601908152600184015460ff8082161515606086015261ffff84830416608086015263010000008204811660a08601526401000000008204811660c0860152650100000000009091041660e084015282528451908101909452600282018054959a509094919392850192918290829061289190615e9b565b80601f01602080910402602001604051908101604052809291908181526020018280546128bd90615e9b565b801561290a5780601f106128df5761010080835404028352916020019161290a565b820191906000526020600020905b8154815290600101906020018083116128ed57829003601f168201915b5050505050815260200160018201805461292390615e9b565b80601f016020809104026020016040519081016040528092919081815260200182805461294f90615e9b565b801561299c5780601f106129715761010080835404028352916020019161299c565b820191906000526020600020905b81548152906001019060200180831161297f57829003601f168201915b5050509183525050600282015460ff8082161515602084015261ffff6101008304166040840152630100000082048116606084015264010000000090910416608082015260038201805460a0909201916129f590615e9b565b80601f0160208091040260200160405190810160405280929190818152602001828054612a2190615e9b565b8015612a6e5780601f10612a4357610100808354040283529160200191612a6e565b820191906000526020600020905b815481529060010190602001808311612a5157829003601f168201915b50505050508152602001600482018054612a8790615e9b565b80601f0160208091040260200160405190810160405280929190818152602001828054612ab390615e9b565b8015612b005780601f10612ad557610100808354040283529160200191612b00565b820191906000526020600020905b815481529060010190602001808311612ae357829003601f168201915b505050919092525050509052506000888152601a602090815260408083208584529091529020549094509250612b358861380e565b91505091939550919395565b6000838152600c6020526040812080546060929091819081612b64858989614168565b90508060400151600003612bbc5760408051600080825260208201909252906116d1565b612b9061505e565b815260200190600190039081612b88575050608082015160609092015190965090935091506118429050565b80604001516001600160401b03811115612bd857612bd8615baf565b604051908082528060200260200182016040528015612c1157816020015b612bfe61505e565b815260200190600190039081612bf65790505b50955060005b816040015181101561182f5781518390612c3290839061604e565b81548110612c4257612c42616061565b600091825260209182902060408051610140810182526009909302909101805483526001810154938301939093526002830154908201526003820154606082015260048201546080820152600582015460a082015260068201546001600160a01b03811660c08301526001600160601b03600160a01b9091041660e082015260078201805491929161010084019190612cda90615e9b565b80601f0160208091040260200160405190810160405280929190818152602001828054612d0690615e9b565b8015612d535780601f10612d2857610100808354040283529160200191612d53565b820191906000526020600020905b815481529060010190602001808311612d3657829003601f168201915b50505050508152602001600882018054612d6c90615e9b565b80601f0160208091040260200160405190810160405280929190818152602001828054612d9890615e9b565b8015612de55780601f10612dba57610100808354040283529160200191612de5565b820191906000526020600020905b815481529060010190602001808311612dc857829003601f168201915b505050505081525050878281518110612e0057612e00616061565b60200260200101819052508080612e1690616077565b915050612c17565b606060018054610d4890615e9b565b610dff338383614966565b60196020528160005260406000208181548110612e5457600080fd5b90600052602060002001600091509150505481565b612e7161476b565b33612e7b8661405e565b6001600160a01b031614612ea25760405163daffd8a560e01b815260040160405180910390fd5b811580612eb057506103e882115b15612ece57604051630ef9fbf360e21b815260040160405180910390fd5b6000858152601760205260409020600381015460ff1615612f0257604051631fcb6b9160e01b815260040160405180910390fd5b8054606411612f2457604051637df0b86160e01b815260040160405180910390fd5b80548514612f4557604051637df0b86160e01b815260040160405180910390fd5b6000612f8685858080601f01602080910402602001604051908101604052809392919081815260200183838082843760009201919091525061479592505050565b90508215801590612f975750828114155b15612fb55760405163016c02f160e61b815260040160405180910390fd5b600087815260186020908152604080832089845290915290208681556001810182905560028101612fe7868883616090565b504260038201556004810180546001600160a01b03191633179055825461300f90600161604e565b8355426002840155600483015461302790869061604e565b6004840155600088815260196020908152604082208054600181018255908352912001879055613056886147c5565b6040805183815260208101879052339189918b917f9a8c5a1082b04a31158c2062cc003f0764f93a8614a3643f01df8346f0c39f8d910160405180910390a4505050611a766001600b55565b60c08701353381146130c7576040516303b2487b60e11b815260040160405180910390fd5b60405163c894e75760e01b81526001600160a01b037f0000000000000000000000000000000000000000000000000000000000000000169063c894e75790613119908e908e908e908e90600401616528565b602060405180830381865afa158015613136573d6000803e3d6000fd5b505050506040513d601f19601f8201168201806040525081019061315a9190616217565b613177576040516303b2487b60e11b815260040160405180910390fd5b600061318e6131898a358b60016121a7565b614a05565b905060006131a561318960408c01358c60036121a7565b905060006131bc61318960808d01358d60056121a7565b604051909150339084907f3015fe19dc9f8f0d942de39092410a57589dd94d2c9134719335fe04e3695eca90600090a36131fd8383838d8d8d8d8d8d614268565b5050505050505050505050505050565b81818161322d5760405163e5d242ed60e01b815260040160405180910390fd5b80158061324757506000828152600c602052604090205481115b1561326557604051630dd4272d60e41b815260040160405180910390fd5b6000848152600f6020908152604080832033845290915290205483810361328c5750611084565b6000613299600186616149565b905060007f00000000000000000000000000000000000000000000000000000000000000006001600160a01b0316636bf90c716040518163ffffffff1660e01b8152600401602060405180830381865afa1580156132fb573d6000803e3d6000fd5b505050506040513d601f19601f8201168201806040525081019061331f9190616559565b90508015613484576000878152600c6020526040812080548490811061334757613347616061565b600091825260208083208b84526016825260408085208886529092529083205460099092020192509081156133b15760006133818361405e565b90506001600160a01b0381161561339a578091506133ab565b60068401546001600160a01b031691505b506133c1565b5060068201546001600160a01b03165b6040516323b872dd60e01b81523360048201526001600160a01b038281166024830152604482018690526000917f0000000000000000000000000000000000000000000000000000000000000000909116906323b872dd906064016020604051808303816000875af115801561343b573d6000803e3d6000fd5b505050506040513d601f19601f8201168201806040525081019061345f9190616217565b90508061347f57604051635da1e97760e11b815260040160405180910390fd5b505050505b82156134e3576000613497600185616149565b6000898152601a6020908152604080832084845290915290205490915080156134e0576134c5600182616149565b60008a8152601a602090815260408083208684529091529020555b50505b6000878152601a60209081526040808320858452909152812080546001929061350d90849061604e565b90915550506000878152600f6020908152604080832033808552908352928190208990558051898152918201849052429082015288907f55e71c43a79fd68c0c9f416c70da96b84745f57bf4c2456beb089b4ad7bb3ac89060600160405180910390a350505050505050565b613584848484610ffa565b6110843385858585614a1a565b61359961505e565b6000808484816135bc5760405163e5d242ed60e01b815260040160405180910390fd5b8015806135d657506000828152600c602052604090205481115b156135f457604051630dd4272d60e41b815260040160405180910390fd5b6000613601600188616149565b6000898152600c602052604090208054919250908290811061362557613625616061565b600091825260209182902060408051610140810182526009909302909101805483526001810154938301939093526002830154908201526003820154606082015260048201546080820152600582015460a082015260068201546001600160a01b03811660c08301526001600160601b03600160a01b9091041660e0820152600782018054919291610100840191906136bd90615e9b565b80601f01602080910402602001604051908101604052809291908181526020018280546136e990615e9b565b80156137365780601f1061370b57610100808354040283529160200191613736565b820191906000526020600020905b81548152906001019060200180831161371957829003601f168201915b5050505050815260200160088201805461374f90615e9b565b80601f016020809104026020016040519081016040528092919081815260200182805461377b90615e9b565b80156137c85780601f1061379d576101008083540402835291602001916137c8565b820191906000526020600020905b8154815290600101906020018083116137ab57829003601f168201915b505050919092525050506000898152601a602090815260408083208584528252808320549b83526016825280832094835293905291909120549098909650945050505050565b606061381982614019565b506000828152601460205260409020805461383390615e9b565b80601f016020809104026020016040519081016040528092919081815260200182805461385f90615e9b565b80156138ac5780601f10613881576101008083540402835291602001916138ac565b820191906000526020600020905b81548152906001019060200180831161388f57829003601f168201915b50505050509050919050565b80516000906138da57604051635f895cef60e11b815260040160405180910390fd5b600c826060015160ff161115613903576040516348c5148960e11b815260040160405180910390fd5b601f826080015160ff16111561392c576040516309eabf7d60e21b815260040160405180910390fd5b81516020830151608082901c916fffffffffffffffffffffffffffffffff169060009061395a57600061395d565b60015b60ff1660018660a0015160ff16901b6008876080015160ff16901b6010886060015160ff16901b6018896040015161ffff16901b17171717905061399f61514c565b838152602081018390526040808201839052516320cf0a3760e01b815260009073__$fc5a2451f3e054f75c2faf9b3818033d8b$__906320cf0a37906139e9908590600401616572565b602060405180830381865af4158015613a06573d6000803e3d6000fd5b505050506040513d601f19601f82011682018060405250810190613a2a9190616559565b905080613a3681614a05565b98975050505050505050565b601860209081526000928352604080842090915290825290208054600182015460028301805492939192613a7590615e9b565b80601f0160208091040260200160405190810160405280929190818152602001828054613aa190615e9b565b8015613aee5780601f10613ac357610100808354040283529160200191613aee565b820191906000526020600020905b815481529060010190602001808311613ad157829003601f168201915b5050505060038301546004909301549192916001600160a01b0316905085565b6001600160a01b03918216600090815260056020908152604080832093909416825291909152205460ff1690565b613b44615023565b826000613b508261405e565b6001600160a01b031603613b77576040516307ed98ed60e31b815260040160405180910390fd5b600084815260176020526040902080548410613ba657604051637df0b86160e01b815260040160405180910390fd5b6018600086815260200190815260200160002060008581526020019081526020016000206040518060a00160405290816000820154815260200160018201548152602001600282018054613bf990615e9b565b80601f0160208091040260200160405190810160405280929190818152602001828054613c2590615e9b565b8015613c725780601f10613c4757610100808354040283529160200191613c72565b820191906000526020600020905b815481529060010190602001808311613c5557829003601f168201915b5050509183525050600382015460208201526004909101546001600160a01b031660409091015295945050505050565b613caa6148e7565b6001600160a01b038116613cd457604051631e4fbdf760e01b815260006004820152602401611020565b613cdd81614914565b50565b6000838152600c6020526040812054606091829182918080613d03848a8a614168565b90508060400151600003613d4c57604080516000808252602082018181528284019182526060808401909452608085015194909301519199509197509095509092509050613f04565b80604001516001600160401b03811115613d6857613d68615baf565b604051908082528060200260200182016040528015613d91578160200160208202803683370190505b50965080604001516001600160401b03811115613db057613db0615baf565b604051908082528060200260200182016040528015613dd9578160200160208202803683370190505b50955080604001516001600160401b03811115613df857613df8615baf565b604051908082528060200260200182016040528015613e21578160200160208202803683370190505b50945060005b8160400151811015613ef2578151600090613e4390839061604e565b9050613e5081600161604e565b898381518110613e6257613e62616061565b60209081029190910181019190915260008d8152601a8252604080822084835290925220548851899084908110613e9b57613e9b616061565b60209081029190910181019190915260008d815260168252604080822084835290925220548751889084908110613ed457613ed4616061565b60209081029190910101525080613eea81616077565b915050613e27565b50608081015160609091015190925090505b93975093979195509350565b60156020528160005260406000208181548110613f2c57600080fd5b90600052602060002001600091509150508054613f4890615e9b565b80601f0160208091040260200160405190810160405280929190818152602001828054613f7490615e9b565b8015613fc15780601f10613f9657610100808354040283529160200191613fc1565b820191906000526020600020905b815481529060010190602001808311613fa457829003601f168201915b505050505081565b60006001600160e01b031982166380ac58cd60e01b1480613ffa57506001600160e01b03198216635b5e139f60e01b145b80610d3357506301ffc9a760e01b6001600160e01b0319831614610d33565b6000806140258361405e565b90506001600160a01b038116610d3357604051637e27328960e01b815260048101849052602401611020565b6118668383836001614b44565b6000908152600260205260409020546001600160a01b031690565b60008281526014602052604090206118668282615f30565b60008061409f858585614c4a565b90506001600160a01b0381166140fc576140f784600880546000838152600960205260408120829055600182018355919091527ff3f7a9fe364faab93b216da50a3214154f22a0a2b415b23a84c8169e8b636ee30155565b61411f565b846001600160a01b0316816001600160a01b03161461411f5761411f8185614d3e565b6001600160a01b03851661413b5761413684614dbf565b61415e565b846001600160a01b0316816001600160a01b03161461415e5761415e8585614e6e565b90505b9392505050565b61419c6040518060a00160405280600081526020016000815260200160008152602001600081526020016000151581525090565b60648211156141be57604051630327a73960e61b815260040160405180910390fd5b8115806141cb5750838310155b1561420f576040518060a0016040528084815260200184815260200160008152602001858510156141fc57846141fe565b855b815260006020909101529050614161565b600061421b838561604e565b9050848111156142285750835b6040518060a00160405280858152602001828152602001858361424b9190616149565b815260200182815260200186831015158152509150509392505050565b61010083111561428b57604051635fab396360e11b815260040160405180910390fd5b6101008111156142ae57604051630601a0fb60e51b815260040160405180910390fd5b6000888152600c60205260409020548611156142dd57604051631f9510eb60e01b815260040160405180910390fd5b6000878152600c602052604090205485111561430c5760405163782ce69f60e01b815260040160405180910390fd5b60008989898989898960405160200161432b97969594939291906165a3565b60408051601f19818403018152918152815160209283012060008d8152600e845282812082825290935291205490915060ff161561437c576040516314396b6760e11b815260040160405180910390fd5b60008a8152600e602090815260408083208484528252808320805460ff191660011790558c8352600c82528083208151610140810183528e81528084018e90528083018d90526060810194909452608084018b905260a084018a90523360c08501526001600160601b03421660e08501528151601f89018490048402810184019092528782529291610100830191908990899081908401838280828437600092019190915250505090825250604080516020601f8801819004810282018101909252868152918101919087908790819084018382808284376000920182905250939094525050835460018181018655948252602091829020845160099092020190815590830151938101939093555060408101516002830155606081015160038301556080810151600483015560a0810151600583015560c081015160e08201516001600160601b0316600160a01b026001600160a01b0390911617600683015561010081015190919060078201906144f59082615f30565b50610120820151600882019061450b9082615f30565b50505060008a8152600c60205260409020805490819061452c600183616149565b8154811061453c5761453c616061565b600091825260209091206003600990920201015589156145a35760008a8152601b602090815260408083208b8452825280832081518083019092528e8252818301858152815460018181018455928652939094209151600290930290910191825591519101555b88156145f6576000898152601b602090815260408083208a8452825280832081518083019092528e8252818301858152815460018181018455928652939094209151600290930290910191825591519101555b8060010361461457600d805490600061460e83616077565b91905055505b336001600160a01b0316818c7ff24ca8fe8e48960e559267341f81e7b0f07746d1e98c729930fe251bd2875484428e8d8f8e8e8e60405161465b97969594939291906165d9565b60405180910390a461466c8a614ebe565b801561467c575061467c89614ebe565b1561475e576040516335313c2160e11b81523360048201526000907f00000000000000000000000000000000000000000000000000000000000000006001600160a01b031690636a627842906024016020604051808303816000875af11580156146ea573d6000803e3d6000fd5b505050506040513d601f19601f8201168201806040525081019061470e9190616559565b9050801561475c57818c336001600160a01b03167fdefc43c3e9b037326c59d7c3f29c0b6b5c94a6fbfcced006b763e74a3115da6d8460405161475391815260200190565b60405180910390a45b505b5050505050505050505050565b6002600b540361478e57604051633ee5aeb560e01b815260040160405180910390fd5b6002600b55565b6000816040516020016147a8919061660b565b604051602081830303815290604052805190602001209050919050565b60008181526017602090815260408083206019909252822080549192909190036147f55750600060019091015550565b606060005b825481101561487757600083828154811061481757614817616061565b600091825260208083209091015488835260188252604080842082855283529283902060010154925190935061485191869184910161661d565b60405160208183030381529060405293505050808061486f90616077565b9150506147fa565b5080516020909101206001909201919091555050565b6000608083901c1515806148a45750608082901c15155b156148c2576040516303b2487b60e11b815260040160405180910390fd5b5060809190911b1790565b610dff828260405180602001604052806000815250614edf565b600a546001600160a01b031633146123f35760405163118cdaa760e01b8152336004820152602401611020565b600a80546001600160a01b038381166001600160a01b0319831681179093556040519116919082907f8be0079c531659141344cd1fd0a4f28419497f9722a3daafe3b4186f6b6457e090600090a35050565b6001600160a01b03821661499857604051630b61174360e31b81526001600160a01b0383166004820152602401611020565b6001600160a01b03838116600081815260056020908152604080832094871680845294825291829020805460ff191686151590811790915591519182527f17307eab39ab6107e8899845ad3d59bd9653f200f220920489ca2b5937696c31910160405180910390a3505050565b6000816040516020016147a891815260200190565b6001600160a01b0383163b15611a7657604051630a85bd0160e11b81526001600160a01b0384169063150b7a0290614a5c90889088908790879060040161663f565b6020604051808303816000875af1925050508015614a97575060408051601f3d908101601f19168201909252614a9491810190616672565b60015b614b00573d808015614ac5576040519150601f19603f3d011682016040523d82523d6000602084013e614aca565b606091505b508051600003614af857604051633250574960e11b81526001600160a01b0385166004820152602401611020565b805160208201fd5b6001600160e01b03198116630a85bd0160e11b14614b3c57604051633250574960e11b81526001600160a01b0385166004820152602401611020565b505050505050565b8080614b5857506001600160a01b03821615155b15614c1a576000614b6884614019565b90506001600160a01b03831615801590614b945750826001600160a01b0316816001600160a01b031614155b8015614ba75750614ba58184613b0e565b155b15614bd05760405163a9fbf51f60e01b81526001600160a01b0384166004820152602401611020565b8115614c185783856001600160a01b0316826001600160a01b03167f8c5be1e5ebec7d5bd14f71427d1e84f3dd0314c0f7b2291e5b200ac8c7c3b92560405160405180910390a45b505b5050600090815260046020526040902080546001600160a01b0319166001600160a01b0392909216919091179055565b600080614c568461405e565b90506001600160a01b03831615614c7257614c72818486614ef7565b6001600160a01b03811615614cb057614c8f600085600080614b44565b6001600160a01b038116600090815260036020526040902080546000190190555b6001600160a01b03851615614cdf576001600160a01b0385166000908152600360205260409020805460010190555b60008481526002602052604080822080546001600160a01b0319166001600160a01b0389811691821790925591518793918516917fddf252ad1be2c89b69c2b068fc378daa952ba7f163c4a11628f55a4df523b3ef91a4949350505050565b6000614d4983612399565b6000838152600760209081526040808320546001600160a01b0388168452600690925290912091925090818314614da057600083815260208281526040808320548584528184208190558352600790915290208290555b6000938452600760209081526040808620869055938552525081205550565b600854600090614dd190600190616149565b60008381526009602052604081205460088054939450909284908110614df957614df9616061565b906000526020600020015490508060088381548110614e1a57614e1a616061565b6000918252602080832090910192909255828152600990915260408082208490558582528120556008805480614e5257614e5261668f565b6001900381819060005260206000200160009055905550505050565b60006001614e7b84612399565b614e859190616149565b6001600160a01b039093166000908152600660209081526040808320868452825280832085905593825260079052919091209190915550565b60008115801590610d335750506000908152600c6020526040902054151590565b614ee98383614f5b565b611866336000858585614a1a565b614f02838383614fc0565b611866576001600160a01b038316614f3057604051637e27328960e01b815260048101829052602401611020565b60405163177e802f60e01b81526001600160a01b038316600482015260248101829052604401611020565b6001600160a01b038216614f8557604051633250574960e11b815260006004820152602401611020565b6000614f9383836000614091565b90506001600160a01b03811615611866576040516339e3563760e11b815260006004820152602401611020565b60006001600160a01b0383161580159061415e5750826001600160a01b0316846001600160a01b03161480614ffa5750614ffa8484613b0e565b8061415e5750506000908152600460205260409020546001600160a01b03908116911614919050565b6040518060a001604052806000815260200160008019168152602001606081526020016000815260200160006001600160a01b031681525090565b604080516101408101825260008082526020820181905291810182905260608082018390526080820183905260a0820183905260c0820183905260e0820192909252610100810182905261012081019190915290565b60408051610100810182526000918101828152606082018390526080820183905260a0820183905260c0820183905260e082019290925290819081526020016151476040518061010001604052806060815260200160608152602001600015158152602001600061ffff168152602001600060ff168152602001600060ff16815260200160608152602001606081525090565b905290565b60405180606001604052806003906020820280368337509192915050565b6001600160e01b031981168114613cdd57600080fd5b60006020828403121561519257600080fd5b81356141618161516a565b60005b838110156151b85781810151838201526020016151a0565b50506000910152565b600081518084526151d981602086016020860161519d565b601f01601f19169290920160200192915050565b60208152600061416160208301846151c1565b60006020828403121561521257600080fd5b5035919050565b80356001600160a01b038116811461523057600080fd5b919050565b6000806040838503121561524857600080fd5b61525183615219565b946020939093013593505050565b6000806040838503121561527257600080fd5b50508035926020909101359150565b60008060006060848603121561529657600080fd5b505081359360208301359350604090920135919050565b60008083601f8401126152bf57600080fd5b5081356001600160401b038111156152d657600080fd5b6020830191508360208285010111156152ee57600080fd5b9250929050565b60008060006040848603121561530a57600080fd5b8335925060208401356001600160401b0381111561532757600080fd5b615333868287016152ad565b9497909650939450505050565b60008060006060848603121561535557600080fd5b61535e84615219565b925061536c60208501615219565b9150604084013590509250925092565b8051825260208101511515602083015261ffff604082015116604083015260ff606082015116606083015260ff608082015116608083015260ff60a08201511660a08301525050565b600061010082518185526153db828601826151c1565b915050602083015184820360208601526153f582826151c1565b915050604083015161540b604086018215159052565b506060830151615421606086018261ffff169052565b506080830151615436608086018260ff169052565b5060a083015161544b60a086018260ff169052565b5060c083015184820360c086015261546382826151c1565b91505060e083015184820360e086015261547d82826151c1565b95945050505050565b615490818461537c565b60e060c0820152600061415e60e08301846153c5565b80518252602081015160208301526000604082015160a060408501526154cf60a08501826151c1565b606084810151908601526080938401516001600160a01b031693909401929092525090919050565b6000608082016080835280875180835260a08501915060a08160051b86010192506020808a0160005b8381101561554e57609f1988870301855261553c8683516154a6565b95509382019390820190600101615520565b5050850197909752509315156040830152506060015292915050565b600080600080600080600080600060e08a8c03121561558857600080fd5b8935985060208a0135975060408a0135965060608a0135955060808a0135945060a08a01356001600160401b03808211156155c257600080fd5b6155ce8d838e016152ad565b909650945060c08c01359150808211156155e757600080fd5b506155f48c828d016152ad565b915080935050809150509295985092959850929598565b6000608082016080835280875180835260a08501915060a08160051b86010192506020808a0160005b8381101561554e57609f198887030185526156508683516151c1565b95509382019390820190600101615634565b60008060008060006080868803121561567a57600080fd5b853594506020860135935060408601356001600160401b0381111561569e57600080fd5b6156aa888289016152ad565b96999598509660600135949350505050565b600080600080608085870312156156d257600080fd5b5050823594602084013594506040840135936060013592509050565b600081518084526020808501945080840160005b8381101561571e57815187529582019590820190600101615702565b509495945050505050565b60a0808252865190820181905260009060209060c0840190828a01845b8281101561576257815184529284019290840190600101615746565b5050508381038285015261577681896156ee565b6040850197909752505050911515606083015260809091015292915050565b60006101408c83528b60208401528a60408401528960608401528860808401528760a084015260018060a01b03871660c08401526001600160601b03861660e0840152806101008401526157eb818401866151c1565b905082810361012084015261580081856151c1565b9d9c50505050505050505050505050565b8060408101831015610d3357600080fd5b8060808101831015610d3357600080fd5b60008060008060008060008060006102008a8c03121561585257600080fd5b61585c8b8b615811565b985061586b8b60408c01615822565b975061587a8b60c08c01615811565b965061588a8b6101008c01615822565b95506101808a013594506101a08a013593506101c08a01356001600160401b03808211156158b757600080fd5b6158c38d838e016152ad565b90955093506101e08c01359150808211156158dd57600080fd5b508a0160e0818d0312156158f057600080fd5b809150509295985092959850929598565b60006020828403121561591357600080fd5b61416182615219565b6000610140825184526020830151602085015260408301516040850152606083015160608501526080830151608085015260a083015160a085015260c083015161597160c08601826001600160a01b03169052565b5060e083015161598c60e08601826001600160601b03169052565b506101008084015182828701526159a5838701826151c1565b9250505061012080840151858303828701526159c183826151c1565b9695505050505050565b86815285602082015260c0604082015260006159ea60c083018761591c565b82810360608401526159fd81875161537c565b602086015160e060c0830152615a1660e08301826153c5565b91505084608084015282810360a0840152615a3181856151c1565b9998505050505050505050565b6000608082016080835280875180835260a08501915060a08160051b86010192506020808a0160005b8381101561554e57609f19888703018552615a8386835161591c565b95509382019390820190600101615a67565b8015158114613cdd57600080fd5b60008060408385031215615ab657600080fd5b615abf83615219565b91506020830135615acf81615a95565b809150509250929050565b6000806000806000806000806000806102608b8d031215615afa57600080fd5b615b048c8c615811565b9950615b138c60408d01615822565b9850615b228c60c08d01615811565b97506101e08b018c811115615b3657600080fd5b6101008c0197503595506102008b013594506102208b01356001600160401b0380821115615b6357600080fd5b615b6f8e838f016152ad565b90965094506102408d0135915080821115615b8957600080fd5b50615b968d828e016152ad565b915080935050809150509295989b9194979a5092959850565b634e487b7160e01b600052604160045260246000fd5b604051601f8201601f191681016001600160401b0381118282101715615bed57615bed615baf565b604052919050565b60008060008060808587031215615c0b57600080fd5b615c1485615219565b93506020615c23818701615219565b93506040860135925060608601356001600160401b0380821115615c4657600080fd5b818801915088601f830112615c5a57600080fd5b813581811115615c6c57615c6c615baf565b615c7e601f8201601f19168501615bc5565b91508082528984828501011115615c9457600080fd5b808484018584013760008482840101525080935050505092959194509250565b606081526000615cc7606083018661591c565b60208301949094525060400152919050565b61ffff81168114613cdd57600080fd5b60ff81168114613cdd57600080fd5b600060c08284031215615d0a57600080fd5b60405160c081018181106001600160401b0382111715615d2c57615d2c615baf565b604052823581526020830135615d4181615a95565b60208201526040830135615d5481615cd9565b60408201526060830135615d6781615ce9565b60608201526080830135615d7a81615ce9565b608082015260a0830135615d8d81615ce9565b60a08201529392505050565b85815284602082015260a060408201526000615db860a08301866151c1565b6060830194909452506001600160a01b03919091166080909101529392505050565b60008060408385031215615ded57600080fd5b615df683615219565b9150615e0460208401615219565b90509250929050565b60208152600061416160208301846154a6565b60008060408385031215615e3357600080fd5b82359150615e0460208401615219565b60c081526000615e5660c08301896156ee565b8281036020840152615e6881896156ee565b90508281036040840152615e7c81886156ee565b60608401969096525050911515608083015260a0909101529392505050565b600181811c90821680615eaf57607f821691505b602082108103615ecf57634e487b7160e01b600052602260045260246000fd5b50919050565b601f82111561186657600081815260208120601f850160051c81016020861015615efc5750805b601f850160051c820191505b81811015614b3c57828155600101615f08565b600019600383901b1c191660019190911b1790565b81516001600160401b03811115615f4957615f49615baf565b615f5d81615f578454615e9b565b84615ed5565b602080601f831160018114615f8c5760008415615f7a5750858301515b615f848582615f1b565b865550614b3c565b600085815260208120601f198616915b82811015615fbb57888601518255948401946001909101908401615f9c565b5085821015615fd95787850151600019600388901b60f8161c191681555b5050505050600190811b01905550565b81835281816020850137506000828201602090810191909152601f909101601f19169091010190565b60408152600061602560408301866151c1565b82810360208401526159c1818587615fe9565b634e487b7160e01b600052601160045260246000fd5b80820180821115610d3357610d33616038565b634e487b7160e01b600052603260045260246000fd5b60006001820161608957616089616038565b5060010190565b6001600160401b038311156160a7576160a7615baf565b6160bb836160b58354615e9b565b83615ed5565b6000601f8411600181146160e957600085156160d75750838201355b6160e18682615f1b565b845550611a76565b600083815260209020601f19861690835b8281101561611a57868501358255602094850194600190920191016160fa565b50868210156161375760001960f88860031b161c19848701351681555b505060018560011b0183555050505050565b81810381811115610d3357610d33616038565b6000823560fe1983360301811261617257600080fd5b9190910192915050565b6000808335601e1984360301811261619357600080fd5b8301803591506001600160401b038211156161ad57600080fd5b6020019150368190038213156152ee57600080fd5b8060005b6002811015611084576040808386379384019391909101906001016161c6565b610180810160408683376161fd60408301866161c2565b60408460c084013760808361010084013795945050505050565b60006020828403121561622957600080fd5b815161416181615a95565b60008135610d3381615a95565b60008135610d3381615cd9565b60008135610d3381615ce9565b616265828361617c565b6001600160401b0381111561627c5761627c615baf565b6162908161628a8554615e9b565b85615ed5565b6000601f8211600181146162be57600083156162ac5750838201355b6162b68482615f1b565b865550616318565b600085815260209020601f19841690835b828110156162ef57868501358255602094850194600190920191016162cf565b508482101561630c5760001960f88660031b161c19848701351681555b505060018360011b0185555b50505050616329602083018361617c565b616337818360018601616090565b50506002810161636061634c60408501616234565b825490151560ff1660ff1991909116178255565b61638761636f60608501616241565b825462ffff00191660089190911b62ffff0016178255565b6163b06163966080850161624e565b825463ff000000191660189190911b63ff00000016178255565b6163db6163bf60a0850161624e565b825464ff00000000191660209190911b64ff0000000016178255565b506163e960c083018361617c565b6163f7818360038601616090565b505061640660e083018361617c565b611084818360048601616090565b8135815560018101602083013561642a81615a95565b815460ff191660ff8215151617825550604083013561644881615cd9565b815462ffff001916600882901b62ffff001617825550606083013561646c81615ce9565b815463ff0000001916601882901b63ff0000001617825550608083013561649281615ce9565b815464ff000000001916602082901b64ff00000000161782555060a08301356164ba81615ce9565b815465ff0000000000191660289190911b65ff00000000001617905560c08201353683900360fe190181126164ee57600080fd5b6118668184016002840161625b565b848152606060208201526000616517606083018587615fe9565b905082604083015295945050505050565b6101e08101604086833761653f60408301866161c2565b60408460c084013760e08361010084013795945050505050565b60006020828403121561656b57600080fd5b5051919050565b60608101818360005b600381101561659a57815183526020928301929091019060010161657b565b50505092915050565b878152866020820152856040820152846060820152836080820152818360a08301376000910160a0019081529695505050505050565b87815286602082015285604082015284606082015283608082015260c060a08201526000615a3160c083018486615fe9565b6000825161617281846020870161519d565b6000835161662f81846020880161519d565b9190910191825250602001919050565b6001600160a01b03858116825284166020820152604081018390526080606082018190526000906159c1908301846151c1565b60006020828403121561668457600080fd5b81516141618161516a565b634e487b7160e01b600052603160045260246000fdfea2646970667358221220aa91b8c2b72b16721a39fcf9c8459480db9ec9d40719f418b353867af54e0b4d64736f6c63430008140033",
  "linkReferences": {
    "poseidon-solidity/PoseidonT4.sol": {
      "PoseidonT4": [
        {
          "length": 20,
          "start": 15790
        }
      ]
    }
  },
  "deployedLinkReferences": {
    "poseidon-solidity/PoseidonT4.sol": {
      "PoseidonT4": [
        {
          "length": 20,
          "start": 14785
        }
      ]
    }
  }
}