{
  "_format": "hh-sol-artifact-1",
  "contractName": "DeepFamily",
  "sourceName": "contracts/DeepFamily.sol",
  "abi": [
    {
      "inputs": [
        {
          "internalType": "address",
          "name": "_deepFamilyTokenContract",
          "type": "address"
        },
        {
          "internalType": "address",
          "name": "_personHashVerifier",
          "type": "address"
        },
        {
          "internalType": "address",
          "name": "_namePoseidonVerifier",
          "type": "address"
        }
      ],
      "stateMutability": "nonpayable",
      "type": "constructor"
    },
    {
      "inputs": [],
      "name": "AlreadyEndorsed",
      "type": "error"
    },
    {
      "inputs": [],
      "name": "BasicInfoMismatch",
      "type": "error"
    },
    {
      "inputs": [],
      "name": "CallerMismatch",
      "type": "error"
    },
    {
      "inputs": [],
      "name": "ChunkHashMismatch",
      "type": "error"
    },
    {
      "inputs": [],
      "name": "ChunkIndexOutOfRange",
      "type": "error"
    },
    {
      "inputs": [],
      "name": "DirectETHNotAccepted",
      "type": "error"
    },
    {
      "inputs": [],
      "name": "DuplicateVersion",
      "type": "error"
    },
    {
      "inputs": [],
      "name": "ERC721EnumerableForbiddenBatchMint",
      "type": "error"
    },
    {
      "inputs": [
        {
          "internalType": "address",
          "name": "sender",
          "type": "address"
        },
        {
          "internalType": "uint256",
          "name": "tokenId",
          "type": "uint256"
        },
        {
          "internalType": "address",
          "name": "owner",
          "type": "address"
        }
      ],
      "name": "ERC721IncorrectOwner",
      "type": "error"
    },
    {
      "inputs": [
        {
          "internalType": "address",
          "name": "operator",
          "type": "address"
        },
        {
          "internalType": "uint256",
          "name": "tokenId",
          "type": "uint256"
        }
      ],
      "name": "ERC721InsufficientApproval",
      "type": "error"
    },
    {
      "inputs": [
        {
          "internalType": "address",
          "name": "approver",
          "type": "address"
        }
      ],
      "name": "ERC721InvalidApprover",
      "type": "error"
    },
    {
      "inputs": [
        {
          "internalType": "address",
          "name": "operator",
          "type": "address"
        }
      ],
      "name": "ERC721InvalidOperator",
      "type": "error"
    },
    {
      "inputs": [
        {
          "internalType": "address",
          "name": "owner",
          "type": "address"
        }
      ],
      "name": "ERC721InvalidOwner",
      "type": "error"
    },
    {
      "inputs": [
        {
          "internalType": "address",
          "name": "receiver",
          "type": "address"
        }
      ],
      "name": "ERC721InvalidReceiver",
      "type": "error"
    },
    {
      "inputs": [
        {
          "internalType": "address",
          "name": "sender",
          "type": "address"
        }
      ],
      "name": "ERC721InvalidSender",
      "type": "error"
    },
    {
      "inputs": [
        {
          "internalType": "uint256",
          "name": "tokenId",
          "type": "uint256"
        }
      ],
      "name": "ERC721NonexistentToken",
      "type": "error"
    },
    {
      "inputs": [
        {
          "internalType": "address",
          "name": "owner",
          "type": "address"
        },
        {
          "internalType": "uint256",
          "name": "index",
          "type": "uint256"
        }
      ],
      "name": "ERC721OutOfBoundsIndex",
      "type": "error"
    },
    {
      "inputs": [],
      "name": "EndorsementFeeTransferFailed",
      "type": "error"
    },
    {
      "inputs": [],
      "name": "FatherAlreadySet",
      "type": "error"
    },
    {
      "inputs": [],
      "name": "InvalidBirthDay",
      "type": "error"
    },
    {
      "inputs": [],
      "name": "InvalidBirthMonth",
      "type": "error"
    },
    {
      "inputs": [],
      "name": "InvalidBirthPlace",
      "type": "error"
    },
    {
      "inputs": [],
      "name": "InvalidCIDLength",
      "type": "error"
    },
    {
      "inputs": [],
      "name": "InvalidChunkContent",
      "type": "error"
    },
    {
      "inputs": [],
      "name": "InvalidDeathDay",
      "type": "error"
    },
    {
      "inputs": [],
      "name": "InvalidDeathMonth",
      "type": "error"
    },
    {
      "inputs": [],
      "name": "InvalidDeathPlace",
      "type": "error"
    },
    {
      "inputs": [],
      "name": "InvalidFatherVersionIndex",
      "type": "error"
    },
    {
      "inputs": [],
      "name": "InvalidFullName",
      "type": "error"
    },
    {
      "inputs": [],
      "name": "InvalidMotherVersionIndex",
      "type": "error"
    },
    {
      "inputs": [],
      "name": "InvalidParentHash",
      "type": "error"
    },
    {
      "inputs": [],
      "name": "InvalidPersonHash",
      "type": "error"
    },
    {
      "inputs": [],
      "name": "InvalidStory",
      "type": "error"
    },
    {
      "inputs": [],
      "name": "InvalidTagLength",
      "type": "error"
    },
    {
      "inputs": [],
      "name": "InvalidTokenId",
      "type": "error"
    },
    {
      "inputs": [],
      "name": "InvalidTokenURI",
      "type": "error"
    },
    {
      "inputs": [],
      "name": "InvalidVersionIndex",
      "type": "error"
    },
    {
      "inputs": [],
      "name": "InvalidZKProof",
      "type": "error"
    },
    {
      "inputs": [],
      "name": "MotherAlreadySet",
      "type": "error"
    },
    {
      "inputs": [],
      "name": "MustBeNFTHolder",
      "type": "error"
    },
    {
      "inputs": [],
      "name": "MustEndorseVersionFirst",
      "type": "error"
    },
    {
      "inputs": [],
      "name": "NameVerifierNotSet",
      "type": "error"
    },
    {
      "inputs": [],
      "name": "NoParentUpdate",
      "type": "error"
    },
    {
      "inputs": [
        {
          "internalType": "address",
          "name": "owner",
          "type": "address"
        }
      ],
      "name": "OwnableInvalidOwner",
      "type": "error"
    },
    {
      "inputs": [
        {
          "internalType": "address",
          "name": "account",
          "type": "address"
        }
      ],
      "name": "OwnableUnauthorizedAccount",
      "type": "error"
    },
    {
      "inputs": [],
      "name": "PageSizeExceedsLimit",
      "type": "error"
    },
    {
      "inputs": [],
      "name": "ProtocolFeeTooHigh",
      "type": "error"
    },
    {
      "inputs": [],
      "name": "ReentrancyGuardReentrantCall",
      "type": "error"
    },
    {
      "inputs": [],
      "name": "StoryAlreadySealed",
      "type": "error"
    },
    {
      "inputs": [],
      "name": "StoryNotFound",
      "type": "error"
    },
    {
      "inputs": [],
      "name": "TokenContractNotSet",
      "type": "error"
    },
    {
      "inputs": [],
      "name": "UnauthorizedParentUpdate",
      "type": "error"
    },
    {
      "inputs": [],
      "name": "VerifierNotSet",
      "type": "error"
    },
    {
      "inputs": [],
      "name": "VersionAlreadyMinted",
      "type": "error"
    },
    {
      "anonymous": false,
      "inputs": [
        {
          "indexed": true,
          "internalType": "address",
          "name": "owner",
          "type": "address"
        },
        {
          "indexed": true,
          "internalType": "address",
          "name": "approved",
          "type": "address"
        },
        {
          "indexed": true,
          "internalType": "uint256",
          "name": "tokenId",
          "type": "uint256"
        }
      ],
      "name": "Approval",
      "type": "event"
    },
    {
      "anonymous": false,
      "inputs": [
        {
          "indexed": true,
          "internalType": "address",
          "name": "owner",
          "type": "address"
        },
        {
          "indexed": true,
          "internalType": "address",
          "name": "operator",
          "type": "address"
        },
        {
          "indexed": false,
          "internalType": "bool",
          "name": "approved",
          "type": "bool"
        }
      ],
      "name": "ApprovalForAll",
      "type": "event"
    },
    {
      "anonymous": false,
      "inputs": [
        {
          "indexed": true,
          "internalType": "address",
          "name": "previousOwner",
          "type": "address"
        },
        {
          "indexed": true,
          "internalType": "address",
          "name": "newOwner",
          "type": "address"
        }
      ],
      "name": "OwnershipTransferred",
      "type": "event"
    },
    {
      "anonymous": false,
      "inputs": [
        {
          "indexed": true,
          "internalType": "bytes32",
          "name": "personHash",
          "type": "bytes32"
        },
        {
          "indexed": true,
          "internalType": "address",
          "name": "prover",
          "type": "address"
        }
      ],
      "name": "PersonHashZKVerified",
      "type": "event"
    },
    {
      "anonymous": false,
      "inputs": [
        {
          "indexed": true,
          "internalType": "bytes32",
          "name": "personHash",
          "type": "bytes32"
        },
        {
          "indexed": true,
          "internalType": "uint256",
          "name": "tokenId",
          "type": "uint256"
        },
        {
          "indexed": true,
          "internalType": "address",
          "name": "owner",
          "type": "address"
        },
        {
          "indexed": false,
          "internalType": "uint256",
          "name": "versionIndex",
          "type": "uint256"
        },
        {
          "indexed": false,
          "internalType": "string",
          "name": "tokenURI",
          "type": "string"
        },
        {
          "indexed": false,
          "internalType": "uint256",
          "name": "timestamp",
          "type": "uint256"
        }
      ],
      "name": "PersonNFTMinted",
      "type": "event"
    },
    {
      "anonymous": false,
      "inputs": [
        {
          "indexed": true,
          "internalType": "bytes32",
          "name": "personHash",
          "type": "bytes32"
        },
        {
          "indexed": true,
          "internalType": "uint256",
          "name": "versionIndex",
          "type": "uint256"
        },
        {
          "indexed": false,
          "internalType": "bytes32",
          "name": "fatherHash",
          "type": "bytes32"
        },
        {
          "indexed": false,
          "internalType": "uint256",
          "name": "fatherVersionIndex",
          "type": "uint256"
        },
        {
          "indexed": false,
          "internalType": "bytes32",
          "name": "motherHash",
          "type": "bytes32"
        },
        {
          "indexed": false,
          "internalType": "uint256",
          "name": "motherVersionIndex",
          "type": "uint256"
        },
        {
          "indexed": true,
          "internalType": "address",
          "name": "updater",
          "type": "address"
        }
      ],
      "name": "PersonParentsUpdated",
      "type": "event"
    },
    {
      "anonymous": false,
      "inputs": [
        {
          "indexed": true,
          "internalType": "bytes32",
          "name": "personHash",
          "type": "bytes32"
        },
        {
          "indexed": true,
          "internalType": "uint256",
          "name": "versionIndex",
          "type": "uint256"
        },
        {
          "indexed": true,
          "internalType": "address",
          "name": "addedBy",
          "type": "address"
        },
        {
          "indexed": false,
          "internalType": "uint256",
          "name": "timestamp",
          "type": "uint256"
        },
        {
          "indexed": false,
          "internalType": "bytes32",
          "name": "fatherHash",
          "type": "bytes32"
        },
        {
          "indexed": false,
          "internalType": "uint256",
          "name": "fatherVersionIndex",
          "type": "uint256"
        },
        {
          "indexed": false,
          "internalType": "bytes32",
          "name": "motherHash",
          "type": "bytes32"
        },
        {
          "indexed": false,
          "internalType": "uint256",
          "name": "motherVersionIndex",
          "type": "uint256"
        },
        {
          "indexed": false,
          "internalType": "string",
          "name": "tag",
          "type": "string"
        }
      ],
      "name": "PersonVersionAdded",
      "type": "event"
    },
    {
      "anonymous": false,
      "inputs": [
        {
          "indexed": true,
          "internalType": "bytes32",
          "name": "personHash",
          "type": "bytes32"
        },
        {
          "indexed": true,
          "internalType": "address",
          "name": "endorser",
          "type": "address"
        },
        {
          "indexed": false,
          "internalType": "uint256",
          "name": "versionIndex",
          "type": "uint256"
        },
        {
          "indexed": false,
          "internalType": "address",
          "name": "recipient",
          "type": "address"
        },
        {
          "indexed": false,
          "internalType": "uint256",
          "name": "recipientShare",
          "type": "uint256"
        },
        {
          "indexed": false,
          "internalType": "address",
          "name": "protocolRecipient",
          "type": "address"
        },
        {
          "indexed": false,
          "internalType": "uint256",
          "name": "protocolShare",
          "type": "uint256"
        },
        {
          "indexed": false,
          "internalType": "uint256",
          "name": "endorsementFee",
          "type": "uint256"
        },
        {
          "indexed": false,
          "internalType": "uint256",
          "name": "timestamp",
          "type": "uint256"
        }
      ],
      "name": "PersonVersionEndorsed",
      "type": "event"
    },
    {
      "anonymous": false,
      "inputs": [
        {
          "indexed": false,
          "internalType": "uint256",
          "name": "previousBps",
          "type": "uint256"
        },
        {
          "indexed": false,
          "internalType": "uint256",
          "name": "newBps",
          "type": "uint256"
        }
      ],
      "name": "ProtocolEndorsementFeeUpdated",
      "type": "event"
    },
    {
      "anonymous": false,
      "inputs": [
        {
          "indexed": true,
          "internalType": "uint256",
          "name": "tokenId",
          "type": "uint256"
        },
        {
          "indexed": true,
          "internalType": "uint256",
          "name": "chunkIndex",
          "type": "uint256"
        },
        {
          "indexed": false,
          "internalType": "bytes32",
          "name": "chunkHash",
          "type": "bytes32"
        },
        {
          "indexed": true,
          "internalType": "address",
          "name": "editor",
          "type": "address"
        },
        {
          "indexed": false,
          "internalType": "uint256",
          "name": "contentLength",
          "type": "uint256"
        },
        {
          "indexed": false,
          "internalType": "uint8",
          "name": "chunkType",
          "type": "uint8"
        },
        {
          "indexed": false,
          "internalType": "string",
          "name": "attachmentCID",
          "type": "string"
        }
      ],
      "name": "StoryChunkAdded",
      "type": "event"
    },
    {
      "anonymous": false,
      "inputs": [
        {
          "indexed": true,
          "internalType": "uint256",
          "name": "tokenId",
          "type": "uint256"
        },
        {
          "indexed": false,
          "internalType": "uint256",
          "name": "totalChunks",
          "type": "uint256"
        },
        {
          "indexed": false,
          "internalType": "bytes32",
          "name": "fullStoryHash",
          "type": "bytes32"
        },
        {
          "indexed": true,
          "internalType": "address",
          "name": "sealer",
          "type": "address"
        }
      ],
      "name": "StorySealed",
      "type": "event"
    },
    {
      "anonymous": false,
      "inputs": [
        {
          "indexed": true,
          "internalType": "address",
          "name": "miner",
          "type": "address"
        },
        {
          "indexed": true,
          "internalType": "bytes32",
          "name": "personHash",
          "type": "bytes32"
        },
        {
          "indexed": true,
          "internalType": "uint256",
          "name": "versionIndex",
          "type": "uint256"
        },
        {
          "indexed": false,
          "internalType": "uint256",
          "name": "reward",
          "type": "uint256"
        }
      ],
      "name": "TokenRewardDistributed",
      "type": "event"
    },
    {
      "anonymous": false,
      "inputs": [
        {
          "indexed": true,
          "internalType": "uint256",
          "name": "tokenId",
          "type": "uint256"
        },
        {
          "indexed": true,
          "internalType": "address",
          "name": "owner",
          "type": "address"
        },
        {
          "indexed": false,
          "internalType": "string",
          "name": "oldURI",
          "type": "string"
        },
        {
          "indexed": false,
          "internalType": "string",
          "name": "newURI",
          "type": "string"
        }
      ],
      "name": "TokenURIUpdated",
      "type": "event"
    },
    {
      "anonymous": false,
      "inputs": [
        {
          "indexed": true,
          "internalType": "address",
          "name": "from",
          "type": "address"
        },
        {
          "indexed": true,
          "internalType": "address",
          "name": "to",
          "type": "address"
        },
        {
          "indexed": true,
          "internalType": "uint256",
          "name": "tokenId",
          "type": "uint256"
        }
      ],
      "name": "Transfer",
      "type": "event"
    },
    {
      "stateMutability": "payable",
      "type": "fallback"
    },
    {
      "inputs": [],
      "name": "DEEP_FAMILY_TOKEN_CONTRACT",
      "outputs": [
        {
          "internalType": "address",
          "name": "",
          "type": "address"
        }
      ],
      "stateMutability": "view",
      "type": "function"
    },
    {
      "inputs": [],
      "name": "FEE_BPS_DENOMINATOR",
      "outputs": [
        {
          "internalType": "uint256",
          "name": "",
          "type": "uint256"
        }
      ],
      "stateMutability": "view",
      "type": "function"
    },
    {
      "inputs": [],
      "name": "MAX_CHUNK_CONTENT_LENGTH",
      "outputs": [
        {
          "internalType": "uint256",
          "name": "",
          "type": "uint256"
        }
      ],
      "stateMutability": "view",
      "type": "function"
    },
    {
      "inputs": [],
      "name": "MAX_LONG_TEXT_LENGTH",
      "outputs": [
        {
          "internalType": "uint256",
          "name": "",
          "type": "uint256"
        }
      ],
      "stateMutability": "view",
      "type": "function"
    },
    {
      "inputs": [],
      "name": "MAX_QUERY_PAGE_SIZE",
      "outputs": [
        {
          "internalType": "uint256",
          "name": "",
          "type": "uint256"
        }
      ],
      "stateMutability": "view",
      "type": "function"
    },
    {
      "inputs": [],
      "name": "NAME_POSEIDON_VERIFIER",
      "outputs": [
        {
          "internalType": "address",
          "name": "",
          "type": "address"
        }
      ],
      "stateMutability": "view",
      "type": "function"
    },
    {
      "inputs": [],
      "name": "PERSON_HASH_VERIFIER",
      "outputs": [
        {
          "internalType": "address",
          "name": "",
          "type": "address"
        }
      ],
      "stateMutability": "view",
      "type": "function"
    },
    {
      "inputs": [],
      "name": "PROTOCOL_FEE_BPS_MAX",
      "outputs": [
        {
          "internalType": "uint256",
          "name": "",
          "type": "uint256"
        }
      ],
      "stateMutability": "view",
      "type": "function"
    },
    {
      "inputs": [
        {
          "internalType": "uint256[2]",
          "name": "a",
          "type": "uint256[2]"
        },
        {
          "internalType": "uint256[2][2]",
          "name": "b",
          "type": "uint256[2][2]"
        },
        {
          "internalType": "uint256[2]",
          "name": "c",
          "type": "uint256[2]"
        },
        {
          "internalType": "uint256[7]",
          "name": "publicSignals",
          "type": "uint256[7]"
        },
        {
          "internalType": "uint256",
          "name": "fatherVersionIndex",
          "type": "uint256"
        },
        {
          "internalType": "uint256",
          "name": "motherVersionIndex",
          "type": "uint256"
        },
        {
          "internalType": "string",
          "name": "tag",
          "type": "string"
        },
        {
          "internalType": "string",
          "name": "metadataCID",
          "type": "string"
        }
      ],
      "name": "addPersonZK",
      "outputs": [],
      "stateMutability": "nonpayable",
      "type": "function"
    },
    {
      "inputs": [
        {
          "internalType": "uint256",
          "name": "tokenId",
          "type": "uint256"
        },
        {
          "internalType": "uint256",
          "name": "chunkIndex",
          "type": "uint256"
        },
        {
          "internalType": "uint8",
          "name": "chunkType",
          "type": "uint8"
        },
        {
          "internalType": "string",
          "name": "content",
          "type": "string"
        },
        {
          "internalType": "string",
          "name": "attachmentCID",
          "type": "string"
        },
        {
          "internalType": "bytes32",
          "name": "expectedHash",
          "type": "bytes32"
        }
      ],
      "name": "addStoryChunk",
      "outputs": [],
      "stateMutability": "nonpayable",
      "type": "function"
    },
    {
      "inputs": [
        {
          "internalType": "address",
          "name": "to",
          "type": "address"
        },
        {
          "internalType": "uint256",
          "name": "tokenId",
          "type": "uint256"
        }
      ],
      "name": "approve",
      "outputs": [],
      "stateMutability": "nonpayable",
      "type": "function"
    },
    {
      "inputs": [
        {
          "internalType": "address",
          "name": "owner",
          "type": "address"
        }
      ],
      "name": "balanceOf",
      "outputs": [
        {
          "internalType": "uint256",
          "name": "",
          "type": "uint256"
        }
      ],
      "stateMutability": "view",
      "type": "function"
    },
    {
      "inputs": [
        {
          "internalType": "bytes32",
          "name": "",
          "type": "bytes32"
        },
        {
          "internalType": "uint256",
          "name": "",
          "type": "uint256"
        },
        {
          "internalType": "uint256",
          "name": "",
          "type": "uint256"
        }
      ],
      "name": "childrenOf",
      "outputs": [
        {
          "internalType": "bytes32",
          "name": "childHash",
          "type": "bytes32"
        },
        {
          "internalType": "uint256",
          "name": "childVersionIndex",
          "type": "uint256"
        }
      ],
      "stateMutability": "view",
      "type": "function"
    },
    {
      "inputs": [
        {
          "internalType": "bytes32",
          "name": "personHash",
          "type": "bytes32"
        },
        {
          "internalType": "uint256",
          "name": "versionIndex",
          "type": "uint256"
        }
      ],
      "name": "endorseVersion",
      "outputs": [],
      "stateMutability": "nonpayable",
      "type": "function"
    },
    {
      "inputs": [
        {
          "internalType": "bytes32",
          "name": "",
          "type": "bytes32"
        },
        {
          "internalType": "address",
          "name": "",
          "type": "address"
        }
      ],
      "name": "endorsedVersionIndex",
      "outputs": [
        {
          "internalType": "uint256",
          "name": "",
          "type": "uint256"
        }
      ],
      "stateMutability": "view",
      "type": "function"
    },
    {
      "inputs": [
        {
          "internalType": "uint256",
          "name": "tokenId",
          "type": "uint256"
        }
      ],
      "name": "getApproved",
      "outputs": [
        {
          "internalType": "address",
          "name": "",
          "type": "address"
        }
      ],
      "stateMutability": "view",
      "type": "function"
    },
    {
      "inputs": [
        {
          "internalType": "uint256",
          "name": "tokenId",
          "type": "uint256"
        }
      ],
      "name": "getNFTDetails",
      "outputs": [
        {
          "internalType": "bytes32",
          "name": "personHash",
          "type": "bytes32"
        },
        {
          "internalType": "uint256",
          "name": "versionIndex",
          "type": "uint256"
        },
        {
          "components": [
            {
              "internalType": "bytes32",
              "name": "personHash",
              "type": "bytes32"
            },
            {
              "internalType": "bytes32",
              "name": "fatherHash",
              "type": "bytes32"
            },
            {
              "internalType": "bytes32",
              "name": "motherHash",
              "type": "bytes32"
            },
            {
              "internalType": "uint256",
              "name": "versionIndex",
              "type": "uint256"
            },
            {
              "internalType": "uint256",
              "name": "fatherVersionIndex",
              "type": "uint256"
            },
            {
              "internalType": "uint256",
              "name": "motherVersionIndex",
              "type": "uint256"
            },
            {
              "internalType": "address",
              "name": "addedBy",
              "type": "address"
            },
            {
              "internalType": "uint96",
              "name": "timestamp",
              "type": "uint96"
            },
            {
              "internalType": "string",
              "name": "tag",
              "type": "string"
            },
            {
              "internalType": "string",
              "name": "metadataCID",
              "type": "string"
            }
          ],
          "internalType": "struct DeepFamily.PersonVersion",
          "name": "version",
          "type": "tuple"
        },
        {
          "components": [
            {
              "components": [
                {
                  "internalType": "bytes32",
                  "name": "fullNameCommitment",
                  "type": "bytes32"
                },
                {
                  "internalType": "bool",
                  "name": "isBirthBC",
                  "type": "bool"
                },
                {
                  "internalType": "uint16",
                  "name": "birthYear",
                  "type": "uint16"
                },
                {
                  "internalType": "uint8",
                  "name": "birthMonth",
                  "type": "uint8"
                },
                {
                  "internalType": "uint8",
                  "name": "birthDay",
                  "type": "uint8"
                },
                {
                  "internalType": "uint8",
                  "name": "gender",
                  "type": "uint8"
                }
              ],
              "internalType": "struct DeepFamily.PersonBasicInfo",
              "name": "basicInfo",
              "type": "tuple"
            },
            {
              "components": [
                {
                  "internalType": "string",
                  "name": "fullName",
                  "type": "string"
                },
                {
                  "internalType": "string",
                  "name": "birthPlace",
                  "type": "string"
                },
                {
                  "internalType": "bool",
                  "name": "isDeathBC",
                  "type": "bool"
                },
                {
                  "internalType": "uint16",
                  "name": "deathYear",
                  "type": "uint16"
                },
                {
                  "internalType": "uint8",
                  "name": "deathMonth",
                  "type": "uint8"
                },
                {
                  "internalType": "uint8",
                  "name": "deathDay",
                  "type": "uint8"
                },
                {
                  "internalType": "string",
                  "name": "deathPlace",
                  "type": "string"
                },
                {
                  "internalType": "string",
                  "name": "story",
                  "type": "string"
                }
              ],
              "internalType": "struct DeepFamily.PersonSupplementInfo",
              "name": "supplementInfo",
              "type": "tuple"
            }
          ],
          "internalType": "struct DeepFamily.PersonCoreInfo",
          "name": "coreInfo",
          "type": "tuple"
        },
        {
          "internalType": "uint256",
          "name": "endorsementCount",
          "type": "uint256"
        },
        {
          "internalType": "string",
          "name": "nftTokenURI",
          "type": "string"
        }
      ],
      "stateMutability": "view",
      "type": "function"
    },
    {
      "inputs": [
        {
          "components": [
            {
              "internalType": "bytes32",
              "name": "fullNameCommitment",
              "type": "bytes32"
            },
            {
              "internalType": "bool",
              "name": "isBirthBC",
              "type": "bool"
            },
            {
              "internalType": "uint16",
              "name": "birthYear",
              "type": "uint16"
            },
            {
              "internalType": "uint8",
              "name": "birthMonth",
              "type": "uint8"
            },
            {
              "internalType": "uint8",
              "name": "birthDay",
              "type": "uint8"
            },
            {
              "internalType": "uint8",
              "name": "gender",
              "type": "uint8"
            }
          ],
          "internalType": "struct DeepFamily.PersonBasicInfo",
          "name": "basicInfo",
          "type": "tuple"
        }
      ],
      "name": "getPersonHash",
      "outputs": [
        {
          "internalType": "bytes32",
          "name": "",
          "type": "bytes32"
        }
      ],
      "stateMutability": "pure",
      "type": "function"
    },
    {
      "inputs": [
        {
          "internalType": "uint256",
          "name": "tokenId",
          "type": "uint256"
        },
        {
          "internalType": "uint256",
          "name": "chunkIndex",
          "type": "uint256"
        }
      ],
      "name": "getStoryChunk",
      "outputs": [
        {
          "components": [
            {
              "internalType": "uint256",
              "name": "chunkIndex",
              "type": "uint256"
            },
            {
              "internalType": "bytes32",
              "name": "chunkHash",
              "type": "bytes32"
            },
            {
              "internalType": "string",
              "name": "content",
              "type": "string"
            },
            {
              "internalType": "uint256",
              "name": "timestamp",
              "type": "uint256"
            },
            {
              "internalType": "address",
              "name": "editor",
              "type": "address"
            },
            {
              "internalType": "uint8",
              "name": "chunkType",
              "type": "uint8"
            },
            {
              "internalType": "string",
              "name": "attachmentCID",
              "type": "string"
            }
          ],
          "internalType": "struct DeepFamily.StoryChunk",
          "name": "chunk",
          "type": "tuple"
        }
      ],
      "stateMutability": "view",
      "type": "function"
    },
    {
      "inputs": [
        {
          "internalType": "uint256",
          "name": "tokenId",
          "type": "uint256"
        }
      ],
      "name": "getStoryMetadata",
      "outputs": [
        {
          "components": [
            {
              "internalType": "uint256",
              "name": "totalChunks",
              "type": "uint256"
            },
            {
              "internalType": "bytes32",
              "name": "fullStoryHash",
              "type": "bytes32"
            },
            {
              "internalType": "uint256",
              "name": "lastUpdateTime",
              "type": "uint256"
            },
            {
              "internalType": "bool",
              "name": "isSealed",
              "type": "bool"
            },
            {
              "internalType": "uint256",
              "name": "totalLength",
              "type": "uint256"
            }
          ],
          "internalType": "struct DeepFamily.StoryMetadata",
          "name": "metadata",
          "type": "tuple"
        }
      ],
      "stateMutability": "view",
      "type": "function"
    },
    {
      "inputs": [
        {
          "internalType": "bytes32",
          "name": "personHash",
          "type": "bytes32"
        },
        {
          "internalType": "uint256",
          "name": "versionIndex",
          "type": "uint256"
        }
      ],
      "name": "getVersionDetails",
      "outputs": [
        {
          "components": [
            {
              "internalType": "bytes32",
              "name": "personHash",
              "type": "bytes32"
            },
            {
              "internalType": "bytes32",
              "name": "fatherHash",
              "type": "bytes32"
            },
            {
              "internalType": "bytes32",
              "name": "motherHash",
              "type": "bytes32"
            },
            {
              "internalType": "uint256",
              "name": "versionIndex",
              "type": "uint256"
            },
            {
              "internalType": "uint256",
              "name": "fatherVersionIndex",
              "type": "uint256"
            },
            {
              "internalType": "uint256",
              "name": "motherVersionIndex",
              "type": "uint256"
            },
            {
              "internalType": "address",
              "name": "addedBy",
              "type": "address"
            },
            {
              "internalType": "uint96",
              "name": "timestamp",
              "type": "uint96"
            },
            {
              "internalType": "string",
              "name": "tag",
              "type": "string"
            },
            {
              "internalType": "string",
              "name": "metadataCID",
              "type": "string"
            }
          ],
          "internalType": "struct DeepFamily.PersonVersion",
          "name": "version",
          "type": "tuple"
        },
        {
          "internalType": "uint256",
          "name": "endorsementCount",
          "type": "uint256"
        },
        {
          "internalType": "uint256",
          "name": "tokenId",
          "type": "uint256"
        }
      ],
      "stateMutability": "view",
      "type": "function"
    },
    {
      "inputs": [
        {
          "internalType": "address",
          "name": "owner",
          "type": "address"
        },
        {
          "internalType": "address",
          "name": "operator",
          "type": "address"
        }
      ],
      "name": "isApprovedForAll",
      "outputs": [
        {
          "internalType": "bool",
          "name": "",
          "type": "bool"
        }
      ],
      "stateMutability": "view",
      "type": "function"
    },
    {
      "inputs": [
        {
          "internalType": "bytes32",
          "name": "parentHash",
          "type": "bytes32"
        },
        {
          "internalType": "uint256",
          "name": "parentVersionIndex",
          "type": "uint256"
        },
        {
          "internalType": "uint256",
          "name": "offset",
          "type": "uint256"
        },
        {
          "internalType": "uint256",
          "name": "limit",
          "type": "uint256"
        }
      ],
      "name": "listChildren",
      "outputs": [
        {
          "internalType": "bytes32[]",
          "name": "childHashes",
          "type": "bytes32[]"
        },
        {
          "internalType": "uint256[]",
          "name": "childVersionIndices",
          "type": "uint256[]"
        },
        {
          "internalType": "uint256",
          "name": "totalCount",
          "type": "uint256"
        },
        {
          "internalType": "bool",
          "name": "hasMore",
          "type": "bool"
        },
        {
          "internalType": "uint256",
          "name": "nextOffset",
          "type": "uint256"
        }
      ],
      "stateMutability": "view",
      "type": "function"
    },
    {
      "inputs": [
        {
          "internalType": "bytes32",
          "name": "personHash",
          "type": "bytes32"
        },
        {
          "internalType": "uint256",
          "name": "offset",
          "type": "uint256"
        },
        {
          "internalType": "uint256",
          "name": "limit",
          "type": "uint256"
        }
      ],
      "name": "listPersonVersions",
      "outputs": [
        {
          "components": [
            {
              "internalType": "bytes32",
              "name": "personHash",
              "type": "bytes32"
            },
            {
              "internalType": "bytes32",
              "name": "fatherHash",
              "type": "bytes32"
            },
            {
              "internalType": "bytes32",
              "name": "motherHash",
              "type": "bytes32"
            },
            {
              "internalType": "uint256",
              "name": "versionIndex",
              "type": "uint256"
            },
            {
              "internalType": "uint256",
              "name": "fatherVersionIndex",
              "type": "uint256"
            },
            {
              "internalType": "uint256",
              "name": "motherVersionIndex",
              "type": "uint256"
            },
            {
              "internalType": "address",
              "name": "addedBy",
              "type": "address"
            },
            {
              "internalType": "uint96",
              "name": "timestamp",
              "type": "uint96"
            },
            {
              "internalType": "string",
              "name": "tag",
              "type": "string"
            },
            {
              "internalType": "string",
              "name": "metadataCID",
              "type": "string"
            }
          ],
          "internalType": "struct DeepFamily.PersonVersion[]",
          "name": "versions",
          "type": "tuple[]"
        },
        {
          "internalType": "uint256",
          "name": "totalVersions",
          "type": "uint256"
        },
        {
          "internalType": "bool",
          "name": "hasMore",
          "type": "bool"
        },
        {
          "internalType": "uint256",
          "name": "nextOffset",
          "type": "uint256"
        }
      ],
      "stateMutability": "view",
      "type": "function"
    },
    {
      "inputs": [
        {
          "internalType": "uint256",
          "name": "tokenId",
          "type": "uint256"
        },
        {
          "internalType": "uint256",
          "name": "offset",
          "type": "uint256"
        },
        {
          "internalType": "uint256",
          "name": "limit",
          "type": "uint256"
        }
      ],
      "name": "listStoryChunks",
      "outputs": [
        {
          "components": [
            {
              "internalType": "uint256",
              "name": "chunkIndex",
              "type": "uint256"
            },
            {
              "internalType": "bytes32",
              "name": "chunkHash",
              "type": "bytes32"
            },
            {
              "internalType": "string",
              "name": "content",
              "type": "string"
            },
            {
              "internalType": "uint256",
              "name": "timestamp",
              "type": "uint256"
            },
            {
              "internalType": "address",
              "name": "editor",
              "type": "address"
            },
            {
              "internalType": "uint8",
              "name": "chunkType",
              "type": "uint8"
            },
            {
              "internalType": "string",
              "name": "attachmentCID",
              "type": "string"
            }
          ],
          "internalType": "struct DeepFamily.StoryChunk[]",
          "name": "chunks",
          "type": "tuple[]"
        },
        {
          "internalType": "uint256",
          "name": "totalChunks",
          "type": "uint256"
        },
        {
          "internalType": "bool",
          "name": "hasMore",
          "type": "bool"
        },
        {
          "internalType": "uint256",
          "name": "nextOffset",
          "type": "uint256"
        }
      ],
      "stateMutability": "view",
      "type": "function"
    },
    {
      "inputs": [
        {
          "internalType": "uint256",
          "name": "tokenId",
          "type": "uint256"
        },
        {
          "internalType": "uint256",
          "name": "offset",
          "type": "uint256"
        },
        {
          "internalType": "uint256",
          "name": "limit",
          "type": "uint256"
        }
      ],
      "name": "listTokenURIHistory",
      "outputs": [
        {
          "internalType": "string[]",
          "name": "uris",
          "type": "string[]"
        },
        {
          "internalType": "uint256",
          "name": "totalCount",
          "type": "uint256"
        },
        {
          "internalType": "bool",
          "name": "hasMore",
          "type": "bool"
        },
        {
          "internalType": "uint256",
          "name": "nextOffset",
          "type": "uint256"
        }
      ],
      "stateMutability": "view",
      "type": "function"
    },
    {
      "inputs": [
        {
          "internalType": "bytes32",
          "name": "personHash",
          "type": "bytes32"
        },
        {
          "internalType": "uint256",
          "name": "offset",
          "type": "uint256"
        },
        {
          "internalType": "uint256",
          "name": "limit",
          "type": "uint256"
        }
      ],
      "name": "listVersionsEndorsementStats",
      "outputs": [
        {
          "internalType": "uint256[]",
          "name": "versionIndices",
          "type": "uint256[]"
        },
        {
          "internalType": "uint256[]",
          "name": "endorsementCounts",
          "type": "uint256[]"
        },
        {
          "internalType": "uint256[]",
          "name": "tokenIds",
          "type": "uint256[]"
        },
        {
          "internalType": "uint256",
          "name": "totalVersions",
          "type": "uint256"
        },
        {
          "internalType": "bool",
          "name": "hasMore",
          "type": "bool"
        },
        {
          "internalType": "uint256",
          "name": "nextOffset",
          "type": "uint256"
        }
      ],
      "stateMutability": "view",
      "type": "function"
    },
    {
      "inputs": [
        {
          "internalType": "uint256[2]",
          "name": "a",
          "type": "uint256[2]"
        },
        {
          "internalType": "uint256[2][2]",
          "name": "b",
          "type": "uint256[2][2]"
        },
        {
          "internalType": "uint256[2]",
          "name": "c",
          "type": "uint256[2]"
        },
        {
          "internalType": "uint256[5]",
          "name": "publicSignals",
          "type": "uint256[5]"
        },
        {
          "internalType": "bytes32",
          "name": "personHash",
          "type": "bytes32"
        },
        {
          "internalType": "uint256",
          "name": "versionIndex",
          "type": "uint256"
        },
        {
          "internalType": "string",
          "name": "_tokenURI",
          "type": "string"
        },
        {
          "components": [
            {
              "components": [
                {
                  "internalType": "bytes32",
                  "name": "fullNameCommitment",
                  "type": "bytes32"
                },
                {
                  "internalType": "bool",
                  "name": "isBirthBC",
                  "type": "bool"
                },
                {
                  "internalType": "uint16",
                  "name": "birthYear",
                  "type": "uint16"
                },
                {
                  "internalType": "uint8",
                  "name": "birthMonth",
                  "type": "uint8"
                },
                {
                  "internalType": "uint8",
                  "name": "birthDay",
                  "type": "uint8"
                },
                {
                  "internalType": "uint8",
                  "name": "gender",
                  "type": "uint8"
                }
              ],
              "internalType": "struct DeepFamily.PersonBasicInfo",
              "name": "basicInfo",
              "type": "tuple"
            },
            {
              "components": [
                {
                  "internalType": "string",
                  "name": "fullName",
                  "type": "string"
                },
                {
                  "internalType": "string",
                  "name": "birthPlace",
                  "type": "string"
                },
                {
                  "internalType": "bool",
                  "name": "isDeathBC",
                  "type": "bool"
                },
                {
                  "internalType": "uint16",
                  "name": "deathYear",
                  "type": "uint16"
                },
                {
                  "internalType": "uint8",
                  "name": "deathMonth",
                  "type": "uint8"
                },
                {
                  "internalType": "uint8",
                  "name": "deathDay",
                  "type": "uint8"
                },
                {
                  "internalType": "string",
                  "name": "deathPlace",
                  "type": "string"
                },
                {
                  "internalType": "string",
                  "name": "story",
                  "type": "string"
                }
              ],
              "internalType": "struct DeepFamily.PersonSupplementInfo",
              "name": "supplementInfo",
              "type": "tuple"
            }
          ],
          "internalType": "struct DeepFamily.PersonCoreInfo",
          "name": "coreInfo",
          "type": "tuple"
        }
      ],
      "name": "mintPersonNFT",
      "outputs": [],
      "stateMutability": "nonpayable",
      "type": "function"
    },
    {
      "inputs": [],
      "name": "name",
      "outputs": [
        {
          "internalType": "string",
          "name": "",
          "type": "string"
        }
      ],
      "stateMutability": "view",
      "type": "function"
    },
    {
      "inputs": [
        {
          "internalType": "uint256",
          "name": "",
          "type": "uint256"
        }
      ],
      "name": "nftCoreInfo",
      "outputs": [
        {
          "components": [
            {
              "internalType": "bytes32",
              "name": "fullNameCommitment",
              "type": "bytes32"
            },
            {
              "internalType": "bool",
              "name": "isBirthBC",
              "type": "bool"
            },
            {
              "internalType": "uint16",
              "name": "birthYear",
              "type": "uint16"
            },
            {
              "internalType": "uint8",
              "name": "birthMonth",
              "type": "uint8"
            },
            {
              "internalType": "uint8",
              "name": "birthDay",
              "type": "uint8"
            },
            {
              "internalType": "uint8",
              "name": "gender",
              "type": "uint8"
            }
          ],
          "internalType": "struct DeepFamily.PersonBasicInfo",
          "name": "basicInfo",
          "type": "tuple"
        },
        {
          "components": [
            {
              "internalType": "string",
              "name": "fullName",
              "type": "string"
            },
            {
              "internalType": "string",
              "name": "birthPlace",
              "type": "string"
            },
            {
              "internalType": "bool",
              "name": "isDeathBC",
              "type": "bool"
            },
            {
              "internalType": "uint16",
              "name": "deathYear",
              "type": "uint16"
            },
            {
              "internalType": "uint8",
              "name": "deathMonth",
              "type": "uint8"
            },
            {
              "internalType": "uint8",
              "name": "deathDay",
              "type": "uint8"
            },
            {
              "internalType": "string",
              "name": "deathPlace",
              "type": "string"
            },
            {
              "internalType": "string",
              "name": "story",
              "type": "string"
            }
          ],
          "internalType": "struct DeepFamily.PersonSupplementInfo",
          "name": "supplementInfo",
          "type": "tuple"
        }
      ],
      "stateMutability": "view",
      "type": "function"
    },
    {
      "inputs": [],
      "name": "owner",
      "outputs": [
        {
          "internalType": "address",
          "name": "",
          "type": "address"
        }
      ],
      "stateMutability": "view",
      "type": "function"
    },
    {
      "inputs": [
        {
          "internalType": "uint256",
          "name": "tokenId",
          "type": "uint256"
        }
      ],
      "name": "ownerOf",
      "outputs": [
        {
          "internalType": "address",
          "name": "",
          "type": "address"
        }
      ],
      "stateMutability": "view",
      "type": "function"
    },
    {
      "inputs": [
        {
          "internalType": "bytes32",
          "name": "",
          "type": "bytes32"
        },
        {
          "internalType": "uint256",
          "name": "",
          "type": "uint256"
        }
      ],
      "name": "personVersions",
      "outputs": [
        {
          "internalType": "bytes32",
          "name": "personHash",
          "type": "bytes32"
        },
        {
          "internalType": "bytes32",
          "name": "fatherHash",
          "type": "bytes32"
        },
        {
          "internalType": "bytes32",
          "name": "motherHash",
          "type": "bytes32"
        },
        {
          "internalType": "uint256",
          "name": "versionIndex",
          "type": "uint256"
        },
        {
          "internalType": "uint256",
          "name": "fatherVersionIndex",
          "type": "uint256"
        },
        {
          "internalType": "uint256",
          "name": "motherVersionIndex",
          "type": "uint256"
        },
        {
          "internalType": "address",
          "name": "addedBy",
          "type": "address"
        },
        {
          "internalType": "uint96",
          "name": "timestamp",
          "type": "uint96"
        },
        {
          "internalType": "string",
          "name": "tag",
          "type": "string"
        },
        {
          "internalType": "string",
          "name": "metadataCID",
          "type": "string"
        }
      ],
      "stateMutability": "view",
      "type": "function"
    },
    {
      "inputs": [],
      "name": "protocolEndorsementFeeBps",
      "outputs": [
        {
          "internalType": "uint256",
          "name": "",
          "type": "uint256"
        }
      ],
      "stateMutability": "view",
      "type": "function"
    },
    {
      "inputs": [],
      "name": "renounceOwnership",
      "outputs": [],
      "stateMutability": "nonpayable",
      "type": "function"
    },
    {
      "inputs": [
        {
          "internalType": "address",
          "name": "from",
          "type": "address"
        },
        {
          "internalType": "address",
          "name": "to",
          "type": "address"
        },
        {
          "internalType": "uint256",
          "name": "tokenId",
          "type": "uint256"
        }
      ],
      "name": "safeTransferFrom",
      "outputs": [],
      "stateMutability": "nonpayable",
      "type": "function"
    },
    {
      "inputs": [
        {
          "internalType": "address",
          "name": "from",
          "type": "address"
        },
        {
          "internalType": "address",
          "name": "to",
          "type": "address"
        },
        {
          "internalType": "uint256",
          "name": "tokenId",
          "type": "uint256"
        },
        {
          "internalType": "bytes",
          "name": "data",
          "type": "bytes"
        }
      ],
      "name": "safeTransferFrom",
      "outputs": [],
      "stateMutability": "nonpayable",
      "type": "function"
    },
    {
      "inputs": [
        {
          "internalType": "uint256",
          "name": "tokenId",
          "type": "uint256"
        }
      ],
      "name": "sealStory",
      "outputs": [],
      "stateMutability": "nonpayable",
      "type": "function"
    },
    {
      "inputs": [
        {
          "internalType": "address",
          "name": "operator",
          "type": "address"
        },
        {
          "internalType": "bool",
          "name": "approved",
          "type": "bool"
        }
      ],
      "name": "setApprovalForAll",
      "outputs": [],
      "stateMutability": "nonpayable",
      "type": "function"
    },
    {
      "inputs": [
        {
          "internalType": "uint256",
          "name": "",
          "type": "uint256"
        },
        {
          "internalType": "uint256",
          "name": "",
          "type": "uint256"
        }
      ],
      "name": "storyChunks",
      "outputs": [
        {
          "internalType": "uint256",
          "name": "chunkIndex",
          "type": "uint256"
        },
        {
          "internalType": "bytes32",
          "name": "chunkHash",
          "type": "bytes32"
        },
        {
          "internalType": "string",
          "name": "content",
          "type": "string"
        },
        {
          "internalType": "uint256",
          "name": "timestamp",
          "type": "uint256"
        },
        {
          "internalType": "address",
          "name": "editor",
          "type": "address"
        },
        {
          "internalType": "uint8",
          "name": "chunkType",
          "type": "uint8"
        },
        {
          "internalType": "string",
          "name": "attachmentCID",
          "type": "string"
        }
      ],
      "stateMutability": "view",
      "type": "function"
    },
    {
      "inputs": [
        {
          "internalType": "uint256",
          "name": "",
          "type": "uint256"
        }
      ],
      "name": "storyMetadata",
      "outputs": [
        {
          "internalType": "uint256",
          "name": "totalChunks",
          "type": "uint256"
        },
        {
          "internalType": "bytes32",
          "name": "fullStoryHash",
          "type": "bytes32"
        },
        {
          "internalType": "uint256",
          "name": "lastUpdateTime",
          "type": "uint256"
        },
        {
          "internalType": "bool",
          "name": "isSealed",
          "type": "bool"
        },
        {
          "internalType": "uint256",
          "name": "totalLength",
          "type": "uint256"
        }
      ],
      "stateMutability": "view",
      "type": "function"
    },
    {
      "inputs": [
        {
          "internalType": "bytes4",
          "name": "interfaceId",
          "type": "bytes4"
        }
      ],
      "name": "supportsInterface",
      "outputs": [
        {
          "internalType": "bool",
          "name": "",
          "type": "bool"
        }
      ],
      "stateMutability": "view",
      "type": "function"
    },
    {
      "inputs": [],
      "name": "symbol",
      "outputs": [
        {
          "internalType": "string",
          "name": "",
          "type": "string"
        }
      ],
      "stateMutability": "view",
      "type": "function"
    },
    {
      "inputs": [
        {
          "internalType": "uint256",
          "name": "index",
          "type": "uint256"
        }
      ],
      "name": "tokenByIndex",
      "outputs": [
        {
          "internalType": "uint256",
          "name": "",
          "type": "uint256"
        }
      ],
      "stateMutability": "view",
      "type": "function"
    },
    {
      "inputs": [],
      "name": "tokenCounter",
      "outputs": [
        {
          "internalType": "uint256",
          "name": "",
          "type": "uint256"
        }
      ],
      "stateMutability": "view",
      "type": "function"
    },
    {
      "inputs": [
        {
          "internalType": "uint256",
          "name": "",
          "type": "uint256"
        }
      ],
      "name": "tokenIdToPerson",
      "outputs": [
        {
          "internalType": "bytes32",
          "name": "",
          "type": "bytes32"
        }
      ],
      "stateMutability": "view",
      "type": "function"
    },
    {
      "inputs": [
        {
          "internalType": "uint256",
          "name": "",
          "type": "uint256"
        }
      ],
      "name": "tokenIdToVersionIndex",
      "outputs": [
        {
          "internalType": "uint256",
          "name": "",
          "type": "uint256"
        }
      ],
      "stateMutability": "view",
      "type": "function"
    },
    {
      "inputs": [
        {
          "internalType": "address",
          "name": "owner",
          "type": "address"
        },
        {
          "internalType": "uint256",
          "name": "index",
          "type": "uint256"
        }
      ],
      "name": "tokenOfOwnerByIndex",
      "outputs": [
        {
          "internalType": "uint256",
          "name": "",
          "type": "uint256"
        }
      ],
      "stateMutability": "view",
      "type": "function"
    },
    {
      "inputs": [
        {
          "internalType": "uint256",
          "name": "tokenId",
          "type": "uint256"
        }
      ],
      "name": "tokenURI",
      "outputs": [
        {
          "internalType": "string",
          "name": "",
          "type": "string"
        }
      ],
      "stateMutability": "view",
      "type": "function"
    },
    {
      "inputs": [
        {
          "internalType": "uint256",
          "name": "",
          "type": "uint256"
        },
        {
          "internalType": "uint256",
          "name": "",
          "type": "uint256"
        }
      ],
      "name": "tokenURIHistory",
      "outputs": [
        {
          "internalType": "string",
          "name": "",
          "type": "string"
        }
      ],
      "stateMutability": "view",
      "type": "function"
    },
    {
      "inputs": [],
      "name": "totalPersonsCount",
      "outputs": [
        {
          "internalType": "uint256",
          "name": "",
          "type": "uint256"
        }
      ],
      "stateMutability": "view",
      "type": "function"
    },
    {
      "inputs": [],
      "name": "totalSupply",
      "outputs": [
        {
          "internalType": "uint256",
          "name": "",
          "type": "uint256"
        }
      ],
      "stateMutability": "view",
      "type": "function"
    },
    {
      "inputs": [
        {
          "internalType": "address",
          "name": "from",
          "type": "address"
        },
        {
          "internalType": "address",
          "name": "to",
          "type": "address"
        },
        {
          "internalType": "uint256",
          "name": "tokenId",
          "type": "uint256"
        }
      ],
      "name": "transferFrom",
      "outputs": [],
      "stateMutability": "nonpayable",
      "type": "function"
    },
    {
      "inputs": [
        {
          "internalType": "address",
          "name": "newOwner",
          "type": "address"
        }
      ],
      "name": "transferOwnership",
      "outputs": [],
      "stateMutability": "nonpayable",
      "type": "function"
    },
    {
      "inputs": [
        {
          "internalType": "bytes32",
          "name": "personHash",
          "type": "bytes32"
        },
        {
          "internalType": "uint256",
          "name": "versionIndex",
          "type": "uint256"
        },
        {
          "internalType": "bytes32",
          "name": "newFatherHash",
          "type": "bytes32"
        },
        {
          "internalType": "uint256",
          "name": "newFatherVersionIndex",
          "type": "uint256"
        },
        {
          "internalType": "bytes32",
          "name": "newMotherHash",
          "type": "bytes32"
        },
        {
          "internalType": "uint256",
          "name": "newMotherVersionIndex",
          "type": "uint256"
        }
      ],
      "name": "updatePersonParents",
      "outputs": [],
      "stateMutability": "nonpayable",
      "type": "function"
    },
    {
      "inputs": [
        {
          "internalType": "uint256",
          "name": "newBps",
          "type": "uint256"
        }
      ],
      "name": "updateProtocolEndorsementFee",
      "outputs": [],
      "stateMutability": "nonpayable",
      "type": "function"
    },
    {
      "inputs": [
        {
          "internalType": "uint256",
          "name": "tokenId",
          "type": "uint256"
        },
        {
          "internalType": "string",
          "name": "newURI",
          "type": "string"
        }
      ],
      "name": "updateTokenURI",
      "outputs": [],
      "stateMutability": "nonpayable",
      "type": "function"
    },
    {
      "inputs": [
        {
          "internalType": "bytes32",
          "name": "",
          "type": "bytes32"
        },
        {
          "internalType": "uint256",
          "name": "",
          "type": "uint256"
        }
      ],
      "name": "versionEndorsementCount",
      "outputs": [
        {
          "internalType": "uint256",
          "name": "",
          "type": "uint256"
        }
      ],
      "stateMutability": "view",
      "type": "function"
    },
    {
      "inputs": [
        {
          "internalType": "bytes32",
          "name": "",
          "type": "bytes32"
        },
        {
          "internalType": "bytes32",
          "name": "",
          "type": "bytes32"
        }
      ],
      "name": "versionExists",
      "outputs": [
        {
          "internalType": "bool",
          "name": "",
          "type": "bool"
        }
      ],
      "stateMutability": "view",
      "type": "function"
    },
    {
      "inputs": [
        {
          "internalType": "bytes32",
          "name": "",
          "type": "bytes32"
        },
        {
          "internalType": "uint256",
          "name": "",
          "type": "uint256"
        }
      ],
      "name": "versionToTokenId",
      "outputs": [
        {
          "internalType": "uint256",
          "name": "",
          "type": "uint256"
        }
      ],
      "stateMutability": "view",
      "type": "function"
    },
    {
      "stateMutability": "payable",
      "type": "receive"
    }
  ],
  "bytecode": "0x60e06040526101f4601a553480156200001757600080fd5b5060405162007409380380620074098339810160408190526200003a91620001e5565b336040518060400160405280600a8152602001694465657046616d696c7960b01b8152506040518060400160405280600681526020016546616d696c7960d01b81525081600090816200008e9190620002d4565b5060016200009d8282620002d4565b5050506001600160a01b038116620000cf57604051631e4fbdf760e01b81526000600482015260240160405180910390fd5b620000da8162000176565b506001600b556001600160a01b0383166200010857604051634c32eccd60e11b815260040160405180910390fd5b6001600160a01b0382166200013057604051635fce01bb60e01b815260040160405180910390fd5b6001600160a01b038116620001585760405163abd45c1f60e01b815260040160405180910390fd5b6001600160a01b0392831660805290821660a0521660c052620003a0565b600a80546001600160a01b038381166001600160a01b0319831681179093556040519116919082907f8be0079c531659141344cd1fd0a4f28419497f9722a3daafe3b4186f6b6457e090600090a35050565b80516001600160a01b0381168114620001e057600080fd5b919050565b600080600060608486031215620001fb57600080fd5b6200020684620001c8565b92506200021660208501620001c8565b91506200022660408501620001c8565b90509250925092565b634e487b7160e01b600052604160045260246000fd5b600181811c908216806200025a57607f821691505b6020821081036200027b57634e487b7160e01b600052602260045260246000fd5b50919050565b601f821115620002cf57600081815260208120601f850160051c81016020861015620002aa5750805b601f850160051c820191505b81811015620002cb57828155600101620002b6565b5050505b505050565b81516001600160401b03811115620002f057620002f06200022f565b620003088162000301845462000245565b8462000281565b602080601f831160018114620003405760008415620003275750858301515b600019600386901b1c1916600185901b178555620002cb565b600085815260208120601f198616915b82811015620003715788860151825594840194600190910190840162000350565b5085821015620003905787850151600019600388901b60f8161c191681555b5050505050600190811b01905550565b60805160a05160c051617016620003f3600039600081816105590152613258015260008181610ad401526135b8015260008181610bb90152818161379d015281816138e5015261513f01526170166000f3fe60806040526004361061039a5760003560e01c8063797e57e5116101dc578063bd7eef2311610102578063d596b1b0116100a0578063f2fde38b1161006f578063f2fde38b14610c93578063f74faf6614610cb3578063fe980dd614610ceb578063fe9c3c0514610d1d576103b8565b8063d596b1b014610bdb578063dbcdc08f14610c13578063e985e9c514610c46578063f1fad06714610c66576103b8565b8063c87b56dd116100dc578063c87b56dd14610b51578063c893eb5614610b71578063d082e38114610b91578063d1486a1b14610ba7576103b8565b8063bd7eef2314610af6578063c090fba214610b0c578063c841eb1f14610b3b576103b8565b8063a22cb4651161017a578063b5c7198d11610149578063b5c7198d14610a6c578063b7fb7ee614610a8c578063b88d4fde14610aa2578063bcecdf1d14610ac2576103b8565b8063a22cb465146109ec578063a294fd6414610a0c578063b4283e3314610a2c578063b570b2ab14610a4c576103b8565b806383af7191116101b657806383af7191146109125780638da5cb5b146109895780638f2360b3146109a757806395d89b41146109d7576103b8565b8063797e57e5146108aa5780637e927db5146108ca57806382260f35146108e0576103b8565b806342842e0e116102c15780636352211e1161025f57806370a082311161022e57806370a08231146107fb578063715018a61461081b5780637189567c1461083057806376f0f85d14610894576103b8565b80636352211e1461075857806366b3beda1461077857806367b9b3e114610798578063690a76bf146107ce576103b8565b8063538ffa0b1161029b578063538ffa0b146106c457806357611dfb146106f1578063583d434f146107225780635a4b65d614610738576103b8565b806342842e0e14610649578063431a342a146106695780634f6ccce7146106a4576103b8565b806318160ddd11610339578063278d5fce11610308578063278d5fce1461059b57806328273a2a146105c95780632f745c59146105f95780633791b66a14610619576103b8565b806318160ddd1461051257806318e97fd1146105275780631d5d7be91461054757806323b872dd1461057b576103b8565b8063081812fc11610375578063081812fc1461044b578063095ea7b3146104835780631516fa25146104a5578063164e38ee146104dd576103b8565b8062eee6a1146103d157806301ffc9a7146103f957806306fdde0314610429576103b8565b366103b85760405163af9f22fb60e01b815260040160405180910390fd5b60405163af9f22fb60e01b815260040160405180910390fd5b3480156103dd57600080fd5b506103e6606481565b6040519081526020015b60405180910390f35b34801561040557600080fd5b50610419610414366004615955565b610d3d565b60405190151581526020016103f0565b34801561043557600080fd5b5061043e610d68565b6040516103f091906159c2565b34801561045757600080fd5b5061046b6104663660046159d5565b610dfa565b6040516001600160a01b0390911681526020016103f0565b34801561048f57600080fd5b506104a361049e366004615a0a565b610e23565b005b3480156104b157600080fd5b506103e66104c0366004615a34565b601960209081526000928352604080842090915290825290205481565b3480156104e957600080fd5b506104fd6104f8366004615a56565b610e32565b604080519283526020830191909152016103f0565b34801561051e57600080fd5b506008546103e6565b34801561053357600080fd5b506104a3610542366004615aca565b610e7c565b34801561055357600080fd5b5061046b7f000000000000000000000000000000000000000000000000000000000000000081565b34801561058757600080fd5b506104a3610596366004615b15565b611029565b3480156105a757600080fd5b506105bb6105b63660046159d5565b6110b9565b6040516103f0929190615c5b565b3480156105d557600080fd5b506105e96105e4366004615a56565b6113c2565b6040516103f09493929190615ce6565b34801561060557600080fd5b506103e6610614366004615a0a565b6116c6565b34801561062557600080fd5b50610639610634366004615a56565b61172b565b6040516103f09493929190615d59565b34801561065557600080fd5b506104a3610664366004615b15565b611901565b34801561067557600080fd5b50610419610684366004615a34565b600e60209081526000928352604080842090915290825290205460ff1681565b3480156106b057600080fd5b506103e66106bf3660046159d5565b611921565b3480156106d057600080fd5b506103e66106df3660046159d5565b60126020526000908152604090205481565b3480156106fd57600080fd5b5061071161070c366004615db0565b61197a565b6040516103f0959493929190615e1d565b34801561072e57600080fd5b506103e661271081565b34801561074457600080fd5b506104a3610753366004615e98565b611b80565b34801561076457600080fd5b5061046b6107733660046159d5565b611e09565b34801561078457600080fd5b506104a3610793366004615f34565b611e14565b3480156107a457600080fd5b506107b86107b3366004615a34565b612305565b6040516103f09a99989796959493929190615f77565b3480156107da57600080fd5b506103e66107e93660046159d5565b60116020526000908152604090205481565b34801561080757600080fd5b506103e6610816366004615ff3565b61249f565b34801561082757600080fd5b506104a36124e7565b34801561083c57600080fd5b5061085061084b3660046159d5565b6124fb565b6040516103f09190600060a0820190508251825260208301516020830152604083015160408301526060830151151560608301526080830151608083015292915050565b3480156108a057600080fd5b506103e661010081565b3480156108b657600080fd5b506104a36108c53660046159d5565b6125ae565b3480156108d657600080fd5b506103e6601a5481565b3480156108ec57600080fd5b506109006108fb3660046159d5565b61269c565b6040516103f0969594939291906160bd565b34801561091e57600080fd5b5061095f61092d3660046159d5565b6017602052600090815260409020805460018201546002830154600384015460049094015492939192909160ff169085565b6040805195865260208601949094529284019190915215156060830152608082015260a0016103f0565b34801561099557600080fd5b50600a546001600160a01b031661046b565b3480156109b357600080fd5b506109c76109c2366004615a56565b612c47565b6040516103f09493929190616130565b3480156109e357600080fd5b5061043e612f24565b3480156109f857600080fd5b506104a3610a07366004616195565b612f33565b348015610a1857600080fd5b506104a3610a273660046161ee565b612f3e565b348015610a3857600080fd5b506104a3610a473660046159d5565b6134f9565b348015610a5857600080fd5b506104a3610a673660046162c0565b613575565b348015610a7857600080fd5b506104a3610a87366004615a34565b6136f0565b348015610a9857600080fd5b506103e66107d081565b348015610aae57600080fd5b506104a3610abd3660046163db565b613c1b565b348015610ace57600080fd5b5061046b7f000000000000000000000000000000000000000000000000000000000000000081565b348015610b0257600080fd5b506103e6600d5481565b348015610b1857600080fd5b50610b2c610b27366004615a34565b613c33565b6040516103f09392919061649a565b348015610b4757600080fd5b506103e661080081565b348015610b5d57600080fd5b5061043e610b6c3660046159d5565b613ead565b348015610b7d57600080fd5b506103e6610b8c3660046164cf565b613f57565b348015610b9d57600080fd5b506103e660105481565b348015610bb357600080fd5b5061046b7f000000000000000000000000000000000000000000000000000000000000000081565b348015610be757600080fd5b506103e6610bf6366004615a34565b601660209081526000928352604080842090915290825290205481565b348015610c1f57600080fd5b50610c33610c2e366004615a34565b6140e1565b6040516103f09796959493929190616570565b348015610c5257600080fd5b50610419610c613660046165ce565b61424a565b348015610c7257600080fd5b50610c86610c81366004615a34565b614278565b6040516103f09190616601565b348015610c9f57600080fd5b506104a3610cae366004615ff3565b614484565b348015610cbf57600080fd5b506103e6610cce366004616614565b600f60209081526000928352604080842090915290825290205481565b348015610cf757600080fd5b50610d0b610d06366004615a56565b6144bf565b6040516103f096959493929190616637565b348015610d2957600080fd5b5061043e610d38366004615a34565b614700565b60006001600160e01b0319821663780e9d6360e01b1480610d625750610d62826147b9565b92915050565b606060008054610d779061668f565b80601f0160208091040260200160405190810160405280929190818152602001828054610da39061668f565b8015610df05780601f10610dc557610100808354040283529160200191610df0565b820191906000526020600020905b815481529060010190602001808311610dd357829003601f168201915b5050505050905090565b6000610e0582614809565b506000828152600460205260409020546001600160a01b0316610d62565b610e2e828233614841565b5050565b601b6020528260005260406000206020528160005260406000208181548110610e5a57600080fd5b6000918252602090912060029091020180546001909101549093509150839050565b33610e868461484e565b6001600160a01b031614610ead5760405163daffd8a560e01b815260040160405180910390fd5b610100811115610ed0576040516313f04adb60e01b815260040160405180910390fd5b60008381526014602052604081208054610ee99061668f565b80601f0160208091040260200160405190810160405280929190818152602001828054610f159061668f565b8015610f625780601f10610f3757610100808354040283529160200191610f62565b820191906000526020600020905b815481529060010190602001808311610f4557829003601f168201915b50505050509050600081511115610f9d57600084815260156020908152604082208054600181018255908352912001610f9b8282616724565b505b610fdd8484848080601f01602080910402602001604051908101604052809392919081815260200183838082843760009201919091525061486992505050565b336001600160a01b0316847f121742bae49dddcfbb9763fd1170f0dbc15b13707126182671611bbeeeae7cd883868660405161101b93929190616806565b60405180910390a350505050565b6001600160a01b03821661105857604051633250574960e11b8152600060048201526024015b60405180910390fd5b6000611065838333614881565b9050836001600160a01b0316816001600160a01b0316146110b3576040516364283d7b60e01b81526001600160a01b038086166004830152602482018490528216604482015260640161104f565b50505050565b601360209081526000918252604091829020825160c08101845281548152600182015460ff80821615159483019490945261010080820461ffff168387015263010000008204851660608401526401000000008204851660808401526501000000000090910490931660a08201528351928301909352600281018054919291829082906111459061668f565b80601f01602080910402602001604051908101604052809291908181526020018280546111719061668f565b80156111be5780601f10611193576101008083540402835291602001916111be565b820191906000526020600020905b8154815290600101906020018083116111a157829003601f168201915b505050505081526020016001820180546111d79061668f565b80601f01602080910402602001604051908101604052809291908181526020018280546112039061668f565b80156112505780601f1061122557610100808354040283529160200191611250565b820191906000526020600020905b81548152906001019060200180831161123357829003601f168201915b5050509183525050600282015460ff8082161515602084015261ffff6101008304166040840152630100000082048116606084015264010000000090910416608082015260038201805460a0909201916112a99061668f565b80601f01602080910402602001604051908101604052809291908181526020018280546112d59061668f565b80156113225780601f106112f757610100808354040283529160200191611322565b820191906000526020600020905b81548152906001019060200180831161130557829003601f168201915b5050505050815260200160048201805461133b9061668f565b80601f01602080910402602001604051908101604052809291908181526020018280546113679061668f565b80156113b45780601f10611389576101008083540402835291602001916113b4565b820191906000526020600020905b81548152906001019060200180831161139757829003601f168201915b505050505081525050905082565b60606000808086816113d38261484e565b6001600160a01b0316036113fa576040516307ed98ed60e31b815260040160405180910390fd5b60008881526017602052604081208054955090611418868a8a614958565b90508060400151600003611472576040805160008082526020820190925290611457565b6114446157f8565b81526020019060019003908161143c5790505b508682608001518360600151965096509650965050506116bc565b80604001516001600160401b0381111561148e5761148e616395565b6040519080825280602002602001820160405280156114c757816020015b6114b46157f8565b8152602001906001900390816114ac5790505b50965060005b81604001518110156116a95760008b815260186020526040812083519091906114f7908490616842565b81526020019081526020016000206040518060e001604052908160008201548152602001600182015481526020016002820180546115349061668f565b80601f01602080910402602001604051908101604052809291908181526020018280546115609061668f565b80156115ad5780601f10611582576101008083540402835291602001916115ad565b820191906000526020600020905b81548152906001019060200180831161159057829003601f168201915b50505091835250506003820154602082015260048201546001600160a01b0381166040830152600160a01b900460ff1660608201526005820180546080909201916115f79061668f565b80601f01602080910402602001604051908101604052809291908181526020018280546116239061668f565b80156116705780601f1061164557610100808354040283529160200191611670565b820191906000526020600020905b81548152906001019060200180831161165357829003601f168201915b50505050508152505088828151811061168b5761168b616855565b602002602001018190525080806116a19061686b565b9150506114cd565b5060808101516060909101519094509250505b5093509350935093565b60006116d18361249f565b82106117025760405163295f44f760e21b81526001600160a01b03841660048201526024810183905260440161104f565b506001600160a01b03919091166000908152600660209081526040808320938352929052205490565b60008381526015602052604081208054606092909181908161174e858989614958565b905080604001516000036117a2576040805160008082526020820190925290611787565b60608152602001906001900390816117725790505b508582608001518360600151955095509550955050506118f8565b80604001516001600160401b038111156117be576117be616395565b6040519080825280602002602001820160405280156117f157816020015b60608152602001906001900390816117dc5790505b50955060005b81604001518110156118e55781518390611812908390616842565b8154811061182257611822616855565b9060005260206000200180546118379061668f565b80601f01602080910402602001604051908101604052809291908181526020018280546118639061668f565b80156118b05780601f10611885576101008083540402835291602001916118b0565b820191906000526020600020905b81548152906001019060200180831161189357829003601f168201915b50505050508782815181106118c7576118c7616855565b602002602001018190525080806118dd9061686b565b9150506117f7565b5060808101516060909101519093509150505b93509350935093565b61191c83838360405180602001604052806000815250613c1b565b505050565b600061192c60085490565b82106119555760405163295f44f760e21b8152600060048201526024810183905260440161104f565b6008828154811061196857611968616855565b90600052602060002001549050919050565b606080600080808861199f5760405163e5d242ed60e01b815260040160405180910390fd5b6000898152600c60205260409020548811156119ce57604051630dd4272d60e41b815260040160405180910390fd5b6000898152601b602090815260408083208b8452909152812080549450906119f7858a8a614958565b90508060400151600003611a38576040805160008082526020820190815281830190925260808301516060909301519098509096509093509150611b759050565b80604001516001600160401b03811115611a5457611a54616395565b604051908082528060200260200182016040528015611a7d578160200160208202803683370190505b50965080604001516001600160401b03811115611a9c57611a9c616395565b604051908082528060200260200182016040528015611ac5578160200160208202803683370190505b50955060005b8160400151811015611b6257600083828460000151611aea9190616842565b81548110611afa57611afa616855565b906000526020600020906002020190508060000154898381518110611b2157611b21616855565b6020026020010181815250508060010154888381518110611b4457611b44616855565b60209081029190910101525080611b5a8161686b565b915050611acb565b5060808101516060909101519093509150505b945094509450945094565b611b88614a58565b33611b928961484e565b6001600160a01b031614611bb95760405163daffd8a560e01b815260040160405180910390fd5b831580611bc7575061080084115b15611be557604051630ef9fbf360e21b815260040160405180910390fd5b6000888152601760205260409020600381015460ff1615611c1957604051631fcb6b9160e01b815260040160405180910390fd5b80548814611c3a57604051637df0b86160e01b815260040160405180910390fd5b6000611c7b87878080601f016020809104026020016040519081016040528093929190818152602001838380828437600092019190915250614a8292505050565b90508215801590611c8c5750828114155b15611caa5760405163016c02f160e61b815260040160405180910390fd5b610100841115611ccd57604051630601a0fb60e51b815260040160405180910390fd5b60008a81526018602090815260408083208c845290915290208981556001810182905560028101611cff888a83616884565b504260038201556004810180546001600160a81b0319163360ff60a01b191617600160a01b60ff8c160217905560058101611d3b868883616884565b508254611d49906001616842565b83554260028401556004830154611d61908890616842565b6004840155600183015460408051602081019290925281018b905260608101839052608001604051602081830303815290604052805190602001208360010181905550336001600160a01b03168a8c7fc986c8203b7382f6ec9faf400a0793cbeb1612afb4dfe81fc13c1b04a310aea7858c8c90508e8c8c604051611dea95949392919061693d565b60405180910390a4505050611dff6001600b55565b5050505050505050565b6000610d6282614809565b611e1c614a58565b858581611e3c5760405163e5d242ed60e01b815260040160405180910390fd5b801580611e5657506000828152600c602052604090205481115b15611e7457604051630dd4272d60e41b815260040160405180910390fd5b8515801590611e8257508386145b15611ea05760405163591c836760e01b815260040160405180910390fd5b6000888152600c60205260408120611eb960018a616971565b81548110611ec957611ec9616855565b6000918252602090912060099091020160068101549091506001600160a01b03163314611f0957604051636ace69ed60e11b815260040160405180910390fd5b60008982600101548360020154846004015485600501548660070187600801604051602001611f3e9796959493929190616a01565b60408051601f19818403018152919052805160209091012090506000881561206357600183015415611f835760405163299cda3d60e01b815260040160405180910390fd5b8a8903611fa35760405163591c836760e01b815260040160405180910390fd5b600283015415801590611fb95750826002015489145b15611fd75760405163591c836760e01b815260040160405180910390fd5b6000898152600c602052604090205488111561200657604051631f9510eb60e01b815260040160405180910390fd5b506001808301899055600483018890556000898152601b602090815260408083208b8452825280832081518083019092528e82528183018e8152815480870183559185529290932090516002909302019182555190820155612082565b87156120825760405163591c836760e01b815260040160405180910390fd5b861561218d576002830154156120ab57604051633517ad3f60e21b815260040160405180910390fd5b8a87036120cb5760405163591c836760e01b815260040160405180910390fd5b6001830154158015906120e15750826001015487145b156120ff5760405163591c836760e01b815260040160405180910390fd5b6000878152600c602052604090205486111561212e5760405163782ce69f60e01b815260040160405180910390fd5b506002808301879055600583018690556000878152601b60209081526040808320898452825280832081518083019092528e82528183018e815281546001818101845592865293909420915192909402019081559051908201556121ac565b85156121ac5760405163591c836760e01b815260040160405180910390fd5b806121ca5760405163672dd10560e11b815260040160405180910390fd5b60008b846001015485600201548660040154876005015488600701896008016040516020016121ff9796959493929190616a01565b60405160208183030381529060405280519060200120905080831461228e5760008c8152600e6020908152604080832084845290915290205460ff1615612259576040516314396b6760e11b815260040160405180910390fd5b60008c8152600e60209081526040808320868452909152808220805460ff199081169091558383529120805490911660011790555b600184015460048501546002860154600587015460408051948552602085019390935291830152606082015233908c908e907fb177ed6564d95ed4e84ea8ecc0ad05956dbbd41ddf8d1e79f79254baa63ec46f9060800160405180910390a45050505050506122fd6001600b55565b505050505050565b600c602052816000526040600020818154811061232157600080fd5b600091825260209091206009909102018054600182015460028301546003840154600485015460058601546006870154600788018054979a5095985093969295919490936001600160a01b03811693600160a01b9091046001600160601b03169290919061238e9061668f565b80601f01602080910402602001604051908101604052809291908181526020018280546123ba9061668f565b80156124075780601f106123dc57610100808354040283529160200191612407565b820191906000526020600020905b8154815290600101906020018083116123ea57829003601f168201915b50505050509080600801805461241c9061668f565b80601f01602080910402602001604051908101604052809291908181526020018280546124489061668f565b80156124955780601f1061246a57610100808354040283529160200191612495565b820191906000526020600020905b81548152906001019060200180831161247857829003601f168201915b505050505090508a565b60006001600160a01b0382166124cb576040516322718ad960e21b81526000600482015260240161104f565b506001600160a01b031660009081526003602052604090205490565b6124ef614ab2565b6124f96000614adf565b565b6040805160a0810182526000808252602082018190529181018290526060810182905260808101919091528160006125328261484e565b6001600160a01b031603612559576040516307ed98ed60e31b815260040160405180910390fd5b5050600090815260176020908152604091829020825160a08101845281548152600182015492810192909252600281015492820192909252600382015460ff1615156060820152600490910154608082015290565b336125b88261484e565b6001600160a01b0316146125df5760405163daffd8a560e01b815260040160405180910390fd5b6000818152601760205260409020600381015460ff161561261357604051631fcb6b9160e01b815260040160405180910390fd5b805460000361263557604051637dc66bf560e11b815260040160405180910390fd5b60038101805460ff19166001908117909155426002830155815490820154604051339285927f896066547269dcd0db6295ca6c7f14f927d692103e47c7615259469b74bc7b5d92612690929190918252602082015260400190565b60405180910390a35050565b6000806126a7615833565b6126af615889565b60006060816126bd8861484e565b6001600160a01b0316036126e4576040516307ed98ed60e31b815260040160405180910390fd5b600087815260116020526040902054955085612713576040516307ed98ed60e31b815260040160405180910390fd5b600087815260126020526040812054955061272f600187616971565b6000888152600c602052604090208054919250908290811061275357612753616855565b600091825260209182902060408051610140810182526009909302909101805483526001810154938301939093526002830154908201526003820154606082015260048201546080820152600582015460a082015260068201546001600160a01b03811660c08301526001600160601b03600160a01b9091041660e0820152600782018054919291610100840191906127eb9061668f565b80601f01602080910402602001604051908101604052809291908181526020018280546128179061668f565b80156128645780601f1061283957610100808354040283529160200191612864565b820191906000526020600020905b81548152906001019060200180831161284757829003601f168201915b5050505050815260200160088201805461287d9061668f565b80601f01602080910402602001604051908101604052809291908181526020018280546128a99061668f565b80156128f65780601f106128cb576101008083540402835291602001916128f6565b820191906000526020600020905b8154815290600101906020018083116128d957829003601f168201915b50505091909252505050600089815260136020908152604091829020825161010080820185528254828601908152600184015460ff8082161515606086015261ffff84830416608086015263010000008204811660a08601526401000000008204811660c0860152650100000000009091041660e084015282528451908101909452600282018054959a50909491939285019291829082906129979061668f565b80601f01602080910402602001604051908101604052809291908181526020018280546129c39061668f565b8015612a105780601f106129e557610100808354040283529160200191612a10565b820191906000526020600020905b8154815290600101906020018083116129f357829003601f168201915b50505050508152602001600182018054612a299061668f565b80601f0160208091040260200160405190810160405280929190818152602001828054612a559061668f565b8015612aa25780601f10612a7757610100808354040283529160200191612aa2565b820191906000526020600020905b815481529060010190602001808311612a8557829003601f168201915b5050509183525050600282015460ff8082161515602084015261ffff6101008304166040840152630100000082048116606084015264010000000090910416608082015260038201805460a090920191612afb9061668f565b80601f0160208091040260200160405190810160405280929190818152602001828054612b279061668f565b8015612b745780601f10612b4957610100808354040283529160200191612b74565b820191906000526020600020905b815481529060010190602001808311612b5757829003601f168201915b50505050508152602001600482018054612b8d9061668f565b80601f0160208091040260200160405190810160405280929190818152602001828054612bb99061668f565b8015612c065780601f10612bdb57610100808354040283529160200191612c06565b820191906000526020600020905b815481529060010190602001808311612be957829003601f168201915b5050509190925250505090525060008881526019602090815260408083208584529091529020549094509250612c3b88613ead565b91505091939550919395565b6000838152600c6020526040812080546060929091819081612c6a858989614958565b90508060400151600003612cc2576040805160008082526020820190925290611787565b612c96615833565b815260200190600190039081612c8e575050608082015160609092015190965090935091506118f89050565b80604001516001600160401b03811115612cde57612cde616395565b604051908082528060200260200182016040528015612d1757816020015b612d04615833565b815260200190600190039081612cfc5790505b50955060005b81604001518110156118e55781518390612d38908390616842565b81548110612d4857612d48616855565b600091825260209182902060408051610140810182526009909302909101805483526001810154938301939093526002830154908201526003820154606082015260048201546080820152600582015460a082015260068201546001600160a01b03811660c08301526001600160601b03600160a01b9091041660e082015260078201805491929161010084019190612de09061668f565b80601f0160208091040260200160405190810160405280929190818152602001828054612e0c9061668f565b8015612e595780601f10612e2e57610100808354040283529160200191612e59565b820191906000526020600020905b815481529060010190602001808311612e3c57829003601f168201915b50505050508152602001600882018054612e729061668f565b80601f0160208091040260200160405190810160405280929190818152602001828054612e9e9061668f565b8015612eeb5780601f10612ec057610100808354040283529160200191612eeb565b820191906000526020600020905b815481529060010190602001808311612ece57829003601f168201915b505050505081525050878281518110612f0657612f06616855565b60200260200101819052508080612f1c9061686b565b915050612d1d565b606060018054610d779061668f565b610e2e338383614b31565b612f46614a58565b848481612f665760405163e5d242ed60e01b815260040160405180910390fd5b801580612f8057506000828152600c602052604090205481115b15612f9e57604051630dd4272d60e41b815260040160405180910390fd5b60808801353314612fc25760405163bd8cc73160e01b815260040160405180910390fd5b600087815260166020908152604080832089845290915290205415612ffa57604051634028e5e560e11b815260040160405180910390fd5b6000878152600f6020908152604080832033845290915290205486146130335760405163786bb09f60e11b815260040160405180910390fd5b610100841115613056576040516313f04adb60e01b815260040160405180910390fd5b61306360c0840184616a44565b61306d9080616a64565b905060000361308f57604051635f895cef60e11b815260040160405180910390fd5b61010061309f60c0850185616a44565b6130a99080616a64565b905011156130ca57604051635f895cef60e11b815260040160405180910390fd5b6101006130da60c0850185616a44565b6130e89060e0810190616a64565b905011156131095760405163f283c51960e01b815260040160405180910390fd5b61010061311960c0850185616a44565b613127906020810190616a64565b90501115613148576040516367181a3960e11b815260040160405180910390fd5b61010061315860c0850185616a44565b6131669060c0810190616a64565b9050111561318757604051633769847160e01b815260040160405180910390fd5b600c61319660c0850185616a44565b6131a79060a0810190608001616aaa565b60ff1611156131c957604051630282898760e21b815260040160405180910390fd5b601f6131d860c0850185616a44565b6131e99060c081019060a001616aaa565b60ff16111561320b57604051638d177e8360e01b815260040160405180910390fd5b600061321f610b8c368690038601866164cf565b905087811461324157604051632f38f48f60e21b815260040160405180910390fd5b6040516334baeab960e01b81526001600160a01b037f000000000000000000000000000000000000000000000000000000000000000016906334baeab990613293908f908f908f908f90600401616aeb565b602060405180830381865afa1580156132b0573d6000803e3d6000fd5b505050506040513d601f19601f820116820180604052508101906132d49190616b1c565b6132f1576040516303b2487b60e11b815260040160405180910390fd5b60006133068a358b60015b6020020135614bd0565b90508435811461332957604051632f38f48f60e21b815260040160405180910390fd5b600061333b60408c01358c60036132fc565b9050600061339361334f60c0890189616a44565b6133599080616a64565b8080601f016020809104026020016040519081016040528093929190818152602001838380828437600092019190915250614a8292505050565b90508181146133b557604051632f38f48f60e21b815260040160405180910390fd5b60006010600081546133c69061686b565b91905081905590508b60116000838152602001908152602001600020819055508a601260008381526020019081526020016000208190555080601660008e815260200190815260200160002060008d815260200190815260200160002081905550876013600083815260200190815260200160002081816134479190616d19565b90505061348a818b8b8080601f01602080910402602001604051908101604052809392919081815260200183838082843760009201919091525061486992505050565b6134943382614c10565b336001600160a01b0316818d7fbce71c21e84db5e7dca78ea57ad63b6c66f74f74efc25e33592370ecf39e093b8e8e8e426040516134d59493929190616e02565b60405180910390a4505050505050506134ee6001600b55565b505050505050505050565b613501614ab2565b6107d08111156135245760405163499fddb160e01b815260040160405180910390fd5b601a54818103613532575050565b601a82905560408051828152602081018490527ffa7ce4b1b3c9db75cae1c9e74a97c900b9377a24cc2ac49f55c7466a1404c5e0910160405180910390a1505b50565b61357d614a58565b60c087013533146135a15760405163bd8cc73160e01b815260040160405180910390fd5b60405163c894e75760e01b81526001600160a01b037f0000000000000000000000000000000000000000000000000000000000000000169063c894e757906135f3908d908d908d908d90600401616e2d565b602060405180830381865afa158015613610573d6000803e3d6000fd5b505050506040513d601f19601f820116820180604052508101906136349190616b1c565b613651576040516303b2487b60e11b815260040160405180910390fd5b600061366861366389358a60016132fc565b614c2a565b9050600061367f61366360408b01358b60036132fc565b9050600061369661366360808c01358c60056132fc565b604051909150339084907f3015fe19dc9f8f0d942de39092410a57589dd94d2c9134719335fe04e3695eca90600090a36136d78383838c8c8c8c8c8c614c4a565b5050506136e46001600b55565b50505050505050505050565b6136f8614a58565b8181816137185760405163e5d242ed60e01b815260040160405180910390fd5b80158061373257506000828152600c602052604090205481115b1561375057604051630dd4272d60e41b815260040160405180910390fd5b6000848152600f6020908152604080832033845290915290205483810361378a576040516354d92fcb60e01b815260040160405180910390fd5b6000613797600186616971565b905060007f00000000000000000000000000000000000000000000000000000000000000006001600160a01b0316636bf90c716040518163ffffffff1660e01b8152600401602060405180830381865afa1580156137f9573d6000803e3d6000fd5b505050506040513d601f19601f8201168201806040525081019061381d9190616e5e565b9050600080808515613882576000613836600188616971565b60008c8152601960209081526040808320848452909152902054909150801561387f57613864600182616971565b60008d81526019602090815260408083208684529091529020555b50505b60008a815260196020908152604080832088845290915281208054600192906138ac908490616842565b909155505060008a8152600f6020908152604080832033845290915290208990558315613b965760008a8152600c6020526040812080547f00000000000000000000000000000000000000000000000000000000000000009291908890811061391757613917616855565b906000526020600020906009020190506000601660008e815260200190815260200160002060008d8152602001908152602001600020549050806000146139935760006139638261484e565b90506001600160a01b0381161561397c5780965061398d565b60068301546001600160a01b031696505b506139a4565b60068201546001600160a01b031695505b6000612710601a54896139b79190616e77565b6139c19190616e8e565b90506139cd8189616971565b94508415613a74576040516323b872dd60e01b81523360048201526001600160a01b03888116602483015260448201879052600091908616906323b872dd906064016020604051808303816000875af1158015613a2e573d6000803e3d6000fd5b505050506040513d601f19601f82011682018060405250810190613a529190616b1c565b905080613a7257604051635da1e97760e11b815260040160405180910390fd5b505b8015613b9157600a546001600160a01b0316955085613af25760405163079cc67960e41b8152336004820152602481018290526001600160a01b038516906379cc679090604401600060405180830381600087803b158015613ad557600080fd5b505af1158015613ae9573d6000803e3d6000fd5b50505050613b91565b6040516323b872dd60e01b81523360048201526001600160a01b03878116602483015260448201839052600091908616906323b872dd906064016020604051808303816000875af1158015613b4b573d6000803e3d6000fd5b505050506040513d601f19601f82011682018060405250810190613b6f9190616b1c565b905080613b8f57604051635da1e97760e11b815260040160405180910390fd5b505b505050505b338a7fd797cb7be92b1c65367745105ff0f8f7f0752feac9ef8841c23b1edfa31e2c128b868587613bc7828c616971565b604080519586526001600160a01b0394851660208701528501929092529091166060830152608082015260a081018890524260c082015260e00160405180910390a35050505050505050610e2e6001600b55565b613c26848484611029565b6110b33385858585615211565b613c3b615833565b600080848481613c5e5760405163e5d242ed60e01b815260040160405180910390fd5b801580613c7857506000828152600c602052604090205481115b15613c9657604051630dd4272d60e41b815260040160405180910390fd5b6000613ca3600188616971565b6000898152600c6020526040902080549192509082908110613cc757613cc7616855565b600091825260209182902060408051610140810182526009909302909101805483526001810154938301939093526002830154908201526003820154606082015260048201546080820152600582015460a082015260068201546001600160a01b03811660c08301526001600160601b03600160a01b9091041660e082015260078201805491929161010084019190613d5f9061668f565b80601f0160208091040260200160405190810160405280929190818152602001828054613d8b9061668f565b8015613dd85780601f10613dad57610100808354040283529160200191613dd8565b820191906000526020600020905b815481529060010190602001808311613dbb57829003601f168201915b50505050508152602001600882018054613df19061668f565b80601f0160208091040260200160405190810160405280929190818152602001828054613e1d9061668f565b8015613e6a5780601f10613e3f57610100808354040283529160200191613e6a565b820191906000526020600020905b815481529060010190602001808311613e4d57829003601f168201915b505050919092525050506000898152601960209081526040808320948352938152838220549a825260168152838220998252989098529620549597945050505050565b6060613eb882614809565b5060008281526014602052604090208054613ed29061668f565b80601f0160208091040260200160405190810160405280929190818152602001828054613efe9061668f565b8015613f4b5780601f10613f2057610100808354040283529160200191613f4b565b820191906000526020600020905b815481529060010190602001808311613f2e57829003601f168201915b50505050509050919050565b8051600090613f7957604051635f895cef60e11b815260040160405180910390fd5b600c826060015160ff161115613fa2576040516348c5148960e11b815260040160405180910390fd5b601f826080015160ff161115613fcb576040516309eabf7d60e21b815260040160405180910390fd5b81516020830151608082901c916fffffffffffffffffffffffffffffffff1690600090613ff9576000613ffc565b60015b60ff1660018660a0015160ff16901b6008876080015160ff16901b6010886060015160ff16901b6018896040015161ffff16901b17171717905061403e615921565b838152602081018390526040808201839052516320cf0a3760e01b815260009073__$fc5a2451f3e054f75c2faf9b3818033d8b$__906320cf0a3790614088908590600401616eb0565b602060405180830381865af41580156140a5573d6000803e3d6000fd5b505050506040513d601f19601f820116820180604052508101906140c99190616e5e565b9050806140d581614c2a565b98975050505050505050565b6018602090815260009283526040808420909152908252902080546001820154600283018054929391926141149061668f565b80601f01602080910402602001604051908101604052809291908181526020018280546141409061668f565b801561418d5780601f106141625761010080835404028352916020019161418d565b820191906000526020600020905b81548152906001019060200180831161417057829003601f168201915b5050505060038301546004840154600585018054949592946001600160a01b0383169450600160a01b90920460ff1692916141c79061668f565b80601f01602080910402602001604051908101604052809291908181526020018280546141f39061668f565b80156142405780601f1061421557610100808354040283529160200191614240565b820191906000526020600020905b81548152906001019060200180831161422357829003601f168201915b5050505050905087565b6001600160a01b03918216600090815260056020908152604080832093909416825291909152205460ff1690565b6142806157f8565b82600061428c8261484e565b6001600160a01b0316036142b3576040516307ed98ed60e31b815260040160405180910390fd5b6000848152601760205260409020805484106142e257604051637df0b86160e01b815260040160405180910390fd5b6018600086815260200190815260200160002060008581526020019081526020016000206040518060e001604052908160008201548152602001600182015481526020016002820180546143359061668f565b80601f01602080910402602001604051908101604052809291908181526020018280546143619061668f565b80156143ae5780601f10614383576101008083540402835291602001916143ae565b820191906000526020600020905b81548152906001019060200180831161439157829003601f168201915b50505091835250506003820154602082015260048201546001600160a01b0381166040830152600160a01b900460ff1660608201526005820180546080909201916143f89061668f565b80601f01602080910402602001604051908101604052809291908181526020018280546144249061668f565b80156144715780601f1061444657610100808354040283529160200191614471565b820191906000526020600020905b81548152906001019060200180831161445457829003601f168201915b5050505050815250509250505092915050565b61448c614ab2565b6001600160a01b0381166144b657604051631e4fbdf760e01b81526000600482015260240161104f565b61357281614adf565b6000838152600c60205260408120546060918291829180806144e2848a8a614958565b9050806040015160000361452b576040805160008082526020820181815282840191825260608084019094526080850151949093015191995091975090955090925090506146f4565b80604001516001600160401b0381111561454757614547616395565b604051908082528060200260200182016040528015614570578160200160208202803683370190505b50965080604001516001600160401b0381111561458f5761458f616395565b6040519080825280602002602001820160405280156145b8578160200160208202803683370190505b50955080604001516001600160401b038111156145d7576145d7616395565b604051908082528060200260200182016040528015614600578160200160208202803683370190505b50945060005b81604001518110156146e2578151600090614622908390616842565b905061462f816001616842565b89838151811061464157614641616855565b60209081029190910181019190915260008d81526019825260408082208483529092522054885189908490811061467a5761467a616855565b60209081029190910181019190915260008d8152601690915260408120906146a3836001616842565b8152602001908152602001600020548783815181106146c4576146c4616855565b602090810291909101015250806146da8161686b565b915050614606565b50608081015160609091015190925090505b93975093979195509350565b6015602052816000526040600020818154811061471c57600080fd5b906000526020600020016000915091505080546147389061668f565b80601f01602080910402602001604051908101604052809291908181526020018280546147649061668f565b80156147b15780601f10614786576101008083540402835291602001916147b1565b820191906000526020600020905b81548152906001019060200180831161479457829003601f168201915b505050505081565b60006001600160e01b031982166380ac58cd60e01b14806147ea57506001600160e01b03198216635b5e139f60e01b145b80610d6257506301ffc9a760e01b6001600160e01b0319831614610d62565b6000806148158361484e565b90506001600160a01b038116610d6257604051637e27328960e01b81526004810184905260240161104f565b61191c838383600161533a565b6000908152600260205260409020546001600160a01b031690565b600082815260146020526040902061191c8282616724565b60008061488f858585615440565b90506001600160a01b0381166148ec576148e784600880546000838152600960205260408120829055600182018355919091527ff3f7a9fe364faab93b216da50a3214154f22a0a2b415b23a84c8169e8b636ee30155565b61490f565b846001600160a01b0316816001600160a01b03161461490f5761490f8185615534565b6001600160a01b03851661492b57614926846155b5565b61494e565b846001600160a01b0316816001600160a01b03161461494e5761494e8585615664565b90505b9392505050565b61498c6040518060a00160405280600081526020016000815260200160008152602001600081526020016000151581525090565b60648211156149ae57604051630327a73960e61b815260040160405180910390fd5b8115806149bb5750838310155b156149ff576040518060a0016040528084815260200184815260200160008152602001858510156149ec57846149ee565b855b815260006020909101529050614951565b6000614a0b8385616842565b905084811115614a185750835b6040518060a001604052808581526020018281526020018583614a3b9190616971565b815260200182815260200186831015158152509150509392505050565b6002600b5403614a7b57604051633ee5aeb560e01b815260040160405180910390fd5b6002600b55565b600081604051602001614a959190616ee1565b604051602081830303815290604052805190602001209050919050565b600a546001600160a01b031633146124f95760405163118cdaa760e01b815233600482015260240161104f565b600a80546001600160a01b038381166001600160a01b0319831681179093556040519116919082907f8be0079c531659141344cd1fd0a4f28419497f9722a3daafe3b4186f6b6457e090600090a35050565b6001600160a01b038216614b6357604051630b61174360e31b81526001600160a01b038316600482015260240161104f565b6001600160a01b03838116600081815260056020908152604080832094871680845294825291829020805460ff191686151590811790915591519182527f17307eab39ab6107e8899845ad3d59bd9653f200f220920489ca2b5937696c31910160405180910390a3505050565b6000608083901c151580614be75750608082901c15155b15614c05576040516303b2487b60e11b815260040160405180910390fd5b5060809190911b1790565b610e2e8282604051806020016040528060008152506156b4565b600081614c3957506000919050565b604080516020810184905201614a95565b88614c685760405163e5d242ed60e01b815260040160405180910390fd5b88881480614c7557508887145b15614c935760405163591c836760e01b815260040160405180910390fd5b8715801590614ca157508688145b15614cbf5760405163591c836760e01b815260040160405180910390fd5b87158015614ccc57508515155b15614cea57604051631f9510eb60e01b815260040160405180910390fd5b86158015614cf757508415155b15614d155760405163782ce69f60e01b815260040160405180910390fd5b6000888152600c6020526040902054861115614d4457604051631f9510eb60e01b815260040160405180910390fd5b6000878152600c6020526040902054851115614d735760405163782ce69f60e01b815260040160405180910390fd5b610100831115614d9657604051635fab396360e11b815260040160405180910390fd5b610100811115614db957604051630601a0fb60e51b815260040160405180910390fd5b6000898989898989898989604051602001614ddc99989796959493929190616ef3565b60408051601f19818403018152918152815160209283012060008d8152600e845282812082825290935291205490915060ff1615614e2d576040516314396b6760e11b815260040160405180910390fd5b60008a8152600e602090815260408083208484528252808320805460ff191660011790558c8352600c82528083208151610140810183528e81528084018e90528083018d90526060810194909452608084018b905260a084018a90523360c08501526001600160601b03421660e08501528151601f89018490048402810184019092528782529291610100830191908990899081908401838280828437600092019190915250505090825250604080516020601f8801819004810282018101909252868152918101919087908790819084018382808284376000920182905250939094525050835460018181018655948252602091829020845160099092020190815590830151938101939093555060408101516002830155606081015160038301556080810151600483015560a0810151600583015560c081015160e08201516001600160601b0316600160a01b026001600160a01b039091161760068301556101008101519091906007820190614fa69082616724565b506101208201516008820190614fbc9082616724565b50505060008a8152600c602052604090208054908190614fdd600183616971565b81548110614fed57614fed616855565b600091825260209091206003600990920201015589156150545760008a8152601b602090815260408083208b8452825280832081518083019092528e8252818301858152815460018181018455928652939094209151600290930290910191825591519101555b88156150a7576000898152601b602090815260408083208a8452825280832081518083019092528e8252818301858152815460018181018455928652939094209151600290930290910191825591519101555b806001036150c557600d80549060006150bf8361686b565b91905055505b336001600160a01b0316818c7ff24ca8fe8e48960e559267341f81e7b0f07746d1e98c729930fe251bd2875484428e8d8f8e8e8e60405161510c9796959493929190616f48565b60405180910390a4891580159061512257508815155b15615204576040516335313c2160e11b81523360048201526000907f00000000000000000000000000000000000000000000000000000000000000006001600160a01b031690636a627842906024016020604051808303816000875af1158015615190573d6000803e3d6000fd5b505050506040513d601f19601f820116820180604052508101906151b49190616e5e565b9050801561520257818c336001600160a01b03167fdefc43c3e9b037326c59d7c3f29c0b6b5c94a6fbfcced006b763e74a3115da6d846040516151f991815260200190565b60405180910390a45b505b5050505050505050505050565b6001600160a01b0383163b1561533357604051630a85bd0160e11b81526001600160a01b0384169063150b7a0290615253908890889087908790600401616f7a565b6020604051808303816000875af192505050801561528e575060408051601f3d908101601f1916820190925261528b91810190616fad565b60015b6152f7573d8080156152bc576040519150601f19603f3d011682016040523d82523d6000602084013e6152c1565b606091505b5080516000036152ef57604051633250574960e11b81526001600160a01b038516600482015260240161104f565b805160208201fd5b6001600160e01b03198116630a85bd0160e11b146122fd57604051633250574960e11b81526001600160a01b038516600482015260240161104f565b5050505050565b808061534e57506001600160a01b03821615155b1561541057600061535e84614809565b90506001600160a01b0383161580159061538a5750826001600160a01b0316816001600160a01b031614155b801561539d575061539b818461424a565b155b156153c65760405163a9fbf51f60e01b81526001600160a01b038416600482015260240161104f565b811561540e5783856001600160a01b0316826001600160a01b03167f8c5be1e5ebec7d5bd14f71427d1e84f3dd0314c0f7b2291e5b200ac8c7c3b92560405160405180910390a45b505b5050600090815260046020526040902080546001600160a01b0319166001600160a01b0392909216919091179055565b60008061544c8461484e565b90506001600160a01b03831615615468576154688184866156cc565b6001600160a01b038116156154a65761548560008560008061533a565b6001600160a01b038116600090815260036020526040902080546000190190555b6001600160a01b038516156154d5576001600160a01b0385166000908152600360205260409020805460010190555b60008481526002602052604080822080546001600160a01b0319166001600160a01b0389811691821790925591518793918516917fddf252ad1be2c89b69c2b068fc378daa952ba7f163c4a11628f55a4df523b3ef91a4949350505050565b600061553f8361249f565b6000838152600760209081526040808320546001600160a01b038816845260069092529091209192509081831461559657600083815260208281526040808320548584528184208190558352600790915290208290555b6000938452600760209081526040808620869055938552525081205550565b6008546000906155c790600190616971565b600083815260096020526040812054600880549394509092849081106155ef576155ef616855565b90600052602060002001549050806008838154811061561057615610616855565b600091825260208083209091019290925582815260099091526040808220849055858252812055600880548061564857615648616fca565b6001900381819060005260206000200160009055905550505050565b600060016156718461249f565b61567b9190616971565b6001600160a01b039093166000908152600660209081526040808320868452825280832085905593825260079052919091209190915550565b6156be8383615730565b61191c336000858585615211565b6156d7838383615795565b61191c576001600160a01b03831661570557604051637e27328960e01b81526004810182905260240161104f565b60405163177e802f60e01b81526001600160a01b03831660048201526024810182905260440161104f565b6001600160a01b03821661575a57604051633250574960e11b81526000600482015260240161104f565b600061576883836000614881565b90506001600160a01b0381161561191c576040516339e3563760e11b81526000600482015260240161104f565b60006001600160a01b0383161580159061494e5750826001600160a01b0316846001600160a01b031614806157cf57506157cf848461424a565b8061494e5750506000908152600460205260409020546001600160a01b03908116911614919050565b6040805160e08101825260008082526020820181905260609282018390528282018190526080820181905260a082015260c081019190915290565b604080516101408101825260008082526020820181905291810182905260608082018390526080820183905260a0820183905260c0820183905260e0820192909252610100810182905261012081019190915290565b60408051610100810182526000918101828152606082018390526080820183905260a0820183905260c0820183905260e0820192909252908190815260200161591c6040518061010001604052806060815260200160608152602001600015158152602001600061ffff168152602001600060ff168152602001600060ff16815260200160608152602001606081525090565b905290565b60405180606001604052806003906020820280368337509192915050565b6001600160e01b03198116811461357257600080fd5b60006020828403121561596757600080fd5b81356149518161593f565b60005b8381101561598d578181015183820152602001615975565b50506000910152565b600081518084526159ae816020860160208601615972565b601f01601f19169290920160200192915050565b6020815260006149516020830184615996565b6000602082840312156159e757600080fd5b5035919050565b80356001600160a01b0381168114615a0557600080fd5b919050565b60008060408385031215615a1d57600080fd5b615a26836159ee565b946020939093013593505050565b60008060408385031215615a4757600080fd5b50508035926020909101359150565b600080600060608486031215615a6b57600080fd5b505081359360208301359350604090920135919050565b60008083601f840112615a9457600080fd5b5081356001600160401b03811115615aab57600080fd5b602083019150836020828501011115615ac357600080fd5b9250929050565b600080600060408486031215615adf57600080fd5b8335925060208401356001600160401b03811115615afc57600080fd5b615b0886828701615a82565b9497909650939450505050565b600080600060608486031215615b2a57600080fd5b615b33846159ee565b9250615b41602085016159ee565b9150604084013590509250925092565b8051825260208101511515602083015261ffff604082015116604083015260ff606082015116606083015260ff608082015116608083015260ff60a08201511660a08301525050565b60006101008251818552615bb082860182615996565b91505060208301518482036020860152615bca8282615996565b9150506040830151615be0604086018215159052565b506060830151615bf6606086018261ffff169052565b506080830151615c0b608086018260ff169052565b5060a0830151615c2060a086018260ff169052565b5060c083015184820360c0860152615c388282615996565b91505060e083015184820360e0860152615c528282615996565b95945050505050565b615c658184615b51565b60e060c0820152600061494e60e0830184615b9a565b80518252602081015160208301526000604082015160e06040850152615ca460e0850182615996565b90506060830151606085015260018060a01b03608084015116608085015260ff60a08401511660a085015260c083015184820360c0860152615c528282615996565b6000608082016080835280875180835260a08501915060a08160051b86010192506020808a0160005b83811015615d3d57609f19888703018552615d2b868351615c7b565b95509382019390820190600101615d0f565b5050850197909752509315156040830152506060015292915050565b6000608082016080835280875180835260a08501915060a08160051b86010192506020808a0160005b83811015615d3d57609f19888703018552615d9e868351615996565b95509382019390820190600101615d82565b60008060008060808587031215615dc657600080fd5b5050823594602084013594506040840135936060013592509050565b600081518084526020808501945080840160005b83811015615e1257815187529582019590820190600101615df6565b509495945050505050565b60a0808252865190820181905260009060209060c0840190828a01845b82811015615e5657815184529284019290840190600101615e3a565b50505083810382850152615e6a8189615de2565b6040850197909752505050911515606083015260809091015292915050565b60ff8116811461357257600080fd5b60008060008060008060008060c0898b031215615eb457600080fd5b88359750602089013596506040890135615ecd81615e89565b955060608901356001600160401b0380821115615ee957600080fd5b615ef58c838d01615a82565b909750955060808b0135915080821115615f0e57600080fd5b50615f1b8b828c01615a82565b999c989b50969995989497949560a00135949350505050565b60008060008060008060c08789031215615f4d57600080fd5b505084359660208601359650604086013595606081013595506080810135945060a0013592509050565b60006101408c83528b60208401528a60408401528960608401528860808401528760a084015260018060a01b03871660c08401526001600160601b03861660e084015280610100840152615fcd81840186615996565b9050828103610120840152615fe28185615996565b9d9c50505050505050505050505050565b60006020828403121561600557600080fd5b614951826159ee565b6000610140825184526020830151602085015260408301516040850152606083015160608501526080830151608085015260a083015160a085015260c083015161606360c08601826001600160a01b03169052565b5060e083015161607e60e08601826001600160601b03169052565b5061010080840151828287015261609783870182615996565b9250505061012080840151858303828701526160b38382615996565b9695505050505050565b86815285602082015260c0604082015260006160dc60c083018761600e565b82810360608401526160ef818751615b51565b602086015160e060c083015261610860e0830182615b9a565b91505084608084015282810360a08401526161238185615996565b9998505050505050505050565b6000608082016080835280875180835260a08501915060a08160051b86010192506020808a0160005b83811015615d3d57609f1988870301855261617586835161600e565b95509382019390820190600101616159565b801515811461357257600080fd5b600080604083850312156161a857600080fd5b6161b1836159ee565b915060208301356161c181616187565b809150509250929050565b8060408101831015610d6257600080fd5b8060808101831015610d6257600080fd5b60008060008060008060008060006102208a8c03121561620d57600080fd5b6162178b8b6161cc565b98506162268b60408c016161dd565b97506162358b60c08c016161cc565b96506101a08a018b81111561624957600080fd5b6101008b0196503594506101c08a013593506101e08a01356001600160401b038082111561627657600080fd5b6162828d838e01615a82565b90955093506102008c013591508082111561629c57600080fd5b508a0160e0818d0312156162af57600080fd5b809150509295985092959850929598565b6000806000806000806000806000806102608b8d0312156162e057600080fd5b6162ea8c8c6161cc565b99506162f98c60408d016161dd565b98506163088c60c08d016161cc565b97506101e08b018c81111561631c57600080fd5b6101008c0197503595506102008b013594506102208b01356001600160401b038082111561634957600080fd5b6163558e838f01615a82565b90965094506102408d013591508082111561636f57600080fd5b5061637c8d828e01615a82565b915080935050809150509295989b9194979a5092959850565b634e487b7160e01b600052604160045260246000fd5b604051601f8201601f191681016001600160401b03811182821017156163d3576163d3616395565b604052919050565b600080600080608085870312156163f157600080fd5b6163fa856159ee565b935060206164098187016159ee565b93506040860135925060608601356001600160401b038082111561642c57600080fd5b818801915088601f83011261644057600080fd5b81358181111561645257616452616395565b616464601f8201601f191685016163ab565b9150808252898482850101111561647a57600080fd5b808484018584013760008482840101525080935050505092959194509250565b6060815260006164ad606083018661600e565b60208301949094525060400152919050565b61ffff8116811461357257600080fd5b600060c082840312156164e157600080fd5b60405160c081018181106001600160401b038211171561650357616503616395565b60405282358152602083013561651881616187565b6020820152604083013561652b816164bf565b6040820152606083013561653e81615e89565b6060820152608083013561655181615e89565b608082015260a083013561656481615e89565b60a08201529392505050565b87815286602082015260e06040820152600061658f60e0830188615996565b606083018790526001600160a01b038616608084015260ff851660a084015282810360c08401526165c08185615996565b9a9950505050505050505050565b600080604083850312156165e157600080fd5b6165ea836159ee565b91506165f8602084016159ee565b90509250929050565b6020815260006149516020830184615c7b565b6000806040838503121561662757600080fd5b823591506165f8602084016159ee565b60c08152600061664a60c0830189615de2565b828103602084015261665c8189615de2565b905082810360408401526166708188615de2565b60608401969096525050911515608083015260a0909101529392505050565b600181811c908216806166a357607f821691505b6020821081036166c357634e487b7160e01b600052602260045260246000fd5b50919050565b601f82111561191c57600081815260208120601f850160051c810160208610156166f05750805b601f850160051c820191505b818110156122fd578281556001016166fc565b600019600383901b1c191660019190911b1790565b81516001600160401b0381111561673d5761673d616395565b6167518161674b845461668f565b846166c9565b602080601f831160018114616780576000841561676e5750858301515b616778858261670f565b8655506122fd565b600085815260208120601f198616915b828110156167af57888601518255948401946001909101908401616790565b50858210156167cd5787850151600019600388901b60f8161c191681555b5050505050600190811b01905550565b81835281816020850137506000828201602090810191909152601f909101601f19169091010190565b6040815260006168196040830186615996565b82810360208401526160b38185876167dd565b634e487b7160e01b600052601160045260246000fd5b80820180821115610d6257610d6261682c565b634e487b7160e01b600052603260045260246000fd5b60006001820161687d5761687d61682c565b5060010190565b6001600160401b0383111561689b5761689b616395565b6168af836168a9835461668f565b836166c9565b6000601f8411600181146168dd57600085156168cb5750838201355b6168d5868261670f565b845550615333565b600083815260209020601f19861690835b8281101561690e57868501358255602094850194600190920191016168ee565b508682101561692b5760001960f88860031b161c19848701351681555b505060018560011b0183555050505050565b85815284602082015260ff841660408201526080606082015260006169666080830184866167dd565b979650505050505050565b81810381811115610d6257610d6261682c565b600081546169918161668f565b8085526020600183811680156169ae57600181146169c8576169f6565b60ff1985168884015283151560051b8801830195506169f6565b866000528260002060005b858110156169ee5781548a82018601529083019084016169d3565b890184019650505b505050505092915050565b87815286602082015285604082015284606082015283608082015260e060a08201526000616a3260e0830185616984565b82810360c08401526165c08185616984565b6000823560fe19833603018112616a5a57600080fd5b9190910192915050565b6000808335601e19843603018112616a7b57600080fd5b8301803591506001600160401b03821115616a9557600080fd5b602001915036819003821315615ac357600080fd5b600060208284031215616abc57600080fd5b813561495181615e89565b8060005b60028110156110b357604080838637938401939190910190600101616acb565b6101a081016040868337616b026040830186616ac7565b60408460c084013760a08361010084013795945050505050565b600060208284031215616b2e57600080fd5b815161495181616187565b60008135610d6281616187565b60008135610d62816164bf565b60008135610d6281615e89565b616b6a8283616a64565b6001600160401b03811115616b8157616b81616395565b616b9581616b8f855461668f565b856166c9565b6000601f821160018114616bc35760008315616bb15750838201355b616bbb848261670f565b865550616c1d565b600085815260209020601f19841690835b82811015616bf45786850135825560209485019460019092019101616bd4565b5084821015616c115760001960f88660031b161c19848701351681555b505060018360011b0185555b50505050616c2e6020830183616a64565b616c3c818360018601616884565b505060028101616c65616c5160408501616b39565b825490151560ff1660ff1991909116178255565b616c8c616c7460608501616b46565b825462ffff00191660089190911b62ffff0016178255565b616cb5616c9b60808501616b53565b825463ff000000191660189190911b63ff00000016178255565b616ce0616cc460a08501616b53565b825464ff00000000191660209190911b64ff0000000016178255565b50616cee60c0830183616a64565b616cfc818360038601616884565b5050616d0b60e0830183616a64565b6110b3818360048601616884565b81358155600181016020830135616d2f81616187565b815460ff191660ff82151516178255506040830135616d4d816164bf565b815462ffff001916600882901b62ffff0016178255506060830135616d7181615e89565b815463ff0000001916601882901b63ff00000016178255506080830135616d9781615e89565b815464ff000000001916602082901b64ff00000000161782555060a0830135616dbf81615e89565b815465ff0000000000191660289190911b65ff00000000001617905560c08201353683900360fe19018112616df357600080fd5b61191c81840160028401616b60565b848152606060208201526000616e1c6060830185876167dd565b905082604083015295945050505050565b6101e081016040868337616e446040830186616ac7565b60408460c084013760e08361010084013795945050505050565b600060208284031215616e7057600080fd5b5051919050565b8082028115828204841417610d6257610d6261682c565b600082616eab57634e487b7160e01b600052601260045260246000fd5b500490565b60608101818360005b6003811015616ed8578151835260209283019290910190600101616eb9565b50505092915050565b60008251616a5a818460208701615972565b89815288602082015287604082015286606082015285608082015260e060a08201526000616f2560e0830186886167dd565b82810360c0840152616f388185876167dd565b9c9b505050505050505050505050565b87815286602082015285604082015284606082015283608082015260c060a0820152600061612360c0830184866167dd565b6001600160a01b03858116825284166020820152604081018390526080606082018190526000906160b390830184615996565b600060208284031215616fbf57600080fd5b81516149518161593f565b634e487b7160e01b600052603160045260246000fdfea264697066735822122027a1dafa6e01651d4398dde685dbbe017781910aad211e430c834d379e5e7d5b64736f6c63430008140033",
  "linkReferences": {
    "poseidon-solidity/PoseidonT4.sol": {
      "PoseidonT4": [
        {
          "length": 20,
          "start": 17491
        }
      ]
    }
  },
  "deployedLinkReferences": {
    "poseidon-solidity/PoseidonT4.sol": {
      "PoseidonT4": [
        {
          "length": 20,
          "start": 16480
        }
      ]
    }
  }
}