{
  "_format": "hh3-artifact-1",
  "contractName": "DeepFamily",
  "sourceName": "contracts/DeepFamily.sol",
  "abi": [
    {
      "inputs": [
        {
          "internalType": "address",
          "name": "_deepFamilyTokenContract",
          "type": "address"
        },
        {
          "internalType": "address",
          "name": "_personHashVerifier",
          "type": "address"
        },
        {
          "internalType": "address",
          "name": "_namePoseidonVerifier",
          "type": "address"
        }
      ],
      "stateMutability": "nonpayable",
      "type": "constructor"
    },
    {
      "inputs": [],
      "name": "AlreadyEndorsed",
      "type": "error"
    },
    {
      "inputs": [],
      "name": "BasicInfoMismatch",
      "type": "error"
    },
    {
      "inputs": [],
      "name": "CallerMismatch",
      "type": "error"
    },
    {
      "inputs": [],
      "name": "ChunkHashMismatch",
      "type": "error"
    },
    {
      "inputs": [],
      "name": "ChunkIndexOutOfRange",
      "type": "error"
    },
    {
      "inputs": [],
      "name": "DirectETHNotAccepted",
      "type": "error"
    },
    {
      "inputs": [],
      "name": "DuplicateVersion",
      "type": "error"
    },
    {
      "inputs": [],
      "name": "ERC721EnumerableForbiddenBatchMint",
      "type": "error"
    },
    {
      "inputs": [
        {
          "internalType": "address",
          "name": "sender",
          "type": "address"
        },
        {
          "internalType": "uint256",
          "name": "tokenId",
          "type": "uint256"
        },
        {
          "internalType": "address",
          "name": "owner",
          "type": "address"
        }
      ],
      "name": "ERC721IncorrectOwner",
      "type": "error"
    },
    {
      "inputs": [
        {
          "internalType": "address",
          "name": "operator",
          "type": "address"
        },
        {
          "internalType": "uint256",
          "name": "tokenId",
          "type": "uint256"
        }
      ],
      "name": "ERC721InsufficientApproval",
      "type": "error"
    },
    {
      "inputs": [
        {
          "internalType": "address",
          "name": "approver",
          "type": "address"
        }
      ],
      "name": "ERC721InvalidApprover",
      "type": "error"
    },
    {
      "inputs": [
        {
          "internalType": "address",
          "name": "operator",
          "type": "address"
        }
      ],
      "name": "ERC721InvalidOperator",
      "type": "error"
    },
    {
      "inputs": [
        {
          "internalType": "address",
          "name": "owner",
          "type": "address"
        }
      ],
      "name": "ERC721InvalidOwner",
      "type": "error"
    },
    {
      "inputs": [
        {
          "internalType": "address",
          "name": "receiver",
          "type": "address"
        }
      ],
      "name": "ERC721InvalidReceiver",
      "type": "error"
    },
    {
      "inputs": [
        {
          "internalType": "address",
          "name": "sender",
          "type": "address"
        }
      ],
      "name": "ERC721InvalidSender",
      "type": "error"
    },
    {
      "inputs": [
        {
          "internalType": "uint256",
          "name": "tokenId",
          "type": "uint256"
        }
      ],
      "name": "ERC721NonexistentToken",
      "type": "error"
    },
    {
      "inputs": [
        {
          "internalType": "address",
          "name": "owner",
          "type": "address"
        },
        {
          "internalType": "uint256",
          "name": "index",
          "type": "uint256"
        }
      ],
      "name": "ERC721OutOfBoundsIndex",
      "type": "error"
    },
    {
      "inputs": [],
      "name": "EndorsementFeeTransferFailed",
      "type": "error"
    },
    {
      "inputs": [],
      "name": "InvalidBirthDay",
      "type": "error"
    },
    {
      "inputs": [],
      "name": "InvalidBirthMonth",
      "type": "error"
    },
    {
      "inputs": [],
      "name": "InvalidBirthPlace",
      "type": "error"
    },
    {
      "inputs": [],
      "name": "InvalidBirthYear",
      "type": "error"
    },
    {
      "inputs": [],
      "name": "InvalidCIDLength",
      "type": "error"
    },
    {
      "inputs": [],
      "name": "InvalidChunkContent",
      "type": "error"
    },
    {
      "inputs": [],
      "name": "InvalidDeathDay",
      "type": "error"
    },
    {
      "inputs": [],
      "name": "InvalidDeathMonth",
      "type": "error"
    },
    {
      "inputs": [],
      "name": "InvalidDeathPlace",
      "type": "error"
    },
    {
      "inputs": [],
      "name": "InvalidFatherVersionIndex",
      "type": "error"
    },
    {
      "inputs": [],
      "name": "InvalidFullName",
      "type": "error"
    },
    {
      "inputs": [],
      "name": "InvalidMotherVersionIndex",
      "type": "error"
    },
    {
      "inputs": [],
      "name": "InvalidParentHash",
      "type": "error"
    },
    {
      "inputs": [],
      "name": "InvalidPersonHash",
      "type": "error"
    },
    {
      "inputs": [],
      "name": "InvalidStory",
      "type": "error"
    },
    {
      "inputs": [],
      "name": "InvalidTagLength",
      "type": "error"
    },
    {
      "inputs": [],
      "name": "InvalidTokenURI",
      "type": "error"
    },
    {
      "inputs": [],
      "name": "InvalidVersionIndex",
      "type": "error"
    },
    {
      "inputs": [],
      "name": "InvalidZKProof",
      "type": "error"
    },
    {
      "inputs": [],
      "name": "MustBeAdult",
      "type": "error"
    },
    {
      "inputs": [],
      "name": "MustBeNFTHolder",
      "type": "error"
    },
    {
      "inputs": [],
      "name": "MustEndorseVersionFirst",
      "type": "error"
    },
    {
      "inputs": [],
      "name": "NameVerifierNotSet",
      "type": "error"
    },
    {
      "inputs": [],
      "name": "NotEndorsed",
      "type": "error"
    },
    {
      "inputs": [
        {
          "internalType": "address",
          "name": "owner",
          "type": "address"
        }
      ],
      "name": "OwnableInvalidOwner",
      "type": "error"
    },
    {
      "inputs": [
        {
          "internalType": "address",
          "name": "account",
          "type": "address"
        }
      ],
      "name": "OwnableUnauthorizedAccount",
      "type": "error"
    },
    {
      "inputs": [],
      "name": "PageSizeExceedsLimit",
      "type": "error"
    },
    {
      "inputs": [],
      "name": "ProtocolFeeTooHigh",
      "type": "error"
    },
    {
      "inputs": [],
      "name": "ReentrancyGuardReentrantCall",
      "type": "error"
    },
    {
      "inputs": [],
      "name": "StoryAlreadySealed",
      "type": "error"
    },
    {
      "inputs": [],
      "name": "StoryNotFound",
      "type": "error"
    },
    {
      "inputs": [],
      "name": "TokenContractNotSet",
      "type": "error"
    },
    {
      "inputs": [],
      "name": "VerifierNotSet",
      "type": "error"
    },
    {
      "inputs": [],
      "name": "VersionAlreadyMinted",
      "type": "error"
    },
    {
      "anonymous": false,
      "inputs": [
        {
          "indexed": true,
          "internalType": "address",
          "name": "owner",
          "type": "address"
        },
        {
          "indexed": true,
          "internalType": "address",
          "name": "approved",
          "type": "address"
        },
        {
          "indexed": true,
          "internalType": "uint256",
          "name": "tokenId",
          "type": "uint256"
        }
      ],
      "name": "Approval",
      "type": "event"
    },
    {
      "anonymous": false,
      "inputs": [
        {
          "indexed": true,
          "internalType": "address",
          "name": "owner",
          "type": "address"
        },
        {
          "indexed": true,
          "internalType": "address",
          "name": "operator",
          "type": "address"
        },
        {
          "indexed": false,
          "internalType": "bool",
          "name": "approved",
          "type": "bool"
        }
      ],
      "name": "ApprovalForAll",
      "type": "event"
    },
    {
      "anonymous": false,
      "inputs": [
        {
          "indexed": true,
          "internalType": "bytes32",
          "name": "personHash",
          "type": "bytes32"
        },
        {
          "indexed": true,
          "internalType": "address",
          "name": "user",
          "type": "address"
        },
        {
          "indexed": false,
          "internalType": "uint256",
          "name": "versionIndex",
          "type": "uint256"
        },
        {
          "indexed": false,
          "internalType": "uint256",
          "name": "timestamp",
          "type": "uint256"
        }
      ],
      "name": "EndorsementCancelled",
      "type": "event"
    },
    {
      "anonymous": false,
      "inputs": [
        {
          "indexed": false,
          "internalType": "uint256",
          "name": "previousBps",
          "type": "uint256"
        },
        {
          "indexed": false,
          "internalType": "uint256",
          "name": "newBps",
          "type": "uint256"
        }
      ],
      "name": "EndorsementFeeUpdated",
      "type": "event"
    },
    {
      "anonymous": false,
      "inputs": [
        {
          "indexed": true,
          "internalType": "address",
          "name": "previousOwner",
          "type": "address"
        },
        {
          "indexed": true,
          "internalType": "address",
          "name": "newOwner",
          "type": "address"
        }
      ],
      "name": "OwnershipTransferred",
      "type": "event"
    },
    {
      "anonymous": false,
      "inputs": [
        {
          "indexed": true,
          "internalType": "bytes32",
          "name": "personHash",
          "type": "bytes32"
        },
        {
          "indexed": true,
          "internalType": "address",
          "name": "prover",
          "type": "address"
        }
      ],
      "name": "PersonHashZKVerified",
      "type": "event"
    },
    {
      "anonymous": false,
      "inputs": [
        {
          "indexed": true,
          "internalType": "bytes32",
          "name": "personHash",
          "type": "bytes32"
        },
        {
          "indexed": true,
          "internalType": "uint256",
          "name": "tokenId",
          "type": "uint256"
        },
        {
          "indexed": true,
          "internalType": "address",
          "name": "owner",
          "type": "address"
        },
        {
          "indexed": false,
          "internalType": "uint256",
          "name": "versionIndex",
          "type": "uint256"
        },
        {
          "indexed": false,
          "internalType": "string",
          "name": "tokenURI",
          "type": "string"
        },
        {
          "indexed": false,
          "internalType": "uint256",
          "name": "timestamp",
          "type": "uint256"
        }
      ],
      "name": "PersonNFTMinted",
      "type": "event"
    },
    {
      "anonymous": false,
      "inputs": [
        {
          "indexed": true,
          "internalType": "bytes32",
          "name": "personHash",
          "type": "bytes32"
        },
        {
          "indexed": true,
          "internalType": "uint256",
          "name": "versionIndex",
          "type": "uint256"
        },
        {
          "indexed": true,
          "internalType": "address",
          "name": "addedBy",
          "type": "address"
        },
        {
          "indexed": false,
          "internalType": "uint256",
          "name": "timestamp",
          "type": "uint256"
        },
        {
          "indexed": false,
          "internalType": "bytes32",
          "name": "fatherHash",
          "type": "bytes32"
        },
        {
          "indexed": false,
          "internalType": "uint256",
          "name": "fatherVersionIndex",
          "type": "uint256"
        },
        {
          "indexed": false,
          "internalType": "bytes32",
          "name": "motherHash",
          "type": "bytes32"
        },
        {
          "indexed": false,
          "internalType": "uint256",
          "name": "motherVersionIndex",
          "type": "uint256"
        },
        {
          "indexed": false,
          "internalType": "string",
          "name": "tag",
          "type": "string"
        }
      ],
      "name": "PersonVersionAdded",
      "type": "event"
    },
    {
      "anonymous": false,
      "inputs": [
        {
          "indexed": true,
          "internalType": "bytes32",
          "name": "personHash",
          "type": "bytes32"
        },
        {
          "indexed": true,
          "internalType": "address",
          "name": "endorser",
          "type": "address"
        },
        {
          "indexed": false,
          "internalType": "uint256",
          "name": "versionIndex",
          "type": "uint256"
        },
        {
          "indexed": false,
          "internalType": "address",
          "name": "recipient",
          "type": "address"
        },
        {
          "indexed": false,
          "internalType": "uint256",
          "name": "recipientShare",
          "type": "uint256"
        },
        {
          "indexed": false,
          "internalType": "address",
          "name": "protocolRecipient",
          "type": "address"
        },
        {
          "indexed": false,
          "internalType": "uint256",
          "name": "protocolShare",
          "type": "uint256"
        },
        {
          "indexed": false,
          "internalType": "uint256",
          "name": "endorsementFee",
          "type": "uint256"
        },
        {
          "indexed": false,
          "internalType": "uint256",
          "name": "timestamp",
          "type": "uint256"
        }
      ],
      "name": "PersonVersionEndorsed",
      "type": "event"
    },
    {
      "anonymous": false,
      "inputs": [
        {
          "indexed": true,
          "internalType": "uint256",
          "name": "tokenId",
          "type": "uint256"
        },
        {
          "indexed": true,
          "internalType": "uint256",
          "name": "chunkIndex",
          "type": "uint256"
        },
        {
          "indexed": false,
          "internalType": "bytes32",
          "name": "chunkHash",
          "type": "bytes32"
        },
        {
          "indexed": true,
          "internalType": "address",
          "name": "editor",
          "type": "address"
        },
        {
          "indexed": false,
          "internalType": "uint256",
          "name": "contentLength",
          "type": "uint256"
        },
        {
          "indexed": false,
          "internalType": "uint8",
          "name": "chunkType",
          "type": "uint8"
        },
        {
          "indexed": false,
          "internalType": "string",
          "name": "attachmentCID",
          "type": "string"
        }
      ],
      "name": "StoryChunkAdded",
      "type": "event"
    },
    {
      "anonymous": false,
      "inputs": [
        {
          "indexed": true,
          "internalType": "uint256",
          "name": "tokenId",
          "type": "uint256"
        },
        {
          "indexed": false,
          "internalType": "uint256",
          "name": "totalChunks",
          "type": "uint256"
        },
        {
          "indexed": false,
          "internalType": "bytes32",
          "name": "fullStoryHash",
          "type": "bytes32"
        },
        {
          "indexed": true,
          "internalType": "address",
          "name": "sealer",
          "type": "address"
        }
      ],
      "name": "StorySealed",
      "type": "event"
    },
    {
      "anonymous": false,
      "inputs": [
        {
          "indexed": true,
          "internalType": "address",
          "name": "miner",
          "type": "address"
        },
        {
          "indexed": true,
          "internalType": "bytes32",
          "name": "personHash",
          "type": "bytes32"
        },
        {
          "indexed": true,
          "internalType": "uint256",
          "name": "versionIndex",
          "type": "uint256"
        },
        {
          "indexed": false,
          "internalType": "uint256",
          "name": "reward",
          "type": "uint256"
        }
      ],
      "name": "TokenRewardDistributed",
      "type": "event"
    },
    {
      "anonymous": false,
      "inputs": [
        {
          "indexed": true,
          "internalType": "uint256",
          "name": "tokenId",
          "type": "uint256"
        },
        {
          "indexed": true,
          "internalType": "address",
          "name": "owner",
          "type": "address"
        },
        {
          "indexed": false,
          "internalType": "string",
          "name": "oldURI",
          "type": "string"
        },
        {
          "indexed": false,
          "internalType": "string",
          "name": "newURI",
          "type": "string"
        }
      ],
      "name": "TokenURIUpdated",
      "type": "event"
    },
    {
      "anonymous": false,
      "inputs": [
        {
          "indexed": true,
          "internalType": "address",
          "name": "from",
          "type": "address"
        },
        {
          "indexed": true,
          "internalType": "address",
          "name": "to",
          "type": "address"
        },
        {
          "indexed": true,
          "internalType": "uint256",
          "name": "tokenId",
          "type": "uint256"
        }
      ],
      "name": "Transfer",
      "type": "event"
    },
    {
      "stateMutability": "payable",
      "type": "fallback"
    },
    {
      "inputs": [],
      "name": "DEEP_FAMILY_TOKEN_CONTRACT",
      "outputs": [
        {
          "internalType": "address",
          "name": "",
          "type": "address"
        }
      ],
      "stateMutability": "view",
      "type": "function"
    },
    {
      "inputs": [],
      "name": "FEE_BPS_DENOMINATOR",
      "outputs": [
        {
          "internalType": "uint256",
          "name": "",
          "type": "uint256"
        }
      ],
      "stateMutability": "view",
      "type": "function"
    },
    {
      "inputs": [],
      "name": "MAX_CHUNK_CONTENT_LENGTH",
      "outputs": [
        {
          "internalType": "uint256",
          "name": "",
          "type": "uint256"
        }
      ],
      "stateMutability": "view",
      "type": "function"
    },
    {
      "inputs": [],
      "name": "MAX_LONG_TEXT_LENGTH",
      "outputs": [
        {
          "internalType": "uint256",
          "name": "",
          "type": "uint256"
        }
      ],
      "stateMutability": "view",
      "type": "function"
    },
    {
      "inputs": [],
      "name": "MAX_QUERY_PAGE_SIZE",
      "outputs": [
        {
          "internalType": "uint256",
          "name": "",
          "type": "uint256"
        }
      ],
      "stateMutability": "view",
      "type": "function"
    },
    {
      "inputs": [],
      "name": "MINIMUM_MINT_AGE",
      "outputs": [
        {
          "internalType": "uint256",
          "name": "",
          "type": "uint256"
        }
      ],
      "stateMutability": "view",
      "type": "function"
    },
    {
      "inputs": [],
      "name": "NAME_POSEIDON_VERIFIER",
      "outputs": [
        {
          "internalType": "address",
          "name": "",
          "type": "address"
        }
      ],
      "stateMutability": "view",
      "type": "function"
    },
    {
      "inputs": [],
      "name": "PERSON_HASH_VERIFIER",
      "outputs": [
        {
          "internalType": "address",
          "name": "",
          "type": "address"
        }
      ],
      "stateMutability": "view",
      "type": "function"
    },
    {
      "inputs": [],
      "name": "PROTOCOL_FEE_BPS_MAX",
      "outputs": [
        {
          "internalType": "uint256",
          "name": "",
          "type": "uint256"
        }
      ],
      "stateMutability": "view",
      "type": "function"
    },
    {
      "inputs": [
        {
          "internalType": "uint256[2]",
          "name": "a",
          "type": "uint256[2]"
        },
        {
          "internalType": "uint256[2][2]",
          "name": "b",
          "type": "uint256[2][2]"
        },
        {
          "internalType": "uint256[2]",
          "name": "c",
          "type": "uint256[2]"
        },
        {
          "internalType": "uint256[7]",
          "name": "publicSignals",
          "type": "uint256[7]"
        },
        {
          "internalType": "uint256",
          "name": "fatherVersionIndex",
          "type": "uint256"
        },
        {
          "internalType": "uint256",
          "name": "motherVersionIndex",
          "type": "uint256"
        },
        {
          "internalType": "string",
          "name": "tag",
          "type": "string"
        },
        {
          "internalType": "string",
          "name": "metadataCID",
          "type": "string"
        }
      ],
      "name": "addPersonZK",
      "outputs": [],
      "stateMutability": "nonpayable",
      "type": "function"
    },
    {
      "inputs": [
        {
          "internalType": "uint256",
          "name": "tokenId",
          "type": "uint256"
        },
        {
          "internalType": "uint256",
          "name": "chunkIndex",
          "type": "uint256"
        },
        {
          "internalType": "uint8",
          "name": "chunkType",
          "type": "uint8"
        },
        {
          "internalType": "string",
          "name": "content",
          "type": "string"
        },
        {
          "internalType": "string",
          "name": "attachmentCID",
          "type": "string"
        },
        {
          "internalType": "bytes32",
          "name": "expectedHash",
          "type": "bytes32"
        }
      ],
      "name": "addStoryChunk",
      "outputs": [],
      "stateMutability": "nonpayable",
      "type": "function"
    },
    {
      "inputs": [
        {
          "internalType": "address",
          "name": "to",
          "type": "address"
        },
        {
          "internalType": "uint256",
          "name": "tokenId",
          "type": "uint256"
        }
      ],
      "name": "approve",
      "outputs": [],
      "stateMutability": "nonpayable",
      "type": "function"
    },
    {
      "inputs": [
        {
          "internalType": "address",
          "name": "owner",
          "type": "address"
        }
      ],
      "name": "balanceOf",
      "outputs": [
        {
          "internalType": "uint256",
          "name": "",
          "type": "uint256"
        }
      ],
      "stateMutability": "view",
      "type": "function"
    },
    {
      "inputs": [
        {
          "internalType": "bytes32",
          "name": "personHash",
          "type": "bytes32"
        }
      ],
      "name": "cancelEndorsement",
      "outputs": [],
      "stateMutability": "nonpayable",
      "type": "function"
    },
    {
      "inputs": [
        {
          "internalType": "bytes32",
          "name": "",
          "type": "bytes32"
        },
        {
          "internalType": "uint256",
          "name": "",
          "type": "uint256"
        },
        {
          "internalType": "uint256",
          "name": "",
          "type": "uint256"
        }
      ],
      "name": "childrenOf",
      "outputs": [
        {
          "internalType": "bytes32",
          "name": "childHash",
          "type": "bytes32"
        },
        {
          "internalType": "uint256",
          "name": "childVersionIndex",
          "type": "uint256"
        }
      ],
      "stateMutability": "view",
      "type": "function"
    },
    {
      "inputs": [
        {
          "internalType": "bytes32",
          "name": "personHash",
          "type": "bytes32"
        },
        {
          "internalType": "uint256",
          "name": "versionIndex",
          "type": "uint256"
        }
      ],
      "name": "endorseVersion",
      "outputs": [],
      "stateMutability": "nonpayable",
      "type": "function"
    },
    {
      "inputs": [
        {
          "internalType": "bytes32",
          "name": "",
          "type": "bytes32"
        },
        {
          "internalType": "address",
          "name": "",
          "type": "address"
        }
      ],
      "name": "endorsedVersionIndex",
      "outputs": [
        {
          "internalType": "uint256",
          "name": "",
          "type": "uint256"
        }
      ],
      "stateMutability": "view",
      "type": "function"
    },
    {
      "inputs": [
        {
          "internalType": "uint256",
          "name": "tokenId",
          "type": "uint256"
        }
      ],
      "name": "getApproved",
      "outputs": [
        {
          "internalType": "address",
          "name": "",
          "type": "address"
        }
      ],
      "stateMutability": "view",
      "type": "function"
    },
    {
      "inputs": [
        {
          "internalType": "uint256",
          "name": "tokenId",
          "type": "uint256"
        }
      ],
      "name": "getNFTDetails",
      "outputs": [
        {
          "internalType": "bytes32",
          "name": "personHash",
          "type": "bytes32"
        },
        {
          "internalType": "uint256",
          "name": "versionIndex",
          "type": "uint256"
        },
        {
          "components": [
            {
              "internalType": "bytes32",
              "name": "personHash",
              "type": "bytes32"
            },
            {
              "internalType": "bytes32",
              "name": "fatherHash",
              "type": "bytes32"
            },
            {
              "internalType": "bytes32",
              "name": "motherHash",
              "type": "bytes32"
            },
            {
              "internalType": "uint256",
              "name": "versionIndex",
              "type": "uint256"
            },
            {
              "internalType": "uint256",
              "name": "fatherVersionIndex",
              "type": "uint256"
            },
            {
              "internalType": "uint256",
              "name": "motherVersionIndex",
              "type": "uint256"
            },
            {
              "internalType": "address",
              "name": "addedBy",
              "type": "address"
            },
            {
              "internalType": "uint96",
              "name": "timestamp",
              "type": "uint96"
            },
            {
              "internalType": "string",
              "name": "tag",
              "type": "string"
            },
            {
              "internalType": "string",
              "name": "metadataCID",
              "type": "string"
            }
          ],
          "internalType": "struct DeepFamily.PersonVersion",
          "name": "version",
          "type": "tuple"
        },
        {
          "components": [
            {
              "components": [
                {
                  "internalType": "bytes32",
                  "name": "fullNameCommitment",
                  "type": "bytes32"
                },
                {
                  "internalType": "bool",
                  "name": "isBirthBC",
                  "type": "bool"
                },
                {
                  "internalType": "uint16",
                  "name": "birthYear",
                  "type": "uint16"
                },
                {
                  "internalType": "uint8",
                  "name": "birthMonth",
                  "type": "uint8"
                },
                {
                  "internalType": "uint8",
                  "name": "birthDay",
                  "type": "uint8"
                },
                {
                  "internalType": "uint8",
                  "name": "gender",
                  "type": "uint8"
                }
              ],
              "internalType": "struct DeepFamily.PersonBasicInfo",
              "name": "basicInfo",
              "type": "tuple"
            },
            {
              "components": [
                {
                  "internalType": "string",
                  "name": "fullName",
                  "type": "string"
                },
                {
                  "internalType": "string",
                  "name": "birthPlace",
                  "type": "string"
                },
                {
                  "internalType": "bool",
                  "name": "isDeathBC",
                  "type": "bool"
                },
                {
                  "internalType": "uint16",
                  "name": "deathYear",
                  "type": "uint16"
                },
                {
                  "internalType": "uint8",
                  "name": "deathMonth",
                  "type": "uint8"
                },
                {
                  "internalType": "uint8",
                  "name": "deathDay",
                  "type": "uint8"
                },
                {
                  "internalType": "string",
                  "name": "deathPlace",
                  "type": "string"
                },
                {
                  "internalType": "string",
                  "name": "story",
                  "type": "string"
                }
              ],
              "internalType": "struct DeepFamily.PersonSupplementInfo",
              "name": "supplementInfo",
              "type": "tuple"
            }
          ],
          "internalType": "struct DeepFamily.PersonCoreInfo",
          "name": "coreInfo",
          "type": "tuple"
        },
        {
          "internalType": "uint256",
          "name": "endorsementCount",
          "type": "uint256"
        },
        {
          "internalType": "string",
          "name": "nftTokenURI",
          "type": "string"
        }
      ],
      "stateMutability": "view",
      "type": "function"
    },
    {
      "inputs": [
        {
          "components": [
            {
              "internalType": "bytes32",
              "name": "fullNameCommitment",
              "type": "bytes32"
            },
            {
              "internalType": "bool",
              "name": "isBirthBC",
              "type": "bool"
            },
            {
              "internalType": "uint16",
              "name": "birthYear",
              "type": "uint16"
            },
            {
              "internalType": "uint8",
              "name": "birthMonth",
              "type": "uint8"
            },
            {
              "internalType": "uint8",
              "name": "birthDay",
              "type": "uint8"
            },
            {
              "internalType": "uint8",
              "name": "gender",
              "type": "uint8"
            }
          ],
          "internalType": "struct DeepFamily.PersonBasicInfo",
          "name": "basicInfo",
          "type": "tuple"
        }
      ],
      "name": "getPersonHash",
      "outputs": [
        {
          "internalType": "bytes32",
          "name": "",
          "type": "bytes32"
        }
      ],
      "stateMutability": "pure",
      "type": "function"
    },
    {
      "inputs": [
        {
          "internalType": "uint256",
          "name": "tokenId",
          "type": "uint256"
        },
        {
          "internalType": "uint256",
          "name": "chunkIndex",
          "type": "uint256"
        }
      ],
      "name": "getStoryChunk",
      "outputs": [
        {
          "components": [
            {
              "internalType": "uint256",
              "name": "chunkIndex",
              "type": "uint256"
            },
            {
              "internalType": "bytes32",
              "name": "chunkHash",
              "type": "bytes32"
            },
            {
              "internalType": "string",
              "name": "content",
              "type": "string"
            },
            {
              "internalType": "uint256",
              "name": "timestamp",
              "type": "uint256"
            },
            {
              "internalType": "address",
              "name": "editor",
              "type": "address"
            },
            {
              "internalType": "uint8",
              "name": "chunkType",
              "type": "uint8"
            },
            {
              "internalType": "string",
              "name": "attachmentCID",
              "type": "string"
            }
          ],
          "internalType": "struct DeepFamily.StoryChunk",
          "name": "chunk",
          "type": "tuple"
        }
      ],
      "stateMutability": "view",
      "type": "function"
    },
    {
      "inputs": [
        {
          "internalType": "uint256",
          "name": "tokenId",
          "type": "uint256"
        }
      ],
      "name": "getStoryMetadata",
      "outputs": [
        {
          "components": [
            {
              "internalType": "uint256",
              "name": "totalChunks",
              "type": "uint256"
            },
            {
              "internalType": "bytes32",
              "name": "fullStoryHash",
              "type": "bytes32"
            },
            {
              "internalType": "uint256",
              "name": "lastUpdateTime",
              "type": "uint256"
            },
            {
              "internalType": "bool",
              "name": "isSealed",
              "type": "bool"
            },
            {
              "internalType": "uint256",
              "name": "totalLength",
              "type": "uint256"
            }
          ],
          "internalType": "struct DeepFamily.StoryMetadata",
          "name": "metadata",
          "type": "tuple"
        }
      ],
      "stateMutability": "view",
      "type": "function"
    },
    {
      "inputs": [
        {
          "internalType": "bytes32",
          "name": "personHash",
          "type": "bytes32"
        },
        {
          "internalType": "uint256",
          "name": "versionIndex",
          "type": "uint256"
        }
      ],
      "name": "getVersionDetails",
      "outputs": [
        {
          "components": [
            {
              "internalType": "bytes32",
              "name": "personHash",
              "type": "bytes32"
            },
            {
              "internalType": "bytes32",
              "name": "fatherHash",
              "type": "bytes32"
            },
            {
              "internalType": "bytes32",
              "name": "motherHash",
              "type": "bytes32"
            },
            {
              "internalType": "uint256",
              "name": "versionIndex",
              "type": "uint256"
            },
            {
              "internalType": "uint256",
              "name": "fatherVersionIndex",
              "type": "uint256"
            },
            {
              "internalType": "uint256",
              "name": "motherVersionIndex",
              "type": "uint256"
            },
            {
              "internalType": "address",
              "name": "addedBy",
              "type": "address"
            },
            {
              "internalType": "uint96",
              "name": "timestamp",
              "type": "uint96"
            },
            {
              "internalType": "string",
              "name": "tag",
              "type": "string"
            },
            {
              "internalType": "string",
              "name": "metadataCID",
              "type": "string"
            }
          ],
          "internalType": "struct DeepFamily.PersonVersion",
          "name": "version",
          "type": "tuple"
        },
        {
          "internalType": "uint256",
          "name": "endorsementCount",
          "type": "uint256"
        },
        {
          "internalType": "uint256",
          "name": "tokenId",
          "type": "uint256"
        }
      ],
      "stateMutability": "view",
      "type": "function"
    },
    {
      "inputs": [
        {
          "internalType": "address",
          "name": "owner",
          "type": "address"
        },
        {
          "internalType": "address",
          "name": "operator",
          "type": "address"
        }
      ],
      "name": "isApprovedForAll",
      "outputs": [
        {
          "internalType": "bool",
          "name": "",
          "type": "bool"
        }
      ],
      "stateMutability": "view",
      "type": "function"
    },
    {
      "inputs": [
        {
          "internalType": "bytes32",
          "name": "parentHash",
          "type": "bytes32"
        },
        {
          "internalType": "uint256",
          "name": "parentVersionIndex",
          "type": "uint256"
        },
        {
          "internalType": "uint256",
          "name": "offset",
          "type": "uint256"
        },
        {
          "internalType": "uint256",
          "name": "limit",
          "type": "uint256"
        }
      ],
      "name": "listChildren",
      "outputs": [
        {
          "internalType": "bytes32[]",
          "name": "childHashes",
          "type": "bytes32[]"
        },
        {
          "internalType": "uint256[]",
          "name": "childVersionIndices",
          "type": "uint256[]"
        },
        {
          "internalType": "uint256",
          "name": "totalCount",
          "type": "uint256"
        },
        {
          "internalType": "bool",
          "name": "hasMore",
          "type": "bool"
        },
        {
          "internalType": "uint256",
          "name": "nextOffset",
          "type": "uint256"
        }
      ],
      "stateMutability": "view",
      "type": "function"
    },
    {
      "inputs": [
        {
          "internalType": "bytes32",
          "name": "personHash",
          "type": "bytes32"
        },
        {
          "internalType": "uint256",
          "name": "offset",
          "type": "uint256"
        },
        {
          "internalType": "uint256",
          "name": "limit",
          "type": "uint256"
        }
      ],
      "name": "listPersonVersions",
      "outputs": [
        {
          "components": [
            {
              "internalType": "bytes32",
              "name": "personHash",
              "type": "bytes32"
            },
            {
              "internalType": "bytes32",
              "name": "fatherHash",
              "type": "bytes32"
            },
            {
              "internalType": "bytes32",
              "name": "motherHash",
              "type": "bytes32"
            },
            {
              "internalType": "uint256",
              "name": "versionIndex",
              "type": "uint256"
            },
            {
              "internalType": "uint256",
              "name": "fatherVersionIndex",
              "type": "uint256"
            },
            {
              "internalType": "uint256",
              "name": "motherVersionIndex",
              "type": "uint256"
            },
            {
              "internalType": "address",
              "name": "addedBy",
              "type": "address"
            },
            {
              "internalType": "uint96",
              "name": "timestamp",
              "type": "uint96"
            },
            {
              "internalType": "string",
              "name": "tag",
              "type": "string"
            },
            {
              "internalType": "string",
              "name": "metadataCID",
              "type": "string"
            }
          ],
          "internalType": "struct DeepFamily.PersonVersion[]",
          "name": "versions",
          "type": "tuple[]"
        },
        {
          "internalType": "uint256",
          "name": "totalVersions",
          "type": "uint256"
        },
        {
          "internalType": "bool",
          "name": "hasMore",
          "type": "bool"
        },
        {
          "internalType": "uint256",
          "name": "nextOffset",
          "type": "uint256"
        }
      ],
      "stateMutability": "view",
      "type": "function"
    },
    {
      "inputs": [
        {
          "internalType": "uint256",
          "name": "tokenId",
          "type": "uint256"
        },
        {
          "internalType": "uint256",
          "name": "offset",
          "type": "uint256"
        },
        {
          "internalType": "uint256",
          "name": "limit",
          "type": "uint256"
        }
      ],
      "name": "listStoryChunks",
      "outputs": [
        {
          "components": [
            {
              "internalType": "uint256",
              "name": "chunkIndex",
              "type": "uint256"
            },
            {
              "internalType": "bytes32",
              "name": "chunkHash",
              "type": "bytes32"
            },
            {
              "internalType": "string",
              "name": "content",
              "type": "string"
            },
            {
              "internalType": "uint256",
              "name": "timestamp",
              "type": "uint256"
            },
            {
              "internalType": "address",
              "name": "editor",
              "type": "address"
            },
            {
              "internalType": "uint8",
              "name": "chunkType",
              "type": "uint8"
            },
            {
              "internalType": "string",
              "name": "attachmentCID",
              "type": "string"
            }
          ],
          "internalType": "struct DeepFamily.StoryChunk[]",
          "name": "chunks",
          "type": "tuple[]"
        },
        {
          "internalType": "uint256",
          "name": "totalChunks",
          "type": "uint256"
        },
        {
          "internalType": "bool",
          "name": "hasMore",
          "type": "bool"
        },
        {
          "internalType": "uint256",
          "name": "nextOffset",
          "type": "uint256"
        }
      ],
      "stateMutability": "view",
      "type": "function"
    },
    {
      "inputs": [
        {
          "internalType": "uint256",
          "name": "tokenId",
          "type": "uint256"
        },
        {
          "internalType": "uint256",
          "name": "offset",
          "type": "uint256"
        },
        {
          "internalType": "uint256",
          "name": "limit",
          "type": "uint256"
        }
      ],
      "name": "listTokenURIHistory",
      "outputs": [
        {
          "internalType": "string[]",
          "name": "uris",
          "type": "string[]"
        },
        {
          "internalType": "uint256",
          "name": "totalCount",
          "type": "uint256"
        },
        {
          "internalType": "bool",
          "name": "hasMore",
          "type": "bool"
        },
        {
          "internalType": "uint256",
          "name": "nextOffset",
          "type": "uint256"
        }
      ],
      "stateMutability": "view",
      "type": "function"
    },
    {
      "inputs": [
        {
          "internalType": "address",
          "name": "user",
          "type": "address"
        },
        {
          "internalType": "uint256",
          "name": "offset",
          "type": "uint256"
        },
        {
          "internalType": "uint256",
          "name": "limit",
          "type": "uint256"
        }
      ],
      "name": "listUserEndorsements",
      "outputs": [
        {
          "internalType": "bytes32[]",
          "name": "personHashes",
          "type": "bytes32[]"
        },
        {
          "internalType": "uint256[]",
          "name": "versionIndices",
          "type": "uint256[]"
        },
        {
          "internalType": "uint256[]",
          "name": "endorsementCounts",
          "type": "uint256[]"
        },
        {
          "internalType": "uint256[]",
          "name": "tokenIds",
          "type": "uint256[]"
        },
        {
          "internalType": "uint256",
          "name": "totalCount",
          "type": "uint256"
        },
        {
          "internalType": "bool",
          "name": "hasMore",
          "type": "bool"
        },
        {
          "internalType": "uint256",
          "name": "nextOffset",
          "type": "uint256"
        }
      ],
      "stateMutability": "view",
      "type": "function"
    },
    {
      "inputs": [
        {
          "internalType": "bytes32",
          "name": "personHash",
          "type": "bytes32"
        },
        {
          "internalType": "uint256",
          "name": "offset",
          "type": "uint256"
        },
        {
          "internalType": "uint256",
          "name": "limit",
          "type": "uint256"
        }
      ],
      "name": "listVersionEndorsements",
      "outputs": [
        {
          "internalType": "uint256[]",
          "name": "versionIndices",
          "type": "uint256[]"
        },
        {
          "internalType": "uint256[]",
          "name": "endorsementCounts",
          "type": "uint256[]"
        },
        {
          "internalType": "uint256[]",
          "name": "tokenIds",
          "type": "uint256[]"
        },
        {
          "internalType": "uint256",
          "name": "totalVersions",
          "type": "uint256"
        },
        {
          "internalType": "bool",
          "name": "hasMore",
          "type": "bool"
        },
        {
          "internalType": "uint256",
          "name": "nextOffset",
          "type": "uint256"
        }
      ],
      "stateMutability": "view",
      "type": "function"
    },
    {
      "inputs": [
        {
          "internalType": "uint256[2]",
          "name": "a",
          "type": "uint256[2]"
        },
        {
          "internalType": "uint256[2][2]",
          "name": "b",
          "type": "uint256[2][2]"
        },
        {
          "internalType": "uint256[2]",
          "name": "c",
          "type": "uint256[2]"
        },
        {
          "internalType": "uint256[5]",
          "name": "publicSignals",
          "type": "uint256[5]"
        },
        {
          "internalType": "bytes32",
          "name": "personHash",
          "type": "bytes32"
        },
        {
          "internalType": "uint256",
          "name": "versionIndex",
          "type": "uint256"
        },
        {
          "internalType": "string",
          "name": "_tokenURI",
          "type": "string"
        },
        {
          "components": [
            {
              "components": [
                {
                  "internalType": "bytes32",
                  "name": "fullNameCommitment",
                  "type": "bytes32"
                },
                {
                  "internalType": "bool",
                  "name": "isBirthBC",
                  "type": "bool"
                },
                {
                  "internalType": "uint16",
                  "name": "birthYear",
                  "type": "uint16"
                },
                {
                  "internalType": "uint8",
                  "name": "birthMonth",
                  "type": "uint8"
                },
                {
                  "internalType": "uint8",
                  "name": "birthDay",
                  "type": "uint8"
                },
                {
                  "internalType": "uint8",
                  "name": "gender",
                  "type": "uint8"
                }
              ],
              "internalType": "struct DeepFamily.PersonBasicInfo",
              "name": "basicInfo",
              "type": "tuple"
            },
            {
              "components": [
                {
                  "internalType": "string",
                  "name": "fullName",
                  "type": "string"
                },
                {
                  "internalType": "string",
                  "name": "birthPlace",
                  "type": "string"
                },
                {
                  "internalType": "bool",
                  "name": "isDeathBC",
                  "type": "bool"
                },
                {
                  "internalType": "uint16",
                  "name": "deathYear",
                  "type": "uint16"
                },
                {
                  "internalType": "uint8",
                  "name": "deathMonth",
                  "type": "uint8"
                },
                {
                  "internalType": "uint8",
                  "name": "deathDay",
                  "type": "uint8"
                },
                {
                  "internalType": "string",
                  "name": "deathPlace",
                  "type": "string"
                },
                {
                  "internalType": "string",
                  "name": "story",
                  "type": "string"
                }
              ],
              "internalType": "struct DeepFamily.PersonSupplementInfo",
              "name": "supplementInfo",
              "type": "tuple"
            }
          ],
          "internalType": "struct DeepFamily.PersonCoreInfo",
          "name": "coreInfo",
          "type": "tuple"
        }
      ],
      "name": "mintPersonNFT",
      "outputs": [],
      "stateMutability": "nonpayable",
      "type": "function"
    },
    {
      "inputs": [],
      "name": "name",
      "outputs": [
        {
          "internalType": "string",
          "name": "",
          "type": "string"
        }
      ],
      "stateMutability": "view",
      "type": "function"
    },
    {
      "inputs": [
        {
          "internalType": "uint256",
          "name": "",
          "type": "uint256"
        }
      ],
      "name": "nftCoreInfo",
      "outputs": [
        {
          "components": [
            {
              "internalType": "bytes32",
              "name": "fullNameCommitment",
              "type": "bytes32"
            },
            {
              "internalType": "bool",
              "name": "isBirthBC",
              "type": "bool"
            },
            {
              "internalType": "uint16",
              "name": "birthYear",
              "type": "uint16"
            },
            {
              "internalType": "uint8",
              "name": "birthMonth",
              "type": "uint8"
            },
            {
              "internalType": "uint8",
              "name": "birthDay",
              "type": "uint8"
            },
            {
              "internalType": "uint8",
              "name": "gender",
              "type": "uint8"
            }
          ],
          "internalType": "struct DeepFamily.PersonBasicInfo",
          "name": "basicInfo",
          "type": "tuple"
        },
        {
          "components": [
            {
              "internalType": "string",
              "name": "fullName",
              "type": "string"
            },
            {
              "internalType": "string",
              "name": "birthPlace",
              "type": "string"
            },
            {
              "internalType": "bool",
              "name": "isDeathBC",
              "type": "bool"
            },
            {
              "internalType": "uint16",
              "name": "deathYear",
              "type": "uint16"
            },
            {
              "internalType": "uint8",
              "name": "deathMonth",
              "type": "uint8"
            },
            {
              "internalType": "uint8",
              "name": "deathDay",
              "type": "uint8"
            },
            {
              "internalType": "string",
              "name": "deathPlace",
              "type": "string"
            },
            {
              "internalType": "string",
              "name": "story",
              "type": "string"
            }
          ],
          "internalType": "struct DeepFamily.PersonSupplementInfo",
          "name": "supplementInfo",
          "type": "tuple"
        }
      ],
      "stateMutability": "view",
      "type": "function"
    },
    {
      "inputs": [],
      "name": "owner",
      "outputs": [
        {
          "internalType": "address",
          "name": "",
          "type": "address"
        }
      ],
      "stateMutability": "view",
      "type": "function"
    },
    {
      "inputs": [
        {
          "internalType": "uint256",
          "name": "tokenId",
          "type": "uint256"
        }
      ],
      "name": "ownerOf",
      "outputs": [
        {
          "internalType": "address",
          "name": "",
          "type": "address"
        }
      ],
      "stateMutability": "view",
      "type": "function"
    },
    {
      "inputs": [
        {
          "internalType": "bytes32",
          "name": "",
          "type": "bytes32"
        },
        {
          "internalType": "uint256",
          "name": "",
          "type": "uint256"
        }
      ],
      "name": "personVersions",
      "outputs": [
        {
          "internalType": "bytes32",
          "name": "personHash",
          "type": "bytes32"
        },
        {
          "internalType": "bytes32",
          "name": "fatherHash",
          "type": "bytes32"
        },
        {
          "internalType": "bytes32",
          "name": "motherHash",
          "type": "bytes32"
        },
        {
          "internalType": "uint256",
          "name": "versionIndex",
          "type": "uint256"
        },
        {
          "internalType": "uint256",
          "name": "fatherVersionIndex",
          "type": "uint256"
        },
        {
          "internalType": "uint256",
          "name": "motherVersionIndex",
          "type": "uint256"
        },
        {
          "internalType": "address",
          "name": "addedBy",
          "type": "address"
        },
        {
          "internalType": "uint96",
          "name": "timestamp",
          "type": "uint96"
        },
        {
          "internalType": "string",
          "name": "tag",
          "type": "string"
        },
        {
          "internalType": "string",
          "name": "metadataCID",
          "type": "string"
        }
      ],
      "stateMutability": "view",
      "type": "function"
    },
    {
      "inputs": [],
      "name": "protocolEndorsementFeeBps",
      "outputs": [
        {
          "internalType": "uint256",
          "name": "",
          "type": "uint256"
        }
      ],
      "stateMutability": "view",
      "type": "function"
    },
    {
      "inputs": [],
      "name": "renounceOwnership",
      "outputs": [],
      "stateMutability": "nonpayable",
      "type": "function"
    },
    {
      "inputs": [
        {
          "internalType": "address",
          "name": "from",
          "type": "address"
        },
        {
          "internalType": "address",
          "name": "to",
          "type": "address"
        },
        {
          "internalType": "uint256",
          "name": "tokenId",
          "type": "uint256"
        }
      ],
      "name": "safeTransferFrom",
      "outputs": [],
      "stateMutability": "nonpayable",
      "type": "function"
    },
    {
      "inputs": [
        {
          "internalType": "address",
          "name": "from",
          "type": "address"
        },
        {
          "internalType": "address",
          "name": "to",
          "type": "address"
        },
        {
          "internalType": "uint256",
          "name": "tokenId",
          "type": "uint256"
        },
        {
          "internalType": "bytes",
          "name": "data",
          "type": "bytes"
        }
      ],
      "name": "safeTransferFrom",
      "outputs": [],
      "stateMutability": "nonpayable",
      "type": "function"
    },
    {
      "inputs": [
        {
          "internalType": "uint256",
          "name": "tokenId",
          "type": "uint256"
        }
      ],
      "name": "sealStory",
      "outputs": [],
      "stateMutability": "nonpayable",
      "type": "function"
    },
    {
      "inputs": [
        {
          "internalType": "address",
          "name": "operator",
          "type": "address"
        },
        {
          "internalType": "bool",
          "name": "approved",
          "type": "bool"
        }
      ],
      "name": "setApprovalForAll",
      "outputs": [],
      "stateMutability": "nonpayable",
      "type": "function"
    },
    {
      "inputs": [
        {
          "internalType": "uint256",
          "name": "",
          "type": "uint256"
        },
        {
          "internalType": "uint256",
          "name": "",
          "type": "uint256"
        }
      ],
      "name": "storyChunks",
      "outputs": [
        {
          "internalType": "uint256",
          "name": "chunkIndex",
          "type": "uint256"
        },
        {
          "internalType": "bytes32",
          "name": "chunkHash",
          "type": "bytes32"
        },
        {
          "internalType": "string",
          "name": "content",
          "type": "string"
        },
        {
          "internalType": "uint256",
          "name": "timestamp",
          "type": "uint256"
        },
        {
          "internalType": "address",
          "name": "editor",
          "type": "address"
        },
        {
          "internalType": "uint8",
          "name": "chunkType",
          "type": "uint8"
        },
        {
          "internalType": "string",
          "name": "attachmentCID",
          "type": "string"
        }
      ],
      "stateMutability": "view",
      "type": "function"
    },
    {
      "inputs": [
        {
          "internalType": "uint256",
          "name": "",
          "type": "uint256"
        }
      ],
      "name": "storyMetadata",
      "outputs": [
        {
          "internalType": "uint256",
          "name": "totalChunks",
          "type": "uint256"
        },
        {
          "internalType": "bytes32",
          "name": "fullStoryHash",
          "type": "bytes32"
        },
        {
          "internalType": "uint256",
          "name": "lastUpdateTime",
          "type": "uint256"
        },
        {
          "internalType": "bool",
          "name": "isSealed",
          "type": "bool"
        },
        {
          "internalType": "uint256",
          "name": "totalLength",
          "type": "uint256"
        }
      ],
      "stateMutability": "view",
      "type": "function"
    },
    {
      "inputs": [
        {
          "internalType": "bytes4",
          "name": "interfaceId",
          "type": "bytes4"
        }
      ],
      "name": "supportsInterface",
      "outputs": [
        {
          "internalType": "bool",
          "name": "",
          "type": "bool"
        }
      ],
      "stateMutability": "view",
      "type": "function"
    },
    {
      "inputs": [],
      "name": "symbol",
      "outputs": [
        {
          "internalType": "string",
          "name": "",
          "type": "string"
        }
      ],
      "stateMutability": "view",
      "type": "function"
    },
    {
      "inputs": [
        {
          "internalType": "uint256",
          "name": "index",
          "type": "uint256"
        }
      ],
      "name": "tokenByIndex",
      "outputs": [
        {
          "internalType": "uint256",
          "name": "",
          "type": "uint256"
        }
      ],
      "stateMutability": "view",
      "type": "function"
    },
    {
      "inputs": [],
      "name": "tokenCounter",
      "outputs": [
        {
          "internalType": "uint256",
          "name": "",
          "type": "uint256"
        }
      ],
      "stateMutability": "view",
      "type": "function"
    },
    {
      "inputs": [
        {
          "internalType": "uint256",
          "name": "",
          "type": "uint256"
        }
      ],
      "name": "tokenIdToPerson",
      "outputs": [
        {
          "internalType": "bytes32",
          "name": "",
          "type": "bytes32"
        }
      ],
      "stateMutability": "view",
      "type": "function"
    },
    {
      "inputs": [
        {
          "internalType": "uint256",
          "name": "",
          "type": "uint256"
        }
      ],
      "name": "tokenIdToVersionIndex",
      "outputs": [
        {
          "internalType": "uint256",
          "name": "",
          "type": "uint256"
        }
      ],
      "stateMutability": "view",
      "type": "function"
    },
    {
      "inputs": [
        {
          "internalType": "address",
          "name": "owner",
          "type": "address"
        },
        {
          "internalType": "uint256",
          "name": "index",
          "type": "uint256"
        }
      ],
      "name": "tokenOfOwnerByIndex",
      "outputs": [
        {
          "internalType": "uint256",
          "name": "",
          "type": "uint256"
        }
      ],
      "stateMutability": "view",
      "type": "function"
    },
    {
      "inputs": [
        {
          "internalType": "uint256",
          "name": "tokenId",
          "type": "uint256"
        }
      ],
      "name": "tokenURI",
      "outputs": [
        {
          "internalType": "string",
          "name": "",
          "type": "string"
        }
      ],
      "stateMutability": "view",
      "type": "function"
    },
    {
      "inputs": [
        {
          "internalType": "uint256",
          "name": "",
          "type": "uint256"
        },
        {
          "internalType": "uint256",
          "name": "",
          "type": "uint256"
        }
      ],
      "name": "tokenURIHistory",
      "outputs": [
        {
          "internalType": "string",
          "name": "",
          "type": "string"
        }
      ],
      "stateMutability": "view",
      "type": "function"
    },
    {
      "inputs": [],
      "name": "totalPersonsCount",
      "outputs": [
        {
          "internalType": "uint256",
          "name": "",
          "type": "uint256"
        }
      ],
      "stateMutability": "view",
      "type": "function"
    },
    {
      "inputs": [],
      "name": "totalSupply",
      "outputs": [
        {
          "internalType": "uint256",
          "name": "",
          "type": "uint256"
        }
      ],
      "stateMutability": "view",
      "type": "function"
    },
    {
      "inputs": [
        {
          "internalType": "address",
          "name": "from",
          "type": "address"
        },
        {
          "internalType": "address",
          "name": "to",
          "type": "address"
        },
        {
          "internalType": "uint256",
          "name": "tokenId",
          "type": "uint256"
        }
      ],
      "name": "transferFrom",
      "outputs": [],
      "stateMutability": "nonpayable",
      "type": "function"
    },
    {
      "inputs": [
        {
          "internalType": "address",
          "name": "newOwner",
          "type": "address"
        }
      ],
      "name": "transferOwnership",
      "outputs": [],
      "stateMutability": "nonpayable",
      "type": "function"
    },
    {
      "inputs": [
        {
          "internalType": "uint256",
          "name": "newBps",
          "type": "uint256"
        }
      ],
      "name": "updateEndorsementFee",
      "outputs": [],
      "stateMutability": "nonpayable",
      "type": "function"
    },
    {
      "inputs": [
        {
          "internalType": "uint256",
          "name": "tokenId",
          "type": "uint256"
        },
        {
          "internalType": "string",
          "name": "newURI",
          "type": "string"
        }
      ],
      "name": "updateTokenURI",
      "outputs": [],
      "stateMutability": "nonpayable",
      "type": "function"
    },
    {
      "inputs": [
        {
          "internalType": "bytes32",
          "name": "",
          "type": "bytes32"
        },
        {
          "internalType": "uint256",
          "name": "",
          "type": "uint256"
        }
      ],
      "name": "versionEndorsementCount",
      "outputs": [
        {
          "internalType": "uint256",
          "name": "",
          "type": "uint256"
        }
      ],
      "stateMutability": "view",
      "type": "function"
    },
    {
      "inputs": [
        {
          "internalType": "bytes32",
          "name": "",
          "type": "bytes32"
        },
        {
          "internalType": "bytes32",
          "name": "",
          "type": "bytes32"
        }
      ],
      "name": "versionExists",
      "outputs": [
        {
          "internalType": "bool",
          "name": "",
          "type": "bool"
        }
      ],
      "stateMutability": "view",
      "type": "function"
    },
    {
      "inputs": [
        {
          "internalType": "bytes32",
          "name": "",
          "type": "bytes32"
        },
        {
          "internalType": "uint256",
          "name": "",
          "type": "uint256"
        }
      ],
      "name": "versionToTokenId",
      "outputs": [
        {
          "internalType": "uint256",
          "name": "",
          "type": "uint256"
        }
      ],
      "stateMutability": "view",
      "type": "function"
    },
    {
      "stateMutability": "payable",
      "type": "receive"
    }
  ],
  "bytecode": "0x60e06040526101f4601a553480156200001757600080fd5b506040516200782b3803806200782b8339810160408190526200003a91620001e5565b336040518060400160405280600a8152602001694465657046616d696c7960b01b8152506040518060400160405280600681526020016546616d696c7960d01b81525081600090816200008e9190620002d4565b5060016200009d8282620002d4565b5050506001600160a01b038116620000cf57604051631e4fbdf760e01b81526000600482015260240160405180910390fd5b620000da8162000176565b506001600b556001600160a01b0383166200010857604051634c32eccd60e11b815260040160405180910390fd5b6001600160a01b0382166200013057604051635fce01bb60e01b815260040160405180910390fd5b6001600160a01b038116620001585760405163abd45c1f60e01b815260040160405180910390fd5b6001600160a01b0392831660805290821660a0521660c052620003a0565b600a80546001600160a01b038381166001600160a01b0319831681179093556040519116919082907f8be0079c531659141344cd1fd0a4f28419497f9722a3daafe3b4186f6b6457e090600090a35050565b80516001600160a01b0381168114620001e057600080fd5b919050565b600080600060608486031215620001fb57600080fd5b6200020684620001c8565b92506200021660208501620001c8565b91506200022660408501620001c8565b90509250925092565b634e487b7160e01b600052604160045260246000fd5b600181811c908216806200025a57607f821691505b6020821081036200027b57634e487b7160e01b600052602260045260246000fd5b50919050565b601f821115620002cf57600081815260208120601f850160051c81016020861015620002aa5750805b601f850160051c820191505b81811015620002cb57828155600101620002b6565b5050505b505050565b81516001600160401b03811115620002f057620002f06200022f565b620003088162000301845462000245565b8462000281565b602080601f831160018114620003405760008415620003275750858301515b600019600386901b1c1916600185901b178555620002cb565b600085815260208120601f198616915b82811015620003715788860151825594840194600190910190840162000350565b5085821015620003905787850151600019600388901b60f8161c191681555b5050505050600190811b01905550565b60805160a05160c051617438620003f3600039600081816105a20152613338015260008181610b12015261361c015260008181610c1701528181613801015281816139a2015261539301526174386000f3fe6080604052600436106103b05760003560e01c80637aac7e11116101e7578063bd12ecec1161010d578063d596b1b0116100a0578063f1fad0671161006f578063f1fad06714610cf6578063f2fde38b14610d23578063f74faf6614610d43578063fe9c3c0514610d7b576103ce565b8063d596b1b014610c39578063dbcdc08f14610c71578063e985e9c514610ca4578063f19c58a714610cc4576103ce565b8063c87b56dd116100dc578063c87b56dd14610baf578063c893eb5614610bcf578063d082e38114610bef578063d1486a1b14610c05576103ce565b8063bd12ecec14610b34578063bd7eef2314610b54578063c090fba214610b6a578063c841eb1f14610b99576103ce565b806395d89b4111610185578063b5c7198d11610154578063b5c7198d14610aaa578063b7fb7ee614610aca578063b88d4fde14610ae0578063bcecdf1d14610b00576103ce565b806395d89b4114610a35578063a22cb46514610a4a578063a294fd6414610a6a578063b570b2ab14610a8a576103ce565b806383af7191116101c157806383af7191146109505780638da5cb5b146109c75780638f2360b3146109e55780638f4ae57c14610a15576103ce565b80637aac7e11146108f35780637e927db51461090857806382260f351461091e576103ce565b80633791b66a116102d75780636352211e1161026a578063715018a611610239578063715018a6146108445780637189567c1461085957806376f0f85d146108bd578063797e57e5146108d3576103ce565b80636352211e146107a157806367b9b3e1146107c1578063690a76bf146107f757806370a0823114610824576103ce565b8063538ffa0b116102a6578063538ffa0b1461070d57806357611dfb1461073a578063583d434f1461076b5780635a4b65d614610781576103ce565b80633791b66a1461066257806342842e0e14610692578063431a342a146106b25780634f6ccce7146106ed576103ce565b8063164e38ee1161034f57806323b872dd1161031e57806323b872dd146105c4578063278d5fce146105e457806328273a2a146106125780632f745c5914610642576103ce565b8063164e38ee1461052657806318160ddd1461055b57806318e97fd1146105705780631d5d7be914610590576103ce565b8063081812fc1161038b578063081812fc14610461578063084979d114610499578063095ea7b3146104cc5780631516fa25146104ee576103ce565b8062eee6a1146103e757806301ffc9a71461040f57806306fdde031461043f576103ce565b366103ce5760405163af9f22fb60e01b815260040160405180910390fd5b60405163af9f22fb60e01b815260040160405180910390fd5b3480156103f357600080fd5b506103fc60c881565b6040519081526020015b60405180910390f35b34801561041b57600080fd5b5061042f61042a366004615d4e565b610d9b565b6040519015158152602001610406565b34801561044b57600080fd5b50610454610dc6565b6040516104069190615dbb565b34801561046d57600080fd5b5061048161047c366004615dce565b610e58565b6040516001600160a01b039091168152602001610406565b3480156104a557600080fd5b506104b96104b4366004615e03565b610e81565b6040516104069796959493929190615e71565b3480156104d857600080fd5b506104ec6104e7366004615ede565b611201565b005b3480156104fa57600080fd5b506103fc610509366004615f08565b601960209081526000928352604080842090915290825290205481565b34801561053257600080fd5b50610546610541366004615f2a565b611210565b60408051928352602083019190915201610406565b34801561056757600080fd5b506008546103fc565b34801561057c57600080fd5b506104ec61058b366004615f9e565b61125a565b34801561059c57600080fd5b506104817f000000000000000000000000000000000000000000000000000000000000000081565b3480156105d057600080fd5b506104ec6105df366004615fe9565b61140d565b3480156105f057600080fd5b506106046105ff366004615dce565b61149d565b60405161040692919061612f565b34801561061e57600080fd5b5061063261062d366004615f2a565b6117a6565b60405161040694939291906161ba565b34801561064e57600080fd5b506103fc61065d366004615ede565b611a82565b34801561066e57600080fd5b5061068261067d366004615f2a565b611ae7565b604051610406949392919061622d565b34801561069e57600080fd5b506104ec6106ad366004615fe9565b611cab565b3480156106be57600080fd5b5061042f6106cd366004615f08565b600e60209081526000928352604080842090915290825290205460ff1681565b3480156106f957600080fd5b506103fc610708366004615dce565b611ccb565b34801561071957600080fd5b506103fc610728366004615dce565b60126020526000908152604090205481565b34801561074657600080fd5b5061075a610755366004616284565b611d24565b6040516104069594939291906162b6565b34801561077757600080fd5b506103fc61271081565b34801561078d57600080fd5b506104ec61079c366004616308565b611f2a565b3480156107ad57600080fd5b506104816107bc366004615dce565b6121b9565b3480156107cd57600080fd5b506107e16107dc366004615f08565b6121c4565b6040516104069a999897969594939291906163a4565b34801561080357600080fd5b506103fc610812366004615dce565b60116020526000908152604090205481565b34801561083057600080fd5b506103fc61083f366004616420565b61235e565b34801561085057600080fd5b506104ec6123a6565b34801561086557600080fd5b50610879610874366004615dce565b6123ba565b6040516104069190600060a0820190508251825260208301516020830152604083015160408301526060830151151560608301526080830151608083015292915050565b3480156108c957600080fd5b506103fc61010081565b3480156108df57600080fd5b506104ec6108ee366004615dce565b612443565b3480156108ff57600080fd5b506103fc601281565b34801561091457600080fd5b506103fc601a5481565b34801561092a57600080fd5b5061093e610939366004615dce565b612537565b604051610406969594939291906164ea565b34801561095c57600080fd5b5061099d61096b366004615dce565b6017602052600090815260409020805460018201546002830154600384015460049094015492939192909160ff169085565b6040805195865260208601949094529284019190915215156060830152608082015260a001610406565b3480156109d357600080fd5b50600a546001600160a01b0316610481565b3480156109f157600080fd5b50610a05610a00366004615f2a565b612a9a565b604051610406949392919061655d565b348015610a2157600080fd5b506104ec610a30366004615dce565b612d96565b348015610a4157600080fd5b50610454612fed565b348015610a5657600080fd5b506104ec610a653660046165c2565b612ffc565b348015610a7657600080fd5b506104ec610a8536600461661b565b613007565b348015610a9657600080fd5b506104ec610aa53660046166ed565b6135d9565b348015610ab657600080fd5b506104ec610ac5366004615f08565b613754565b348015610ad657600080fd5b506103fc6107d081565b348015610aec57600080fd5b506104ec610afb366004616808565b613cda565b348015610b0c57600080fd5b506104817f000000000000000000000000000000000000000000000000000000000000000081565b348015610b4057600080fd5b506104ec610b4f366004615dce565b613cf2565b348015610b6057600080fd5b506103fc600d5481565b348015610b7657600080fd5b50610b8a610b85366004615f08565b613d6d565b604051610406939291906168c7565b348015610ba557600080fd5b506103fc61080081565b348015610bbb57600080fd5b50610454610bca366004615dce565b613fe7565b348015610bdb57600080fd5b506103fc610bea3660046168fc565b614091565b348015610bfb57600080fd5b506103fc60105481565b348015610c1157600080fd5b506104817f000000000000000000000000000000000000000000000000000000000000000081565b348015610c4557600080fd5b506103fc610c54366004615f08565b601660209081526000928352604080842090915290825290205481565b348015610c7d57600080fd5b50610c91610c8c366004615f08565b61421b565b604051610406979695949392919061699d565b348015610cb057600080fd5b5061042f610cbf3660046169fb565b614384565b348015610cd057600080fd5b50610ce4610cdf366004615f2a565b6143b2565b60405161040696959493929190616a2e565b348015610d0257600080fd5b50610d16610d11366004615f08565b614612565b6040516104069190616a86565b348015610d2f57600080fd5b506104ec610d3e366004616420565b6147f4565b348015610d4f57600080fd5b506103fc610d5e366004616a99565b600f60209081526000928352604080842090915290825290205481565b348015610d8757600080fd5b50610454610d96366004615f08565b61482f565b60006001600160e01b0319821663780e9d6360e01b1480610dc05750610dc0826148e8565b92915050565b606060008054610dd590616abc565b80601f0160208091040260200160405190810160405280929190818152602001828054610e0190616abc565b8015610e4e5780601f10610e2357610100808354040283529160200191610e4e565b820191906000526020600020905b815481529060010190602001808311610e3157829003601f168201915b5050505050905090565b6000610e6382614938565b506000828152600460205260409020546001600160a01b0316610dc0565b6001600160a01b0383166000908152601c6020526040812054606091829182918291908080610eb1848b8b614971565b90508060400151600003610f03576040805160008082526020820181815282840182815260608085019384526080808601909652948601519590940151929b50995091975090955090925090506111f4565b80604001516001600160401b03811115610f1f57610f1f6167c2565b604051908082528060200260200182016040528015610f48578160200160208202803683370190505b50975080604001516001600160401b03811115610f6757610f676167c2565b604051908082528060200260200182016040528015610f90578160200160208202803683370190505b50965080604001516001600160401b03811115610faf57610faf6167c2565b604051908082528060200260200182016040528015610fd8578160200160208202803683370190505b50955080604001516001600160401b03811115610ff757610ff76167c2565b604051908082528060200260200182016040528015611020578160200160208202803683370190505b50945060005b81604001518110156111e2576001600160a01b038c166000908152601c602052604081208351611057908490616b0c565b8154811061106757611067616b1f565b90600052602060002001549050808a838151811061108757611087616b1f565b602002602001018181525050600f600082815260200190815260200160002060008e6001600160a01b03166001600160a01b03168152602001908152602001600020548983815181106110dc576110dc616b1f565b60200260200101818152505060008983815181106110fc576110fc616b1f565b602002602001015111156111cf5760196000828152602001908152602001600020600060018b858151811061113357611133616b1f565b60200260200101516111459190616b35565b81526020019081526020016000205488838151811061116657611166616b1f565b6020026020010181815250506016600082815260200190815260200160002060008a848151811061119957611199616b1f565b60200260200101518152602001908152602001600020548783815181106111c2576111c2616b1f565b6020026020010181815250505b50806111da81616b48565b915050611026565b50608081015160609091015190925090505b9397509397509397909450565b61120c828233614a72565b5050565b601b602052826000526040600020602052816000526040600020818154811061123857600080fd5b6000918252602090912060029091020180546001909101549093509150839050565b6000838152600260205260409020546001600160a01b031633146112915760405163daffd8a560e01b815260040160405180910390fd5b6101008111156112b4576040516313f04adb60e01b815260040160405180910390fd5b600083815260146020526040812080546112cd90616abc565b80601f01602080910402602001604051908101604052809291908181526020018280546112f990616abc565b80156113465780601f1061131b57610100808354040283529160200191611346565b820191906000526020600020905b81548152906001019060200180831161132957829003601f168201915b505050505090506000815111156113815760008481526015602090815260408220805460018101825590835291200161137f8282616bbc565b505b6113c18484848080601f016020809104026020016040519081016040528093929190818152602001838380828437600092019190915250614a7f92505050565b336001600160a01b0316847f121742bae49dddcfbb9763fd1170f0dbc15b13707126182671611bbeeeae7cd88386866040516113ff93929190616c9e565b60405180910390a350505050565b6001600160a01b03821661143c57604051633250574960e11b8152600060048201526024015b60405180910390fd5b6000611449838333614a97565b9050836001600160a01b0316816001600160a01b031614611497576040516364283d7b60e01b81526001600160a01b0380861660048301526024820184905282166044820152606401611433565b50505050565b601360209081526000918252604091829020825160c08101845281548152600182015460ff80821615159483019490945261010080820461ffff168387015263010000008204851660608401526401000000008204851660808401526501000000000090910490931660a082015283519283019093526002810180549192918290829061152990616abc565b80601f016020809104026020016040519081016040528092919081815260200182805461155590616abc565b80156115a25780601f10611577576101008083540402835291602001916115a2565b820191906000526020600020905b81548152906001019060200180831161158557829003601f168201915b505050505081526020016001820180546115bb90616abc565b80601f01602080910402602001604051908101604052809291908181526020018280546115e790616abc565b80156116345780601f1061160957610100808354040283529160200191611634565b820191906000526020600020905b81548152906001019060200180831161161757829003601f168201915b5050509183525050600282015460ff8082161515602084015261ffff6101008304166040840152630100000082048116606084015264010000000090910416608082015260038201805460a09092019161168d90616abc565b80601f01602080910402602001604051908101604052809291908181526020018280546116b990616abc565b80156117065780601f106116db57610100808354040283529160200191611706565b820191906000526020600020905b8154815290600101906020018083116116e957829003601f168201915b5050505050815260200160048201805461171f90616abc565b80601f016020809104026020016040519081016040528092919081815260200182805461174b90616abc565b80156117985780601f1061176d57610100808354040283529160200191611798565b820191906000526020600020905b81548152906001019060200180831161177b57829003601f168201915b505050505081525050905082565b606060008060006117b687614938565b50600087815260176020526040812080549450906117d5858989614971565b9050806040015160000361182f576040805160008082526020820190925290611814565b611801615bf1565b8152602001906001900390816117f95790505b50858260800151836060015195509550955095505050611a79565b80604001516001600160401b0381111561184b5761184b6167c2565b60405190808252806020026020018201604052801561188457816020015b611871615bf1565b8152602001906001900390816118695790505b50955060005b8160400151811015611a665760008a815260186020526040812083519091906118b4908490616b0c565b81526020019081526020016000206040518060e001604052908160008201548152602001600182015481526020016002820180546118f190616abc565b80601f016020809104026020016040519081016040528092919081815260200182805461191d90616abc565b801561196a5780601f1061193f5761010080835404028352916020019161196a565b820191906000526020600020905b81548152906001019060200180831161194d57829003601f168201915b50505091835250506003820154602082015260048201546001600160a01b0381166040830152600160a01b900460ff1660608201526005820180546080909201916119b490616abc565b80601f01602080910402602001604051908101604052809291908181526020018280546119e090616abc565b8015611a2d5780601f10611a0257610100808354040283529160200191611a2d565b820191906000526020600020905b815481529060010190602001808311611a1057829003601f168201915b505050505081525050878281518110611a4857611a48616b1f565b60200260200101819052508080611a5e90616b48565b91505061188a565b5060808101516060909101519093509150505b93509350935093565b6000611a8d8361235e565b8210611abe5760405163295f44f760e21b81526001600160a01b038416600482015260248101839052604401611433565b506001600160a01b03919091166000908152600660209081526040808320938352929052205490565b60606000806000611af787614938565b5060008781526015602052604081208054945090611b16858989614971565b90508060400151600003611b68576040805160008082526020820190925290611814565b6060815260200190600190039081611b3a57505060808201516060909201519096509093509150611a799050565b80604001516001600160401b03811115611b8457611b846167c2565b604051908082528060200260200182016040528015611bb757816020015b6060815260200190600190039081611ba25790505b50955060005b8160400151811015611a665781518390611bd8908390616b0c565b81548110611be857611be8616b1f565b906000526020600020018054611bfd90616abc565b80601f0160208091040260200160405190810160405280929190818152602001828054611c2990616abc565b8015611c765780601f10611c4b57610100808354040283529160200191611c76565b820191906000526020600020905b815481529060010190602001808311611c5957829003601f168201915b5050505050878281518110611c8d57611c8d616b1f565b60200260200101819052508080611ca390616b48565b915050611bbd565b611cc683838360405180602001604052806000815250613cda565b505050565b6000611cd660085490565b8210611cff5760405163295f44f760e21b81526000600482015260248101839052604401611433565b60088281548110611d1257611d12616b1f565b90600052602060002001549050919050565b6060806000808088611d495760405163e5d242ed60e01b815260040160405180910390fd5b6000898152600c6020526040902054881115611d7857604051630dd4272d60e41b815260040160405180910390fd5b6000898152601b602090815260408083208b845290915281208054945090611da1858a8a614971565b90508060400151600003611de2576040805160008082526020820190815281830190925260808301516060909301519098509096509093509150611f1f9050565b80604001516001600160401b03811115611dfe57611dfe6167c2565b604051908082528060200260200182016040528015611e27578160200160208202803683370190505b50965080604001516001600160401b03811115611e4657611e466167c2565b604051908082528060200260200182016040528015611e6f578160200160208202803683370190505b50955060005b8160400151811015611f0c57600083828460000151611e949190616b0c565b81548110611ea457611ea4616b1f565b906000526020600020906002020190508060000154898381518110611ecb57611ecb616b1f565b6020026020010181815250508060010154888381518110611eee57611eee616b1f565b60209081029190910101525080611f0481616b48565b915050611e75565b5060808101516060909101519093509150505b945094509450945094565b611f32614b6c565b6000888152600260205260409020546001600160a01b03163314611f695760405163daffd8a560e01b815260040160405180910390fd5b831580611f77575061080084115b15611f9557604051630ef9fbf360e21b815260040160405180910390fd5b6000888152601760205260409020600381015460ff1615611fc957604051631fcb6b9160e01b815260040160405180910390fd5b80548814611fea57604051637df0b86160e01b815260040160405180910390fd5b600061202b87878080601f016020809104026020016040519081016040528093929190818152602001838380828437600092019190915250614b9692505050565b9050821580159061203c5750828114155b1561205a5760405163016c02f160e61b815260040160405180910390fd5b61010084111561207d57604051630601a0fb60e51b815260040160405180910390fd5b60008a81526018602090815260408083208c8452909152902089815560018101829055600281016120af888a83616cc4565b504260038201556004810180546001600160a81b0319163360ff60a01b191617600160a01b60ff8c1602179055600581016120eb868883616cc4565b5082546120f9906001616b0c565b83554260028401556004830154612111908890616b0c565b6004840155600183015460408051602081019290925281018b905260608101839052608001604051602081830303815290604052805190602001208360010181905550336001600160a01b03168a8c7fc986c8203b7382f6ec9faf400a0793cbeb1612afb4dfe81fc13c1b04a310aea7858c8c90508e8c8c60405161219a959493929190616d7d565b60405180910390a45050506121af6001600b55565b5050505050505050565b6000610dc082614938565b600c60205281600052604060002081815481106121e057600080fd5b600091825260209091206009909102018054600182015460028301546003840154600485015460058601546006870154600788018054979a5095985093969295919490936001600160a01b03811693600160a01b9091046001600160601b03169290919061224d90616abc565b80601f016020809104026020016040519081016040528092919081815260200182805461227990616abc565b80156122c65780601f1061229b576101008083540402835291602001916122c6565b820191906000526020600020905b8154815290600101906020018083116122a957829003601f168201915b5050505050908060080180546122db90616abc565b80601f016020809104026020016040519081016040528092919081815260200182805461230790616abc565b80156123545780601f1061232957610100808354040283529160200191612354565b820191906000526020600020905b81548152906001019060200180831161233757829003601f168201915b505050505090508a565b60006001600160a01b03821661238a576040516322718ad960e21b815260006004820152602401611433565b506001600160a01b031660009081526003602052604090205490565b6123ae614bc6565b6123b86000614bf3565b565b6040805160a0810182526000808252602082018190529181018290526060810182905260808101919091526123ee82614938565b5050600090815260176020908152604091829020825160a08101845281548152600182015492810192909252600281015492820192909252600382015460ff1615156060820152600490910154608082015290565b6000818152600260205260409020546001600160a01b0316331461247a5760405163daffd8a560e01b815260040160405180910390fd5b6000818152601760205260409020600381015460ff16156124ae57604051631fcb6b9160e01b815260040160405180910390fd5b80546000036124d057604051637dc66bf560e11b815260040160405180910390fd5b60038101805460ff19166001908117909155426002830155815490820154604051339285927f896066547269dcd0db6295ca6c7f14f927d692103e47c7615259469b74bc7b5d9261252b929190918252602082015260400190565b60405180910390a35050565b600080612542615c2c565b61254a615c82565b6000606061255787614938565b5060008781526011602090815260408083205460129092528220549097509550612582600187616b35565b6000888152600c60205260409020805491925090829081106125a6576125a6616b1f565b600091825260209182902060408051610140810182526009909302909101805483526001810154938301939093526002830154908201526003820154606082015260048201546080820152600582015460a082015260068201546001600160a01b03811660c08301526001600160601b03600160a01b9091041660e08201526007820180549192916101008401919061263e90616abc565b80601f016020809104026020016040519081016040528092919081815260200182805461266a90616abc565b80156126b75780601f1061268c576101008083540402835291602001916126b7565b820191906000526020600020905b81548152906001019060200180831161269a57829003601f168201915b505050505081526020016008820180546126d090616abc565b80601f01602080910402602001604051908101604052809291908181526020018280546126fc90616abc565b80156127495780601f1061271e57610100808354040283529160200191612749565b820191906000526020600020905b81548152906001019060200180831161272c57829003601f168201915b50505091909252505050600089815260136020908152604091829020825161010080820185528254828601908152600184015460ff8082161515606086015261ffff84830416608086015263010000008204811660a08601526401000000008204811660c0860152650100000000009091041660e084015282528451908101909452600282018054959a50909491939285019291829082906127ea90616abc565b80601f016020809104026020016040519081016040528092919081815260200182805461281690616abc565b80156128635780601f1061283857610100808354040283529160200191612863565b820191906000526020600020905b81548152906001019060200180831161284657829003601f168201915b5050505050815260200160018201805461287c90616abc565b80601f01602080910402602001604051908101604052809291908181526020018280546128a890616abc565b80156128f55780601f106128ca576101008083540402835291602001916128f5565b820191906000526020600020905b8154815290600101906020018083116128d857829003601f168201915b5050509183525050600282015460ff8082161515602084015261ffff6101008304166040840152630100000082048116606084015264010000000090910416608082015260038201805460a09092019161294e90616abc565b80601f016020809104026020016040519081016040528092919081815260200182805461297a90616abc565b80156129c75780601f1061299c576101008083540402835291602001916129c7565b820191906000526020600020905b8154815290600101906020018083116129aa57829003601f168201915b505050505081526020016004820180546129e090616abc565b80601f0160208091040260200160405190810160405280929190818152602001828054612a0c90616abc565b8015612a595780601f10612a2e57610100808354040283529160200191612a59565b820191906000526020600020905b815481529060010190602001808311612a3c57829003601f168201915b5050509190925250505090525060008881526019602090815260408083208584529091529020549094509250612a8e88613fe7565b91505091939550919395565b60606000808086612abe5760405163e5d242ed60e01b815260040160405180910390fd5b6000878152600c602052604081208054945090612adc858989614971565b90508060400151600003612b34576040805160008082526020820190925290611814565b612b08615c2c565b815260200190600190039081612b0057505060808201516060909201519096509093509150611a799050565b80604001516001600160401b03811115612b5057612b506167c2565b604051908082528060200260200182016040528015612b8957816020015b612b76615c2c565b815260200190600190039081612b6e5790505b50955060005b8160400151811015611a665781518390612baa908390616b0c565b81548110612bba57612bba616b1f565b600091825260209182902060408051610140810182526009909302909101805483526001810154938301939093526002830154908201526003820154606082015260048201546080820152600582015460a082015260068201546001600160a01b03811660c08301526001600160601b03600160a01b9091041660e082015260078201805491929161010084019190612c5290616abc565b80601f0160208091040260200160405190810160405280929190818152602001828054612c7e90616abc565b8015612ccb5780601f10612ca057610100808354040283529160200191612ccb565b820191906000526020600020905b815481529060010190602001808311612cae57829003601f168201915b50505050508152602001600882018054612ce490616abc565b80601f0160208091040260200160405190810160405280929190818152602001828054612d1090616abc565b8015612d5d5780601f10612d3257610100808354040283529160200191612d5d565b820191906000526020600020905b815481529060010190602001808311612d4057829003601f168201915b505050505081525050878281518110612d7857612d78616b1f565b60200260200101819052508080612d8e90616b48565b915050612b8f565b612d9e614b6c565b80612dbc5760405163e5d242ed60e01b815260040160405180910390fd5b6000818152600f6020908152604080832033845290915281205490819003612df75760405163175f16a160e01b815260040160405180910390fd5b6000612e04600183616b35565b60008481526019602090815260408083208484529091529020549091508015612e4d57612e32600182616b35565b60008581526019602090815260408083208684529091529020555b336000908152601d602090815260408083208784529091529020548015612f83576000612e7b600183616b35565b336000908152601c602052604081205491925090612e9b90600190616b35565b9050808214612f3257336000908152601c60205260408120805483908110612ec557612ec5616b1f565b9060005260206000200154905080601c6000336001600160a01b03166001600160a01b031681526020019081526020016000208481548110612f0957612f09616b1f565b6000918252602080832090910192909255338152601d8252604080822093825292909152208390555b336000908152601c60205260409020805480612f5057612f50616db1565b600082815260208082208301600019908101839055909201909255338252601d815260408083208a845290915281205550505b6000858152600f6020908152604080832033808552908352818420939093558051878152429281019290925287917f203917c2c13a758e439cfec1127753207a42e9750a151a07a4f9484e3e5901b6910160405180910390a350505050612fea6001600b55565b50565b606060018054610dd590616abc565b61120c338383614c45565b61300f614b6c565b84848161302f5760405163e5d242ed60e01b815260040160405180910390fd5b80158061304957506000828152600c602052604090205481115b1561306757604051630dd4272d60e41b815260040160405180910390fd5b6080880135331461308b5760405163bd8cc73160e01b815260040160405180910390fd5b6000878152601660209081526040808320898452909152902054156130c357604051634028e5e560e11b815260040160405180910390fd5b6000878152600f6020908152604080832033845290915290205486146130fc5760405163786bb09f60e11b815260040160405180910390fd5b61010084111561311f576040516313f04adb60e01b815260040160405180910390fd5b61312c60c0840184616dc7565b6131369080616de7565b905060000361315857604051635f895cef60e11b815260040160405180910390fd5b61010061316860c0850185616dc7565b6131729080616de7565b9050111561319357604051635f895cef60e11b815260040160405180910390fd5b6101006131a360c0850185616dc7565b6131b19060e0810190616de7565b905011156131d25760405163f283c51960e01b815260040160405180910390fd5b6101006131e260c0850185616dc7565b6131f0906020810190616de7565b90501115613211576040516367181a3960e11b815260040160405180910390fd5b61010061322160c0850185616dc7565b61322f9060c0810190616de7565b9050111561325057604051633769847160e01b815260040160405180910390fd5b600c61325f60c0850185616dc7565b6132709060a0810190608001616e2d565b60ff16111561329257604051630282898760e21b815260040160405180910390fd5b601f6132a160c0850185616dc7565b6132b29060c081019060a001616e2d565b60ff1611156132d457604051638d177e8360e01b815260040160405180910390fd5b60006132e8610bea368690038601866168fc565b905087811461330a57604051632f38f48f60e21b815260040160405180910390fd5b61332161331c368690038601866168fc565b614ce4565b6040516334baeab960e01b81526001600160a01b037f000000000000000000000000000000000000000000000000000000000000000016906334baeab990613373908f908f908f908f90600401616e6e565b602060405180830381865afa158015613390573d6000803e3d6000fd5b505050506040513d601f19601f820116820180604052508101906133b49190616e9f565b6133d1576040516303b2487b60e11b815260040160405180910390fd5b60006133e68a358b60015b6020020135614e24565b90508435811461340957604051632f38f48f60e21b815260040160405180910390fd5b600061341b60408c01358c60036133dc565b9050600061347361342f60c0890189616dc7565b6134399080616de7565b8080601f016020809104026020016040519081016040528093929190818152602001838380828437600092019190915250614b9692505050565b905081811461349557604051632f38f48f60e21b815260040160405180910390fd5b60006010600081546134a690616b48565b91905081905590508b60116000838152602001908152602001600020819055508a601260008381526020019081526020016000208190555080601660008e815260200190815260200160002060008d81526020019081526020016000208190555087601360008381526020019081526020016000208181613527919061709c565b90505061356a818b8b8080601f016020809104026020016040519081016040528093929190818152602001838380828437600092019190915250614a7f92505050565b6135743382614e64565b336001600160a01b0316818d7fbce71c21e84db5e7dca78ea57ad63b6c66f74f74efc25e33592370ecf39e093b8e8e8e426040516135b59493929190617185565b60405180910390a4505050505050506135ce6001600b55565b505050505050505050565b6135e1614b6c565b60c087013533146136055760405163bd8cc73160e01b815260040160405180910390fd5b60405163c894e75760e01b81526001600160a01b037f0000000000000000000000000000000000000000000000000000000000000000169063c894e75790613657908d908d908d908d906004016171b0565b602060405180830381865afa158015613674573d6000803e3d6000fd5b505050506040513d601f19601f820116820180604052508101906136989190616e9f565b6136b5576040516303b2487b60e11b815260040160405180910390fd5b60006136cc6136c789358a60016133dc565b614e7e565b905060006136e36136c760408b01358b60036133dc565b905060006136fa6136c760808c01358c60056133dc565b604051909150339084907f3015fe19dc9f8f0d942de39092410a57589dd94d2c9134719335fe04e3695eca90600090a361373b8383838c8c8c8c8c8c614e9e565b5050506137486001600b55565b50505050505050505050565b61375c614b6c565b81818161377c5760405163e5d242ed60e01b815260040160405180910390fd5b80158061379657506000828152600c602052604090205481115b156137b457604051630dd4272d60e41b815260040160405180910390fd5b6000848152600f602090815260408083203384529091529020548381036137ee576040516354d92fcb60e01b815260040160405180910390fd5b60006137fb600186616b35565b905060007f00000000000000000000000000000000000000000000000000000000000000006001600160a01b0316636bf90c716040518163ffffffff1660e01b8152600401602060405180830381865afa15801561385d573d6000803e3d6000fd5b505050506040513d601f19601f8201168201806040525081019061388191906171e1565b90506000808085156138ea57600061389a600188616b35565b60008c815260196020908152604080832084845290915290205490915080156138e3576138c8600182616b35565b60008d81526019602090815260408083208684529091529020555b505061393f565b336000908152601c6020526040902054613905906001616b0c565b336000818152601d602090815260408083208f8452825280832094909455918152601c825291822080546001810182559083529120018a90555b60008a81526019602090815260408083208884529091528120805460019290613969908490616b0c565b909155505060008a8152600f6020908152604080832033845290915290208990558315613c555760008a8152600c6020526040812080547f0000000000000000000000000000000000000000000000000000000000000000929190889081106139d4576139d4616b1f565b906000526020600020906009020190506000601660008e815260200190815260200160002060008d815260200190815260200160002054905080600014613a52576000818152600260205260409020546001600160a01b03168015613a3b57809650613a4c565b60068301546001600160a01b031696505b50613a63565b60068201546001600160a01b031695505b6000612710601a5489613a7691906171fa565b613a809190617227565b9050613a8c8189616b35565b94508415613b33576040516323b872dd60e01b81523360048201526001600160a01b03888116602483015260448201879052600091908616906323b872dd906064016020604051808303816000875af1158015613aed573d6000803e3d6000fd5b505050506040513d601f19601f82011682018060405250810190613b119190616e9f565b905080613b3157604051635da1e97760e11b815260040160405180910390fd5b505b8015613c5057600a546001600160a01b0316955085613bb15760405163079cc67960e41b8152336004820152602481018290526001600160a01b038516906379cc679090604401600060405180830381600087803b158015613b9457600080fd5b505af1158015613ba8573d6000803e3d6000fd5b50505050613c50565b6040516323b872dd60e01b81523360048201526001600160a01b03878116602483015260448201839052600091908616906323b872dd906064016020604051808303816000875af1158015613c0a573d6000803e3d6000fd5b505050506040513d601f19601f82011682018060405250810190613c2e9190616e9f565b905080613c4e57604051635da1e97760e11b815260040160405180910390fd5b505b505050505b338a7fd797cb7be92b1c65367745105ff0f8f7f0752feac9ef8841c23b1edfa31e2c128b868587613c86828c616b35565b604080519586526001600160a01b0394851660208701528501929092529091166060830152608082015260a081018890524260c082015260e00160405180910390a3505050505050505061120c6001600b55565b613ce584848461140d565b6114973385858585615465565b613cfa614bc6565b6107d0811115613d1d5760405163499fddb160e01b815260040160405180910390fd5b601a54818103613d2b575050565b601a82905560408051828152602081018490527fd74cd79747ffa26339344d65aac0dc18ab0870dc264e83fae7956c315a1c3bb0910160405180910390a15050565b613d75615c2c565b600080848481613d985760405163e5d242ed60e01b815260040160405180910390fd5b801580613db257506000828152600c602052604090205481115b15613dd057604051630dd4272d60e41b815260040160405180910390fd5b6000613ddd600188616b35565b6000898152600c6020526040902080549192509082908110613e0157613e01616b1f565b600091825260209182902060408051610140810182526009909302909101805483526001810154938301939093526002830154908201526003820154606082015260048201546080820152600582015460a082015260068201546001600160a01b03811660c08301526001600160601b03600160a01b9091041660e082015260078201805491929161010084019190613e9990616abc565b80601f0160208091040260200160405190810160405280929190818152602001828054613ec590616abc565b8015613f125780601f10613ee757610100808354040283529160200191613f12565b820191906000526020600020905b815481529060010190602001808311613ef557829003601f168201915b50505050508152602001600882018054613f2b90616abc565b80601f0160208091040260200160405190810160405280929190818152602001828054613f5790616abc565b8015613fa45780601f10613f7957610100808354040283529160200191613fa4565b820191906000526020600020905b815481529060010190602001808311613f8757829003601f168201915b505050919092525050506000898152601960209081526040808320948352938152838220549a825260168152838220998252989098529620549597945050505050565b6060613ff282614938565b506000828152601460205260409020805461400c90616abc565b80601f016020809104026020016040519081016040528092919081815260200182805461403890616abc565b80156140855780601f1061405a57610100808354040283529160200191614085565b820191906000526020600020905b81548152906001019060200180831161406857829003601f168201915b50505050509050919050565b80516000906140b357604051635f895cef60e11b815260040160405180910390fd5b600c826060015160ff1611156140dc576040516348c5148960e11b815260040160405180910390fd5b601f826080015160ff161115614105576040516309eabf7d60e21b815260040160405180910390fd5b81516020830151608082901c916fffffffffffffffffffffffffffffffff1690600090614133576000614136565b60015b60ff1660018660a0015160ff16901b6008876080015160ff16901b6010886060015160ff16901b6018896040015161ffff16901b171717179050614178615d1a565b838152602081018390526040808201839052516320cf0a3760e01b815260009073__$2aef9c4412434e79047eb4ff1fbb74d596$__906320cf0a37906141c290859060040161723b565b602060405180830381865af41580156141df573d6000803e3d6000fd5b505050506040513d601f19601f8201168201806040525081019061420391906171e1565b90508061420f81614e7e565b98975050505050505050565b60186020908152600092835260408084209091529082529020805460018201546002830180549293919261424e90616abc565b80601f016020809104026020016040519081016040528092919081815260200182805461427a90616abc565b80156142c75780601f1061429c576101008083540402835291602001916142c7565b820191906000526020600020905b8154815290600101906020018083116142aa57829003601f168201915b5050505060038301546004840154600585018054949592946001600160a01b0383169450600160a01b90920460ff16929161430190616abc565b80601f016020809104026020016040519081016040528092919081815260200182805461432d90616abc565b801561437a5780601f1061434f5761010080835404028352916020019161437a565b820191906000526020600020905b81548152906001019060200180831161435d57829003601f168201915b5050505050905087565b6001600160a01b03918216600090815260056020908152604080832093909416825291909152205460ff1690565b6060808060008080886143d85760405163e5d242ed60e01b815260040160405180910390fd5b6000898152600c602052604081205493506143f4848a8a614971565b9050806040015160000361443d57604080516000808252602082018181528284019182526060808401909452608085015194909301519199509197509095509092509050614606565b80604001516001600160401b03811115614459576144596167c2565b604051908082528060200260200182016040528015614482578160200160208202803683370190505b50965080604001516001600160401b038111156144a1576144a16167c2565b6040519080825280602002602001820160405280156144ca578160200160208202803683370190505b50955080604001516001600160401b038111156144e9576144e96167c2565b604051908082528060200260200182016040528015614512578160200160208202803683370190505b50945060005b81604001518110156145f4578151600090614534908390616b0c565b9050614541816001616b0c565b89838151811061455357614553616b1f565b60209081029190910181019190915260008d81526019825260408082208483529092522054885189908490811061458c5761458c616b1f565b60209081029190910181019190915260008d8152601690915260408120906145b5836001616b0c565b8152602001908152602001600020548783815181106145d6576145d6616b1f565b602090810291909101015250806145ec81616b48565b915050614518565b50608081015160609091015190925090505b93975093979195509350565b61461a615bf1565b61462383614938565b5060008381526017602052604090208054831061465357604051637df0b86160e01b815260040160405180910390fd5b6018600085815260200190815260200160002060008481526020019081526020016000206040518060e001604052908160008201548152602001600182015481526020016002820180546146a690616abc565b80601f01602080910402602001604051908101604052809291908181526020018280546146d290616abc565b801561471f5780601f106146f45761010080835404028352916020019161471f565b820191906000526020600020905b81548152906001019060200180831161470257829003601f168201915b50505091835250506003820154602082015260048201546001600160a01b0381166040830152600160a01b900460ff16606082015260058201805460809092019161476990616abc565b80601f016020809104026020016040519081016040528092919081815260200182805461479590616abc565b80156147e25780601f106147b7576101008083540402835291602001916147e2565b820191906000526020600020905b8154815290600101906020018083116147c557829003601f168201915b50505050508152505091505092915050565b6147fc614bc6565b6001600160a01b03811661482657604051631e4fbdf760e01b815260006004820152602401611433565b612fea81614bf3565b6015602052816000526040600020818154811061484b57600080fd5b9060005260206000200160009150915050805461486790616abc565b80601f016020809104026020016040519081016040528092919081815260200182805461489390616abc565b80156148e05780601f106148b5576101008083540402835291602001916148e0565b820191906000526020600020905b8154815290600101906020018083116148c357829003601f168201915b505050505081565b60006001600160e01b031982166380ac58cd60e01b148061491957506001600160e01b03198216635b5e139f60e01b145b80610dc057506301ffc9a760e01b6001600160e01b0319831614610dc0565b6000818152600260205260408120546001600160a01b031680610dc057604051637e27328960e01b815260048101849052602401611433565b6149a56040518060a00160405280600081526020016000815260200160008152602001600081526020016000151581525090565b60c88211156149c757604051630327a73960e61b815260040160405180910390fd5b8115806149d45750838310155b15614a18576040518060a001604052808481526020018481526020016000815260200185851015614a055784614a07565b855b815260006020909101529050614a6b565b6000614a248385616b0c565b905084811115614a315750835b6040518060a001604052808581526020018281526020018583614a549190616b35565b815260200182815260200186831015158152509150505b9392505050565b611cc6838383600161558f565b6000828152601460205260409020611cc68282616bbc565b600080614aa5858585615695565b90506001600160a01b038116614b0257614afd84600880546000838152600960205260408120829055600182018355919091527ff3f7a9fe364faab93b216da50a3214154f22a0a2b415b23a84c8169e8b636ee30155565b614b25565b846001600160a01b0316816001600160a01b031614614b2557614b25818561578e565b6001600160a01b038516614b4157614b3c8461580f565b614b64565b846001600160a01b0316816001600160a01b031614614b6457614b6485856158be565b949350505050565b6002600b5403614b8f57604051633ee5aeb560e01b815260040160405180910390fd5b6002600b55565b600081604051602001614ba9919061726c565b604051602081830303815290604052805190602001209050919050565b600a546001600160a01b031633146123b85760405163118cdaa760e01b8152336004820152602401611433565b600a80546001600160a01b038381166001600160a01b0319831681179093556040519116919082907f8be0079c531659141344cd1fd0a4f28419497f9722a3daafe3b4186f6b6457e090600090a35050565b6001600160a01b038216614c7757604051630b61174360e31b81526001600160a01b0383166004820152602401611433565b6001600160a01b03838116600081815260056020908152604080832094871680845294825291829020805460ff191686151590811790915591519182527f17307eab39ab6107e8899845ad3d59bd9653f200f220920489ca2b5937696c31910160405180910390a3505050565b806020015115614cf15750565b806040015161ffff16600003614d045750565b6000806000614d124261590e565b92509250925082846040015161ffff161115614d415760405163f8e2f35b60e01b815260040160405180910390fd5b6000846040015161ffff1684614d579190616b35565b90506012811115614d69575050505050565b6012811015614d8b5760405163073a2dbd60e11b815260040160405180910390fd5b846060015160ff16600003614da1575050505050565b846060015160ff16831015614dc95760405163073a2dbd60e11b815260040160405180910390fd5b846060015160ff16831115614ddf575050505050565b846080015160ff16600003614df5575050505050565b846080015160ff16821015614e1d5760405163073a2dbd60e11b815260040160405180910390fd5b5050505050565b6000608083901c151580614e3b5750608082901c15155b15614e59576040516303b2487b60e11b815260040160405180910390fd5b5060809190911b1790565b61120c828260405180602001604052806000815250615939565b600081614e8d57506000919050565b604080516020810184905201614ba9565b88614ebc5760405163e5d242ed60e01b815260040160405180910390fd5b88881480614ec957508887145b15614ee75760405163591c836760e01b815260040160405180910390fd5b8715801590614ef557508688145b15614f135760405163591c836760e01b815260040160405180910390fd5b87158015614f2057508515155b15614f3e57604051631f9510eb60e01b815260040160405180910390fd5b86158015614f4b57508415155b15614f695760405163782ce69f60e01b815260040160405180910390fd5b6000888152600c6020526040902054861115614f9857604051631f9510eb60e01b815260040160405180910390fd5b6000878152600c6020526040902054851115614fc75760405163782ce69f60e01b815260040160405180910390fd5b610100831115614fea57604051635fab396360e11b815260040160405180910390fd5b61010081111561500d57604051630601a0fb60e51b815260040160405180910390fd5b60008989898989898989896040516020016150309998979695949392919061727e565b60408051601f19818403018152918152815160209283012060008d8152600e845282812082825290935291205490915060ff1615615081576040516314396b6760e11b815260040160405180910390fd5b60008a8152600e602090815260408083208484528252808320805460ff191660011790558c8352600c82528083208151610140810183528e81528084018e90528083018d90526060810194909452608084018b905260a084018a90523360c08501526001600160601b03421660e08501528151601f89018490048402810184019092528782529291610100830191908990899081908401838280828437600092019190915250505090825250604080516020601f8801819004810282018101909252868152918101919087908790819084018382808284376000920182905250939094525050835460018181018655948252602091829020845160099092020190815590830151938101939093555060408101516002830155606081015160038301556080810151600483015560a0810151600583015560c081015160e08201516001600160601b0316600160a01b026001600160a01b0390911617600683015561010081015190919060078201906151fa9082616bbc565b5061012082015160088201906152109082616bbc565b50505060008a8152600c602052604090208054908190615231600183616b35565b8154811061524157615241616b1f565b600091825260209091206003600990920201015589156152a85760008a8152601b602090815260408083208b8452825280832081518083019092528e8252818301858152815460018181018455928652939094209151600290930290910191825591519101555b88156152fb576000898152601b602090815260408083208a8452825280832081518083019092528e8252818301858152815460018181018455928652939094209151600290930290910191825591519101555b8060010361531957600d805490600061531383616b48565b91905055505b336001600160a01b0316818c7ff24ca8fe8e48960e559267341f81e7b0f07746d1e98c729930fe251bd2875484428e8d8f8e8e8e60405161536097969594939291906172d3565b60405180910390a4891580159061537657508815155b15615458576040516335313c2160e11b81523360048201526000907f00000000000000000000000000000000000000000000000000000000000000006001600160a01b031690636a627842906024016020604051808303816000875af11580156153e4573d6000803e3d6000fd5b505050506040513d601f19601f8201168201806040525081019061540891906171e1565b9050801561545657818c336001600160a01b03167fdefc43c3e9b037326c59d7c3f29c0b6b5c94a6fbfcced006b763e74a3115da6d8460405161544d91815260200190565b60405180910390a45b505b5050505050505050505050565b6001600160a01b0383163b15614e1d57604051630a85bd0160e11b81526001600160a01b0384169063150b7a02906154a7908890889087908790600401617305565b6020604051808303816000875af19250505080156154e2575060408051601f3d908101601f191682019092526154df91810190617338565b60015b61554b573d808015615510576040519150601f19603f3d011682016040523d82523d6000602084013e615515565b606091505b50805160000361554357604051633250574960e11b81526001600160a01b0385166004820152602401611433565b805160208201fd5b6001600160e01b03198116630a85bd0160e11b1461558757604051633250574960e11b81526001600160a01b0385166004820152602401611433565b505050505050565b80806155a357506001600160a01b03821615155b156156655760006155b384614938565b90506001600160a01b038316158015906155df5750826001600160a01b0316816001600160a01b031614155b80156155f257506155f08184614384565b155b1561561b5760405163a9fbf51f60e01b81526001600160a01b0384166004820152602401611433565b81156156635783856001600160a01b0316826001600160a01b03167f8c5be1e5ebec7d5bd14f71427d1e84f3dd0314c0f7b2291e5b200ac8c7c3b92560405160405180910390a45b505b5050600090815260046020526040902080546001600160a01b0319166001600160a01b0392909216919091179055565b6000828152600260205260408120546001600160a01b03908116908316156156c2576156c2818486615951565b6001600160a01b03811615615700576156df60008560008061558f565b6001600160a01b038116600090815260036020526040902080546000190190555b6001600160a01b0385161561572f576001600160a01b0385166000908152600360205260409020805460010190555b60008481526002602052604080822080546001600160a01b0319166001600160a01b0389811691821790925591518793918516917fddf252ad1be2c89b69c2b068fc378daa952ba7f163c4a11628f55a4df523b3ef91a4949350505050565b60006157998361235e565b6000838152600760209081526040808320546001600160a01b03881684526006909252909120919250908183146157f057600083815260208281526040808320548584528184208190558352600790915290208290555b6000938452600760209081526040808620869055938552525081205550565b60085460009061582190600190616b35565b6000838152600960205260408120546008805493945090928490811061584957615849616b1f565b90600052602060002001549050806008838154811061586a5761586a616b1f565b60009182526020808320909101929092558281526009909152604080822084905585825281205560088054806158a2576158a2616db1565b6001900381819060005260206000200160009055905550505050565b600060016158cb8461235e565b6158d59190616b35565b6001600160a01b039093166000908152600660209081526040808320868452825280832085905593825260079052919091209190915550565b60008080806159206201518086617227565b905061592b816159b5565b919790965090945092505050565b6159438383615b29565b611cc6336000858585615465565b61595c838383615b8e565b611cc6576001600160a01b03831661598a57604051637e27328960e01b815260048101829052602401611433565b60405163177e802f60e01b81526001600160a01b038316600482015260248101829052604401611433565b60008080838162253d8c6159cc8362010bd9617355565b6159d69190617355565b9050600062023ab16159e983600461737d565b6159f391906173ad565b90506004615a048262023ab161737d565b615a0f906003617355565b615a1991906173ad565b615a2390836173db565b9150600062164b09615a36846001617355565b615a4290610fa061737d565b615a4c91906173ad565b90506004615a5c826105b561737d565b615a6691906173ad565b615a7090846173db565b615a7b90601f617355565b9250600061098f615a8d85605061737d565b615a9791906173ad565b905060006050615aa98361098f61737d565b615ab391906173ad565b615abd90866173db565b9050615aca600b836173ad565b9450615ad785600c61737d565b615ae2836002617355565b615aec91906173db565b91508483615afb6031876173db565b615b0690606461737d565b615b109190617355565b615b1a9190617355565b9a919950975095505050505050565b6001600160a01b038216615b5357604051633250574960e11b815260006004820152602401611433565b6000615b6183836000614a97565b90506001600160a01b03811615611cc6576040516339e3563760e11b815260006004820152602401611433565b60006001600160a01b03831615801590614b645750826001600160a01b0316846001600160a01b03161480615bc85750615bc88484614384565b80614b645750506000908152600460205260409020546001600160a01b03908116911614919050565b6040805160e08101825260008082526020820181905260609282018390528282018190526080820181905260a082015260c081019190915290565b604080516101408101825260008082526020820181905291810182905260608082018390526080820183905260a0820183905260c0820183905260e0820192909252610100810182905261012081019190915290565b60408051610100810182526000918101828152606082018390526080820183905260a0820183905260c0820183905260e08201929092529081908152602001615d156040518061010001604052806060815260200160608152602001600015158152602001600061ffff168152602001600060ff168152602001600060ff16815260200160608152602001606081525090565b905290565b60405180606001604052806003906020820280368337509192915050565b6001600160e01b031981168114612fea57600080fd5b600060208284031215615d6057600080fd5b8135614a6b81615d38565b60005b83811015615d86578181015183820152602001615d6e565b50506000910152565b60008151808452615da7816020860160208601615d6b565b601f01601f19169290920160200192915050565b602081526000614a6b6020830184615d8f565b600060208284031215615de057600080fd5b5035919050565b80356001600160a01b0381168114615dfe57600080fd5b919050565b600080600060608486031215615e1857600080fd5b615e2184615de7565b95602085013595506040909401359392505050565b600081518084526020808501945080840160005b83811015615e6657815187529582019590820190600101615e4a565b509495945050505050565b60e081526000615e8460e083018a615e36565b8281036020840152615e96818a615e36565b90508281036040840152615eaa8189615e36565b90508281036060840152615ebe8188615e36565b6080840196909652505091151560a083015260c090910152949350505050565b60008060408385031215615ef157600080fd5b615efa83615de7565b946020939093013593505050565b60008060408385031215615f1b57600080fd5b50508035926020909101359150565b600080600060608486031215615f3f57600080fd5b505081359360208301359350604090920135919050565b60008083601f840112615f6857600080fd5b5081356001600160401b03811115615f7f57600080fd5b602083019150836020828501011115615f9757600080fd5b9250929050565b600080600060408486031215615fb357600080fd5b8335925060208401356001600160401b03811115615fd057600080fd5b615fdc86828701615f56565b9497909650939450505050565b600080600060608486031215615ffe57600080fd5b61600784615de7565b925061601560208501615de7565b9150604084013590509250925092565b8051825260208101511515602083015261ffff604082015116604083015260ff606082015116606083015260ff608082015116608083015260ff60a08201511660a08301525050565b6000610100825181855261608482860182615d8f565b9150506020830151848203602086015261609e8282615d8f565b91505060408301516160b4604086018215159052565b5060608301516160ca606086018261ffff169052565b5060808301516160df608086018260ff169052565b5060a08301516160f460a086018260ff169052565b5060c083015184820360c086015261610c8282615d8f565b91505060e083015184820360e08601526161268282615d8f565b95945050505050565b6161398184616025565b60e060c08201526000614b6460e083018461606e565b80518252602081015160208301526000604082015160e0604085015261617860e0850182615d8f565b90506060830151606085015260018060a01b03608084015116608085015260ff60a08401511660a085015260c083015184820360c08601526161268282615d8f565b6000608082016080835280875180835260a08501915060a08160051b86010192506020808a0160005b8381101561621157609f198887030185526161ff86835161614f565b955093820193908201906001016161e3565b5050850197909752509315156040830152506060015292915050565b6000608082016080835280875180835260a08501915060a08160051b86010192506020808a0160005b8381101561621157609f19888703018552616272868351615d8f565b95509382019390820190600101616256565b6000806000806080858703121561629a57600080fd5b5050823594602084013594506040840135936060013592509050565b60a0815260006162c960a0830188615e36565b82810360208401526162db8188615e36565b60408401969096525050911515606083015260809091015292915050565b60ff81168114612fea57600080fd5b60008060008060008060008060c0898b03121561632457600080fd5b8835975060208901359650604089013561633d816162f9565b955060608901356001600160401b038082111561635957600080fd5b6163658c838d01615f56565b909750955060808b013591508082111561637e57600080fd5b5061638b8b828c01615f56565b999c989b50969995989497949560a00135949350505050565b60006101408c83528b60208401528a60408401528960608401528860808401528760a084015260018060a01b03871660c08401526001600160601b03861660e0840152806101008401526163fa81840186615d8f565b905082810361012084015261640f8185615d8f565b9d9c50505050505050505050505050565b60006020828403121561643257600080fd5b614a6b82615de7565b6000610140825184526020830151602085015260408301516040850152606083015160608501526080830151608085015260a083015160a085015260c083015161649060c08601826001600160a01b03169052565b5060e08301516164ab60e08601826001600160601b03169052565b506101008084015182828701526164c483870182615d8f565b9250505061012080840151858303828701526164e08382615d8f565b9695505050505050565b86815285602082015260c06040820152600061650960c083018761643b565b828103606084015261651c818751616025565b602086015160e060c083015261653560e083018261606e565b91505084608084015282810360a08401526165508185615d8f565b9998505050505050505050565b6000608082016080835280875180835260a08501915060a08160051b86010192506020808a0160005b8381101561621157609f198887030185526165a286835161643b565b95509382019390820190600101616586565b8015158114612fea57600080fd5b600080604083850312156165d557600080fd5b6165de83615de7565b915060208301356165ee816165b4565b809150509250929050565b8060408101831015610dc057600080fd5b8060808101831015610dc057600080fd5b60008060008060008060008060006102208a8c03121561663a57600080fd5b6166448b8b6165f9565b98506166538b60408c0161660a565b97506166628b60c08c016165f9565b96506101a08a018b81111561667657600080fd5b6101008b0196503594506101c08a013593506101e08a01356001600160401b03808211156166a357600080fd5b6166af8d838e01615f56565b90955093506102008c01359150808211156166c957600080fd5b508a0160e0818d0312156166dc57600080fd5b809150509295985092959850929598565b6000806000806000806000806000806102608b8d03121561670d57600080fd5b6167178c8c6165f9565b99506167268c60408d0161660a565b98506167358c60c08d016165f9565b97506101e08b018c81111561674957600080fd5b6101008c0197503595506102008b013594506102208b01356001600160401b038082111561677657600080fd5b6167828e838f01615f56565b90965094506102408d013591508082111561679c57600080fd5b506167a98d828e01615f56565b915080935050809150509295989b9194979a5092959850565b634e487b7160e01b600052604160045260246000fd5b604051601f8201601f191681016001600160401b0381118282101715616800576168006167c2565b604052919050565b6000806000806080858703121561681e57600080fd5b61682785615de7565b93506020616836818701615de7565b93506040860135925060608601356001600160401b038082111561685957600080fd5b818801915088601f83011261686d57600080fd5b81358181111561687f5761687f6167c2565b616891601f8201601f191685016167d8565b915080825289848285010111156168a757600080fd5b808484018584013760008482840101525080935050505092959194509250565b6060815260006168da606083018661643b565b60208301949094525060400152919050565b61ffff81168114612fea57600080fd5b600060c0828403121561690e57600080fd5b60405160c081018181106001600160401b0382111715616930576169306167c2565b604052823581526020830135616945816165b4565b60208201526040830135616958816168ec565b6040820152606083013561696b816162f9565b6060820152608083013561697e816162f9565b608082015260a0830135616991816162f9565b60a08201529392505050565b87815286602082015260e0604082015260006169bc60e0830188615d8f565b606083018790526001600160a01b038616608084015260ff851660a084015282810360c08401526169ed8185615d8f565b9a9950505050505050505050565b60008060408385031215616a0e57600080fd5b616a1783615de7565b9150616a2560208401615de7565b90509250929050565b60c081526000616a4160c0830189615e36565b8281036020840152616a538189615e36565b90508281036040840152616a678188615e36565b60608401969096525050911515608083015260a0909101529392505050565b602081526000614a6b602083018461614f565b60008060408385031215616aac57600080fd5b82359150616a2560208401615de7565b600181811c90821680616ad057607f821691505b602082108103616af057634e487b7160e01b600052602260045260246000fd5b50919050565b634e487b7160e01b600052601160045260246000fd5b80820180821115610dc057610dc0616af6565b634e487b7160e01b600052603260045260246000fd5b81810381811115610dc057610dc0616af6565b600060018201616b5a57616b5a616af6565b5060010190565b601f821115611cc657600081815260208120601f850160051c81016020861015616b885750805b601f850160051c820191505b8181101561558757828155600101616b94565b600019600383901b1c191660019190911b1790565b81516001600160401b03811115616bd557616bd56167c2565b616be981616be38454616abc565b84616b61565b602080601f831160018114616c185760008415616c065750858301515b616c108582616ba7565b865550615587565b600085815260208120601f198616915b82811015616c4757888601518255948401946001909101908401616c28565b5085821015616c655787850151600019600388901b60f8161c191681555b5050505050600190811b01905550565b81835281816020850137506000828201602090810191909152601f909101601f19169091010190565b604081526000616cb16040830186615d8f565b82810360208401526164e0818587616c75565b6001600160401b03831115616cdb57616cdb6167c2565b616cef83616ce98354616abc565b83616b61565b6000601f841160018114616d1d5760008515616d0b5750838201355b616d158682616ba7565b845550614e1d565b600083815260209020601f19861690835b82811015616d4e5786850135825560209485019460019092019101616d2e565b5086821015616d6b5760001960f88860031b161c19848701351681555b505060018560011b0183555050505050565b85815284602082015260ff84166040820152608060608201526000616da6608083018486616c75565b979650505050505050565b634e487b7160e01b600052603160045260246000fd5b6000823560fe19833603018112616ddd57600080fd5b9190910192915050565b6000808335601e19843603018112616dfe57600080fd5b8301803591506001600160401b03821115616e1857600080fd5b602001915036819003821315615f9757600080fd5b600060208284031215616e3f57600080fd5b8135614a6b816162f9565b8060005b600281101561149757604080838637938401939190910190600101616e4e565b6101a081016040868337616e856040830186616e4a565b60408460c084013760a08361010084013795945050505050565b600060208284031215616eb157600080fd5b8151614a6b816165b4565b60008135610dc0816165b4565b60008135610dc0816168ec565b60008135610dc0816162f9565b616eed8283616de7565b6001600160401b03811115616f0457616f046167c2565b616f1881616f128554616abc565b85616b61565b6000601f821160018114616f465760008315616f345750838201355b616f3e8482616ba7565b865550616fa0565b600085815260209020601f19841690835b82811015616f775786850135825560209485019460019092019101616f57565b5084821015616f945760001960f88660031b161c19848701351681555b505060018360011b0185555b50505050616fb16020830183616de7565b616fbf818360018601616cc4565b505060028101616fe8616fd460408501616ebc565b825490151560ff1660ff1991909116178255565b61700f616ff760608501616ec9565b825462ffff00191660089190911b62ffff0016178255565b61703861701e60808501616ed6565b825463ff000000191660189190911b63ff00000016178255565b61706361704760a08501616ed6565b825464ff00000000191660209190911b64ff0000000016178255565b5061707160c0830183616de7565b61707f818360038601616cc4565b505061708e60e0830183616de7565b611497818360048601616cc4565b813581556001810160208301356170b2816165b4565b815460ff191660ff821515161782555060408301356170d0816168ec565b815462ffff001916600882901b62ffff00161782555060608301356170f4816162f9565b815463ff0000001916601882901b63ff0000001617825550608083013561711a816162f9565b815464ff000000001916602082901b64ff00000000161782555060a0830135617142816162f9565b815465ff0000000000191660289190911b65ff00000000001617905560c08201353683900360fe1901811261717657600080fd5b611cc681840160028401616ee3565b84815260606020820152600061719f606083018587616c75565b905082604083015295945050505050565b6101e0810160408683376171c76040830186616e4a565b60408460c084013760e08361010084013795945050505050565b6000602082840312156171f357600080fd5b5051919050565b8082028115828204841417610dc057610dc0616af6565b634e487b7160e01b600052601260045260246000fd5b60008261723657617236617211565b500490565b60608101818360005b6003811015617263578151835260209283019290910190600101617244565b50505092915050565b60008251616ddd818460208701615d6b565b89815288602082015287604082015286606082015285608082015260e060a082015260006172b060e083018688616c75565b82810360c08401526172c3818587616c75565b9c9b505050505050505050505050565b87815286602082015285604082015284606082015283608082015260c060a0820152600061655060c083018486616c75565b6001600160a01b03858116825284166020820152604081018390526080606082018190526000906164e090830184615d8f565b60006020828403121561734a57600080fd5b8151614a6b81615d38565b808201828112600083128015821682158216171561737557617375616af6565b505092915050565b80820260008212600160ff1b8414161561739957617399616af6565b8181058314821517610dc057610dc0616af6565b6000826173bc576173bc617211565b600160ff1b8214600019841416156173d6576173d6616af6565b500590565b81810360008312801583831316838312821617156173fb576173fb616af6565b509291505056fea264697066735822122045b394800bcbaa1960838eb3936d3368435361ea61cd729228b6772ee3040db464736f6c63430008140033",
  "linkReferences": {
    "npm/poseidon-solidity@0.0.5/PoseidonT4.sol": {
      "PoseidonT4": [
        {
          "length": 20,
          "start": 17805
        }
      ]
    }
  },
  "deployedLinkReferences": {
    "npm/poseidon-solidity@0.0.5/PoseidonT4.sol": {
      "PoseidonT4": [
        {
          "length": 20,
          "start": 16794
        }
      ]
    }
  },
  "immutableReferences": {
    "7509": [
      {
        "length": 32,
        "start": 3095
      },
      {
        "length": 32,
        "start": 14337
      },
      {
        "length": 32,
        "start": 14754
      },
      {
        "length": 32,
        "start": 21395
      }
    ],
    "7512": [
      {
        "length": 32,
        "start": 2834
      },
      {
        "length": 32,
        "start": 13852
      }
    ],
    "7514": [
      {
        "length": 32,
        "start": 1442
      },
      {
        "length": 32,
        "start": 13112
      }
    ]
  },
  "inputSourceName": "project/contracts/DeepFamily.sol",
  "buildInfoId": "solc-0_8_20-6bf78c9a3934d63e5551490fc65574960a754f8c"
}