{
  "_format": "hh-sol-artifact-1",
  "contractName": "DeepFamily",
  "sourceName": "contracts/DeepFamily.sol",
  "abi": [
    {
      "inputs": [
        {
          "internalType": "address",
          "name": "_deepFamilyTokenContract",
          "type": "address"
        },
        {
          "internalType": "address",
          "name": "_personHashVerifier",
          "type": "address"
        }
      ],
      "stateMutability": "nonpayable",
      "type": "constructor"
    },
    {
      "inputs": [],
      "name": "BasicInfoMismatch",
      "type": "error"
    },
    {
      "inputs": [],
      "name": "ChunkHashMismatch",
      "type": "error"
    },
    {
      "inputs": [],
      "name": "ChunkIndexOutOfRange",
      "type": "error"
    },
    {
      "inputs": [],
      "name": "DirectETHNotAccepted",
      "type": "error"
    },
    {
      "inputs": [],
      "name": "DuplicateVersion",
      "type": "error"
    },
    {
      "inputs": [],
      "name": "ERC721EnumerableForbiddenBatchMint",
      "type": "error"
    },
    {
      "inputs": [
        {
          "internalType": "address",
          "name": "sender",
          "type": "address"
        },
        {
          "internalType": "uint256",
          "name": "tokenId",
          "type": "uint256"
        },
        {
          "internalType": "address",
          "name": "owner",
          "type": "address"
        }
      ],
      "name": "ERC721IncorrectOwner",
      "type": "error"
    },
    {
      "inputs": [
        {
          "internalType": "address",
          "name": "operator",
          "type": "address"
        },
        {
          "internalType": "uint256",
          "name": "tokenId",
          "type": "uint256"
        }
      ],
      "name": "ERC721InsufficientApproval",
      "type": "error"
    },
    {
      "inputs": [
        {
          "internalType": "address",
          "name": "approver",
          "type": "address"
        }
      ],
      "name": "ERC721InvalidApprover",
      "type": "error"
    },
    {
      "inputs": [
        {
          "internalType": "address",
          "name": "operator",
          "type": "address"
        }
      ],
      "name": "ERC721InvalidOperator",
      "type": "error"
    },
    {
      "inputs": [
        {
          "internalType": "address",
          "name": "owner",
          "type": "address"
        }
      ],
      "name": "ERC721InvalidOwner",
      "type": "error"
    },
    {
      "inputs": [
        {
          "internalType": "address",
          "name": "receiver",
          "type": "address"
        }
      ],
      "name": "ERC721InvalidReceiver",
      "type": "error"
    },
    {
      "inputs": [
        {
          "internalType": "address",
          "name": "sender",
          "type": "address"
        }
      ],
      "name": "ERC721InvalidSender",
      "type": "error"
    },
    {
      "inputs": [
        {
          "internalType": "uint256",
          "name": "tokenId",
          "type": "uint256"
        }
      ],
      "name": "ERC721NonexistentToken",
      "type": "error"
    },
    {
      "inputs": [
        {
          "internalType": "address",
          "name": "owner",
          "type": "address"
        },
        {
          "internalType": "uint256",
          "name": "index",
          "type": "uint256"
        }
      ],
      "name": "ERC721OutOfBoundsIndex",
      "type": "error"
    },
    {
      "inputs": [],
      "name": "EndorsementFeeTransferFailed",
      "type": "error"
    },
    {
      "inputs": [],
      "name": "InvalidBirthDay",
      "type": "error"
    },
    {
      "inputs": [],
      "name": "InvalidBirthMonth",
      "type": "error"
    },
    {
      "inputs": [],
      "name": "InvalidBirthPlace",
      "type": "error"
    },
    {
      "inputs": [],
      "name": "InvalidCIDLength",
      "type": "error"
    },
    {
      "inputs": [],
      "name": "InvalidChunkContent",
      "type": "error"
    },
    {
      "inputs": [],
      "name": "InvalidDeathPlace",
      "type": "error"
    },
    {
      "inputs": [],
      "name": "InvalidFatherVersionIndex",
      "type": "error"
    },
    {
      "inputs": [],
      "name": "InvalidFullName",
      "type": "error"
    },
    {
      "inputs": [],
      "name": "InvalidMotherVersionIndex",
      "type": "error"
    },
    {
      "inputs": [],
      "name": "InvalidPersonHash",
      "type": "error"
    },
    {
      "inputs": [],
      "name": "InvalidStory",
      "type": "error"
    },
    {
      "inputs": [],
      "name": "InvalidTagLength",
      "type": "error"
    },
    {
      "inputs": [],
      "name": "InvalidTokenId",
      "type": "error"
    },
    {
      "inputs": [],
      "name": "InvalidTokenURI",
      "type": "error"
    },
    {
      "inputs": [],
      "name": "InvalidVersionIndex",
      "type": "error"
    },
    {
      "inputs": [],
      "name": "InvalidZKProof",
      "type": "error"
    },
    {
      "inputs": [],
      "name": "MustBeNFTHolder",
      "type": "error"
    },
    {
      "inputs": [],
      "name": "MustEndorseVersionFirst",
      "type": "error"
    },
    {
      "inputs": [
        {
          "internalType": "address",
          "name": "owner",
          "type": "address"
        }
      ],
      "name": "OwnableInvalidOwner",
      "type": "error"
    },
    {
      "inputs": [
        {
          "internalType": "address",
          "name": "account",
          "type": "address"
        }
      ],
      "name": "OwnableUnauthorizedAccount",
      "type": "error"
    },
    {
      "inputs": [],
      "name": "PageSizeExceedsLimit",
      "type": "error"
    },
    {
      "inputs": [],
      "name": "ReentrancyGuardReentrantCall",
      "type": "error"
    },
    {
      "inputs": [],
      "name": "StoryAlreadySealed",
      "type": "error"
    },
    {
      "inputs": [],
      "name": "StoryNotFound",
      "type": "error"
    },
    {
      "inputs": [],
      "name": "TokenContractNotSet",
      "type": "error"
    },
    {
      "inputs": [],
      "name": "VerifierNotSet",
      "type": "error"
    },
    {
      "inputs": [],
      "name": "VersionAlreadyMinted",
      "type": "error"
    },
    {
      "anonymous": false,
      "inputs": [
        {
          "indexed": true,
          "internalType": "address",
          "name": "owner",
          "type": "address"
        },
        {
          "indexed": true,
          "internalType": "address",
          "name": "approved",
          "type": "address"
        },
        {
          "indexed": true,
          "internalType": "uint256",
          "name": "tokenId",
          "type": "uint256"
        }
      ],
      "name": "Approval",
      "type": "event"
    },
    {
      "anonymous": false,
      "inputs": [
        {
          "indexed": true,
          "internalType": "address",
          "name": "owner",
          "type": "address"
        },
        {
          "indexed": true,
          "internalType": "address",
          "name": "operator",
          "type": "address"
        },
        {
          "indexed": false,
          "internalType": "bool",
          "name": "approved",
          "type": "bool"
        }
      ],
      "name": "ApprovalForAll",
      "type": "event"
    },
    {
      "anonymous": false,
      "inputs": [
        {
          "indexed": true,
          "internalType": "address",
          "name": "previousOwner",
          "type": "address"
        },
        {
          "indexed": true,
          "internalType": "address",
          "name": "newOwner",
          "type": "address"
        }
      ],
      "name": "OwnershipTransferred",
      "type": "event"
    },
    {
      "anonymous": false,
      "inputs": [
        {
          "indexed": true,
          "internalType": "bytes32",
          "name": "personHash",
          "type": "bytes32"
        },
        {
          "indexed": true,
          "internalType": "address",
          "name": "prover",
          "type": "address"
        }
      ],
      "name": "PersonHashZKVerified",
      "type": "event"
    },
    {
      "anonymous": false,
      "inputs": [
        {
          "indexed": true,
          "internalType": "bytes32",
          "name": "personHash",
          "type": "bytes32"
        },
        {
          "indexed": true,
          "internalType": "uint256",
          "name": "tokenId",
          "type": "uint256"
        },
        {
          "indexed": true,
          "internalType": "address",
          "name": "owner",
          "type": "address"
        },
        {
          "indexed": false,
          "internalType": "uint256",
          "name": "versionIndex",
          "type": "uint256"
        },
        {
          "indexed": false,
          "internalType": "string",
          "name": "tokenURI",
          "type": "string"
        },
        {
          "indexed": false,
          "internalType": "uint256",
          "name": "timestamp",
          "type": "uint256"
        }
      ],
      "name": "PersonNFTMinted",
      "type": "event"
    },
    {
      "anonymous": false,
      "inputs": [
        {
          "indexed": true,
          "internalType": "bytes32",
          "name": "personHash",
          "type": "bytes32"
        },
        {
          "indexed": true,
          "internalType": "uint256",
          "name": "versionIndex",
          "type": "uint256"
        },
        {
          "indexed": true,
          "internalType": "address",
          "name": "addedBy",
          "type": "address"
        },
        {
          "indexed": false,
          "internalType": "uint256",
          "name": "timestamp",
          "type": "uint256"
        },
        {
          "indexed": false,
          "internalType": "bytes32",
          "name": "fatherHash",
          "type": "bytes32"
        },
        {
          "indexed": false,
          "internalType": "uint256",
          "name": "fatherVersionIndex",
          "type": "uint256"
        },
        {
          "indexed": false,
          "internalType": "bytes32",
          "name": "motherHash",
          "type": "bytes32"
        },
        {
          "indexed": false,
          "internalType": "uint256",
          "name": "motherVersionIndex",
          "type": "uint256"
        },
        {
          "indexed": false,
          "internalType": "string",
          "name": "tag",
          "type": "string"
        }
      ],
      "name": "PersonVersionAdded",
      "type": "event"
    },
    {
      "anonymous": false,
      "inputs": [
        {
          "indexed": true,
          "internalType": "bytes32",
          "name": "personHash",
          "type": "bytes32"
        },
        {
          "indexed": true,
          "internalType": "address",
          "name": "endorser",
          "type": "address"
        },
        {
          "indexed": false,
          "internalType": "uint256",
          "name": "versionIndex",
          "type": "uint256"
        },
        {
          "indexed": false,
          "internalType": "uint256",
          "name": "endorsementFee",
          "type": "uint256"
        },
        {
          "indexed": false,
          "internalType": "uint256",
          "name": "timestamp",
          "type": "uint256"
        }
      ],
      "name": "PersonVersionEndorsed",
      "type": "event"
    },
    {
      "anonymous": false,
      "inputs": [
        {
          "indexed": true,
          "internalType": "uint256",
          "name": "tokenId",
          "type": "uint256"
        },
        {
          "indexed": true,
          "internalType": "uint256",
          "name": "chunkIndex",
          "type": "uint256"
        },
        {
          "indexed": false,
          "internalType": "bytes32",
          "name": "chunkHash",
          "type": "bytes32"
        },
        {
          "indexed": true,
          "internalType": "address",
          "name": "editor",
          "type": "address"
        },
        {
          "indexed": false,
          "internalType": "uint256",
          "name": "contentLength",
          "type": "uint256"
        }
      ],
      "name": "StoryChunkAdded",
      "type": "event"
    },
    {
      "anonymous": false,
      "inputs": [
        {
          "indexed": true,
          "internalType": "uint256",
          "name": "tokenId",
          "type": "uint256"
        },
        {
          "indexed": true,
          "internalType": "uint256",
          "name": "chunkIndex",
          "type": "uint256"
        },
        {
          "indexed": false,
          "internalType": "bytes32",
          "name": "oldHash",
          "type": "bytes32"
        },
        {
          "indexed": false,
          "internalType": "bytes32",
          "name": "newHash",
          "type": "bytes32"
        },
        {
          "indexed": true,
          "internalType": "address",
          "name": "editor",
          "type": "address"
        }
      ],
      "name": "StoryChunkUpdated",
      "type": "event"
    },
    {
      "anonymous": false,
      "inputs": [
        {
          "indexed": true,
          "internalType": "uint256",
          "name": "tokenId",
          "type": "uint256"
        },
        {
          "indexed": false,
          "internalType": "uint256",
          "name": "totalChunks",
          "type": "uint256"
        },
        {
          "indexed": false,
          "internalType": "bytes32",
          "name": "fullStoryHash",
          "type": "bytes32"
        },
        {
          "indexed": true,
          "internalType": "address",
          "name": "sealer",
          "type": "address"
        }
      ],
      "name": "StorySealed",
      "type": "event"
    },
    {
      "anonymous": false,
      "inputs": [
        {
          "indexed": true,
          "internalType": "address",
          "name": "miner",
          "type": "address"
        },
        {
          "indexed": true,
          "internalType": "bytes32",
          "name": "personHash",
          "type": "bytes32"
        },
        {
          "indexed": true,
          "internalType": "uint256",
          "name": "versionIndex",
          "type": "uint256"
        },
        {
          "indexed": false,
          "internalType": "uint256",
          "name": "reward",
          "type": "uint256"
        }
      ],
      "name": "TokenRewardDistributed",
      "type": "event"
    },
    {
      "anonymous": false,
      "inputs": [
        {
          "indexed": true,
          "internalType": "uint256",
          "name": "tokenId",
          "type": "uint256"
        },
        {
          "indexed": true,
          "internalType": "address",
          "name": "owner",
          "type": "address"
        },
        {
          "indexed": false,
          "internalType": "string",
          "name": "oldURI",
          "type": "string"
        },
        {
          "indexed": false,
          "internalType": "string",
          "name": "newURI",
          "type": "string"
        }
      ],
      "name": "TokenURIUpdated",
      "type": "event"
    },
    {
      "anonymous": false,
      "inputs": [
        {
          "indexed": true,
          "internalType": "address",
          "name": "from",
          "type": "address"
        },
        {
          "indexed": true,
          "internalType": "address",
          "name": "to",
          "type": "address"
        },
        {
          "indexed": true,
          "internalType": "uint256",
          "name": "tokenId",
          "type": "uint256"
        }
      ],
      "name": "Transfer",
      "type": "event"
    },
    {
      "stateMutability": "payable",
      "type": "fallback"
    },
    {
      "inputs": [],
      "name": "DEEP_FAMILY_TOKEN_CONTRACT",
      "outputs": [
        {
          "internalType": "address",
          "name": "",
          "type": "address"
        }
      ],
      "stateMutability": "view",
      "type": "function"
    },
    {
      "inputs": [],
      "name": "MAX_CHUNK_CONTENT_LENGTH",
      "outputs": [
        {
          "internalType": "uint256",
          "name": "",
          "type": "uint256"
        }
      ],
      "stateMutability": "view",
      "type": "function"
    },
    {
      "inputs": [],
      "name": "MAX_LONG_TEXT_LENGTH",
      "outputs": [
        {
          "internalType": "uint256",
          "name": "",
          "type": "uint256"
        }
      ],
      "stateMutability": "view",
      "type": "function"
    },
    {
      "inputs": [],
      "name": "MAX_QUERY_PAGE_SIZE",
      "outputs": [
        {
          "internalType": "uint256",
          "name": "",
          "type": "uint256"
        }
      ],
      "stateMutability": "view",
      "type": "function"
    },
    {
      "inputs": [],
      "name": "MAX_STORY_CHUNKS",
      "outputs": [
        {
          "internalType": "uint256",
          "name": "",
          "type": "uint256"
        }
      ],
      "stateMutability": "view",
      "type": "function"
    },
    {
      "inputs": [],
      "name": "PERSON_HASH_VERIFIER",
      "outputs": [
        {
          "internalType": "address",
          "name": "",
          "type": "address"
        }
      ],
      "stateMutability": "view",
      "type": "function"
    },
    {
      "inputs": [
        {
          "internalType": "uint256",
          "name": "",
          "type": "uint256"
        },
        {
          "internalType": "uint256",
          "name": "",
          "type": "uint256"
        }
      ],
      "name": "activeChunkIndices",
      "outputs": [
        {
          "internalType": "uint256",
          "name": "",
          "type": "uint256"
        }
      ],
      "stateMutability": "view",
      "type": "function"
    },
    {
      "inputs": [
        {
          "internalType": "bytes32",
          "name": "personHash",
          "type": "bytes32"
        },
        {
          "internalType": "bytes32",
          "name": "fatherHash",
          "type": "bytes32"
        },
        {
          "internalType": "bytes32",
          "name": "motherHash",
          "type": "bytes32"
        },
        {
          "internalType": "uint256",
          "name": "fatherVersionIndex",
          "type": "uint256"
        },
        {
          "internalType": "uint256",
          "name": "motherVersionIndex",
          "type": "uint256"
        },
        {
          "internalType": "string",
          "name": "tag",
          "type": "string"
        },
        {
          "internalType": "string",
          "name": "metadataCID",
          "type": "string"
        }
      ],
      "name": "addPerson",
      "outputs": [],
      "stateMutability": "nonpayable",
      "type": "function"
    },
    {
      "inputs": [
        {
          "internalType": "uint256[2]",
          "name": "a",
          "type": "uint256[2]"
        },
        {
          "internalType": "uint256[2][2]",
          "name": "b",
          "type": "uint256[2][2]"
        },
        {
          "internalType": "uint256[2]",
          "name": "c",
          "type": "uint256[2]"
        },
        {
          "internalType": "uint256[]",
          "name": "publicSignals",
          "type": "uint256[]"
        },
        {
          "internalType": "uint256",
          "name": "fatherVersionIndex",
          "type": "uint256"
        },
        {
          "internalType": "uint256",
          "name": "motherVersionIndex",
          "type": "uint256"
        },
        {
          "internalType": "string",
          "name": "tag",
          "type": "string"
        },
        {
          "internalType": "string",
          "name": "metadataCID",
          "type": "string"
        }
      ],
      "name": "addPersonZK",
      "outputs": [],
      "stateMutability": "nonpayable",
      "type": "function"
    },
    {
      "inputs": [
        {
          "internalType": "uint256",
          "name": "tokenId",
          "type": "uint256"
        },
        {
          "internalType": "uint256",
          "name": "chunkIndex",
          "type": "uint256"
        },
        {
          "internalType": "string",
          "name": "content",
          "type": "string"
        },
        {
          "internalType": "bytes32",
          "name": "expectedHash",
          "type": "bytes32"
        }
      ],
      "name": "addStoryChunk",
      "outputs": [],
      "stateMutability": "nonpayable",
      "type": "function"
    },
    {
      "inputs": [
        {
          "internalType": "address",
          "name": "to",
          "type": "address"
        },
        {
          "internalType": "uint256",
          "name": "tokenId",
          "type": "uint256"
        }
      ],
      "name": "approve",
      "outputs": [],
      "stateMutability": "nonpayable",
      "type": "function"
    },
    {
      "inputs": [
        {
          "internalType": "address",
          "name": "owner",
          "type": "address"
        }
      ],
      "name": "balanceOf",
      "outputs": [
        {
          "internalType": "uint256",
          "name": "",
          "type": "uint256"
        }
      ],
      "stateMutability": "view",
      "type": "function"
    },
    {
      "inputs": [
        {
          "internalType": "bytes32",
          "name": "",
          "type": "bytes32"
        },
        {
          "internalType": "uint256",
          "name": "",
          "type": "uint256"
        },
        {
          "internalType": "uint256",
          "name": "",
          "type": "uint256"
        }
      ],
      "name": "childrenOf",
      "outputs": [
        {
          "internalType": "bytes32",
          "name": "childHash",
          "type": "bytes32"
        },
        {
          "internalType": "uint256",
          "name": "childVersionIndex",
          "type": "uint256"
        }
      ],
      "stateMutability": "view",
      "type": "function"
    },
    {
      "inputs": [
        {
          "internalType": "bytes32",
          "name": "personHash",
          "type": "bytes32"
        }
      ],
      "name": "countPersonVersions",
      "outputs": [
        {
          "internalType": "uint256",
          "name": "versionCount",
          "type": "uint256"
        }
      ],
      "stateMutability": "view",
      "type": "function"
    },
    {
      "inputs": [
        {
          "internalType": "bytes32",
          "name": "personHash",
          "type": "bytes32"
        },
        {
          "internalType": "uint256",
          "name": "versionIndex",
          "type": "uint256"
        }
      ],
      "name": "endorseVersion",
      "outputs": [],
      "stateMutability": "nonpayable",
      "type": "function"
    },
    {
      "inputs": [
        {
          "internalType": "bytes32",
          "name": "",
          "type": "bytes32"
        },
        {
          "internalType": "address",
          "name": "",
          "type": "address"
        }
      ],
      "name": "endorsedVersionIndex",
      "outputs": [
        {
          "internalType": "uint256",
          "name": "",
          "type": "uint256"
        }
      ],
      "stateMutability": "view",
      "type": "function"
    },
    {
      "inputs": [
        {
          "internalType": "uint256",
          "name": "tokenId",
          "type": "uint256"
        }
      ],
      "name": "getApproved",
      "outputs": [
        {
          "internalType": "address",
          "name": "",
          "type": "address"
        }
      ],
      "stateMutability": "view",
      "type": "function"
    },
    {
      "inputs": [
        {
          "internalType": "uint256",
          "name": "tokenId",
          "type": "uint256"
        }
      ],
      "name": "getNFTDetails",
      "outputs": [
        {
          "internalType": "bytes32",
          "name": "personHash",
          "type": "bytes32"
        },
        {
          "internalType": "uint256",
          "name": "versionIndex",
          "type": "uint256"
        },
        {
          "components": [
            {
              "internalType": "bytes32",
              "name": "personHash",
              "type": "bytes32"
            },
            {
              "internalType": "bytes32",
              "name": "fatherHash",
              "type": "bytes32"
            },
            {
              "internalType": "bytes32",
              "name": "motherHash",
              "type": "bytes32"
            },
            {
              "internalType": "uint256",
              "name": "versionIndex",
              "type": "uint256"
            },
            {
              "internalType": "uint256",
              "name": "fatherVersionIndex",
              "type": "uint256"
            },
            {
              "internalType": "uint256",
              "name": "motherVersionIndex",
              "type": "uint256"
            },
            {
              "internalType": "address",
              "name": "addedBy",
              "type": "address"
            },
            {
              "internalType": "uint96",
              "name": "timestamp",
              "type": "uint96"
            },
            {
              "internalType": "string",
              "name": "tag",
              "type": "string"
            },
            {
              "internalType": "string",
              "name": "metadataCID",
              "type": "string"
            }
          ],
          "internalType": "struct DeepFamily.PersonVersion",
          "name": "version",
          "type": "tuple"
        },
        {
          "components": [
            {
              "components": [
                {
                  "internalType": "string",
                  "name": "fullName",
                  "type": "string"
                },
                {
                  "internalType": "bool",
                  "name": "isBirthBC",
                  "type": "bool"
                },
                {
                  "internalType": "uint16",
                  "name": "birthYear",
                  "type": "uint16"
                },
                {
                  "internalType": "uint8",
                  "name": "birthMonth",
                  "type": "uint8"
                },
                {
                  "internalType": "uint8",
                  "name": "birthDay",
                  "type": "uint8"
                },
                {
                  "internalType": "uint8",
                  "name": "gender",
                  "type": "uint8"
                }
              ],
              "internalType": "struct DeepFamily.PersonBasicInfo",
              "name": "basicInfo",
              "type": "tuple"
            },
            {
              "components": [
                {
                  "internalType": "string",
                  "name": "birthPlace",
                  "type": "string"
                },
                {
                  "internalType": "bool",
                  "name": "isDeathBC",
                  "type": "bool"
                },
                {
                  "internalType": "uint16",
                  "name": "deathYear",
                  "type": "uint16"
                },
                {
                  "internalType": "uint8",
                  "name": "deathMonth",
                  "type": "uint8"
                },
                {
                  "internalType": "uint8",
                  "name": "deathDay",
                  "type": "uint8"
                },
                {
                  "internalType": "string",
                  "name": "deathPlace",
                  "type": "string"
                },
                {
                  "internalType": "string",
                  "name": "story",
                  "type": "string"
                }
              ],
              "internalType": "struct DeepFamily.PersonSupplementInfo",
              "name": "supplementInfo",
              "type": "tuple"
            }
          ],
          "internalType": "struct DeepFamily.PersonCoreInfo",
          "name": "coreInfo",
          "type": "tuple"
        },
        {
          "internalType": "uint256",
          "name": "endorsementCount",
          "type": "uint256"
        },
        {
          "internalType": "string",
          "name": "nftTokenURI",
          "type": "string"
        }
      ],
      "stateMutability": "view",
      "type": "function"
    },
    {
      "inputs": [
        {
          "components": [
            {
              "internalType": "string",
              "name": "fullName",
              "type": "string"
            },
            {
              "internalType": "bool",
              "name": "isBirthBC",
              "type": "bool"
            },
            {
              "internalType": "uint16",
              "name": "birthYear",
              "type": "uint16"
            },
            {
              "internalType": "uint8",
              "name": "birthMonth",
              "type": "uint8"
            },
            {
              "internalType": "uint8",
              "name": "birthDay",
              "type": "uint8"
            },
            {
              "internalType": "uint8",
              "name": "gender",
              "type": "uint8"
            }
          ],
          "internalType": "struct DeepFamily.PersonBasicInfo",
          "name": "basicInfo",
          "type": "tuple"
        }
      ],
      "name": "getPersonHash",
      "outputs": [
        {
          "internalType": "bytes32",
          "name": "",
          "type": "bytes32"
        }
      ],
      "stateMutability": "pure",
      "type": "function"
    },
    {
      "inputs": [
        {
          "internalType": "uint256",
          "name": "tokenId",
          "type": "uint256"
        },
        {
          "internalType": "uint256",
          "name": "chunkIndex",
          "type": "uint256"
        }
      ],
      "name": "getStoryChunk",
      "outputs": [
        {
          "components": [
            {
              "internalType": "uint256",
              "name": "chunkIndex",
              "type": "uint256"
            },
            {
              "internalType": "bytes32",
              "name": "chunkHash",
              "type": "bytes32"
            },
            {
              "internalType": "string",
              "name": "content",
              "type": "string"
            },
            {
              "internalType": "uint256",
              "name": "timestamp",
              "type": "uint256"
            },
            {
              "internalType": "address",
              "name": "lastEditor",
              "type": "address"
            }
          ],
          "internalType": "struct DeepFamily.StoryChunk",
          "name": "chunk",
          "type": "tuple"
        }
      ],
      "stateMutability": "view",
      "type": "function"
    },
    {
      "inputs": [
        {
          "internalType": "uint256",
          "name": "tokenId",
          "type": "uint256"
        }
      ],
      "name": "getStoryMetadata",
      "outputs": [
        {
          "components": [
            {
              "internalType": "uint256",
              "name": "totalChunks",
              "type": "uint256"
            },
            {
              "internalType": "bytes32",
              "name": "fullStoryHash",
              "type": "bytes32"
            },
            {
              "internalType": "uint256",
              "name": "lastUpdateTime",
              "type": "uint256"
            },
            {
              "internalType": "bool",
              "name": "isSealed",
              "type": "bool"
            },
            {
              "internalType": "uint256",
              "name": "totalLength",
              "type": "uint256"
            }
          ],
          "internalType": "struct DeepFamily.StoryMetadata",
          "name": "metadata",
          "type": "tuple"
        }
      ],
      "stateMutability": "view",
      "type": "function"
    },
    {
      "inputs": [
        {
          "internalType": "bytes32",
          "name": "personHash",
          "type": "bytes32"
        },
        {
          "internalType": "uint256",
          "name": "versionIndex",
          "type": "uint256"
        }
      ],
      "name": "getVersionDetails",
      "outputs": [
        {
          "components": [
            {
              "internalType": "bytes32",
              "name": "personHash",
              "type": "bytes32"
            },
            {
              "internalType": "bytes32",
              "name": "fatherHash",
              "type": "bytes32"
            },
            {
              "internalType": "bytes32",
              "name": "motherHash",
              "type": "bytes32"
            },
            {
              "internalType": "uint256",
              "name": "versionIndex",
              "type": "uint256"
            },
            {
              "internalType": "uint256",
              "name": "fatherVersionIndex",
              "type": "uint256"
            },
            {
              "internalType": "uint256",
              "name": "motherVersionIndex",
              "type": "uint256"
            },
            {
              "internalType": "address",
              "name": "addedBy",
              "type": "address"
            },
            {
              "internalType": "uint96",
              "name": "timestamp",
              "type": "uint96"
            },
            {
              "internalType": "string",
              "name": "tag",
              "type": "string"
            },
            {
              "internalType": "string",
              "name": "metadataCID",
              "type": "string"
            }
          ],
          "internalType": "struct DeepFamily.PersonVersion",
          "name": "version",
          "type": "tuple"
        },
        {
          "internalType": "uint256",
          "name": "endorsementCount",
          "type": "uint256"
        },
        {
          "internalType": "uint256",
          "name": "tokenId",
          "type": "uint256"
        }
      ],
      "stateMutability": "view",
      "type": "function"
    },
    {
      "inputs": [
        {
          "internalType": "address",
          "name": "owner",
          "type": "address"
        },
        {
          "internalType": "address",
          "name": "operator",
          "type": "address"
        }
      ],
      "name": "isApprovedForAll",
      "outputs": [
        {
          "internalType": "bool",
          "name": "",
          "type": "bool"
        }
      ],
      "stateMutability": "view",
      "type": "function"
    },
    {
      "inputs": [
        {
          "internalType": "bytes32",
          "name": "parentHash",
          "type": "bytes32"
        },
        {
          "internalType": "uint256",
          "name": "parentVersionIndex",
          "type": "uint256"
        },
        {
          "internalType": "uint256",
          "name": "offset",
          "type": "uint256"
        },
        {
          "internalType": "uint256",
          "name": "limit",
          "type": "uint256"
        }
      ],
      "name": "listChildren",
      "outputs": [
        {
          "internalType": "bytes32[]",
          "name": "childHashes",
          "type": "bytes32[]"
        },
        {
          "internalType": "uint256[]",
          "name": "childVersionIndices",
          "type": "uint256[]"
        },
        {
          "internalType": "uint256",
          "name": "totalCount",
          "type": "uint256"
        },
        {
          "internalType": "bool",
          "name": "hasMore",
          "type": "bool"
        },
        {
          "internalType": "uint256",
          "name": "nextOffset",
          "type": "uint256"
        }
      ],
      "stateMutability": "view",
      "type": "function"
    },
    {
      "inputs": [
        {
          "internalType": "bytes32",
          "name": "personHash",
          "type": "bytes32"
        },
        {
          "internalType": "uint256",
          "name": "offset",
          "type": "uint256"
        },
        {
          "internalType": "uint256",
          "name": "limit",
          "type": "uint256"
        }
      ],
      "name": "listPersonVersions",
      "outputs": [
        {
          "components": [
            {
              "internalType": "bytes32",
              "name": "personHash",
              "type": "bytes32"
            },
            {
              "internalType": "bytes32",
              "name": "fatherHash",
              "type": "bytes32"
            },
            {
              "internalType": "bytes32",
              "name": "motherHash",
              "type": "bytes32"
            },
            {
              "internalType": "uint256",
              "name": "versionIndex",
              "type": "uint256"
            },
            {
              "internalType": "uint256",
              "name": "fatherVersionIndex",
              "type": "uint256"
            },
            {
              "internalType": "uint256",
              "name": "motherVersionIndex",
              "type": "uint256"
            },
            {
              "internalType": "address",
              "name": "addedBy",
              "type": "address"
            },
            {
              "internalType": "uint96",
              "name": "timestamp",
              "type": "uint96"
            },
            {
              "internalType": "string",
              "name": "tag",
              "type": "string"
            },
            {
              "internalType": "string",
              "name": "metadataCID",
              "type": "string"
            }
          ],
          "internalType": "struct DeepFamily.PersonVersion[]",
          "name": "versions",
          "type": "tuple[]"
        },
        {
          "internalType": "uint256",
          "name": "totalVersions",
          "type": "uint256"
        },
        {
          "internalType": "bool",
          "name": "hasMore",
          "type": "bool"
        },
        {
          "internalType": "uint256",
          "name": "nextOffset",
          "type": "uint256"
        }
      ],
      "stateMutability": "view",
      "type": "function"
    },
    {
      "inputs": [
        {
          "internalType": "uint256",
          "name": "tokenId",
          "type": "uint256"
        },
        {
          "internalType": "uint256",
          "name": "offset",
          "type": "uint256"
        },
        {
          "internalType": "uint256",
          "name": "limit",
          "type": "uint256"
        }
      ],
      "name": "listStoryChunks",
      "outputs": [
        {
          "components": [
            {
              "internalType": "uint256",
              "name": "chunkIndex",
              "type": "uint256"
            },
            {
              "internalType": "bytes32",
              "name": "chunkHash",
              "type": "bytes32"
            },
            {
              "internalType": "string",
              "name": "content",
              "type": "string"
            },
            {
              "internalType": "uint256",
              "name": "timestamp",
              "type": "uint256"
            },
            {
              "internalType": "address",
              "name": "lastEditor",
              "type": "address"
            }
          ],
          "internalType": "struct DeepFamily.StoryChunk[]",
          "name": "chunks",
          "type": "tuple[]"
        },
        {
          "internalType": "uint256",
          "name": "totalChunks",
          "type": "uint256"
        },
        {
          "internalType": "bool",
          "name": "hasMore",
          "type": "bool"
        },
        {
          "internalType": "uint256",
          "name": "nextOffset",
          "type": "uint256"
        }
      ],
      "stateMutability": "view",
      "type": "function"
    },
    {
      "inputs": [
        {
          "internalType": "uint256",
          "name": "tokenId",
          "type": "uint256"
        },
        {
          "internalType": "uint256",
          "name": "offset",
          "type": "uint256"
        },
        {
          "internalType": "uint256",
          "name": "limit",
          "type": "uint256"
        }
      ],
      "name": "listTokenURIHistory",
      "outputs": [
        {
          "internalType": "string[]",
          "name": "uris",
          "type": "string[]"
        },
        {
          "internalType": "uint256",
          "name": "totalCount",
          "type": "uint256"
        },
        {
          "internalType": "bool",
          "name": "hasMore",
          "type": "bool"
        },
        {
          "internalType": "uint256",
          "name": "nextOffset",
          "type": "uint256"
        }
      ],
      "stateMutability": "view",
      "type": "function"
    },
    {
      "inputs": [
        {
          "internalType": "bytes32",
          "name": "personHash",
          "type": "bytes32"
        },
        {
          "internalType": "uint256",
          "name": "offset",
          "type": "uint256"
        },
        {
          "internalType": "uint256",
          "name": "limit",
          "type": "uint256"
        }
      ],
      "name": "listVersionsEndorsementStats",
      "outputs": [
        {
          "internalType": "uint256[]",
          "name": "versionIndices",
          "type": "uint256[]"
        },
        {
          "internalType": "uint256[]",
          "name": "endorsementCounts",
          "type": "uint256[]"
        },
        {
          "internalType": "uint256[]",
          "name": "tokenIds",
          "type": "uint256[]"
        },
        {
          "internalType": "uint256",
          "name": "totalVersions",
          "type": "uint256"
        },
        {
          "internalType": "bool",
          "name": "hasMore",
          "type": "bool"
        },
        {
          "internalType": "uint256",
          "name": "nextOffset",
          "type": "uint256"
        }
      ],
      "stateMutability": "view",
      "type": "function"
    },
    {
      "inputs": [
        {
          "internalType": "bytes32",
          "name": "personHash",
          "type": "bytes32"
        },
        {
          "internalType": "uint256",
          "name": "versionIndex",
          "type": "uint256"
        },
        {
          "internalType": "string",
          "name": "_tokenURI",
          "type": "string"
        },
        {
          "components": [
            {
              "components": [
                {
                  "internalType": "string",
                  "name": "fullName",
                  "type": "string"
                },
                {
                  "internalType": "bool",
                  "name": "isBirthBC",
                  "type": "bool"
                },
                {
                  "internalType": "uint16",
                  "name": "birthYear",
                  "type": "uint16"
                },
                {
                  "internalType": "uint8",
                  "name": "birthMonth",
                  "type": "uint8"
                },
                {
                  "internalType": "uint8",
                  "name": "birthDay",
                  "type": "uint8"
                },
                {
                  "internalType": "uint8",
                  "name": "gender",
                  "type": "uint8"
                }
              ],
              "internalType": "struct DeepFamily.PersonBasicInfo",
              "name": "basicInfo",
              "type": "tuple"
            },
            {
              "components": [
                {
                  "internalType": "string",
                  "name": "birthPlace",
                  "type": "string"
                },
                {
                  "internalType": "bool",
                  "name": "isDeathBC",
                  "type": "bool"
                },
                {
                  "internalType": "uint16",
                  "name": "deathYear",
                  "type": "uint16"
                },
                {
                  "internalType": "uint8",
                  "name": "deathMonth",
                  "type": "uint8"
                },
                {
                  "internalType": "uint8",
                  "name": "deathDay",
                  "type": "uint8"
                },
                {
                  "internalType": "string",
                  "name": "deathPlace",
                  "type": "string"
                },
                {
                  "internalType": "string",
                  "name": "story",
                  "type": "string"
                }
              ],
              "internalType": "struct DeepFamily.PersonSupplementInfo",
              "name": "supplementInfo",
              "type": "tuple"
            }
          ],
          "internalType": "struct DeepFamily.PersonCoreInfo",
          "name": "coreInfo",
          "type": "tuple"
        }
      ],
      "name": "mintPersonNFT",
      "outputs": [],
      "stateMutability": "nonpayable",
      "type": "function"
    },
    {
      "inputs": [],
      "name": "name",
      "outputs": [
        {
          "internalType": "string",
          "name": "",
          "type": "string"
        }
      ],
      "stateMutability": "view",
      "type": "function"
    },
    {
      "inputs": [
        {
          "internalType": "uint256",
          "name": "",
          "type": "uint256"
        }
      ],
      "name": "nftCoreInfo",
      "outputs": [
        {
          "components": [
            {
              "internalType": "string",
              "name": "fullName",
              "type": "string"
            },
            {
              "internalType": "bool",
              "name": "isBirthBC",
              "type": "bool"
            },
            {
              "internalType": "uint16",
              "name": "birthYear",
              "type": "uint16"
            },
            {
              "internalType": "uint8",
              "name": "birthMonth",
              "type": "uint8"
            },
            {
              "internalType": "uint8",
              "name": "birthDay",
              "type": "uint8"
            },
            {
              "internalType": "uint8",
              "name": "gender",
              "type": "uint8"
            }
          ],
          "internalType": "struct DeepFamily.PersonBasicInfo",
          "name": "basicInfo",
          "type": "tuple"
        },
        {
          "components": [
            {
              "internalType": "string",
              "name": "birthPlace",
              "type": "string"
            },
            {
              "internalType": "bool",
              "name": "isDeathBC",
              "type": "bool"
            },
            {
              "internalType": "uint16",
              "name": "deathYear",
              "type": "uint16"
            },
            {
              "internalType": "uint8",
              "name": "deathMonth",
              "type": "uint8"
            },
            {
              "internalType": "uint8",
              "name": "deathDay",
              "type": "uint8"
            },
            {
              "internalType": "string",
              "name": "deathPlace",
              "type": "string"
            },
            {
              "internalType": "string",
              "name": "story",
              "type": "string"
            }
          ],
          "internalType": "struct DeepFamily.PersonSupplementInfo",
          "name": "supplementInfo",
          "type": "tuple"
        }
      ],
      "stateMutability": "view",
      "type": "function"
    },
    {
      "inputs": [],
      "name": "owner",
      "outputs": [
        {
          "internalType": "address",
          "name": "",
          "type": "address"
        }
      ],
      "stateMutability": "view",
      "type": "function"
    },
    {
      "inputs": [
        {
          "internalType": "uint256",
          "name": "tokenId",
          "type": "uint256"
        }
      ],
      "name": "ownerOf",
      "outputs": [
        {
          "internalType": "address",
          "name": "",
          "type": "address"
        }
      ],
      "stateMutability": "view",
      "type": "function"
    },
    {
      "inputs": [
        {
          "internalType": "bytes32",
          "name": "",
          "type": "bytes32"
        },
        {
          "internalType": "uint256",
          "name": "",
          "type": "uint256"
        }
      ],
      "name": "personVersions",
      "outputs": [
        {
          "internalType": "bytes32",
          "name": "personHash",
          "type": "bytes32"
        },
        {
          "internalType": "bytes32",
          "name": "fatherHash",
          "type": "bytes32"
        },
        {
          "internalType": "bytes32",
          "name": "motherHash",
          "type": "bytes32"
        },
        {
          "internalType": "uint256",
          "name": "versionIndex",
          "type": "uint256"
        },
        {
          "internalType": "uint256",
          "name": "fatherVersionIndex",
          "type": "uint256"
        },
        {
          "internalType": "uint256",
          "name": "motherVersionIndex",
          "type": "uint256"
        },
        {
          "internalType": "address",
          "name": "addedBy",
          "type": "address"
        },
        {
          "internalType": "uint96",
          "name": "timestamp",
          "type": "uint96"
        },
        {
          "internalType": "string",
          "name": "tag",
          "type": "string"
        },
        {
          "internalType": "string",
          "name": "metadataCID",
          "type": "string"
        }
      ],
      "stateMutability": "view",
      "type": "function"
    },
    {
      "inputs": [],
      "name": "renounceOwnership",
      "outputs": [],
      "stateMutability": "nonpayable",
      "type": "function"
    },
    {
      "inputs": [
        {
          "internalType": "address",
          "name": "from",
          "type": "address"
        },
        {
          "internalType": "address",
          "name": "to",
          "type": "address"
        },
        {
          "internalType": "uint256",
          "name": "tokenId",
          "type": "uint256"
        }
      ],
      "name": "safeTransferFrom",
      "outputs": [],
      "stateMutability": "nonpayable",
      "type": "function"
    },
    {
      "inputs": [
        {
          "internalType": "address",
          "name": "from",
          "type": "address"
        },
        {
          "internalType": "address",
          "name": "to",
          "type": "address"
        },
        {
          "internalType": "uint256",
          "name": "tokenId",
          "type": "uint256"
        },
        {
          "internalType": "bytes",
          "name": "data",
          "type": "bytes"
        }
      ],
      "name": "safeTransferFrom",
      "outputs": [],
      "stateMutability": "nonpayable",
      "type": "function"
    },
    {
      "inputs": [
        {
          "internalType": "uint256",
          "name": "tokenId",
          "type": "uint256"
        }
      ],
      "name": "sealStory",
      "outputs": [],
      "stateMutability": "nonpayable",
      "type": "function"
    },
    {
      "inputs": [
        {
          "internalType": "address",
          "name": "operator",
          "type": "address"
        },
        {
          "internalType": "bool",
          "name": "approved",
          "type": "bool"
        }
      ],
      "name": "setApprovalForAll",
      "outputs": [],
      "stateMutability": "nonpayable",
      "type": "function"
    },
    {
      "inputs": [
        {
          "internalType": "uint256",
          "name": "",
          "type": "uint256"
        },
        {
          "internalType": "uint256",
          "name": "",
          "type": "uint256"
        }
      ],
      "name": "storyChunks",
      "outputs": [
        {
          "internalType": "uint256",
          "name": "chunkIndex",
          "type": "uint256"
        },
        {
          "internalType": "bytes32",
          "name": "chunkHash",
          "type": "bytes32"
        },
        {
          "internalType": "string",
          "name": "content",
          "type": "string"
        },
        {
          "internalType": "uint256",
          "name": "timestamp",
          "type": "uint256"
        },
        {
          "internalType": "address",
          "name": "lastEditor",
          "type": "address"
        }
      ],
      "stateMutability": "view",
      "type": "function"
    },
    {
      "inputs": [
        {
          "internalType": "uint256",
          "name": "",
          "type": "uint256"
        }
      ],
      "name": "storyMetadata",
      "outputs": [
        {
          "internalType": "uint256",
          "name": "totalChunks",
          "type": "uint256"
        },
        {
          "internalType": "bytes32",
          "name": "fullStoryHash",
          "type": "bytes32"
        },
        {
          "internalType": "uint256",
          "name": "lastUpdateTime",
          "type": "uint256"
        },
        {
          "internalType": "bool",
          "name": "isSealed",
          "type": "bool"
        },
        {
          "internalType": "uint256",
          "name": "totalLength",
          "type": "uint256"
        }
      ],
      "stateMutability": "view",
      "type": "function"
    },
    {
      "inputs": [
        {
          "internalType": "bytes4",
          "name": "interfaceId",
          "type": "bytes4"
        }
      ],
      "name": "supportsInterface",
      "outputs": [
        {
          "internalType": "bool",
          "name": "",
          "type": "bool"
        }
      ],
      "stateMutability": "view",
      "type": "function"
    },
    {
      "inputs": [],
      "name": "symbol",
      "outputs": [
        {
          "internalType": "string",
          "name": "",
          "type": "string"
        }
      ],
      "stateMutability": "view",
      "type": "function"
    },
    {
      "inputs": [
        {
          "internalType": "uint256",
          "name": "index",
          "type": "uint256"
        }
      ],
      "name": "tokenByIndex",
      "outputs": [
        {
          "internalType": "uint256",
          "name": "",
          "type": "uint256"
        }
      ],
      "stateMutability": "view",
      "type": "function"
    },
    {
      "inputs": [],
      "name": "tokenCounter",
      "outputs": [
        {
          "internalType": "uint256",
          "name": "",
          "type": "uint256"
        }
      ],
      "stateMutability": "view",
      "type": "function"
    },
    {
      "inputs": [
        {
          "internalType": "uint256",
          "name": "",
          "type": "uint256"
        }
      ],
      "name": "tokenIdToPerson",
      "outputs": [
        {
          "internalType": "bytes32",
          "name": "",
          "type": "bytes32"
        }
      ],
      "stateMutability": "view",
      "type": "function"
    },
    {
      "inputs": [
        {
          "internalType": "uint256",
          "name": "",
          "type": "uint256"
        }
      ],
      "name": "tokenIdToVersionIndex",
      "outputs": [
        {
          "internalType": "uint256",
          "name": "",
          "type": "uint256"
        }
      ],
      "stateMutability": "view",
      "type": "function"
    },
    {
      "inputs": [
        {
          "internalType": "address",
          "name": "owner",
          "type": "address"
        },
        {
          "internalType": "uint256",
          "name": "index",
          "type": "uint256"
        }
      ],
      "name": "tokenOfOwnerByIndex",
      "outputs": [
        {
          "internalType": "uint256",
          "name": "",
          "type": "uint256"
        }
      ],
      "stateMutability": "view",
      "type": "function"
    },
    {
      "inputs": [
        {
          "internalType": "uint256",
          "name": "tokenId",
          "type": "uint256"
        }
      ],
      "name": "tokenURI",
      "outputs": [
        {
          "internalType": "string",
          "name": "",
          "type": "string"
        }
      ],
      "stateMutability": "view",
      "type": "function"
    },
    {
      "inputs": [
        {
          "internalType": "uint256",
          "name": "",
          "type": "uint256"
        },
        {
          "internalType": "uint256",
          "name": "",
          "type": "uint256"
        }
      ],
      "name": "tokenURIHistory",
      "outputs": [
        {
          "internalType": "string",
          "name": "",
          "type": "string"
        }
      ],
      "stateMutability": "view",
      "type": "function"
    },
    {
      "inputs": [],
      "name": "totalPersonsCount",
      "outputs": [
        {
          "internalType": "uint256",
          "name": "",
          "type": "uint256"
        }
      ],
      "stateMutability": "view",
      "type": "function"
    },
    {
      "inputs": [],
      "name": "totalSupply",
      "outputs": [
        {
          "internalType": "uint256",
          "name": "",
          "type": "uint256"
        }
      ],
      "stateMutability": "view",
      "type": "function"
    },
    {
      "inputs": [
        {
          "internalType": "address",
          "name": "from",
          "type": "address"
        },
        {
          "internalType": "address",
          "name": "to",
          "type": "address"
        },
        {
          "internalType": "uint256",
          "name": "tokenId",
          "type": "uint256"
        }
      ],
      "name": "transferFrom",
      "outputs": [],
      "stateMutability": "nonpayable",
      "type": "function"
    },
    {
      "inputs": [
        {
          "internalType": "address",
          "name": "newOwner",
          "type": "address"
        }
      ],
      "name": "transferOwnership",
      "outputs": [],
      "stateMutability": "nonpayable",
      "type": "function"
    },
    {
      "inputs": [
        {
          "internalType": "uint256",
          "name": "tokenId",
          "type": "uint256"
        },
        {
          "internalType": "uint256",
          "name": "chunkIndex",
          "type": "uint256"
        },
        {
          "internalType": "string",
          "name": "newContent",
          "type": "string"
        },
        {
          "internalType": "bytes32",
          "name": "expectedHash",
          "type": "bytes32"
        }
      ],
      "name": "updateStoryChunk",
      "outputs": [],
      "stateMutability": "nonpayable",
      "type": "function"
    },
    {
      "inputs": [
        {
          "internalType": "uint256",
          "name": "tokenId",
          "type": "uint256"
        },
        {
          "internalType": "string",
          "name": "newURI",
          "type": "string"
        }
      ],
      "name": "updateTokenURI",
      "outputs": [],
      "stateMutability": "nonpayable",
      "type": "function"
    },
    {
      "inputs": [
        {
          "internalType": "bytes32",
          "name": "",
          "type": "bytes32"
        },
        {
          "internalType": "uint256",
          "name": "",
          "type": "uint256"
        }
      ],
      "name": "versionEndorsementCount",
      "outputs": [
        {
          "internalType": "uint256",
          "name": "",
          "type": "uint256"
        }
      ],
      "stateMutability": "view",
      "type": "function"
    },
    {
      "inputs": [
        {
          "internalType": "bytes32",
          "name": "",
          "type": "bytes32"
        },
        {
          "internalType": "bytes32",
          "name": "",
          "type": "bytes32"
        }
      ],
      "name": "versionExists",
      "outputs": [
        {
          "internalType": "bool",
          "name": "",
          "type": "bool"
        }
      ],
      "stateMutability": "view",
      "type": "function"
    },
    {
      "inputs": [
        {
          "internalType": "bytes32",
          "name": "",
          "type": "bytes32"
        },
        {
          "internalType": "uint256",
          "name": "",
          "type": "uint256"
        }
      ],
      "name": "versionToTokenId",
      "outputs": [
        {
          "internalType": "uint256",
          "name": "",
          "type": "uint256"
        }
      ],
      "stateMutability": "view",
      "type": "function"
    },
    {
      "stateMutability": "payable",
      "type": "receive"
    }
  ],
  "bytecode": "0x60c06040523480156200001157600080fd5b5060405162006a0038038062006a008339810160408190526200003491620001b1565b336040518060400160405280600a8152602001694465657046616d696c7960b01b8152506040518060400160405280600681526020016546616d696c7960d01b81525081600090816200008891906200028e565b5060016200009782826200028e565b5050506001600160a01b038116620000c957604051631e4fbdf760e01b81526000600482015260240160405180910390fd5b620000d48162000142565b506001600b556001600160a01b0382166200010257604051634c32eccd60e11b815260040160405180910390fd5b6001600160a01b0381166200012a57604051635fce01bb60e01b815260040160405180910390fd5b6001600160a01b039182166080521660a0526200035a565b600a80546001600160a01b038381166001600160a01b0319831681179093556040519116919082907f8be0079c531659141344cd1fd0a4f28419497f9722a3daafe3b4186f6b6457e090600090a35050565b80516001600160a01b0381168114620001ac57600080fd5b919050565b60008060408385031215620001c557600080fd5b620001d08362000194565b9150620001e06020840162000194565b90509250929050565b634e487b7160e01b600052604160045260246000fd5b600181811c908216806200021457607f821691505b6020821081036200023557634e487b7160e01b600052602260045260246000fd5b50919050565b601f8211156200028957600081815260208120601f850160051c81016020861015620002645750805b601f850160051c820191505b81811015620002855782815560010162000270565b5050505b505050565b81516001600160401b03811115620002aa57620002aa620001e9565b620002c281620002bb8454620001ff565b846200023b565b602080601f831160018114620002fa5760008415620002e15750858301515b600019600386901b1c1916600185901b17855562000285565b600085815260208120601f198616915b828110156200032b578886015182559484019460019091019084016200030a565b50858210156200034a5787850151600019600388901b60f8161c191681555b5050505050600190811b01905550565b60805160a0516166646200039c60003960008181610aa00152612eb5015260008181610b65015281816132cd0152818161341e015261456701526166646000f3fe60806040526004361061038f5760003560e01c80637559704d116101dc578063bd7eef2311610102578063dbcdc08f116100a0578063f2fde38b1161006f578063f2fde38b14610c5d578063f74faf6614610c7d578063fe980dd614610cb5578063fe9c3c0514610ce7576103ad565b8063dbcdc08f14610bbf578063e985e9c514610bf0578063f1af587514610c10578063f1fad06714610c30576103ad565b8063c87b56dd116100dc578063c87b56dd14610b1d578063d082e38114610b3d578063d1486a1b14610b53578063d596b1b014610b87576103ad565b8063bd7eef2314610ac2578063c090fba214610ad8578063c841eb1f14610b07576103ad565b806395d89b411161017a578063b0ac331f11610149578063b0ac331f14610a2e578063b5c7198d14610a4e578063b88d4fde14610a6e578063bcecdf1d14610a8e576103ad565b806395d89b41146109b957806397259721146109ce578063a22cb465146109ee578063a92c6ad614610a0e576103ad565b806382260f35116101b657806382260f35146108c257806383af7191146108f45780638da5cb5b1461096b5780638f2360b314610989576103ad565b80637559704d1461085f57806376f0f85d1461088c578063797e57e5146108a2576103ad565b80632f8afa61116102c1578063538ffa0b1161025f578063690a76bf1161022e578063690a76bf1461079957806370a08231146107c6578063715018a6146107e65780637189567c146107fb576103ad565b8063538ffa0b146106e557806357611dfb146107125780636352211e1461074357806367b9b3e114610763576103ad565b806342842e0e1161029b57806342842e0e1461064a578063431a342a1461066a57806346cdf869146106a55780634f6ccce7146106c5576103ad565b80632f8afa61146105da5780633791b66a146105fa5780633cb1af451461062a576103ad565b8063164e38ee1161032e57806323b872dd1161030857806323b872dd1461053c578063278d5fce1461055c57806328273a2a1461058a5780632f745c59146105ba576103ad565b8063164e38ee146104d257806318160ddd1461050757806318e97fd11461051c576103ad565b806307b8fe9c1161036a57806307b8fe9c146103c6578063081812fc14610440578063095ea7b3146104785780631516fa251461049a576103ad565b8062eee6a1146103c657806301ffc9a7146103ee57806306fdde031461041e576103ad565b366103ad5760405163af9f22fb60e01b815260040160405180910390fd5b60405163af9f22fb60e01b815260040160405180910390fd5b3480156103d257600080fd5b506103db606481565b6040519081526020015b60405180910390f35b3480156103fa57600080fd5b5061040e610409366004614fc5565b610d07565b60405190151581526020016103e5565b34801561042a57600080fd5b50610433610d32565b6040516103e59190615039565b34801561044c57600080fd5b5061046061045b36600461504c565b610dc4565b6040516001600160a01b0390911681526020016103e5565b34801561048457600080fd5b50610498610493366004615081565b610ded565b005b3480156104a657600080fd5b506103db6104b53660046150ab565b601a60209081526000928352604080842090915290825290205481565b3480156104de57600080fd5b506104f26104ed3660046150cd565b610dfc565b604080519283526020830191909152016103e5565b34801561051357600080fd5b506008546103db565b34801561052857600080fd5b50610498610537366004615141565b610e46565b34801561054857600080fd5b5061049861055736600461518c565b610ff3565b34801561056857600080fd5b5061057c61057736600461504c565b611083565b6040516103e59291906152af565b34801561059657600080fd5b506105aa6105a53660046150cd565b611397565b6040516103e59493929190615325565b3480156105c657600080fd5b506103db6105d5366004615081565b611657565b3480156105e657600080fd5b506104986105f5366004615398565b6116bc565b34801561060657600080fd5b5061061a6106153660046150cd565b6116d8565b6040516103e59493929190615439565b34801561063657600080fd5b50610498610645366004615490565b6118d1565b34801561065657600080fd5b5061049861066536600461518c565b611bd5565b34801561067657600080fd5b5061040e6106853660046150ab565b600e60209081526000928352604080842090915290825290205460ff1681565b3480156106b157600080fd5b506104986106c0366004615513565b611bf5565b3480156106d157600080fd5b506103db6106e036600461504c565b611dee565b3480156106f157600080fd5b506103db61070036600461504c565b60126020526000908152604090205481565b34801561071e57600080fd5b5061073261072d36600461556d565b611e47565b6040516103e59594939291906155da565b34801561074f57600080fd5b5061046061075e36600461504c565b61209b565b34801561076f57600080fd5b5061078361077e3660046150ab565b6120a6565b6040516103e59a99989796959493929190615646565b3480156107a557600080fd5b506103db6107b436600461504c565b60116020526000908152604090205481565b3480156107d257600080fd5b506103db6107e13660046156c2565b612240565b3480156107f257600080fd5b50610498612288565b34801561080757600080fd5b5061081b61081636600461504c565b61229c565b6040516103e59190600060a0820190508251825260208301516020830152604083015160408301526060830151151560608301526080830151608083015292915050565b34801561086b57600080fd5b506103db61087a36600461504c565b6000908152600c602052604090205490565b34801561089857600080fd5b506103db61010081565b3480156108ae57600080fd5b506104986108bd36600461504c565b61234b565b3480156108ce57600080fd5b506108e26108dd36600461504c565b612439565b6040516103e59695949392919061578c565b34801561090057600080fd5b5061094161090f36600461504c565b6017602052600090815260409020805460018201546002830154600384015460049094015492939192909160ff169085565b6040805195865260208601949094529284019190915215156060830152608082015260a0016103e5565b34801561097757600080fd5b50600a546001600160a01b0316610460565b34801561099557600080fd5b506109a96109a43660046150cd565b612a66565b6040516103e59493929190615808565b3480156109c557600080fd5b50610433612daf565b3480156109da57600080fd5b506104986109e93660046158c5565b612dbe565b3480156109fa57600080fd5b50610498610a093660046159ce565b612fc6565b348015610a1a57600080fd5b506103db610a293660046150ab565b612fd1565b348015610a3a57600080fd5b50610498610a49366004615513565b613002565b348015610a5a57600080fd5b50610498610a693660046150ab565b61323b565b348015610a7a57600080fd5b50610498610a89366004615ab8565b6135a7565b348015610a9a57600080fd5b506104607f000000000000000000000000000000000000000000000000000000000000000081565b348015610ace57600080fd5b506103db600d5481565b348015610ae457600080fd5b50610af8610af33660046150ab565b6135bf565b6040516103e593929190615b33565b348015610b1357600080fd5b506103db6103e881565b348015610b2957600080fd5b50610433610b3836600461504c565b61383c565b348015610b4957600080fd5b506103db60105481565b348015610b5f57600080fd5b506104607f000000000000000000000000000000000000000000000000000000000000000081565b348015610b9357600080fd5b506103db610ba23660046150ab565b601660209081526000928352604080842090915290825290205481565b348015610bcb57600080fd5b50610bdf610bda3660046150ab565b6138e6565b6040516103e5959493929190615b58565b348015610bfc57600080fd5b5061040e610c0b366004615b99565b6139b2565b348015610c1c57600080fd5b506103db610c2b366004615cb1565b6139e0565b348015610c3c57600080fd5b50610c50610c4b3660046150ab565b613ac1565b6040516103e59190615ce5565b348015610c6957600080fd5b50610498610c783660046156c2565b613c25565b348015610c8957600080fd5b506103db610c98366004615cf8565b600f60209081526000928352604080842090915290825290205481565b348015610cc157600080fd5b50610cd5610cd03660046150cd565b613c63565b6040516103e596959493929190615d1b565b348015610cf357600080fd5b50610433610d023660046150ab565b613ee0565b60006001600160e01b0319821663780e9d6360e01b1480610d2c5750610d2c82613f99565b92915050565b606060008054610d4190615d73565b80601f0160208091040260200160405190810160405280929190818152602001828054610d6d90615d73565b8015610dba5780601f10610d8f57610100808354040283529160200191610dba565b820191906000526020600020905b815481529060010190602001808311610d9d57829003601f168201915b5050505050905090565b6000610dcf82613fe9565b506000828152600460205260409020546001600160a01b0316610d2c565b610df8828233614021565b5050565b601b6020528260005260406000206020528160005260406000208181548110610e2457600080fd5b6000918252602090912060029091020180546001909101549093509150839050565b33610e508461402e565b6001600160a01b031614610e775760405163daffd8a560e01b815260040160405180910390fd5b610100811115610e9a576040516313f04adb60e01b815260040160405180910390fd5b60008381526014602052604081208054610eb390615d73565b80601f0160208091040260200160405190810160405280929190818152602001828054610edf90615d73565b8015610f2c5780601f10610f0157610100808354040283529160200191610f2c565b820191906000526020600020905b815481529060010190602001808311610f0f57829003601f168201915b50505050509050600081511115610f6757600084815260156020908152604082208054600181018255908352912001610f658282615e08565b505b610fa78484848080601f01602080910402602001604051908101604052809392919081815260200183838082843760009201919091525061404992505050565b336001600160a01b0316847f121742bae49dddcfbb9763fd1170f0dbc15b13707126182671611bbeeeae7cd8838686604051610fe593929190615eea565b60405180910390a350505050565b6001600160a01b03821661102257604051633250574960e11b8152600060048201526024015b60405180910390fd5b600061102f838333614061565b9050836001600160a01b0316816001600160a01b03161461107d576040516364283d7b60e01b81526001600160a01b0380861660048301526024820184905282166044820152606401611019565b50505050565b6013602052806000526040600020600091509050806000016040518060c00160405290816000820180546110b690615d73565b80601f01602080910402602001604051908101604052809291908181526020018280546110e290615d73565b801561112f5780601f106111045761010080835404028352916020019161112f565b820191906000526020600020905b81548152906001019060200180831161111257829003601f168201915b50505091835250506001919091015460ff8082161515602084015261ffff6101008304166040808501919091526301000000830482166060850152640100000000830482166080850152650100000000009092041660a090920191909152805160e08101909152600283018054929392829082906111ac90615d73565b80601f01602080910402602001604051908101604052809291908181526020018280546111d890615d73565b80156112255780601f106111fa57610100808354040283529160200191611225565b820191906000526020600020905b81548152906001019060200180831161120857829003601f168201915b5050509183525050600182015460ff8082161515602084015261ffff6101008304166040840152630100000082048116606084015264010000000090910416608082015260028201805460a09092019161127e90615d73565b80601f01602080910402602001604051908101604052809291908181526020018280546112aa90615d73565b80156112f75780601f106112cc576101008083540402835291602001916112f7565b820191906000526020600020905b8154815290600101906020018083116112da57829003601f168201915b5050505050815260200160038201805461131090615d73565b80601f016020809104026020016040519081016040528092919081815260200182805461133c90615d73565b80156113895780601f1061135e57610100808354040283529160200191611389565b820191906000526020600020905b81548152906001019060200180831161136c57829003601f168201915b505050505081525050905082565b606060008080806113a78861402e565b6001600160a01b0316036113ce576040516307ed98ed60e31b815260040160405180910390fd5b60648511156113f057604051630327a73960e61b815260040160405180910390fd5b6000878152601760205260408120805494509086900361144c57604080516000808252602082019092529061143b565b611428614f1e565b8152602001906001900390816114205790505b5094506000925086915061164e9050565b838710611495576040805160008082526020820190925290611484565b611471614f1e565b8152602001906001900390816114695790505b5094506000925083915061164e9050565b60006114a18789615f26565b9050848111156114ae5750835b60006114ba8983615f39565b9050806001600160401b038111156114d4576114d4615a05565b60405190808252806020026020018201604052801561150d57816020015b6114fa614f1e565b8152602001906001900390816114f25790505b50965060005b818110156116435760008b815260186020526040812090611534838d615f26565b81526020019081526020016000206040518060a0016040529081600082015481526020016001820154815260200160028201805461157190615d73565b80601f016020809104026020016040519081016040528092919081815260200182805461159d90615d73565b80156115ea5780601f106115bf576101008083540402835291602001916115ea565b820191906000526020600020905b8154815290600101906020018083116115cd57829003601f168201915b5050509183525050600382015460208201526004909101546001600160a01b0316604090910152885189908390811061162557611625615f4c565b6020026020010181905250808061163b90615f62565b915050611513565b505084811093509150505b93509350935093565b600061166283612240565b82106116935760405163295f44f760e21b81526001600160a01b038416600482015260248101839052604401611019565b506001600160a01b03919091166000908152600660209081526040808320938352929052205490565b6116cd898989898989898989614136565b505050505050505050565b600083815260156020526040812080546060929091819085820361173157604080516000808252602082019092529061143b565b606081526020019060019003908161170c5790505094506000925086915061164e9050565b838710611773576040805160008082526020820190925290611484565b606081526020019060019003908161174e5790505094506000925083915061164e9050565b600061177f8789615f26565b90508481111561178c5750835b60006117988983615f39565b9050806001600160401b038111156117b2576117b2615a05565b6040519080825280602002602001820160405280156117e557816020015b60608152602001906001900390816117d05790505b50965060005b8181101561164357836117fe828c615f26565b8154811061180e5761180e615f4c565b90600052602060002001805461182390615d73565b80601f016020809104026020016040519081016040528092919081815260200182805461184f90615d73565b801561189c5780601f106118715761010080835404028352916020019161189c565b820191906000526020600020905b81548152906001019060200180831161187f57829003601f168201915b50505050508882815181106118b3576118b3615f4c565b602002602001018190525080806118c990615f62565b9150506117eb565b6118d9614639565b8484816118f95760405163e5d242ed60e01b815260040160405180910390fd5b80158061191357506000828152600c602052604090205481115b1561193157604051630dd4272d60e41b815260040160405180910390fd5b600061193e600188615f39565b60008981526016602090815260408083208484529091529020549091501561197957604051634028e5e560e11b815260040160405180910390fd5b6000888152600f6020908152604080832033845290915290205487146119b25760405163786bb09f60e11b815260040160405180910390fd5b6101008511156119d5576040516313f04adb60e01b815260040160405180910390fd5b6101006119e56020860186615f7b565b6119f39060c0810190615f9b565b90501115611a145760405163f283c51960e01b815260040160405180910390fd5b610100611a246020860186615f7b565b611a2e9080615f9b565b90501115611a4f576040516367181a3960e11b815260040160405180910390fd5b610100611a5f6020860186615f7b565b611a6d9060a0810190615f9b565b90501115611a8e57604051633769847160e01b815260040160405180910390fd5b6000611aa6611a9d8680615fe1565b610c2b90615ff7565b9050888114611ac857604051632f38f48f60e21b815260040160405180910390fd5b6000601060008154611ad990615f62565b91829055509050611aea3382614663565b611b2a8189898080601f01602080910402602001604051908101604052809392919081815260200183838082843760009201919091525061404992505050565b60008181526011602090815260408083208d9055601282528083208c90558c8352601682528083208684528252808320849055838352601390915290208690611b73828261627f565b905050336001600160a01b0316818b7fbce71c21e84db5e7dca78ea57ad63b6c66f74f74efc25e33592370ecf39e093b8c8c8c42604051611bb794939291906163de565b60405180910390a45050505050611bce6001600b55565b5050505050565b611bf0838383604051806020016040528060008152506135a7565b505050565b611bfd614639565b33611c078661402e565b6001600160a01b031614611c2e5760405163daffd8a560e01b815260040160405180910390fd5b6000858152601760205260409020600381015460ff1615611c6257604051631fcb6b9160e01b815260040160405180910390fd5b80548510611c8357604051637df0b86160e01b815260040160405180910390fd5b821580611c9157506103e883115b15611caf57604051630ef9fbf360e21b815260040160405180910390fd5b600086815260186020908152604080832088845282528083208151601f88018490048402810184019092528682529291611d049190889088908190840183828082843760009201919091525061467d92505050565b90508315801590611d155750838114155b15611d335760405163016c02f160e61b815260040160405180910390fd5b600182015460028301805460009190611d4b90615d73565b6001860185905591505060028401611d64888a83616003565b504260038501819055600480860180546001600160a01b0319163317905560028701919091558501548790611d9a908390615f39565b611da49190615f26565b6004860155611db28a6146ad565b604080518381526020810185905233918b918d917f065c2222316af985857085b11b199dc175990521803ca44d2ab1a4ef4c0ea6ef9101611bb7565b6000611df960085490565b8210611e225760405163295f44f760e21b81526000600482015260248101839052604401611019565b60088281548110611e3557611e35615f4c565b90600052602060002001549050919050565b60608060008080888881611e6e5760405163e5d242ed60e01b815260040160405180910390fd5b801580611e8857506000828152600c602052604090205481115b15611ea657604051630dd4272d60e41b815260040160405180910390fd5b6064881115611ec857604051630327a73960e61b815260040160405180910390fd5b60008b8152601b602090815260408083208d845290915281208054965090899003611f14575060408051600080825260208201818152828401909352909850909650935088925061208e565b858a10611f42575060408051600080825260208201818152828401909352909850909650935084925061208e565b6000611f4e8a8c615f26565b905086811115611f5b5750855b6000611f678c83615f39565b9050806001600160401b03811115611f8157611f81615a05565b604051908082528060200260200182016040528015611faa578160200160208202803683370190505b509950806001600160401b03811115611fc557611fc5615a05565b604051908082528060200260200182016040528015611fee578160200160208202803683370190505b50985060005b8181101561208357600084828f61200b9190615f26565b8154811061201b5761201b615f4c565b9060005260206000209060020201905080600001548c838151811061204257612042615f4c565b60200260200101818152505080600101548b838151811061206557612065615f4c565b6020908102919091010152508061207b81615f62565b915050611ff4565b505086811095509350505b5050945094509450945094565b6000610d2c82613fe9565b600c60205281600052604060002081815481106120c257600080fd5b600091825260209091206009909102018054600182015460028301546003840154600485015460058601546006870154600788018054979a5095985093969295919490936001600160a01b03811693600160a01b9091046001600160601b03169290919061212f90615d73565b80601f016020809104026020016040519081016040528092919081815260200182805461215b90615d73565b80156121a85780601f1061217d576101008083540402835291602001916121a8565b820191906000526020600020905b81548152906001019060200180831161218b57829003601f168201915b5050505050908060080180546121bd90615d73565b80601f01602080910402602001604051908101604052809291908181526020018280546121e990615d73565b80156122365780601f1061220b57610100808354040283529160200191612236565b820191906000526020600020905b81548152906001019060200180831161221957829003601f168201915b505050505090508a565b60006001600160a01b03821661226c576040516322718ad960e21b815260006004820152602401611019565b506001600160a01b031660009081526003602052604090205490565b612290614775565b61229a60006147a2565b565b6040805160a0810182526000808252602082018190529181018290526060810182905260808101829052906122d08361402e565b6001600160a01b0316036122f7576040516307ed98ed60e31b815260040160405180910390fd5b50600090815260176020908152604091829020825160a08101845281548152600182015492810192909252600281015492820192909252600382015460ff1615156060820152600490910154608082015290565b336123558261402e565b6001600160a01b03161461237c5760405163daffd8a560e01b815260040160405180910390fd5b6000818152601760205260409020600381015460ff16156123b057604051631fcb6b9160e01b815260040160405180910390fd5b80546000036123d257604051637dc66bf560e11b815260040160405180910390fd5b60038101805460ff19166001908117909155426002830155815490820154604051339285927f896066547269dcd0db6295ca6c7f14f927d692103e47c7615259469b74bc7b5d9261242d929190918252602082015260400190565b60405180910390a35050565b600080612444614f59565b6124c06040805161010081018252606091810182815260009282018390526080820183905260a0820183905260c0820183905260e082019290925290819081526040805160e081018252606080825260006020838101829052938301819052818301819052608083015260a0820181905260c082015291015290565b60006060816124ce8861402e565b6001600160a01b0316036124f5576040516307ed98ed60e31b815260040160405180910390fd5b600087815260116020526040902054955085612524576040516307ed98ed60e31b815260040160405180910390fd5b6000878152601260205260408120549550612540600187615f39565b6000888152600c602052604090208054919250908290811061256457612564615f4c565b600091825260209182902060408051610140810182526009909302909101805483526001810154938301939093526002830154908201526003820154606082015260048201546080820152600582015460a082015260068201546001600160a01b03811660c08301526001600160601b03600160a01b9091041660e0820152600782018054919291610100840191906125fc90615d73565b80601f016020809104026020016040519081016040528092919081815260200182805461262890615d73565b80156126755780601f1061264a57610100808354040283529160200191612675565b820191906000526020600020905b81548152906001019060200180831161265857829003601f168201915b5050505050815260200160088201805461268e90615d73565b80601f01602080910402602001604051908101604052809291908181526020018280546126ba90615d73565b80156127075780601f106126dc57610100808354040283529160200191612707565b820191906000526020600020905b8154815290600101906020018083116126ea57829003601f168201915b5050509190925250505060008981526013602052604090819020815161010081018352815493985092909183919082019083908290829061274790615d73565b80601f016020809104026020016040519081016040528092919081815260200182805461277390615d73565b80156127c05780601f10612795576101008083540402835291602001916127c0565b820191906000526020600020905b8154815290600101906020018083116127a357829003601f168201915b50505091835250506001919091015460ff808216151560208085019190915261ffff61010084041660408086019190915263010000008404831660608601526401000000008404831660808601526501000000000090930490911660a090930192909252918352815160e0810190925260028401805493909101928290829061284890615d73565b80601f016020809104026020016040519081016040528092919081815260200182805461287490615d73565b80156128c15780601f10612896576101008083540402835291602001916128c1565b820191906000526020600020905b8154815290600101906020018083116128a457829003601f168201915b5050509183525050600182015460ff8082161515602084015261ffff6101008304166040840152630100000082048116606084015264010000000090910416608082015260028201805460a09092019161291a90615d73565b80601f016020809104026020016040519081016040528092919081815260200182805461294690615d73565b80156129935780601f1061296857610100808354040283529160200191612993565b820191906000526020600020905b81548152906001019060200180831161297657829003601f168201915b505050505081526020016003820180546129ac90615d73565b80601f01602080910402602001604051908101604052809291908181526020018280546129d890615d73565b8015612a255780601f106129fa57610100808354040283529160200191612a25565b820191906000526020600020905b815481529060010190602001808311612a0857829003601f168201915b505050919092525050509052506000888152601a602090815260408083208584529091529020549094509250612a5a8861383c565b91505091939550919395565b606060008060006064851115612a8f57604051630327a73960e61b815260040160405180910390fd5b6000878152600c602052604081208054945090869003612aea57604080516000808252602082019092529061143b565b612ac7614f59565b815260200190600190039081612abf5790505094506000925086915061164e9050565b838710612b32576040805160008082526020820190925290611484565b612b0f614f59565b815260200190600190039081612b075790505094506000925083915061164e9050565b6000612b3e8789615f26565b905084811115612b4b5750835b6000612b578983615f39565b9050806001600160401b03811115612b7157612b71615a05565b604051908082528060200260200182016040528015612baa57816020015b612b97614f59565b815260200190600190039081612b8f5790505b50965060005b818110156116435783612bc3828c615f26565b81548110612bd357612bd3615f4c565b600091825260209182902060408051610140810182526009909302909101805483526001810154938301939093526002830154908201526003820154606082015260048201546080820152600582015460a082015260068201546001600160a01b03811660c08301526001600160601b03600160a01b9091041660e082015260078201805491929161010084019190612c6b90615d73565b80601f0160208091040260200160405190810160405280929190818152602001828054612c9790615d73565b8015612ce45780601f10612cb957610100808354040283529160200191612ce4565b820191906000526020600020905b815481529060010190602001808311612cc757829003601f168201915b50505050508152602001600882018054612cfd90615d73565b80601f0160208091040260200160405190810160405280929190818152602001828054612d2990615d73565b8015612d765780601f10612d4b57610100808354040283529160200191612d76565b820191906000526020600020905b815481529060010190602001808311612d5957829003601f168201915b505050505081525050888281518110612d9157612d91615f4c565b60200260200101819052508080612da790615f62565b915050612bb0565b606060018054610d4190615d73565b612dca60066001615f26565b8714612de9576040516303b2487b60e11b815260040160405180910390fd5b60005b6006811015612e3a576080898983818110612e0957612e09615f4c565b90506020020135901c600014612e32576040516303b2487b60e11b815260040160405180910390fd5b600101612dec565b50600088886006818110612e5057612e50615f4c565b90506020020135905060a081901c600014612e7e576040516303b2487b60e11b815260040160405180910390fd5b338114612e9e576040516303b2487b60e11b815260040160405180910390fd5b6040516361971b8760e11b81526001600160a01b037f0000000000000000000000000000000000000000000000000000000000000000169063c32e370e90612ef2908f908f908f908f908f90600401616409565b602060405180830381865afa158015612f0f573d6000803e3d6000fd5b505050506040513d601f19601f82011682018060405250810190612f339190616482565b612f50576040516303b2487b60e11b815260040160405180910390fd5b612f82612f5f8a8a60006147f4565b612f6b8b8b60026147f4565b612f778c8c60046147f4565b8a8a8a8a8a8a614136565b33612f8f8a8a60006147f4565b6040517f3015fe19dc9f8f0d942de39092410a57589dd94d2c9134719335fe04e3695eca90600090a3505050505050505050505050565b610df8338383614876565b60196020528160005260406000208181548110612fed57600080fd5b90600052602060002001600091509150505481565b61300a614639565b336130148661402e565b6001600160a01b03161461303b5760405163daffd8a560e01b815260040160405180910390fd5b81158061304957506103e882115b1561306757604051630ef9fbf360e21b815260040160405180910390fd5b6000858152601760205260409020600381015460ff161561309b57604051631fcb6b9160e01b815260040160405180910390fd5b80546064116130bd57604051637df0b86160e01b815260040160405180910390fd5b805485146130de57604051637df0b86160e01b815260040160405180910390fd5b600061311f85858080601f01602080910402602001604051908101604052809392919081815260200183838082843760009201919091525061467d92505050565b905082158015906131305750828114155b1561314e5760405163016c02f160e61b815260040160405180910390fd5b600087815260186020908152604080832089845290915290208681556001810182905560028101613180868883616003565b504260038201556004810180546001600160a01b0319163317905582546131a8906001615f26565b835542600284015560048301546131c0908690615f26565b60048401556000888152601960209081526040822080546001810182559083529120018790556131ef886146ad565b6040805183815260208101879052339189918b917f9a8c5a1082b04a31158c2062cc003f0764f93a8614a3643f01df8346f0c39f8d910160405180910390a4505050611bce6001600b55565b81818161325b5760405163e5d242ed60e01b815260040160405180910390fd5b80158061327557506000828152600c602052604090205481115b1561329357604051630dd4272d60e41b815260040160405180910390fd5b6000848152600f602090815260408083203384529091529020548381036132ba575061107d565b60006132c7600186615f39565b905060007f00000000000000000000000000000000000000000000000000000000000000006001600160a01b0316636bf90c716040518163ffffffff1660e01b8152600401602060405180830381865afa158015613329573d6000803e3d6000fd5b505050506040513d601f19601f8201168201806040525081019061334d919061649f565b905080156134b2576000878152600c6020526040812080548490811061337557613375615f4c565b600091825260208083208b84526016825260408085208886529092529083205460099092020192509081156133df5760006133af8361402e565b90506001600160a01b038116156133c8578091506133d9565b60068401546001600160a01b031691505b506133ef565b5060068201546001600160a01b03165b6040516323b872dd60e01b81523360048201526001600160a01b038281166024830152604482018690526000917f0000000000000000000000000000000000000000000000000000000000000000909116906323b872dd906064016020604051808303816000875af1158015613469573d6000803e3d6000fd5b505050506040513d601f19601f8201168201806040525081019061348d9190616482565b9050806134ad57604051635da1e97760e11b815260040160405180910390fd5b505050505b82156135115760006134c5600185615f39565b6000898152601a60209081526040808320848452909152902054909150801561350e576134f3600182615f39565b60008a8152601a602090815260408083208684529091529020555b50505b6000878152601a60209081526040808320858452909152812080546001929061353b908490615f26565b90915550506000878152600f6020908152604080832033808552908352928190208990558051898152918201849052429082015288907f55e71c43a79fd68c0c9f416c70da96b84745f57bf4c2456beb089b4ad7bb3ac89060600160405180910390a350505050505050565b6135b2848484610ff3565b61107d3385858585614915565b6135c7614f59565b6000808484816135ea5760405163e5d242ed60e01b815260040160405180910390fd5b80158061360457506000828152600c602052604090205481115b1561362257604051630dd4272d60e41b815260040160405180910390fd5b600061362f600188615f39565b6000898152600c602052604090208054919250908290811061365357613653615f4c565b600091825260209182902060408051610140810182526009909302909101805483526001810154938301939093526002830154908201526003820154606082015260048201546080820152600582015460a082015260068201546001600160a01b03811660c08301526001600160601b03600160a01b9091041660e0820152600782018054919291610100840191906136eb90615d73565b80601f016020809104026020016040519081016040528092919081815260200182805461371790615d73565b80156137645780601f1061373957610100808354040283529160200191613764565b820191906000526020600020905b81548152906001019060200180831161374757829003601f168201915b5050505050815260200160088201805461377d90615d73565b80601f01602080910402602001604051908101604052809291908181526020018280546137a990615d73565b80156137f65780601f106137cb576101008083540402835291602001916137f6565b820191906000526020600020905b8154815290600101906020018083116137d957829003601f168201915b505050919092525050506000898152601a602090815260408083208584528252808320549b83526016825280832094835293905291909120549098909650945050505050565b606061384782613fe9565b506000828152601460205260409020805461386190615d73565b80601f016020809104026020016040519081016040528092919081815260200182805461388d90615d73565b80156138da5780601f106138af576101008083540402835291602001916138da565b820191906000526020600020905b8154815290600101906020018083116138bd57829003601f168201915b50505050509050919050565b60186020908152600092835260408084209091529082529020805460018201546002830180549293919261391990615d73565b80601f016020809104026020016040519081016040528092919081815260200182805461394590615d73565b80156139925780601f1061396757610100808354040283529160200191613992565b820191906000526020600020905b81548152906001019060200180831161397557829003601f168201915b5050505060038301546004909301549192916001600160a01b0316905085565b6001600160a01b03918216600090815260056020908152604080832093909416825291909152205460ff1690565b805180516000919015806139f657506101008151115b15613a1457604051635f895cef60e11b815260040160405180910390fd5b600c836060015160ff161115613a3d576040516348c5148960e11b815260040160405180910390fd5b601f836080015160ff161115613a66576040516309eabf7d60e21b815260040160405180910390fd5b8051818460200151613a79576000613a7c565b60015b6040808701516060880151608089015160a08a01519351613aa397969594906020016164b8565b60405160208183030381529060405280519060200120915050919050565b613ac9614f1e565b6000613ad48461402e565b6001600160a01b031603613afb576040516307ed98ed60e31b815260040160405180910390fd5b600083815260176020526040902080548310613b2a57604051637df0b86160e01b815260040160405180910390fd5b6018600085815260200190815260200160002060008481526020019081526020016000206040518060a00160405290816000820154815260200160018201548152602001600282018054613b7d90615d73565b80601f0160208091040260200160405190810160405280929190818152602001828054613ba990615d73565b8015613bf65780601f10613bcb57610100808354040283529160200191613bf6565b820191906000526020600020905b815481529060010190602001808311613bd957829003601f168201915b5050509183525050600382015460208201526004909101546001600160a01b0316604090910152949350505050565b613c2d614775565b6001600160a01b038116613c5757604051631e4fbdf760e01b815260006004820152602401611019565b613c60816147a2565b50565b606080606060008060006064871115613c8f57604051630327a73960e61b815260040160405180910390fd5b6000898152600c602052604081208054945090889003613cd95750506040805160008082526020820181815282840182815260608401909452919750909550909350905086613ed4565b838910613d105750506040805160008082526020820181815282840182815260608401909452919750909550909350905081613ed4565b6000613d1c898b615f26565b905084811115613d295750835b6000613d358b83615f39565b9050806001600160401b03811115613d4f57613d4f615a05565b604051908082528060200260200182016040528015613d78578160200160208202803683370190505b509850806001600160401b03811115613d9357613d93615a05565b604051908082528060200260200182016040528015613dbc578160200160208202803683370190505b509750806001600160401b03811115613dd757613dd7615a05565b604051908082528060200260200182016040528015613e00578160200160208202803683370190505b50965060005b81811015613ec9576000613e1a828e615f26565b9050613e27816001615f26565b8b8381518110613e3957613e39615f4c565b60209081029190910181019190915260008f8152601a8252604080822084835290925220548a518b9084908110613e7257613e72615f4c565b60209081029190910181019190915260008f8152601682526040808220848352909252205489518a9084908110613eab57613eab615f4c565b60209081029190910101525080613ec181615f62565b915050613e06565b505084811093509150505b93975093979195509350565b60156020528160005260406000208181548110613efc57600080fd5b90600052602060002001600091509150508054613f1890615d73565b80601f0160208091040260200160405190810160405280929190818152602001828054613f4490615d73565b8015613f915780601f10613f6657610100808354040283529160200191613f91565b820191906000526020600020905b815481529060010190602001808311613f7457829003601f168201915b505050505081565b60006001600160e01b031982166380ac58cd60e01b1480613fca57506001600160e01b03198216635b5e139f60e01b145b80610d2c57506301ffc9a760e01b6001600160e01b0319831614610d2c565b600080613ff58361402e565b90506001600160a01b038116610d2c57604051637e27328960e01b815260048101849052602401611019565b611bf08383836001614a3f565b6000908152600260205260409020546001600160a01b031690565b6000828152601460205260409020611bf08282615e08565b60008061406f858585614b45565b90506001600160a01b0381166140cc576140c784600880546000838152600960205260408120829055600182018355919091527ff3f7a9fe364faab93b216da50a3214154f22a0a2b415b23a84c8169e8b636ee30155565b6140ef565b846001600160a01b0316816001600160a01b0316146140ef576140ef8185614c39565b6001600160a01b03851661410b5761410684614cba565b61412e565b846001600160a01b0316816001600160a01b03161461412e5761412e8585614d69565b949350505050565b61010083111561415957604051635fab396360e11b815260040160405180910390fd5b61010081111561417c57604051630601a0fb60e51b815260040160405180910390fd5b6000888152600c60205260409020548611156141ab57604051631f9510eb60e01b815260040160405180910390fd5b6000878152600c60205260409020548511156141da5760405163782ce69f60e01b815260040160405180910390fd5b6000898989898987876040516020016141f9979695949392919061652c565b60408051601f19818403018152918152815160209283012060008d8152600e845282812082825290935291205490915060ff161561424a576040516314396b6760e11b815260040160405180910390fd5b60008a8152600e602090815260408083208484528252808320805460ff191660011790558c8352600c82528083208151610140810183528e81528084018e90528083018d90526060810194909452608084018b905260a084018a90523360c08501526001600160601b03421660e08501528151601f89018490048402810184019092528782529291610100830191908990899081908401838280828437600092019190915250505090825250604080516020601f8801819004810282018101909252868152918101919087908790819084018382808284376000920182905250939094525050835460018181018655948252602091829020845160099092020190815590830151938101939093555060408101516002830155606081015160038301556080810151600483015560a0810151600583015560c081015160e08201516001600160601b0316600160a01b026001600160a01b0390911617600683015561010081015190919060078201906143c39082615e08565b5061012082015160088201906143d99082615e08565b50505060008a8152600c6020526040902080549081906143fa600183615f39565b8154811061440a5761440a615f4c565b600091825260209091206003600990920201015589156144715760008a8152601b602090815260408083208b8452825280832081518083019092528e8252818301858152815460018181018455928652939094209151600290930290910191825591519101555b88156144c4576000898152601b602090815260408083208a8452825280832081518083019092528e8252818301858152815460018181018455928652939094209151600290930290910191825591519101555b806001036144e257600d80549060006144dc83615f62565b91905055505b336001600160a01b0316818c7ff24ca8fe8e48960e559267341f81e7b0f07746d1e98c729930fe251bd2875484428e8d8f8e8e8e6040516145299796959493929190616562565b60405180910390a461453a8a614db9565b801561454a575061454a89614db9565b1561462c576040516335313c2160e11b81523360048201526000907f00000000000000000000000000000000000000000000000000000000000000006001600160a01b031690636a627842906024016020604051808303816000875af11580156145b8573d6000803e3d6000fd5b505050506040513d601f19601f820116820180604052508101906145dc919061649f565b9050801561462a57818c336001600160a01b03167fdefc43c3e9b037326c59d7c3f29c0b6b5c94a6fbfcced006b763e74a3115da6d8460405161462191815260200190565b60405180910390a45b505b5050505050505050505050565b6002600b540361465c57604051633ee5aeb560e01b815260040160405180910390fd5b6002600b55565b610df8828260405180602001604052806000815250614dda565b6000816040516020016146909190616594565b604051602081830303815290604052805190602001209050919050565b60008181526017602090815260408083206019909252822080549192909190036146dd5750600060019091015550565b606060005b825481101561475f5760008382815481106146ff576146ff615f4c565b60009182526020808320909101548883526018825260408084208285528352928390206001015492519093506147399186918491016165a6565b60405160208183030381529060405293505050808061475790615f62565b9150506146e2565b5080516020909101206001909201919091555050565b600a546001600160a01b0316331461229a5760405163118cdaa760e01b8152336004820152602401611019565b600a80546001600160a01b038381166001600160a01b0319831681179093556040519116919082907f8be0079c531659141344cd1fd0a4f28419497f9722a3daafe3b4186f6b6457e090600090a35050565b60008084848481811061480957614809615f4c565b905060200201359050600085858560010181811061482957614829615f4c565b905060200201359050608082901c60001415806148495750608081901c15155b15614867576040516303b2487b60e11b815260040160405180910390fd5b60809190911b17949350505050565b6001600160a01b0382166148a857604051630b61174360e31b81526001600160a01b0383166004820152602401611019565b6001600160a01b03838116600081815260056020908152604080832094871680845294825291829020805460ff191686151590811790915591519182527f17307eab39ab6107e8899845ad3d59bd9653f200f220920489ca2b5937696c31910160405180910390a3505050565b6001600160a01b0383163b15611bce57604051630a85bd0160e11b81526001600160a01b0384169063150b7a02906149579088908890879087906004016165c8565b6020604051808303816000875af1925050508015614992575060408051601f3d908101601f1916820190925261498f918101906165fb565b60015b6149fb573d8080156149c0576040519150601f19603f3d011682016040523d82523d6000602084013e6149c5565b606091505b5080516000036149f357604051633250574960e11b81526001600160a01b0385166004820152602401611019565b805160208201fd5b6001600160e01b03198116630a85bd0160e11b14614a3757604051633250574960e11b81526001600160a01b0385166004820152602401611019565b505050505050565b8080614a5357506001600160a01b03821615155b15614b15576000614a6384613fe9565b90506001600160a01b03831615801590614a8f5750826001600160a01b0316816001600160a01b031614155b8015614aa25750614aa081846139b2565b155b15614acb5760405163a9fbf51f60e01b81526001600160a01b0384166004820152602401611019565b8115614b135783856001600160a01b0316826001600160a01b03167f8c5be1e5ebec7d5bd14f71427d1e84f3dd0314c0f7b2291e5b200ac8c7c3b92560405160405180910390a45b505b5050600090815260046020526040902080546001600160a01b0319166001600160a01b0392909216919091179055565b600080614b518461402e565b90506001600160a01b03831615614b6d57614b6d818486614df2565b6001600160a01b03811615614bab57614b8a600085600080614a3f565b6001600160a01b038116600090815260036020526040902080546000190190555b6001600160a01b03851615614bda576001600160a01b0385166000908152600360205260409020805460010190555b60008481526002602052604080822080546001600160a01b0319166001600160a01b0389811691821790925591518793918516917fddf252ad1be2c89b69c2b068fc378daa952ba7f163c4a11628f55a4df523b3ef91a4949350505050565b6000614c4483612240565b6000838152600760209081526040808320546001600160a01b0388168452600690925290912091925090818314614c9b57600083815260208281526040808320548584528184208190558352600790915290208290555b6000938452600760209081526040808620869055938552525081205550565b600854600090614ccc90600190615f39565b60008381526009602052604081205460088054939450909284908110614cf457614cf4615f4c565b906000526020600020015490508060088381548110614d1557614d15615f4c565b6000918252602080832090910192909255828152600990915260408082208490558582528120556008805480614d4d57614d4d616618565b6001900381819060005260206000200160009055905550505050565b60006001614d7684612240565b614d809190615f39565b6001600160a01b039093166000908152600660209081526040808320868452825280832085905593825260079052919091209190915550565b60008115801590610d2c5750506000908152600c6020526040902054151590565b614de48383614e56565b611bf0336000858585614915565b614dfd838383614ebb565b611bf0576001600160a01b038316614e2b57604051637e27328960e01b815260048101829052602401611019565b60405163177e802f60e01b81526001600160a01b038316600482015260248101829052604401611019565b6001600160a01b038216614e8057604051633250574960e11b815260006004820152602401611019565b6000614e8e83836000614061565b90506001600160a01b03811615611bf0576040516339e3563760e11b815260006004820152602401611019565b60006001600160a01b0383161580159061412e5750826001600160a01b0316846001600160a01b03161480614ef55750614ef584846139b2565b8061412e5750506000908152600460205260409020546001600160a01b03908116911614919050565b6040518060a001604052806000815260200160008019168152602001606081526020016000815260200160006001600160a01b031681525090565b604080516101408101825260008082526020820181905291810182905260608082018390526080820183905260a0820183905260c0820183905260e0820192909252610100810182905261012081019190915290565b6001600160e01b031981168114613c6057600080fd5b600060208284031215614fd757600080fd5b8135614fe281614faf565b9392505050565b60005b83811015615004578181015183820152602001614fec565b50506000910152565b60008151808452615025816020860160208601614fe9565b601f01601f19169290920160200192915050565b602081526000614fe2602083018461500d565b60006020828403121561505e57600080fd5b5035919050565b80356001600160a01b038116811461507c57600080fd5b919050565b6000806040838503121561509457600080fd5b61509d83615065565b946020939093013593505050565b600080604083850312156150be57600080fd5b50508035926020909101359150565b6000806000606084860312156150e257600080fd5b505081359360208301359350604090920135919050565b60008083601f84011261510b57600080fd5b5081356001600160401b0381111561512257600080fd5b60208301915083602082850101111561513a57600080fd5b9250929050565b60008060006040848603121561515657600080fd5b8335925060208401356001600160401b0381111561517357600080fd5b61517f868287016150f9565b9497909650939450505050565b6000806000606084860312156151a157600080fd5b6151aa84615065565b92506151b860208501615065565b9150604084013590509250925092565b6000815160c084526151dd60c085018261500d565b905060208301511515602085015261ffff604084015116604085015260ff606084015116606085015260ff608084015116608085015260ff60a08401511660a08501528091505092915050565b6000815160e0845261523f60e085018261500d565b905060208301511515602085015261ffff604084015116604085015260ff606084015116606085015260ff608084015116608085015260a083015184820360a086015261528c828261500d565b91505060c083015184820360c08601526152a6828261500d565b95945050505050565b6040815260006152c260408301856151c8565b82810360208401526152a6818561522a565b80518252602081015160208301526000604082015160a060408501526152fd60a085018261500d565b606084810151908601526080938401516001600160a01b031693909401929092525090919050565b6000608082016080835280875180835260a08501915060a08160051b86010192506020808a0160005b8381101561537c57609f1988870301855261536a8683516152d4565b9550938201939082019060010161534e565b5050850197909752509315156040830152506060015292915050565b600080600080600080600080600060e08a8c0312156153b657600080fd5b8935985060208a0135975060408a0135965060608a0135955060808a0135945060a08a01356001600160401b03808211156153f057600080fd5b6153fc8d838e016150f9565b909650945060c08c013591508082111561541557600080fd5b506154228c828d016150f9565b915080935050809150509295985092959850929598565b6000608082016080835280875180835260a08501915060a08160051b86010192506020808a0160005b8381101561537c57609f1988870301855261547e86835161500d565b95509382019390820190600101615462565b6000806000806000608086880312156154a857600080fd5b853594506020860135935060408601356001600160401b03808211156154cd57600080fd5b6154d989838a016150f9565b909550935060608801359150808211156154f257600080fd5b5086016040818903121561550557600080fd5b809150509295509295909350565b60008060008060006080868803121561552b57600080fd5b853594506020860135935060408601356001600160401b0381111561554f57600080fd5b61555b888289016150f9565b96999598509660600135949350505050565b6000806000806080858703121561558357600080fd5b5050823594602084013594506040840135936060013592509050565b600081518084526020808501945080840160005b838110156155cf578151875295820195908201906001016155b3565b509495945050505050565b60a0808252865190820181905260009060209060c0840190828a01845b82811015615613578151845292840192908401906001016155f7565b50505083810382850152615627818961559f565b6040850197909752505050911515606083015260809091015292915050565b60006101408c83528b60208401528a60408401528960608401528860808401528760a084015260018060a01b03871660c08401526001600160601b03861660e08401528061010084015261569c8184018661500d565b90508281036101208401526156b1818561500d565b9d9c50505050505050505050505050565b6000602082840312156156d457600080fd5b614fe282615065565b6000610140825184526020830151602085015260408301516040850152606083015160608501526080830151608085015260a083015160a085015260c083015161573260c08601826001600160a01b03169052565b5060e083015161574d60e08601826001600160601b03169052565b506101008084015182828701526157668387018261500d565b925050506101208084015185830382870152615782838261500d565b9695505050505050565b86815285602082015260c0604082015260006157ab60c08301876156dd565b82810360608401528551604082526157c660408301826151c8565b9050602087015182820360208401526157df828261522a565b9250505084608084015282810360a08401526157fb818561500d565b9998505050505050505050565b6000608082016080835280875180835260a08501915060a08160051b86010192506020808a0160005b8381101561537c57609f1988870301855261584d8683516156dd565b95509382019390820190600101615831565b8060408101831015610d2c57600080fd5b8060808101831015610d2c57600080fd5b60008083601f84011261589357600080fd5b5081356001600160401b038111156158aa57600080fd5b6020830191508360208260051b850101111561513a57600080fd5b60008060008060008060008060008060006101a08c8e0312156158e757600080fd5b6158f18d8d61585f565b9a506159008d60408e01615870565b995061590f8d60c08e0161585f565b98506001600160401b03806101008e0135111561592b57600080fd5b61593c8e6101008f01358f01615881565b90995097506101208d013596506101408d013595506101608d013581101561596357600080fd5b6159748e6101608f01358f016150f9565b90955093506101808d013581101561598b57600080fd5b5061599d8d6101808e01358e016150f9565b81935080925050509295989b509295989b9093969950565b8015158114613c6057600080fd5b803561507c816159b5565b600080604083850312156159e157600080fd5b6159ea83615065565b915060208301356159fa816159b5565b809150509250929050565b634e487b7160e01b600052604160045260246000fd5b60405160c081016001600160401b0381118282101715615a3d57615a3d615a05565b60405290565b60006001600160401b0380841115615a5d57615a5d615a05565b604051601f8501601f19908116603f01168101908282118183101715615a8557615a85615a05565b81604052809350858152868686011115615a9e57600080fd5b858560208301376000602087830101525050509392505050565b60008060008060808587031215615ace57600080fd5b615ad785615065565b9350615ae560208601615065565b92506040850135915060608501356001600160401b03811115615b0757600080fd5b8501601f81018713615b1857600080fd5b615b2787823560208401615a43565b91505092959194509250565b606081526000615b4660608301866156dd565b60208301949094525060400152919050565b85815284602082015260a060408201526000615b7760a083018661500d565b6060830194909452506001600160a01b03919091166080909101529392505050565b60008060408385031215615bac57600080fd5b615bb583615065565b9150615bc360208401615065565b90509250929050565b61ffff81168114613c6057600080fd5b803561507c81615bcc565b60ff81168114613c6057600080fd5b803561507c81615be7565b600060c08284031215615c1357600080fd5b615c1b615a1b565b905081356001600160401b03811115615c3357600080fd5b8201601f81018413615c4457600080fd5b615c5384823560208401615a43565b825250615c62602083016159c3565b6020820152615c7360408301615bdc565b6040820152615c8460608301615bf6565b6060820152615c9560808301615bf6565b6080820152615ca660a08301615bf6565b60a082015292915050565b600060208284031215615cc357600080fd5b81356001600160401b03811115615cd957600080fd5b61412e84828501615c01565b602081526000614fe260208301846152d4565b60008060408385031215615d0b57600080fd5b82359150615bc360208401615065565b60c081526000615d2e60c083018961559f565b8281036020840152615d40818961559f565b90508281036040840152615d54818861559f565b60608401969096525050911515608083015260a0909101529392505050565b600181811c90821680615d8757607f821691505b602082108103615da757634e487b7160e01b600052602260045260246000fd5b50919050565b601f821115611bf057600081815260208120601f850160051c81016020861015615dd45750805b601f850160051c820191505b81811015614a3757828155600101615de0565b600019600383901b1c191660019190911b1790565b81516001600160401b03811115615e2157615e21615a05565b615e3581615e2f8454615d73565b84615dad565b602080601f831160018114615e645760008415615e525750858301515b615e5c8582615df3565b865550614a37565b600085815260208120601f198616915b82811015615e9357888601518255948401946001909101908401615e74565b5085821015615eb15787850151600019600388901b60f8161c191681555b5050505050600190811b01905550565b81835281816020850137506000828201602090810191909152601f909101601f19169091010190565b604081526000615efd604083018661500d565b8281036020840152615782818587615ec1565b634e487b7160e01b600052601160045260246000fd5b80820180821115610d2c57610d2c615f10565b81810381811115610d2c57610d2c615f10565b634e487b7160e01b600052603260045260246000fd5b600060018201615f7457615f74615f10565b5060010190565b6000823560de19833603018112615f9157600080fd5b9190910192915050565b6000808335601e19843603018112615fb257600080fd5b8301803591506001600160401b03821115615fcc57600080fd5b60200191503681900382131561513a57600080fd5b6000823560be19833603018112615f9157600080fd5b6000610d2c3683615c01565b6001600160401b0383111561601a5761601a615a05565b61602e836160288354615d73565b83615dad565b6000601f84116001811461605c576000851561604a5750838201355b6160548682615df3565b845550611bce565b600083815260209020601f19861690835b8281101561608d578685013582556020948501946001909201910161606d565b50868210156160aa5760001960f88860031b161c19848701351681555b505060018560011b0183555050505050565b60008135610d2c816159b5565b60008135610d2c81615bcc565b60008135610d2c81615be7565b6160ed8283615f9b565b6001600160401b0381111561610457616104615a05565b616118816161128554615d73565b85615dad565b6000601f82116001811461614657600083156161345750838201355b61613e8482615df3565b8655506161a0565b600085815260209020601f19841690835b828110156161775786850135825560209485019460019092019101616157565b50848210156161945760001960f88660031b161c19848701351681555b505060018360011b0185555b50505050600181016161cb6161b7602085016160bc565b825490151560ff1660ff1991909116178255565b6161f26161da604085016160c9565b825462ffff00191660089190911b62ffff0016178255565b61621b616201606085016160d6565b825463ff000000191660189190911b63ff00000016178255565b61624661622a608085016160d6565b825464ff00000000191660209190911b64ff0000000016178255565b5061625460a0830183615f9b565b616262818360028601616003565b505061627160c0830183615f9b565b61107d818360038601616003565b813560be1983360301811261629357600080fd5b820161629f8180615f9b565b6001600160401b038111156162b6576162b6615a05565b6162ca816162c48654615d73565b86615dad565b6000601f8211600181146162f857600083156162e65750838201355b6162f08482615df3565b875550616352565b600086815260209020601f19841690835b828110156163295786850135825560209485019460019092019101616309565b50848210156163465760001960f88660031b161c19848701351681555b505060018360011b0186555b50505050600182016163696161b7602084016160bc565b6163786161da604084016160c9565b616387616201606084016160d6565b61639661622a608084016160d6565b6163c36163a560a084016160d6565b825465ff0000000000191660289190911b65ff000000000016178255565b5050610df86163d56020840184615f7b565b600283016160e3565b8481526060602082015260006163f8606083018587615ec1565b905082604083015295945050505050565b60006101206040808985378084018860005b60028110156164385783828437918301919083019060010161641b565b505050808760c086013750610100830181905282018390526101406001600160fb1b0384111561646757600080fd5b8360051b808683860137929092019091019695505050505050565b60006020828403121561649457600080fd5b8151614fe2816159b5565b6000602082840312156164b157600080fd5b5051919050565b600061ffff60f01b808a60f01b16835288516164db816002860160208d01614fe9565b60f898891b6001600160f81b03199081166002959092019485019190915260f09790971b1660038301525092851b8416600584015290841b8316600683015290921b16600782015260080192915050565b878152866020820152856040820152846060820152836080820152818360a08301376000910160a0019081529695505050505050565b87815286602082015285604082015284606082015283608082015260c060a082015260006157fb60c083018486615ec1565b60008251615f91818460208701614fe9565b600083516165b8818460208801614fe9565b9190910191825250602001919050565b6001600160a01b03858116825284166020820152604081018390526080606082018190526000906157829083018461500d565b60006020828403121561660d57600080fd5b8151614fe281614faf565b634e487b7160e01b600052603160045260246000fdfea26469706673582212207a3ba27b970cdaa522865a411d2513718963e85e7451365595394324467a710864736f6c63430008140033",
  "linkReferences": {},
  "deployedLinkReferences": {}
}