{
  "_format": "hh-sol-artifact-1",
  "contractName": "DeepFamily",
  "sourceName": "contracts/DeepFamily.sol",
  "abi": [
    {
      "inputs": [
        {
          "internalType": "address",
          "name": "_deepFamilyTokenContract",
          "type": "address"
        },
        {
          "internalType": "address",
          "name": "_personHashVerifier",
          "type": "address"
        },
        {
          "internalType": "address",
          "name": "_namePoseidonVerifier",
          "type": "address"
        }
      ],
      "stateMutability": "nonpayable",
      "type": "constructor"
    },
    {
      "inputs": [],
      "name": "BasicInfoMismatch",
      "type": "error"
    },
    {
      "inputs": [],
      "name": "CallerMismatch",
      "type": "error"
    },
    {
      "inputs": [],
      "name": "ChunkHashMismatch",
      "type": "error"
    },
    {
      "inputs": [],
      "name": "ChunkIndexOutOfRange",
      "type": "error"
    },
    {
      "inputs": [],
      "name": "DirectETHNotAccepted",
      "type": "error"
    },
    {
      "inputs": [],
      "name": "DuplicateVersion",
      "type": "error"
    },
    {
      "inputs": [],
      "name": "ERC721EnumerableForbiddenBatchMint",
      "type": "error"
    },
    {
      "inputs": [
        {
          "internalType": "address",
          "name": "sender",
          "type": "address"
        },
        {
          "internalType": "uint256",
          "name": "tokenId",
          "type": "uint256"
        },
        {
          "internalType": "address",
          "name": "owner",
          "type": "address"
        }
      ],
      "name": "ERC721IncorrectOwner",
      "type": "error"
    },
    {
      "inputs": [
        {
          "internalType": "address",
          "name": "operator",
          "type": "address"
        },
        {
          "internalType": "uint256",
          "name": "tokenId",
          "type": "uint256"
        }
      ],
      "name": "ERC721InsufficientApproval",
      "type": "error"
    },
    {
      "inputs": [
        {
          "internalType": "address",
          "name": "approver",
          "type": "address"
        }
      ],
      "name": "ERC721InvalidApprover",
      "type": "error"
    },
    {
      "inputs": [
        {
          "internalType": "address",
          "name": "operator",
          "type": "address"
        }
      ],
      "name": "ERC721InvalidOperator",
      "type": "error"
    },
    {
      "inputs": [
        {
          "internalType": "address",
          "name": "owner",
          "type": "address"
        }
      ],
      "name": "ERC721InvalidOwner",
      "type": "error"
    },
    {
      "inputs": [
        {
          "internalType": "address",
          "name": "receiver",
          "type": "address"
        }
      ],
      "name": "ERC721InvalidReceiver",
      "type": "error"
    },
    {
      "inputs": [
        {
          "internalType": "address",
          "name": "sender",
          "type": "address"
        }
      ],
      "name": "ERC721InvalidSender",
      "type": "error"
    },
    {
      "inputs": [
        {
          "internalType": "uint256",
          "name": "tokenId",
          "type": "uint256"
        }
      ],
      "name": "ERC721NonexistentToken",
      "type": "error"
    },
    {
      "inputs": [
        {
          "internalType": "address",
          "name": "owner",
          "type": "address"
        },
        {
          "internalType": "uint256",
          "name": "index",
          "type": "uint256"
        }
      ],
      "name": "ERC721OutOfBoundsIndex",
      "type": "error"
    },
    {
      "inputs": [],
      "name": "EndorsementFeeTransferFailed",
      "type": "error"
    },
    {
      "inputs": [],
      "name": "InvalidBirthDay",
      "type": "error"
    },
    {
      "inputs": [],
      "name": "InvalidBirthMonth",
      "type": "error"
    },
    {
      "inputs": [],
      "name": "InvalidBirthPlace",
      "type": "error"
    },
    {
      "inputs": [],
      "name": "InvalidCIDLength",
      "type": "error"
    },
    {
      "inputs": [],
      "name": "InvalidChunkContent",
      "type": "error"
    },
    {
      "inputs": [],
      "name": "InvalidDeathPlace",
      "type": "error"
    },
    {
      "inputs": [],
      "name": "InvalidFatherVersionIndex",
      "type": "error"
    },
    {
      "inputs": [],
      "name": "InvalidFullName",
      "type": "error"
    },
    {
      "inputs": [],
      "name": "InvalidMotherVersionIndex",
      "type": "error"
    },
    {
      "inputs": [],
      "name": "InvalidPersonHash",
      "type": "error"
    },
    {
      "inputs": [],
      "name": "InvalidStory",
      "type": "error"
    },
    {
      "inputs": [],
      "name": "InvalidTagLength",
      "type": "error"
    },
    {
      "inputs": [],
      "name": "InvalidTokenId",
      "type": "error"
    },
    {
      "inputs": [],
      "name": "InvalidTokenURI",
      "type": "error"
    },
    {
      "inputs": [],
      "name": "InvalidVersionIndex",
      "type": "error"
    },
    {
      "inputs": [],
      "name": "InvalidZKProof",
      "type": "error"
    },
    {
      "inputs": [],
      "name": "MustBeNFTHolder",
      "type": "error"
    },
    {
      "inputs": [],
      "name": "MustEndorseVersionFirst",
      "type": "error"
    },
    {
      "inputs": [],
      "name": "NameVerifierNotSet",
      "type": "error"
    },
    {
      "inputs": [
        {
          "internalType": "address",
          "name": "owner",
          "type": "address"
        }
      ],
      "name": "OwnableInvalidOwner",
      "type": "error"
    },
    {
      "inputs": [
        {
          "internalType": "address",
          "name": "account",
          "type": "address"
        }
      ],
      "name": "OwnableUnauthorizedAccount",
      "type": "error"
    },
    {
      "inputs": [],
      "name": "PageSizeExceedsLimit",
      "type": "error"
    },
    {
      "inputs": [],
      "name": "ReentrancyGuardReentrantCall",
      "type": "error"
    },
    {
      "inputs": [],
      "name": "StoryAlreadySealed",
      "type": "error"
    },
    {
      "inputs": [],
      "name": "StoryNotFound",
      "type": "error"
    },
    {
      "inputs": [],
      "name": "TokenContractNotSet",
      "type": "error"
    },
    {
      "inputs": [],
      "name": "VerifierNotSet",
      "type": "error"
    },
    {
      "inputs": [],
      "name": "VersionAlreadyMinted",
      "type": "error"
    },
    {
      "anonymous": false,
      "inputs": [
        {
          "indexed": true,
          "internalType": "address",
          "name": "owner",
          "type": "address"
        },
        {
          "indexed": true,
          "internalType": "address",
          "name": "approved",
          "type": "address"
        },
        {
          "indexed": true,
          "internalType": "uint256",
          "name": "tokenId",
          "type": "uint256"
        }
      ],
      "name": "Approval",
      "type": "event"
    },
    {
      "anonymous": false,
      "inputs": [
        {
          "indexed": true,
          "internalType": "address",
          "name": "owner",
          "type": "address"
        },
        {
          "indexed": true,
          "internalType": "address",
          "name": "operator",
          "type": "address"
        },
        {
          "indexed": false,
          "internalType": "bool",
          "name": "approved",
          "type": "bool"
        }
      ],
      "name": "ApprovalForAll",
      "type": "event"
    },
    {
      "anonymous": false,
      "inputs": [
        {
          "indexed": true,
          "internalType": "address",
          "name": "previousOwner",
          "type": "address"
        },
        {
          "indexed": true,
          "internalType": "address",
          "name": "newOwner",
          "type": "address"
        }
      ],
      "name": "OwnershipTransferred",
      "type": "event"
    },
    {
      "anonymous": false,
      "inputs": [
        {
          "indexed": true,
          "internalType": "bytes32",
          "name": "personHash",
          "type": "bytes32"
        },
        {
          "indexed": true,
          "internalType": "address",
          "name": "prover",
          "type": "address"
        }
      ],
      "name": "PersonHashZKVerified",
      "type": "event"
    },
    {
      "anonymous": false,
      "inputs": [
        {
          "indexed": true,
          "internalType": "bytes32",
          "name": "personHash",
          "type": "bytes32"
        },
        {
          "indexed": true,
          "internalType": "uint256",
          "name": "tokenId",
          "type": "uint256"
        },
        {
          "indexed": true,
          "internalType": "address",
          "name": "owner",
          "type": "address"
        },
        {
          "indexed": false,
          "internalType": "uint256",
          "name": "versionIndex",
          "type": "uint256"
        },
        {
          "indexed": false,
          "internalType": "string",
          "name": "tokenURI",
          "type": "string"
        },
        {
          "indexed": false,
          "internalType": "uint256",
          "name": "timestamp",
          "type": "uint256"
        }
      ],
      "name": "PersonNFTMinted",
      "type": "event"
    },
    {
      "anonymous": false,
      "inputs": [
        {
          "indexed": true,
          "internalType": "bytes32",
          "name": "personHash",
          "type": "bytes32"
        },
        {
          "indexed": true,
          "internalType": "uint256",
          "name": "versionIndex",
          "type": "uint256"
        },
        {
          "indexed": true,
          "internalType": "address",
          "name": "addedBy",
          "type": "address"
        },
        {
          "indexed": false,
          "internalType": "uint256",
          "name": "timestamp",
          "type": "uint256"
        },
        {
          "indexed": false,
          "internalType": "bytes32",
          "name": "fatherHash",
          "type": "bytes32"
        },
        {
          "indexed": false,
          "internalType": "uint256",
          "name": "fatherVersionIndex",
          "type": "uint256"
        },
        {
          "indexed": false,
          "internalType": "bytes32",
          "name": "motherHash",
          "type": "bytes32"
        },
        {
          "indexed": false,
          "internalType": "uint256",
          "name": "motherVersionIndex",
          "type": "uint256"
        },
        {
          "indexed": false,
          "internalType": "string",
          "name": "tag",
          "type": "string"
        }
      ],
      "name": "PersonVersionAdded",
      "type": "event"
    },
    {
      "anonymous": false,
      "inputs": [
        {
          "indexed": true,
          "internalType": "bytes32",
          "name": "personHash",
          "type": "bytes32"
        },
        {
          "indexed": true,
          "internalType": "address",
          "name": "endorser",
          "type": "address"
        },
        {
          "indexed": false,
          "internalType": "uint256",
          "name": "versionIndex",
          "type": "uint256"
        },
        {
          "indexed": false,
          "internalType": "uint256",
          "name": "endorsementFee",
          "type": "uint256"
        },
        {
          "indexed": false,
          "internalType": "uint256",
          "name": "timestamp",
          "type": "uint256"
        }
      ],
      "name": "PersonVersionEndorsed",
      "type": "event"
    },
    {
      "anonymous": false,
      "inputs": [
        {
          "indexed": true,
          "internalType": "uint256",
          "name": "tokenId",
          "type": "uint256"
        },
        {
          "indexed": true,
          "internalType": "uint256",
          "name": "chunkIndex",
          "type": "uint256"
        },
        {
          "indexed": false,
          "internalType": "bytes32",
          "name": "chunkHash",
          "type": "bytes32"
        },
        {
          "indexed": true,
          "internalType": "address",
          "name": "editor",
          "type": "address"
        },
        {
          "indexed": false,
          "internalType": "uint256",
          "name": "contentLength",
          "type": "uint256"
        }
      ],
      "name": "StoryChunkAdded",
      "type": "event"
    },
    {
      "anonymous": false,
      "inputs": [
        {
          "indexed": true,
          "internalType": "uint256",
          "name": "tokenId",
          "type": "uint256"
        },
        {
          "indexed": true,
          "internalType": "uint256",
          "name": "chunkIndex",
          "type": "uint256"
        },
        {
          "indexed": false,
          "internalType": "bytes32",
          "name": "oldHash",
          "type": "bytes32"
        },
        {
          "indexed": false,
          "internalType": "bytes32",
          "name": "newHash",
          "type": "bytes32"
        },
        {
          "indexed": true,
          "internalType": "address",
          "name": "editor",
          "type": "address"
        }
      ],
      "name": "StoryChunkUpdated",
      "type": "event"
    },
    {
      "anonymous": false,
      "inputs": [
        {
          "indexed": true,
          "internalType": "uint256",
          "name": "tokenId",
          "type": "uint256"
        },
        {
          "indexed": false,
          "internalType": "uint256",
          "name": "totalChunks",
          "type": "uint256"
        },
        {
          "indexed": false,
          "internalType": "bytes32",
          "name": "fullStoryHash",
          "type": "bytes32"
        },
        {
          "indexed": true,
          "internalType": "address",
          "name": "sealer",
          "type": "address"
        }
      ],
      "name": "StorySealed",
      "type": "event"
    },
    {
      "anonymous": false,
      "inputs": [
        {
          "indexed": true,
          "internalType": "address",
          "name": "miner",
          "type": "address"
        },
        {
          "indexed": true,
          "internalType": "bytes32",
          "name": "personHash",
          "type": "bytes32"
        },
        {
          "indexed": true,
          "internalType": "uint256",
          "name": "versionIndex",
          "type": "uint256"
        },
        {
          "indexed": false,
          "internalType": "uint256",
          "name": "reward",
          "type": "uint256"
        }
      ],
      "name": "TokenRewardDistributed",
      "type": "event"
    },
    {
      "anonymous": false,
      "inputs": [
        {
          "indexed": true,
          "internalType": "uint256",
          "name": "tokenId",
          "type": "uint256"
        },
        {
          "indexed": true,
          "internalType": "address",
          "name": "owner",
          "type": "address"
        },
        {
          "indexed": false,
          "internalType": "string",
          "name": "oldURI",
          "type": "string"
        },
        {
          "indexed": false,
          "internalType": "string",
          "name": "newURI",
          "type": "string"
        }
      ],
      "name": "TokenURIUpdated",
      "type": "event"
    },
    {
      "anonymous": false,
      "inputs": [
        {
          "indexed": true,
          "internalType": "address",
          "name": "from",
          "type": "address"
        },
        {
          "indexed": true,
          "internalType": "address",
          "name": "to",
          "type": "address"
        },
        {
          "indexed": true,
          "internalType": "uint256",
          "name": "tokenId",
          "type": "uint256"
        }
      ],
      "name": "Transfer",
      "type": "event"
    },
    {
      "stateMutability": "payable",
      "type": "fallback"
    },
    {
      "inputs": [],
      "name": "DEEP_FAMILY_TOKEN_CONTRACT",
      "outputs": [
        {
          "internalType": "address",
          "name": "",
          "type": "address"
        }
      ],
      "stateMutability": "view",
      "type": "function"
    },
    {
      "inputs": [],
      "name": "MAX_CHUNK_CONTENT_LENGTH",
      "outputs": [
        {
          "internalType": "uint256",
          "name": "",
          "type": "uint256"
        }
      ],
      "stateMutability": "view",
      "type": "function"
    },
    {
      "inputs": [],
      "name": "MAX_LONG_TEXT_LENGTH",
      "outputs": [
        {
          "internalType": "uint256",
          "name": "",
          "type": "uint256"
        }
      ],
      "stateMutability": "view",
      "type": "function"
    },
    {
      "inputs": [],
      "name": "MAX_QUERY_PAGE_SIZE",
      "outputs": [
        {
          "internalType": "uint256",
          "name": "",
          "type": "uint256"
        }
      ],
      "stateMutability": "view",
      "type": "function"
    },
    {
      "inputs": [],
      "name": "MAX_STORY_CHUNKS",
      "outputs": [
        {
          "internalType": "uint256",
          "name": "",
          "type": "uint256"
        }
      ],
      "stateMutability": "view",
      "type": "function"
    },
    {
      "inputs": [],
      "name": "NAME_POSEIDON_VERIFIER",
      "outputs": [
        {
          "internalType": "address",
          "name": "",
          "type": "address"
        }
      ],
      "stateMutability": "view",
      "type": "function"
    },
    {
      "inputs": [],
      "name": "PERSON_HASH_VERIFIER",
      "outputs": [
        {
          "internalType": "address",
          "name": "",
          "type": "address"
        }
      ],
      "stateMutability": "view",
      "type": "function"
    },
    {
      "inputs": [
        {
          "internalType": "uint256",
          "name": "",
          "type": "uint256"
        },
        {
          "internalType": "uint256",
          "name": "",
          "type": "uint256"
        }
      ],
      "name": "activeChunkIndices",
      "outputs": [
        {
          "internalType": "uint256",
          "name": "",
          "type": "uint256"
        }
      ],
      "stateMutability": "view",
      "type": "function"
    },
    {
      "inputs": [
        {
          "internalType": "uint256[2]",
          "name": "a",
          "type": "uint256[2]"
        },
        {
          "internalType": "uint256[2][2]",
          "name": "b",
          "type": "uint256[2][2]"
        },
        {
          "internalType": "uint256[2]",
          "name": "c",
          "type": "uint256[2]"
        },
        {
          "internalType": "uint256[7]",
          "name": "publicSignals",
          "type": "uint256[7]"
        },
        {
          "internalType": "uint256",
          "name": "fatherVersionIndex",
          "type": "uint256"
        },
        {
          "internalType": "uint256",
          "name": "motherVersionIndex",
          "type": "uint256"
        },
        {
          "internalType": "string",
          "name": "tag",
          "type": "string"
        },
        {
          "internalType": "string",
          "name": "metadataCID",
          "type": "string"
        }
      ],
      "name": "addPersonZK",
      "outputs": [],
      "stateMutability": "nonpayable",
      "type": "function"
    },
    {
      "inputs": [
        {
          "internalType": "uint256",
          "name": "tokenId",
          "type": "uint256"
        },
        {
          "internalType": "uint256",
          "name": "chunkIndex",
          "type": "uint256"
        },
        {
          "internalType": "string",
          "name": "content",
          "type": "string"
        },
        {
          "internalType": "bytes32",
          "name": "expectedHash",
          "type": "bytes32"
        }
      ],
      "name": "addStoryChunk",
      "outputs": [],
      "stateMutability": "nonpayable",
      "type": "function"
    },
    {
      "inputs": [
        {
          "internalType": "address",
          "name": "to",
          "type": "address"
        },
        {
          "internalType": "uint256",
          "name": "tokenId",
          "type": "uint256"
        }
      ],
      "name": "approve",
      "outputs": [],
      "stateMutability": "nonpayable",
      "type": "function"
    },
    {
      "inputs": [
        {
          "internalType": "address",
          "name": "owner",
          "type": "address"
        }
      ],
      "name": "balanceOf",
      "outputs": [
        {
          "internalType": "uint256",
          "name": "",
          "type": "uint256"
        }
      ],
      "stateMutability": "view",
      "type": "function"
    },
    {
      "inputs": [
        {
          "internalType": "bytes32",
          "name": "",
          "type": "bytes32"
        },
        {
          "internalType": "uint256",
          "name": "",
          "type": "uint256"
        },
        {
          "internalType": "uint256",
          "name": "",
          "type": "uint256"
        }
      ],
      "name": "childrenOf",
      "outputs": [
        {
          "internalType": "bytes32",
          "name": "childHash",
          "type": "bytes32"
        },
        {
          "internalType": "uint256",
          "name": "childVersionIndex",
          "type": "uint256"
        }
      ],
      "stateMutability": "view",
      "type": "function"
    },
    {
      "inputs": [
        {
          "internalType": "bytes32",
          "name": "personHash",
          "type": "bytes32"
        },
        {
          "internalType": "uint256",
          "name": "versionIndex",
          "type": "uint256"
        }
      ],
      "name": "endorseVersion",
      "outputs": [],
      "stateMutability": "nonpayable",
      "type": "function"
    },
    {
      "inputs": [
        {
          "internalType": "bytes32",
          "name": "",
          "type": "bytes32"
        },
        {
          "internalType": "address",
          "name": "",
          "type": "address"
        }
      ],
      "name": "endorsedVersionIndex",
      "outputs": [
        {
          "internalType": "uint256",
          "name": "",
          "type": "uint256"
        }
      ],
      "stateMutability": "view",
      "type": "function"
    },
    {
      "inputs": [
        {
          "internalType": "uint256",
          "name": "tokenId",
          "type": "uint256"
        }
      ],
      "name": "getApproved",
      "outputs": [
        {
          "internalType": "address",
          "name": "",
          "type": "address"
        }
      ],
      "stateMutability": "view",
      "type": "function"
    },
    {
      "inputs": [
        {
          "internalType": "uint256",
          "name": "tokenId",
          "type": "uint256"
        }
      ],
      "name": "getNFTDetails",
      "outputs": [
        {
          "internalType": "bytes32",
          "name": "personHash",
          "type": "bytes32"
        },
        {
          "internalType": "uint256",
          "name": "versionIndex",
          "type": "uint256"
        },
        {
          "components": [
            {
              "internalType": "bytes32",
              "name": "personHash",
              "type": "bytes32"
            },
            {
              "internalType": "bytes32",
              "name": "fatherHash",
              "type": "bytes32"
            },
            {
              "internalType": "bytes32",
              "name": "motherHash",
              "type": "bytes32"
            },
            {
              "internalType": "uint256",
              "name": "versionIndex",
              "type": "uint256"
            },
            {
              "internalType": "uint256",
              "name": "fatherVersionIndex",
              "type": "uint256"
            },
            {
              "internalType": "uint256",
              "name": "motherVersionIndex",
              "type": "uint256"
            },
            {
              "internalType": "address",
              "name": "addedBy",
              "type": "address"
            },
            {
              "internalType": "uint96",
              "name": "timestamp",
              "type": "uint96"
            },
            {
              "internalType": "string",
              "name": "tag",
              "type": "string"
            },
            {
              "internalType": "string",
              "name": "metadataCID",
              "type": "string"
            }
          ],
          "internalType": "struct DeepFamily.PersonVersion",
          "name": "version",
          "type": "tuple"
        },
        {
          "components": [
            {
              "components": [
                {
                  "internalType": "bytes32",
                  "name": "fullNameCommitment",
                  "type": "bytes32"
                },
                {
                  "internalType": "bool",
                  "name": "isBirthBC",
                  "type": "bool"
                },
                {
                  "internalType": "uint16",
                  "name": "birthYear",
                  "type": "uint16"
                },
                {
                  "internalType": "uint8",
                  "name": "birthMonth",
                  "type": "uint8"
                },
                {
                  "internalType": "uint8",
                  "name": "birthDay",
                  "type": "uint8"
                },
                {
                  "internalType": "uint8",
                  "name": "gender",
                  "type": "uint8"
                }
              ],
              "internalType": "struct DeepFamily.PersonBasicInfo",
              "name": "basicInfo",
              "type": "tuple"
            },
            {
              "components": [
                {
                  "internalType": "string",
                  "name": "fullName",
                  "type": "string"
                },
                {
                  "internalType": "string",
                  "name": "birthPlace",
                  "type": "string"
                },
                {
                  "internalType": "bool",
                  "name": "isDeathBC",
                  "type": "bool"
                },
                {
                  "internalType": "uint16",
                  "name": "deathYear",
                  "type": "uint16"
                },
                {
                  "internalType": "uint8",
                  "name": "deathMonth",
                  "type": "uint8"
                },
                {
                  "internalType": "uint8",
                  "name": "deathDay",
                  "type": "uint8"
                },
                {
                  "internalType": "string",
                  "name": "deathPlace",
                  "type": "string"
                },
                {
                  "internalType": "string",
                  "name": "story",
                  "type": "string"
                }
              ],
              "internalType": "struct DeepFamily.PersonSupplementInfo",
              "name": "supplementInfo",
              "type": "tuple"
            }
          ],
          "internalType": "struct DeepFamily.PersonCoreInfo",
          "name": "coreInfo",
          "type": "tuple"
        },
        {
          "internalType": "uint256",
          "name": "endorsementCount",
          "type": "uint256"
        },
        {
          "internalType": "string",
          "name": "nftTokenURI",
          "type": "string"
        }
      ],
      "stateMutability": "view",
      "type": "function"
    },
    {
      "inputs": [
        {
          "components": [
            {
              "internalType": "bytes32",
              "name": "fullNameCommitment",
              "type": "bytes32"
            },
            {
              "internalType": "bool",
              "name": "isBirthBC",
              "type": "bool"
            },
            {
              "internalType": "uint16",
              "name": "birthYear",
              "type": "uint16"
            },
            {
              "internalType": "uint8",
              "name": "birthMonth",
              "type": "uint8"
            },
            {
              "internalType": "uint8",
              "name": "birthDay",
              "type": "uint8"
            },
            {
              "internalType": "uint8",
              "name": "gender",
              "type": "uint8"
            }
          ],
          "internalType": "struct DeepFamily.PersonBasicInfo",
          "name": "basicInfo",
          "type": "tuple"
        }
      ],
      "name": "getPersonHash",
      "outputs": [
        {
          "internalType": "bytes32",
          "name": "",
          "type": "bytes32"
        }
      ],
      "stateMutability": "pure",
      "type": "function"
    },
    {
      "inputs": [
        {
          "internalType": "uint256",
          "name": "tokenId",
          "type": "uint256"
        },
        {
          "internalType": "uint256",
          "name": "chunkIndex",
          "type": "uint256"
        }
      ],
      "name": "getStoryChunk",
      "outputs": [
        {
          "components": [
            {
              "internalType": "uint256",
              "name": "chunkIndex",
              "type": "uint256"
            },
            {
              "internalType": "bytes32",
              "name": "chunkHash",
              "type": "bytes32"
            },
            {
              "internalType": "string",
              "name": "content",
              "type": "string"
            },
            {
              "internalType": "uint256",
              "name": "timestamp",
              "type": "uint256"
            },
            {
              "internalType": "address",
              "name": "lastEditor",
              "type": "address"
            }
          ],
          "internalType": "struct DeepFamily.StoryChunk",
          "name": "chunk",
          "type": "tuple"
        }
      ],
      "stateMutability": "view",
      "type": "function"
    },
    {
      "inputs": [
        {
          "internalType": "uint256",
          "name": "tokenId",
          "type": "uint256"
        }
      ],
      "name": "getStoryMetadata",
      "outputs": [
        {
          "components": [
            {
              "internalType": "uint256",
              "name": "totalChunks",
              "type": "uint256"
            },
            {
              "internalType": "bytes32",
              "name": "fullStoryHash",
              "type": "bytes32"
            },
            {
              "internalType": "uint256",
              "name": "lastUpdateTime",
              "type": "uint256"
            },
            {
              "internalType": "bool",
              "name": "isSealed",
              "type": "bool"
            },
            {
              "internalType": "uint256",
              "name": "totalLength",
              "type": "uint256"
            }
          ],
          "internalType": "struct DeepFamily.StoryMetadata",
          "name": "metadata",
          "type": "tuple"
        }
      ],
      "stateMutability": "view",
      "type": "function"
    },
    {
      "inputs": [
        {
          "internalType": "bytes32",
          "name": "personHash",
          "type": "bytes32"
        },
        {
          "internalType": "uint256",
          "name": "versionIndex",
          "type": "uint256"
        }
      ],
      "name": "getVersionDetails",
      "outputs": [
        {
          "components": [
            {
              "internalType": "bytes32",
              "name": "personHash",
              "type": "bytes32"
            },
            {
              "internalType": "bytes32",
              "name": "fatherHash",
              "type": "bytes32"
            },
            {
              "internalType": "bytes32",
              "name": "motherHash",
              "type": "bytes32"
            },
            {
              "internalType": "uint256",
              "name": "versionIndex",
              "type": "uint256"
            },
            {
              "internalType": "uint256",
              "name": "fatherVersionIndex",
              "type": "uint256"
            },
            {
              "internalType": "uint256",
              "name": "motherVersionIndex",
              "type": "uint256"
            },
            {
              "internalType": "address",
              "name": "addedBy",
              "type": "address"
            },
            {
              "internalType": "uint96",
              "name": "timestamp",
              "type": "uint96"
            },
            {
              "internalType": "string",
              "name": "tag",
              "type": "string"
            },
            {
              "internalType": "string",
              "name": "metadataCID",
              "type": "string"
            }
          ],
          "internalType": "struct DeepFamily.PersonVersion",
          "name": "version",
          "type": "tuple"
        },
        {
          "internalType": "uint256",
          "name": "endorsementCount",
          "type": "uint256"
        },
        {
          "internalType": "uint256",
          "name": "tokenId",
          "type": "uint256"
        }
      ],
      "stateMutability": "view",
      "type": "function"
    },
    {
      "inputs": [
        {
          "internalType": "address",
          "name": "owner",
          "type": "address"
        },
        {
          "internalType": "address",
          "name": "operator",
          "type": "address"
        }
      ],
      "name": "isApprovedForAll",
      "outputs": [
        {
          "internalType": "bool",
          "name": "",
          "type": "bool"
        }
      ],
      "stateMutability": "view",
      "type": "function"
    },
    {
      "inputs": [
        {
          "internalType": "bytes32",
          "name": "parentHash",
          "type": "bytes32"
        },
        {
          "internalType": "uint256",
          "name": "parentVersionIndex",
          "type": "uint256"
        },
        {
          "internalType": "uint256",
          "name": "offset",
          "type": "uint256"
        },
        {
          "internalType": "uint256",
          "name": "limit",
          "type": "uint256"
        }
      ],
      "name": "listChildren",
      "outputs": [
        {
          "internalType": "bytes32[]",
          "name": "childHashes",
          "type": "bytes32[]"
        },
        {
          "internalType": "uint256[]",
          "name": "childVersionIndices",
          "type": "uint256[]"
        },
        {
          "internalType": "uint256",
          "name": "totalCount",
          "type": "uint256"
        },
        {
          "internalType": "bool",
          "name": "hasMore",
          "type": "bool"
        },
        {
          "internalType": "uint256",
          "name": "nextOffset",
          "type": "uint256"
        }
      ],
      "stateMutability": "view",
      "type": "function"
    },
    {
      "inputs": [
        {
          "internalType": "bytes32",
          "name": "personHash",
          "type": "bytes32"
        },
        {
          "internalType": "uint256",
          "name": "offset",
          "type": "uint256"
        },
        {
          "internalType": "uint256",
          "name": "limit",
          "type": "uint256"
        }
      ],
      "name": "listPersonVersions",
      "outputs": [
        {
          "components": [
            {
              "internalType": "bytes32",
              "name": "personHash",
              "type": "bytes32"
            },
            {
              "internalType": "bytes32",
              "name": "fatherHash",
              "type": "bytes32"
            },
            {
              "internalType": "bytes32",
              "name": "motherHash",
              "type": "bytes32"
            },
            {
              "internalType": "uint256",
              "name": "versionIndex",
              "type": "uint256"
            },
            {
              "internalType": "uint256",
              "name": "fatherVersionIndex",
              "type": "uint256"
            },
            {
              "internalType": "uint256",
              "name": "motherVersionIndex",
              "type": "uint256"
            },
            {
              "internalType": "address",
              "name": "addedBy",
              "type": "address"
            },
            {
              "internalType": "uint96",
              "name": "timestamp",
              "type": "uint96"
            },
            {
              "internalType": "string",
              "name": "tag",
              "type": "string"
            },
            {
              "internalType": "string",
              "name": "metadataCID",
              "type": "string"
            }
          ],
          "internalType": "struct DeepFamily.PersonVersion[]",
          "name": "versions",
          "type": "tuple[]"
        },
        {
          "internalType": "uint256",
          "name": "totalVersions",
          "type": "uint256"
        },
        {
          "internalType": "bool",
          "name": "hasMore",
          "type": "bool"
        },
        {
          "internalType": "uint256",
          "name": "nextOffset",
          "type": "uint256"
        }
      ],
      "stateMutability": "view",
      "type": "function"
    },
    {
      "inputs": [
        {
          "internalType": "uint256",
          "name": "tokenId",
          "type": "uint256"
        },
        {
          "internalType": "uint256",
          "name": "offset",
          "type": "uint256"
        },
        {
          "internalType": "uint256",
          "name": "limit",
          "type": "uint256"
        }
      ],
      "name": "listStoryChunks",
      "outputs": [
        {
          "components": [
            {
              "internalType": "uint256",
              "name": "chunkIndex",
              "type": "uint256"
            },
            {
              "internalType": "bytes32",
              "name": "chunkHash",
              "type": "bytes32"
            },
            {
              "internalType": "string",
              "name": "content",
              "type": "string"
            },
            {
              "internalType": "uint256",
              "name": "timestamp",
              "type": "uint256"
            },
            {
              "internalType": "address",
              "name": "lastEditor",
              "type": "address"
            }
          ],
          "internalType": "struct DeepFamily.StoryChunk[]",
          "name": "chunks",
          "type": "tuple[]"
        },
        {
          "internalType": "uint256",
          "name": "totalChunks",
          "type": "uint256"
        },
        {
          "internalType": "bool",
          "name": "hasMore",
          "type": "bool"
        },
        {
          "internalType": "uint256",
          "name": "nextOffset",
          "type": "uint256"
        }
      ],
      "stateMutability": "view",
      "type": "function"
    },
    {
      "inputs": [
        {
          "internalType": "uint256",
          "name": "tokenId",
          "type": "uint256"
        },
        {
          "internalType": "uint256",
          "name": "offset",
          "type": "uint256"
        },
        {
          "internalType": "uint256",
          "name": "limit",
          "type": "uint256"
        }
      ],
      "name": "listTokenURIHistory",
      "outputs": [
        {
          "internalType": "string[]",
          "name": "uris",
          "type": "string[]"
        },
        {
          "internalType": "uint256",
          "name": "totalCount",
          "type": "uint256"
        },
        {
          "internalType": "bool",
          "name": "hasMore",
          "type": "bool"
        },
        {
          "internalType": "uint256",
          "name": "nextOffset",
          "type": "uint256"
        }
      ],
      "stateMutability": "view",
      "type": "function"
    },
    {
      "inputs": [
        {
          "internalType": "bytes32",
          "name": "personHash",
          "type": "bytes32"
        },
        {
          "internalType": "uint256",
          "name": "offset",
          "type": "uint256"
        },
        {
          "internalType": "uint256",
          "name": "limit",
          "type": "uint256"
        }
      ],
      "name": "listVersionsEndorsementStats",
      "outputs": [
        {
          "internalType": "uint256[]",
          "name": "versionIndices",
          "type": "uint256[]"
        },
        {
          "internalType": "uint256[]",
          "name": "endorsementCounts",
          "type": "uint256[]"
        },
        {
          "internalType": "uint256[]",
          "name": "tokenIds",
          "type": "uint256[]"
        },
        {
          "internalType": "uint256",
          "name": "totalVersions",
          "type": "uint256"
        },
        {
          "internalType": "bool",
          "name": "hasMore",
          "type": "bool"
        },
        {
          "internalType": "uint256",
          "name": "nextOffset",
          "type": "uint256"
        }
      ],
      "stateMutability": "view",
      "type": "function"
    },
    {
      "inputs": [
        {
          "internalType": "uint256[2]",
          "name": "a",
          "type": "uint256[2]"
        },
        {
          "internalType": "uint256[2][2]",
          "name": "b",
          "type": "uint256[2][2]"
        },
        {
          "internalType": "uint256[2]",
          "name": "c",
          "type": "uint256[2]"
        },
        {
          "internalType": "uint256[5]",
          "name": "publicSignals",
          "type": "uint256[5]"
        },
        {
          "internalType": "bytes32",
          "name": "personHash",
          "type": "bytes32"
        },
        {
          "internalType": "uint256",
          "name": "versionIndex",
          "type": "uint256"
        },
        {
          "internalType": "string",
          "name": "_tokenURI",
          "type": "string"
        },
        {
          "components": [
            {
              "components": [
                {
                  "internalType": "bytes32",
                  "name": "fullNameCommitment",
                  "type": "bytes32"
                },
                {
                  "internalType": "bool",
                  "name": "isBirthBC",
                  "type": "bool"
                },
                {
                  "internalType": "uint16",
                  "name": "birthYear",
                  "type": "uint16"
                },
                {
                  "internalType": "uint8",
                  "name": "birthMonth",
                  "type": "uint8"
                },
                {
                  "internalType": "uint8",
                  "name": "birthDay",
                  "type": "uint8"
                },
                {
                  "internalType": "uint8",
                  "name": "gender",
                  "type": "uint8"
                }
              ],
              "internalType": "struct DeepFamily.PersonBasicInfo",
              "name": "basicInfo",
              "type": "tuple"
            },
            {
              "components": [
                {
                  "internalType": "string",
                  "name": "fullName",
                  "type": "string"
                },
                {
                  "internalType": "string",
                  "name": "birthPlace",
                  "type": "string"
                },
                {
                  "internalType": "bool",
                  "name": "isDeathBC",
                  "type": "bool"
                },
                {
                  "internalType": "uint16",
                  "name": "deathYear",
                  "type": "uint16"
                },
                {
                  "internalType": "uint8",
                  "name": "deathMonth",
                  "type": "uint8"
                },
                {
                  "internalType": "uint8",
                  "name": "deathDay",
                  "type": "uint8"
                },
                {
                  "internalType": "string",
                  "name": "deathPlace",
                  "type": "string"
                },
                {
                  "internalType": "string",
                  "name": "story",
                  "type": "string"
                }
              ],
              "internalType": "struct DeepFamily.PersonSupplementInfo",
              "name": "supplementInfo",
              "type": "tuple"
            }
          ],
          "internalType": "struct DeepFamily.PersonCoreInfo",
          "name": "coreInfo",
          "type": "tuple"
        }
      ],
      "name": "mintPersonNFT",
      "outputs": [],
      "stateMutability": "nonpayable",
      "type": "function"
    },
    {
      "inputs": [],
      "name": "name",
      "outputs": [
        {
          "internalType": "string",
          "name": "",
          "type": "string"
        }
      ],
      "stateMutability": "view",
      "type": "function"
    },
    {
      "inputs": [
        {
          "internalType": "uint256",
          "name": "",
          "type": "uint256"
        }
      ],
      "name": "nftCoreInfo",
      "outputs": [
        {
          "components": [
            {
              "internalType": "bytes32",
              "name": "fullNameCommitment",
              "type": "bytes32"
            },
            {
              "internalType": "bool",
              "name": "isBirthBC",
              "type": "bool"
            },
            {
              "internalType": "uint16",
              "name": "birthYear",
              "type": "uint16"
            },
            {
              "internalType": "uint8",
              "name": "birthMonth",
              "type": "uint8"
            },
            {
              "internalType": "uint8",
              "name": "birthDay",
              "type": "uint8"
            },
            {
              "internalType": "uint8",
              "name": "gender",
              "type": "uint8"
            }
          ],
          "internalType": "struct DeepFamily.PersonBasicInfo",
          "name": "basicInfo",
          "type": "tuple"
        },
        {
          "components": [
            {
              "internalType": "string",
              "name": "fullName",
              "type": "string"
            },
            {
              "internalType": "string",
              "name": "birthPlace",
              "type": "string"
            },
            {
              "internalType": "bool",
              "name": "isDeathBC",
              "type": "bool"
            },
            {
              "internalType": "uint16",
              "name": "deathYear",
              "type": "uint16"
            },
            {
              "internalType": "uint8",
              "name": "deathMonth",
              "type": "uint8"
            },
            {
              "internalType": "uint8",
              "name": "deathDay",
              "type": "uint8"
            },
            {
              "internalType": "string",
              "name": "deathPlace",
              "type": "string"
            },
            {
              "internalType": "string",
              "name": "story",
              "type": "string"
            }
          ],
          "internalType": "struct DeepFamily.PersonSupplementInfo",
          "name": "supplementInfo",
          "type": "tuple"
        }
      ],
      "stateMutability": "view",
      "type": "function"
    },
    {
      "inputs": [],
      "name": "owner",
      "outputs": [
        {
          "internalType": "address",
          "name": "",
          "type": "address"
        }
      ],
      "stateMutability": "view",
      "type": "function"
    },
    {
      "inputs": [
        {
          "internalType": "uint256",
          "name": "tokenId",
          "type": "uint256"
        }
      ],
      "name": "ownerOf",
      "outputs": [
        {
          "internalType": "address",
          "name": "",
          "type": "address"
        }
      ],
      "stateMutability": "view",
      "type": "function"
    },
    {
      "inputs": [
        {
          "internalType": "bytes32",
          "name": "",
          "type": "bytes32"
        },
        {
          "internalType": "uint256",
          "name": "",
          "type": "uint256"
        }
      ],
      "name": "personVersions",
      "outputs": [
        {
          "internalType": "bytes32",
          "name": "personHash",
          "type": "bytes32"
        },
        {
          "internalType": "bytes32",
          "name": "fatherHash",
          "type": "bytes32"
        },
        {
          "internalType": "bytes32",
          "name": "motherHash",
          "type": "bytes32"
        },
        {
          "internalType": "uint256",
          "name": "versionIndex",
          "type": "uint256"
        },
        {
          "internalType": "uint256",
          "name": "fatherVersionIndex",
          "type": "uint256"
        },
        {
          "internalType": "uint256",
          "name": "motherVersionIndex",
          "type": "uint256"
        },
        {
          "internalType": "address",
          "name": "addedBy",
          "type": "address"
        },
        {
          "internalType": "uint96",
          "name": "timestamp",
          "type": "uint96"
        },
        {
          "internalType": "string",
          "name": "tag",
          "type": "string"
        },
        {
          "internalType": "string",
          "name": "metadataCID",
          "type": "string"
        }
      ],
      "stateMutability": "view",
      "type": "function"
    },
    {
      "inputs": [],
      "name": "renounceOwnership",
      "outputs": [],
      "stateMutability": "nonpayable",
      "type": "function"
    },
    {
      "inputs": [
        {
          "internalType": "address",
          "name": "from",
          "type": "address"
        },
        {
          "internalType": "address",
          "name": "to",
          "type": "address"
        },
        {
          "internalType": "uint256",
          "name": "tokenId",
          "type": "uint256"
        }
      ],
      "name": "safeTransferFrom",
      "outputs": [],
      "stateMutability": "nonpayable",
      "type": "function"
    },
    {
      "inputs": [
        {
          "internalType": "address",
          "name": "from",
          "type": "address"
        },
        {
          "internalType": "address",
          "name": "to",
          "type": "address"
        },
        {
          "internalType": "uint256",
          "name": "tokenId",
          "type": "uint256"
        },
        {
          "internalType": "bytes",
          "name": "data",
          "type": "bytes"
        }
      ],
      "name": "safeTransferFrom",
      "outputs": [],
      "stateMutability": "nonpayable",
      "type": "function"
    },
    {
      "inputs": [
        {
          "internalType": "uint256",
          "name": "tokenId",
          "type": "uint256"
        }
      ],
      "name": "sealStory",
      "outputs": [],
      "stateMutability": "nonpayable",
      "type": "function"
    },
    {
      "inputs": [
        {
          "internalType": "address",
          "name": "operator",
          "type": "address"
        },
        {
          "internalType": "bool",
          "name": "approved",
          "type": "bool"
        }
      ],
      "name": "setApprovalForAll",
      "outputs": [],
      "stateMutability": "nonpayable",
      "type": "function"
    },
    {
      "inputs": [
        {
          "internalType": "uint256",
          "name": "",
          "type": "uint256"
        },
        {
          "internalType": "uint256",
          "name": "",
          "type": "uint256"
        }
      ],
      "name": "storyChunks",
      "outputs": [
        {
          "internalType": "uint256",
          "name": "chunkIndex",
          "type": "uint256"
        },
        {
          "internalType": "bytes32",
          "name": "chunkHash",
          "type": "bytes32"
        },
        {
          "internalType": "string",
          "name": "content",
          "type": "string"
        },
        {
          "internalType": "uint256",
          "name": "timestamp",
          "type": "uint256"
        },
        {
          "internalType": "address",
          "name": "lastEditor",
          "type": "address"
        }
      ],
      "stateMutability": "view",
      "type": "function"
    },
    {
      "inputs": [
        {
          "internalType": "uint256",
          "name": "",
          "type": "uint256"
        }
      ],
      "name": "storyMetadata",
      "outputs": [
        {
          "internalType": "uint256",
          "name": "totalChunks",
          "type": "uint256"
        },
        {
          "internalType": "bytes32",
          "name": "fullStoryHash",
          "type": "bytes32"
        },
        {
          "internalType": "uint256",
          "name": "lastUpdateTime",
          "type": "uint256"
        },
        {
          "internalType": "bool",
          "name": "isSealed",
          "type": "bool"
        },
        {
          "internalType": "uint256",
          "name": "totalLength",
          "type": "uint256"
        }
      ],
      "stateMutability": "view",
      "type": "function"
    },
    {
      "inputs": [
        {
          "internalType": "bytes4",
          "name": "interfaceId",
          "type": "bytes4"
        }
      ],
      "name": "supportsInterface",
      "outputs": [
        {
          "internalType": "bool",
          "name": "",
          "type": "bool"
        }
      ],
      "stateMutability": "view",
      "type": "function"
    },
    {
      "inputs": [],
      "name": "symbol",
      "outputs": [
        {
          "internalType": "string",
          "name": "",
          "type": "string"
        }
      ],
      "stateMutability": "view",
      "type": "function"
    },
    {
      "inputs": [
        {
          "internalType": "uint256",
          "name": "index",
          "type": "uint256"
        }
      ],
      "name": "tokenByIndex",
      "outputs": [
        {
          "internalType": "uint256",
          "name": "",
          "type": "uint256"
        }
      ],
      "stateMutability": "view",
      "type": "function"
    },
    {
      "inputs": [],
      "name": "tokenCounter",
      "outputs": [
        {
          "internalType": "uint256",
          "name": "",
          "type": "uint256"
        }
      ],
      "stateMutability": "view",
      "type": "function"
    },
    {
      "inputs": [
        {
          "internalType": "uint256",
          "name": "",
          "type": "uint256"
        }
      ],
      "name": "tokenIdToPerson",
      "outputs": [
        {
          "internalType": "bytes32",
          "name": "",
          "type": "bytes32"
        }
      ],
      "stateMutability": "view",
      "type": "function"
    },
    {
      "inputs": [
        {
          "internalType": "uint256",
          "name": "",
          "type": "uint256"
        }
      ],
      "name": "tokenIdToVersionIndex",
      "outputs": [
        {
          "internalType": "uint256",
          "name": "",
          "type": "uint256"
        }
      ],
      "stateMutability": "view",
      "type": "function"
    },
    {
      "inputs": [
        {
          "internalType": "address",
          "name": "owner",
          "type": "address"
        },
        {
          "internalType": "uint256",
          "name": "index",
          "type": "uint256"
        }
      ],
      "name": "tokenOfOwnerByIndex",
      "outputs": [
        {
          "internalType": "uint256",
          "name": "",
          "type": "uint256"
        }
      ],
      "stateMutability": "view",
      "type": "function"
    },
    {
      "inputs": [
        {
          "internalType": "uint256",
          "name": "tokenId",
          "type": "uint256"
        }
      ],
      "name": "tokenURI",
      "outputs": [
        {
          "internalType": "string",
          "name": "",
          "type": "string"
        }
      ],
      "stateMutability": "view",
      "type": "function"
    },
    {
      "inputs": [
        {
          "internalType": "uint256",
          "name": "",
          "type": "uint256"
        },
        {
          "internalType": "uint256",
          "name": "",
          "type": "uint256"
        }
      ],
      "name": "tokenURIHistory",
      "outputs": [
        {
          "internalType": "string",
          "name": "",
          "type": "string"
        }
      ],
      "stateMutability": "view",
      "type": "function"
    },
    {
      "inputs": [],
      "name": "totalPersonsCount",
      "outputs": [
        {
          "internalType": "uint256",
          "name": "",
          "type": "uint256"
        }
      ],
      "stateMutability": "view",
      "type": "function"
    },
    {
      "inputs": [],
      "name": "totalSupply",
      "outputs": [
        {
          "internalType": "uint256",
          "name": "",
          "type": "uint256"
        }
      ],
      "stateMutability": "view",
      "type": "function"
    },
    {
      "inputs": [
        {
          "internalType": "address",
          "name": "from",
          "type": "address"
        },
        {
          "internalType": "address",
          "name": "to",
          "type": "address"
        },
        {
          "internalType": "uint256",
          "name": "tokenId",
          "type": "uint256"
        }
      ],
      "name": "transferFrom",
      "outputs": [],
      "stateMutability": "nonpayable",
      "type": "function"
    },
    {
      "inputs": [
        {
          "internalType": "address",
          "name": "newOwner",
          "type": "address"
        }
      ],
      "name": "transferOwnership",
      "outputs": [],
      "stateMutability": "nonpayable",
      "type": "function"
    },
    {
      "inputs": [
        {
          "internalType": "uint256",
          "name": "tokenId",
          "type": "uint256"
        },
        {
          "internalType": "uint256",
          "name": "chunkIndex",
          "type": "uint256"
        },
        {
          "internalType": "string",
          "name": "newContent",
          "type": "string"
        },
        {
          "internalType": "bytes32",
          "name": "expectedHash",
          "type": "bytes32"
        }
      ],
      "name": "updateStoryChunk",
      "outputs": [],
      "stateMutability": "nonpayable",
      "type": "function"
    },
    {
      "inputs": [
        {
          "internalType": "uint256",
          "name": "tokenId",
          "type": "uint256"
        },
        {
          "internalType": "string",
          "name": "newURI",
          "type": "string"
        }
      ],
      "name": "updateTokenURI",
      "outputs": [],
      "stateMutability": "nonpayable",
      "type": "function"
    },
    {
      "inputs": [
        {
          "internalType": "bytes32",
          "name": "",
          "type": "bytes32"
        },
        {
          "internalType": "uint256",
          "name": "",
          "type": "uint256"
        }
      ],
      "name": "versionEndorsementCount",
      "outputs": [
        {
          "internalType": "uint256",
          "name": "",
          "type": "uint256"
        }
      ],
      "stateMutability": "view",
      "type": "function"
    },
    {
      "inputs": [
        {
          "internalType": "bytes32",
          "name": "",
          "type": "bytes32"
        },
        {
          "internalType": "bytes32",
          "name": "",
          "type": "bytes32"
        }
      ],
      "name": "versionExists",
      "outputs": [
        {
          "internalType": "bool",
          "name": "",
          "type": "bool"
        }
      ],
      "stateMutability": "view",
      "type": "function"
    },
    {
      "inputs": [
        {
          "internalType": "bytes32",
          "name": "",
          "type": "bytes32"
        },
        {
          "internalType": "uint256",
          "name": "",
          "type": "uint256"
        }
      ],
      "name": "versionToTokenId",
      "outputs": [
        {
          "internalType": "uint256",
          "name": "",
          "type": "uint256"
        }
      ],
      "stateMutability": "view",
      "type": "function"
    },
    {
      "stateMutability": "payable",
      "type": "receive"
    }
  ],
  "bytecode": "0x60e06040523480156200001157600080fd5b5060405162006a2b38038062006a2b8339810160408190526200003491620001df565b336040518060400160405280600a8152602001694465657046616d696c7960b01b8152506040518060400160405280600681526020016546616d696c7960d01b8152508160009081620000889190620002ce565b506001620000978282620002ce565b5050506001600160a01b038116620000c957604051631e4fbdf760e01b81526000600482015260240160405180910390fd5b620000d48162000170565b506001600b556001600160a01b0383166200010257604051634c32eccd60e11b815260040160405180910390fd5b6001600160a01b0382166200012a57604051635fce01bb60e01b815260040160405180910390fd5b6001600160a01b038116620001525760405163abd45c1f60e01b815260040160405180910390fd5b6001600160a01b0392831660805290821660a0521660c0526200039a565b600a80546001600160a01b038381166001600160a01b0319831681179093556040519116919082907f8be0079c531659141344cd1fd0a4f28419497f9722a3daafe3b4186f6b6457e090600090a35050565b80516001600160a01b0381168114620001da57600080fd5b919050565b600080600060608486031215620001f557600080fd5b6200020084620001c2565b92506200021060208501620001c2565b91506200022060408501620001c2565b90509250925092565b634e487b7160e01b600052604160045260246000fd5b600181811c908216806200025457607f821691505b6020821081036200027557634e487b7160e01b600052602260045260246000fd5b50919050565b601f821115620002c957600081815260208120601f850160051c81016020861015620002a45750805b601f850160051c820191505b81811015620002c557828155600101620002b0565b5050505b505050565b81516001600160401b03811115620002ea57620002ea62000229565b6200030281620002fb84546200023f565b846200027b565b602080601f8311600181146200033a5760008415620003215750858301515b600019600386901b1c1916600185901b178555620002c5565b600085815260208120601f198616915b828110156200036b578886015182559484019460019091019084016200034a565b50858210156200038a5787850151600019600388901b60f8161c191681555b5050505050600190811b01905550565b60805160a05160c05161663e620003ed600039600081816105430152612b6a015260008181610a7c01526130c5015260008181610b610152818161328d015281816133de0152614948015261663e6000f3fe6080604052600436106103845760003560e01c8063797e57e5116101d1578063bd7eef2311610102578063d596b1b0116100a0578063f2fde38b1161006f578063f2fde38b14610c39578063f74faf6614610c59578063fe980dd614610c91578063fe9c3c0514610cc3576103a2565b8063d596b1b014610b83578063dbcdc08f14610bbb578063e985e9c514610bec578063f1fad06714610c0c576103a2565b8063c87b56dd116100dc578063c87b56dd14610af9578063c893eb5614610b19578063d082e38114610b39578063d1486a1b14610b4f576103a2565b8063bd7eef2314610a9e578063c090fba214610ab4578063c841eb1f14610ae3576103a2565b8063a294fd641161016f578063b570b2ab11610149578063b570b2ab14610a0a578063b5c7198d14610a2a578063b88d4fde14610a4a578063bcecdf1d14610a6a576103a2565b8063a294fd64146109aa578063a92c6ad6146109ca578063b0ac331f146109ea576103a2565b80638da5cb5b116101ab5780638da5cb5b146109275780638f2360b31461094557806395d89b4114610975578063a22cb4651461098a576103a2565b8063797e57e51461085e57806382260f351461087e57806383af7191146108b0576103a2565b80632f745c59116102b657806357611dfb1161025457806370a082311161022357806370a08231146107af578063715018a6146107cf5780637189567c146107e457806376f0f85d14610848576103a2565b806357611dfb146106fb5780636352211e1461072c57806367b9b3e11461074c578063690a76bf14610782576103a2565b8063431a342a11610290578063431a342a1461065357806346cdf8691461068e5780634f6ccce7146106ae578063538ffa0b146106ce576103a2565b80632f745c59146105e35780633791b66a1461060357806342842e0e14610633576103a2565b8063164e38ee116103235780631d5d7be9116102fd5780631d5d7be91461053157806323b872dd14610565578063278d5fce1461058557806328273a2a146105b3576103a2565b8063164e38ee146104c757806318160ddd146104fc57806318e97fd114610511576103a2565b806307b8fe9c1161035f57806307b8fe9c146103bb578063081812fc14610435578063095ea7b31461046d5780631516fa251461048f576103a2565b8062eee6a1146103bb57806301ffc9a7146103e357806306fdde0314610413576103a2565b366103a25760405163af9f22fb60e01b815260040160405180910390fd5b60405163af9f22fb60e01b815260040160405180910390fd5b3480156103c757600080fd5b506103d0606481565b6040519081526020015b60405180910390f35b3480156103ef57600080fd5b506104036103fe366004615180565b610ce3565b60405190151581526020016103da565b34801561041f57600080fd5b50610428610d0e565b6040516103da91906151ed565b34801561044157600080fd5b50610455610450366004615200565b610da0565b6040516001600160a01b0390911681526020016103da565b34801561047957600080fd5b5061048d610488366004615235565b610dc9565b005b34801561049b57600080fd5b506103d06104aa36600461525f565b601a60209081526000928352604080842090915290825290205481565b3480156104d357600080fd5b506104e76104e2366004615281565b610dd8565b604080519283526020830191909152016103da565b34801561050857600080fd5b506008546103d0565b34801561051d57600080fd5b5061048d61052c3660046152f5565b610e22565b34801561053d57600080fd5b506104557f000000000000000000000000000000000000000000000000000000000000000081565b34801561057157600080fd5b5061048d610580366004615340565b610fcf565b34801561059157600080fd5b506105a56105a0366004615200565b61105f565b6040516103da929190615486565b3480156105bf57600080fd5b506105d36105ce366004615281565b611368565b6040516103da94939291906154f7565b3480156105ef57600080fd5b506103d06105fe366004615235565b6115c9565b34801561060f57600080fd5b5061062361061e366004615281565b61162e565b6040516103da949392919061556a565b34801561063f57600080fd5b5061048d61064e366004615340565b611804565b34801561065f57600080fd5b5061040361066e36600461525f565b600e60209081526000928352604080842090915290825290205460ff1681565b34801561069a57600080fd5b5061048d6106a93660046155c1565b611824565b3480156106ba57600080fd5b506103d06106c9366004615200565b611a36565b3480156106da57600080fd5b506103d06106e9366004615200565b60126020526000908152604090205481565b34801561070757600080fd5b5061071b61071636600461561b565b611a8f565b6040516103da959493929190615688565b34801561073857600080fd5b50610455610747366004615200565b611c95565b34801561075857600080fd5b5061076c61076736600461525f565b611ca0565b6040516103da9a999897969594939291906156f4565b34801561078e57600080fd5b506103d061079d366004615200565b60116020526000908152604090205481565b3480156107bb57600080fd5b506103d06107ca366004615770565b611e3a565b3480156107db57600080fd5b5061048d611e82565b3480156107f057600080fd5b506108046107ff366004615200565b611e96565b6040516103da9190600060a0820190508251825260208301516020830152604083015160408301526060830151151560608301526080830151608083015292915050565b34801561085457600080fd5b506103d061010081565b34801561086a57600080fd5b5061048d610879366004615200565b611f49565b34801561088a57600080fd5b5061089e610899366004615200565b612037565b6040516103da9695949392919061583a565b3480156108bc57600080fd5b506108fd6108cb366004615200565b6017602052600090815260409020805460018201546002830154600384015460049094015492939192909160ff169085565b6040805195865260208601949094529284019190915215156060830152608082015260a0016103da565b34801561093357600080fd5b50600a546001600160a01b0316610455565b34801561095157600080fd5b50610965610960366004615281565b6125e2565b6040516103da94939291906158ad565b34801561098157600080fd5b506104286128bf565b34801561099657600080fd5b5061048d6109a5366004615912565b6128ce565b3480156109b657600080fd5b5061048d6109c536600461596b565b6128d9565b3480156109d657600080fd5b506103d06109e536600461525f565b612e20565b3480156109f657600080fd5b5061048d610a053660046155c1565b612e51565b348015610a1657600080fd5b5061048d610a25366004615a3d565b61308a565b348015610a3657600080fd5b5061048d610a4536600461525f565b6131f3565b348015610a5657600080fd5b5061048d610a65366004615b58565b61356e565b348015610a7657600080fd5b506104557f000000000000000000000000000000000000000000000000000000000000000081565b348015610aaa57600080fd5b506103d0600d5481565b348015610ac057600080fd5b50610ad4610acf36600461525f565b613586565b6040516103da93929190615c17565b348015610aef57600080fd5b506103d06103e881565b348015610b0557600080fd5b50610428610b14366004615200565b613803565b348015610b2557600080fd5b506103d0610b34366004615c5b565b6138ad565b348015610b4557600080fd5b506103d060105481565b348015610b5b57600080fd5b506104557f000000000000000000000000000000000000000000000000000000000000000081565b348015610b8f57600080fd5b506103d0610b9e36600461525f565b601660209081526000928352604080842090915290825290205481565b348015610bc757600080fd5b50610bdb610bd636600461525f565b613a37565b6040516103da959493929190615cfc565b348015610bf857600080fd5b50610403610c07366004615d3d565b613b03565b348015610c1857600080fd5b50610c2c610c2736600461525f565b613b31565b6040516103da9190615d70565b348015610c4557600080fd5b5061048d610c54366004615770565b613c97565b348015610c6557600080fd5b506103d0610c74366004615d83565b600f60209081526000928352604080842090915290825290205481565b348015610c9d57600080fd5b50610cb1610cac366004615281565b613cd5565b6040516103da96959493929190615da6565b348015610ccf57600080fd5b50610428610cde36600461525f565b613f05565b60006001600160e01b0319821663780e9d6360e01b1480610d085750610d0882613fbe565b92915050565b606060008054610d1d90615dfe565b80601f0160208091040260200160405190810160405280929190818152602001828054610d4990615dfe565b8015610d965780601f10610d6b57610100808354040283529160200191610d96565b820191906000526020600020905b815481529060010190602001808311610d7957829003601f168201915b5050505050905090565b6000610dab8261400e565b506000828152600460205260409020546001600160a01b0316610d08565b610dd4828233614046565b5050565b601b6020528260005260406000206020528160005260406000208181548110610e0057600080fd5b6000918252602090912060029091020180546001909101549093509150839050565b33610e2c84614053565b6001600160a01b031614610e535760405163daffd8a560e01b815260040160405180910390fd5b610100811115610e76576040516313f04adb60e01b815260040160405180910390fd5b60008381526014602052604081208054610e8f90615dfe565b80601f0160208091040260200160405190810160405280929190818152602001828054610ebb90615dfe565b8015610f085780601f10610edd57610100808354040283529160200191610f08565b820191906000526020600020905b815481529060010190602001808311610eeb57829003601f168201915b50505050509050600081511115610f4357600084815260156020908152604082208054600181018255908352912001610f418282615e93565b505b610f838484848080601f01602080910402602001604051908101604052809392919081815260200183838082843760009201919091525061406e92505050565b336001600160a01b0316847f121742bae49dddcfbb9763fd1170f0dbc15b13707126182671611bbeeeae7cd8838686604051610fc193929190615f75565b60405180910390a350505050565b6001600160a01b038216610ffe57604051633250574960e11b8152600060048201526024015b60405180910390fd5b600061100b838333614086565b9050836001600160a01b0316816001600160a01b031614611059576040516364283d7b60e01b81526001600160a01b0380861660048301526024820184905282166044820152606401610ff5565b50505050565b601360209081526000918252604091829020825160c08101845281548152600182015460ff80821615159483019490945261010080820461ffff168387015263010000008204851660608401526401000000008204851660808401526501000000000090910490931660a08201528351928301909352600281018054919291829082906110eb90615dfe565b80601f016020809104026020016040519081016040528092919081815260200182805461111790615dfe565b80156111645780601f1061113957610100808354040283529160200191611164565b820191906000526020600020905b81548152906001019060200180831161114757829003601f168201915b5050505050815260200160018201805461117d90615dfe565b80601f01602080910402602001604051908101604052809291908181526020018280546111a990615dfe565b80156111f65780601f106111cb576101008083540402835291602001916111f6565b820191906000526020600020905b8154815290600101906020018083116111d957829003601f168201915b5050509183525050600282015460ff8082161515602084015261ffff6101008304166040840152630100000082048116606084015264010000000090910416608082015260038201805460a09092019161124f90615dfe565b80601f016020809104026020016040519081016040528092919081815260200182805461127b90615dfe565b80156112c85780601f1061129d576101008083540402835291602001916112c8565b820191906000526020600020905b8154815290600101906020018083116112ab57829003601f168201915b505050505081526020016004820180546112e190615dfe565b80601f016020809104026020016040519081016040528092919081815260200182805461130d90615dfe565b801561135a5780601f1061132f5761010080835404028352916020019161135a565b820191906000526020600020905b81548152906001019060200180831161133d57829003601f168201915b505050505081525050905082565b606060008080868161137982614053565b6001600160a01b0316036113a0576040516307ed98ed60e31b815260040160405180910390fd5b600088815260176020526040812080549550906113be868a8a61415d565b905080604001516000036114185760408051600080825260208201909252906113fd565b6113ea615023565b8152602001906001900390816113e25790505b508682608001518360600151965096509650965050506115bf565b80604001516001600160401b0381111561143457611434615b12565b60405190808252806020026020018201604052801561146d57816020015b61145a615023565b8152602001906001900390816114525790505b50965060005b81604001518110156115ac5760008b8152601860205260408120835190919061149d908490615fb1565b81526020019081526020016000206040518060a001604052908160008201548152602001600182015481526020016002820180546114da90615dfe565b80601f016020809104026020016040519081016040528092919081815260200182805461150690615dfe565b80156115535780601f1061152857610100808354040283529160200191611553565b820191906000526020600020905b81548152906001019060200180831161153657829003601f168201915b5050509183525050600382015460208201526004909101546001600160a01b0316604090910152885189908390811061158e5761158e615fc4565b602002602001018190525080806115a490615fda565b915050611473565b5060808101516060909101519094509250505b5093509350935093565b60006115d483611e3a565b82106116055760405163295f44f760e21b81526001600160a01b038416600482015260248101839052604401610ff5565b506001600160a01b03919091166000908152600660209081526040808320938352929052205490565b60008381526015602052604081208054606092909181908161165185898961415d565b905080604001516000036116a557604080516000808252602082019092529061168a565b60608152602001906001900390816116755790505b508582608001518360600151955095509550955050506117fb565b80604001516001600160401b038111156116c1576116c1615b12565b6040519080825280602002602001820160405280156116f457816020015b60608152602001906001900390816116df5790505b50955060005b81604001518110156117e85781518390611715908390615fb1565b8154811061172557611725615fc4565b90600052602060002001805461173a90615dfe565b80601f016020809104026020016040519081016040528092919081815260200182805461176690615dfe565b80156117b35780601f10611788576101008083540402835291602001916117b3565b820191906000526020600020905b81548152906001019060200180831161179657829003601f168201915b50505050508782815181106117ca576117ca615fc4565b602002602001018190525080806117e090615fda565b9150506116fa565b5060808101516060909101519093509150505b93509350935093565b61181f8383836040518060200160405280600081525061356e565b505050565b61182c61425d565b3361183686614053565b6001600160a01b03161461185d5760405163daffd8a560e01b815260040160405180910390fd5b6000858152601760205260409020600381015460ff161561189157604051631fcb6b9160e01b815260040160405180910390fd5b805485106118b257604051637df0b86160e01b815260040160405180910390fd5b8215806118c057506103e883115b156118de57604051630ef9fbf360e21b815260040160405180910390fd5b600086815260186020908152604080832088845282528083208151601f880184900484028101840190925286825292916119339190889088908190840183828082843760009201919091525061428792505050565b905083158015906119445750838114155b156119625760405163016c02f160e61b815260040160405180910390fd5b60018201546002830180546000919061197a90615dfe565b6001860185905591505060028401611993888a83615ff3565b504260038501819055600480860180546001600160a01b03191633179055600287019190915585015487906119c99083906160ac565b6119d39190615fb1565b60048601556119e18a6142b7565b604080518381526020810185905233918b918d917f065c2222316af985857085b11b199dc175990521803ca44d2ab1a4ef4c0ea6ef910160405180910390a45050505050611a2f6001600b55565b5050505050565b6000611a4160085490565b8210611a6a5760405163295f44f760e21b81526000600482015260248101839052604401610ff5565b60088281548110611a7d57611a7d615fc4565b90600052602060002001549050919050565b6060806000808088611ab45760405163e5d242ed60e01b815260040160405180910390fd5b6000898152600c6020526040902054881115611ae357604051630dd4272d60e41b815260040160405180910390fd5b6000898152601b602090815260408083208b845290915281208054945090611b0c858a8a61415d565b90508060400151600003611b4d576040805160008082526020820190815281830190925260808301516060909301519098509096509093509150611c8a9050565b80604001516001600160401b03811115611b6957611b69615b12565b604051908082528060200260200182016040528015611b92578160200160208202803683370190505b50965080604001516001600160401b03811115611bb157611bb1615b12565b604051908082528060200260200182016040528015611bda578160200160208202803683370190505b50955060005b8160400151811015611c7757600083828460000151611bff9190615fb1565b81548110611c0f57611c0f615fc4565b906000526020600020906002020190508060000154898381518110611c3657611c36615fc4565b6020026020010181815250508060010154888381518110611c5957611c59615fc4565b60209081029190910101525080611c6f81615fda565b915050611be0565b5060808101516060909101519093509150505b945094509450945094565b6000610d088261400e565b600c6020528160005260406000208181548110611cbc57600080fd5b600091825260209091206009909102018054600182015460028301546003840154600485015460058601546006870154600788018054979a5095985093969295919490936001600160a01b03811693600160a01b9091046001600160601b031692909190611d2990615dfe565b80601f0160208091040260200160405190810160405280929190818152602001828054611d5590615dfe565b8015611da25780601f10611d7757610100808354040283529160200191611da2565b820191906000526020600020905b815481529060010190602001808311611d8557829003601f168201915b505050505090806008018054611db790615dfe565b80601f0160208091040260200160405190810160405280929190818152602001828054611de390615dfe565b8015611e305780601f10611e0557610100808354040283529160200191611e30565b820191906000526020600020905b815481529060010190602001808311611e1357829003601f168201915b505050505090508a565b60006001600160a01b038216611e66576040516322718ad960e21b815260006004820152602401610ff5565b506001600160a01b031660009081526003602052604090205490565b611e8a61437f565b611e9460006143ac565b565b6040805160a081018252600080825260208201819052918101829052606081018290526080810191909152816000611ecd82614053565b6001600160a01b031603611ef4576040516307ed98ed60e31b815260040160405180910390fd5b5050600090815260176020908152604091829020825160a08101845281548152600182015492810192909252600281015492820192909252600382015460ff1615156060820152600490910154608082015290565b33611f5382614053565b6001600160a01b031614611f7a5760405163daffd8a560e01b815260040160405180910390fd5b6000818152601760205260409020600381015460ff1615611fae57604051631fcb6b9160e01b815260040160405180910390fd5b8054600003611fd057604051637dc66bf560e11b815260040160405180910390fd5b60038101805460ff19166001908117909155426002830155815490820154604051339285927f896066547269dcd0db6295ca6c7f14f927d692103e47c7615259469b74bc7b5d9261202b929190918252602082015260400190565b60405180910390a35050565b60008061204261505e565b61204a6150b4565b600060608161205888614053565b6001600160a01b03160361207f576040516307ed98ed60e31b815260040160405180910390fd5b6000878152601160205260409020549550856120ae576040516307ed98ed60e31b815260040160405180910390fd5b60008781526012602052604081205495506120ca6001876160ac565b6000888152600c60205260409020805491925090829081106120ee576120ee615fc4565b600091825260209182902060408051610140810182526009909302909101805483526001810154938301939093526002830154908201526003820154606082015260048201546080820152600582015460a082015260068201546001600160a01b03811660c08301526001600160601b03600160a01b9091041660e08201526007820180549192916101008401919061218690615dfe565b80601f01602080910402602001604051908101604052809291908181526020018280546121b290615dfe565b80156121ff5780601f106121d4576101008083540402835291602001916121ff565b820191906000526020600020905b8154815290600101906020018083116121e257829003601f168201915b5050505050815260200160088201805461221890615dfe565b80601f016020809104026020016040519081016040528092919081815260200182805461224490615dfe565b80156122915780601f1061226657610100808354040283529160200191612291565b820191906000526020600020905b81548152906001019060200180831161227457829003601f168201915b50505091909252505050600089815260136020908152604091829020825161010080820185528254828601908152600184015460ff8082161515606086015261ffff84830416608086015263010000008204811660a08601526401000000008204811660c0860152650100000000009091041660e084015282528451908101909452600282018054959a509094919392850192918290829061233290615dfe565b80601f016020809104026020016040519081016040528092919081815260200182805461235e90615dfe565b80156123ab5780601f10612380576101008083540402835291602001916123ab565b820191906000526020600020905b81548152906001019060200180831161238e57829003601f168201915b505050505081526020016001820180546123c490615dfe565b80601f01602080910402602001604051908101604052809291908181526020018280546123f090615dfe565b801561243d5780601f106124125761010080835404028352916020019161243d565b820191906000526020600020905b81548152906001019060200180831161242057829003601f168201915b5050509183525050600282015460ff8082161515602084015261ffff6101008304166040840152630100000082048116606084015264010000000090910416608082015260038201805460a09092019161249690615dfe565b80601f01602080910402602001604051908101604052809291908181526020018280546124c290615dfe565b801561250f5780601f106124e45761010080835404028352916020019161250f565b820191906000526020600020905b8154815290600101906020018083116124f257829003601f168201915b5050505050815260200160048201805461252890615dfe565b80601f016020809104026020016040519081016040528092919081815260200182805461255490615dfe565b80156125a15780601f10612576576101008083540402835291602001916125a1565b820191906000526020600020905b81548152906001019060200180831161258457829003601f168201915b505050919092525050509052506000888152601a6020908152604080832085845290915290205490945092506125d688613803565b91505091939550919395565b6000838152600c602052604081208054606092909181908161260585898961415d565b9050806040015160000361265d57604080516000808252602082019092529061168a565b61263161505e565b815260200190600190039081612629575050608082015160609092015190965090935091506117fb9050565b80604001516001600160401b0381111561267957612679615b12565b6040519080825280602002602001820160405280156126b257816020015b61269f61505e565b8152602001906001900390816126975790505b50955060005b81604001518110156117e857815183906126d3908390615fb1565b815481106126e3576126e3615fc4565b600091825260209182902060408051610140810182526009909302909101805483526001810154938301939093526002830154908201526003820154606082015260048201546080820152600582015460a082015260068201546001600160a01b03811660c08301526001600160601b03600160a01b9091041660e08201526007820180549192916101008401919061277b90615dfe565b80601f01602080910402602001604051908101604052809291908181526020018280546127a790615dfe565b80156127f45780601f106127c9576101008083540402835291602001916127f4565b820191906000526020600020905b8154815290600101906020018083116127d757829003601f168201915b5050505050815260200160088201805461280d90615dfe565b80601f016020809104026020016040519081016040528092919081815260200182805461283990615dfe565b80156128865780601f1061285b57610100808354040283529160200191612886565b820191906000526020600020905b81548152906001019060200180831161286957829003601f168201915b5050505050815250508782815181106128a1576128a1615fc4565b602002602001018190525080806128b790615fda565b9150506126b8565b606060018054610d1d90615dfe565b610dd43383836143fe565b6128e161425d565b8484816129015760405163e5d242ed60e01b815260040160405180910390fd5b80158061291b57506000828152600c602052604090205481115b1561293957604051630dd4272d60e41b815260040160405180910390fd5b6080880135331461295d5760405163bd8cc73160e01b815260040160405180910390fd5b600061296a6001886160ac565b6000898152601660209081526040808320848452909152902054909150156129a557604051634028e5e560e11b815260040160405180910390fd5b6000888152600f6020908152604080832033845290915290205487146129de5760405163786bb09f60e11b815260040160405180910390fd5b610100851115612a01576040516313f04adb60e01b815260040160405180910390fd5b612a0e60c08501856160bf565b612a1890806160df565b9050600003612a3a57604051635f895cef60e11b815260040160405180910390fd5b610100612a4a60c08601866160bf565b612a5490806160df565b90501115612a7557604051635f895cef60e11b815260040160405180910390fd5b610100612a8560c08601866160bf565b612a939060e08101906160df565b90501115612ab45760405163f283c51960e01b815260040160405180910390fd5b610100612ac460c08601866160bf565b612ad29060208101906160df565b90501115612af3576040516367181a3960e11b815260040160405180910390fd5b610100612b0360c08601866160bf565b612b119060c08101906160df565b90501115612b3257604051633769847160e01b815260040160405180910390fd5b6000612b46610b3436879003870187615c5b565b9050888114612b6857604051632f38f48f60e21b815260040160405180910390fd5b7f00000000000000000000000000000000000000000000000000000000000000006001600160a01b03166334baeab98e8e8e8e6040518563ffffffff1660e01b8152600401612bba9493929190616149565b602060405180830381865afa158015612bd7573d6000803e3d6000fd5b505050506040513d601f19601f82011682018060405250810190612bfb919061617a565b612c18576040516303b2487b60e11b815260040160405180910390fd5b6000612c2d8b358c60015b602002013561449d565b905085358114612c5057604051632f38f48f60e21b815260040160405180910390fd5b6000612c6260408d01358d6003612c23565b90506000612cba612c7660c08a018a6160bf565b612c8090806160df565b8080601f01602080910402602001604051908101604052809392919081815260200183838082843760009201919091525061428792505050565b9050818114612cdc57604051632f38f48f60e21b815260040160405180910390fd5b6000601060008154612ced90615fda565b91829055509050612cfe33826144dd565b612d3e818c8c8080601f01602080910402602001604051908101604052809392919081815260200183838082843760009201919091525061406e92505050565b8c60116000838152602001908152602001600020819055508b601260008381526020019081526020016000208190555080601660008f815260200190815260200160002060008881526020019081526020016000208190555088601360008381526020019081526020016000208181612db79190616377565b905050336001600160a01b0316818e7fbce71c21e84db5e7dca78ea57ad63b6c66f74f74efc25e33592370ecf39e093b8f8f8f42604051612dfb9493929190616460565b60405180910390a45050505050505050612e156001600b55565b505050505050505050565b60196020528160005260406000208181548110612e3c57600080fd5b90600052602060002001600091509150505481565b612e5961425d565b33612e6386614053565b6001600160a01b031614612e8a5760405163daffd8a560e01b815260040160405180910390fd5b811580612e9857506103e882115b15612eb657604051630ef9fbf360e21b815260040160405180910390fd5b6000858152601760205260409020600381015460ff1615612eea57604051631fcb6b9160e01b815260040160405180910390fd5b8054606411612f0c57604051637df0b86160e01b815260040160405180910390fd5b80548514612f2d57604051637df0b86160e01b815260040160405180910390fd5b6000612f6e85858080601f01602080910402602001604051908101604052809392919081815260200183838082843760009201919091525061428792505050565b90508215801590612f7f5750828114155b15612f9d5760405163016c02f160e61b815260040160405180910390fd5b600087815260186020908152604080832089845290915290208681556001810182905560028101612fcf868883615ff3565b504260038201556004810180546001600160a01b031916331790558254612ff7906001615fb1565b8355426002840155600483015461300f908690615fb1565b600484015560008881526019602090815260408220805460018101825590835291200187905561303e886142b7565b6040805183815260208101879052339189918b917f9a8c5a1082b04a31158c2062cc003f0764f93a8614a3643f01df8346f0c39f8d910160405180910390a4505050611a2f6001600b55565b60c087013533146130ae5760405163bd8cc73160e01b815260040160405180910390fd5b60405163c894e75760e01b81526001600160a01b037f0000000000000000000000000000000000000000000000000000000000000000169063c894e75790613100908d908d908d908d9060040161648b565b602060405180830381865afa15801561311d573d6000803e3d6000fd5b505050506040513d601f19601f82011682018060405250810190613141919061617a565b61315e576040516303b2487b60e11b815260040160405180910390fd5b600061317561317089358a6001612c23565b6144f7565b9050600061318c61317060408b01358b6003612c23565b905060006131a361317060808c01358c6005612c23565b604051909150339084907f3015fe19dc9f8f0d942de39092410a57589dd94d2c9134719335fe04e3695eca90600090a36131e48383838c8c8c8c8c8c614517565b50505050505050505050505050565b6131fb61425d565b81818161321b5760405163e5d242ed60e01b815260040160405180910390fd5b80158061323557506000828152600c602052604090205481115b1561325357604051630dd4272d60e41b815260040160405180910390fd5b6000848152600f6020908152604080832033845290915290205483810361327a5750613562565b60006132876001866160ac565b905060007f00000000000000000000000000000000000000000000000000000000000000006001600160a01b0316636bf90c716040518163ffffffff1660e01b8152600401602060405180830381865afa1580156132e9573d6000803e3d6000fd5b505050506040513d601f19601f8201168201806040525081019061330d91906164bc565b90508015613472576000878152600c6020526040812080548490811061333557613335615fc4565b600091825260208083208b845260168252604080852088865290925290832054600990920201925090811561339f57600061336f83614053565b90506001600160a01b0381161561338857809150613399565b60068401546001600160a01b031691505b506133af565b5060068201546001600160a01b03165b6040516323b872dd60e01b81523360048201526001600160a01b038281166024830152604482018690526000917f0000000000000000000000000000000000000000000000000000000000000000909116906323b872dd906064016020604051808303816000875af1158015613429573d6000803e3d6000fd5b505050506040513d601f19601f8201168201806040525081019061344d919061617a565b90508061346d57604051635da1e97760e11b815260040160405180910390fd5b505050505b82156134d15760006134856001856160ac565b6000898152601a6020908152604080832084845290915290205490915080156134ce576134b36001826160ac565b60008a8152601a602090815260408083208684529091529020555b50505b6000878152601a6020908152604080832085845290915281208054600192906134fb908490615fb1565b90915550506000878152600f6020908152604080832033808552908352928190208990558051898152918201849052429082015288907f55e71c43a79fd68c0c9f416c70da96b84745f57bf4c2456beb089b4ad7bb3ac89060600160405180910390a35050505b5050610dd46001600b55565b613579848484610fcf565b6110593385858585614a1a565b61358e61505e565b6000808484816135b15760405163e5d242ed60e01b815260040160405180910390fd5b8015806135cb57506000828152600c602052604090205481115b156135e957604051630dd4272d60e41b815260040160405180910390fd5b60006135f66001886160ac565b6000898152600c602052604090208054919250908290811061361a5761361a615fc4565b600091825260209182902060408051610140810182526009909302909101805483526001810154938301939093526002830154908201526003820154606082015260048201546080820152600582015460a082015260068201546001600160a01b03811660c08301526001600160601b03600160a01b9091041660e0820152600782018054919291610100840191906136b290615dfe565b80601f01602080910402602001604051908101604052809291908181526020018280546136de90615dfe565b801561372b5780601f106137005761010080835404028352916020019161372b565b820191906000526020600020905b81548152906001019060200180831161370e57829003601f168201915b5050505050815260200160088201805461374490615dfe565b80601f016020809104026020016040519081016040528092919081815260200182805461377090615dfe565b80156137bd5780601f10613792576101008083540402835291602001916137bd565b820191906000526020600020905b8154815290600101906020018083116137a057829003601f168201915b505050919092525050506000898152601a602090815260408083208584528252808320549b83526016825280832094835293905291909120549098909650945050505050565b606061380e8261400e565b506000828152601460205260409020805461382890615dfe565b80601f016020809104026020016040519081016040528092919081815260200182805461385490615dfe565b80156138a15780601f10613876576101008083540402835291602001916138a1565b820191906000526020600020905b81548152906001019060200180831161388457829003601f168201915b50505050509050919050565b80516000906138cf57604051635f895cef60e11b815260040160405180910390fd5b600c826060015160ff1611156138f8576040516348c5148960e11b815260040160405180910390fd5b601f826080015160ff161115613921576040516309eabf7d60e21b815260040160405180910390fd5b81516020830151608082901c916fffffffffffffffffffffffffffffffff169060009061394f576000613952565b60015b60ff1660018660a0015160ff16901b6008876080015160ff16901b6010886060015160ff16901b6018896040015161ffff16901b17171717905061399461514c565b838152602081018390526040808201839052516320cf0a3760e01b815260009073__$fc5a2451f3e054f75c2faf9b3818033d8b$__906320cf0a37906139de9085906004016164d5565b602060405180830381865af41580156139fb573d6000803e3d6000fd5b505050506040513d601f19601f82011682018060405250810190613a1f91906164bc565b905080613a2b816144f7565b98975050505050505050565b601860209081526000928352604080842090915290825290208054600182015460028301805492939192613a6a90615dfe565b80601f0160208091040260200160405190810160405280929190818152602001828054613a9690615dfe565b8015613ae35780601f10613ab857610100808354040283529160200191613ae3565b820191906000526020600020905b815481529060010190602001808311613ac657829003601f168201915b5050505060038301546004909301549192916001600160a01b0316905085565b6001600160a01b03918216600090815260056020908152604080832093909416825291909152205460ff1690565b613b39615023565b826000613b4582614053565b6001600160a01b031603613b6c576040516307ed98ed60e31b815260040160405180910390fd5b600084815260176020526040902080548410613b9b57604051637df0b86160e01b815260040160405180910390fd5b6018600086815260200190815260200160002060008581526020019081526020016000206040518060a00160405290816000820154815260200160018201548152602001600282018054613bee90615dfe565b80601f0160208091040260200160405190810160405280929190818152602001828054613c1a90615dfe565b8015613c675780601f10613c3c57610100808354040283529160200191613c67565b820191906000526020600020905b815481529060010190602001808311613c4a57829003601f168201915b5050509183525050600382015460208201526004909101546001600160a01b031660409091015295945050505050565b613c9f61437f565b6001600160a01b038116613cc957604051631e4fbdf760e01b815260006004820152602401610ff5565b613cd2816143ac565b50565b6000838152600c6020526040812054606091829182918080613cf8848a8a61415d565b90508060400151600003613d4157604080516000808252602082018181528284019182526060808401909452608085015194909301519199509197509095509092509050613ef9565b80604001516001600160401b03811115613d5d57613d5d615b12565b604051908082528060200260200182016040528015613d86578160200160208202803683370190505b50965080604001516001600160401b03811115613da557613da5615b12565b604051908082528060200260200182016040528015613dce578160200160208202803683370190505b50955080604001516001600160401b03811115613ded57613ded615b12565b604051908082528060200260200182016040528015613e16578160200160208202803683370190505b50945060005b8160400151811015613ee7578151600090613e38908390615fb1565b9050613e45816001615fb1565b898381518110613e5757613e57615fc4565b60209081029190910181019190915260008d8152601a8252604080822084835290925220548851899084908110613e9057613e90615fc4565b60209081029190910181019190915260008d815260168252604080822084835290925220548751889084908110613ec957613ec9615fc4565b60209081029190910101525080613edf81615fda565b915050613e1c565b50608081015160609091015190925090505b93975093979195509350565b60156020528160005260406000208181548110613f2157600080fd5b90600052602060002001600091509150508054613f3d90615dfe565b80601f0160208091040260200160405190810160405280929190818152602001828054613f6990615dfe565b8015613fb65780601f10613f8b57610100808354040283529160200191613fb6565b820191906000526020600020905b815481529060010190602001808311613f9957829003601f168201915b505050505081565b60006001600160e01b031982166380ac58cd60e01b1480613fef57506001600160e01b03198216635b5e139f60e01b145b80610d0857506301ffc9a760e01b6001600160e01b0319831614610d08565b60008061401a83614053565b90506001600160a01b038116610d0857604051637e27328960e01b815260048101849052602401610ff5565b61181f8383836001614b44565b6000908152600260205260409020546001600160a01b031690565b600082815260146020526040902061181f8282615e93565b600080614094858585614c4a565b90506001600160a01b0381166140f1576140ec84600880546000838152600960205260408120829055600182018355919091527ff3f7a9fe364faab93b216da50a3214154f22a0a2b415b23a84c8169e8b636ee30155565b614114565b846001600160a01b0316816001600160a01b031614614114576141148185614d3e565b6001600160a01b0385166141305761412b84614dbf565b614153565b846001600160a01b0316816001600160a01b031614614153576141538585614e6e565b90505b9392505050565b6141916040518060a00160405280600081526020016000815260200160008152602001600081526020016000151581525090565b60648211156141b357604051630327a73960e61b815260040160405180910390fd5b8115806141c05750838310155b15614204576040518060a0016040528084815260200184815260200160008152602001858510156141f157846141f3565b855b815260006020909101529050614156565b60006142108385615fb1565b90508481111561421d5750835b6040518060a00160405280858152602001828152602001858361424091906160ac565b815260200182815260200186831015158152509150509392505050565b6002600b540361428057604051633ee5aeb560e01b815260040160405180910390fd5b6002600b55565b60008160405160200161429a9190616506565b604051602081830303815290604052805190602001209050919050565b60008181526017602090815260408083206019909252822080549192909190036142e75750600060019091015550565b606060005b825481101561436957600083828154811061430957614309615fc4565b6000918252602080832090910154888352601882526040808420828552835292839020600101549251909350614343918691849101616518565b60405160208183030381529060405293505050808061436190615fda565b9150506142ec565b5080516020909101206001909201919091555050565b600a546001600160a01b03163314611e945760405163118cdaa760e01b8152336004820152602401610ff5565b600a80546001600160a01b038381166001600160a01b0319831681179093556040519116919082907f8be0079c531659141344cd1fd0a4f28419497f9722a3daafe3b4186f6b6457e090600090a35050565b6001600160a01b03821661443057604051630b61174360e31b81526001600160a01b0383166004820152602401610ff5565b6001600160a01b03838116600081815260056020908152604080832094871680845294825291829020805460ff191686151590811790915591519182527f17307eab39ab6107e8899845ad3d59bd9653f200f220920489ca2b5937696c31910160405180910390a3505050565b6000608083901c1515806144b45750608082901c15155b156144d2576040516303b2487b60e11b815260040160405180910390fd5b5060809190911b1790565b610dd4828260405180602001604052806000815250614ebe565b60008161450657506000919050565b60408051602081018490520161429a565b61010083111561453a57604051635fab396360e11b815260040160405180910390fd5b61010081111561455d57604051630601a0fb60e51b815260040160405180910390fd5b6000888152600c602052604090205486111561458c57604051631f9510eb60e01b815260040160405180910390fd5b6000878152600c60205260409020548511156145bb5760405163782ce69f60e01b815260040160405180910390fd5b6000898989898989896040516020016145da979695949392919061653a565b60408051601f19818403018152918152815160209283012060008d8152600e845282812082825290935291205490915060ff161561462b576040516314396b6760e11b815260040160405180910390fd5b60008a8152600e602090815260408083208484528252808320805460ff191660011790558c8352600c82528083208151610140810183528e81528084018e90528083018d90526060810194909452608084018b905260a084018a90523360c08501526001600160601b03421660e08501528151601f89018490048402810184019092528782529291610100830191908990899081908401838280828437600092019190915250505090825250604080516020601f8801819004810282018101909252868152918101919087908790819084018382808284376000920182905250939094525050835460018181018655948252602091829020845160099092020190815590830151938101939093555060408101516002830155606081015160038301556080810151600483015560a0810151600583015560c081015160e08201516001600160601b0316600160a01b026001600160a01b0390911617600683015561010081015190919060078201906147a49082615e93565b5061012082015160088201906147ba9082615e93565b50505060008a8152600c6020526040902080549081906147db6001836160ac565b815481106147eb576147eb615fc4565b600091825260209091206003600990920201015589156148525760008a8152601b602090815260408083208b8452825280832081518083019092528e8252818301858152815460018181018455928652939094209151600290930290910191825591519101555b88156148a5576000898152601b602090815260408083208a8452825280832081518083019092528e8252818301858152815460018181018455928652939094209151600290930290910191825591519101555b806001036148c357600d80549060006148bd83615fda565b91905055505b336001600160a01b0316818c7ff24ca8fe8e48960e559267341f81e7b0f07746d1e98c729930fe251bd2875484428e8d8f8e8e8e60405161490a9796959493929190616570565b60405180910390a461491b8a614ed6565b801561492b575061492b89614ed6565b15614a0d576040516335313c2160e11b81523360048201526000907f00000000000000000000000000000000000000000000000000000000000000006001600160a01b031690636a627842906024016020604051808303816000875af1158015614999573d6000803e3d6000fd5b505050506040513d601f19601f820116820180604052508101906149bd91906164bc565b90508015614a0b57818c336001600160a01b03167fdefc43c3e9b037326c59d7c3f29c0b6b5c94a6fbfcced006b763e74a3115da6d84604051614a0291815260200190565b60405180910390a45b505b5050505050505050505050565b6001600160a01b0383163b15611a2f57604051630a85bd0160e11b81526001600160a01b0384169063150b7a0290614a5c9088908890879087906004016165a2565b6020604051808303816000875af1925050508015614a97575060408051601f3d908101601f19168201909252614a94918101906165d5565b60015b614b00573d808015614ac5576040519150601f19603f3d011682016040523d82523d6000602084013e614aca565b606091505b508051600003614af857604051633250574960e11b81526001600160a01b0385166004820152602401610ff5565b805160208201fd5b6001600160e01b03198116630a85bd0160e11b14614b3c57604051633250574960e11b81526001600160a01b0385166004820152602401610ff5565b505050505050565b8080614b5857506001600160a01b03821615155b15614c1a576000614b688461400e565b90506001600160a01b03831615801590614b945750826001600160a01b0316816001600160a01b031614155b8015614ba75750614ba58184613b03565b155b15614bd05760405163a9fbf51f60e01b81526001600160a01b0384166004820152602401610ff5565b8115614c185783856001600160a01b0316826001600160a01b03167f8c5be1e5ebec7d5bd14f71427d1e84f3dd0314c0f7b2291e5b200ac8c7c3b92560405160405180910390a45b505b5050600090815260046020526040902080546001600160a01b0319166001600160a01b0392909216919091179055565b600080614c5684614053565b90506001600160a01b03831615614c7257614c72818486614ef7565b6001600160a01b03811615614cb057614c8f600085600080614b44565b6001600160a01b038116600090815260036020526040902080546000190190555b6001600160a01b03851615614cdf576001600160a01b0385166000908152600360205260409020805460010190555b60008481526002602052604080822080546001600160a01b0319166001600160a01b0389811691821790925591518793918516917fddf252ad1be2c89b69c2b068fc378daa952ba7f163c4a11628f55a4df523b3ef91a4949350505050565b6000614d4983611e3a565b6000838152600760209081526040808320546001600160a01b0388168452600690925290912091925090818314614da057600083815260208281526040808320548584528184208190558352600790915290208290555b6000938452600760209081526040808620869055938552525081205550565b600854600090614dd1906001906160ac565b60008381526009602052604081205460088054939450909284908110614df957614df9615fc4565b906000526020600020015490508060088381548110614e1a57614e1a615fc4565b6000918252602080832090910192909255828152600990915260408082208490558582528120556008805480614e5257614e526165f2565b6001900381819060005260206000200160009055905550505050565b60006001614e7b84611e3a565b614e8591906160ac565b6001600160a01b039093166000908152600660209081526040808320868452825280832085905593825260079052919091209190915550565b614ec88383614f5b565b61181f336000858585614a1a565b60008115801590610d085750506000908152600c6020526040902054151590565b614f02838383614fc0565b61181f576001600160a01b038316614f3057604051637e27328960e01b815260048101829052602401610ff5565b60405163177e802f60e01b81526001600160a01b038316600482015260248101829052604401610ff5565b6001600160a01b038216614f8557604051633250574960e11b815260006004820152602401610ff5565b6000614f9383836000614086565b90506001600160a01b0381161561181f576040516339e3563760e11b815260006004820152602401610ff5565b60006001600160a01b038316158015906141535750826001600160a01b0316846001600160a01b03161480614ffa5750614ffa8484613b03565b806141535750506000908152600460205260409020546001600160a01b03908116911614919050565b6040518060a001604052806000815260200160008019168152602001606081526020016000815260200160006001600160a01b031681525090565b604080516101408101825260008082526020820181905291810182905260608082018390526080820183905260a0820183905260c0820183905260e0820192909252610100810182905261012081019190915290565b60408051610100810182526000918101828152606082018390526080820183905260a0820183905260c0820183905260e082019290925290819081526020016151476040518061010001604052806060815260200160608152602001600015158152602001600061ffff168152602001600060ff168152602001600060ff16815260200160608152602001606081525090565b905290565b60405180606001604052806003906020820280368337509192915050565b6001600160e01b031981168114613cd257600080fd5b60006020828403121561519257600080fd5b81356141568161516a565b60005b838110156151b85781810151838201526020016151a0565b50506000910152565b600081518084526151d981602086016020860161519d565b601f01601f19169290920160200192915050565b60208152600061415660208301846151c1565b60006020828403121561521257600080fd5b5035919050565b80356001600160a01b038116811461523057600080fd5b919050565b6000806040838503121561524857600080fd5b61525183615219565b946020939093013593505050565b6000806040838503121561527257600080fd5b50508035926020909101359150565b60008060006060848603121561529657600080fd5b505081359360208301359350604090920135919050565b60008083601f8401126152bf57600080fd5b5081356001600160401b038111156152d657600080fd5b6020830191508360208285010111156152ee57600080fd5b9250929050565b60008060006040848603121561530a57600080fd5b8335925060208401356001600160401b0381111561532757600080fd5b615333868287016152ad565b9497909650939450505050565b60008060006060848603121561535557600080fd5b61535e84615219565b925061536c60208501615219565b9150604084013590509250925092565b8051825260208101511515602083015261ffff604082015116604083015260ff606082015116606083015260ff608082015116608083015260ff60a08201511660a08301525050565b600061010082518185526153db828601826151c1565b915050602083015184820360208601526153f582826151c1565b915050604083015161540b604086018215159052565b506060830151615421606086018261ffff169052565b506080830151615436608086018260ff169052565b5060a083015161544b60a086018260ff169052565b5060c083015184820360c086015261546382826151c1565b91505060e083015184820360e086015261547d82826151c1565b95945050505050565b615490818461537c565b60e060c0820152600061415360e08301846153c5565b80518252602081015160208301526000604082015160a060408501526154cf60a08501826151c1565b606084810151908601526080938401516001600160a01b031693909401929092525090919050565b6000608082016080835280875180835260a08501915060a08160051b86010192506020808a0160005b8381101561554e57609f1988870301855261553c8683516154a6565b95509382019390820190600101615520565b5050850197909752509315156040830152506060015292915050565b6000608082016080835280875180835260a08501915060a08160051b86010192506020808a0160005b8381101561554e57609f198887030185526155af8683516151c1565b95509382019390820190600101615593565b6000806000806000608086880312156155d957600080fd5b853594506020860135935060408601356001600160401b038111156155fd57600080fd5b615609888289016152ad565b96999598509660600135949350505050565b6000806000806080858703121561563157600080fd5b5050823594602084013594506040840135936060013592509050565b600081518084526020808501945080840160005b8381101561567d57815187529582019590820190600101615661565b509495945050505050565b60a0808252865190820181905260009060209060c0840190828a01845b828110156156c1578151845292840192908401906001016156a5565b505050838103828501526156d5818961564d565b6040850197909752505050911515606083015260809091015292915050565b60006101408c83528b60208401528a60408401528960608401528860808401528760a084015260018060a01b03871660c08401526001600160601b03861660e08401528061010084015261574a818401866151c1565b905082810361012084015261575f81856151c1565b9d9c50505050505050505050505050565b60006020828403121561578257600080fd5b61415682615219565b6000610140825184526020830151602085015260408301516040850152606083015160608501526080830151608085015260a083015160a085015260c08301516157e060c08601826001600160a01b03169052565b5060e08301516157fb60e08601826001600160601b03169052565b50610100808401518282870152615814838701826151c1565b92505050610120808401518583038287015261583083826151c1565b9695505050505050565b86815285602082015260c06040820152600061585960c083018761578b565b828103606084015261586c81875161537c565b602086015160e060c083015261588560e08301826153c5565b91505084608084015282810360a08401526158a081856151c1565b9998505050505050505050565b6000608082016080835280875180835260a08501915060a08160051b86010192506020808a0160005b8381101561554e57609f198887030185526158f286835161578b565b955093820193908201906001016158d6565b8015158114613cd257600080fd5b6000806040838503121561592557600080fd5b61592e83615219565b9150602083013561593e81615904565b809150509250929050565b8060408101831015610d0857600080fd5b8060808101831015610d0857600080fd5b60008060008060008060008060006102208a8c03121561598a57600080fd5b6159948b8b615949565b98506159a38b60408c0161595a565b97506159b28b60c08c01615949565b96506101a08a018b8111156159c657600080fd5b6101008b0196503594506101c08a013593506101e08a01356001600160401b03808211156159f357600080fd5b6159ff8d838e016152ad565b90955093506102008c0135915080821115615a1957600080fd5b508a0160e0818d031215615a2c57600080fd5b809150509295985092959850929598565b6000806000806000806000806000806102608b8d031215615a5d57600080fd5b615a678c8c615949565b9950615a768c60408d0161595a565b9850615a858c60c08d01615949565b97506101e08b018c811115615a9957600080fd5b6101008c0197503595506102008b013594506102208b01356001600160401b0380821115615ac657600080fd5b615ad28e838f016152ad565b90965094506102408d0135915080821115615aec57600080fd5b50615af98d828e016152ad565b915080935050809150509295989b9194979a5092959850565b634e487b7160e01b600052604160045260246000fd5b604051601f8201601f191681016001600160401b0381118282101715615b5057615b50615b12565b604052919050565b60008060008060808587031215615b6e57600080fd5b615b7785615219565b93506020615b86818701615219565b93506040860135925060608601356001600160401b0380821115615ba957600080fd5b818801915088601f830112615bbd57600080fd5b813581811115615bcf57615bcf615b12565b615be1601f8201601f19168501615b28565b91508082528984828501011115615bf757600080fd5b808484018584013760008482840101525080935050505092959194509250565b606081526000615c2a606083018661578b565b60208301949094525060400152919050565b61ffff81168114613cd257600080fd5b60ff81168114613cd257600080fd5b600060c08284031215615c6d57600080fd5b60405160c081018181106001600160401b0382111715615c8f57615c8f615b12565b604052823581526020830135615ca481615904565b60208201526040830135615cb781615c3c565b60408201526060830135615cca81615c4c565b60608201526080830135615cdd81615c4c565b608082015260a0830135615cf081615c4c565b60a08201529392505050565b85815284602082015260a060408201526000615d1b60a08301866151c1565b6060830194909452506001600160a01b03919091166080909101529392505050565b60008060408385031215615d5057600080fd5b615d5983615219565b9150615d6760208401615219565b90509250929050565b60208152600061415660208301846154a6565b60008060408385031215615d9657600080fd5b82359150615d6760208401615219565b60c081526000615db960c083018961564d565b8281036020840152615dcb818961564d565b90508281036040840152615ddf818861564d565b60608401969096525050911515608083015260a0909101529392505050565b600181811c90821680615e1257607f821691505b602082108103615e3257634e487b7160e01b600052602260045260246000fd5b50919050565b601f82111561181f57600081815260208120601f850160051c81016020861015615e5f5750805b601f850160051c820191505b81811015614b3c57828155600101615e6b565b600019600383901b1c191660019190911b1790565b81516001600160401b03811115615eac57615eac615b12565b615ec081615eba8454615dfe565b84615e38565b602080601f831160018114615eef5760008415615edd5750858301515b615ee78582615e7e565b865550614b3c565b600085815260208120601f198616915b82811015615f1e57888601518255948401946001909101908401615eff565b5085821015615f3c5787850151600019600388901b60f8161c191681555b5050505050600190811b01905550565b81835281816020850137506000828201602090810191909152601f909101601f19169091010190565b604081526000615f8860408301866151c1565b8281036020840152615830818587615f4c565b634e487b7160e01b600052601160045260246000fd5b80820180821115610d0857610d08615f9b565b634e487b7160e01b600052603260045260246000fd5b600060018201615fec57615fec615f9b565b5060010190565b6001600160401b0383111561600a5761600a615b12565b61601e836160188354615dfe565b83615e38565b6000601f84116001811461604c576000851561603a5750838201355b6160448682615e7e565b845550611a2f565b600083815260209020601f19861690835b8281101561607d578685013582556020948501946001909201910161605d565b508682101561609a5760001960f88860031b161c19848701351681555b505060018560011b0183555050505050565b81810381811115610d0857610d08615f9b565b6000823560fe198336030181126160d557600080fd5b9190910192915050565b6000808335601e198436030181126160f657600080fd5b8301803591506001600160401b0382111561611057600080fd5b6020019150368190038213156152ee57600080fd5b8060005b600281101561105957604080838637938401939190910190600101616129565b6101a0810160408683376161606040830186616125565b60408460c084013760a08361010084013795945050505050565b60006020828403121561618c57600080fd5b815161415681615904565b60008135610d0881615904565b60008135610d0881615c3c565b60008135610d0881615c4c565b6161c882836160df565b6001600160401b038111156161df576161df615b12565b6161f3816161ed8554615dfe565b85615e38565b6000601f821160018114616221576000831561620f5750838201355b6162198482615e7e565b86555061627b565b600085815260209020601f19841690835b828110156162525786850135825560209485019460019092019101616232565b508482101561626f5760001960f88660031b161c19848701351681555b505060018360011b0185555b5050505061628c60208301836160df565b61629a818360018601615ff3565b5050600281016162c36162af60408501616197565b825490151560ff1660ff1991909116178255565b6162ea6162d2606085016161a4565b825462ffff00191660089190911b62ffff0016178255565b6163136162f9608085016161b1565b825463ff000000191660189190911b63ff00000016178255565b61633e61632260a085016161b1565b825464ff00000000191660209190911b64ff0000000016178255565b5061634c60c08301836160df565b61635a818360038601615ff3565b505061636960e08301836160df565b611059818360048601615ff3565b8135815560018101602083013561638d81615904565b815460ff191660ff821515161782555060408301356163ab81615c3c565b815462ffff001916600882901b62ffff00161782555060608301356163cf81615c4c565b815463ff0000001916601882901b63ff000000161782555060808301356163f581615c4c565b815464ff000000001916602082901b64ff00000000161782555060a083013561641d81615c4c565b815465ff0000000000191660289190911b65ff00000000001617905560c08201353683900360fe1901811261645157600080fd5b61181f818401600284016161be565b84815260606020820152600061647a606083018587615f4c565b905082604083015295945050505050565b6101e0810160408683376164a26040830186616125565b60408460c084013760e08361010084013795945050505050565b6000602082840312156164ce57600080fd5b5051919050565b60608101818360005b60038110156164fd5781518352602092830192909101906001016164de565b50505092915050565b600082516160d581846020870161519d565b6000835161652a81846020880161519d565b9190910191825250602001919050565b878152866020820152856040820152846060820152836080820152818360a08301376000910160a0019081529695505050505050565b87815286602082015285604082015284606082015283608082015260c060a082015260006158a060c083018486615f4c565b6001600160a01b0385811682528416602082015260408101839052608060608201819052600090615830908301846151c1565b6000602082840312156165e757600080fd5b81516141568161516a565b634e487b7160e01b600052603160045260246000fdfea2646970667358221220c02419a59111dc70324c3601efaad5e741eeff0e266692ac285a000c3d1729c764736f6c63430008140033",
  "linkReferences": {
    "poseidon-solidity/PoseidonT4.sol": {
      "PoseidonT4": [
        {
          "length": 20,
          "start": 15779
        }
      ]
    }
  },
  "deployedLinkReferences": {
    "poseidon-solidity/PoseidonT4.sol": {
      "PoseidonT4": [
        {
          "length": 20,
          "start": 14774
        }
      ]
    }
  }
}