{
  "_format": "hh-sol-artifact-1",
  "contractName": "DeepFamily",
  "sourceName": "contracts/DeepFamily.sol",
  "abi": [
    {
      "inputs": [
        {
          "internalType": "address",
          "name": "_deepFamilyTokenContract",
          "type": "address"
        },
        {
          "internalType": "address",
          "name": "_personHashVerifier",
          "type": "address"
        },
        {
          "internalType": "address",
          "name": "_namePoseidonVerifier",
          "type": "address"
        }
      ],
      "stateMutability": "nonpayable",
      "type": "constructor"
    },
    {
      "inputs": [],
      "name": "AlreadyEndorsed",
      "type": "error"
    },
    {
      "inputs": [],
      "name": "BasicInfoMismatch",
      "type": "error"
    },
    {
      "inputs": [],
      "name": "CallerMismatch",
      "type": "error"
    },
    {
      "inputs": [],
      "name": "ChunkHashMismatch",
      "type": "error"
    },
    {
      "inputs": [],
      "name": "ChunkIndexOutOfRange",
      "type": "error"
    },
    {
      "inputs": [],
      "name": "DirectETHNotAccepted",
      "type": "error"
    },
    {
      "inputs": [],
      "name": "DuplicateVersion",
      "type": "error"
    },
    {
      "inputs": [],
      "name": "ERC721EnumerableForbiddenBatchMint",
      "type": "error"
    },
    {
      "inputs": [
        {
          "internalType": "address",
          "name": "sender",
          "type": "address"
        },
        {
          "internalType": "uint256",
          "name": "tokenId",
          "type": "uint256"
        },
        {
          "internalType": "address",
          "name": "owner",
          "type": "address"
        }
      ],
      "name": "ERC721IncorrectOwner",
      "type": "error"
    },
    {
      "inputs": [
        {
          "internalType": "address",
          "name": "operator",
          "type": "address"
        },
        {
          "internalType": "uint256",
          "name": "tokenId",
          "type": "uint256"
        }
      ],
      "name": "ERC721InsufficientApproval",
      "type": "error"
    },
    {
      "inputs": [
        {
          "internalType": "address",
          "name": "approver",
          "type": "address"
        }
      ],
      "name": "ERC721InvalidApprover",
      "type": "error"
    },
    {
      "inputs": [
        {
          "internalType": "address",
          "name": "operator",
          "type": "address"
        }
      ],
      "name": "ERC721InvalidOperator",
      "type": "error"
    },
    {
      "inputs": [
        {
          "internalType": "address",
          "name": "owner",
          "type": "address"
        }
      ],
      "name": "ERC721InvalidOwner",
      "type": "error"
    },
    {
      "inputs": [
        {
          "internalType": "address",
          "name": "receiver",
          "type": "address"
        }
      ],
      "name": "ERC721InvalidReceiver",
      "type": "error"
    },
    {
      "inputs": [
        {
          "internalType": "address",
          "name": "sender",
          "type": "address"
        }
      ],
      "name": "ERC721InvalidSender",
      "type": "error"
    },
    {
      "inputs": [
        {
          "internalType": "uint256",
          "name": "tokenId",
          "type": "uint256"
        }
      ],
      "name": "ERC721NonexistentToken",
      "type": "error"
    },
    {
      "inputs": [
        {
          "internalType": "address",
          "name": "owner",
          "type": "address"
        },
        {
          "internalType": "uint256",
          "name": "index",
          "type": "uint256"
        }
      ],
      "name": "ERC721OutOfBoundsIndex",
      "type": "error"
    },
    {
      "inputs": [],
      "name": "EndorsementFeeTransferFailed",
      "type": "error"
    },
    {
      "inputs": [],
      "name": "FatherAlreadySet",
      "type": "error"
    },
    {
      "inputs": [],
      "name": "InvalidBirthDay",
      "type": "error"
    },
    {
      "inputs": [],
      "name": "InvalidBirthMonth",
      "type": "error"
    },
    {
      "inputs": [],
      "name": "InvalidBirthPlace",
      "type": "error"
    },
    {
      "inputs": [],
      "name": "InvalidCIDLength",
      "type": "error"
    },
    {
      "inputs": [],
      "name": "InvalidChunkContent",
      "type": "error"
    },
    {
      "inputs": [],
      "name": "InvalidDeathDay",
      "type": "error"
    },
    {
      "inputs": [],
      "name": "InvalidDeathMonth",
      "type": "error"
    },
    {
      "inputs": [],
      "name": "InvalidDeathPlace",
      "type": "error"
    },
    {
      "inputs": [],
      "name": "InvalidFatherVersionIndex",
      "type": "error"
    },
    {
      "inputs": [],
      "name": "InvalidFullName",
      "type": "error"
    },
    {
      "inputs": [],
      "name": "InvalidMotherVersionIndex",
      "type": "error"
    },
    {
      "inputs": [],
      "name": "InvalidParentHash",
      "type": "error"
    },
    {
      "inputs": [],
      "name": "InvalidPersonHash",
      "type": "error"
    },
    {
      "inputs": [],
      "name": "InvalidStory",
      "type": "error"
    },
    {
      "inputs": [],
      "name": "InvalidTagLength",
      "type": "error"
    },
    {
      "inputs": [],
      "name": "InvalidTokenId",
      "type": "error"
    },
    {
      "inputs": [],
      "name": "InvalidTokenURI",
      "type": "error"
    },
    {
      "inputs": [],
      "name": "InvalidVersionIndex",
      "type": "error"
    },
    {
      "inputs": [],
      "name": "InvalidZKProof",
      "type": "error"
    },
    {
      "inputs": [],
      "name": "MotherAlreadySet",
      "type": "error"
    },
    {
      "inputs": [],
      "name": "MustBeNFTHolder",
      "type": "error"
    },
    {
      "inputs": [],
      "name": "MustEndorseVersionFirst",
      "type": "error"
    },
    {
      "inputs": [],
      "name": "NameVerifierNotSet",
      "type": "error"
    },
    {
      "inputs": [],
      "name": "NoParentUpdate",
      "type": "error"
    },
    {
      "inputs": [
        {
          "internalType": "address",
          "name": "owner",
          "type": "address"
        }
      ],
      "name": "OwnableInvalidOwner",
      "type": "error"
    },
    {
      "inputs": [
        {
          "internalType": "address",
          "name": "account",
          "type": "address"
        }
      ],
      "name": "OwnableUnauthorizedAccount",
      "type": "error"
    },
    {
      "inputs": [],
      "name": "PageSizeExceedsLimit",
      "type": "error"
    },
    {
      "inputs": [],
      "name": "ProtocolFeeTooHigh",
      "type": "error"
    },
    {
      "inputs": [],
      "name": "ReentrancyGuardReentrantCall",
      "type": "error"
    },
    {
      "inputs": [],
      "name": "StoryAlreadySealed",
      "type": "error"
    },
    {
      "inputs": [],
      "name": "StoryNotFound",
      "type": "error"
    },
    {
      "inputs": [],
      "name": "TokenContractNotSet",
      "type": "error"
    },
    {
      "inputs": [],
      "name": "UnauthorizedParentUpdate",
      "type": "error"
    },
    {
      "inputs": [],
      "name": "VerifierNotSet",
      "type": "error"
    },
    {
      "inputs": [],
      "name": "VersionAlreadyMinted",
      "type": "error"
    },
    {
      "anonymous": false,
      "inputs": [
        {
          "indexed": true,
          "internalType": "address",
          "name": "owner",
          "type": "address"
        },
        {
          "indexed": true,
          "internalType": "address",
          "name": "approved",
          "type": "address"
        },
        {
          "indexed": true,
          "internalType": "uint256",
          "name": "tokenId",
          "type": "uint256"
        }
      ],
      "name": "Approval",
      "type": "event"
    },
    {
      "anonymous": false,
      "inputs": [
        {
          "indexed": true,
          "internalType": "address",
          "name": "owner",
          "type": "address"
        },
        {
          "indexed": true,
          "internalType": "address",
          "name": "operator",
          "type": "address"
        },
        {
          "indexed": false,
          "internalType": "bool",
          "name": "approved",
          "type": "bool"
        }
      ],
      "name": "ApprovalForAll",
      "type": "event"
    },
    {
      "anonymous": false,
      "inputs": [
        {
          "indexed": true,
          "internalType": "address",
          "name": "previousOwner",
          "type": "address"
        },
        {
          "indexed": true,
          "internalType": "address",
          "name": "newOwner",
          "type": "address"
        }
      ],
      "name": "OwnershipTransferred",
      "type": "event"
    },
    {
      "anonymous": false,
      "inputs": [
        {
          "indexed": true,
          "internalType": "bytes32",
          "name": "personHash",
          "type": "bytes32"
        },
        {
          "indexed": true,
          "internalType": "address",
          "name": "prover",
          "type": "address"
        }
      ],
      "name": "PersonHashZKVerified",
      "type": "event"
    },
    {
      "anonymous": false,
      "inputs": [
        {
          "indexed": true,
          "internalType": "bytes32",
          "name": "personHash",
          "type": "bytes32"
        },
        {
          "indexed": true,
          "internalType": "uint256",
          "name": "tokenId",
          "type": "uint256"
        },
        {
          "indexed": true,
          "internalType": "address",
          "name": "owner",
          "type": "address"
        },
        {
          "indexed": false,
          "internalType": "uint256",
          "name": "versionIndex",
          "type": "uint256"
        },
        {
          "indexed": false,
          "internalType": "string",
          "name": "tokenURI",
          "type": "string"
        },
        {
          "indexed": false,
          "internalType": "uint256",
          "name": "timestamp",
          "type": "uint256"
        }
      ],
      "name": "PersonNFTMinted",
      "type": "event"
    },
    {
      "anonymous": false,
      "inputs": [
        {
          "indexed": true,
          "internalType": "bytes32",
          "name": "personHash",
          "type": "bytes32"
        },
        {
          "indexed": true,
          "internalType": "uint256",
          "name": "versionIndex",
          "type": "uint256"
        },
        {
          "indexed": false,
          "internalType": "bytes32",
          "name": "fatherHash",
          "type": "bytes32"
        },
        {
          "indexed": false,
          "internalType": "uint256",
          "name": "fatherVersionIndex",
          "type": "uint256"
        },
        {
          "indexed": false,
          "internalType": "bytes32",
          "name": "motherHash",
          "type": "bytes32"
        },
        {
          "indexed": false,
          "internalType": "uint256",
          "name": "motherVersionIndex",
          "type": "uint256"
        },
        {
          "indexed": true,
          "internalType": "address",
          "name": "updater",
          "type": "address"
        }
      ],
      "name": "PersonParentsUpdated",
      "type": "event"
    },
    {
      "anonymous": false,
      "inputs": [
        {
          "indexed": true,
          "internalType": "bytes32",
          "name": "personHash",
          "type": "bytes32"
        },
        {
          "indexed": true,
          "internalType": "uint256",
          "name": "versionIndex",
          "type": "uint256"
        },
        {
          "indexed": true,
          "internalType": "address",
          "name": "addedBy",
          "type": "address"
        },
        {
          "indexed": false,
          "internalType": "uint256",
          "name": "timestamp",
          "type": "uint256"
        },
        {
          "indexed": false,
          "internalType": "bytes32",
          "name": "fatherHash",
          "type": "bytes32"
        },
        {
          "indexed": false,
          "internalType": "uint256",
          "name": "fatherVersionIndex",
          "type": "uint256"
        },
        {
          "indexed": false,
          "internalType": "bytes32",
          "name": "motherHash",
          "type": "bytes32"
        },
        {
          "indexed": false,
          "internalType": "uint256",
          "name": "motherVersionIndex",
          "type": "uint256"
        },
        {
          "indexed": false,
          "internalType": "string",
          "name": "tag",
          "type": "string"
        }
      ],
      "name": "PersonVersionAdded",
      "type": "event"
    },
    {
      "anonymous": false,
      "inputs": [
        {
          "indexed": true,
          "internalType": "bytes32",
          "name": "personHash",
          "type": "bytes32"
        },
        {
          "indexed": true,
          "internalType": "address",
          "name": "endorser",
          "type": "address"
        },
        {
          "indexed": false,
          "internalType": "uint256",
          "name": "versionIndex",
          "type": "uint256"
        },
        {
          "indexed": false,
          "internalType": "address",
          "name": "recipient",
          "type": "address"
        },
        {
          "indexed": false,
          "internalType": "uint256",
          "name": "recipientShare",
          "type": "uint256"
        },
        {
          "indexed": false,
          "internalType": "address",
          "name": "protocolRecipient",
          "type": "address"
        },
        {
          "indexed": false,
          "internalType": "uint256",
          "name": "protocolShare",
          "type": "uint256"
        },
        {
          "indexed": false,
          "internalType": "uint256",
          "name": "endorsementFee",
          "type": "uint256"
        },
        {
          "indexed": false,
          "internalType": "uint256",
          "name": "timestamp",
          "type": "uint256"
        }
      ],
      "name": "PersonVersionEndorsed",
      "type": "event"
    },
    {
      "anonymous": false,
      "inputs": [
        {
          "indexed": false,
          "internalType": "uint256",
          "name": "previousBps",
          "type": "uint256"
        },
        {
          "indexed": false,
          "internalType": "uint256",
          "name": "newBps",
          "type": "uint256"
        }
      ],
      "name": "ProtocolEndorsementFeeUpdated",
      "type": "event"
    },
    {
      "anonymous": false,
      "inputs": [
        {
          "indexed": true,
          "internalType": "uint256",
          "name": "tokenId",
          "type": "uint256"
        },
        {
          "indexed": true,
          "internalType": "uint256",
          "name": "chunkIndex",
          "type": "uint256"
        },
        {
          "indexed": false,
          "internalType": "bytes32",
          "name": "chunkHash",
          "type": "bytes32"
        },
        {
          "indexed": true,
          "internalType": "address",
          "name": "editor",
          "type": "address"
        },
        {
          "indexed": false,
          "internalType": "uint256",
          "name": "contentLength",
          "type": "uint256"
        }
      ],
      "name": "StoryChunkAdded",
      "type": "event"
    },
    {
      "anonymous": false,
      "inputs": [
        {
          "indexed": true,
          "internalType": "uint256",
          "name": "tokenId",
          "type": "uint256"
        },
        {
          "indexed": true,
          "internalType": "uint256",
          "name": "chunkIndex",
          "type": "uint256"
        },
        {
          "indexed": false,
          "internalType": "bytes32",
          "name": "oldHash",
          "type": "bytes32"
        },
        {
          "indexed": false,
          "internalType": "bytes32",
          "name": "newHash",
          "type": "bytes32"
        },
        {
          "indexed": true,
          "internalType": "address",
          "name": "editor",
          "type": "address"
        }
      ],
      "name": "StoryChunkUpdated",
      "type": "event"
    },
    {
      "anonymous": false,
      "inputs": [
        {
          "indexed": true,
          "internalType": "uint256",
          "name": "tokenId",
          "type": "uint256"
        },
        {
          "indexed": false,
          "internalType": "uint256",
          "name": "totalChunks",
          "type": "uint256"
        },
        {
          "indexed": false,
          "internalType": "bytes32",
          "name": "fullStoryHash",
          "type": "bytes32"
        },
        {
          "indexed": true,
          "internalType": "address",
          "name": "sealer",
          "type": "address"
        }
      ],
      "name": "StorySealed",
      "type": "event"
    },
    {
      "anonymous": false,
      "inputs": [
        {
          "indexed": true,
          "internalType": "address",
          "name": "miner",
          "type": "address"
        },
        {
          "indexed": true,
          "internalType": "bytes32",
          "name": "personHash",
          "type": "bytes32"
        },
        {
          "indexed": true,
          "internalType": "uint256",
          "name": "versionIndex",
          "type": "uint256"
        },
        {
          "indexed": false,
          "internalType": "uint256",
          "name": "reward",
          "type": "uint256"
        }
      ],
      "name": "TokenRewardDistributed",
      "type": "event"
    },
    {
      "anonymous": false,
      "inputs": [
        {
          "indexed": true,
          "internalType": "uint256",
          "name": "tokenId",
          "type": "uint256"
        },
        {
          "indexed": true,
          "internalType": "address",
          "name": "owner",
          "type": "address"
        },
        {
          "indexed": false,
          "internalType": "string",
          "name": "oldURI",
          "type": "string"
        },
        {
          "indexed": false,
          "internalType": "string",
          "name": "newURI",
          "type": "string"
        }
      ],
      "name": "TokenURIUpdated",
      "type": "event"
    },
    {
      "anonymous": false,
      "inputs": [
        {
          "indexed": true,
          "internalType": "address",
          "name": "from",
          "type": "address"
        },
        {
          "indexed": true,
          "internalType": "address",
          "name": "to",
          "type": "address"
        },
        {
          "indexed": true,
          "internalType": "uint256",
          "name": "tokenId",
          "type": "uint256"
        }
      ],
      "name": "Transfer",
      "type": "event"
    },
    {
      "stateMutability": "payable",
      "type": "fallback"
    },
    {
      "inputs": [],
      "name": "DEEP_FAMILY_TOKEN_CONTRACT",
      "outputs": [
        {
          "internalType": "address",
          "name": "",
          "type": "address"
        }
      ],
      "stateMutability": "view",
      "type": "function"
    },
    {
      "inputs": [],
      "name": "FEE_BPS_DENOMINATOR",
      "outputs": [
        {
          "internalType": "uint256",
          "name": "",
          "type": "uint256"
        }
      ],
      "stateMutability": "view",
      "type": "function"
    },
    {
      "inputs": [],
      "name": "MAX_CHUNK_CONTENT_LENGTH",
      "outputs": [
        {
          "internalType": "uint256",
          "name": "",
          "type": "uint256"
        }
      ],
      "stateMutability": "view",
      "type": "function"
    },
    {
      "inputs": [],
      "name": "MAX_LONG_TEXT_LENGTH",
      "outputs": [
        {
          "internalType": "uint256",
          "name": "",
          "type": "uint256"
        }
      ],
      "stateMutability": "view",
      "type": "function"
    },
    {
      "inputs": [],
      "name": "MAX_QUERY_PAGE_SIZE",
      "outputs": [
        {
          "internalType": "uint256",
          "name": "",
          "type": "uint256"
        }
      ],
      "stateMutability": "view",
      "type": "function"
    },
    {
      "inputs": [],
      "name": "MAX_STORY_CHUNKS",
      "outputs": [
        {
          "internalType": "uint256",
          "name": "",
          "type": "uint256"
        }
      ],
      "stateMutability": "view",
      "type": "function"
    },
    {
      "inputs": [],
      "name": "NAME_POSEIDON_VERIFIER",
      "outputs": [
        {
          "internalType": "address",
          "name": "",
          "type": "address"
        }
      ],
      "stateMutability": "view",
      "type": "function"
    },
    {
      "inputs": [],
      "name": "PERSON_HASH_VERIFIER",
      "outputs": [
        {
          "internalType": "address",
          "name": "",
          "type": "address"
        }
      ],
      "stateMutability": "view",
      "type": "function"
    },
    {
      "inputs": [],
      "name": "PROTOCOL_FEE_BPS_MAX",
      "outputs": [
        {
          "internalType": "uint256",
          "name": "",
          "type": "uint256"
        }
      ],
      "stateMutability": "view",
      "type": "function"
    },
    {
      "inputs": [
        {
          "internalType": "uint256",
          "name": "",
          "type": "uint256"
        },
        {
          "internalType": "uint256",
          "name": "",
          "type": "uint256"
        }
      ],
      "name": "activeChunkIndices",
      "outputs": [
        {
          "internalType": "uint256",
          "name": "",
          "type": "uint256"
        }
      ],
      "stateMutability": "view",
      "type": "function"
    },
    {
      "inputs": [
        {
          "internalType": "uint256[2]",
          "name": "a",
          "type": "uint256[2]"
        },
        {
          "internalType": "uint256[2][2]",
          "name": "b",
          "type": "uint256[2][2]"
        },
        {
          "internalType": "uint256[2]",
          "name": "c",
          "type": "uint256[2]"
        },
        {
          "internalType": "uint256[7]",
          "name": "publicSignals",
          "type": "uint256[7]"
        },
        {
          "internalType": "uint256",
          "name": "fatherVersionIndex",
          "type": "uint256"
        },
        {
          "internalType": "uint256",
          "name": "motherVersionIndex",
          "type": "uint256"
        },
        {
          "internalType": "string",
          "name": "tag",
          "type": "string"
        },
        {
          "internalType": "string",
          "name": "metadataCID",
          "type": "string"
        }
      ],
      "name": "addPersonZK",
      "outputs": [],
      "stateMutability": "nonpayable",
      "type": "function"
    },
    {
      "inputs": [
        {
          "internalType": "uint256",
          "name": "tokenId",
          "type": "uint256"
        },
        {
          "internalType": "uint256",
          "name": "chunkIndex",
          "type": "uint256"
        },
        {
          "internalType": "string",
          "name": "content",
          "type": "string"
        },
        {
          "internalType": "bytes32",
          "name": "expectedHash",
          "type": "bytes32"
        }
      ],
      "name": "addStoryChunk",
      "outputs": [],
      "stateMutability": "nonpayable",
      "type": "function"
    },
    {
      "inputs": [
        {
          "internalType": "address",
          "name": "to",
          "type": "address"
        },
        {
          "internalType": "uint256",
          "name": "tokenId",
          "type": "uint256"
        }
      ],
      "name": "approve",
      "outputs": [],
      "stateMutability": "nonpayable",
      "type": "function"
    },
    {
      "inputs": [
        {
          "internalType": "address",
          "name": "owner",
          "type": "address"
        }
      ],
      "name": "balanceOf",
      "outputs": [
        {
          "internalType": "uint256",
          "name": "",
          "type": "uint256"
        }
      ],
      "stateMutability": "view",
      "type": "function"
    },
    {
      "inputs": [
        {
          "internalType": "bytes32",
          "name": "",
          "type": "bytes32"
        },
        {
          "internalType": "uint256",
          "name": "",
          "type": "uint256"
        },
        {
          "internalType": "uint256",
          "name": "",
          "type": "uint256"
        }
      ],
      "name": "childrenOf",
      "outputs": [
        {
          "internalType": "bytes32",
          "name": "childHash",
          "type": "bytes32"
        },
        {
          "internalType": "uint256",
          "name": "childVersionIndex",
          "type": "uint256"
        }
      ],
      "stateMutability": "view",
      "type": "function"
    },
    {
      "inputs": [
        {
          "internalType": "bytes32",
          "name": "personHash",
          "type": "bytes32"
        },
        {
          "internalType": "uint256",
          "name": "versionIndex",
          "type": "uint256"
        }
      ],
      "name": "endorseVersion",
      "outputs": [],
      "stateMutability": "nonpayable",
      "type": "function"
    },
    {
      "inputs": [
        {
          "internalType": "bytes32",
          "name": "",
          "type": "bytes32"
        },
        {
          "internalType": "address",
          "name": "",
          "type": "address"
        }
      ],
      "name": "endorsedVersionIndex",
      "outputs": [
        {
          "internalType": "uint256",
          "name": "",
          "type": "uint256"
        }
      ],
      "stateMutability": "view",
      "type": "function"
    },
    {
      "inputs": [
        {
          "internalType": "uint256",
          "name": "tokenId",
          "type": "uint256"
        }
      ],
      "name": "getApproved",
      "outputs": [
        {
          "internalType": "address",
          "name": "",
          "type": "address"
        }
      ],
      "stateMutability": "view",
      "type": "function"
    },
    {
      "inputs": [
        {
          "internalType": "uint256",
          "name": "tokenId",
          "type": "uint256"
        }
      ],
      "name": "getNFTDetails",
      "outputs": [
        {
          "internalType": "bytes32",
          "name": "personHash",
          "type": "bytes32"
        },
        {
          "internalType": "uint256",
          "name": "versionIndex",
          "type": "uint256"
        },
        {
          "components": [
            {
              "internalType": "bytes32",
              "name": "personHash",
              "type": "bytes32"
            },
            {
              "internalType": "bytes32",
              "name": "fatherHash",
              "type": "bytes32"
            },
            {
              "internalType": "bytes32",
              "name": "motherHash",
              "type": "bytes32"
            },
            {
              "internalType": "uint256",
              "name": "versionIndex",
              "type": "uint256"
            },
            {
              "internalType": "uint256",
              "name": "fatherVersionIndex",
              "type": "uint256"
            },
            {
              "internalType": "uint256",
              "name": "motherVersionIndex",
              "type": "uint256"
            },
            {
              "internalType": "address",
              "name": "addedBy",
              "type": "address"
            },
            {
              "internalType": "uint96",
              "name": "timestamp",
              "type": "uint96"
            },
            {
              "internalType": "string",
              "name": "tag",
              "type": "string"
            },
            {
              "internalType": "string",
              "name": "metadataCID",
              "type": "string"
            }
          ],
          "internalType": "struct DeepFamily.PersonVersion",
          "name": "version",
          "type": "tuple"
        },
        {
          "components": [
            {
              "components": [
                {
                  "internalType": "bytes32",
                  "name": "fullNameCommitment",
                  "type": "bytes32"
                },
                {
                  "internalType": "bool",
                  "name": "isBirthBC",
                  "type": "bool"
                },
                {
                  "internalType": "uint16",
                  "name": "birthYear",
                  "type": "uint16"
                },
                {
                  "internalType": "uint8",
                  "name": "birthMonth",
                  "type": "uint8"
                },
                {
                  "internalType": "uint8",
                  "name": "birthDay",
                  "type": "uint8"
                },
                {
                  "internalType": "uint8",
                  "name": "gender",
                  "type": "uint8"
                }
              ],
              "internalType": "struct DeepFamily.PersonBasicInfo",
              "name": "basicInfo",
              "type": "tuple"
            },
            {
              "components": [
                {
                  "internalType": "string",
                  "name": "fullName",
                  "type": "string"
                },
                {
                  "internalType": "string",
                  "name": "birthPlace",
                  "type": "string"
                },
                {
                  "internalType": "bool",
                  "name": "isDeathBC",
                  "type": "bool"
                },
                {
                  "internalType": "uint16",
                  "name": "deathYear",
                  "type": "uint16"
                },
                {
                  "internalType": "uint8",
                  "name": "deathMonth",
                  "type": "uint8"
                },
                {
                  "internalType": "uint8",
                  "name": "deathDay",
                  "type": "uint8"
                },
                {
                  "internalType": "string",
                  "name": "deathPlace",
                  "type": "string"
                },
                {
                  "internalType": "string",
                  "name": "story",
                  "type": "string"
                }
              ],
              "internalType": "struct DeepFamily.PersonSupplementInfo",
              "name": "supplementInfo",
              "type": "tuple"
            }
          ],
          "internalType": "struct DeepFamily.PersonCoreInfo",
          "name": "coreInfo",
          "type": "tuple"
        },
        {
          "internalType": "uint256",
          "name": "endorsementCount",
          "type": "uint256"
        },
        {
          "internalType": "string",
          "name": "nftTokenURI",
          "type": "string"
        }
      ],
      "stateMutability": "view",
      "type": "function"
    },
    {
      "inputs": [
        {
          "components": [
            {
              "internalType": "bytes32",
              "name": "fullNameCommitment",
              "type": "bytes32"
            },
            {
              "internalType": "bool",
              "name": "isBirthBC",
              "type": "bool"
            },
            {
              "internalType": "uint16",
              "name": "birthYear",
              "type": "uint16"
            },
            {
              "internalType": "uint8",
              "name": "birthMonth",
              "type": "uint8"
            },
            {
              "internalType": "uint8",
              "name": "birthDay",
              "type": "uint8"
            },
            {
              "internalType": "uint8",
              "name": "gender",
              "type": "uint8"
            }
          ],
          "internalType": "struct DeepFamily.PersonBasicInfo",
          "name": "basicInfo",
          "type": "tuple"
        }
      ],
      "name": "getPersonHash",
      "outputs": [
        {
          "internalType": "bytes32",
          "name": "",
          "type": "bytes32"
        }
      ],
      "stateMutability": "pure",
      "type": "function"
    },
    {
      "inputs": [
        {
          "internalType": "uint256",
          "name": "tokenId",
          "type": "uint256"
        },
        {
          "internalType": "uint256",
          "name": "chunkIndex",
          "type": "uint256"
        }
      ],
      "name": "getStoryChunk",
      "outputs": [
        {
          "components": [
            {
              "internalType": "uint256",
              "name": "chunkIndex",
              "type": "uint256"
            },
            {
              "internalType": "bytes32",
              "name": "chunkHash",
              "type": "bytes32"
            },
            {
              "internalType": "string",
              "name": "content",
              "type": "string"
            },
            {
              "internalType": "uint256",
              "name": "timestamp",
              "type": "uint256"
            },
            {
              "internalType": "address",
              "name": "lastEditor",
              "type": "address"
            }
          ],
          "internalType": "struct DeepFamily.StoryChunk",
          "name": "chunk",
          "type": "tuple"
        }
      ],
      "stateMutability": "view",
      "type": "function"
    },
    {
      "inputs": [
        {
          "internalType": "uint256",
          "name": "tokenId",
          "type": "uint256"
        }
      ],
      "name": "getStoryMetadata",
      "outputs": [
        {
          "components": [
            {
              "internalType": "uint256",
              "name": "totalChunks",
              "type": "uint256"
            },
            {
              "internalType": "bytes32",
              "name": "fullStoryHash",
              "type": "bytes32"
            },
            {
              "internalType": "uint256",
              "name": "lastUpdateTime",
              "type": "uint256"
            },
            {
              "internalType": "bool",
              "name": "isSealed",
              "type": "bool"
            },
            {
              "internalType": "uint256",
              "name": "totalLength",
              "type": "uint256"
            }
          ],
          "internalType": "struct DeepFamily.StoryMetadata",
          "name": "metadata",
          "type": "tuple"
        }
      ],
      "stateMutability": "view",
      "type": "function"
    },
    {
      "inputs": [
        {
          "internalType": "bytes32",
          "name": "personHash",
          "type": "bytes32"
        },
        {
          "internalType": "uint256",
          "name": "versionIndex",
          "type": "uint256"
        }
      ],
      "name": "getVersionDetails",
      "outputs": [
        {
          "components": [
            {
              "internalType": "bytes32",
              "name": "personHash",
              "type": "bytes32"
            },
            {
              "internalType": "bytes32",
              "name": "fatherHash",
              "type": "bytes32"
            },
            {
              "internalType": "bytes32",
              "name": "motherHash",
              "type": "bytes32"
            },
            {
              "internalType": "uint256",
              "name": "versionIndex",
              "type": "uint256"
            },
            {
              "internalType": "uint256",
              "name": "fatherVersionIndex",
              "type": "uint256"
            },
            {
              "internalType": "uint256",
              "name": "motherVersionIndex",
              "type": "uint256"
            },
            {
              "internalType": "address",
              "name": "addedBy",
              "type": "address"
            },
            {
              "internalType": "uint96",
              "name": "timestamp",
              "type": "uint96"
            },
            {
              "internalType": "string",
              "name": "tag",
              "type": "string"
            },
            {
              "internalType": "string",
              "name": "metadataCID",
              "type": "string"
            }
          ],
          "internalType": "struct DeepFamily.PersonVersion",
          "name": "version",
          "type": "tuple"
        },
        {
          "internalType": "uint256",
          "name": "endorsementCount",
          "type": "uint256"
        },
        {
          "internalType": "uint256",
          "name": "tokenId",
          "type": "uint256"
        }
      ],
      "stateMutability": "view",
      "type": "function"
    },
    {
      "inputs": [
        {
          "internalType": "address",
          "name": "owner",
          "type": "address"
        },
        {
          "internalType": "address",
          "name": "operator",
          "type": "address"
        }
      ],
      "name": "isApprovedForAll",
      "outputs": [
        {
          "internalType": "bool",
          "name": "",
          "type": "bool"
        }
      ],
      "stateMutability": "view",
      "type": "function"
    },
    {
      "inputs": [
        {
          "internalType": "bytes32",
          "name": "parentHash",
          "type": "bytes32"
        },
        {
          "internalType": "uint256",
          "name": "parentVersionIndex",
          "type": "uint256"
        },
        {
          "internalType": "uint256",
          "name": "offset",
          "type": "uint256"
        },
        {
          "internalType": "uint256",
          "name": "limit",
          "type": "uint256"
        }
      ],
      "name": "listChildren",
      "outputs": [
        {
          "internalType": "bytes32[]",
          "name": "childHashes",
          "type": "bytes32[]"
        },
        {
          "internalType": "uint256[]",
          "name": "childVersionIndices",
          "type": "uint256[]"
        },
        {
          "internalType": "uint256",
          "name": "totalCount",
          "type": "uint256"
        },
        {
          "internalType": "bool",
          "name": "hasMore",
          "type": "bool"
        },
        {
          "internalType": "uint256",
          "name": "nextOffset",
          "type": "uint256"
        }
      ],
      "stateMutability": "view",
      "type": "function"
    },
    {
      "inputs": [
        {
          "internalType": "bytes32",
          "name": "personHash",
          "type": "bytes32"
        },
        {
          "internalType": "uint256",
          "name": "offset",
          "type": "uint256"
        },
        {
          "internalType": "uint256",
          "name": "limit",
          "type": "uint256"
        }
      ],
      "name": "listPersonVersions",
      "outputs": [
        {
          "components": [
            {
              "internalType": "bytes32",
              "name": "personHash",
              "type": "bytes32"
            },
            {
              "internalType": "bytes32",
              "name": "fatherHash",
              "type": "bytes32"
            },
            {
              "internalType": "bytes32",
              "name": "motherHash",
              "type": "bytes32"
            },
            {
              "internalType": "uint256",
              "name": "versionIndex",
              "type": "uint256"
            },
            {
              "internalType": "uint256",
              "name": "fatherVersionIndex",
              "type": "uint256"
            },
            {
              "internalType": "uint256",
              "name": "motherVersionIndex",
              "type": "uint256"
            },
            {
              "internalType": "address",
              "name": "addedBy",
              "type": "address"
            },
            {
              "internalType": "uint96",
              "name": "timestamp",
              "type": "uint96"
            },
            {
              "internalType": "string",
              "name": "tag",
              "type": "string"
            },
            {
              "internalType": "string",
              "name": "metadataCID",
              "type": "string"
            }
          ],
          "internalType": "struct DeepFamily.PersonVersion[]",
          "name": "versions",
          "type": "tuple[]"
        },
        {
          "internalType": "uint256",
          "name": "totalVersions",
          "type": "uint256"
        },
        {
          "internalType": "bool",
          "name": "hasMore",
          "type": "bool"
        },
        {
          "internalType": "uint256",
          "name": "nextOffset",
          "type": "uint256"
        }
      ],
      "stateMutability": "view",
      "type": "function"
    },
    {
      "inputs": [
        {
          "internalType": "uint256",
          "name": "tokenId",
          "type": "uint256"
        },
        {
          "internalType": "uint256",
          "name": "offset",
          "type": "uint256"
        },
        {
          "internalType": "uint256",
          "name": "limit",
          "type": "uint256"
        }
      ],
      "name": "listStoryChunks",
      "outputs": [
        {
          "components": [
            {
              "internalType": "uint256",
              "name": "chunkIndex",
              "type": "uint256"
            },
            {
              "internalType": "bytes32",
              "name": "chunkHash",
              "type": "bytes32"
            },
            {
              "internalType": "string",
              "name": "content",
              "type": "string"
            },
            {
              "internalType": "uint256",
              "name": "timestamp",
              "type": "uint256"
            },
            {
              "internalType": "address",
              "name": "lastEditor",
              "type": "address"
            }
          ],
          "internalType": "struct DeepFamily.StoryChunk[]",
          "name": "chunks",
          "type": "tuple[]"
        },
        {
          "internalType": "uint256",
          "name": "totalChunks",
          "type": "uint256"
        },
        {
          "internalType": "bool",
          "name": "hasMore",
          "type": "bool"
        },
        {
          "internalType": "uint256",
          "name": "nextOffset",
          "type": "uint256"
        }
      ],
      "stateMutability": "view",
      "type": "function"
    },
    {
      "inputs": [
        {
          "internalType": "uint256",
          "name": "tokenId",
          "type": "uint256"
        },
        {
          "internalType": "uint256",
          "name": "offset",
          "type": "uint256"
        },
        {
          "internalType": "uint256",
          "name": "limit",
          "type": "uint256"
        }
      ],
      "name": "listTokenURIHistory",
      "outputs": [
        {
          "internalType": "string[]",
          "name": "uris",
          "type": "string[]"
        },
        {
          "internalType": "uint256",
          "name": "totalCount",
          "type": "uint256"
        },
        {
          "internalType": "bool",
          "name": "hasMore",
          "type": "bool"
        },
        {
          "internalType": "uint256",
          "name": "nextOffset",
          "type": "uint256"
        }
      ],
      "stateMutability": "view",
      "type": "function"
    },
    {
      "inputs": [
        {
          "internalType": "bytes32",
          "name": "personHash",
          "type": "bytes32"
        },
        {
          "internalType": "uint256",
          "name": "offset",
          "type": "uint256"
        },
        {
          "internalType": "uint256",
          "name": "limit",
          "type": "uint256"
        }
      ],
      "name": "listVersionsEndorsementStats",
      "outputs": [
        {
          "internalType": "uint256[]",
          "name": "versionIndices",
          "type": "uint256[]"
        },
        {
          "internalType": "uint256[]",
          "name": "endorsementCounts",
          "type": "uint256[]"
        },
        {
          "internalType": "uint256[]",
          "name": "tokenIds",
          "type": "uint256[]"
        },
        {
          "internalType": "uint256",
          "name": "totalVersions",
          "type": "uint256"
        },
        {
          "internalType": "bool",
          "name": "hasMore",
          "type": "bool"
        },
        {
          "internalType": "uint256",
          "name": "nextOffset",
          "type": "uint256"
        }
      ],
      "stateMutability": "view",
      "type": "function"
    },
    {
      "inputs": [
        {
          "internalType": "uint256[2]",
          "name": "a",
          "type": "uint256[2]"
        },
        {
          "internalType": "uint256[2][2]",
          "name": "b",
          "type": "uint256[2][2]"
        },
        {
          "internalType": "uint256[2]",
          "name": "c",
          "type": "uint256[2]"
        },
        {
          "internalType": "uint256[5]",
          "name": "publicSignals",
          "type": "uint256[5]"
        },
        {
          "internalType": "bytes32",
          "name": "personHash",
          "type": "bytes32"
        },
        {
          "internalType": "uint256",
          "name": "versionIndex",
          "type": "uint256"
        },
        {
          "internalType": "string",
          "name": "_tokenURI",
          "type": "string"
        },
        {
          "components": [
            {
              "components": [
                {
                  "internalType": "bytes32",
                  "name": "fullNameCommitment",
                  "type": "bytes32"
                },
                {
                  "internalType": "bool",
                  "name": "isBirthBC",
                  "type": "bool"
                },
                {
                  "internalType": "uint16",
                  "name": "birthYear",
                  "type": "uint16"
                },
                {
                  "internalType": "uint8",
                  "name": "birthMonth",
                  "type": "uint8"
                },
                {
                  "internalType": "uint8",
                  "name": "birthDay",
                  "type": "uint8"
                },
                {
                  "internalType": "uint8",
                  "name": "gender",
                  "type": "uint8"
                }
              ],
              "internalType": "struct DeepFamily.PersonBasicInfo",
              "name": "basicInfo",
              "type": "tuple"
            },
            {
              "components": [
                {
                  "internalType": "string",
                  "name": "fullName",
                  "type": "string"
                },
                {
                  "internalType": "string",
                  "name": "birthPlace",
                  "type": "string"
                },
                {
                  "internalType": "bool",
                  "name": "isDeathBC",
                  "type": "bool"
                },
                {
                  "internalType": "uint16",
                  "name": "deathYear",
                  "type": "uint16"
                },
                {
                  "internalType": "uint8",
                  "name": "deathMonth",
                  "type": "uint8"
                },
                {
                  "internalType": "uint8",
                  "name": "deathDay",
                  "type": "uint8"
                },
                {
                  "internalType": "string",
                  "name": "deathPlace",
                  "type": "string"
                },
                {
                  "internalType": "string",
                  "name": "story",
                  "type": "string"
                }
              ],
              "internalType": "struct DeepFamily.PersonSupplementInfo",
              "name": "supplementInfo",
              "type": "tuple"
            }
          ],
          "internalType": "struct DeepFamily.PersonCoreInfo",
          "name": "coreInfo",
          "type": "tuple"
        }
      ],
      "name": "mintPersonNFT",
      "outputs": [],
      "stateMutability": "nonpayable",
      "type": "function"
    },
    {
      "inputs": [],
      "name": "name",
      "outputs": [
        {
          "internalType": "string",
          "name": "",
          "type": "string"
        }
      ],
      "stateMutability": "view",
      "type": "function"
    },
    {
      "inputs": [
        {
          "internalType": "uint256",
          "name": "",
          "type": "uint256"
        }
      ],
      "name": "nftCoreInfo",
      "outputs": [
        {
          "components": [
            {
              "internalType": "bytes32",
              "name": "fullNameCommitment",
              "type": "bytes32"
            },
            {
              "internalType": "bool",
              "name": "isBirthBC",
              "type": "bool"
            },
            {
              "internalType": "uint16",
              "name": "birthYear",
              "type": "uint16"
            },
            {
              "internalType": "uint8",
              "name": "birthMonth",
              "type": "uint8"
            },
            {
              "internalType": "uint8",
              "name": "birthDay",
              "type": "uint8"
            },
            {
              "internalType": "uint8",
              "name": "gender",
              "type": "uint8"
            }
          ],
          "internalType": "struct DeepFamily.PersonBasicInfo",
          "name": "basicInfo",
          "type": "tuple"
        },
        {
          "components": [
            {
              "internalType": "string",
              "name": "fullName",
              "type": "string"
            },
            {
              "internalType": "string",
              "name": "birthPlace",
              "type": "string"
            },
            {
              "internalType": "bool",
              "name": "isDeathBC",
              "type": "bool"
            },
            {
              "internalType": "uint16",
              "name": "deathYear",
              "type": "uint16"
            },
            {
              "internalType": "uint8",
              "name": "deathMonth",
              "type": "uint8"
            },
            {
              "internalType": "uint8",
              "name": "deathDay",
              "type": "uint8"
            },
            {
              "internalType": "string",
              "name": "deathPlace",
              "type": "string"
            },
            {
              "internalType": "string",
              "name": "story",
              "type": "string"
            }
          ],
          "internalType": "struct DeepFamily.PersonSupplementInfo",
          "name": "supplementInfo",
          "type": "tuple"
        }
      ],
      "stateMutability": "view",
      "type": "function"
    },
    {
      "inputs": [],
      "name": "owner",
      "outputs": [
        {
          "internalType": "address",
          "name": "",
          "type": "address"
        }
      ],
      "stateMutability": "view",
      "type": "function"
    },
    {
      "inputs": [
        {
          "internalType": "uint256",
          "name": "tokenId",
          "type": "uint256"
        }
      ],
      "name": "ownerOf",
      "outputs": [
        {
          "internalType": "address",
          "name": "",
          "type": "address"
        }
      ],
      "stateMutability": "view",
      "type": "function"
    },
    {
      "inputs": [
        {
          "internalType": "bytes32",
          "name": "",
          "type": "bytes32"
        },
        {
          "internalType": "uint256",
          "name": "",
          "type": "uint256"
        }
      ],
      "name": "personVersions",
      "outputs": [
        {
          "internalType": "bytes32",
          "name": "personHash",
          "type": "bytes32"
        },
        {
          "internalType": "bytes32",
          "name": "fatherHash",
          "type": "bytes32"
        },
        {
          "internalType": "bytes32",
          "name": "motherHash",
          "type": "bytes32"
        },
        {
          "internalType": "uint256",
          "name": "versionIndex",
          "type": "uint256"
        },
        {
          "internalType": "uint256",
          "name": "fatherVersionIndex",
          "type": "uint256"
        },
        {
          "internalType": "uint256",
          "name": "motherVersionIndex",
          "type": "uint256"
        },
        {
          "internalType": "address",
          "name": "addedBy",
          "type": "address"
        },
        {
          "internalType": "uint96",
          "name": "timestamp",
          "type": "uint96"
        },
        {
          "internalType": "string",
          "name": "tag",
          "type": "string"
        },
        {
          "internalType": "string",
          "name": "metadataCID",
          "type": "string"
        }
      ],
      "stateMutability": "view",
      "type": "function"
    },
    {
      "inputs": [],
      "name": "protocolEndorsementFeeBps",
      "outputs": [
        {
          "internalType": "uint256",
          "name": "",
          "type": "uint256"
        }
      ],
      "stateMutability": "view",
      "type": "function"
    },
    {
      "inputs": [],
      "name": "renounceOwnership",
      "outputs": [],
      "stateMutability": "nonpayable",
      "type": "function"
    },
    {
      "inputs": [
        {
          "internalType": "address",
          "name": "from",
          "type": "address"
        },
        {
          "internalType": "address",
          "name": "to",
          "type": "address"
        },
        {
          "internalType": "uint256",
          "name": "tokenId",
          "type": "uint256"
        }
      ],
      "name": "safeTransferFrom",
      "outputs": [],
      "stateMutability": "nonpayable",
      "type": "function"
    },
    {
      "inputs": [
        {
          "internalType": "address",
          "name": "from",
          "type": "address"
        },
        {
          "internalType": "address",
          "name": "to",
          "type": "address"
        },
        {
          "internalType": "uint256",
          "name": "tokenId",
          "type": "uint256"
        },
        {
          "internalType": "bytes",
          "name": "data",
          "type": "bytes"
        }
      ],
      "name": "safeTransferFrom",
      "outputs": [],
      "stateMutability": "nonpayable",
      "type": "function"
    },
    {
      "inputs": [
        {
          "internalType": "uint256",
          "name": "tokenId",
          "type": "uint256"
        }
      ],
      "name": "sealStory",
      "outputs": [],
      "stateMutability": "nonpayable",
      "type": "function"
    },
    {
      "inputs": [
        {
          "internalType": "address",
          "name": "operator",
          "type": "address"
        },
        {
          "internalType": "bool",
          "name": "approved",
          "type": "bool"
        }
      ],
      "name": "setApprovalForAll",
      "outputs": [],
      "stateMutability": "nonpayable",
      "type": "function"
    },
    {
      "inputs": [
        {
          "internalType": "uint256",
          "name": "",
          "type": "uint256"
        },
        {
          "internalType": "uint256",
          "name": "",
          "type": "uint256"
        }
      ],
      "name": "storyChunks",
      "outputs": [
        {
          "internalType": "uint256",
          "name": "chunkIndex",
          "type": "uint256"
        },
        {
          "internalType": "bytes32",
          "name": "chunkHash",
          "type": "bytes32"
        },
        {
          "internalType": "string",
          "name": "content",
          "type": "string"
        },
        {
          "internalType": "uint256",
          "name": "timestamp",
          "type": "uint256"
        },
        {
          "internalType": "address",
          "name": "lastEditor",
          "type": "address"
        }
      ],
      "stateMutability": "view",
      "type": "function"
    },
    {
      "inputs": [
        {
          "internalType": "uint256",
          "name": "",
          "type": "uint256"
        }
      ],
      "name": "storyMetadata",
      "outputs": [
        {
          "internalType": "uint256",
          "name": "totalChunks",
          "type": "uint256"
        },
        {
          "internalType": "bytes32",
          "name": "fullStoryHash",
          "type": "bytes32"
        },
        {
          "internalType": "uint256",
          "name": "lastUpdateTime",
          "type": "uint256"
        },
        {
          "internalType": "bool",
          "name": "isSealed",
          "type": "bool"
        },
        {
          "internalType": "uint256",
          "name": "totalLength",
          "type": "uint256"
        }
      ],
      "stateMutability": "view",
      "type": "function"
    },
    {
      "inputs": [
        {
          "internalType": "bytes4",
          "name": "interfaceId",
          "type": "bytes4"
        }
      ],
      "name": "supportsInterface",
      "outputs": [
        {
          "internalType": "bool",
          "name": "",
          "type": "bool"
        }
      ],
      "stateMutability": "view",
      "type": "function"
    },
    {
      "inputs": [],
      "name": "symbol",
      "outputs": [
        {
          "internalType": "string",
          "name": "",
          "type": "string"
        }
      ],
      "stateMutability": "view",
      "type": "function"
    },
    {
      "inputs": [
        {
          "internalType": "uint256",
          "name": "index",
          "type": "uint256"
        }
      ],
      "name": "tokenByIndex",
      "outputs": [
        {
          "internalType": "uint256",
          "name": "",
          "type": "uint256"
        }
      ],
      "stateMutability": "view",
      "type": "function"
    },
    {
      "inputs": [],
      "name": "tokenCounter",
      "outputs": [
        {
          "internalType": "uint256",
          "name": "",
          "type": "uint256"
        }
      ],
      "stateMutability": "view",
      "type": "function"
    },
    {
      "inputs": [
        {
          "internalType": "uint256",
          "name": "",
          "type": "uint256"
        }
      ],
      "name": "tokenIdToPerson",
      "outputs": [
        {
          "internalType": "bytes32",
          "name": "",
          "type": "bytes32"
        }
      ],
      "stateMutability": "view",
      "type": "function"
    },
    {
      "inputs": [
        {
          "internalType": "uint256",
          "name": "",
          "type": "uint256"
        }
      ],
      "name": "tokenIdToVersionIndex",
      "outputs": [
        {
          "internalType": "uint256",
          "name": "",
          "type": "uint256"
        }
      ],
      "stateMutability": "view",
      "type": "function"
    },
    {
      "inputs": [
        {
          "internalType": "address",
          "name": "owner",
          "type": "address"
        },
        {
          "internalType": "uint256",
          "name": "index",
          "type": "uint256"
        }
      ],
      "name": "tokenOfOwnerByIndex",
      "outputs": [
        {
          "internalType": "uint256",
          "name": "",
          "type": "uint256"
        }
      ],
      "stateMutability": "view",
      "type": "function"
    },
    {
      "inputs": [
        {
          "internalType": "uint256",
          "name": "tokenId",
          "type": "uint256"
        }
      ],
      "name": "tokenURI",
      "outputs": [
        {
          "internalType": "string",
          "name": "",
          "type": "string"
        }
      ],
      "stateMutability": "view",
      "type": "function"
    },
    {
      "inputs": [
        {
          "internalType": "uint256",
          "name": "",
          "type": "uint256"
        },
        {
          "internalType": "uint256",
          "name": "",
          "type": "uint256"
        }
      ],
      "name": "tokenURIHistory",
      "outputs": [
        {
          "internalType": "string",
          "name": "",
          "type": "string"
        }
      ],
      "stateMutability": "view",
      "type": "function"
    },
    {
      "inputs": [],
      "name": "totalPersonsCount",
      "outputs": [
        {
          "internalType": "uint256",
          "name": "",
          "type": "uint256"
        }
      ],
      "stateMutability": "view",
      "type": "function"
    },
    {
      "inputs": [],
      "name": "totalSupply",
      "outputs": [
        {
          "internalType": "uint256",
          "name": "",
          "type": "uint256"
        }
      ],
      "stateMutability": "view",
      "type": "function"
    },
    {
      "inputs": [
        {
          "internalType": "address",
          "name": "from",
          "type": "address"
        },
        {
          "internalType": "address",
          "name": "to",
          "type": "address"
        },
        {
          "internalType": "uint256",
          "name": "tokenId",
          "type": "uint256"
        }
      ],
      "name": "transferFrom",
      "outputs": [],
      "stateMutability": "nonpayable",
      "type": "function"
    },
    {
      "inputs": [
        {
          "internalType": "address",
          "name": "newOwner",
          "type": "address"
        }
      ],
      "name": "transferOwnership",
      "outputs": [],
      "stateMutability": "nonpayable",
      "type": "function"
    },
    {
      "inputs": [
        {
          "internalType": "bytes32",
          "name": "personHash",
          "type": "bytes32"
        },
        {
          "internalType": "uint256",
          "name": "versionIndex",
          "type": "uint256"
        },
        {
          "internalType": "bytes32",
          "name": "newFatherHash",
          "type": "bytes32"
        },
        {
          "internalType": "uint256",
          "name": "newFatherVersionIndex",
          "type": "uint256"
        },
        {
          "internalType": "bytes32",
          "name": "newMotherHash",
          "type": "bytes32"
        },
        {
          "internalType": "uint256",
          "name": "newMotherVersionIndex",
          "type": "uint256"
        }
      ],
      "name": "updatePersonParents",
      "outputs": [],
      "stateMutability": "nonpayable",
      "type": "function"
    },
    {
      "inputs": [
        {
          "internalType": "uint256",
          "name": "newBps",
          "type": "uint256"
        }
      ],
      "name": "updateProtocolEndorsementFee",
      "outputs": [],
      "stateMutability": "nonpayable",
      "type": "function"
    },
    {
      "inputs": [
        {
          "internalType": "uint256",
          "name": "tokenId",
          "type": "uint256"
        },
        {
          "internalType": "uint256",
          "name": "chunkIndex",
          "type": "uint256"
        },
        {
          "internalType": "string",
          "name": "newContent",
          "type": "string"
        },
        {
          "internalType": "bytes32",
          "name": "expectedHash",
          "type": "bytes32"
        }
      ],
      "name": "updateStoryChunk",
      "outputs": [],
      "stateMutability": "nonpayable",
      "type": "function"
    },
    {
      "inputs": [
        {
          "internalType": "uint256",
          "name": "tokenId",
          "type": "uint256"
        },
        {
          "internalType": "string",
          "name": "newURI",
          "type": "string"
        }
      ],
      "name": "updateTokenURI",
      "outputs": [],
      "stateMutability": "nonpayable",
      "type": "function"
    },
    {
      "inputs": [
        {
          "internalType": "bytes32",
          "name": "",
          "type": "bytes32"
        },
        {
          "internalType": "uint256",
          "name": "",
          "type": "uint256"
        }
      ],
      "name": "versionEndorsementCount",
      "outputs": [
        {
          "internalType": "uint256",
          "name": "",
          "type": "uint256"
        }
      ],
      "stateMutability": "view",
      "type": "function"
    },
    {
      "inputs": [
        {
          "internalType": "bytes32",
          "name": "",
          "type": "bytes32"
        },
        {
          "internalType": "bytes32",
          "name": "",
          "type": "bytes32"
        }
      ],
      "name": "versionExists",
      "outputs": [
        {
          "internalType": "bool",
          "name": "",
          "type": "bool"
        }
      ],
      "stateMutability": "view",
      "type": "function"
    },
    {
      "inputs": [
        {
          "internalType": "bytes32",
          "name": "",
          "type": "bytes32"
        },
        {
          "internalType": "uint256",
          "name": "",
          "type": "uint256"
        }
      ],
      "name": "versionToTokenId",
      "outputs": [
        {
          "internalType": "uint256",
          "name": "",
          "type": "uint256"
        }
      ],
      "stateMutability": "view",
      "type": "function"
    },
    {
      "stateMutability": "payable",
      "type": "receive"
    }
  ],
  "bytecode": "0x60e06040526101f4601b553480156200001757600080fd5b50604051620074b8380380620074b88339810160408190526200003a91620001e5565b336040518060400160405280600a8152602001694465657046616d696c7960b01b8152506040518060400160405280600681526020016546616d696c7960d01b81525081600090816200008e9190620002d4565b5060016200009d8282620002d4565b5050506001600160a01b038116620000cf57604051631e4fbdf760e01b81526000600482015260240160405180910390fd5b620000da8162000176565b506001600b556001600160a01b0383166200010857604051634c32eccd60e11b815260040160405180910390fd5b6001600160a01b0382166200013057604051635fce01bb60e01b815260040160405180910390fd5b6001600160a01b038116620001585760405163abd45c1f60e01b815260040160405180910390fd5b6001600160a01b0392831660805290821660a0521660c052620003a0565b600a80546001600160a01b038381166001600160a01b0319831681179093556040519116919082907f8be0079c531659141344cd1fd0a4f28419497f9722a3daafe3b4186f6b6457e090600090a35050565b80516001600160a01b0381168114620001e057600080fd5b919050565b600080600060608486031215620001fb57600080fd5b6200020684620001c8565b92506200021660208501620001c8565b91506200022660408501620001c8565b90509250925092565b634e487b7160e01b600052604160045260246000fd5b600181811c908216806200025a57607f821691505b6020821081036200027b57634e487b7160e01b600052602260045260246000fd5b50919050565b601f821115620002cf57600081815260208120601f850160051c81016020861015620002aa5750805b601f850160051c820191505b81811015620002cb57828155600101620002b6565b5050505b505050565b81516001600160401b03811115620002f057620002f06200022f565b620003088162000301845462000245565b8462000281565b602080601f831160018114620003405760008415620003275750858301515b600019600386901b1c1916600185901b178555620002cb565b600085815260208120601f198616915b82811015620003715788860151825594840194600190910190840162000350565b5085821015620003905787850151600019600388901b60f8161c191681555b5050505050600190811b01905550565b60805160a05160c0516170c5620003f36000396000818161057a015261319d015260008181610b350152613767015260008181610c1a0152818161394c01528181613a94015261527201526170c56000f3fe6080604052600436106103bb5760003560e01c8063797e57e5116101f2578063bcecdf1d1161010d578063d596b1b0116100a0578063f2fde38b1161006f578063f2fde38b14610cf2578063f74faf6614610d12578063fe980dd614610d4a578063fe9c3c0514610d7c576103d9565b8063d596b1b014610c3c578063dbcdc08f14610c74578063e985e9c514610ca5578063f1fad06714610cc5576103d9565b8063c87b56dd116100dc578063c87b56dd14610bb2578063c893eb5614610bd2578063d082e38114610bf2578063d1486a1b14610c08576103d9565b8063bcecdf1d14610b23578063bd7eef2314610b57578063c090fba214610b6d578063c841eb1f14610b9c576103d9565b8063a294fd6411610185578063b570b2ab11610154578063b570b2ab14610aad578063b5c7198d14610acd578063b7fb7ee614610aed578063b88d4fde14610b03576103d9565b8063a294fd6414610a2d578063a92c6ad614610a4d578063b0ac331f14610a6d578063b4283e3314610a8d576103d9565b80638da5cb5b116101c15780638da5cb5b146109aa5780638f2360b3146109c857806395d89b41146109f8578063a22cb46514610a0d576103d9565b8063797e57e5146108cb5780637e927db5146108eb57806382260f351461090157806383af719114610933576103d9565b80633791b66a116102e25780636352211e1161027557806370a082311161024457806370a082311461081c578063715018a61461083c5780637189567c1461085157806376f0f85d146108b5576103d9565b80636352211e1461077957806366b3beda1461079957806367b9b3e1146107b9578063690a76bf146107ef576103d9565b80634f6ccce7116102b15780634f6ccce7146106e5578063538ffa0b1461070557806357611dfb14610732578063583d434f14610763576103d9565b80633791b66a1461063a57806342842e0e1461066a578063431a342a1461068a57806346cdf869146106c5576103d9565b8063164e38ee1161035a57806323b872dd1161032957806323b872dd1461059c578063278d5fce146105bc57806328273a2a146105ea5780632f745c591461061a576103d9565b8063164e38ee146104fe57806318160ddd1461053357806318e97fd1146105485780631d5d7be914610568576103d9565b806307b8fe9c1161039657806307b8fe9c146103f2578063081812fc1461046c578063095ea7b3146104a45780631516fa25146104c6576103d9565b8062eee6a1146103f257806301ffc9a71461041a57806306fdde031461044a576103d9565b366103d95760405163af9f22fb60e01b815260040160405180910390fd5b60405163af9f22fb60e01b815260040160405180910390fd5b3480156103fe57600080fd5b50610407606481565b6040519081526020015b60405180910390f35b34801561042657600080fd5b5061043a610435366004615a81565b610d9c565b6040519015158152602001610411565b34801561045657600080fd5b5061045f610dc7565b6040516104119190615aee565b34801561047857600080fd5b5061048c610487366004615b01565b610e59565b6040516001600160a01b039091168152602001610411565b3480156104b057600080fd5b506104c46104bf366004615b36565b610e82565b005b3480156104d257600080fd5b506104076104e1366004615b60565b601a60209081526000928352604080842090915290825290205481565b34801561050a57600080fd5b5061051e610519366004615b82565b610e91565b60408051928352602083019190915201610411565b34801561053f57600080fd5b50600854610407565b34801561055457600080fd5b506104c4610563366004615bf6565b610edb565b34801561057457600080fd5b5061048c7f000000000000000000000000000000000000000000000000000000000000000081565b3480156105a857600080fd5b506104c46105b7366004615c41565b611088565b3480156105c857600080fd5b506105dc6105d7366004615b01565b611118565b604051610411929190615d87565b3480156105f657600080fd5b5061060a610605366004615b82565b611421565b6040516104119493929190615df8565b34801561062657600080fd5b50610407610635366004615b36565b611682565b34801561064657600080fd5b5061065a610655366004615b82565b6116e7565b6040516104119493929190615e6b565b34801561067657600080fd5b506104c4610685366004615c41565b6118bd565b34801561069657600080fd5b5061043a6106a5366004615b60565b600e60209081526000928352604080842090915290825290205460ff1681565b3480156106d157600080fd5b506104c46106e0366004615ec2565b6118dd565b3480156106f157600080fd5b50610407610700366004615b01565b611aef565b34801561071157600080fd5b50610407610720366004615b01565b60126020526000908152604090205481565b34801561073e57600080fd5b5061075261074d366004615f1c565b611b48565b604051610411959493929190615f89565b34801561076f57600080fd5b5061040761271081565b34801561078557600080fd5b5061048c610794366004615b01565b611d4e565b3480156107a557600080fd5b506104c46107b4366004615ff5565b611d59565b3480156107c557600080fd5b506107d96107d4366004615b60565b61224a565b6040516104119a99989796959493929190616038565b3480156107fb57600080fd5b5061040761080a366004615b01565b60116020526000908152604090205481565b34801561082857600080fd5b506104076108373660046160b4565b6123e4565b34801561084857600080fd5b506104c461242c565b34801561085d57600080fd5b5061087161086c366004615b01565b612440565b6040516104119190600060a0820190508251825260208301516020830152604083015160408301526060830151151560608301526080830151608083015292915050565b3480156108c157600080fd5b5061040761010081565b3480156108d757600080fd5b506104c46108e6366004615b01565b6124f3565b3480156108f757600080fd5b50610407601b5481565b34801561090d57600080fd5b5061092161091c366004615b01565b6125e1565b6040516104119695949392919061617e565b34801561093f57600080fd5b5061098061094e366004615b01565b6017602052600090815260409020805460018201546002830154600384015460049094015492939192909160ff169085565b6040805195865260208601949094529284019190915215156060830152608082015260a001610411565b3480156109b657600080fd5b50600a546001600160a01b031661048c565b3480156109d457600080fd5b506109e86109e3366004615b82565b612b8c565b60405161041194939291906161f1565b348015610a0457600080fd5b5061045f612e69565b348015610a1957600080fd5b506104c4610a28366004616256565b612e78565b348015610a3957600080fd5b506104c4610a483660046162af565b612e83565b348015610a5957600080fd5b50610407610a68366004615b60565b61343e565b348015610a7957600080fd5b506104c4610a88366004615ec2565b61346f565b348015610a9957600080fd5b506104c4610aa8366004615b01565b6136a8565b348015610ab957600080fd5b506104c4610ac8366004616381565b613724565b348015610ad957600080fd5b506104c4610ae8366004615b60565b61389f565b348015610af957600080fd5b506104076107d081565b348015610b0f57600080fd5b506104c4610b1e36600461649c565b613dca565b348015610b2f57600080fd5b5061048c7f000000000000000000000000000000000000000000000000000000000000000081565b348015610b6357600080fd5b50610407600d5481565b348015610b7957600080fd5b50610b8d610b88366004615b60565b613de2565b6040516104119392919061655b565b348015610ba857600080fd5b506104076103e881565b348015610bbe57600080fd5b5061045f610bcd366004615b01565b61405c565b348015610bde57600080fd5b50610407610bed36600461659f565b614106565b348015610bfe57600080fd5b5061040760105481565b348015610c1457600080fd5b5061048c7f000000000000000000000000000000000000000000000000000000000000000081565b348015610c4857600080fd5b50610407610c57366004615b60565b601660209081526000928352604080842090915290825290205481565b348015610c8057600080fd5b50610c94610c8f366004615b60565b614290565b604051610411959493929190616640565b348015610cb157600080fd5b5061043a610cc0366004616681565b61435c565b348015610cd157600080fd5b50610ce5610ce0366004615b60565b61438a565b60405161041191906166b4565b348015610cfe57600080fd5b506104c4610d0d3660046160b4565b6144f0565b348015610d1e57600080fd5b50610407610d2d3660046166c7565b600f60209081526000928352604080842090915290825290205481565b348015610d5657600080fd5b50610d6a610d65366004615b82565b61452b565b604051610411969594939291906166ea565b348015610d8857600080fd5b5061045f610d97366004615b60565b61476c565b60006001600160e01b0319821663780e9d6360e01b1480610dc15750610dc182614825565b92915050565b606060008054610dd690616742565b80601f0160208091040260200160405190810160405280929190818152602001828054610e0290616742565b8015610e4f5780601f10610e2457610100808354040283529160200191610e4f565b820191906000526020600020905b815481529060010190602001808311610e3257829003601f168201915b5050505050905090565b6000610e6482614875565b506000828152600460205260409020546001600160a01b0316610dc1565b610e8d8282336148ad565b5050565b601c6020528260005260406000206020528160005260406000208181548110610eb957600080fd5b6000918252602090912060029091020180546001909101549093509150839050565b33610ee5846148ba565b6001600160a01b031614610f0c5760405163daffd8a560e01b815260040160405180910390fd5b610100811115610f2f576040516313f04adb60e01b815260040160405180910390fd5b60008381526014602052604081208054610f4890616742565b80601f0160208091040260200160405190810160405280929190818152602001828054610f7490616742565b8015610fc15780601f10610f9657610100808354040283529160200191610fc1565b820191906000526020600020905b815481529060010190602001808311610fa457829003601f168201915b50505050509050600081511115610ffc57600084815260156020908152604082208054600181018255908352912001610ffa82826167d7565b505b61103c8484848080601f0160208091040260200160405190810160405280939291908181526020018383808284376000920191909152506148d592505050565b336001600160a01b0316847f121742bae49dddcfbb9763fd1170f0dbc15b13707126182671611bbeeeae7cd883868660405161107a939291906168b9565b60405180910390a350505050565b6001600160a01b0382166110b757604051633250574960e11b8152600060048201526024015b60405180910390fd5b60006110c48383336148ed565b9050836001600160a01b0316816001600160a01b031614611112576040516364283d7b60e01b81526001600160a01b03808616600483015260248201849052821660448201526064016110ae565b50505050565b601360209081526000918252604091829020825160c08101845281548152600182015460ff80821615159483019490945261010080820461ffff168387015263010000008204851660608401526401000000008204851660808401526501000000000090910490931660a08201528351928301909352600281018054919291829082906111a490616742565b80601f01602080910402602001604051908101604052809291908181526020018280546111d090616742565b801561121d5780601f106111f25761010080835404028352916020019161121d565b820191906000526020600020905b81548152906001019060200180831161120057829003601f168201915b5050505050815260200160018201805461123690616742565b80601f016020809104026020016040519081016040528092919081815260200182805461126290616742565b80156112af5780601f10611284576101008083540402835291602001916112af565b820191906000526020600020905b81548152906001019060200180831161129257829003601f168201915b5050509183525050600282015460ff8082161515602084015261ffff6101008304166040840152630100000082048116606084015264010000000090910416608082015260038201805460a09092019161130890616742565b80601f016020809104026020016040519081016040528092919081815260200182805461133490616742565b80156113815780601f1061135657610100808354040283529160200191611381565b820191906000526020600020905b81548152906001019060200180831161136457829003601f168201915b5050505050815260200160048201805461139a90616742565b80601f01602080910402602001604051908101604052809291908181526020018280546113c690616742565b80156114135780601f106113e857610100808354040283529160200191611413565b820191906000526020600020905b8154815290600101906020018083116113f657829003601f168201915b505050505081525050905082565b6060600080808681611432826148ba565b6001600160a01b031603611459576040516307ed98ed60e31b815260040160405180910390fd5b60008881526017602052604081208054955090611477868a8a6149c4565b905080604001516000036114d15760408051600080825260208201909252906114b6565b6114a3615924565b81526020019060019003908161149b5790505b50868260800151836060015196509650965096505050611678565b80604001516001600160401b038111156114ed576114ed616456565b60405190808252806020026020018201604052801561152657816020015b611513615924565b81526020019060019003908161150b5790505b50965060005b81604001518110156116655760008b815260186020526040812083519091906115569084906168f5565b81526020019081526020016000206040518060a0016040529081600082015481526020016001820154815260200160028201805461159390616742565b80601f01602080910402602001604051908101604052809291908181526020018280546115bf90616742565b801561160c5780601f106115e15761010080835404028352916020019161160c565b820191906000526020600020905b8154815290600101906020018083116115ef57829003601f168201915b5050509183525050600382015460208201526004909101546001600160a01b0316604090910152885189908390811061164757611647616908565b6020026020010181905250808061165d9061691e565b91505061152c565b5060808101516060909101519094509250505b5093509350935093565b600061168d836123e4565b82106116be5760405163295f44f760e21b81526001600160a01b0384166004820152602481018390526044016110ae565b506001600160a01b03919091166000908152600660209081526040808320938352929052205490565b60008381526015602052604081208054606092909181908161170a8589896149c4565b9050806040015160000361175e576040805160008082526020820190925290611743565b606081526020019060019003908161172e5790505b508582608001518360600151955095509550955050506118b4565b80604001516001600160401b0381111561177a5761177a616456565b6040519080825280602002602001820160405280156117ad57816020015b60608152602001906001900390816117985790505b50955060005b81604001518110156118a157815183906117ce9083906168f5565b815481106117de576117de616908565b9060005260206000200180546117f390616742565b80601f016020809104026020016040519081016040528092919081815260200182805461181f90616742565b801561186c5780601f106118415761010080835404028352916020019161186c565b820191906000526020600020905b81548152906001019060200180831161184f57829003601f168201915b505050505087828151811061188357611883616908565b602002602001018190525080806118999061691e565b9150506117b3565b5060808101516060909101519093509150505b93509350935093565b6118d883838360405180602001604052806000815250613dca565b505050565b6118e5614ac4565b336118ef866148ba565b6001600160a01b0316146119165760405163daffd8a560e01b815260040160405180910390fd5b6000858152601760205260409020600381015460ff161561194a57604051631fcb6b9160e01b815260040160405180910390fd5b8054851061196b57604051637df0b86160e01b815260040160405180910390fd5b82158061197957506103e883115b1561199757604051630ef9fbf360e21b815260040160405180910390fd5b600086815260186020908152604080832088845282528083208151601f880184900484028101840190925286825292916119ec91908890889081908401838280828437600092019190915250614aee92505050565b905083158015906119fd5750838114155b15611a1b5760405163016c02f160e61b815260040160405180910390fd5b600182015460028301805460009190611a3390616742565b6001860185905591505060028401611a4c888a83616937565b504260038501819055600480860180546001600160a01b0319163317905560028701919091558501548790611a829083906169f0565b611a8c91906168f5565b6004860155611a9a8a614b1e565b604080518381526020810185905233918b918d917f065c2222316af985857085b11b199dc175990521803ca44d2ab1a4ef4c0ea6ef910160405180910390a45050505050611ae86001600b55565b5050505050565b6000611afa60085490565b8210611b235760405163295f44f760e21b815260006004820152602481018390526044016110ae565b60088281548110611b3657611b36616908565b90600052602060002001549050919050565b6060806000808088611b6d5760405163e5d242ed60e01b815260040160405180910390fd5b6000898152600c6020526040902054881115611b9c57604051630dd4272d60e41b815260040160405180910390fd5b6000898152601c602090815260408083208b845290915281208054945090611bc5858a8a6149c4565b90508060400151600003611c06576040805160008082526020820190815281830190925260808301516060909301519098509096509093509150611d439050565b80604001516001600160401b03811115611c2257611c22616456565b604051908082528060200260200182016040528015611c4b578160200160208202803683370190505b50965080604001516001600160401b03811115611c6a57611c6a616456565b604051908082528060200260200182016040528015611c93578160200160208202803683370190505b50955060005b8160400151811015611d3057600083828460000151611cb891906168f5565b81548110611cc857611cc8616908565b906000526020600020906002020190508060000154898381518110611cef57611cef616908565b6020026020010181815250508060010154888381518110611d1257611d12616908565b60209081029190910101525080611d288161691e565b915050611c99565b5060808101516060909101519093509150505b945094509450945094565b6000610dc182614875565b611d61614ac4565b858581611d815760405163e5d242ed60e01b815260040160405180910390fd5b801580611d9b57506000828152600c602052604090205481115b15611db957604051630dd4272d60e41b815260040160405180910390fd5b8515801590611dc757508386145b15611de55760405163591c836760e01b815260040160405180910390fd5b6000888152600c60205260408120611dfe60018a6169f0565b81548110611e0e57611e0e616908565b6000918252602090912060099091020160068101549091506001600160a01b03163314611e4e57604051636ace69ed60e11b815260040160405180910390fd5b60008982600101548360020154846004015485600501548660070187600801604051602001611e839796959493929190616a80565b60408051601f198184030181529190528051602090910120905060008815611fa857600183015415611ec85760405163299cda3d60e01b815260040160405180910390fd5b8a8903611ee85760405163591c836760e01b815260040160405180910390fd5b600283015415801590611efe5750826002015489145b15611f1c5760405163591c836760e01b815260040160405180910390fd5b6000898152600c6020526040902054881115611f4b57604051631f9510eb60e01b815260040160405180910390fd5b506001808301899055600483018890556000898152601c602090815260408083208b8452825280832081518083019092528e82528183018e8152815480870183559185529290932090516002909302019182555190820155611fc7565b8715611fc75760405163591c836760e01b815260040160405180910390fd5b86156120d257600283015415611ff057604051633517ad3f60e21b815260040160405180910390fd5b8a87036120105760405163591c836760e01b815260040160405180910390fd5b6001830154158015906120265750826001015487145b156120445760405163591c836760e01b815260040160405180910390fd5b6000878152600c60205260409020548611156120735760405163782ce69f60e01b815260040160405180910390fd5b506002808301879055600583018690556000878152601c60209081526040808320898452825280832081518083019092528e82528183018e815281546001818101845592865293909420915192909402019081559051908201556120f1565b85156120f15760405163591c836760e01b815260040160405180910390fd5b8061210f5760405163672dd10560e11b815260040160405180910390fd5b60008b846001015485600201548660040154876005015488600701896008016040516020016121449796959493929190616a80565b6040516020818303038152906040528051906020012090508083146121d35760008c8152600e6020908152604080832084845290915290205460ff161561219e576040516314396b6760e11b815260040160405180910390fd5b60008c8152600e60209081526040808320868452909152808220805460ff199081169091558383529120805490911660011790555b600184015460048501546002860154600587015460408051948552602085019390935291830152606082015233908c908e907fb177ed6564d95ed4e84ea8ecc0ad05956dbbd41ddf8d1e79f79254baa63ec46f9060800160405180910390a45050505050506122426001600b55565b505050505050565b600c602052816000526040600020818154811061226657600080fd5b600091825260209091206009909102018054600182015460028301546003840154600485015460058601546006870154600788018054979a5095985093969295919490936001600160a01b03811693600160a01b9091046001600160601b0316929091906122d390616742565b80601f01602080910402602001604051908101604052809291908181526020018280546122ff90616742565b801561234c5780601f106123215761010080835404028352916020019161234c565b820191906000526020600020905b81548152906001019060200180831161232f57829003601f168201915b50505050509080600801805461236190616742565b80601f016020809104026020016040519081016040528092919081815260200182805461238d90616742565b80156123da5780601f106123af576101008083540402835291602001916123da565b820191906000526020600020905b8154815290600101906020018083116123bd57829003601f168201915b505050505090508a565b60006001600160a01b038216612410576040516322718ad960e21b8152600060048201526024016110ae565b506001600160a01b031660009081526003602052604090205490565b612434614be6565b61243e6000614c13565b565b6040805160a081018252600080825260208201819052918101829052606081018290526080810191909152816000612477826148ba565b6001600160a01b03160361249e576040516307ed98ed60e31b815260040160405180910390fd5b5050600090815260176020908152604091829020825160a08101845281548152600182015492810192909252600281015492820192909252600382015460ff1615156060820152600490910154608082015290565b336124fd826148ba565b6001600160a01b0316146125245760405163daffd8a560e01b815260040160405180910390fd5b6000818152601760205260409020600381015460ff161561255857604051631fcb6b9160e01b815260040160405180910390fd5b805460000361257a57604051637dc66bf560e11b815260040160405180910390fd5b60038101805460ff19166001908117909155426002830155815490820154604051339285927f896066547269dcd0db6295ca6c7f14f927d692103e47c7615259469b74bc7b5d926125d5929190918252602082015260400190565b60405180910390a35050565b6000806125ec61595f565b6125f46159b5565b6000606081612602886148ba565b6001600160a01b031603612629576040516307ed98ed60e31b815260040160405180910390fd5b600087815260116020526040902054955085612658576040516307ed98ed60e31b815260040160405180910390fd5b60008781526012602052604081205495506126746001876169f0565b6000888152600c602052604090208054919250908290811061269857612698616908565b600091825260209182902060408051610140810182526009909302909101805483526001810154938301939093526002830154908201526003820154606082015260048201546080820152600582015460a082015260068201546001600160a01b03811660c08301526001600160601b03600160a01b9091041660e08201526007820180549192916101008401919061273090616742565b80601f016020809104026020016040519081016040528092919081815260200182805461275c90616742565b80156127a95780601f1061277e576101008083540402835291602001916127a9565b820191906000526020600020905b81548152906001019060200180831161278c57829003601f168201915b505050505081526020016008820180546127c290616742565b80601f01602080910402602001604051908101604052809291908181526020018280546127ee90616742565b801561283b5780601f106128105761010080835404028352916020019161283b565b820191906000526020600020905b81548152906001019060200180831161281e57829003601f168201915b50505091909252505050600089815260136020908152604091829020825161010080820185528254828601908152600184015460ff8082161515606086015261ffff84830416608086015263010000008204811660a08601526401000000008204811660c0860152650100000000009091041660e084015282528451908101909452600282018054959a50909491939285019291829082906128dc90616742565b80601f016020809104026020016040519081016040528092919081815260200182805461290890616742565b80156129555780601f1061292a57610100808354040283529160200191612955565b820191906000526020600020905b81548152906001019060200180831161293857829003601f168201915b5050505050815260200160018201805461296e90616742565b80601f016020809104026020016040519081016040528092919081815260200182805461299a90616742565b80156129e75780601f106129bc576101008083540402835291602001916129e7565b820191906000526020600020905b8154815290600101906020018083116129ca57829003601f168201915b5050509183525050600282015460ff8082161515602084015261ffff6101008304166040840152630100000082048116606084015264010000000090910416608082015260038201805460a090920191612a4090616742565b80601f0160208091040260200160405190810160405280929190818152602001828054612a6c90616742565b8015612ab95780601f10612a8e57610100808354040283529160200191612ab9565b820191906000526020600020905b815481529060010190602001808311612a9c57829003601f168201915b50505050508152602001600482018054612ad290616742565b80601f0160208091040260200160405190810160405280929190818152602001828054612afe90616742565b8015612b4b5780601f10612b2057610100808354040283529160200191612b4b565b820191906000526020600020905b815481529060010190602001808311612b2e57829003601f168201915b505050919092525050509052506000888152601a602090815260408083208584529091529020549094509250612b808861405c565b91505091939550919395565b6000838152600c6020526040812080546060929091819081612baf8589896149c4565b90508060400151600003612c07576040805160008082526020820190925290611743565b612bdb61595f565b815260200190600190039081612bd3575050608082015160609092015190965090935091506118b49050565b80604001516001600160401b03811115612c2357612c23616456565b604051908082528060200260200182016040528015612c5c57816020015b612c4961595f565b815260200190600190039081612c415790505b50955060005b81604001518110156118a15781518390612c7d9083906168f5565b81548110612c8d57612c8d616908565b600091825260209182902060408051610140810182526009909302909101805483526001810154938301939093526002830154908201526003820154606082015260048201546080820152600582015460a082015260068201546001600160a01b03811660c08301526001600160601b03600160a01b9091041660e082015260078201805491929161010084019190612d2590616742565b80601f0160208091040260200160405190810160405280929190818152602001828054612d5190616742565b8015612d9e5780601f10612d7357610100808354040283529160200191612d9e565b820191906000526020600020905b815481529060010190602001808311612d8157829003601f168201915b50505050508152602001600882018054612db790616742565b80601f0160208091040260200160405190810160405280929190818152602001828054612de390616742565b8015612e305780601f10612e0557610100808354040283529160200191612e30565b820191906000526020600020905b815481529060010190602001808311612e1357829003601f168201915b505050505081525050878281518110612e4b57612e4b616908565b60200260200101819052508080612e619061691e565b915050612c62565b606060018054610dd690616742565b610e8d338383614c65565b612e8b614ac4565b848481612eab5760405163e5d242ed60e01b815260040160405180910390fd5b801580612ec557506000828152600c602052604090205481115b15612ee357604051630dd4272d60e41b815260040160405180910390fd5b60808801353314612f075760405163bd8cc73160e01b815260040160405180910390fd5b600087815260166020908152604080832089845290915290205415612f3f57604051634028e5e560e11b815260040160405180910390fd5b6000878152600f602090815260408083203384529091529020548614612f785760405163786bb09f60e11b815260040160405180910390fd5b610100841115612f9b576040516313f04adb60e01b815260040160405180910390fd5b612fa860c0840184616ad1565b612fb29080616af1565b9050600003612fd457604051635f895cef60e11b815260040160405180910390fd5b610100612fe460c0850185616ad1565b612fee9080616af1565b9050111561300f57604051635f895cef60e11b815260040160405180910390fd5b61010061301f60c0850185616ad1565b61302d9060e0810190616af1565b9050111561304e5760405163f283c51960e01b815260040160405180910390fd5b61010061305e60c0850185616ad1565b61306c906020810190616af1565b9050111561308d576040516367181a3960e11b815260040160405180910390fd5b61010061309d60c0850185616ad1565b6130ab9060c0810190616af1565b905011156130cc57604051633769847160e01b815260040160405180910390fd5b600c6130db60c0850185616ad1565b6130ec9060a0810190608001616b37565b60ff16111561310e57604051630282898760e21b815260040160405180910390fd5b601f61311d60c0850185616ad1565b61312e9060c081019060a001616b37565b60ff16111561315057604051638d177e8360e01b815260040160405180910390fd5b6000613164610bed3686900386018661659f565b905087811461318657604051632f38f48f60e21b815260040160405180910390fd5b6040516334baeab960e01b81526001600160a01b037f000000000000000000000000000000000000000000000000000000000000000016906334baeab9906131d8908f908f908f908f90600401616b78565b602060405180830381865afa1580156131f5573d6000803e3d6000fd5b505050506040513d601f19601f820116820180604052508101906132199190616ba9565b613236576040516303b2487b60e11b815260040160405180910390fd5b600061324b8a358b60015b6020020135614d04565b90508435811461326e57604051632f38f48f60e21b815260040160405180910390fd5b600061328060408c01358c6003613241565b905060006132d861329460c0890189616ad1565b61329e9080616af1565b8080601f016020809104026020016040519081016040528093929190818152602001838380828437600092019190915250614aee92505050565b90508181146132fa57604051632f38f48f60e21b815260040160405180910390fd5b600060106000815461330b9061691e565b91905081905590508b60116000838152602001908152602001600020819055508a601260008381526020019081526020016000208190555080601660008e815260200190815260200160002060008d8152602001908152602001600020819055508760136000838152602001908152602001600020818161338c9190616da6565b9050506133cf818b8b8080601f0160208091040260200160405190810160405280939291908181526020018383808284376000920191909152506148d592505050565b6133d93382614d44565b336001600160a01b0316818d7fbce71c21e84db5e7dca78ea57ad63b6c66f74f74efc25e33592370ecf39e093b8e8e8e4260405161341a9493929190616e8f565b60405180910390a4505050505050506134336001600b55565b505050505050505050565b6019602052816000526040600020818154811061345a57600080fd5b90600052602060002001600091509150505481565b613477614ac4565b33613481866148ba565b6001600160a01b0316146134a85760405163daffd8a560e01b815260040160405180910390fd5b8115806134b657506103e882115b156134d457604051630ef9fbf360e21b815260040160405180910390fd5b6000858152601760205260409020600381015460ff161561350857604051631fcb6b9160e01b815260040160405180910390fd5b805460641161352a57604051637df0b86160e01b815260040160405180910390fd5b8054851461354b57604051637df0b86160e01b815260040160405180910390fd5b600061358c85858080601f016020809104026020016040519081016040528093929190818152602001838380828437600092019190915250614aee92505050565b9050821580159061359d5750828114155b156135bb5760405163016c02f160e61b815260040160405180910390fd5b6000878152601860209081526040808320898452909152902086815560018101829055600281016135ed868883616937565b504260038201556004810180546001600160a01b0319163317905582546136159060016168f5565b8355426002840155600483015461362d9086906168f5565b600484015560008881526019602090815260408220805460018101825590835291200187905561365c88614b1e565b6040805183815260208101879052339189918b917f9a8c5a1082b04a31158c2062cc003f0764f93a8614a3643f01df8346f0c39f8d910160405180910390a4505050611ae86001600b55565b6136b0614be6565b6107d08111156136d35760405163499fddb160e01b815260040160405180910390fd5b601b548181036136e1575050565b601b82905560408051828152602081018490527ffa7ce4b1b3c9db75cae1c9e74a97c900b9377a24cc2ac49f55c7466a1404c5e0910160405180910390a1505b50565b61372c614ac4565b60c087013533146137505760405163bd8cc73160e01b815260040160405180910390fd5b60405163c894e75760e01b81526001600160a01b037f0000000000000000000000000000000000000000000000000000000000000000169063c894e757906137a2908d908d908d908d90600401616eba565b602060405180830381865afa1580156137bf573d6000803e3d6000fd5b505050506040513d601f19601f820116820180604052508101906137e39190616ba9565b613800576040516303b2487b60e11b815260040160405180910390fd5b600061381761381289358a6001613241565b614d5e565b9050600061382e61381260408b01358b6003613241565b9050600061384561381260808c01358c6005613241565b604051909150339084907f3015fe19dc9f8f0d942de39092410a57589dd94d2c9134719335fe04e3695eca90600090a36138868383838c8c8c8c8c8c614d7e565b5050506138936001600b55565b50505050505050505050565b6138a7614ac4565b8181816138c75760405163e5d242ed60e01b815260040160405180910390fd5b8015806138e157506000828152600c602052604090205481115b156138ff57604051630dd4272d60e41b815260040160405180910390fd5b6000848152600f60209081526040808320338452909152902054838103613939576040516354d92fcb60e01b815260040160405180910390fd5b60006139466001866169f0565b905060007f00000000000000000000000000000000000000000000000000000000000000006001600160a01b0316636bf90c716040518163ffffffff1660e01b8152600401602060405180830381865afa1580156139a8573d6000803e3d6000fd5b505050506040513d601f19601f820116820180604052508101906139cc9190616eeb565b9050600080808515613a315760006139e56001886169f0565b60008c8152601a602090815260408083208484529091529020549091508015613a2e57613a136001826169f0565b60008d8152601a602090815260408083208684529091529020555b50505b60008a8152601a602090815260408083208884529091528120805460019290613a5b9084906168f5565b909155505060008a8152600f6020908152604080832033845290915290208990558315613d455760008a8152600c6020526040812080547f000000000000000000000000000000000000000000000000000000000000000092919088908110613ac657613ac6616908565b906000526020600020906009020190506000601660008e815260200190815260200160002060008d815260200190815260200160002054905080600014613b42576000613b12826148ba565b90506001600160a01b03811615613b2b57809650613b3c565b60068301546001600160a01b031696505b50613b53565b60068201546001600160a01b031695505b6000612710601b5489613b669190616f04565b613b709190616f1b565b9050613b7c81896169f0565b94508415613c23576040516323b872dd60e01b81523360048201526001600160a01b03888116602483015260448201879052600091908616906323b872dd906064016020604051808303816000875af1158015613bdd573d6000803e3d6000fd5b505050506040513d601f19601f82011682018060405250810190613c019190616ba9565b905080613c2157604051635da1e97760e11b815260040160405180910390fd5b505b8015613d4057600a546001600160a01b0316955085613ca15760405163079cc67960e41b8152336004820152602481018290526001600160a01b038516906379cc679090604401600060405180830381600087803b158015613c8457600080fd5b505af1158015613c98573d6000803e3d6000fd5b50505050613d40565b6040516323b872dd60e01b81523360048201526001600160a01b03878116602483015260448201839052600091908616906323b872dd906064016020604051808303816000875af1158015613cfa573d6000803e3d6000fd5b505050506040513d601f19601f82011682018060405250810190613d1e9190616ba9565b905080613d3e57604051635da1e97760e11b815260040160405180910390fd5b505b505050505b338a7fd797cb7be92b1c65367745105ff0f8f7f0752feac9ef8841c23b1edfa31e2c128b868587613d76828c6169f0565b604080519586526001600160a01b0394851660208701528501929092529091166060830152608082015260a081018890524260c082015260e00160405180910390a35050505050505050610e8d6001600b55565b613dd5848484611088565b6111123385858585615344565b613dea61595f565b600080848481613e0d5760405163e5d242ed60e01b815260040160405180910390fd5b801580613e2757506000828152600c602052604090205481115b15613e4557604051630dd4272d60e41b815260040160405180910390fd5b6000613e526001886169f0565b6000898152600c6020526040902080549192509082908110613e7657613e76616908565b600091825260209182902060408051610140810182526009909302909101805483526001810154938301939093526002830154908201526003820154606082015260048201546080820152600582015460a082015260068201546001600160a01b03811660c08301526001600160601b03600160a01b9091041660e082015260078201805491929161010084019190613f0e90616742565b80601f0160208091040260200160405190810160405280929190818152602001828054613f3a90616742565b8015613f875780601f10613f5c57610100808354040283529160200191613f87565b820191906000526020600020905b815481529060010190602001808311613f6a57829003601f168201915b50505050508152602001600882018054613fa090616742565b80601f0160208091040260200160405190810160405280929190818152602001828054613fcc90616742565b80156140195780601f10613fee57610100808354040283529160200191614019565b820191906000526020600020905b815481529060010190602001808311613ffc57829003601f168201915b505050919092525050506000898152601a60209081526040808320948352938152838220549a825260168152838220998252989098529620549597945050505050565b606061406782614875565b506000828152601460205260409020805461408190616742565b80601f01602080910402602001604051908101604052809291908181526020018280546140ad90616742565b80156140fa5780601f106140cf576101008083540402835291602001916140fa565b820191906000526020600020905b8154815290600101906020018083116140dd57829003601f168201915b50505050509050919050565b805160009061412857604051635f895cef60e11b815260040160405180910390fd5b600c826060015160ff161115614151576040516348c5148960e11b815260040160405180910390fd5b601f826080015160ff16111561417a576040516309eabf7d60e21b815260040160405180910390fd5b81516020830151608082901c916fffffffffffffffffffffffffffffffff16906000906141a85760006141ab565b60015b60ff1660018660a0015160ff16901b6008876080015160ff16901b6010886060015160ff16901b6018896040015161ffff16901b1717171790506141ed615a4d565b838152602081018390526040808201839052516320cf0a3760e01b815260009073__$fc5a2451f3e054f75c2faf9b3818033d8b$__906320cf0a3790614237908590600401616f3d565b602060405180830381865af4158015614254573d6000803e3d6000fd5b505050506040513d601f19601f820116820180604052508101906142789190616eeb565b90508061428481614d5e565b98975050505050505050565b6018602090815260009283526040808420909152908252902080546001820154600283018054929391926142c390616742565b80601f01602080910402602001604051908101604052809291908181526020018280546142ef90616742565b801561433c5780601f106143115761010080835404028352916020019161433c565b820191906000526020600020905b81548152906001019060200180831161431f57829003601f168201915b5050505060038301546004909301549192916001600160a01b0316905085565b6001600160a01b03918216600090815260056020908152604080832093909416825291909152205460ff1690565b614392615924565b82600061439e826148ba565b6001600160a01b0316036143c5576040516307ed98ed60e31b815260040160405180910390fd5b6000848152601760205260409020805484106143f457604051637df0b86160e01b815260040160405180910390fd5b6018600086815260200190815260200160002060008581526020019081526020016000206040518060a0016040529081600082015481526020016001820154815260200160028201805461444790616742565b80601f016020809104026020016040519081016040528092919081815260200182805461447390616742565b80156144c05780601f10614495576101008083540402835291602001916144c0565b820191906000526020600020905b8154815290600101906020018083116144a357829003601f168201915b5050509183525050600382015460208201526004909101546001600160a01b031660409091015295945050505050565b6144f8614be6565b6001600160a01b03811661452257604051631e4fbdf760e01b8152600060048201526024016110ae565b61372181614c13565b6000838152600c602052604081205460609182918291808061454e848a8a6149c4565b9050806040015160000361459757604080516000808252602082018181528284019182526060808401909452608085015194909301519199509197509095509092509050614760565b80604001516001600160401b038111156145b3576145b3616456565b6040519080825280602002602001820160405280156145dc578160200160208202803683370190505b50965080604001516001600160401b038111156145fb576145fb616456565b604051908082528060200260200182016040528015614624578160200160208202803683370190505b50955080604001516001600160401b0381111561464357614643616456565b60405190808252806020026020018201604052801561466c578160200160208202803683370190505b50945060005b816040015181101561474e57815160009061468e9083906168f5565b905061469b8160016168f5565b8983815181106146ad576146ad616908565b60209081029190910181019190915260008d8152601a82526040808220848352909252205488518990849081106146e6576146e6616908565b60209081029190910181019190915260008d81526016909152604081209061470f8360016168f5565b81526020019081526020016000205487838151811061473057614730616908565b602090810291909101015250806147468161691e565b915050614672565b50608081015160609091015190925090505b93975093979195509350565b6015602052816000526040600020818154811061478857600080fd5b906000526020600020016000915091505080546147a490616742565b80601f01602080910402602001604051908101604052809291908181526020018280546147d090616742565b801561481d5780601f106147f25761010080835404028352916020019161481d565b820191906000526020600020905b81548152906001019060200180831161480057829003601f168201915b505050505081565b60006001600160e01b031982166380ac58cd60e01b148061485657506001600160e01b03198216635b5e139f60e01b145b80610dc157506301ffc9a760e01b6001600160e01b0319831614610dc1565b600080614881836148ba565b90506001600160a01b038116610dc157604051637e27328960e01b8152600481018490526024016110ae565b6118d88383836001615466565b6000908152600260205260409020546001600160a01b031690565b60008281526014602052604090206118d882826167d7565b6000806148fb85858561556c565b90506001600160a01b0381166149585761495384600880546000838152600960205260408120829055600182018355919091527ff3f7a9fe364faab93b216da50a3214154f22a0a2b415b23a84c8169e8b636ee30155565b61497b565b846001600160a01b0316816001600160a01b03161461497b5761497b8185615660565b6001600160a01b03851661499757614992846156e1565b6149ba565b846001600160a01b0316816001600160a01b0316146149ba576149ba8585615790565b90505b9392505050565b6149f86040518060a00160405280600081526020016000815260200160008152602001600081526020016000151581525090565b6064821115614a1a57604051630327a73960e61b815260040160405180910390fd5b811580614a275750838310155b15614a6b576040518060a001604052808481526020018481526020016000815260200185851015614a585784614a5a565b855b8152600060209091015290506149bd565b6000614a7783856168f5565b905084811115614a845750835b6040518060a001604052808581526020018281526020018583614aa791906169f0565b815260200182815260200186831015158152509150509392505050565b6002600b5403614ae757604051633ee5aeb560e01b815260040160405180910390fd5b6002600b55565b600081604051602001614b019190616f6e565b604051602081830303815290604052805190602001209050919050565b6000818152601760209081526040808320601990925282208054919290919003614b4e5750600060019091015550565b606060005b8254811015614bd0576000838281548110614b7057614b70616908565b6000918252602080832090910154888352601882526040808420828552835292839020600101549251909350614baa918691849101616f80565b604051602081830303815290604052935050508080614bc89061691e565b915050614b53565b5080516020909101206001909201919091555050565b600a546001600160a01b0316331461243e5760405163118cdaa760e01b81523360048201526024016110ae565b600a80546001600160a01b038381166001600160a01b0319831681179093556040519116919082907f8be0079c531659141344cd1fd0a4f28419497f9722a3daafe3b4186f6b6457e090600090a35050565b6001600160a01b038216614c9757604051630b61174360e31b81526001600160a01b03831660048201526024016110ae565b6001600160a01b03838116600081815260056020908152604080832094871680845294825291829020805460ff191686151590811790915591519182527f17307eab39ab6107e8899845ad3d59bd9653f200f220920489ca2b5937696c31910160405180910390a3505050565b6000608083901c151580614d1b5750608082901c15155b15614d39576040516303b2487b60e11b815260040160405180910390fd5b5060809190911b1790565b610e8d8282604051806020016040528060008152506157e0565b600081614d6d57506000919050565b604080516020810184905201614b01565b88614d9c5760405163e5d242ed60e01b815260040160405180910390fd5b88881480614da957508887145b15614dc75760405163591c836760e01b815260040160405180910390fd5b8715801590614dd557508688145b15614df35760405163591c836760e01b815260040160405180910390fd5b87158015614e0057508515155b15614e1e57604051631f9510eb60e01b815260040160405180910390fd5b86158015614e2b57508415155b15614e495760405163782ce69f60e01b815260040160405180910390fd5b6000888152600c6020526040902054861115614e7857604051631f9510eb60e01b815260040160405180910390fd5b6000878152600c6020526040902054851115614ea75760405163782ce69f60e01b815260040160405180910390fd5b610100831115614eca57604051635fab396360e11b815260040160405180910390fd5b610100811115614eed57604051630601a0fb60e51b815260040160405180910390fd5b6000898989898989898989604051602001614f1099989796959493929190616fa2565b60408051601f19818403018152918152815160209283012060008d8152600e845282812082825290935291205490915060ff1615614f61576040516314396b6760e11b815260040160405180910390fd5b60008a8152600e602090815260408083208484528252808320805460ff191660011790558c8352600c82528083208151610140810183528e81528084018e90528083018d90526060810194909452608084018b905260a084018a90523360c08501526001600160601b03421660e08501528151601f89018490048402810184019092528782529291610100830191908990899081908401838280828437600092019190915250505090825250604080516020601f8801819004810282018101909252868152918101919087908790819084018382808284376000920182905250939094525050835460018181018655948252602091829020845160099092020190815590830151938101939093555060408101516002830155606081015160038301556080810151600483015560a0810151600583015560c081015160e08201516001600160601b0316600160a01b026001600160a01b0390911617600683015561010081015190919060078201906150da90826167d7565b5061012082015160088201906150f090826167d7565b50505060008a8152600c6020526040902080549081906151116001836169f0565b8154811061512157615121616908565b600091825260209091206003600990920201015589156151885760008a8152601c602090815260408083208b8452825280832081518083019092528e8252818301858152815460018181018455928652939094209151600290930290910191825591519101555b88156151db576000898152601c602090815260408083208a8452825280832081518083019092528e8252818301858152815460018181018455928652939094209151600290930290910191825591519101555b806001036151f957600d80549060006151f38361691e565b91905055505b336001600160a01b0316818c7ff24ca8fe8e48960e559267341f81e7b0f07746d1e98c729930fe251bd2875484428e8d8f8e8e8e6040516152409796959493929190616ff7565b60405180910390a48915158061525557508815155b15615337576040516335313c2160e11b81523360048201526000907f00000000000000000000000000000000000000000000000000000000000000006001600160a01b031690636a627842906024016020604051808303816000875af11580156152c3573d6000803e3d6000fd5b505050506040513d601f19601f820116820180604052508101906152e79190616eeb565b9050801561533557818c336001600160a01b03167fdefc43c3e9b037326c59d7c3f29c0b6b5c94a6fbfcced006b763e74a3115da6d8460405161532c91815260200190565b60405180910390a45b505b5050505050505050505050565b6001600160a01b0383163b15611ae857604051630a85bd0160e11b81526001600160a01b0384169063150b7a0290615386908890889087908790600401617029565b6020604051808303816000875af19250505080156153c1575060408051601f3d908101601f191682019092526153be9181019061705c565b60015b61542a573d8080156153ef576040519150601f19603f3d011682016040523d82523d6000602084013e6153f4565b606091505b50805160000361542257604051633250574960e11b81526001600160a01b03851660048201526024016110ae565b805160208201fd5b6001600160e01b03198116630a85bd0160e11b1461224257604051633250574960e11b81526001600160a01b03851660048201526024016110ae565b808061547a57506001600160a01b03821615155b1561553c57600061548a84614875565b90506001600160a01b038316158015906154b65750826001600160a01b0316816001600160a01b031614155b80156154c957506154c7818461435c565b155b156154f25760405163a9fbf51f60e01b81526001600160a01b03841660048201526024016110ae565b811561553a5783856001600160a01b0316826001600160a01b03167f8c5be1e5ebec7d5bd14f71427d1e84f3dd0314c0f7b2291e5b200ac8c7c3b92560405160405180910390a45b505b5050600090815260046020526040902080546001600160a01b0319166001600160a01b0392909216919091179055565b600080615578846148ba565b90506001600160a01b03831615615594576155948184866157f8565b6001600160a01b038116156155d2576155b1600085600080615466565b6001600160a01b038116600090815260036020526040902080546000190190555b6001600160a01b03851615615601576001600160a01b0385166000908152600360205260409020805460010190555b60008481526002602052604080822080546001600160a01b0319166001600160a01b0389811691821790925591518793918516917fddf252ad1be2c89b69c2b068fc378daa952ba7f163c4a11628f55a4df523b3ef91a4949350505050565b600061566b836123e4565b6000838152600760209081526040808320546001600160a01b03881684526006909252909120919250908183146156c257600083815260208281526040808320548584528184208190558352600790915290208290555b6000938452600760209081526040808620869055938552525081205550565b6008546000906156f3906001906169f0565b6000838152600960205260408120546008805493945090928490811061571b5761571b616908565b90600052602060002001549050806008838154811061573c5761573c616908565b600091825260208083209091019290925582815260099091526040808220849055858252812055600880548061577457615774617079565b6001900381819060005260206000200160009055905550505050565b6000600161579d846123e4565b6157a791906169f0565b6001600160a01b039093166000908152600660209081526040808320868452825280832085905593825260079052919091209190915550565b6157ea838361585c565b6118d8336000858585615344565b6158038383836158c1565b6118d8576001600160a01b03831661583157604051637e27328960e01b8152600481018290526024016110ae565b60405163177e802f60e01b81526001600160a01b0383166004820152602481018290526044016110ae565b6001600160a01b03821661588657604051633250574960e11b8152600060048201526024016110ae565b6000615894838360006148ed565b90506001600160a01b038116156118d8576040516339e3563760e11b8152600060048201526024016110ae565b60006001600160a01b038316158015906149ba5750826001600160a01b0316846001600160a01b031614806158fb57506158fb848461435c565b806149ba5750506000908152600460205260409020546001600160a01b03908116911614919050565b6040518060a001604052806000815260200160008019168152602001606081526020016000815260200160006001600160a01b031681525090565b604080516101408101825260008082526020820181905291810182905260608082018390526080820183905260a0820183905260c0820183905260e0820192909252610100810182905261012081019190915290565b60408051610100810182526000918101828152606082018390526080820183905260a0820183905260c0820183905260e08201929092529081908152602001615a486040518061010001604052806060815260200160608152602001600015158152602001600061ffff168152602001600060ff168152602001600060ff16815260200160608152602001606081525090565b905290565b60405180606001604052806003906020820280368337509192915050565b6001600160e01b03198116811461372157600080fd5b600060208284031215615a9357600080fd5b81356149bd81615a6b565b60005b83811015615ab9578181015183820152602001615aa1565b50506000910152565b60008151808452615ada816020860160208601615a9e565b601f01601f19169290920160200192915050565b6020815260006149bd6020830184615ac2565b600060208284031215615b1357600080fd5b5035919050565b80356001600160a01b0381168114615b3157600080fd5b919050565b60008060408385031215615b4957600080fd5b615b5283615b1a565b946020939093013593505050565b60008060408385031215615b7357600080fd5b50508035926020909101359150565b600080600060608486031215615b9757600080fd5b505081359360208301359350604090920135919050565b60008083601f840112615bc057600080fd5b5081356001600160401b03811115615bd757600080fd5b602083019150836020828501011115615bef57600080fd5b9250929050565b600080600060408486031215615c0b57600080fd5b8335925060208401356001600160401b03811115615c2857600080fd5b615c3486828701615bae565b9497909650939450505050565b600080600060608486031215615c5657600080fd5b615c5f84615b1a565b9250615c6d60208501615b1a565b9150604084013590509250925092565b8051825260208101511515602083015261ffff604082015116604083015260ff606082015116606083015260ff608082015116608083015260ff60a08201511660a08301525050565b60006101008251818552615cdc82860182615ac2565b91505060208301518482036020860152615cf68282615ac2565b9150506040830151615d0c604086018215159052565b506060830151615d22606086018261ffff169052565b506080830151615d37608086018260ff169052565b5060a0830151615d4c60a086018260ff169052565b5060c083015184820360c0860152615d648282615ac2565b91505060e083015184820360e0860152615d7e8282615ac2565b95945050505050565b615d918184615c7d565b60e060c082015260006149ba60e0830184615cc6565b80518252602081015160208301526000604082015160a06040850152615dd060a0850182615ac2565b606084810151908601526080938401516001600160a01b031693909401929092525090919050565b6000608082016080835280875180835260a08501915060a08160051b86010192506020808a0160005b83811015615e4f57609f19888703018552615e3d868351615da7565b95509382019390820190600101615e21565b5050850197909752509315156040830152506060015292915050565b6000608082016080835280875180835260a08501915060a08160051b86010192506020808a0160005b83811015615e4f57609f19888703018552615eb0868351615ac2565b95509382019390820190600101615e94565b600080600080600060808688031215615eda57600080fd5b853594506020860135935060408601356001600160401b03811115615efe57600080fd5b615f0a88828901615bae565b96999598509660600135949350505050565b60008060008060808587031215615f3257600080fd5b5050823594602084013594506040840135936060013592509050565b600081518084526020808501945080840160005b83811015615f7e57815187529582019590820190600101615f62565b509495945050505050565b60a0808252865190820181905260009060209060c0840190828a01845b82811015615fc257815184529284019290840190600101615fa6565b50505083810382850152615fd68189615f4e565b6040850197909752505050911515606083015260809091015292915050565b60008060008060008060c0878903121561600e57600080fd5b505084359660208601359650604086013595606081013595506080810135945060a0013592509050565b60006101408c83528b60208401528a60408401528960608401528860808401528760a084015260018060a01b03871660c08401526001600160601b03861660e08401528061010084015261608e81840186615ac2565b90508281036101208401526160a38185615ac2565b9d9c50505050505050505050505050565b6000602082840312156160c657600080fd5b6149bd82615b1a565b6000610140825184526020830151602085015260408301516040850152606083015160608501526080830151608085015260a083015160a085015260c083015161612460c08601826001600160a01b03169052565b5060e083015161613f60e08601826001600160601b03169052565b5061010080840151828287015261615883870182615ac2565b9250505061012080840151858303828701526161748382615ac2565b9695505050505050565b86815285602082015260c06040820152600061619d60c08301876160cf565b82810360608401526161b0818751615c7d565b602086015160e060c08301526161c960e0830182615cc6565b91505084608084015282810360a08401526161e48185615ac2565b9998505050505050505050565b6000608082016080835280875180835260a08501915060a08160051b86010192506020808a0160005b83811015615e4f57609f198887030185526162368683516160cf565b9550938201939082019060010161621a565b801515811461372157600080fd5b6000806040838503121561626957600080fd5b61627283615b1a565b9150602083013561628281616248565b809150509250929050565b8060408101831015610dc157600080fd5b8060808101831015610dc157600080fd5b60008060008060008060008060006102208a8c0312156162ce57600080fd5b6162d88b8b61628d565b98506162e78b60408c0161629e565b97506162f68b60c08c0161628d565b96506101a08a018b81111561630a57600080fd5b6101008b0196503594506101c08a013593506101e08a01356001600160401b038082111561633757600080fd5b6163438d838e01615bae565b90955093506102008c013591508082111561635d57600080fd5b508a0160e0818d03121561637057600080fd5b809150509295985092959850929598565b6000806000806000806000806000806102608b8d0312156163a157600080fd5b6163ab8c8c61628d565b99506163ba8c60408d0161629e565b98506163c98c60c08d0161628d565b97506101e08b018c8111156163dd57600080fd5b6101008c0197503595506102008b013594506102208b01356001600160401b038082111561640a57600080fd5b6164168e838f01615bae565b90965094506102408d013591508082111561643057600080fd5b5061643d8d828e01615bae565b915080935050809150509295989b9194979a5092959850565b634e487b7160e01b600052604160045260246000fd5b604051601f8201601f191681016001600160401b038111828210171561649457616494616456565b604052919050565b600080600080608085870312156164b257600080fd5b6164bb85615b1a565b935060206164ca818701615b1a565b93506040860135925060608601356001600160401b03808211156164ed57600080fd5b818801915088601f83011261650157600080fd5b81358181111561651357616513616456565b616525601f8201601f1916850161646c565b9150808252898482850101111561653b57600080fd5b808484018584013760008482840101525080935050505092959194509250565b60608152600061656e60608301866160cf565b60208301949094525060400152919050565b61ffff8116811461372157600080fd5b60ff8116811461372157600080fd5b600060c082840312156165b157600080fd5b60405160c081018181106001600160401b03821117156165d3576165d3616456565b6040528235815260208301356165e881616248565b602082015260408301356165fb81616580565b6040820152606083013561660e81616590565b6060820152608083013561662181616590565b608082015260a083013561663481616590565b60a08201529392505050565b85815284602082015260a06040820152600061665f60a0830186615ac2565b6060830194909452506001600160a01b03919091166080909101529392505050565b6000806040838503121561669457600080fd5b61669d83615b1a565b91506166ab60208401615b1a565b90509250929050565b6020815260006149bd6020830184615da7565b600080604083850312156166da57600080fd5b823591506166ab60208401615b1a565b60c0815260006166fd60c0830189615f4e565b828103602084015261670f8189615f4e565b905082810360408401526167238188615f4e565b60608401969096525050911515608083015260a0909101529392505050565b600181811c9082168061675657607f821691505b60208210810361677657634e487b7160e01b600052602260045260246000fd5b50919050565b601f8211156118d857600081815260208120601f850160051c810160208610156167a35750805b601f850160051c820191505b81811015612242578281556001016167af565b600019600383901b1c191660019190911b1790565b81516001600160401b038111156167f0576167f0616456565b616804816167fe8454616742565b8461677c565b602080601f83116001811461683357600084156168215750858301515b61682b85826167c2565b865550612242565b600085815260208120601f198616915b8281101561686257888601518255948401946001909101908401616843565b50858210156168805787850151600019600388901b60f8161c191681555b5050505050600190811b01905550565b81835281816020850137506000828201602090810191909152601f909101601f19169091010190565b6040815260006168cc6040830186615ac2565b8281036020840152616174818587616890565b634e487b7160e01b600052601160045260246000fd5b80820180821115610dc157610dc16168df565b634e487b7160e01b600052603260045260246000fd5b600060018201616930576169306168df565b5060010190565b6001600160401b0383111561694e5761694e616456565b6169628361695c8354616742565b8361677c565b6000601f841160018114616990576000851561697e5750838201355b61698886826167c2565b845550611ae8565b600083815260209020601f19861690835b828110156169c157868501358255602094850194600190920191016169a1565b50868210156169de5760001960f88860031b161c19848701351681555b505060018560011b0183555050505050565b81810381811115610dc157610dc16168df565b60008154616a1081616742565b808552602060018381168015616a2d5760018114616a4757616a75565b60ff1985168884015283151560051b880183019550616a75565b866000528260002060005b85811015616a6d5781548a8201860152908301908401616a52565b890184019650505b505050505092915050565b87815286602082015285604082015284606082015283608082015260e060a08201526000616ab160e0830185616a03565b82810360c0840152616ac38185616a03565b9a9950505050505050505050565b6000823560fe19833603018112616ae757600080fd5b9190910192915050565b6000808335601e19843603018112616b0857600080fd5b8301803591506001600160401b03821115616b2257600080fd5b602001915036819003821315615bef57600080fd5b600060208284031215616b4957600080fd5b81356149bd81616590565b8060005b600281101561111257604080838637938401939190910190600101616b58565b6101a081016040868337616b8f6040830186616b54565b60408460c084013760a08361010084013795945050505050565b600060208284031215616bbb57600080fd5b81516149bd81616248565b60008135610dc181616248565b60008135610dc181616580565b60008135610dc181616590565b616bf78283616af1565b6001600160401b03811115616c0e57616c0e616456565b616c2281616c1c8554616742565b8561677c565b6000601f821160018114616c505760008315616c3e5750838201355b616c4884826167c2565b865550616caa565b600085815260209020601f19841690835b82811015616c815786850135825560209485019460019092019101616c61565b5084821015616c9e5760001960f88660031b161c19848701351681555b505060018360011b0185555b50505050616cbb6020830183616af1565b616cc9818360018601616937565b505060028101616cf2616cde60408501616bc6565b825490151560ff1660ff1991909116178255565b616d19616d0160608501616bd3565b825462ffff00191660089190911b62ffff0016178255565b616d42616d2860808501616be0565b825463ff000000191660189190911b63ff00000016178255565b616d6d616d5160a08501616be0565b825464ff00000000191660209190911b64ff0000000016178255565b50616d7b60c0830183616af1565b616d89818360038601616937565b5050616d9860e0830183616af1565b611112818360048601616937565b81358155600181016020830135616dbc81616248565b815460ff191660ff82151516178255506040830135616dda81616580565b815462ffff001916600882901b62ffff0016178255506060830135616dfe81616590565b815463ff0000001916601882901b63ff00000016178255506080830135616e2481616590565b815464ff000000001916602082901b64ff00000000161782555060a0830135616e4c81616590565b815465ff0000000000191660289190911b65ff00000000001617905560c08201353683900360fe19018112616e8057600080fd5b6118d881840160028401616bed565b848152606060208201526000616ea9606083018587616890565b905082604083015295945050505050565b6101e081016040868337616ed16040830186616b54565b60408460c084013760e08361010084013795945050505050565b600060208284031215616efd57600080fd5b5051919050565b8082028115828204841417610dc157610dc16168df565b600082616f3857634e487b7160e01b600052601260045260246000fd5b500490565b60608101818360005b6003811015616f65578151835260209283019290910190600101616f46565b50505092915050565b60008251616ae7818460208701615a9e565b60008351616f92818460208801615a9e565b9190910191825250602001919050565b89815288602082015287604082015286606082015285608082015260e060a08201526000616fd460e083018688616890565b82810360c0840152616fe7818587616890565b9c9b505050505050505050505050565b87815286602082015285604082015284606082015283608082015260c060a082015260006161e460c083018486616890565b6001600160a01b038581168252841660208201526040810183905260806060820181905260009061617490830184615ac2565b60006020828403121561706e57600080fd5b81516149bd81615a6b565b634e487b7160e01b600052603160045260246000fdfea2646970667358221220d4a89488282cbd0e492af5b1b2a7f1cc513496af364ce3507106c9b7161aae6464736f6c63430008140033",
  "linkReferences": {
    "poseidon-solidity/PoseidonT4.sol": {
      "PoseidonT4": [
        {
          "length": 20,
          "start": 17922
        }
      ]
    }
  },
  "deployedLinkReferences": {
    "poseidon-solidity/PoseidonT4.sol": {
      "PoseidonT4": [
        {
          "length": 20,
          "start": 16911
        }
      ]
    }
  }
}