{
  "_format": "hh-sol-artifact-1",
  "contractName": "DeepFamily",
  "sourceName": "contracts/DeepFamily.sol",
  "abi": [
    {
      "inputs": [
        {
          "internalType": "address",
          "name": "_deepFamilyTokenContract",
          "type": "address"
        },
        {
          "internalType": "address",
          "name": "_personHashVerifier",
          "type": "address"
        },
        {
          "internalType": "address",
          "name": "_namePoseidonVerifier",
          "type": "address"
        }
      ],
      "stateMutability": "nonpayable",
      "type": "constructor"
    },
    {
      "inputs": [],
      "name": "BasicInfoMismatch",
      "type": "error"
    },
    {
      "inputs": [],
      "name": "ChunkHashMismatch",
      "type": "error"
    },
    {
      "inputs": [],
      "name": "ChunkIndexOutOfRange",
      "type": "error"
    },
    {
      "inputs": [],
      "name": "DirectETHNotAccepted",
      "type": "error"
    },
    {
      "inputs": [],
      "name": "DuplicateVersion",
      "type": "error"
    },
    {
      "inputs": [],
      "name": "ERC721EnumerableForbiddenBatchMint",
      "type": "error"
    },
    {
      "inputs": [
        {
          "internalType": "address",
          "name": "sender",
          "type": "address"
        },
        {
          "internalType": "uint256",
          "name": "tokenId",
          "type": "uint256"
        },
        {
          "internalType": "address",
          "name": "owner",
          "type": "address"
        }
      ],
      "name": "ERC721IncorrectOwner",
      "type": "error"
    },
    {
      "inputs": [
        {
          "internalType": "address",
          "name": "operator",
          "type": "address"
        },
        {
          "internalType": "uint256",
          "name": "tokenId",
          "type": "uint256"
        }
      ],
      "name": "ERC721InsufficientApproval",
      "type": "error"
    },
    {
      "inputs": [
        {
          "internalType": "address",
          "name": "approver",
          "type": "address"
        }
      ],
      "name": "ERC721InvalidApprover",
      "type": "error"
    },
    {
      "inputs": [
        {
          "internalType": "address",
          "name": "operator",
          "type": "address"
        }
      ],
      "name": "ERC721InvalidOperator",
      "type": "error"
    },
    {
      "inputs": [
        {
          "internalType": "address",
          "name": "owner",
          "type": "address"
        }
      ],
      "name": "ERC721InvalidOwner",
      "type": "error"
    },
    {
      "inputs": [
        {
          "internalType": "address",
          "name": "receiver",
          "type": "address"
        }
      ],
      "name": "ERC721InvalidReceiver",
      "type": "error"
    },
    {
      "inputs": [
        {
          "internalType": "address",
          "name": "sender",
          "type": "address"
        }
      ],
      "name": "ERC721InvalidSender",
      "type": "error"
    },
    {
      "inputs": [
        {
          "internalType": "uint256",
          "name": "tokenId",
          "type": "uint256"
        }
      ],
      "name": "ERC721NonexistentToken",
      "type": "error"
    },
    {
      "inputs": [
        {
          "internalType": "address",
          "name": "owner",
          "type": "address"
        },
        {
          "internalType": "uint256",
          "name": "index",
          "type": "uint256"
        }
      ],
      "name": "ERC721OutOfBoundsIndex",
      "type": "error"
    },
    {
      "inputs": [],
      "name": "EndorsementFeeTransferFailed",
      "type": "error"
    },
    {
      "inputs": [],
      "name": "InvalidBirthDay",
      "type": "error"
    },
    {
      "inputs": [],
      "name": "InvalidBirthMonth",
      "type": "error"
    },
    {
      "inputs": [],
      "name": "InvalidBirthPlace",
      "type": "error"
    },
    {
      "inputs": [],
      "name": "InvalidCIDLength",
      "type": "error"
    },
    {
      "inputs": [],
      "name": "InvalidChunkContent",
      "type": "error"
    },
    {
      "inputs": [],
      "name": "InvalidDeathPlace",
      "type": "error"
    },
    {
      "inputs": [],
      "name": "InvalidFatherVersionIndex",
      "type": "error"
    },
    {
      "inputs": [],
      "name": "InvalidFullName",
      "type": "error"
    },
    {
      "inputs": [],
      "name": "InvalidMotherVersionIndex",
      "type": "error"
    },
    {
      "inputs": [],
      "name": "InvalidPersonHash",
      "type": "error"
    },
    {
      "inputs": [],
      "name": "InvalidStory",
      "type": "error"
    },
    {
      "inputs": [],
      "name": "InvalidTagLength",
      "type": "error"
    },
    {
      "inputs": [],
      "name": "InvalidTokenId",
      "type": "error"
    },
    {
      "inputs": [],
      "name": "InvalidTokenURI",
      "type": "error"
    },
    {
      "inputs": [],
      "name": "InvalidVersionIndex",
      "type": "error"
    },
    {
      "inputs": [],
      "name": "InvalidZKProof",
      "type": "error"
    },
    {
      "inputs": [],
      "name": "MustBeNFTHolder",
      "type": "error"
    },
    {
      "inputs": [],
      "name": "MustEndorseVersionFirst",
      "type": "error"
    },
    {
      "inputs": [],
      "name": "NameVerifierNotSet",
      "type": "error"
    },
    {
      "inputs": [
        {
          "internalType": "address",
          "name": "owner",
          "type": "address"
        }
      ],
      "name": "OwnableInvalidOwner",
      "type": "error"
    },
    {
      "inputs": [
        {
          "internalType": "address",
          "name": "account",
          "type": "address"
        }
      ],
      "name": "OwnableUnauthorizedAccount",
      "type": "error"
    },
    {
      "inputs": [],
      "name": "PageSizeExceedsLimit",
      "type": "error"
    },
    {
      "inputs": [],
      "name": "ReentrancyGuardReentrantCall",
      "type": "error"
    },
    {
      "inputs": [],
      "name": "StoryAlreadySealed",
      "type": "error"
    },
    {
      "inputs": [],
      "name": "StoryNotFound",
      "type": "error"
    },
    {
      "inputs": [],
      "name": "TokenContractNotSet",
      "type": "error"
    },
    {
      "inputs": [],
      "name": "VerifierNotSet",
      "type": "error"
    },
    {
      "inputs": [],
      "name": "VersionAlreadyMinted",
      "type": "error"
    },
    {
      "anonymous": false,
      "inputs": [
        {
          "indexed": true,
          "internalType": "address",
          "name": "owner",
          "type": "address"
        },
        {
          "indexed": true,
          "internalType": "address",
          "name": "approved",
          "type": "address"
        },
        {
          "indexed": true,
          "internalType": "uint256",
          "name": "tokenId",
          "type": "uint256"
        }
      ],
      "name": "Approval",
      "type": "event"
    },
    {
      "anonymous": false,
      "inputs": [
        {
          "indexed": true,
          "internalType": "address",
          "name": "owner",
          "type": "address"
        },
        {
          "indexed": true,
          "internalType": "address",
          "name": "operator",
          "type": "address"
        },
        {
          "indexed": false,
          "internalType": "bool",
          "name": "approved",
          "type": "bool"
        }
      ],
      "name": "ApprovalForAll",
      "type": "event"
    },
    {
      "anonymous": false,
      "inputs": [
        {
          "indexed": true,
          "internalType": "address",
          "name": "previousOwner",
          "type": "address"
        },
        {
          "indexed": true,
          "internalType": "address",
          "name": "newOwner",
          "type": "address"
        }
      ],
      "name": "OwnershipTransferred",
      "type": "event"
    },
    {
      "anonymous": false,
      "inputs": [
        {
          "indexed": true,
          "internalType": "bytes32",
          "name": "personHash",
          "type": "bytes32"
        },
        {
          "indexed": true,
          "internalType": "address",
          "name": "prover",
          "type": "address"
        }
      ],
      "name": "PersonHashZKVerified",
      "type": "event"
    },
    {
      "anonymous": false,
      "inputs": [
        {
          "indexed": true,
          "internalType": "bytes32",
          "name": "personHash",
          "type": "bytes32"
        },
        {
          "indexed": true,
          "internalType": "uint256",
          "name": "tokenId",
          "type": "uint256"
        },
        {
          "indexed": true,
          "internalType": "address",
          "name": "owner",
          "type": "address"
        },
        {
          "indexed": false,
          "internalType": "uint256",
          "name": "versionIndex",
          "type": "uint256"
        },
        {
          "indexed": false,
          "internalType": "string",
          "name": "tokenURI",
          "type": "string"
        },
        {
          "indexed": false,
          "internalType": "uint256",
          "name": "timestamp",
          "type": "uint256"
        }
      ],
      "name": "PersonNFTMinted",
      "type": "event"
    },
    {
      "anonymous": false,
      "inputs": [
        {
          "indexed": true,
          "internalType": "bytes32",
          "name": "personHash",
          "type": "bytes32"
        },
        {
          "indexed": true,
          "internalType": "uint256",
          "name": "versionIndex",
          "type": "uint256"
        },
        {
          "indexed": true,
          "internalType": "address",
          "name": "addedBy",
          "type": "address"
        },
        {
          "indexed": false,
          "internalType": "uint256",
          "name": "timestamp",
          "type": "uint256"
        },
        {
          "indexed": false,
          "internalType": "bytes32",
          "name": "fatherHash",
          "type": "bytes32"
        },
        {
          "indexed": false,
          "internalType": "uint256",
          "name": "fatherVersionIndex",
          "type": "uint256"
        },
        {
          "indexed": false,
          "internalType": "bytes32",
          "name": "motherHash",
          "type": "bytes32"
        },
        {
          "indexed": false,
          "internalType": "uint256",
          "name": "motherVersionIndex",
          "type": "uint256"
        },
        {
          "indexed": false,
          "internalType": "string",
          "name": "tag",
          "type": "string"
        }
      ],
      "name": "PersonVersionAdded",
      "type": "event"
    },
    {
      "anonymous": false,
      "inputs": [
        {
          "indexed": true,
          "internalType": "bytes32",
          "name": "personHash",
          "type": "bytes32"
        },
        {
          "indexed": true,
          "internalType": "address",
          "name": "endorser",
          "type": "address"
        },
        {
          "indexed": false,
          "internalType": "uint256",
          "name": "versionIndex",
          "type": "uint256"
        },
        {
          "indexed": false,
          "internalType": "uint256",
          "name": "endorsementFee",
          "type": "uint256"
        },
        {
          "indexed": false,
          "internalType": "uint256",
          "name": "timestamp",
          "type": "uint256"
        }
      ],
      "name": "PersonVersionEndorsed",
      "type": "event"
    },
    {
      "anonymous": false,
      "inputs": [
        {
          "indexed": true,
          "internalType": "uint256",
          "name": "tokenId",
          "type": "uint256"
        },
        {
          "indexed": true,
          "internalType": "uint256",
          "name": "chunkIndex",
          "type": "uint256"
        },
        {
          "indexed": false,
          "internalType": "bytes32",
          "name": "chunkHash",
          "type": "bytes32"
        },
        {
          "indexed": true,
          "internalType": "address",
          "name": "editor",
          "type": "address"
        },
        {
          "indexed": false,
          "internalType": "uint256",
          "name": "contentLength",
          "type": "uint256"
        }
      ],
      "name": "StoryChunkAdded",
      "type": "event"
    },
    {
      "anonymous": false,
      "inputs": [
        {
          "indexed": true,
          "internalType": "uint256",
          "name": "tokenId",
          "type": "uint256"
        },
        {
          "indexed": true,
          "internalType": "uint256",
          "name": "chunkIndex",
          "type": "uint256"
        },
        {
          "indexed": false,
          "internalType": "bytes32",
          "name": "oldHash",
          "type": "bytes32"
        },
        {
          "indexed": false,
          "internalType": "bytes32",
          "name": "newHash",
          "type": "bytes32"
        },
        {
          "indexed": true,
          "internalType": "address",
          "name": "editor",
          "type": "address"
        }
      ],
      "name": "StoryChunkUpdated",
      "type": "event"
    },
    {
      "anonymous": false,
      "inputs": [
        {
          "indexed": true,
          "internalType": "uint256",
          "name": "tokenId",
          "type": "uint256"
        },
        {
          "indexed": false,
          "internalType": "uint256",
          "name": "totalChunks",
          "type": "uint256"
        },
        {
          "indexed": false,
          "internalType": "bytes32",
          "name": "fullStoryHash",
          "type": "bytes32"
        },
        {
          "indexed": true,
          "internalType": "address",
          "name": "sealer",
          "type": "address"
        }
      ],
      "name": "StorySealed",
      "type": "event"
    },
    {
      "anonymous": false,
      "inputs": [
        {
          "indexed": true,
          "internalType": "address",
          "name": "miner",
          "type": "address"
        },
        {
          "indexed": true,
          "internalType": "bytes32",
          "name": "personHash",
          "type": "bytes32"
        },
        {
          "indexed": true,
          "internalType": "uint256",
          "name": "versionIndex",
          "type": "uint256"
        },
        {
          "indexed": false,
          "internalType": "uint256",
          "name": "reward",
          "type": "uint256"
        }
      ],
      "name": "TokenRewardDistributed",
      "type": "event"
    },
    {
      "anonymous": false,
      "inputs": [
        {
          "indexed": true,
          "internalType": "uint256",
          "name": "tokenId",
          "type": "uint256"
        },
        {
          "indexed": true,
          "internalType": "address",
          "name": "owner",
          "type": "address"
        },
        {
          "indexed": false,
          "internalType": "string",
          "name": "oldURI",
          "type": "string"
        },
        {
          "indexed": false,
          "internalType": "string",
          "name": "newURI",
          "type": "string"
        }
      ],
      "name": "TokenURIUpdated",
      "type": "event"
    },
    {
      "anonymous": false,
      "inputs": [
        {
          "indexed": true,
          "internalType": "address",
          "name": "from",
          "type": "address"
        },
        {
          "indexed": true,
          "internalType": "address",
          "name": "to",
          "type": "address"
        },
        {
          "indexed": true,
          "internalType": "uint256",
          "name": "tokenId",
          "type": "uint256"
        }
      ],
      "name": "Transfer",
      "type": "event"
    },
    {
      "stateMutability": "payable",
      "type": "fallback"
    },
    {
      "inputs": [],
      "name": "DEEP_FAMILY_TOKEN_CONTRACT",
      "outputs": [
        {
          "internalType": "address",
          "name": "",
          "type": "address"
        }
      ],
      "stateMutability": "view",
      "type": "function"
    },
    {
      "inputs": [],
      "name": "MAX_CHUNK_CONTENT_LENGTH",
      "outputs": [
        {
          "internalType": "uint256",
          "name": "",
          "type": "uint256"
        }
      ],
      "stateMutability": "view",
      "type": "function"
    },
    {
      "inputs": [],
      "name": "MAX_LONG_TEXT_LENGTH",
      "outputs": [
        {
          "internalType": "uint256",
          "name": "",
          "type": "uint256"
        }
      ],
      "stateMutability": "view",
      "type": "function"
    },
    {
      "inputs": [],
      "name": "MAX_QUERY_PAGE_SIZE",
      "outputs": [
        {
          "internalType": "uint256",
          "name": "",
          "type": "uint256"
        }
      ],
      "stateMutability": "view",
      "type": "function"
    },
    {
      "inputs": [],
      "name": "MAX_STORY_CHUNKS",
      "outputs": [
        {
          "internalType": "uint256",
          "name": "",
          "type": "uint256"
        }
      ],
      "stateMutability": "view",
      "type": "function"
    },
    {
      "inputs": [],
      "name": "NAME_POSEIDON_VERIFIER",
      "outputs": [
        {
          "internalType": "address",
          "name": "",
          "type": "address"
        }
      ],
      "stateMutability": "view",
      "type": "function"
    },
    {
      "inputs": [],
      "name": "PERSON_HASH_VERIFIER",
      "outputs": [
        {
          "internalType": "address",
          "name": "",
          "type": "address"
        }
      ],
      "stateMutability": "view",
      "type": "function"
    },
    {
      "inputs": [
        {
          "internalType": "uint256",
          "name": "",
          "type": "uint256"
        },
        {
          "internalType": "uint256",
          "name": "",
          "type": "uint256"
        }
      ],
      "name": "activeChunkIndices",
      "outputs": [
        {
          "internalType": "uint256",
          "name": "",
          "type": "uint256"
        }
      ],
      "stateMutability": "view",
      "type": "function"
    },
    {
      "inputs": [
        {
          "internalType": "bytes32",
          "name": "personHash",
          "type": "bytes32"
        },
        {
          "internalType": "bytes32",
          "name": "fatherHash",
          "type": "bytes32"
        },
        {
          "internalType": "bytes32",
          "name": "motherHash",
          "type": "bytes32"
        },
        {
          "internalType": "uint256",
          "name": "fatherVersionIndex",
          "type": "uint256"
        },
        {
          "internalType": "uint256",
          "name": "motherVersionIndex",
          "type": "uint256"
        },
        {
          "internalType": "string",
          "name": "tag",
          "type": "string"
        },
        {
          "internalType": "string",
          "name": "metadataCID",
          "type": "string"
        }
      ],
      "name": "addPerson",
      "outputs": [],
      "stateMutability": "nonpayable",
      "type": "function"
    },
    {
      "inputs": [
        {
          "internalType": "uint256[2]",
          "name": "a",
          "type": "uint256[2]"
        },
        {
          "internalType": "uint256[2][2]",
          "name": "b",
          "type": "uint256[2][2]"
        },
        {
          "internalType": "uint256[2]",
          "name": "c",
          "type": "uint256[2]"
        },
        {
          "internalType": "uint256[7]",
          "name": "publicSignals",
          "type": "uint256[7]"
        },
        {
          "internalType": "uint256",
          "name": "fatherVersionIndex",
          "type": "uint256"
        },
        {
          "internalType": "uint256",
          "name": "motherVersionIndex",
          "type": "uint256"
        },
        {
          "internalType": "string",
          "name": "tag",
          "type": "string"
        },
        {
          "internalType": "string",
          "name": "metadataCID",
          "type": "string"
        }
      ],
      "name": "addPersonZK",
      "outputs": [],
      "stateMutability": "nonpayable",
      "type": "function"
    },
    {
      "inputs": [
        {
          "internalType": "uint256",
          "name": "tokenId",
          "type": "uint256"
        },
        {
          "internalType": "uint256",
          "name": "chunkIndex",
          "type": "uint256"
        },
        {
          "internalType": "string",
          "name": "content",
          "type": "string"
        },
        {
          "internalType": "bytes32",
          "name": "expectedHash",
          "type": "bytes32"
        }
      ],
      "name": "addStoryChunk",
      "outputs": [],
      "stateMutability": "nonpayable",
      "type": "function"
    },
    {
      "inputs": [
        {
          "internalType": "address",
          "name": "to",
          "type": "address"
        },
        {
          "internalType": "uint256",
          "name": "tokenId",
          "type": "uint256"
        }
      ],
      "name": "approve",
      "outputs": [],
      "stateMutability": "nonpayable",
      "type": "function"
    },
    {
      "inputs": [
        {
          "internalType": "address",
          "name": "owner",
          "type": "address"
        }
      ],
      "name": "balanceOf",
      "outputs": [
        {
          "internalType": "uint256",
          "name": "",
          "type": "uint256"
        }
      ],
      "stateMutability": "view",
      "type": "function"
    },
    {
      "inputs": [
        {
          "internalType": "bytes32",
          "name": "",
          "type": "bytes32"
        },
        {
          "internalType": "uint256",
          "name": "",
          "type": "uint256"
        },
        {
          "internalType": "uint256",
          "name": "",
          "type": "uint256"
        }
      ],
      "name": "childrenOf",
      "outputs": [
        {
          "internalType": "bytes32",
          "name": "childHash",
          "type": "bytes32"
        },
        {
          "internalType": "uint256",
          "name": "childVersionIndex",
          "type": "uint256"
        }
      ],
      "stateMutability": "view",
      "type": "function"
    },
    {
      "inputs": [
        {
          "internalType": "bytes32",
          "name": "personHash",
          "type": "bytes32"
        }
      ],
      "name": "countPersonVersions",
      "outputs": [
        {
          "internalType": "uint256",
          "name": "versionCount",
          "type": "uint256"
        }
      ],
      "stateMutability": "view",
      "type": "function"
    },
    {
      "inputs": [
        {
          "internalType": "bytes32",
          "name": "personHash",
          "type": "bytes32"
        },
        {
          "internalType": "uint256",
          "name": "versionIndex",
          "type": "uint256"
        }
      ],
      "name": "endorseVersion",
      "outputs": [],
      "stateMutability": "nonpayable",
      "type": "function"
    },
    {
      "inputs": [
        {
          "internalType": "bytes32",
          "name": "",
          "type": "bytes32"
        },
        {
          "internalType": "address",
          "name": "",
          "type": "address"
        }
      ],
      "name": "endorsedVersionIndex",
      "outputs": [
        {
          "internalType": "uint256",
          "name": "",
          "type": "uint256"
        }
      ],
      "stateMutability": "view",
      "type": "function"
    },
    {
      "inputs": [
        {
          "internalType": "uint256",
          "name": "tokenId",
          "type": "uint256"
        }
      ],
      "name": "getApproved",
      "outputs": [
        {
          "internalType": "address",
          "name": "",
          "type": "address"
        }
      ],
      "stateMutability": "view",
      "type": "function"
    },
    {
      "inputs": [
        {
          "internalType": "uint256",
          "name": "tokenId",
          "type": "uint256"
        }
      ],
      "name": "getNFTDetails",
      "outputs": [
        {
          "internalType": "bytes32",
          "name": "personHash",
          "type": "bytes32"
        },
        {
          "internalType": "uint256",
          "name": "versionIndex",
          "type": "uint256"
        },
        {
          "components": [
            {
              "internalType": "bytes32",
              "name": "personHash",
              "type": "bytes32"
            },
            {
              "internalType": "bytes32",
              "name": "fatherHash",
              "type": "bytes32"
            },
            {
              "internalType": "bytes32",
              "name": "motherHash",
              "type": "bytes32"
            },
            {
              "internalType": "uint256",
              "name": "versionIndex",
              "type": "uint256"
            },
            {
              "internalType": "uint256",
              "name": "fatherVersionIndex",
              "type": "uint256"
            },
            {
              "internalType": "uint256",
              "name": "motherVersionIndex",
              "type": "uint256"
            },
            {
              "internalType": "address",
              "name": "addedBy",
              "type": "address"
            },
            {
              "internalType": "uint96",
              "name": "timestamp",
              "type": "uint96"
            },
            {
              "internalType": "string",
              "name": "tag",
              "type": "string"
            },
            {
              "internalType": "string",
              "name": "metadataCID",
              "type": "string"
            }
          ],
          "internalType": "struct DeepFamily.PersonVersion",
          "name": "version",
          "type": "tuple"
        },
        {
          "components": [
            {
              "components": [
                {
                  "internalType": "bytes32",
                  "name": "fullNameCommitment",
                  "type": "bytes32"
                },
                {
                  "internalType": "bool",
                  "name": "isBirthBC",
                  "type": "bool"
                },
                {
                  "internalType": "uint16",
                  "name": "birthYear",
                  "type": "uint16"
                },
                {
                  "internalType": "uint8",
                  "name": "birthMonth",
                  "type": "uint8"
                },
                {
                  "internalType": "uint8",
                  "name": "birthDay",
                  "type": "uint8"
                },
                {
                  "internalType": "uint8",
                  "name": "gender",
                  "type": "uint8"
                }
              ],
              "internalType": "struct DeepFamily.PersonBasicInfo",
              "name": "basicInfo",
              "type": "tuple"
            },
            {
              "components": [
                {
                  "internalType": "string",
                  "name": "fullName",
                  "type": "string"
                },
                {
                  "internalType": "string",
                  "name": "birthPlace",
                  "type": "string"
                },
                {
                  "internalType": "bool",
                  "name": "isDeathBC",
                  "type": "bool"
                },
                {
                  "internalType": "uint16",
                  "name": "deathYear",
                  "type": "uint16"
                },
                {
                  "internalType": "uint8",
                  "name": "deathMonth",
                  "type": "uint8"
                },
                {
                  "internalType": "uint8",
                  "name": "deathDay",
                  "type": "uint8"
                },
                {
                  "internalType": "string",
                  "name": "deathPlace",
                  "type": "string"
                },
                {
                  "internalType": "string",
                  "name": "story",
                  "type": "string"
                }
              ],
              "internalType": "struct DeepFamily.PersonSupplementInfo",
              "name": "supplementInfo",
              "type": "tuple"
            }
          ],
          "internalType": "struct DeepFamily.PersonCoreInfo",
          "name": "coreInfo",
          "type": "tuple"
        },
        {
          "internalType": "uint256",
          "name": "endorsementCount",
          "type": "uint256"
        },
        {
          "internalType": "string",
          "name": "nftTokenURI",
          "type": "string"
        }
      ],
      "stateMutability": "view",
      "type": "function"
    },
    {
      "inputs": [
        {
          "components": [
            {
              "internalType": "bytes32",
              "name": "fullNameCommitment",
              "type": "bytes32"
            },
            {
              "internalType": "bool",
              "name": "isBirthBC",
              "type": "bool"
            },
            {
              "internalType": "uint16",
              "name": "birthYear",
              "type": "uint16"
            },
            {
              "internalType": "uint8",
              "name": "birthMonth",
              "type": "uint8"
            },
            {
              "internalType": "uint8",
              "name": "birthDay",
              "type": "uint8"
            },
            {
              "internalType": "uint8",
              "name": "gender",
              "type": "uint8"
            }
          ],
          "internalType": "struct DeepFamily.PersonBasicInfo",
          "name": "basicInfo",
          "type": "tuple"
        }
      ],
      "name": "getPersonHash",
      "outputs": [
        {
          "internalType": "bytes32",
          "name": "",
          "type": "bytes32"
        }
      ],
      "stateMutability": "pure",
      "type": "function"
    },
    {
      "inputs": [
        {
          "internalType": "uint256",
          "name": "tokenId",
          "type": "uint256"
        },
        {
          "internalType": "uint256",
          "name": "chunkIndex",
          "type": "uint256"
        }
      ],
      "name": "getStoryChunk",
      "outputs": [
        {
          "components": [
            {
              "internalType": "uint256",
              "name": "chunkIndex",
              "type": "uint256"
            },
            {
              "internalType": "bytes32",
              "name": "chunkHash",
              "type": "bytes32"
            },
            {
              "internalType": "string",
              "name": "content",
              "type": "string"
            },
            {
              "internalType": "uint256",
              "name": "timestamp",
              "type": "uint256"
            },
            {
              "internalType": "address",
              "name": "lastEditor",
              "type": "address"
            }
          ],
          "internalType": "struct DeepFamily.StoryChunk",
          "name": "chunk",
          "type": "tuple"
        }
      ],
      "stateMutability": "view",
      "type": "function"
    },
    {
      "inputs": [
        {
          "internalType": "uint256",
          "name": "tokenId",
          "type": "uint256"
        }
      ],
      "name": "getStoryMetadata",
      "outputs": [
        {
          "components": [
            {
              "internalType": "uint256",
              "name": "totalChunks",
              "type": "uint256"
            },
            {
              "internalType": "bytes32",
              "name": "fullStoryHash",
              "type": "bytes32"
            },
            {
              "internalType": "uint256",
              "name": "lastUpdateTime",
              "type": "uint256"
            },
            {
              "internalType": "bool",
              "name": "isSealed",
              "type": "bool"
            },
            {
              "internalType": "uint256",
              "name": "totalLength",
              "type": "uint256"
            }
          ],
          "internalType": "struct DeepFamily.StoryMetadata",
          "name": "metadata",
          "type": "tuple"
        }
      ],
      "stateMutability": "view",
      "type": "function"
    },
    {
      "inputs": [
        {
          "internalType": "bytes32",
          "name": "personHash",
          "type": "bytes32"
        },
        {
          "internalType": "uint256",
          "name": "versionIndex",
          "type": "uint256"
        }
      ],
      "name": "getVersionDetails",
      "outputs": [
        {
          "components": [
            {
              "internalType": "bytes32",
              "name": "personHash",
              "type": "bytes32"
            },
            {
              "internalType": "bytes32",
              "name": "fatherHash",
              "type": "bytes32"
            },
            {
              "internalType": "bytes32",
              "name": "motherHash",
              "type": "bytes32"
            },
            {
              "internalType": "uint256",
              "name": "versionIndex",
              "type": "uint256"
            },
            {
              "internalType": "uint256",
              "name": "fatherVersionIndex",
              "type": "uint256"
            },
            {
              "internalType": "uint256",
              "name": "motherVersionIndex",
              "type": "uint256"
            },
            {
              "internalType": "address",
              "name": "addedBy",
              "type": "address"
            },
            {
              "internalType": "uint96",
              "name": "timestamp",
              "type": "uint96"
            },
            {
              "internalType": "string",
              "name": "tag",
              "type": "string"
            },
            {
              "internalType": "string",
              "name": "metadataCID",
              "type": "string"
            }
          ],
          "internalType": "struct DeepFamily.PersonVersion",
          "name": "version",
          "type": "tuple"
        },
        {
          "internalType": "uint256",
          "name": "endorsementCount",
          "type": "uint256"
        },
        {
          "internalType": "uint256",
          "name": "tokenId",
          "type": "uint256"
        }
      ],
      "stateMutability": "view",
      "type": "function"
    },
    {
      "inputs": [
        {
          "internalType": "address",
          "name": "owner",
          "type": "address"
        },
        {
          "internalType": "address",
          "name": "operator",
          "type": "address"
        }
      ],
      "name": "isApprovedForAll",
      "outputs": [
        {
          "internalType": "bool",
          "name": "",
          "type": "bool"
        }
      ],
      "stateMutability": "view",
      "type": "function"
    },
    {
      "inputs": [
        {
          "internalType": "bytes32",
          "name": "parentHash",
          "type": "bytes32"
        },
        {
          "internalType": "uint256",
          "name": "parentVersionIndex",
          "type": "uint256"
        },
        {
          "internalType": "uint256",
          "name": "offset",
          "type": "uint256"
        },
        {
          "internalType": "uint256",
          "name": "limit",
          "type": "uint256"
        }
      ],
      "name": "listChildren",
      "outputs": [
        {
          "internalType": "bytes32[]",
          "name": "childHashes",
          "type": "bytes32[]"
        },
        {
          "internalType": "uint256[]",
          "name": "childVersionIndices",
          "type": "uint256[]"
        },
        {
          "internalType": "uint256",
          "name": "totalCount",
          "type": "uint256"
        },
        {
          "internalType": "bool",
          "name": "hasMore",
          "type": "bool"
        },
        {
          "internalType": "uint256",
          "name": "nextOffset",
          "type": "uint256"
        }
      ],
      "stateMutability": "view",
      "type": "function"
    },
    {
      "inputs": [
        {
          "internalType": "bytes32",
          "name": "personHash",
          "type": "bytes32"
        },
        {
          "internalType": "uint256",
          "name": "offset",
          "type": "uint256"
        },
        {
          "internalType": "uint256",
          "name": "limit",
          "type": "uint256"
        }
      ],
      "name": "listPersonVersions",
      "outputs": [
        {
          "components": [
            {
              "internalType": "bytes32",
              "name": "personHash",
              "type": "bytes32"
            },
            {
              "internalType": "bytes32",
              "name": "fatherHash",
              "type": "bytes32"
            },
            {
              "internalType": "bytes32",
              "name": "motherHash",
              "type": "bytes32"
            },
            {
              "internalType": "uint256",
              "name": "versionIndex",
              "type": "uint256"
            },
            {
              "internalType": "uint256",
              "name": "fatherVersionIndex",
              "type": "uint256"
            },
            {
              "internalType": "uint256",
              "name": "motherVersionIndex",
              "type": "uint256"
            },
            {
              "internalType": "address",
              "name": "addedBy",
              "type": "address"
            },
            {
              "internalType": "uint96",
              "name": "timestamp",
              "type": "uint96"
            },
            {
              "internalType": "string",
              "name": "tag",
              "type": "string"
            },
            {
              "internalType": "string",
              "name": "metadataCID",
              "type": "string"
            }
          ],
          "internalType": "struct DeepFamily.PersonVersion[]",
          "name": "versions",
          "type": "tuple[]"
        },
        {
          "internalType": "uint256",
          "name": "totalVersions",
          "type": "uint256"
        },
        {
          "internalType": "bool",
          "name": "hasMore",
          "type": "bool"
        },
        {
          "internalType": "uint256",
          "name": "nextOffset",
          "type": "uint256"
        }
      ],
      "stateMutability": "view",
      "type": "function"
    },
    {
      "inputs": [
        {
          "internalType": "uint256",
          "name": "tokenId",
          "type": "uint256"
        },
        {
          "internalType": "uint256",
          "name": "offset",
          "type": "uint256"
        },
        {
          "internalType": "uint256",
          "name": "limit",
          "type": "uint256"
        }
      ],
      "name": "listStoryChunks",
      "outputs": [
        {
          "components": [
            {
              "internalType": "uint256",
              "name": "chunkIndex",
              "type": "uint256"
            },
            {
              "internalType": "bytes32",
              "name": "chunkHash",
              "type": "bytes32"
            },
            {
              "internalType": "string",
              "name": "content",
              "type": "string"
            },
            {
              "internalType": "uint256",
              "name": "timestamp",
              "type": "uint256"
            },
            {
              "internalType": "address",
              "name": "lastEditor",
              "type": "address"
            }
          ],
          "internalType": "struct DeepFamily.StoryChunk[]",
          "name": "chunks",
          "type": "tuple[]"
        },
        {
          "internalType": "uint256",
          "name": "totalChunks",
          "type": "uint256"
        },
        {
          "internalType": "bool",
          "name": "hasMore",
          "type": "bool"
        },
        {
          "internalType": "uint256",
          "name": "nextOffset",
          "type": "uint256"
        }
      ],
      "stateMutability": "view",
      "type": "function"
    },
    {
      "inputs": [
        {
          "internalType": "uint256",
          "name": "tokenId",
          "type": "uint256"
        },
        {
          "internalType": "uint256",
          "name": "offset",
          "type": "uint256"
        },
        {
          "internalType": "uint256",
          "name": "limit",
          "type": "uint256"
        }
      ],
      "name": "listTokenURIHistory",
      "outputs": [
        {
          "internalType": "string[]",
          "name": "uris",
          "type": "string[]"
        },
        {
          "internalType": "uint256",
          "name": "totalCount",
          "type": "uint256"
        },
        {
          "internalType": "bool",
          "name": "hasMore",
          "type": "bool"
        },
        {
          "internalType": "uint256",
          "name": "nextOffset",
          "type": "uint256"
        }
      ],
      "stateMutability": "view",
      "type": "function"
    },
    {
      "inputs": [
        {
          "internalType": "bytes32",
          "name": "personHash",
          "type": "bytes32"
        },
        {
          "internalType": "uint256",
          "name": "offset",
          "type": "uint256"
        },
        {
          "internalType": "uint256",
          "name": "limit",
          "type": "uint256"
        }
      ],
      "name": "listVersionsEndorsementStats",
      "outputs": [
        {
          "internalType": "uint256[]",
          "name": "versionIndices",
          "type": "uint256[]"
        },
        {
          "internalType": "uint256[]",
          "name": "endorsementCounts",
          "type": "uint256[]"
        },
        {
          "internalType": "uint256[]",
          "name": "tokenIds",
          "type": "uint256[]"
        },
        {
          "internalType": "uint256",
          "name": "totalVersions",
          "type": "uint256"
        },
        {
          "internalType": "bool",
          "name": "hasMore",
          "type": "bool"
        },
        {
          "internalType": "uint256",
          "name": "nextOffset",
          "type": "uint256"
        }
      ],
      "stateMutability": "view",
      "type": "function"
    },
    {
      "inputs": [
        {
          "internalType": "uint256[2]",
          "name": "a",
          "type": "uint256[2]"
        },
        {
          "internalType": "uint256[2][2]",
          "name": "b",
          "type": "uint256[2][2]"
        },
        {
          "internalType": "uint256[2]",
          "name": "c",
          "type": "uint256[2]"
        },
        {
          "internalType": "uint256[4]",
          "name": "publicSignals",
          "type": "uint256[4]"
        },
        {
          "internalType": "bytes32",
          "name": "personHash",
          "type": "bytes32"
        },
        {
          "internalType": "uint256",
          "name": "versionIndex",
          "type": "uint256"
        },
        {
          "internalType": "string",
          "name": "_tokenURI",
          "type": "string"
        },
        {
          "components": [
            {
              "components": [
                {
                  "internalType": "bytes32",
                  "name": "fullNameCommitment",
                  "type": "bytes32"
                },
                {
                  "internalType": "bool",
                  "name": "isBirthBC",
                  "type": "bool"
                },
                {
                  "internalType": "uint16",
                  "name": "birthYear",
                  "type": "uint16"
                },
                {
                  "internalType": "uint8",
                  "name": "birthMonth",
                  "type": "uint8"
                },
                {
                  "internalType": "uint8",
                  "name": "birthDay",
                  "type": "uint8"
                },
                {
                  "internalType": "uint8",
                  "name": "gender",
                  "type": "uint8"
                }
              ],
              "internalType": "struct DeepFamily.PersonBasicInfo",
              "name": "basicInfo",
              "type": "tuple"
            },
            {
              "components": [
                {
                  "internalType": "string",
                  "name": "fullName",
                  "type": "string"
                },
                {
                  "internalType": "string",
                  "name": "birthPlace",
                  "type": "string"
                },
                {
                  "internalType": "bool",
                  "name": "isDeathBC",
                  "type": "bool"
                },
                {
                  "internalType": "uint16",
                  "name": "deathYear",
                  "type": "uint16"
                },
                {
                  "internalType": "uint8",
                  "name": "deathMonth",
                  "type": "uint8"
                },
                {
                  "internalType": "uint8",
                  "name": "deathDay",
                  "type": "uint8"
                },
                {
                  "internalType": "string",
                  "name": "deathPlace",
                  "type": "string"
                },
                {
                  "internalType": "string",
                  "name": "story",
                  "type": "string"
                }
              ],
              "internalType": "struct DeepFamily.PersonSupplementInfo",
              "name": "supplementInfo",
              "type": "tuple"
            }
          ],
          "internalType": "struct DeepFamily.PersonCoreInfo",
          "name": "coreInfo",
          "type": "tuple"
        }
      ],
      "name": "mintPersonNFT",
      "outputs": [],
      "stateMutability": "nonpayable",
      "type": "function"
    },
    {
      "inputs": [],
      "name": "name",
      "outputs": [
        {
          "internalType": "string",
          "name": "",
          "type": "string"
        }
      ],
      "stateMutability": "view",
      "type": "function"
    },
    {
      "inputs": [
        {
          "internalType": "uint256",
          "name": "",
          "type": "uint256"
        }
      ],
      "name": "nftCoreInfo",
      "outputs": [
        {
          "components": [
            {
              "internalType": "bytes32",
              "name": "fullNameCommitment",
              "type": "bytes32"
            },
            {
              "internalType": "bool",
              "name": "isBirthBC",
              "type": "bool"
            },
            {
              "internalType": "uint16",
              "name": "birthYear",
              "type": "uint16"
            },
            {
              "internalType": "uint8",
              "name": "birthMonth",
              "type": "uint8"
            },
            {
              "internalType": "uint8",
              "name": "birthDay",
              "type": "uint8"
            },
            {
              "internalType": "uint8",
              "name": "gender",
              "type": "uint8"
            }
          ],
          "internalType": "struct DeepFamily.PersonBasicInfo",
          "name": "basicInfo",
          "type": "tuple"
        },
        {
          "components": [
            {
              "internalType": "string",
              "name": "fullName",
              "type": "string"
            },
            {
              "internalType": "string",
              "name": "birthPlace",
              "type": "string"
            },
            {
              "internalType": "bool",
              "name": "isDeathBC",
              "type": "bool"
            },
            {
              "internalType": "uint16",
              "name": "deathYear",
              "type": "uint16"
            },
            {
              "internalType": "uint8",
              "name": "deathMonth",
              "type": "uint8"
            },
            {
              "internalType": "uint8",
              "name": "deathDay",
              "type": "uint8"
            },
            {
              "internalType": "string",
              "name": "deathPlace",
              "type": "string"
            },
            {
              "internalType": "string",
              "name": "story",
              "type": "string"
            }
          ],
          "internalType": "struct DeepFamily.PersonSupplementInfo",
          "name": "supplementInfo",
          "type": "tuple"
        }
      ],
      "stateMutability": "view",
      "type": "function"
    },
    {
      "inputs": [],
      "name": "owner",
      "outputs": [
        {
          "internalType": "address",
          "name": "",
          "type": "address"
        }
      ],
      "stateMutability": "view",
      "type": "function"
    },
    {
      "inputs": [
        {
          "internalType": "uint256",
          "name": "tokenId",
          "type": "uint256"
        }
      ],
      "name": "ownerOf",
      "outputs": [
        {
          "internalType": "address",
          "name": "",
          "type": "address"
        }
      ],
      "stateMutability": "view",
      "type": "function"
    },
    {
      "inputs": [
        {
          "internalType": "bytes32",
          "name": "",
          "type": "bytes32"
        },
        {
          "internalType": "uint256",
          "name": "",
          "type": "uint256"
        }
      ],
      "name": "personVersions",
      "outputs": [
        {
          "internalType": "bytes32",
          "name": "personHash",
          "type": "bytes32"
        },
        {
          "internalType": "bytes32",
          "name": "fatherHash",
          "type": "bytes32"
        },
        {
          "internalType": "bytes32",
          "name": "motherHash",
          "type": "bytes32"
        },
        {
          "internalType": "uint256",
          "name": "versionIndex",
          "type": "uint256"
        },
        {
          "internalType": "uint256",
          "name": "fatherVersionIndex",
          "type": "uint256"
        },
        {
          "internalType": "uint256",
          "name": "motherVersionIndex",
          "type": "uint256"
        },
        {
          "internalType": "address",
          "name": "addedBy",
          "type": "address"
        },
        {
          "internalType": "uint96",
          "name": "timestamp",
          "type": "uint96"
        },
        {
          "internalType": "string",
          "name": "tag",
          "type": "string"
        },
        {
          "internalType": "string",
          "name": "metadataCID",
          "type": "string"
        }
      ],
      "stateMutability": "view",
      "type": "function"
    },
    {
      "inputs": [],
      "name": "renounceOwnership",
      "outputs": [],
      "stateMutability": "nonpayable",
      "type": "function"
    },
    {
      "inputs": [
        {
          "internalType": "address",
          "name": "from",
          "type": "address"
        },
        {
          "internalType": "address",
          "name": "to",
          "type": "address"
        },
        {
          "internalType": "uint256",
          "name": "tokenId",
          "type": "uint256"
        }
      ],
      "name": "safeTransferFrom",
      "outputs": [],
      "stateMutability": "nonpayable",
      "type": "function"
    },
    {
      "inputs": [
        {
          "internalType": "address",
          "name": "from",
          "type": "address"
        },
        {
          "internalType": "address",
          "name": "to",
          "type": "address"
        },
        {
          "internalType": "uint256",
          "name": "tokenId",
          "type": "uint256"
        },
        {
          "internalType": "bytes",
          "name": "data",
          "type": "bytes"
        }
      ],
      "name": "safeTransferFrom",
      "outputs": [],
      "stateMutability": "nonpayable",
      "type": "function"
    },
    {
      "inputs": [
        {
          "internalType": "uint256",
          "name": "tokenId",
          "type": "uint256"
        }
      ],
      "name": "sealStory",
      "outputs": [],
      "stateMutability": "nonpayable",
      "type": "function"
    },
    {
      "inputs": [
        {
          "internalType": "address",
          "name": "operator",
          "type": "address"
        },
        {
          "internalType": "bool",
          "name": "approved",
          "type": "bool"
        }
      ],
      "name": "setApprovalForAll",
      "outputs": [],
      "stateMutability": "nonpayable",
      "type": "function"
    },
    {
      "inputs": [
        {
          "internalType": "uint256",
          "name": "",
          "type": "uint256"
        },
        {
          "internalType": "uint256",
          "name": "",
          "type": "uint256"
        }
      ],
      "name": "storyChunks",
      "outputs": [
        {
          "internalType": "uint256",
          "name": "chunkIndex",
          "type": "uint256"
        },
        {
          "internalType": "bytes32",
          "name": "chunkHash",
          "type": "bytes32"
        },
        {
          "internalType": "string",
          "name": "content",
          "type": "string"
        },
        {
          "internalType": "uint256",
          "name": "timestamp",
          "type": "uint256"
        },
        {
          "internalType": "address",
          "name": "lastEditor",
          "type": "address"
        }
      ],
      "stateMutability": "view",
      "type": "function"
    },
    {
      "inputs": [
        {
          "internalType": "uint256",
          "name": "",
          "type": "uint256"
        }
      ],
      "name": "storyMetadata",
      "outputs": [
        {
          "internalType": "uint256",
          "name": "totalChunks",
          "type": "uint256"
        },
        {
          "internalType": "bytes32",
          "name": "fullStoryHash",
          "type": "bytes32"
        },
        {
          "internalType": "uint256",
          "name": "lastUpdateTime",
          "type": "uint256"
        },
        {
          "internalType": "bool",
          "name": "isSealed",
          "type": "bool"
        },
        {
          "internalType": "uint256",
          "name": "totalLength",
          "type": "uint256"
        }
      ],
      "stateMutability": "view",
      "type": "function"
    },
    {
      "inputs": [
        {
          "internalType": "bytes4",
          "name": "interfaceId",
          "type": "bytes4"
        }
      ],
      "name": "supportsInterface",
      "outputs": [
        {
          "internalType": "bool",
          "name": "",
          "type": "bool"
        }
      ],
      "stateMutability": "view",
      "type": "function"
    },
    {
      "inputs": [],
      "name": "symbol",
      "outputs": [
        {
          "internalType": "string",
          "name": "",
          "type": "string"
        }
      ],
      "stateMutability": "view",
      "type": "function"
    },
    {
      "inputs": [
        {
          "internalType": "uint256",
          "name": "index",
          "type": "uint256"
        }
      ],
      "name": "tokenByIndex",
      "outputs": [
        {
          "internalType": "uint256",
          "name": "",
          "type": "uint256"
        }
      ],
      "stateMutability": "view",
      "type": "function"
    },
    {
      "inputs": [],
      "name": "tokenCounter",
      "outputs": [
        {
          "internalType": "uint256",
          "name": "",
          "type": "uint256"
        }
      ],
      "stateMutability": "view",
      "type": "function"
    },
    {
      "inputs": [
        {
          "internalType": "uint256",
          "name": "",
          "type": "uint256"
        }
      ],
      "name": "tokenIdToPerson",
      "outputs": [
        {
          "internalType": "bytes32",
          "name": "",
          "type": "bytes32"
        }
      ],
      "stateMutability": "view",
      "type": "function"
    },
    {
      "inputs": [
        {
          "internalType": "uint256",
          "name": "",
          "type": "uint256"
        }
      ],
      "name": "tokenIdToVersionIndex",
      "outputs": [
        {
          "internalType": "uint256",
          "name": "",
          "type": "uint256"
        }
      ],
      "stateMutability": "view",
      "type": "function"
    },
    {
      "inputs": [
        {
          "internalType": "address",
          "name": "owner",
          "type": "address"
        },
        {
          "internalType": "uint256",
          "name": "index",
          "type": "uint256"
        }
      ],
      "name": "tokenOfOwnerByIndex",
      "outputs": [
        {
          "internalType": "uint256",
          "name": "",
          "type": "uint256"
        }
      ],
      "stateMutability": "view",
      "type": "function"
    },
    {
      "inputs": [
        {
          "internalType": "uint256",
          "name": "tokenId",
          "type": "uint256"
        }
      ],
      "name": "tokenURI",
      "outputs": [
        {
          "internalType": "string",
          "name": "",
          "type": "string"
        }
      ],
      "stateMutability": "view",
      "type": "function"
    },
    {
      "inputs": [
        {
          "internalType": "uint256",
          "name": "",
          "type": "uint256"
        },
        {
          "internalType": "uint256",
          "name": "",
          "type": "uint256"
        }
      ],
      "name": "tokenURIHistory",
      "outputs": [
        {
          "internalType": "string",
          "name": "",
          "type": "string"
        }
      ],
      "stateMutability": "view",
      "type": "function"
    },
    {
      "inputs": [],
      "name": "totalPersonsCount",
      "outputs": [
        {
          "internalType": "uint256",
          "name": "",
          "type": "uint256"
        }
      ],
      "stateMutability": "view",
      "type": "function"
    },
    {
      "inputs": [],
      "name": "totalSupply",
      "outputs": [
        {
          "internalType": "uint256",
          "name": "",
          "type": "uint256"
        }
      ],
      "stateMutability": "view",
      "type": "function"
    },
    {
      "inputs": [
        {
          "internalType": "address",
          "name": "from",
          "type": "address"
        },
        {
          "internalType": "address",
          "name": "to",
          "type": "address"
        },
        {
          "internalType": "uint256",
          "name": "tokenId",
          "type": "uint256"
        }
      ],
      "name": "transferFrom",
      "outputs": [],
      "stateMutability": "nonpayable",
      "type": "function"
    },
    {
      "inputs": [
        {
          "internalType": "address",
          "name": "newOwner",
          "type": "address"
        }
      ],
      "name": "transferOwnership",
      "outputs": [],
      "stateMutability": "nonpayable",
      "type": "function"
    },
    {
      "inputs": [
        {
          "internalType": "uint256",
          "name": "tokenId",
          "type": "uint256"
        },
        {
          "internalType": "uint256",
          "name": "chunkIndex",
          "type": "uint256"
        },
        {
          "internalType": "string",
          "name": "newContent",
          "type": "string"
        },
        {
          "internalType": "bytes32",
          "name": "expectedHash",
          "type": "bytes32"
        }
      ],
      "name": "updateStoryChunk",
      "outputs": [],
      "stateMutability": "nonpayable",
      "type": "function"
    },
    {
      "inputs": [
        {
          "internalType": "uint256",
          "name": "tokenId",
          "type": "uint256"
        },
        {
          "internalType": "string",
          "name": "newURI",
          "type": "string"
        }
      ],
      "name": "updateTokenURI",
      "outputs": [],
      "stateMutability": "nonpayable",
      "type": "function"
    },
    {
      "inputs": [
        {
          "internalType": "bytes32",
          "name": "",
          "type": "bytes32"
        },
        {
          "internalType": "uint256",
          "name": "",
          "type": "uint256"
        }
      ],
      "name": "versionEndorsementCount",
      "outputs": [
        {
          "internalType": "uint256",
          "name": "",
          "type": "uint256"
        }
      ],
      "stateMutability": "view",
      "type": "function"
    },
    {
      "inputs": [
        {
          "internalType": "bytes32",
          "name": "",
          "type": "bytes32"
        },
        {
          "internalType": "bytes32",
          "name": "",
          "type": "bytes32"
        }
      ],
      "name": "versionExists",
      "outputs": [
        {
          "internalType": "bool",
          "name": "",
          "type": "bool"
        }
      ],
      "stateMutability": "view",
      "type": "function"
    },
    {
      "inputs": [
        {
          "internalType": "bytes32",
          "name": "",
          "type": "bytes32"
        },
        {
          "internalType": "uint256",
          "name": "",
          "type": "uint256"
        }
      ],
      "name": "versionToTokenId",
      "outputs": [
        {
          "internalType": "uint256",
          "name": "",
          "type": "uint256"
        }
      ],
      "stateMutability": "view",
      "type": "function"
    },
    {
      "stateMutability": "payable",
      "type": "receive"
    }
  ],
  "bytecode": "0x60e06040523480156200001157600080fd5b5060405162006b8838038062006b888339810160408190526200003491620001df565b336040518060400160405280600a8152602001694465657046616d696c7960b01b8152506040518060400160405280600681526020016546616d696c7960d01b8152508160009081620000889190620002ce565b506001620000978282620002ce565b5050506001600160a01b038116620000c957604051631e4fbdf760e01b81526000600482015260240160405180910390fd5b620000d48162000170565b506001600b556001600160a01b0383166200010257604051634c32eccd60e11b815260040160405180910390fd5b6001600160a01b0382166200012a57604051635fce01bb60e01b815260040160405180910390fd5b6001600160a01b038116620001525760405163abd45c1f60e01b815260040160405180910390fd5b6001600160a01b0392831660805290821660a0521660c0526200039a565b600a80546001600160a01b038381166001600160a01b0319831681179093556040519116919082907f8be0079c531659141344cd1fd0a4f28419497f9722a3daafe3b4186f6b6457e090600090a35050565b80516001600160a01b0381168114620001da57600080fd5b919050565b600080600060608486031215620001f557600080fd5b6200020084620001c2565b92506200021060208501620001c2565b91506200022060408501620001c2565b90509250925092565b634e487b7160e01b600052604160045260246000fd5b600181811c908216806200025457607f821691505b6020821081036200027557634e487b7160e01b600052602260045260246000fd5b50919050565b601f821115620002c957600081815260208120601f850160051c81016020861015620002a45750805b601f850160051c820191505b81811015620002c557828155600101620002b0565b5050505b505050565b81516001600160401b03811115620002ea57620002ea62000229565b6200030281620002fb84546200023f565b846200027b565b602080601f8311600181146200033a5760008415620003215750858301515b600019600386901b1c1916600185901b178555620002c5565b600085815260208120601f198616915b828110156200036b578886015182559484019460019091019084016200034a565b50858210156200038a5787850151600019600388901b60f8161c191681555b5050505050600190811b01905550565b60805160a05160c05161679b620003ed6000396000818161055901526121f6015260008181610adf015261324e015260008181610bc40152818161340f015281816135600152614752015261679b6000f3fe60806040526004361061039a5760003560e01c80637559704d116101dc578063bd7eef2311610102578063d596b1b0116100a0578063f2fde38b1161006f578063f2fde38b14610c9c578063f74faf6614610cbc578063fe980dd614610cf4578063fe9c3c0514610d26576103b8565b8063d596b1b014610be6578063dbcdc08f14610c1e578063e985e9c514610c4f578063f1fad06714610c6f576103b8565b8063c87b56dd116100dc578063c87b56dd14610b5c578063c893eb5614610b7c578063d082e38114610b9c578063d1486a1b14610bb2576103b8565b8063bd7eef2314610b01578063c090fba214610b17578063c841eb1f14610b46576103b8565b806395d89b411161017a578063b570b2ab11610149578063b570b2ab14610a6d578063b5c7198d14610a8d578063b88d4fde14610aad578063bcecdf1d14610acd576103b8565b806395d89b41146109f8578063a22cb46514610a0d578063a92c6ad614610a2d578063b0ac331f14610a4d576103b8565b806382260f35116101b657806382260f351461090157806383af7191146109335780638da5cb5b146109aa5780638f2360b3146109c8576103b8565b80637559704d1461089e57806376f0f85d146108cb578063797e57e5146108e1576103b8565b80632f8afa61116102c157806357611dfb1161025f5780636be9cd021161022e5780636be9cd02146107e557806370a0823114610805578063715018a6146108255780637189567c1461083a576103b8565b806357611dfb146107315780636352211e1461076257806367b9b3e114610782578063690a76bf146107b8576103b8565b8063431a342a1161029b578063431a342a1461068957806346cdf869146106c45780634f6ccce7146106e4578063538ffa0b14610704576103b8565b80632f8afa61146106195780633791b66a1461063957806342842e0e14610669576103b8565b8063164e38ee1161033957806323b872dd1161030857806323b872dd1461057b578063278d5fce1461059b57806328273a2a146105c95780632f745c59146105f9576103b8565b8063164e38ee146104dd57806318160ddd1461051257806318e97fd1146105275780631d5d7be914610547576103b8565b806307b8fe9c1161037557806307b8fe9c146103d1578063081812fc1461044b578063095ea7b3146104835780631516fa25146104a5576103b8565b8062eee6a1146103d157806301ffc9a7146103f957806306fdde0314610429576103b8565b366103b85760405163af9f22fb60e01b815260040160405180910390fd5b60405163af9f22fb60e01b815260040160405180910390fd5b3480156103dd57600080fd5b506103e6606481565b6040519081526020015b60405180910390f35b34801561040557600080fd5b50610419610414366004615239565b610d46565b60405190151581526020016103f0565b34801561043557600080fd5b5061043e610d71565b6040516103f091906152ad565b34801561045757600080fd5b5061046b6104663660046152c0565b610e03565b6040516001600160a01b0390911681526020016103f0565b34801561048f57600080fd5b506104a361049e3660046152f5565b610e2c565b005b3480156104b157600080fd5b506103e66104c036600461531f565b601a60209081526000928352604080842090915290825290205481565b3480156104e957600080fd5b506104fd6104f8366004615341565b610e3b565b604080519283526020830191909152016103f0565b34801561051e57600080fd5b506008546103e6565b34801561053357600080fd5b506104a36105423660046153b5565b610e85565b34801561055357600080fd5b5061046b7f000000000000000000000000000000000000000000000000000000000000000081565b34801561058757600080fd5b506104a3610596366004615400565b611032565b3480156105a757600080fd5b506105bb6105b63660046152c0565b6110c2565b6040516103f0929190615546565b3480156105d557600080fd5b506105e96105e4366004615341565b6113cb565b6040516103f094939291906155b7565b34801561060557600080fd5b506103e66106143660046152f5565b61168b565b34801561062557600080fd5b506104a361063436600461562a565b6116f0565b34801561064557600080fd5b50610659610654366004615341565b61170c565b6040516103f094939291906156cb565b34801561067557600080fd5b506104a3610684366004615400565b611905565b34801561069557600080fd5b506104196106a436600461531f565b600e60209081526000928352604080842090915290825290205460ff1681565b3480156106d057600080fd5b506104a36106df366004615722565b611925565b3480156106f057600080fd5b506103e66106ff3660046152c0565b611b37565b34801561071057600080fd5b506103e661071f3660046152c0565b60126020526000908152604090205481565b34801561073d57600080fd5b5061075161074c36600461577c565b611b90565b6040516103f09594939291906157e9565b34801561076e57600080fd5b5061046b61077d3660046152c0565b611de4565b34801561078e57600080fd5b506107a261079d36600461531f565b611def565b6040516103f09a99989796959493929190615855565b3480156107c457600080fd5b506103e66107d33660046152c0565b60116020526000908152604090205481565b3480156107f157600080fd5b506104a36108003660046158f3565b611f89565b34801561081157600080fd5b506103e66108203660046159c1565b6124a1565b34801561083157600080fd5b506104a36124e9565b34801561084657600080fd5b5061085a6108553660046152c0565b6124fd565b6040516103f09190600060a0820190508251825260208301516020830152604083015160408301526060830151151560608301526080830151608083015292915050565b3480156108aa57600080fd5b506103e66108b93660046152c0565b6000908152600c602052604090205490565b3480156108d757600080fd5b506103e661010081565b3480156108ed57600080fd5b506104a36108fc3660046152c0565b6125ac565b34801561090d57600080fd5b5061092161091c3660046152c0565b61269a565b6040516103f096959493929190615a8b565b34801561093f57600080fd5b5061098061094e3660046152c0565b6017602052600090815260409020805460018201546002830154600384015460049094015492939192909160ff169085565b6040805195865260208601949094529284019190915215156060830152608082015260a0016103f0565b3480156109b657600080fd5b50600a546001600160a01b031661046b565b3480156109d457600080fd5b506109e86109e3366004615341565b612c45565b6040516103f09493929190615afe565b348015610a0457600080fd5b5061043e612f8e565b348015610a1957600080fd5b506104a3610a28366004615b63565b612f9d565b348015610a3957600080fd5b506103e6610a4836600461531f565b612fa8565b348015610a5957600080fd5b506104a3610a68366004615722565b612fd9565b348015610a7957600080fd5b506104a3610a88366004615b9a565b613212565b348015610a9957600080fd5b506104a3610aa836600461531f565b61337d565b348015610ab957600080fd5b506104a3610ac8366004615cb5565b6136e9565b348015610ad957600080fd5b5061046b7f000000000000000000000000000000000000000000000000000000000000000081565b348015610b0d57600080fd5b506103e6600d5481565b348015610b2357600080fd5b50610b37610b3236600461531f565b613701565b6040516103f093929190615d74565b348015610b5257600080fd5b506103e66103e881565b348015610b6857600080fd5b5061043e610b773660046152c0565b61397e565b348015610b8857600080fd5b506103e6610b97366004615db8565b613a28565b348015610ba857600080fd5b506103e660105481565b348015610bbe57600080fd5b5061046b7f000000000000000000000000000000000000000000000000000000000000000081565b348015610bf257600080fd5b506103e6610c0136600461531f565b601660209081526000928352604080842090915290825290205481565b348015610c2a57600080fd5b50610c3e610c3936600461531f565b613bb2565b6040516103f0959493929190615e59565b348015610c5b57600080fd5b50610419610c6a366004615e9a565b613c7e565b348015610c7b57600080fd5b50610c8f610c8a36600461531f565b613cac565b6040516103f09190615ecd565b348015610ca857600080fd5b506104a3610cb73660046159c1565b613e10565b348015610cc857600080fd5b506103e6610cd7366004615ee0565b600f60209081526000928352604080842090915290825290205481565b348015610d0057600080fd5b50610d14610d0f366004615341565b613e4e565b6040516103f096959493929190615f03565b348015610d3257600080fd5b5061043e610d4136600461531f565b6140cb565b60006001600160e01b0319821663780e9d6360e01b1480610d6b5750610d6b82614184565b92915050565b606060008054610d8090615f5b565b80601f0160208091040260200160405190810160405280929190818152602001828054610dac90615f5b565b8015610df95780601f10610dce57610100808354040283529160200191610df9565b820191906000526020600020905b815481529060010190602001808311610ddc57829003601f168201915b5050505050905090565b6000610e0e826141d4565b506000828152600460205260409020546001600160a01b0316610d6b565b610e3782823361420c565b5050565b601b6020528260005260406000206020528160005260406000208181548110610e6357600080fd5b6000918252602090912060029091020180546001909101549093509150839050565b33610e8f84614219565b6001600160a01b031614610eb65760405163daffd8a560e01b815260040160405180910390fd5b610100811115610ed9576040516313f04adb60e01b815260040160405180910390fd5b60008381526014602052604081208054610ef290615f5b565b80601f0160208091040260200160405190810160405280929190818152602001828054610f1e90615f5b565b8015610f6b5780601f10610f4057610100808354040283529160200191610f6b565b820191906000526020600020905b815481529060010190602001808311610f4e57829003601f168201915b50505050509050600081511115610fa657600084815260156020908152604082208054600181018255908352912001610fa48282615ff0565b505b610fe68484848080601f01602080910402602001604051908101604052809392919081815260200183838082843760009201919091525061423492505050565b336001600160a01b0316847f121742bae49dddcfbb9763fd1170f0dbc15b13707126182671611bbeeeae7cd8838686604051611024939291906160d2565b60405180910390a350505050565b6001600160a01b03821661106157604051633250574960e11b8152600060048201526024015b60405180910390fd5b600061106e83833361424c565b9050836001600160a01b0316816001600160a01b0316146110bc576040516364283d7b60e01b81526001600160a01b0380861660048301526024820184905282166044820152606401611058565b50505050565b601360209081526000918252604091829020825160c08101845281548152600182015460ff80821615159483019490945261010080820461ffff168387015263010000008204851660608401526401000000008204851660808401526501000000000090910490931660a082015283519283019093526002810180549192918290829061114e90615f5b565b80601f016020809104026020016040519081016040528092919081815260200182805461117a90615f5b565b80156111c75780601f1061119c576101008083540402835291602001916111c7565b820191906000526020600020905b8154815290600101906020018083116111aa57829003601f168201915b505050505081526020016001820180546111e090615f5b565b80601f016020809104026020016040519081016040528092919081815260200182805461120c90615f5b565b80156112595780601f1061122e57610100808354040283529160200191611259565b820191906000526020600020905b81548152906001019060200180831161123c57829003601f168201915b5050509183525050600282015460ff8082161515602084015261ffff6101008304166040840152630100000082048116606084015264010000000090910416608082015260038201805460a0909201916112b290615f5b565b80601f01602080910402602001604051908101604052809291908181526020018280546112de90615f5b565b801561132b5780601f106113005761010080835404028352916020019161132b565b820191906000526020600020905b81548152906001019060200180831161130e57829003601f168201915b5050505050815260200160048201805461134490615f5b565b80601f016020809104026020016040519081016040528092919081815260200182805461137090615f5b565b80156113bd5780601f10611392576101008083540402835291602001916113bd565b820191906000526020600020905b8154815290600101906020018083116113a057829003601f168201915b505050505081525050905082565b606060008080806113db88614219565b6001600160a01b031603611402576040516307ed98ed60e31b815260040160405180910390fd5b606485111561142457604051630327a73960e61b815260040160405180910390fd5b6000878152601760205260408120805494509086900361148057604080516000808252602082019092529061146f565b61145c6150dc565b8152602001906001900390816114545790505b509450600092508691506116829050565b8387106114c95760408051600080825260208201909252906114b8565b6114a56150dc565b81526020019060019003908161149d5790505b509450600092508391506116829050565b60006114d5878961610e565b9050848111156114e25750835b60006114ee8983616121565b9050806001600160401b0381111561150857611508615c6f565b60405190808252806020026020018201604052801561154157816020015b61152e6150dc565b8152602001906001900390816115265790505b50965060005b818110156116775760008b815260186020526040812090611568838d61610e565b81526020019081526020016000206040518060a001604052908160008201548152602001600182015481526020016002820180546115a590615f5b565b80601f01602080910402602001604051908101604052809291908181526020018280546115d190615f5b565b801561161e5780601f106115f35761010080835404028352916020019161161e565b820191906000526020600020905b81548152906001019060200180831161160157829003601f168201915b5050509183525050600382015460208201526004909101546001600160a01b0316604090910152885189908390811061165957611659616134565b6020026020010181905250808061166f9061614a565b915050611547565b505084811093509150505b93509350935093565b6000611696836124a1565b82106116c75760405163295f44f760e21b81526001600160a01b038416600482015260248101839052604401611058565b506001600160a01b03919091166000908152600660209081526040808320938352929052205490565b611701898989898989898989614321565b505050505050505050565b600083815260156020526040812080546060929091819085820361176557604080516000808252602082019092529061146f565b6060815260200190600190039081611740579050509450600092508691506116829050565b8387106117a75760408051600080825260208201909252906114b8565b6060815260200190600190039081611782579050509450600092508391506116829050565b60006117b3878961610e565b9050848111156117c05750835b60006117cc8983616121565b9050806001600160401b038111156117e6576117e6615c6f565b60405190808252806020026020018201604052801561181957816020015b60608152602001906001900390816118045790505b50965060005b818110156116775783611832828c61610e565b8154811061184257611842616134565b90600052602060002001805461185790615f5b565b80601f016020809104026020016040519081016040528092919081815260200182805461188390615f5b565b80156118d05780601f106118a5576101008083540402835291602001916118d0565b820191906000526020600020905b8154815290600101906020018083116118b357829003601f168201915b50505050508882815181106118e7576118e7616134565b602002602001018190525080806118fd9061614a565b91505061181f565b611920838383604051806020016040528060008152506136e9565b505050565b61192d614824565b3361193786614219565b6001600160a01b03161461195e5760405163daffd8a560e01b815260040160405180910390fd5b6000858152601760205260409020600381015460ff161561199257604051631fcb6b9160e01b815260040160405180910390fd5b805485106119b357604051637df0b86160e01b815260040160405180910390fd5b8215806119c157506103e883115b156119df57604051630ef9fbf360e21b815260040160405180910390fd5b600086815260186020908152604080832088845282528083208151601f88018490048402810184019092528682529291611a349190889088908190840183828082843760009201919091525061484e92505050565b90508315801590611a455750838114155b15611a635760405163016c02f160e61b815260040160405180910390fd5b600182015460028301805460009190611a7b90615f5b565b6001860185905591505060028401611a94888a83616163565b504260038501819055600480860180546001600160a01b0319163317905560028701919091558501548790611aca908390616121565b611ad4919061610e565b6004860155611ae28a61487e565b604080518381526020810185905233918b918d917f065c2222316af985857085b11b199dc175990521803ca44d2ab1a4ef4c0ea6ef910160405180910390a45050505050611b306001600b55565b5050505050565b6000611b4260085490565b8210611b6b5760405163295f44f760e21b81526000600482015260248101839052604401611058565b60088281548110611b7e57611b7e616134565b90600052602060002001549050919050565b60608060008080888881611bb75760405163e5d242ed60e01b815260040160405180910390fd5b801580611bd157506000828152600c602052604090205481115b15611bef57604051630dd4272d60e41b815260040160405180910390fd5b6064881115611c1157604051630327a73960e61b815260040160405180910390fd5b60008b8152601b602090815260408083208d845290915281208054965090899003611c5d5750604080516000808252602082018181528284019093529098509096509350889250611dd7565b858a10611c8b5750604080516000808252602082018181528284019093529098509096509350849250611dd7565b6000611c978a8c61610e565b905086811115611ca45750855b6000611cb08c83616121565b9050806001600160401b03811115611cca57611cca615c6f565b604051908082528060200260200182016040528015611cf3578160200160208202803683370190505b509950806001600160401b03811115611d0e57611d0e615c6f565b604051908082528060200260200182016040528015611d37578160200160208202803683370190505b50985060005b81811015611dcc57600084828f611d54919061610e565b81548110611d6457611d64616134565b9060005260206000209060020201905080600001548c8381518110611d8b57611d8b616134565b60200260200101818152505080600101548b8381518110611dae57611dae616134565b60209081029190910101525080611dc48161614a565b915050611d3d565b505086811095509350505b5050945094509450945094565b6000610d6b826141d4565b600c6020528160005260406000208181548110611e0b57600080fd5b600091825260209091206009909102018054600182015460028301546003840154600485015460058601546006870154600788018054979a5095985093969295919490936001600160a01b03811693600160a01b9091046001600160601b031692909190611e7890615f5b565b80601f0160208091040260200160405190810160405280929190818152602001828054611ea490615f5b565b8015611ef15780601f10611ec657610100808354040283529160200191611ef1565b820191906000526020600020905b815481529060010190602001808311611ed457829003601f168201915b505050505090806008018054611f0690615f5b565b80601f0160208091040260200160405190810160405280929190818152602001828054611f3290615f5b565b8015611f7f5780601f10611f5457610100808354040283529160200191611f7f565b820191906000526020600020905b815481529060010190602001808311611f6257829003601f168201915b505050505090508a565b611f91614824565b848481611fb15760405163e5d242ed60e01b815260040160405180910390fd5b801580611fcb57506000828152600c602052604090205481115b15611fe957604051630dd4272d60e41b815260040160405180910390fd5b6000611ff6600188616121565b60008981526016602090815260408083208484529091529020549091501561203157604051634028e5e560e11b815260040160405180910390fd5b6000888152600f60209081526040808320338452909152902054871461206a5760405163786bb09f60e11b815260040160405180910390fd5b61010085111561208d576040516313f04adb60e01b815260040160405180910390fd5b61209a60c085018561621c565b6120a4908061623c565b90506000036120c657604051635f895cef60e11b815260040160405180910390fd5b6101006120d660c086018661621c565b6120e0908061623c565b9050111561210157604051635f895cef60e11b815260040160405180910390fd5b61010061211160c086018661621c565b61211f9060e081019061623c565b905011156121405760405163f283c51960e01b815260040160405180910390fd5b61010061215060c086018661621c565b61215e90602081019061623c565b9050111561217f576040516367181a3960e11b815260040160405180910390fd5b61010061218f60c086018661621c565b61219d9060c081019061623c565b905011156121be57604051633769847160e01b815260040160405180910390fd5b60006121d2610b9736879003870187615db8565b90508881146121f457604051632f38f48f60e21b815260040160405180910390fd5b7f00000000000000000000000000000000000000000000000000000000000000006001600160a01b0316635fe8c13b8e8e8e8e6040518563ffffffff1660e01b815260040161224694939291906162a6565b602060405180830381865afa158015612263573d6000803e3d6000fd5b505050506040513d601f19601f8201168201806040525081019061228791906162d7565b6122a4576040516303b2487b60e11b815260040160405180910390fd5b60006122b98b358c60015b6020020135614946565b9050853581146122dc57604051632f38f48f60e21b815260040160405180910390fd5b60006122ee60408d01358d60036122af565b9050600061234661230260c08a018a61621c565b61230c908061623c565b8080601f01602080910402602001604051908101604052809392919081815260200183838082843760009201919091525061484e92505050565b905081811461236857604051632f38f48f60e21b815260040160405180910390fd5b60006010600081546123799061614a565b9182905550905061238a3382614986565b6123ca818c8c8080601f01602080910402602001604051908101604052809392919081815260200183838082843760009201919091525061423492505050565b8c60116000838152602001908152602001600020819055508b601260008381526020019081526020016000208190555080601660008f81526020019081526020016000206000888152602001908152602001600020819055508860136000838152602001908152602001600020818161244391906164d4565b905050336001600160a01b0316818e7fbce71c21e84db5e7dca78ea57ad63b6c66f74f74efc25e33592370ecf39e093b8f8f8f4260405161248794939291906165bd565b60405180910390a450505050505050506117016001600b55565b60006001600160a01b0382166124cd576040516322718ad960e21b815260006004820152602401611058565b506001600160a01b031660009081526003602052604090205490565b6124f16149a0565b6124fb60006149cd565b565b6040805160a08101825260008082526020820181905291810182905260608101829052608081018290529061253183614219565b6001600160a01b031603612558576040516307ed98ed60e31b815260040160405180910390fd5b50600090815260176020908152604091829020825160a08101845281548152600182015492810192909252600281015492820192909252600382015460ff1615156060820152600490910154608082015290565b336125b682614219565b6001600160a01b0316146125dd5760405163daffd8a560e01b815260040160405180910390fd5b6000818152601760205260409020600381015460ff161561261157604051631fcb6b9160e01b815260040160405180910390fd5b805460000361263357604051637dc66bf560e11b815260040160405180910390fd5b60038101805460ff19166001908117909155426002830155815490820154604051339285927f896066547269dcd0db6295ca6c7f14f927d692103e47c7615259469b74bc7b5d9261268e929190918252602082015260400190565b60405180910390a35050565b6000806126a5615117565b6126ad61516d565b60006060816126bb88614219565b6001600160a01b0316036126e2576040516307ed98ed60e31b815260040160405180910390fd5b600087815260116020526040902054955085612711576040516307ed98ed60e31b815260040160405180910390fd5b600087815260126020526040812054955061272d600187616121565b6000888152600c602052604090208054919250908290811061275157612751616134565b600091825260209182902060408051610140810182526009909302909101805483526001810154938301939093526002830154908201526003820154606082015260048201546080820152600582015460a082015260068201546001600160a01b03811660c08301526001600160601b03600160a01b9091041660e0820152600782018054919291610100840191906127e990615f5b565b80601f016020809104026020016040519081016040528092919081815260200182805461281590615f5b565b80156128625780601f1061283757610100808354040283529160200191612862565b820191906000526020600020905b81548152906001019060200180831161284557829003601f168201915b5050505050815260200160088201805461287b90615f5b565b80601f01602080910402602001604051908101604052809291908181526020018280546128a790615f5b565b80156128f45780601f106128c9576101008083540402835291602001916128f4565b820191906000526020600020905b8154815290600101906020018083116128d757829003601f168201915b50505091909252505050600089815260136020908152604091829020825161010080820185528254828601908152600184015460ff8082161515606086015261ffff84830416608086015263010000008204811660a08601526401000000008204811660c0860152650100000000009091041660e084015282528451908101909452600282018054959a509094919392850192918290829061299590615f5b565b80601f01602080910402602001604051908101604052809291908181526020018280546129c190615f5b565b8015612a0e5780601f106129e357610100808354040283529160200191612a0e565b820191906000526020600020905b8154815290600101906020018083116129f157829003601f168201915b50505050508152602001600182018054612a2790615f5b565b80601f0160208091040260200160405190810160405280929190818152602001828054612a5390615f5b565b8015612aa05780601f10612a7557610100808354040283529160200191612aa0565b820191906000526020600020905b815481529060010190602001808311612a8357829003601f168201915b5050509183525050600282015460ff8082161515602084015261ffff6101008304166040840152630100000082048116606084015264010000000090910416608082015260038201805460a090920191612af990615f5b565b80601f0160208091040260200160405190810160405280929190818152602001828054612b2590615f5b565b8015612b725780601f10612b4757610100808354040283529160200191612b72565b820191906000526020600020905b815481529060010190602001808311612b5557829003601f168201915b50505050508152602001600482018054612b8b90615f5b565b80601f0160208091040260200160405190810160405280929190818152602001828054612bb790615f5b565b8015612c045780601f10612bd957610100808354040283529160200191612c04565b820191906000526020600020905b815481529060010190602001808311612be757829003601f168201915b505050919092525050509052506000888152601a602090815260408083208584529091529020549094509250612c398861397e565b91505091939550919395565b606060008060006064851115612c6e57604051630327a73960e61b815260040160405180910390fd5b6000878152600c602052604081208054945090869003612cc957604080516000808252602082019092529061146f565b612ca6615117565b815260200190600190039081612c9e579050509450600092508691506116829050565b838710612d115760408051600080825260208201909252906114b8565b612cee615117565b815260200190600190039081612ce6579050509450600092508391506116829050565b6000612d1d878961610e565b905084811115612d2a5750835b6000612d368983616121565b9050806001600160401b03811115612d5057612d50615c6f565b604051908082528060200260200182016040528015612d8957816020015b612d76615117565b815260200190600190039081612d6e5790505b50965060005b818110156116775783612da2828c61610e565b81548110612db257612db2616134565b600091825260209182902060408051610140810182526009909302909101805483526001810154938301939093526002830154908201526003820154606082015260048201546080820152600582015460a082015260068201546001600160a01b03811660c08301526001600160601b03600160a01b9091041660e082015260078201805491929161010084019190612e4a90615f5b565b80601f0160208091040260200160405190810160405280929190818152602001828054612e7690615f5b565b8015612ec35780601f10612e9857610100808354040283529160200191612ec3565b820191906000526020600020905b815481529060010190602001808311612ea657829003601f168201915b50505050508152602001600882018054612edc90615f5b565b80601f0160208091040260200160405190810160405280929190818152602001828054612f0890615f5b565b8015612f555780601f10612f2a57610100808354040283529160200191612f55565b820191906000526020600020905b815481529060010190602001808311612f3857829003601f168201915b505050505081525050888281518110612f7057612f70616134565b60200260200101819052508080612f869061614a565b915050612d8f565b606060018054610d8090615f5b565b610e37338383614a1f565b60196020528160005260406000208181548110612fc457600080fd5b90600052602060002001600091509150505481565b612fe1614824565b33612feb86614219565b6001600160a01b0316146130125760405163daffd8a560e01b815260040160405180910390fd5b81158061302057506103e882115b1561303e57604051630ef9fbf360e21b815260040160405180910390fd5b6000858152601760205260409020600381015460ff161561307257604051631fcb6b9160e01b815260040160405180910390fd5b805460641161309457604051637df0b86160e01b815260040160405180910390fd5b805485146130b557604051637df0b86160e01b815260040160405180910390fd5b60006130f685858080601f01602080910402602001604051908101604052809392919081815260200183838082843760009201919091525061484e92505050565b905082158015906131075750828114155b156131255760405163016c02f160e61b815260040160405180910390fd5b600087815260186020908152604080832089845290915290208681556001810182905560028101613157868883616163565b504260038201556004810180546001600160a01b03191633179055825461317f90600161610e565b8355426002840155600483015461319790869061610e565b60048401556000888152601960209081526040822080546001810182559083529120018790556131c68861487e565b6040805183815260208101879052339189918b917f9a8c5a1082b04a31158c2062cc003f0764f93a8614a3643f01df8346f0c39f8d910160405180910390a4505050611b306001600b55565b60c0870135338114613237576040516303b2487b60e11b815260040160405180910390fd5b60405163c894e75760e01b81526001600160a01b037f0000000000000000000000000000000000000000000000000000000000000000169063c894e75790613289908e908e908e908e906004016165e8565b602060405180830381865afa1580156132a6573d6000803e3d6000fd5b505050506040513d601f19601f820116820180604052508101906132ca91906162d7565b6132e7576040516303b2487b60e11b815260040160405180910390fd5b60006132fe6132f98a358b60016122af565b614abe565b905060006133156132f960408c01358c60036122af565b9050600061332c6132f960808d01358d60056122af565b604051909150339084907f3015fe19dc9f8f0d942de39092410a57589dd94d2c9134719335fe04e3695eca90600090a361336d8383838d8d8d8d8d8d614321565b5050505050505050505050505050565b81818161339d5760405163e5d242ed60e01b815260040160405180910390fd5b8015806133b757506000828152600c602052604090205481115b156133d557604051630dd4272d60e41b815260040160405180910390fd5b6000848152600f602090815260408083203384529091529020548381036133fc57506110bc565b6000613409600186616121565b905060007f00000000000000000000000000000000000000000000000000000000000000006001600160a01b0316636bf90c716040518163ffffffff1660e01b8152600401602060405180830381865afa15801561346b573d6000803e3d6000fd5b505050506040513d601f19601f8201168201806040525081019061348f9190616619565b905080156135f4576000878152600c602052604081208054849081106134b7576134b7616134565b600091825260208083208b84526016825260408085208886529092529083205460099092020192509081156135215760006134f183614219565b90506001600160a01b0381161561350a5780915061351b565b60068401546001600160a01b031691505b50613531565b5060068201546001600160a01b03165b6040516323b872dd60e01b81523360048201526001600160a01b038281166024830152604482018690526000917f0000000000000000000000000000000000000000000000000000000000000000909116906323b872dd906064016020604051808303816000875af11580156135ab573d6000803e3d6000fd5b505050506040513d601f19601f820116820180604052508101906135cf91906162d7565b9050806135ef57604051635da1e97760e11b815260040160405180910390fd5b505050505b8215613653576000613607600185616121565b6000898152601a60209081526040808320848452909152902054909150801561365057613635600182616121565b60008a8152601a602090815260408083208684529091529020555b50505b6000878152601a60209081526040808320858452909152812080546001929061367d90849061610e565b90915550506000878152600f6020908152604080832033808552908352928190208990558051898152918201849052429082015288907f55e71c43a79fd68c0c9f416c70da96b84745f57bf4c2456beb089b4ad7bb3ac89060600160405180910390a350505050505050565b6136f4848484611032565b6110bc3385858585614ad3565b613709615117565b60008084848161372c5760405163e5d242ed60e01b815260040160405180910390fd5b80158061374657506000828152600c602052604090205481115b1561376457604051630dd4272d60e41b815260040160405180910390fd5b6000613771600188616121565b6000898152600c602052604090208054919250908290811061379557613795616134565b600091825260209182902060408051610140810182526009909302909101805483526001810154938301939093526002830154908201526003820154606082015260048201546080820152600582015460a082015260068201546001600160a01b03811660c08301526001600160601b03600160a01b9091041660e08201526007820180549192916101008401919061382d90615f5b565b80601f016020809104026020016040519081016040528092919081815260200182805461385990615f5b565b80156138a65780601f1061387b576101008083540402835291602001916138a6565b820191906000526020600020905b81548152906001019060200180831161388957829003601f168201915b505050505081526020016008820180546138bf90615f5b565b80601f01602080910402602001604051908101604052809291908181526020018280546138eb90615f5b565b80156139385780601f1061390d57610100808354040283529160200191613938565b820191906000526020600020905b81548152906001019060200180831161391b57829003601f168201915b505050919092525050506000898152601a602090815260408083208584528252808320549b83526016825280832094835293905291909120549098909650945050505050565b6060613989826141d4565b50600082815260146020526040902080546139a390615f5b565b80601f01602080910402602001604051908101604052809291908181526020018280546139cf90615f5b565b8015613a1c5780601f106139f157610100808354040283529160200191613a1c565b820191906000526020600020905b8154815290600101906020018083116139ff57829003601f168201915b50505050509050919050565b8051600090613a4a57604051635f895cef60e11b815260040160405180910390fd5b600c826060015160ff161115613a73576040516348c5148960e11b815260040160405180910390fd5b601f826080015160ff161115613a9c576040516309eabf7d60e21b815260040160405180910390fd5b81516020830151608082901c916fffffffffffffffffffffffffffffffff1690600090613aca576000613acd565b60015b60ff1660018660a0015160ff16901b6008876080015160ff16901b6010886060015160ff16901b6018896040015161ffff16901b171717179050613b0f615205565b838152602081018390526040808201839052516320cf0a3760e01b815260009073__$fc5a2451f3e054f75c2faf9b3818033d8b$__906320cf0a3790613b59908590600401616632565b602060405180830381865af4158015613b76573d6000803e3d6000fd5b505050506040513d601f19601f82011682018060405250810190613b9a9190616619565b905080613ba681614abe565b98975050505050505050565b601860209081526000928352604080842090915290825290208054600182015460028301805492939192613be590615f5b565b80601f0160208091040260200160405190810160405280929190818152602001828054613c1190615f5b565b8015613c5e5780601f10613c3357610100808354040283529160200191613c5e565b820191906000526020600020905b815481529060010190602001808311613c4157829003601f168201915b5050505060038301546004909301549192916001600160a01b0316905085565b6001600160a01b03918216600090815260056020908152604080832093909416825291909152205460ff1690565b613cb46150dc565b6000613cbf84614219565b6001600160a01b031603613ce6576040516307ed98ed60e31b815260040160405180910390fd5b600083815260176020526040902080548310613d1557604051637df0b86160e01b815260040160405180910390fd5b6018600085815260200190815260200160002060008481526020019081526020016000206040518060a00160405290816000820154815260200160018201548152602001600282018054613d6890615f5b565b80601f0160208091040260200160405190810160405280929190818152602001828054613d9490615f5b565b8015613de15780601f10613db657610100808354040283529160200191613de1565b820191906000526020600020905b815481529060010190602001808311613dc457829003601f168201915b5050509183525050600382015460208201526004909101546001600160a01b0316604090910152949350505050565b613e186149a0565b6001600160a01b038116613e4257604051631e4fbdf760e01b815260006004820152602401611058565b613e4b816149cd565b50565b606080606060008060006064871115613e7a57604051630327a73960e61b815260040160405180910390fd5b6000898152600c602052604081208054945090889003613ec457505060408051600080825260208201818152828401828152606084019094529197509095509093509050866140bf565b838910613efb57505060408051600080825260208201818152828401828152606084019094529197509095509093509050816140bf565b6000613f07898b61610e565b905084811115613f145750835b6000613f208b83616121565b9050806001600160401b03811115613f3a57613f3a615c6f565b604051908082528060200260200182016040528015613f63578160200160208202803683370190505b509850806001600160401b03811115613f7e57613f7e615c6f565b604051908082528060200260200182016040528015613fa7578160200160208202803683370190505b509750806001600160401b03811115613fc257613fc2615c6f565b604051908082528060200260200182016040528015613feb578160200160208202803683370190505b50965060005b818110156140b4576000614005828e61610e565b905061401281600161610e565b8b838151811061402457614024616134565b60209081029190910181019190915260008f8152601a8252604080822084835290925220548a518b908490811061405d5761405d616134565b60209081029190910181019190915260008f8152601682526040808220848352909252205489518a908490811061409657614096616134565b602090810291909101015250806140ac8161614a565b915050613ff1565b505084811093509150505b93975093979195509350565b601560205281600052604060002081815481106140e757600080fd5b9060005260206000200160009150915050805461410390615f5b565b80601f016020809104026020016040519081016040528092919081815260200182805461412f90615f5b565b801561417c5780601f106141515761010080835404028352916020019161417c565b820191906000526020600020905b81548152906001019060200180831161415f57829003601f168201915b505050505081565b60006001600160e01b031982166380ac58cd60e01b14806141b557506001600160e01b03198216635b5e139f60e01b145b80610d6b57506301ffc9a760e01b6001600160e01b0319831614610d6b565b6000806141e083614219565b90506001600160a01b038116610d6b57604051637e27328960e01b815260048101849052602401611058565b6119208383836001614bfd565b6000908152600260205260409020546001600160a01b031690565b60008281526014602052604090206119208282615ff0565b60008061425a858585614d03565b90506001600160a01b0381166142b7576142b284600880546000838152600960205260408120829055600182018355919091527ff3f7a9fe364faab93b216da50a3214154f22a0a2b415b23a84c8169e8b636ee30155565b6142da565b846001600160a01b0316816001600160a01b0316146142da576142da8185614df7565b6001600160a01b0385166142f6576142f184614e78565b614319565b846001600160a01b0316816001600160a01b031614614319576143198585614f27565b949350505050565b61010083111561434457604051635fab396360e11b815260040160405180910390fd5b61010081111561436757604051630601a0fb60e51b815260040160405180910390fd5b6000888152600c602052604090205486111561439657604051631f9510eb60e01b815260040160405180910390fd5b6000878152600c60205260409020548511156143c55760405163782ce69f60e01b815260040160405180910390fd5b6000898989898989896040516020016143e49796959493929190616663565b60408051601f19818403018152918152815160209283012060008d8152600e845282812082825290935291205490915060ff1615614435576040516314396b6760e11b815260040160405180910390fd5b60008a8152600e602090815260408083208484528252808320805460ff191660011790558c8352600c82528083208151610140810183528e81528084018e90528083018d90526060810194909452608084018b905260a084018a90523360c08501526001600160601b03421660e08501528151601f89018490048402810184019092528782529291610100830191908990899081908401838280828437600092019190915250505090825250604080516020601f8801819004810282018101909252868152918101919087908790819084018382808284376000920182905250939094525050835460018181018655948252602091829020845160099092020190815590830151938101939093555060408101516002830155606081015160038301556080810151600483015560a0810151600583015560c081015160e08201516001600160601b0316600160a01b026001600160a01b0390911617600683015561010081015190919060078201906145ae9082615ff0565b5061012082015160088201906145c49082615ff0565b50505060008a8152600c6020526040902080549081906145e5600183616121565b815481106145f5576145f5616134565b6000918252602090912060036009909202010155891561465c5760008a8152601b602090815260408083208b8452825280832081518083019092528e8252818301858152815460018181018455928652939094209151600290930290910191825591519101555b88156146af576000898152601b602090815260408083208a8452825280832081518083019092528e8252818301858152815460018181018455928652939094209151600290930290910191825591519101555b806001036146cd57600d80549060006146c78361614a565b91905055505b336001600160a01b0316818c7ff24ca8fe8e48960e559267341f81e7b0f07746d1e98c729930fe251bd2875484428e8d8f8e8e8e6040516147149796959493929190616699565b60405180910390a46147258a614f77565b8015614735575061473589614f77565b15614817576040516335313c2160e11b81523360048201526000907f00000000000000000000000000000000000000000000000000000000000000006001600160a01b031690636a627842906024016020604051808303816000875af11580156147a3573d6000803e3d6000fd5b505050506040513d601f19601f820116820180604052508101906147c79190616619565b9050801561481557818c336001600160a01b03167fdefc43c3e9b037326c59d7c3f29c0b6b5c94a6fbfcced006b763e74a3115da6d8460405161480c91815260200190565b60405180910390a45b505b5050505050505050505050565b6002600b540361484757604051633ee5aeb560e01b815260040160405180910390fd5b6002600b55565b60008160405160200161486191906166cb565b604051602081830303815290604052805190602001209050919050565b60008181526017602090815260408083206019909252822080549192909190036148ae5750600060019091015550565b606060005b82548110156149305760008382815481106148d0576148d0616134565b600091825260208083209091015488835260188252604080842082855283529283902060010154925190935061490a9186918491016166dd565b6040516020818303038152906040529350505080806149289061614a565b9150506148b3565b5080516020909101206001909201919091555050565b6000608083901c15158061495d5750608082901c15155b1561497b576040516303b2487b60e11b815260040160405180910390fd5b5060809190911b1790565b610e37828260405180602001604052806000815250614f98565b600a546001600160a01b031633146124fb5760405163118cdaa760e01b8152336004820152602401611058565b600a80546001600160a01b038381166001600160a01b0319831681179093556040519116919082907f8be0079c531659141344cd1fd0a4f28419497f9722a3daafe3b4186f6b6457e090600090a35050565b6001600160a01b038216614a5157604051630b61174360e31b81526001600160a01b0383166004820152602401611058565b6001600160a01b03838116600081815260056020908152604080832094871680845294825291829020805460ff191686151590811790915591519182527f17307eab39ab6107e8899845ad3d59bd9653f200f220920489ca2b5937696c31910160405180910390a3505050565b60008160405160200161486191815260200190565b6001600160a01b0383163b15611b3057604051630a85bd0160e11b81526001600160a01b0384169063150b7a0290614b159088908890879087906004016166ff565b6020604051808303816000875af1925050508015614b50575060408051601f3d908101601f19168201909252614b4d91810190616732565b60015b614bb9573d808015614b7e576040519150601f19603f3d011682016040523d82523d6000602084013e614b83565b606091505b508051600003614bb157604051633250574960e11b81526001600160a01b0385166004820152602401611058565b805160208201fd5b6001600160e01b03198116630a85bd0160e11b14614bf557604051633250574960e11b81526001600160a01b0385166004820152602401611058565b505050505050565b8080614c1157506001600160a01b03821615155b15614cd3576000614c21846141d4565b90506001600160a01b03831615801590614c4d5750826001600160a01b0316816001600160a01b031614155b8015614c605750614c5e8184613c7e565b155b15614c895760405163a9fbf51f60e01b81526001600160a01b0384166004820152602401611058565b8115614cd15783856001600160a01b0316826001600160a01b03167f8c5be1e5ebec7d5bd14f71427d1e84f3dd0314c0f7b2291e5b200ac8c7c3b92560405160405180910390a45b505b5050600090815260046020526040902080546001600160a01b0319166001600160a01b0392909216919091179055565b600080614d0f84614219565b90506001600160a01b03831615614d2b57614d2b818486614fb0565b6001600160a01b03811615614d6957614d48600085600080614bfd565b6001600160a01b038116600090815260036020526040902080546000190190555b6001600160a01b03851615614d98576001600160a01b0385166000908152600360205260409020805460010190555b60008481526002602052604080822080546001600160a01b0319166001600160a01b0389811691821790925591518793918516917fddf252ad1be2c89b69c2b068fc378daa952ba7f163c4a11628f55a4df523b3ef91a4949350505050565b6000614e02836124a1565b6000838152600760209081526040808320546001600160a01b0388168452600690925290912091925090818314614e5957600083815260208281526040808320548584528184208190558352600790915290208290555b6000938452600760209081526040808620869055938552525081205550565b600854600090614e8a90600190616121565b60008381526009602052604081205460088054939450909284908110614eb257614eb2616134565b906000526020600020015490508060088381548110614ed357614ed3616134565b6000918252602080832090910192909255828152600990915260408082208490558582528120556008805480614f0b57614f0b61674f565b6001900381819060005260206000200160009055905550505050565b60006001614f34846124a1565b614f3e9190616121565b6001600160a01b039093166000908152600660209081526040808320868452825280832085905593825260079052919091209190915550565b60008115801590610d6b5750506000908152600c6020526040902054151590565b614fa28383615014565b611920336000858585614ad3565b614fbb838383615079565b611920576001600160a01b038316614fe957604051637e27328960e01b815260048101829052602401611058565b60405163177e802f60e01b81526001600160a01b038316600482015260248101829052604401611058565b6001600160a01b03821661503e57604051633250574960e11b815260006004820152602401611058565b600061504c8383600061424c565b90506001600160a01b03811615611920576040516339e3563760e11b815260006004820152602401611058565b60006001600160a01b038316158015906143195750826001600160a01b0316846001600160a01b031614806150b357506150b38484613c7e565b806143195750506000908152600460205260409020546001600160a01b03908116911614919050565b6040518060a001604052806000815260200160008019168152602001606081526020016000815260200160006001600160a01b031681525090565b604080516101408101825260008082526020820181905291810182905260608082018390526080820183905260a0820183905260c0820183905260e0820192909252610100810182905261012081019190915290565b60408051610100810182526000918101828152606082018390526080820183905260a0820183905260c0820183905260e082019290925290819081526020016152006040518061010001604052806060815260200160608152602001600015158152602001600061ffff168152602001600060ff168152602001600060ff16815260200160608152602001606081525090565b905290565b60405180606001604052806003906020820280368337509192915050565b6001600160e01b031981168114613e4b57600080fd5b60006020828403121561524b57600080fd5b813561525681615223565b9392505050565b60005b83811015615278578181015183820152602001615260565b50506000910152565b6000815180845261529981602086016020860161525d565b601f01601f19169290920160200192915050565b6020815260006152566020830184615281565b6000602082840312156152d257600080fd5b5035919050565b80356001600160a01b03811681146152f057600080fd5b919050565b6000806040838503121561530857600080fd5b615311836152d9565b946020939093013593505050565b6000806040838503121561533257600080fd5b50508035926020909101359150565b60008060006060848603121561535657600080fd5b505081359360208301359350604090920135919050565b60008083601f84011261537f57600080fd5b5081356001600160401b0381111561539657600080fd5b6020830191508360208285010111156153ae57600080fd5b9250929050565b6000806000604084860312156153ca57600080fd5b8335925060208401356001600160401b038111156153e757600080fd5b6153f38682870161536d565b9497909650939450505050565b60008060006060848603121561541557600080fd5b61541e846152d9565b925061542c602085016152d9565b9150604084013590509250925092565b8051825260208101511515602083015261ffff604082015116604083015260ff606082015116606083015260ff608082015116608083015260ff60a08201511660a08301525050565b6000610100825181855261549b82860182615281565b915050602083015184820360208601526154b58282615281565b91505060408301516154cb604086018215159052565b5060608301516154e1606086018261ffff169052565b5060808301516154f6608086018260ff169052565b5060a083015161550b60a086018260ff169052565b5060c083015184820360c08601526155238282615281565b91505060e083015184820360e086015261553d8282615281565b95945050505050565b615550818461543c565b60e060c0820152600061431960e0830184615485565b80518252602081015160208301526000604082015160a0604085015261558f60a0850182615281565b606084810151908601526080938401516001600160a01b031693909401929092525090919050565b6000608082016080835280875180835260a08501915060a08160051b86010192506020808a0160005b8381101561560e57609f198887030185526155fc868351615566565b955093820193908201906001016155e0565b5050850197909752509315156040830152506060015292915050565b600080600080600080600080600060e08a8c03121561564857600080fd5b8935985060208a0135975060408a0135965060608a0135955060808a0135945060a08a01356001600160401b038082111561568257600080fd5b61568e8d838e0161536d565b909650945060c08c01359150808211156156a757600080fd5b506156b48c828d0161536d565b915080935050809150509295985092959850929598565b6000608082016080835280875180835260a08501915060a08160051b86010192506020808a0160005b8381101561560e57609f19888703018552615710868351615281565b955093820193908201906001016156f4565b60008060008060006080868803121561573a57600080fd5b853594506020860135935060408601356001600160401b0381111561575e57600080fd5b61576a8882890161536d565b96999598509660600135949350505050565b6000806000806080858703121561579257600080fd5b5050823594602084013594506040840135936060013592509050565b600081518084526020808501945080840160005b838110156157de578151875295820195908201906001016157c2565b509495945050505050565b60a0808252865190820181905260009060209060c0840190828a01845b8281101561582257815184529284019290840190600101615806565b5050508381038285015261583681896157ae565b6040850197909752505050911515606083015260809091015292915050565b60006101408c83528b60208401528a60408401528960608401528860808401528760a084015260018060a01b03871660c08401526001600160601b03861660e0840152806101008401526158ab81840186615281565b90508281036101208401526158c08185615281565b9d9c50505050505050505050505050565b8060408101831015610d6b57600080fd5b8060808101831015610d6b57600080fd5b60008060008060008060008060006102008a8c03121561591257600080fd5b61591c8b8b6158d1565b985061592b8b60408c016158e2565b975061593a8b60c08c016158d1565b965061594a8b6101008c016158e2565b95506101808a013594506101a08a013593506101c08a01356001600160401b038082111561597757600080fd5b6159838d838e0161536d565b90955093506101e08c013591508082111561599d57600080fd5b508a0160e0818d0312156159b057600080fd5b809150509295985092959850929598565b6000602082840312156159d357600080fd5b615256826152d9565b6000610140825184526020830151602085015260408301516040850152606083015160608501526080830151608085015260a083015160a085015260c0830151615a3160c08601826001600160a01b03169052565b5060e0830151615a4c60e08601826001600160601b03169052565b50610100808401518282870152615a6583870182615281565b925050506101208084015185830382870152615a818382615281565b9695505050505050565b86815285602082015260c060408201526000615aaa60c08301876159dc565b8281036060840152615abd81875161543c565b602086015160e060c0830152615ad660e0830182615485565b91505084608084015282810360a0840152615af18185615281565b9998505050505050505050565b6000608082016080835280875180835260a08501915060a08160051b86010192506020808a0160005b8381101561560e57609f19888703018552615b438683516159dc565b95509382019390820190600101615b27565b8015158114613e4b57600080fd5b60008060408385031215615b7657600080fd5b615b7f836152d9565b91506020830135615b8f81615b55565b809150509250929050565b6000806000806000806000806000806102608b8d031215615bba57600080fd5b615bc48c8c6158d1565b9950615bd38c60408d016158e2565b9850615be28c60c08d016158d1565b97506101e08b018c811115615bf657600080fd5b6101008c0197503595506102008b013594506102208b01356001600160401b0380821115615c2357600080fd5b615c2f8e838f0161536d565b90965094506102408d0135915080821115615c4957600080fd5b50615c568d828e0161536d565b915080935050809150509295989b9194979a5092959850565b634e487b7160e01b600052604160045260246000fd5b604051601f8201601f191681016001600160401b0381118282101715615cad57615cad615c6f565b604052919050565b60008060008060808587031215615ccb57600080fd5b615cd4856152d9565b93506020615ce38187016152d9565b93506040860135925060608601356001600160401b0380821115615d0657600080fd5b818801915088601f830112615d1a57600080fd5b813581811115615d2c57615d2c615c6f565b615d3e601f8201601f19168501615c85565b91508082528984828501011115615d5457600080fd5b808484018584013760008482840101525080935050505092959194509250565b606081526000615d8760608301866159dc565b60208301949094525060400152919050565b61ffff81168114613e4b57600080fd5b60ff81168114613e4b57600080fd5b600060c08284031215615dca57600080fd5b60405160c081018181106001600160401b0382111715615dec57615dec615c6f565b604052823581526020830135615e0181615b55565b60208201526040830135615e1481615d99565b60408201526060830135615e2781615da9565b60608201526080830135615e3a81615da9565b608082015260a0830135615e4d81615da9565b60a08201529392505050565b85815284602082015260a060408201526000615e7860a0830186615281565b6060830194909452506001600160a01b03919091166080909101529392505050565b60008060408385031215615ead57600080fd5b615eb6836152d9565b9150615ec4602084016152d9565b90509250929050565b6020815260006152566020830184615566565b60008060408385031215615ef357600080fd5b82359150615ec4602084016152d9565b60c081526000615f1660c08301896157ae565b8281036020840152615f2881896157ae565b90508281036040840152615f3c81886157ae565b60608401969096525050911515608083015260a0909101529392505050565b600181811c90821680615f6f57607f821691505b602082108103615f8f57634e487b7160e01b600052602260045260246000fd5b50919050565b601f82111561192057600081815260208120601f850160051c81016020861015615fbc5750805b601f850160051c820191505b81811015614bf557828155600101615fc8565b600019600383901b1c191660019190911b1790565b81516001600160401b0381111561600957616009615c6f565b61601d816160178454615f5b565b84615f95565b602080601f83116001811461604c576000841561603a5750858301515b6160448582615fdb565b865550614bf5565b600085815260208120601f198616915b8281101561607b5788860151825594840194600190910190840161605c565b50858210156160995787850151600019600388901b60f8161c191681555b5050505050600190811b01905550565b81835281816020850137506000828201602090810191909152601f909101601f19169091010190565b6040815260006160e56040830186615281565b8281036020840152615a818185876160a9565b634e487b7160e01b600052601160045260246000fd5b80820180821115610d6b57610d6b6160f8565b81810381811115610d6b57610d6b6160f8565b634e487b7160e01b600052603260045260246000fd5b60006001820161615c5761615c6160f8565b5060010190565b6001600160401b0383111561617a5761617a615c6f565b61618e836161888354615f5b565b83615f95565b6000601f8411600181146161bc57600085156161aa5750838201355b6161b48682615fdb565b845550611b30565b600083815260209020601f19861690835b828110156161ed57868501358255602094850194600190920191016161cd565b508682101561620a5760001960f88860031b161c19848701351681555b505060018560011b0183555050505050565b6000823560fe1983360301811261623257600080fd5b9190910192915050565b6000808335601e1984360301811261625357600080fd5b8301803591506001600160401b0382111561626d57600080fd5b6020019150368190038213156153ae57600080fd5b8060005b60028110156110bc57604080838637938401939190910190600101616286565b610180810160408683376162bd6040830186616282565b60408460c084013760808361010084013795945050505050565b6000602082840312156162e957600080fd5b815161525681615b55565b60008135610d6b81615b55565b60008135610d6b81615d99565b60008135610d6b81615da9565b616325828361623c565b6001600160401b0381111561633c5761633c615c6f565b6163508161634a8554615f5b565b85615f95565b6000601f82116001811461637e576000831561636c5750838201355b6163768482615fdb565b8655506163d8565b600085815260209020601f19841690835b828110156163af578685013582556020948501946001909201910161638f565b50848210156163cc5760001960f88660031b161c19848701351681555b505060018360011b0185555b505050506163e9602083018361623c565b6163f7818360018601616163565b50506002810161642061640c604085016162f4565b825490151560ff1660ff1991909116178255565b61644761642f60608501616301565b825462ffff00191660089190911b62ffff0016178255565b6164706164566080850161630e565b825463ff000000191660189190911b63ff00000016178255565b61649b61647f60a0850161630e565b825464ff00000000191660209190911b64ff0000000016178255565b506164a960c083018361623c565b6164b7818360038601616163565b50506164c660e083018361623c565b6110bc818360048601616163565b813581556001810160208301356164ea81615b55565b815460ff191660ff8215151617825550604083013561650881615d99565b815462ffff001916600882901b62ffff001617825550606083013561652c81615da9565b815463ff0000001916601882901b63ff0000001617825550608083013561655281615da9565b815464ff000000001916602082901b64ff00000000161782555060a083013561657a81615da9565b815465ff0000000000191660289190911b65ff00000000001617905560c08201353683900360fe190181126165ae57600080fd5b6119208184016002840161631b565b8481526060602082015260006165d76060830185876160a9565b905082604083015295945050505050565b6101e0810160408683376165ff6040830186616282565b60408460c084013760e08361010084013795945050505050565b60006020828403121561662b57600080fd5b5051919050565b60608101818360005b600381101561665a57815183526020928301929091019060010161663b565b50505092915050565b878152866020820152856040820152846060820152836080820152818360a08301376000910160a0019081529695505050505050565b87815286602082015285604082015284606082015283608082015260c060a08201526000615af160c0830184866160a9565b6000825161623281846020870161525d565b600083516166ef81846020880161525d565b9190910191825250602001919050565b6001600160a01b0385811682528416602082015260408101839052608060608201819052600090615a8190830184615281565b60006020828403121561674457600080fd5b815161525681615223565b634e487b7160e01b600052603160045260246000fdfea2646970667358221220b4ed27cbb9518a13984f6449cbe8a46520c689866979ef1c215a3edd55c8b73a64736f6c63430008140033",
  "linkReferences": {
    "poseidon-solidity/PoseidonT4.sol": {
      "PoseidonT4": [
        {
          "length": 20,
          "start": 16158
        }
      ]
    }
  },
  "deployedLinkReferences": {
    "poseidon-solidity/PoseidonT4.sol": {
      "PoseidonT4": [
        {
          "length": 20,
          "start": 15153
        }
      ]
    }
  }
}