{
  "_format": "hh-sol-artifact-1",
  "contractName": "DeepFamily",
  "sourceName": "contracts/DeepFamily.sol",
  "abi": [
    {
      "inputs": [
        {
          "internalType": "address",
          "name": "_deepFamilyTokenContract",
          "type": "address"
        },
        {
          "internalType": "address",
          "name": "_personHashVerifier",
          "type": "address"
        },
        {
          "internalType": "address",
          "name": "_namePoseidonVerifier",
          "type": "address"
        }
      ],
      "stateMutability": "nonpayable",
      "type": "constructor"
    },
    {
      "inputs": [],
      "name": "BasicInfoMismatch",
      "type": "error"
    },
    {
      "inputs": [],
      "name": "ChunkHashMismatch",
      "type": "error"
    },
    {
      "inputs": [],
      "name": "ChunkIndexOutOfRange",
      "type": "error"
    },
    {
      "inputs": [],
      "name": "DirectETHNotAccepted",
      "type": "error"
    },
    {
      "inputs": [],
      "name": "DuplicateVersion",
      "type": "error"
    },
    {
      "inputs": [],
      "name": "ERC721EnumerableForbiddenBatchMint",
      "type": "error"
    },
    {
      "inputs": [
        {
          "internalType": "address",
          "name": "sender",
          "type": "address"
        },
        {
          "internalType": "uint256",
          "name": "tokenId",
          "type": "uint256"
        },
        {
          "internalType": "address",
          "name": "owner",
          "type": "address"
        }
      ],
      "name": "ERC721IncorrectOwner",
      "type": "error"
    },
    {
      "inputs": [
        {
          "internalType": "address",
          "name": "operator",
          "type": "address"
        },
        {
          "internalType": "uint256",
          "name": "tokenId",
          "type": "uint256"
        }
      ],
      "name": "ERC721InsufficientApproval",
      "type": "error"
    },
    {
      "inputs": [
        {
          "internalType": "address",
          "name": "approver",
          "type": "address"
        }
      ],
      "name": "ERC721InvalidApprover",
      "type": "error"
    },
    {
      "inputs": [
        {
          "internalType": "address",
          "name": "operator",
          "type": "address"
        }
      ],
      "name": "ERC721InvalidOperator",
      "type": "error"
    },
    {
      "inputs": [
        {
          "internalType": "address",
          "name": "owner",
          "type": "address"
        }
      ],
      "name": "ERC721InvalidOwner",
      "type": "error"
    },
    {
      "inputs": [
        {
          "internalType": "address",
          "name": "receiver",
          "type": "address"
        }
      ],
      "name": "ERC721InvalidReceiver",
      "type": "error"
    },
    {
      "inputs": [
        {
          "internalType": "address",
          "name": "sender",
          "type": "address"
        }
      ],
      "name": "ERC721InvalidSender",
      "type": "error"
    },
    {
      "inputs": [
        {
          "internalType": "uint256",
          "name": "tokenId",
          "type": "uint256"
        }
      ],
      "name": "ERC721NonexistentToken",
      "type": "error"
    },
    {
      "inputs": [
        {
          "internalType": "address",
          "name": "owner",
          "type": "address"
        },
        {
          "internalType": "uint256",
          "name": "index",
          "type": "uint256"
        }
      ],
      "name": "ERC721OutOfBoundsIndex",
      "type": "error"
    },
    {
      "inputs": [],
      "name": "EndorsementFeeTransferFailed",
      "type": "error"
    },
    {
      "inputs": [],
      "name": "InvalidBirthDay",
      "type": "error"
    },
    {
      "inputs": [],
      "name": "InvalidBirthMonth",
      "type": "error"
    },
    {
      "inputs": [],
      "name": "InvalidBirthPlace",
      "type": "error"
    },
    {
      "inputs": [],
      "name": "InvalidCIDLength",
      "type": "error"
    },
    {
      "inputs": [],
      "name": "InvalidChunkContent",
      "type": "error"
    },
    {
      "inputs": [],
      "name": "InvalidDeathPlace",
      "type": "error"
    },
    {
      "inputs": [],
      "name": "InvalidFatherVersionIndex",
      "type": "error"
    },
    {
      "inputs": [],
      "name": "InvalidFullName",
      "type": "error"
    },
    {
      "inputs": [],
      "name": "InvalidMotherVersionIndex",
      "type": "error"
    },
    {
      "inputs": [],
      "name": "InvalidPersonHash",
      "type": "error"
    },
    {
      "inputs": [],
      "name": "InvalidStory",
      "type": "error"
    },
    {
      "inputs": [],
      "name": "InvalidTagLength",
      "type": "error"
    },
    {
      "inputs": [],
      "name": "InvalidTokenId",
      "type": "error"
    },
    {
      "inputs": [],
      "name": "InvalidTokenURI",
      "type": "error"
    },
    {
      "inputs": [],
      "name": "InvalidVersionIndex",
      "type": "error"
    },
    {
      "inputs": [],
      "name": "InvalidZKProof",
      "type": "error"
    },
    {
      "inputs": [],
      "name": "MustBeNFTHolder",
      "type": "error"
    },
    {
      "inputs": [],
      "name": "MustEndorseVersionFirst",
      "type": "error"
    },
    {
      "inputs": [],
      "name": "NameVerifierNotSet",
      "type": "error"
    },
    {
      "inputs": [
        {
          "internalType": "address",
          "name": "owner",
          "type": "address"
        }
      ],
      "name": "OwnableInvalidOwner",
      "type": "error"
    },
    {
      "inputs": [
        {
          "internalType": "address",
          "name": "account",
          "type": "address"
        }
      ],
      "name": "OwnableUnauthorizedAccount",
      "type": "error"
    },
    {
      "inputs": [],
      "name": "PageSizeExceedsLimit",
      "type": "error"
    },
    {
      "inputs": [],
      "name": "ReentrancyGuardReentrantCall",
      "type": "error"
    },
    {
      "inputs": [],
      "name": "StoryAlreadySealed",
      "type": "error"
    },
    {
      "inputs": [],
      "name": "StoryNotFound",
      "type": "error"
    },
    {
      "inputs": [],
      "name": "TokenContractNotSet",
      "type": "error"
    },
    {
      "inputs": [],
      "name": "VerifierNotSet",
      "type": "error"
    },
    {
      "inputs": [],
      "name": "VersionAlreadyMinted",
      "type": "error"
    },
    {
      "anonymous": false,
      "inputs": [
        {
          "indexed": true,
          "internalType": "address",
          "name": "owner",
          "type": "address"
        },
        {
          "indexed": true,
          "internalType": "address",
          "name": "approved",
          "type": "address"
        },
        {
          "indexed": true,
          "internalType": "uint256",
          "name": "tokenId",
          "type": "uint256"
        }
      ],
      "name": "Approval",
      "type": "event"
    },
    {
      "anonymous": false,
      "inputs": [
        {
          "indexed": true,
          "internalType": "address",
          "name": "owner",
          "type": "address"
        },
        {
          "indexed": true,
          "internalType": "address",
          "name": "operator",
          "type": "address"
        },
        {
          "indexed": false,
          "internalType": "bool",
          "name": "approved",
          "type": "bool"
        }
      ],
      "name": "ApprovalForAll",
      "type": "event"
    },
    {
      "anonymous": false,
      "inputs": [
        {
          "indexed": true,
          "internalType": "address",
          "name": "previousOwner",
          "type": "address"
        },
        {
          "indexed": true,
          "internalType": "address",
          "name": "newOwner",
          "type": "address"
        }
      ],
      "name": "OwnershipTransferred",
      "type": "event"
    },
    {
      "anonymous": false,
      "inputs": [
        {
          "indexed": true,
          "internalType": "bytes32",
          "name": "personHash",
          "type": "bytes32"
        },
        {
          "indexed": true,
          "internalType": "address",
          "name": "prover",
          "type": "address"
        }
      ],
      "name": "PersonHashZKVerified",
      "type": "event"
    },
    {
      "anonymous": false,
      "inputs": [
        {
          "indexed": true,
          "internalType": "bytes32",
          "name": "personHash",
          "type": "bytes32"
        },
        {
          "indexed": true,
          "internalType": "uint256",
          "name": "tokenId",
          "type": "uint256"
        },
        {
          "indexed": true,
          "internalType": "address",
          "name": "owner",
          "type": "address"
        },
        {
          "indexed": false,
          "internalType": "uint256",
          "name": "versionIndex",
          "type": "uint256"
        },
        {
          "indexed": false,
          "internalType": "string",
          "name": "tokenURI",
          "type": "string"
        },
        {
          "indexed": false,
          "internalType": "uint256",
          "name": "timestamp",
          "type": "uint256"
        }
      ],
      "name": "PersonNFTMinted",
      "type": "event"
    },
    {
      "anonymous": false,
      "inputs": [
        {
          "indexed": true,
          "internalType": "bytes32",
          "name": "personHash",
          "type": "bytes32"
        },
        {
          "indexed": true,
          "internalType": "uint256",
          "name": "versionIndex",
          "type": "uint256"
        },
        {
          "indexed": true,
          "internalType": "address",
          "name": "addedBy",
          "type": "address"
        },
        {
          "indexed": false,
          "internalType": "uint256",
          "name": "timestamp",
          "type": "uint256"
        },
        {
          "indexed": false,
          "internalType": "bytes32",
          "name": "fatherHash",
          "type": "bytes32"
        },
        {
          "indexed": false,
          "internalType": "uint256",
          "name": "fatherVersionIndex",
          "type": "uint256"
        },
        {
          "indexed": false,
          "internalType": "bytes32",
          "name": "motherHash",
          "type": "bytes32"
        },
        {
          "indexed": false,
          "internalType": "uint256",
          "name": "motherVersionIndex",
          "type": "uint256"
        },
        {
          "indexed": false,
          "internalType": "string",
          "name": "tag",
          "type": "string"
        }
      ],
      "name": "PersonVersionAdded",
      "type": "event"
    },
    {
      "anonymous": false,
      "inputs": [
        {
          "indexed": true,
          "internalType": "bytes32",
          "name": "personHash",
          "type": "bytes32"
        },
        {
          "indexed": true,
          "internalType": "address",
          "name": "endorser",
          "type": "address"
        },
        {
          "indexed": false,
          "internalType": "uint256",
          "name": "versionIndex",
          "type": "uint256"
        },
        {
          "indexed": false,
          "internalType": "uint256",
          "name": "endorsementFee",
          "type": "uint256"
        },
        {
          "indexed": false,
          "internalType": "uint256",
          "name": "timestamp",
          "type": "uint256"
        }
      ],
      "name": "PersonVersionEndorsed",
      "type": "event"
    },
    {
      "anonymous": false,
      "inputs": [
        {
          "indexed": true,
          "internalType": "uint256",
          "name": "tokenId",
          "type": "uint256"
        },
        {
          "indexed": true,
          "internalType": "uint256",
          "name": "chunkIndex",
          "type": "uint256"
        },
        {
          "indexed": false,
          "internalType": "bytes32",
          "name": "chunkHash",
          "type": "bytes32"
        },
        {
          "indexed": true,
          "internalType": "address",
          "name": "editor",
          "type": "address"
        },
        {
          "indexed": false,
          "internalType": "uint256",
          "name": "contentLength",
          "type": "uint256"
        }
      ],
      "name": "StoryChunkAdded",
      "type": "event"
    },
    {
      "anonymous": false,
      "inputs": [
        {
          "indexed": true,
          "internalType": "uint256",
          "name": "tokenId",
          "type": "uint256"
        },
        {
          "indexed": true,
          "internalType": "uint256",
          "name": "chunkIndex",
          "type": "uint256"
        },
        {
          "indexed": false,
          "internalType": "bytes32",
          "name": "oldHash",
          "type": "bytes32"
        },
        {
          "indexed": false,
          "internalType": "bytes32",
          "name": "newHash",
          "type": "bytes32"
        },
        {
          "indexed": true,
          "internalType": "address",
          "name": "editor",
          "type": "address"
        }
      ],
      "name": "StoryChunkUpdated",
      "type": "event"
    },
    {
      "anonymous": false,
      "inputs": [
        {
          "indexed": true,
          "internalType": "uint256",
          "name": "tokenId",
          "type": "uint256"
        },
        {
          "indexed": false,
          "internalType": "uint256",
          "name": "totalChunks",
          "type": "uint256"
        },
        {
          "indexed": false,
          "internalType": "bytes32",
          "name": "fullStoryHash",
          "type": "bytes32"
        },
        {
          "indexed": true,
          "internalType": "address",
          "name": "sealer",
          "type": "address"
        }
      ],
      "name": "StorySealed",
      "type": "event"
    },
    {
      "anonymous": false,
      "inputs": [
        {
          "indexed": true,
          "internalType": "address",
          "name": "miner",
          "type": "address"
        },
        {
          "indexed": true,
          "internalType": "bytes32",
          "name": "personHash",
          "type": "bytes32"
        },
        {
          "indexed": true,
          "internalType": "uint256",
          "name": "versionIndex",
          "type": "uint256"
        },
        {
          "indexed": false,
          "internalType": "uint256",
          "name": "reward",
          "type": "uint256"
        }
      ],
      "name": "TokenRewardDistributed",
      "type": "event"
    },
    {
      "anonymous": false,
      "inputs": [
        {
          "indexed": true,
          "internalType": "uint256",
          "name": "tokenId",
          "type": "uint256"
        },
        {
          "indexed": true,
          "internalType": "address",
          "name": "owner",
          "type": "address"
        },
        {
          "indexed": false,
          "internalType": "string",
          "name": "oldURI",
          "type": "string"
        },
        {
          "indexed": false,
          "internalType": "string",
          "name": "newURI",
          "type": "string"
        }
      ],
      "name": "TokenURIUpdated",
      "type": "event"
    },
    {
      "anonymous": false,
      "inputs": [
        {
          "indexed": true,
          "internalType": "address",
          "name": "from",
          "type": "address"
        },
        {
          "indexed": true,
          "internalType": "address",
          "name": "to",
          "type": "address"
        },
        {
          "indexed": true,
          "internalType": "uint256",
          "name": "tokenId",
          "type": "uint256"
        }
      ],
      "name": "Transfer",
      "type": "event"
    },
    {
      "stateMutability": "payable",
      "type": "fallback"
    },
    {
      "inputs": [],
      "name": "DEEP_FAMILY_TOKEN_CONTRACT",
      "outputs": [
        {
          "internalType": "address",
          "name": "",
          "type": "address"
        }
      ],
      "stateMutability": "view",
      "type": "function"
    },
    {
      "inputs": [],
      "name": "MAX_CHUNK_CONTENT_LENGTH",
      "outputs": [
        {
          "internalType": "uint256",
          "name": "",
          "type": "uint256"
        }
      ],
      "stateMutability": "view",
      "type": "function"
    },
    {
      "inputs": [],
      "name": "MAX_LONG_TEXT_LENGTH",
      "outputs": [
        {
          "internalType": "uint256",
          "name": "",
          "type": "uint256"
        }
      ],
      "stateMutability": "view",
      "type": "function"
    },
    {
      "inputs": [],
      "name": "MAX_QUERY_PAGE_SIZE",
      "outputs": [
        {
          "internalType": "uint256",
          "name": "",
          "type": "uint256"
        }
      ],
      "stateMutability": "view",
      "type": "function"
    },
    {
      "inputs": [],
      "name": "MAX_STORY_CHUNKS",
      "outputs": [
        {
          "internalType": "uint256",
          "name": "",
          "type": "uint256"
        }
      ],
      "stateMutability": "view",
      "type": "function"
    },
    {
      "inputs": [],
      "name": "NAME_POSEIDON_VERIFIER",
      "outputs": [
        {
          "internalType": "address",
          "name": "",
          "type": "address"
        }
      ],
      "stateMutability": "view",
      "type": "function"
    },
    {
      "inputs": [],
      "name": "PERSON_HASH_VERIFIER",
      "outputs": [
        {
          "internalType": "address",
          "name": "",
          "type": "address"
        }
      ],
      "stateMutability": "view",
      "type": "function"
    },
    {
      "inputs": [
        {
          "internalType": "uint256",
          "name": "",
          "type": "uint256"
        },
        {
          "internalType": "uint256",
          "name": "",
          "type": "uint256"
        }
      ],
      "name": "activeChunkIndices",
      "outputs": [
        {
          "internalType": "uint256",
          "name": "",
          "type": "uint256"
        }
      ],
      "stateMutability": "view",
      "type": "function"
    },
    {
      "inputs": [
        {
          "internalType": "bytes32",
          "name": "personHash",
          "type": "bytes32"
        },
        {
          "internalType": "bytes32",
          "name": "fatherHash",
          "type": "bytes32"
        },
        {
          "internalType": "bytes32",
          "name": "motherHash",
          "type": "bytes32"
        },
        {
          "internalType": "uint256",
          "name": "fatherVersionIndex",
          "type": "uint256"
        },
        {
          "internalType": "uint256",
          "name": "motherVersionIndex",
          "type": "uint256"
        },
        {
          "internalType": "string",
          "name": "tag",
          "type": "string"
        },
        {
          "internalType": "string",
          "name": "metadataCID",
          "type": "string"
        }
      ],
      "name": "addPerson",
      "outputs": [],
      "stateMutability": "nonpayable",
      "type": "function"
    },
    {
      "inputs": [
        {
          "internalType": "uint256[2]",
          "name": "a",
          "type": "uint256[2]"
        },
        {
          "internalType": "uint256[2][2]",
          "name": "b",
          "type": "uint256[2][2]"
        },
        {
          "internalType": "uint256[2]",
          "name": "c",
          "type": "uint256[2]"
        },
        {
          "internalType": "uint256[7]",
          "name": "publicSignals",
          "type": "uint256[7]"
        },
        {
          "internalType": "uint256",
          "name": "fatherVersionIndex",
          "type": "uint256"
        },
        {
          "internalType": "uint256",
          "name": "motherVersionIndex",
          "type": "uint256"
        },
        {
          "internalType": "string",
          "name": "tag",
          "type": "string"
        },
        {
          "internalType": "string",
          "name": "metadataCID",
          "type": "string"
        }
      ],
      "name": "addPersonZK",
      "outputs": [],
      "stateMutability": "nonpayable",
      "type": "function"
    },
    {
      "inputs": [
        {
          "internalType": "uint256",
          "name": "tokenId",
          "type": "uint256"
        },
        {
          "internalType": "uint256",
          "name": "chunkIndex",
          "type": "uint256"
        },
        {
          "internalType": "string",
          "name": "content",
          "type": "string"
        },
        {
          "internalType": "bytes32",
          "name": "expectedHash",
          "type": "bytes32"
        }
      ],
      "name": "addStoryChunk",
      "outputs": [],
      "stateMutability": "nonpayable",
      "type": "function"
    },
    {
      "inputs": [
        {
          "internalType": "address",
          "name": "to",
          "type": "address"
        },
        {
          "internalType": "uint256",
          "name": "tokenId",
          "type": "uint256"
        }
      ],
      "name": "approve",
      "outputs": [],
      "stateMutability": "nonpayable",
      "type": "function"
    },
    {
      "inputs": [
        {
          "internalType": "address",
          "name": "owner",
          "type": "address"
        }
      ],
      "name": "balanceOf",
      "outputs": [
        {
          "internalType": "uint256",
          "name": "",
          "type": "uint256"
        }
      ],
      "stateMutability": "view",
      "type": "function"
    },
    {
      "inputs": [
        {
          "internalType": "bytes32",
          "name": "",
          "type": "bytes32"
        },
        {
          "internalType": "uint256",
          "name": "",
          "type": "uint256"
        },
        {
          "internalType": "uint256",
          "name": "",
          "type": "uint256"
        }
      ],
      "name": "childrenOf",
      "outputs": [
        {
          "internalType": "bytes32",
          "name": "childHash",
          "type": "bytes32"
        },
        {
          "internalType": "uint256",
          "name": "childVersionIndex",
          "type": "uint256"
        }
      ],
      "stateMutability": "view",
      "type": "function"
    },
    {
      "inputs": [
        {
          "internalType": "bytes32",
          "name": "personHash",
          "type": "bytes32"
        },
        {
          "internalType": "uint256",
          "name": "versionIndex",
          "type": "uint256"
        }
      ],
      "name": "endorseVersion",
      "outputs": [],
      "stateMutability": "nonpayable",
      "type": "function"
    },
    {
      "inputs": [
        {
          "internalType": "bytes32",
          "name": "",
          "type": "bytes32"
        },
        {
          "internalType": "address",
          "name": "",
          "type": "address"
        }
      ],
      "name": "endorsedVersionIndex",
      "outputs": [
        {
          "internalType": "uint256",
          "name": "",
          "type": "uint256"
        }
      ],
      "stateMutability": "view",
      "type": "function"
    },
    {
      "inputs": [
        {
          "internalType": "uint256",
          "name": "tokenId",
          "type": "uint256"
        }
      ],
      "name": "getApproved",
      "outputs": [
        {
          "internalType": "address",
          "name": "",
          "type": "address"
        }
      ],
      "stateMutability": "view",
      "type": "function"
    },
    {
      "inputs": [
        {
          "internalType": "uint256",
          "name": "tokenId",
          "type": "uint256"
        }
      ],
      "name": "getNFTDetails",
      "outputs": [
        {
          "internalType": "bytes32",
          "name": "personHash",
          "type": "bytes32"
        },
        {
          "internalType": "uint256",
          "name": "versionIndex",
          "type": "uint256"
        },
        {
          "components": [
            {
              "internalType": "bytes32",
              "name": "personHash",
              "type": "bytes32"
            },
            {
              "internalType": "bytes32",
              "name": "fatherHash",
              "type": "bytes32"
            },
            {
              "internalType": "bytes32",
              "name": "motherHash",
              "type": "bytes32"
            },
            {
              "internalType": "uint256",
              "name": "versionIndex",
              "type": "uint256"
            },
            {
              "internalType": "uint256",
              "name": "fatherVersionIndex",
              "type": "uint256"
            },
            {
              "internalType": "uint256",
              "name": "motherVersionIndex",
              "type": "uint256"
            },
            {
              "internalType": "address",
              "name": "addedBy",
              "type": "address"
            },
            {
              "internalType": "uint96",
              "name": "timestamp",
              "type": "uint96"
            },
            {
              "internalType": "string",
              "name": "tag",
              "type": "string"
            },
            {
              "internalType": "string",
              "name": "metadataCID",
              "type": "string"
            }
          ],
          "internalType": "struct DeepFamily.PersonVersion",
          "name": "version",
          "type": "tuple"
        },
        {
          "components": [
            {
              "components": [
                {
                  "internalType": "bytes32",
                  "name": "fullNameCommitment",
                  "type": "bytes32"
                },
                {
                  "internalType": "bool",
                  "name": "isBirthBC",
                  "type": "bool"
                },
                {
                  "internalType": "uint16",
                  "name": "birthYear",
                  "type": "uint16"
                },
                {
                  "internalType": "uint8",
                  "name": "birthMonth",
                  "type": "uint8"
                },
                {
                  "internalType": "uint8",
                  "name": "birthDay",
                  "type": "uint8"
                },
                {
                  "internalType": "uint8",
                  "name": "gender",
                  "type": "uint8"
                }
              ],
              "internalType": "struct DeepFamily.PersonBasicInfo",
              "name": "basicInfo",
              "type": "tuple"
            },
            {
              "components": [
                {
                  "internalType": "string",
                  "name": "fullName",
                  "type": "string"
                },
                {
                  "internalType": "string",
                  "name": "birthPlace",
                  "type": "string"
                },
                {
                  "internalType": "bool",
                  "name": "isDeathBC",
                  "type": "bool"
                },
                {
                  "internalType": "uint16",
                  "name": "deathYear",
                  "type": "uint16"
                },
                {
                  "internalType": "uint8",
                  "name": "deathMonth",
                  "type": "uint8"
                },
                {
                  "internalType": "uint8",
                  "name": "deathDay",
                  "type": "uint8"
                },
                {
                  "internalType": "string",
                  "name": "deathPlace",
                  "type": "string"
                },
                {
                  "internalType": "string",
                  "name": "story",
                  "type": "string"
                }
              ],
              "internalType": "struct DeepFamily.PersonSupplementInfo",
              "name": "supplementInfo",
              "type": "tuple"
            }
          ],
          "internalType": "struct DeepFamily.PersonCoreInfo",
          "name": "coreInfo",
          "type": "tuple"
        },
        {
          "internalType": "uint256",
          "name": "endorsementCount",
          "type": "uint256"
        },
        {
          "internalType": "string",
          "name": "nftTokenURI",
          "type": "string"
        }
      ],
      "stateMutability": "view",
      "type": "function"
    },
    {
      "inputs": [
        {
          "components": [
            {
              "internalType": "bytes32",
              "name": "fullNameCommitment",
              "type": "bytes32"
            },
            {
              "internalType": "bool",
              "name": "isBirthBC",
              "type": "bool"
            },
            {
              "internalType": "uint16",
              "name": "birthYear",
              "type": "uint16"
            },
            {
              "internalType": "uint8",
              "name": "birthMonth",
              "type": "uint8"
            },
            {
              "internalType": "uint8",
              "name": "birthDay",
              "type": "uint8"
            },
            {
              "internalType": "uint8",
              "name": "gender",
              "type": "uint8"
            }
          ],
          "internalType": "struct DeepFamily.PersonBasicInfo",
          "name": "basicInfo",
          "type": "tuple"
        }
      ],
      "name": "getPersonHash",
      "outputs": [
        {
          "internalType": "bytes32",
          "name": "",
          "type": "bytes32"
        }
      ],
      "stateMutability": "pure",
      "type": "function"
    },
    {
      "inputs": [
        {
          "internalType": "uint256",
          "name": "tokenId",
          "type": "uint256"
        },
        {
          "internalType": "uint256",
          "name": "chunkIndex",
          "type": "uint256"
        }
      ],
      "name": "getStoryChunk",
      "outputs": [
        {
          "components": [
            {
              "internalType": "uint256",
              "name": "chunkIndex",
              "type": "uint256"
            },
            {
              "internalType": "bytes32",
              "name": "chunkHash",
              "type": "bytes32"
            },
            {
              "internalType": "string",
              "name": "content",
              "type": "string"
            },
            {
              "internalType": "uint256",
              "name": "timestamp",
              "type": "uint256"
            },
            {
              "internalType": "address",
              "name": "lastEditor",
              "type": "address"
            }
          ],
          "internalType": "struct DeepFamily.StoryChunk",
          "name": "chunk",
          "type": "tuple"
        }
      ],
      "stateMutability": "view",
      "type": "function"
    },
    {
      "inputs": [
        {
          "internalType": "uint256",
          "name": "tokenId",
          "type": "uint256"
        }
      ],
      "name": "getStoryMetadata",
      "outputs": [
        {
          "components": [
            {
              "internalType": "uint256",
              "name": "totalChunks",
              "type": "uint256"
            },
            {
              "internalType": "bytes32",
              "name": "fullStoryHash",
              "type": "bytes32"
            },
            {
              "internalType": "uint256",
              "name": "lastUpdateTime",
              "type": "uint256"
            },
            {
              "internalType": "bool",
              "name": "isSealed",
              "type": "bool"
            },
            {
              "internalType": "uint256",
              "name": "totalLength",
              "type": "uint256"
            }
          ],
          "internalType": "struct DeepFamily.StoryMetadata",
          "name": "metadata",
          "type": "tuple"
        }
      ],
      "stateMutability": "view",
      "type": "function"
    },
    {
      "inputs": [
        {
          "internalType": "bytes32",
          "name": "personHash",
          "type": "bytes32"
        },
        {
          "internalType": "uint256",
          "name": "versionIndex",
          "type": "uint256"
        }
      ],
      "name": "getVersionDetails",
      "outputs": [
        {
          "components": [
            {
              "internalType": "bytes32",
              "name": "personHash",
              "type": "bytes32"
            },
            {
              "internalType": "bytes32",
              "name": "fatherHash",
              "type": "bytes32"
            },
            {
              "internalType": "bytes32",
              "name": "motherHash",
              "type": "bytes32"
            },
            {
              "internalType": "uint256",
              "name": "versionIndex",
              "type": "uint256"
            },
            {
              "internalType": "uint256",
              "name": "fatherVersionIndex",
              "type": "uint256"
            },
            {
              "internalType": "uint256",
              "name": "motherVersionIndex",
              "type": "uint256"
            },
            {
              "internalType": "address",
              "name": "addedBy",
              "type": "address"
            },
            {
              "internalType": "uint96",
              "name": "timestamp",
              "type": "uint96"
            },
            {
              "internalType": "string",
              "name": "tag",
              "type": "string"
            },
            {
              "internalType": "string",
              "name": "metadataCID",
              "type": "string"
            }
          ],
          "internalType": "struct DeepFamily.PersonVersion",
          "name": "version",
          "type": "tuple"
        },
        {
          "internalType": "uint256",
          "name": "endorsementCount",
          "type": "uint256"
        },
        {
          "internalType": "uint256",
          "name": "tokenId",
          "type": "uint256"
        }
      ],
      "stateMutability": "view",
      "type": "function"
    },
    {
      "inputs": [
        {
          "internalType": "address",
          "name": "owner",
          "type": "address"
        },
        {
          "internalType": "address",
          "name": "operator",
          "type": "address"
        }
      ],
      "name": "isApprovedForAll",
      "outputs": [
        {
          "internalType": "bool",
          "name": "",
          "type": "bool"
        }
      ],
      "stateMutability": "view",
      "type": "function"
    },
    {
      "inputs": [
        {
          "internalType": "bytes32",
          "name": "parentHash",
          "type": "bytes32"
        },
        {
          "internalType": "uint256",
          "name": "parentVersionIndex",
          "type": "uint256"
        },
        {
          "internalType": "uint256",
          "name": "offset",
          "type": "uint256"
        },
        {
          "internalType": "uint256",
          "name": "limit",
          "type": "uint256"
        }
      ],
      "name": "listChildren",
      "outputs": [
        {
          "internalType": "bytes32[]",
          "name": "childHashes",
          "type": "bytes32[]"
        },
        {
          "internalType": "uint256[]",
          "name": "childVersionIndices",
          "type": "uint256[]"
        },
        {
          "internalType": "uint256",
          "name": "totalCount",
          "type": "uint256"
        },
        {
          "internalType": "bool",
          "name": "hasMore",
          "type": "bool"
        },
        {
          "internalType": "uint256",
          "name": "nextOffset",
          "type": "uint256"
        }
      ],
      "stateMutability": "view",
      "type": "function"
    },
    {
      "inputs": [
        {
          "internalType": "bytes32",
          "name": "personHash",
          "type": "bytes32"
        },
        {
          "internalType": "uint256",
          "name": "offset",
          "type": "uint256"
        },
        {
          "internalType": "uint256",
          "name": "limit",
          "type": "uint256"
        }
      ],
      "name": "listPersonVersions",
      "outputs": [
        {
          "components": [
            {
              "internalType": "bytes32",
              "name": "personHash",
              "type": "bytes32"
            },
            {
              "internalType": "bytes32",
              "name": "fatherHash",
              "type": "bytes32"
            },
            {
              "internalType": "bytes32",
              "name": "motherHash",
              "type": "bytes32"
            },
            {
              "internalType": "uint256",
              "name": "versionIndex",
              "type": "uint256"
            },
            {
              "internalType": "uint256",
              "name": "fatherVersionIndex",
              "type": "uint256"
            },
            {
              "internalType": "uint256",
              "name": "motherVersionIndex",
              "type": "uint256"
            },
            {
              "internalType": "address",
              "name": "addedBy",
              "type": "address"
            },
            {
              "internalType": "uint96",
              "name": "timestamp",
              "type": "uint96"
            },
            {
              "internalType": "string",
              "name": "tag",
              "type": "string"
            },
            {
              "internalType": "string",
              "name": "metadataCID",
              "type": "string"
            }
          ],
          "internalType": "struct DeepFamily.PersonVersion[]",
          "name": "versions",
          "type": "tuple[]"
        },
        {
          "internalType": "uint256",
          "name": "totalVersions",
          "type": "uint256"
        },
        {
          "internalType": "bool",
          "name": "hasMore",
          "type": "bool"
        },
        {
          "internalType": "uint256",
          "name": "nextOffset",
          "type": "uint256"
        }
      ],
      "stateMutability": "view",
      "type": "function"
    },
    {
      "inputs": [
        {
          "internalType": "uint256",
          "name": "tokenId",
          "type": "uint256"
        },
        {
          "internalType": "uint256",
          "name": "offset",
          "type": "uint256"
        },
        {
          "internalType": "uint256",
          "name": "limit",
          "type": "uint256"
        }
      ],
      "name": "listStoryChunks",
      "outputs": [
        {
          "components": [
            {
              "internalType": "uint256",
              "name": "chunkIndex",
              "type": "uint256"
            },
            {
              "internalType": "bytes32",
              "name": "chunkHash",
              "type": "bytes32"
            },
            {
              "internalType": "string",
              "name": "content",
              "type": "string"
            },
            {
              "internalType": "uint256",
              "name": "timestamp",
              "type": "uint256"
            },
            {
              "internalType": "address",
              "name": "lastEditor",
              "type": "address"
            }
          ],
          "internalType": "struct DeepFamily.StoryChunk[]",
          "name": "chunks",
          "type": "tuple[]"
        },
        {
          "internalType": "uint256",
          "name": "totalChunks",
          "type": "uint256"
        },
        {
          "internalType": "bool",
          "name": "hasMore",
          "type": "bool"
        },
        {
          "internalType": "uint256",
          "name": "nextOffset",
          "type": "uint256"
        }
      ],
      "stateMutability": "view",
      "type": "function"
    },
    {
      "inputs": [
        {
          "internalType": "uint256",
          "name": "tokenId",
          "type": "uint256"
        },
        {
          "internalType": "uint256",
          "name": "offset",
          "type": "uint256"
        },
        {
          "internalType": "uint256",
          "name": "limit",
          "type": "uint256"
        }
      ],
      "name": "listTokenURIHistory",
      "outputs": [
        {
          "internalType": "string[]",
          "name": "uris",
          "type": "string[]"
        },
        {
          "internalType": "uint256",
          "name": "totalCount",
          "type": "uint256"
        },
        {
          "internalType": "bool",
          "name": "hasMore",
          "type": "bool"
        },
        {
          "internalType": "uint256",
          "name": "nextOffset",
          "type": "uint256"
        }
      ],
      "stateMutability": "view",
      "type": "function"
    },
    {
      "inputs": [
        {
          "internalType": "bytes32",
          "name": "personHash",
          "type": "bytes32"
        },
        {
          "internalType": "uint256",
          "name": "offset",
          "type": "uint256"
        },
        {
          "internalType": "uint256",
          "name": "limit",
          "type": "uint256"
        }
      ],
      "name": "listVersionsEndorsementStats",
      "outputs": [
        {
          "internalType": "uint256[]",
          "name": "versionIndices",
          "type": "uint256[]"
        },
        {
          "internalType": "uint256[]",
          "name": "endorsementCounts",
          "type": "uint256[]"
        },
        {
          "internalType": "uint256[]",
          "name": "tokenIds",
          "type": "uint256[]"
        },
        {
          "internalType": "uint256",
          "name": "totalVersions",
          "type": "uint256"
        },
        {
          "internalType": "bool",
          "name": "hasMore",
          "type": "bool"
        },
        {
          "internalType": "uint256",
          "name": "nextOffset",
          "type": "uint256"
        }
      ],
      "stateMutability": "view",
      "type": "function"
    },
    {
      "inputs": [
        {
          "internalType": "uint256[2]",
          "name": "a",
          "type": "uint256[2]"
        },
        {
          "internalType": "uint256[2][2]",
          "name": "b",
          "type": "uint256[2][2]"
        },
        {
          "internalType": "uint256[2]",
          "name": "c",
          "type": "uint256[2]"
        },
        {
          "internalType": "uint256[4]",
          "name": "publicSignals",
          "type": "uint256[4]"
        },
        {
          "internalType": "bytes32",
          "name": "personHash",
          "type": "bytes32"
        },
        {
          "internalType": "uint256",
          "name": "versionIndex",
          "type": "uint256"
        },
        {
          "internalType": "string",
          "name": "_tokenURI",
          "type": "string"
        },
        {
          "components": [
            {
              "components": [
                {
                  "internalType": "bytes32",
                  "name": "fullNameCommitment",
                  "type": "bytes32"
                },
                {
                  "internalType": "bool",
                  "name": "isBirthBC",
                  "type": "bool"
                },
                {
                  "internalType": "uint16",
                  "name": "birthYear",
                  "type": "uint16"
                },
                {
                  "internalType": "uint8",
                  "name": "birthMonth",
                  "type": "uint8"
                },
                {
                  "internalType": "uint8",
                  "name": "birthDay",
                  "type": "uint8"
                },
                {
                  "internalType": "uint8",
                  "name": "gender",
                  "type": "uint8"
                }
              ],
              "internalType": "struct DeepFamily.PersonBasicInfo",
              "name": "basicInfo",
              "type": "tuple"
            },
            {
              "components": [
                {
                  "internalType": "string",
                  "name": "fullName",
                  "type": "string"
                },
                {
                  "internalType": "string",
                  "name": "birthPlace",
                  "type": "string"
                },
                {
                  "internalType": "bool",
                  "name": "isDeathBC",
                  "type": "bool"
                },
                {
                  "internalType": "uint16",
                  "name": "deathYear",
                  "type": "uint16"
                },
                {
                  "internalType": "uint8",
                  "name": "deathMonth",
                  "type": "uint8"
                },
                {
                  "internalType": "uint8",
                  "name": "deathDay",
                  "type": "uint8"
                },
                {
                  "internalType": "string",
                  "name": "deathPlace",
                  "type": "string"
                },
                {
                  "internalType": "string",
                  "name": "story",
                  "type": "string"
                }
              ],
              "internalType": "struct DeepFamily.PersonSupplementInfo",
              "name": "supplementInfo",
              "type": "tuple"
            }
          ],
          "internalType": "struct DeepFamily.PersonCoreInfo",
          "name": "coreInfo",
          "type": "tuple"
        }
      ],
      "name": "mintPersonNFT",
      "outputs": [],
      "stateMutability": "nonpayable",
      "type": "function"
    },
    {
      "inputs": [],
      "name": "name",
      "outputs": [
        {
          "internalType": "string",
          "name": "",
          "type": "string"
        }
      ],
      "stateMutability": "view",
      "type": "function"
    },
    {
      "inputs": [
        {
          "internalType": "uint256",
          "name": "",
          "type": "uint256"
        }
      ],
      "name": "nftCoreInfo",
      "outputs": [
        {
          "components": [
            {
              "internalType": "bytes32",
              "name": "fullNameCommitment",
              "type": "bytes32"
            },
            {
              "internalType": "bool",
              "name": "isBirthBC",
              "type": "bool"
            },
            {
              "internalType": "uint16",
              "name": "birthYear",
              "type": "uint16"
            },
            {
              "internalType": "uint8",
              "name": "birthMonth",
              "type": "uint8"
            },
            {
              "internalType": "uint8",
              "name": "birthDay",
              "type": "uint8"
            },
            {
              "internalType": "uint8",
              "name": "gender",
              "type": "uint8"
            }
          ],
          "internalType": "struct DeepFamily.PersonBasicInfo",
          "name": "basicInfo",
          "type": "tuple"
        },
        {
          "components": [
            {
              "internalType": "string",
              "name": "fullName",
              "type": "string"
            },
            {
              "internalType": "string",
              "name": "birthPlace",
              "type": "string"
            },
            {
              "internalType": "bool",
              "name": "isDeathBC",
              "type": "bool"
            },
            {
              "internalType": "uint16",
              "name": "deathYear",
              "type": "uint16"
            },
            {
              "internalType": "uint8",
              "name": "deathMonth",
              "type": "uint8"
            },
            {
              "internalType": "uint8",
              "name": "deathDay",
              "type": "uint8"
            },
            {
              "internalType": "string",
              "name": "deathPlace",
              "type": "string"
            },
            {
              "internalType": "string",
              "name": "story",
              "type": "string"
            }
          ],
          "internalType": "struct DeepFamily.PersonSupplementInfo",
          "name": "supplementInfo",
          "type": "tuple"
        }
      ],
      "stateMutability": "view",
      "type": "function"
    },
    {
      "inputs": [],
      "name": "owner",
      "outputs": [
        {
          "internalType": "address",
          "name": "",
          "type": "address"
        }
      ],
      "stateMutability": "view",
      "type": "function"
    },
    {
      "inputs": [
        {
          "internalType": "uint256",
          "name": "tokenId",
          "type": "uint256"
        }
      ],
      "name": "ownerOf",
      "outputs": [
        {
          "internalType": "address",
          "name": "",
          "type": "address"
        }
      ],
      "stateMutability": "view",
      "type": "function"
    },
    {
      "inputs": [
        {
          "internalType": "bytes32",
          "name": "",
          "type": "bytes32"
        },
        {
          "internalType": "uint256",
          "name": "",
          "type": "uint256"
        }
      ],
      "name": "personVersions",
      "outputs": [
        {
          "internalType": "bytes32",
          "name": "personHash",
          "type": "bytes32"
        },
        {
          "internalType": "bytes32",
          "name": "fatherHash",
          "type": "bytes32"
        },
        {
          "internalType": "bytes32",
          "name": "motherHash",
          "type": "bytes32"
        },
        {
          "internalType": "uint256",
          "name": "versionIndex",
          "type": "uint256"
        },
        {
          "internalType": "uint256",
          "name": "fatherVersionIndex",
          "type": "uint256"
        },
        {
          "internalType": "uint256",
          "name": "motherVersionIndex",
          "type": "uint256"
        },
        {
          "internalType": "address",
          "name": "addedBy",
          "type": "address"
        },
        {
          "internalType": "uint96",
          "name": "timestamp",
          "type": "uint96"
        },
        {
          "internalType": "string",
          "name": "tag",
          "type": "string"
        },
        {
          "internalType": "string",
          "name": "metadataCID",
          "type": "string"
        }
      ],
      "stateMutability": "view",
      "type": "function"
    },
    {
      "inputs": [],
      "name": "renounceOwnership",
      "outputs": [],
      "stateMutability": "nonpayable",
      "type": "function"
    },
    {
      "inputs": [
        {
          "internalType": "address",
          "name": "from",
          "type": "address"
        },
        {
          "internalType": "address",
          "name": "to",
          "type": "address"
        },
        {
          "internalType": "uint256",
          "name": "tokenId",
          "type": "uint256"
        }
      ],
      "name": "safeTransferFrom",
      "outputs": [],
      "stateMutability": "nonpayable",
      "type": "function"
    },
    {
      "inputs": [
        {
          "internalType": "address",
          "name": "from",
          "type": "address"
        },
        {
          "internalType": "address",
          "name": "to",
          "type": "address"
        },
        {
          "internalType": "uint256",
          "name": "tokenId",
          "type": "uint256"
        },
        {
          "internalType": "bytes",
          "name": "data",
          "type": "bytes"
        }
      ],
      "name": "safeTransferFrom",
      "outputs": [],
      "stateMutability": "nonpayable",
      "type": "function"
    },
    {
      "inputs": [
        {
          "internalType": "uint256",
          "name": "tokenId",
          "type": "uint256"
        }
      ],
      "name": "sealStory",
      "outputs": [],
      "stateMutability": "nonpayable",
      "type": "function"
    },
    {
      "inputs": [
        {
          "internalType": "address",
          "name": "operator",
          "type": "address"
        },
        {
          "internalType": "bool",
          "name": "approved",
          "type": "bool"
        }
      ],
      "name": "setApprovalForAll",
      "outputs": [],
      "stateMutability": "nonpayable",
      "type": "function"
    },
    {
      "inputs": [
        {
          "internalType": "uint256",
          "name": "",
          "type": "uint256"
        },
        {
          "internalType": "uint256",
          "name": "",
          "type": "uint256"
        }
      ],
      "name": "storyChunks",
      "outputs": [
        {
          "internalType": "uint256",
          "name": "chunkIndex",
          "type": "uint256"
        },
        {
          "internalType": "bytes32",
          "name": "chunkHash",
          "type": "bytes32"
        },
        {
          "internalType": "string",
          "name": "content",
          "type": "string"
        },
        {
          "internalType": "uint256",
          "name": "timestamp",
          "type": "uint256"
        },
        {
          "internalType": "address",
          "name": "lastEditor",
          "type": "address"
        }
      ],
      "stateMutability": "view",
      "type": "function"
    },
    {
      "inputs": [
        {
          "internalType": "uint256",
          "name": "",
          "type": "uint256"
        }
      ],
      "name": "storyMetadata",
      "outputs": [
        {
          "internalType": "uint256",
          "name": "totalChunks",
          "type": "uint256"
        },
        {
          "internalType": "bytes32",
          "name": "fullStoryHash",
          "type": "bytes32"
        },
        {
          "internalType": "uint256",
          "name": "lastUpdateTime",
          "type": "uint256"
        },
        {
          "internalType": "bool",
          "name": "isSealed",
          "type": "bool"
        },
        {
          "internalType": "uint256",
          "name": "totalLength",
          "type": "uint256"
        }
      ],
      "stateMutability": "view",
      "type": "function"
    },
    {
      "inputs": [
        {
          "internalType": "bytes4",
          "name": "interfaceId",
          "type": "bytes4"
        }
      ],
      "name": "supportsInterface",
      "outputs": [
        {
          "internalType": "bool",
          "name": "",
          "type": "bool"
        }
      ],
      "stateMutability": "view",
      "type": "function"
    },
    {
      "inputs": [],
      "name": "symbol",
      "outputs": [
        {
          "internalType": "string",
          "name": "",
          "type": "string"
        }
      ],
      "stateMutability": "view",
      "type": "function"
    },
    {
      "inputs": [
        {
          "internalType": "uint256",
          "name": "index",
          "type": "uint256"
        }
      ],
      "name": "tokenByIndex",
      "outputs": [
        {
          "internalType": "uint256",
          "name": "",
          "type": "uint256"
        }
      ],
      "stateMutability": "view",
      "type": "function"
    },
    {
      "inputs": [],
      "name": "tokenCounter",
      "outputs": [
        {
          "internalType": "uint256",
          "name": "",
          "type": "uint256"
        }
      ],
      "stateMutability": "view",
      "type": "function"
    },
    {
      "inputs": [
        {
          "internalType": "uint256",
          "name": "",
          "type": "uint256"
        }
      ],
      "name": "tokenIdToPerson",
      "outputs": [
        {
          "internalType": "bytes32",
          "name": "",
          "type": "bytes32"
        }
      ],
      "stateMutability": "view",
      "type": "function"
    },
    {
      "inputs": [
        {
          "internalType": "uint256",
          "name": "",
          "type": "uint256"
        }
      ],
      "name": "tokenIdToVersionIndex",
      "outputs": [
        {
          "internalType": "uint256",
          "name": "",
          "type": "uint256"
        }
      ],
      "stateMutability": "view",
      "type": "function"
    },
    {
      "inputs": [
        {
          "internalType": "address",
          "name": "owner",
          "type": "address"
        },
        {
          "internalType": "uint256",
          "name": "index",
          "type": "uint256"
        }
      ],
      "name": "tokenOfOwnerByIndex",
      "outputs": [
        {
          "internalType": "uint256",
          "name": "",
          "type": "uint256"
        }
      ],
      "stateMutability": "view",
      "type": "function"
    },
    {
      "inputs": [
        {
          "internalType": "uint256",
          "name": "tokenId",
          "type": "uint256"
        }
      ],
      "name": "tokenURI",
      "outputs": [
        {
          "internalType": "string",
          "name": "",
          "type": "string"
        }
      ],
      "stateMutability": "view",
      "type": "function"
    },
    {
      "inputs": [
        {
          "internalType": "uint256",
          "name": "",
          "type": "uint256"
        },
        {
          "internalType": "uint256",
          "name": "",
          "type": "uint256"
        }
      ],
      "name": "tokenURIHistory",
      "outputs": [
        {
          "internalType": "string",
          "name": "",
          "type": "string"
        }
      ],
      "stateMutability": "view",
      "type": "function"
    },
    {
      "inputs": [],
      "name": "totalPersonsCount",
      "outputs": [
        {
          "internalType": "uint256",
          "name": "",
          "type": "uint256"
        }
      ],
      "stateMutability": "view",
      "type": "function"
    },
    {
      "inputs": [],
      "name": "totalSupply",
      "outputs": [
        {
          "internalType": "uint256",
          "name": "",
          "type": "uint256"
        }
      ],
      "stateMutability": "view",
      "type": "function"
    },
    {
      "inputs": [
        {
          "internalType": "address",
          "name": "from",
          "type": "address"
        },
        {
          "internalType": "address",
          "name": "to",
          "type": "address"
        },
        {
          "internalType": "uint256",
          "name": "tokenId",
          "type": "uint256"
        }
      ],
      "name": "transferFrom",
      "outputs": [],
      "stateMutability": "nonpayable",
      "type": "function"
    },
    {
      "inputs": [
        {
          "internalType": "address",
          "name": "newOwner",
          "type": "address"
        }
      ],
      "name": "transferOwnership",
      "outputs": [],
      "stateMutability": "nonpayable",
      "type": "function"
    },
    {
      "inputs": [
        {
          "internalType": "uint256",
          "name": "tokenId",
          "type": "uint256"
        },
        {
          "internalType": "uint256",
          "name": "chunkIndex",
          "type": "uint256"
        },
        {
          "internalType": "string",
          "name": "newContent",
          "type": "string"
        },
        {
          "internalType": "bytes32",
          "name": "expectedHash",
          "type": "bytes32"
        }
      ],
      "name": "updateStoryChunk",
      "outputs": [],
      "stateMutability": "nonpayable",
      "type": "function"
    },
    {
      "inputs": [
        {
          "internalType": "uint256",
          "name": "tokenId",
          "type": "uint256"
        },
        {
          "internalType": "string",
          "name": "newURI",
          "type": "string"
        }
      ],
      "name": "updateTokenURI",
      "outputs": [],
      "stateMutability": "nonpayable",
      "type": "function"
    },
    {
      "inputs": [
        {
          "internalType": "bytes32",
          "name": "",
          "type": "bytes32"
        },
        {
          "internalType": "uint256",
          "name": "",
          "type": "uint256"
        }
      ],
      "name": "versionEndorsementCount",
      "outputs": [
        {
          "internalType": "uint256",
          "name": "",
          "type": "uint256"
        }
      ],
      "stateMutability": "view",
      "type": "function"
    },
    {
      "inputs": [
        {
          "internalType": "bytes32",
          "name": "",
          "type": "bytes32"
        },
        {
          "internalType": "bytes32",
          "name": "",
          "type": "bytes32"
        }
      ],
      "name": "versionExists",
      "outputs": [
        {
          "internalType": "bool",
          "name": "",
          "type": "bool"
        }
      ],
      "stateMutability": "view",
      "type": "function"
    },
    {
      "inputs": [
        {
          "internalType": "bytes32",
          "name": "",
          "type": "bytes32"
        },
        {
          "internalType": "uint256",
          "name": "",
          "type": "uint256"
        }
      ],
      "name": "versionToTokenId",
      "outputs": [
        {
          "internalType": "uint256",
          "name": "",
          "type": "uint256"
        }
      ],
      "stateMutability": "view",
      "type": "function"
    },
    {
      "stateMutability": "payable",
      "type": "receive"
    }
  ],
  "bytecode": "0x60e06040523480156200001157600080fd5b5060405162006ad538038062006ad58339810160408190526200003491620001df565b336040518060400160405280600a8152602001694465657046616d696c7960b01b8152506040518060400160405280600681526020016546616d696c7960d01b8152508160009081620000889190620002ce565b506001620000978282620002ce565b5050506001600160a01b038116620000c957604051631e4fbdf760e01b81526000600482015260240160405180910390fd5b620000d48162000170565b506001600b556001600160a01b0383166200010257604051634c32eccd60e11b815260040160405180910390fd5b6001600160a01b0382166200012a57604051635fce01bb60e01b815260040160405180910390fd5b6001600160a01b038116620001525760405163abd45c1f60e01b815260040160405180910390fd5b6001600160a01b0392831660805290821660a0521660c0526200039a565b600a80546001600160a01b038381166001600160a01b0319831681179093556040519116919082907f8be0079c531659141344cd1fd0a4f28419497f9722a3daafe3b4186f6b6457e090600090a35050565b80516001600160a01b0381168114620001da57600080fd5b919050565b600080600060608486031215620001f557600080fd5b6200020084620001c2565b92506200021060208501620001c2565b91506200022060408501620001c2565b90509250925092565b634e487b7160e01b600052604160045260246000fd5b600181811c908216806200025457607f821691505b6020821081036200027557634e487b7160e01b600052602260045260246000fd5b50919050565b601f821115620002c957600081815260208120601f850160051c81016020861015620002a45750805b601f850160051c820191505b81811015620002c557828155600101620002b0565b5050505b505050565b81516001600160401b03811115620002ea57620002ea62000229565b6200030281620002fb84546200023f565b846200027b565b602080601f8311600181146200033a5760008415620003215750858301515b600019600386901b1c1916600185901b178555620002c5565b600085815260208120601f198616915b828110156200036b578886015182559484019460019091019084016200034a565b50858210156200038a5787850151600019600388901b60f8161c191681555b5050505050600190811b01905550565b60805160a05160c0516166e8620003ed6000396000818161054e01526120fb015260008181610aa701526130eb015260008181610b8c015281816132ac015281816133fd01526146a601526166e86000f3fe60806040526004361061038f5760003560e01c80637189567c116101dc578063bd7eef2311610102578063d596b1b0116100a0578063f2fde38b1161006f578063f2fde38b14610c64578063f74faf6614610c84578063fe980dd614610cbc578063fe9c3c0514610cee576103ad565b8063d596b1b014610bae578063dbcdc08f14610be6578063e985e9c514610c17578063f1fad06714610c37576103ad565b8063c87b56dd116100dc578063c87b56dd14610b24578063c893eb5614610b44578063d082e38114610b64578063d1486a1b14610b7a576103ad565b8063bd7eef2314610ac9578063c090fba214610adf578063c841eb1f14610b0e576103ad565b806395d89b411161017a578063b570b2ab11610149578063b570b2ab14610a35578063b5c7198d14610a55578063b88d4fde14610a75578063bcecdf1d14610a95576103ad565b806395d89b41146109c0578063a22cb465146109d5578063a92c6ad6146109f5578063b0ac331f14610a15576103ad565b806382260f35116101b657806382260f35146108c957806383af7191146108fb5780638da5cb5b146109725780638f2360b314610990576103ad565b80637189567c1461082f57806376f0f85d14610893578063797e57e5146108a9576103ad565b80632f745c59116102c1578063538ffa0b1161025f578063690a76bf1161022e578063690a76bf146107ad5780636be9cd02146107da57806370a08231146107fa578063715018a61461081a576103ad565b8063538ffa0b146106f957806357611dfb146107265780636352211e1461075757806367b9b3e114610777576103ad565b806342842e0e1161029b57806342842e0e1461065e578063431a342a1461067e57806346cdf869146106b95780634f6ccce7146106d9576103ad565b80632f745c59146105ee5780632f8afa611461060e5780633791b66a1461062e576103ad565b8063164e38ee1161032e5780631d5d7be9116103085780631d5d7be91461053c57806323b872dd14610570578063278d5fce1461059057806328273a2a146105be576103ad565b8063164e38ee146104d257806318160ddd1461050757806318e97fd11461051c576103ad565b806307b8fe9c1161036a57806307b8fe9c146103c6578063081812fc14610440578063095ea7b3146104785780631516fa251461049a576103ad565b8062eee6a1146103c657806301ffc9a7146103ee57806306fdde031461041e576103ad565b366103ad5760405163af9f22fb60e01b815260040160405180910390fd5b60405163af9f22fb60e01b815260040160405180910390fd5b3480156103d257600080fd5b506103db606481565b6040519081526020015b60405180910390f35b3480156103fa57600080fd5b5061040e61040936600461518d565b610d0e565b60405190151581526020016103e5565b34801561042a57600080fd5b50610433610d39565b6040516103e591906151fa565b34801561044c57600080fd5b5061046061045b36600461520d565b610dcb565b6040516001600160a01b0390911681526020016103e5565b34801561048457600080fd5b50610498610493366004615242565b610df4565b005b3480156104a657600080fd5b506103db6104b536600461526c565b601a60209081526000928352604080842090915290825290205481565b3480156104de57600080fd5b506104f26104ed36600461528e565b610e03565b604080519283526020830191909152016103e5565b34801561051357600080fd5b506008546103db565b34801561052857600080fd5b50610498610537366004615302565b610e4d565b34801561054857600080fd5b506104607f000000000000000000000000000000000000000000000000000000000000000081565b34801561057c57600080fd5b5061049861058b36600461534d565b610ffa565b34801561059c57600080fd5b506105b06105ab36600461520d565b61108a565b6040516103e5929190615493565b3480156105ca57600080fd5b506105de6105d936600461528e565b611393565b6040516103e59493929190615504565b3480156105fa57600080fd5b506103db610609366004615242565b6115f4565b34801561061a57600080fd5b50610498610629366004615577565b611659565b34801561063a57600080fd5b5061064e61064936600461528e565b611675565b6040516103e59493929190615618565b34801561066a57600080fd5b5061049861067936600461534d565b61184b565b34801561068a57600080fd5b5061040e61069936600461526c565b600e60209081526000928352604080842090915290825290205460ff1681565b3480156106c557600080fd5b506104986106d436600461566f565b61186b565b3480156106e557600080fd5b506103db6106f436600461520d565b611a7d565b34801561070557600080fd5b506103db61071436600461520d565b60126020526000908152604090205481565b34801561073257600080fd5b506107466107413660046156c9565b611ad6565b6040516103e5959493929190615736565b34801561076357600080fd5b5061046061077236600461520d565b611ce9565b34801561078357600080fd5b5061079761079236600461526c565b611cf4565b6040516103e59a999897969594939291906157a2565b3480156107b957600080fd5b506103db6107c836600461520d565b60116020526000908152604090205481565b3480156107e657600080fd5b506104986107f5366004615840565b611e8e565b34801561080657600080fd5b506103db61081536600461590e565b6123a6565b34801561082657600080fd5b506104986123ee565b34801561083b57600080fd5b5061084f61084a36600461520d565b612402565b6040516103e59190600060a0820190508251825260208301516020830152604083015160408301526060830151151560608301526080830151608083015292915050565b34801561089f57600080fd5b506103db61010081565b3480156108b557600080fd5b506104986108c436600461520d565b6124b5565b3480156108d557600080fd5b506108e96108e436600461520d565b6125a3565b6040516103e5969594939291906159d8565b34801561090757600080fd5b5061094861091636600461520d565b6017602052600090815260409020805460018201546002830154600384015460049094015492939192909160ff169085565b6040805195865260208601949094529284019190915215156060830152608082015260a0016103e5565b34801561097e57600080fd5b50600a546001600160a01b0316610460565b34801561099c57600080fd5b506109b06109ab36600461528e565b612b4e565b6040516103e59493929190615a4b565b3480156109cc57600080fd5b50610433612e2b565b3480156109e157600080fd5b506104986109f0366004615ab0565b612e3a565b348015610a0157600080fd5b506103db610a1036600461526c565b612e45565b348015610a2157600080fd5b50610498610a3036600461566f565b612e76565b348015610a4157600080fd5b50610498610a50366004615ae7565b6130af565b348015610a6157600080fd5b50610498610a7036600461526c565b61321a565b348015610a8157600080fd5b50610498610a90366004615c02565b613586565b348015610aa157600080fd5b506104607f000000000000000000000000000000000000000000000000000000000000000081565b348015610ad557600080fd5b506103db600d5481565b348015610aeb57600080fd5b50610aff610afa36600461526c565b61359e565b6040516103e593929190615cc1565b348015610b1a57600080fd5b506103db6103e881565b348015610b3057600080fd5b50610433610b3f36600461520d565b61381b565b348015610b5057600080fd5b506103db610b5f366004615d05565b6138c5565b348015610b7057600080fd5b506103db60105481565b348015610b8657600080fd5b506104607f000000000000000000000000000000000000000000000000000000000000000081565b348015610bba57600080fd5b506103db610bc936600461526c565b601660209081526000928352604080842090915290825290205481565b348015610bf257600080fd5b50610c06610c0136600461526c565b613a4f565b6040516103e5959493929190615da6565b348015610c2357600080fd5b5061040e610c32366004615de7565b613b1b565b348015610c4357600080fd5b50610c57610c5236600461526c565b613b49565b6040516103e59190615e1a565b348015610c7057600080fd5b50610498610c7f36600461590e565b613caf565b348015610c9057600080fd5b506103db610c9f366004615e2d565b600f60209081526000928352604080842090915290825290205481565b348015610cc857600080fd5b50610cdc610cd736600461528e565b613ced565b6040516103e596959493929190615e50565b348015610cfa57600080fd5b50610433610d0936600461526c565b613f1d565b60006001600160e01b0319821663780e9d6360e01b1480610d335750610d3382613fd6565b92915050565b606060008054610d4890615ea8565b80601f0160208091040260200160405190810160405280929190818152602001828054610d7490615ea8565b8015610dc15780601f10610d9657610100808354040283529160200191610dc1565b820191906000526020600020905b815481529060010190602001808311610da457829003601f168201915b5050505050905090565b6000610dd682614026565b506000828152600460205260409020546001600160a01b0316610d33565b610dff82823361405e565b5050565b601b6020528260005260406000206020528160005260406000208181548110610e2b57600080fd5b6000918252602090912060029091020180546001909101549093509150839050565b33610e578461406b565b6001600160a01b031614610e7e5760405163daffd8a560e01b815260040160405180910390fd5b610100811115610ea1576040516313f04adb60e01b815260040160405180910390fd5b60008381526014602052604081208054610eba90615ea8565b80601f0160208091040260200160405190810160405280929190818152602001828054610ee690615ea8565b8015610f335780601f10610f0857610100808354040283529160200191610f33565b820191906000526020600020905b815481529060010190602001808311610f1657829003601f168201915b50505050509050600081511115610f6e57600084815260156020908152604082208054600181018255908352912001610f6c8282615f3d565b505b610fae8484848080601f01602080910402602001604051908101604052809392919081815260200183838082843760009201919091525061408692505050565b336001600160a01b0316847f121742bae49dddcfbb9763fd1170f0dbc15b13707126182671611bbeeeae7cd8838686604051610fec9392919061601f565b60405180910390a350505050565b6001600160a01b03821661102957604051633250574960e11b8152600060048201526024015b60405180910390fd5b600061103683833361409e565b9050836001600160a01b0316816001600160a01b031614611084576040516364283d7b60e01b81526001600160a01b0380861660048301526024820184905282166044820152606401611020565b50505050565b601360209081526000918252604091829020825160c08101845281548152600182015460ff80821615159483019490945261010080820461ffff168387015263010000008204851660608401526401000000008204851660808401526501000000000090910490931660a082015283519283019093526002810180549192918290829061111690615ea8565b80601f016020809104026020016040519081016040528092919081815260200182805461114290615ea8565b801561118f5780601f106111645761010080835404028352916020019161118f565b820191906000526020600020905b81548152906001019060200180831161117257829003601f168201915b505050505081526020016001820180546111a890615ea8565b80601f01602080910402602001604051908101604052809291908181526020018280546111d490615ea8565b80156112215780601f106111f657610100808354040283529160200191611221565b820191906000526020600020905b81548152906001019060200180831161120457829003601f168201915b5050509183525050600282015460ff8082161515602084015261ffff6101008304166040840152630100000082048116606084015264010000000090910416608082015260038201805460a09092019161127a90615ea8565b80601f01602080910402602001604051908101604052809291908181526020018280546112a690615ea8565b80156112f35780601f106112c8576101008083540402835291602001916112f3565b820191906000526020600020905b8154815290600101906020018083116112d657829003601f168201915b5050505050815260200160048201805461130c90615ea8565b80601f016020809104026020016040519081016040528092919081815260200182805461133890615ea8565b80156113855780601f1061135a57610100808354040283529160200191611385565b820191906000526020600020905b81548152906001019060200180831161136857829003601f168201915b505050505081525050905082565b60606000808086816113a48261406b565b6001600160a01b0316036113cb576040516307ed98ed60e31b815260040160405180910390fd5b600088815260176020526040812080549550906113e9868a8a614175565b90508060400151600003611443576040805160008082526020820190925290611428565b611415615030565b81526020019060019003908161140d5790505b508682608001518360600151965096509650965050506115ea565b80604001516001600160401b0381111561145f5761145f615bbc565b60405190808252806020026020018201604052801561149857816020015b611485615030565b81526020019060019003908161147d5790505b50965060005b81604001518110156115d75760008b815260186020526040812083519091906114c890849061605b565b81526020019081526020016000206040518060a0016040529081600082015481526020016001820154815260200160028201805461150590615ea8565b80601f016020809104026020016040519081016040528092919081815260200182805461153190615ea8565b801561157e5780601f106115535761010080835404028352916020019161157e565b820191906000526020600020905b81548152906001019060200180831161156157829003601f168201915b5050509183525050600382015460208201526004909101546001600160a01b031660409091015288518990839081106115b9576115b961606e565b602002602001018190525080806115cf90616084565b91505061149e565b5060808101516060909101519094509250505b5093509350935093565b60006115ff836123a6565b82106116305760405163295f44f760e21b81526001600160a01b038416600482015260248101839052604401611020565b506001600160a01b03919091166000908152600660209081526040808320938352929052205490565b61166a898989898989898989614275565b505050505050505050565b600083815260156020526040812080546060929091819081611698858989614175565b905080604001516000036116ec5760408051600080825260208201909252906116d1565b60608152602001906001900390816116bc5790505b50858260800151836060015195509550955095505050611842565b80604001516001600160401b0381111561170857611708615bbc565b60405190808252806020026020018201604052801561173b57816020015b60608152602001906001900390816117265790505b50955060005b816040015181101561182f578151839061175c90839061605b565b8154811061176c5761176c61606e565b90600052602060002001805461178190615ea8565b80601f01602080910402602001604051908101604052809291908181526020018280546117ad90615ea8565b80156117fa5780601f106117cf576101008083540402835291602001916117fa565b820191906000526020600020905b8154815290600101906020018083116117dd57829003601f168201915b50505050508782815181106118115761181161606e565b6020026020010181905250808061182790616084565b915050611741565b5060808101516060909101519093509150505b93509350935093565b61186683838360405180602001604052806000815250613586565b505050565b611873614778565b3361187d8661406b565b6001600160a01b0316146118a45760405163daffd8a560e01b815260040160405180910390fd5b6000858152601760205260409020600381015460ff16156118d857604051631fcb6b9160e01b815260040160405180910390fd5b805485106118f957604051637df0b86160e01b815260040160405180910390fd5b82158061190757506103e883115b1561192557604051630ef9fbf360e21b815260040160405180910390fd5b600086815260186020908152604080832088845282528083208151601f8801849004840281018401909252868252929161197a919088908890819084018382808284376000920191909152506147a292505050565b9050831580159061198b5750838114155b156119a95760405163016c02f160e61b815260040160405180910390fd5b6001820154600283018054600091906119c190615ea8565b60018601859055915050600284016119da888a8361609d565b504260038501819055600480860180546001600160a01b0319163317905560028701919091558501548790611a10908390616156565b611a1a919061605b565b6004860155611a288a6147d2565b604080518381526020810185905233918b918d917f065c2222316af985857085b11b199dc175990521803ca44d2ab1a4ef4c0ea6ef910160405180910390a45050505050611a766001600b55565b5050505050565b6000611a8860085490565b8210611ab15760405163295f44f760e21b81526000600482015260248101839052604401611020565b60088281548110611ac457611ac461606e565b90600052602060002001549050919050565b60608060008080888881611afd5760405163e5d242ed60e01b815260040160405180910390fd5b801580611b1757506000828152600c602052604090205481115b15611b3557604051630dd4272d60e41b815260040160405180910390fd5b60008b8152601b602090815260408083208d845290915281208054965090611b5e878c8c614175565b90508060400151600003611b9f57604080516000808252602082019081528183019092526080830151606090930151909a509098509095509350611cdc9050565b80604001516001600160401b03811115611bbb57611bbb615bbc565b604051908082528060200260200182016040528015611be4578160200160208202803683370190505b50985080604001516001600160401b03811115611c0357611c03615bbc565b604051908082528060200260200182016040528015611c2c578160200160208202803683370190505b50975060005b8160400151811015611cc957600083828460000151611c51919061605b565b81548110611c6157611c6161606e565b9060005260206000209060020201905080600001548b8381518110611c8857611c8861606e565b60200260200101818152505080600101548a8381518110611cab57611cab61606e565b60209081029190910101525080611cc181616084565b915050611c32565b5060808101516060909101519095509350505b5050945094509450945094565b6000610d3382614026565b600c6020528160005260406000208181548110611d1057600080fd5b600091825260209091206009909102018054600182015460028301546003840154600485015460058601546006870154600788018054979a5095985093969295919490936001600160a01b03811693600160a01b9091046001600160601b031692909190611d7d90615ea8565b80601f0160208091040260200160405190810160405280929190818152602001828054611da990615ea8565b8015611df65780601f10611dcb57610100808354040283529160200191611df6565b820191906000526020600020905b815481529060010190602001808311611dd957829003601f168201915b505050505090806008018054611e0b90615ea8565b80601f0160208091040260200160405190810160405280929190818152602001828054611e3790615ea8565b8015611e845780601f10611e5957610100808354040283529160200191611e84565b820191906000526020600020905b815481529060010190602001808311611e6757829003601f168201915b505050505090508a565b611e96614778565b848481611eb65760405163e5d242ed60e01b815260040160405180910390fd5b801580611ed057506000828152600c602052604090205481115b15611eee57604051630dd4272d60e41b815260040160405180910390fd5b6000611efb600188616156565b600089815260166020908152604080832084845290915290205490915015611f3657604051634028e5e560e11b815260040160405180910390fd5b6000888152600f602090815260408083203384529091529020548714611f6f5760405163786bb09f60e11b815260040160405180910390fd5b610100851115611f92576040516313f04adb60e01b815260040160405180910390fd5b611f9f60c0850185616169565b611fa99080616189565b9050600003611fcb57604051635f895cef60e11b815260040160405180910390fd5b610100611fdb60c0860186616169565b611fe59080616189565b9050111561200657604051635f895cef60e11b815260040160405180910390fd5b61010061201660c0860186616169565b6120249060e0810190616189565b905011156120455760405163f283c51960e01b815260040160405180910390fd5b61010061205560c0860186616169565b612063906020810190616189565b90501115612084576040516367181a3960e11b815260040160405180910390fd5b61010061209460c0860186616169565b6120a29060c0810190616189565b905011156120c357604051633769847160e01b815260040160405180910390fd5b60006120d7610b5f36879003870187615d05565b90508881146120f957604051632f38f48f60e21b815260040160405180910390fd5b7f00000000000000000000000000000000000000000000000000000000000000006001600160a01b0316635fe8c13b8e8e8e8e6040518563ffffffff1660e01b815260040161214b94939291906161f3565b602060405180830381865afa158015612168573d6000803e3d6000fd5b505050506040513d601f19601f8201168201806040525081019061218c9190616224565b6121a9576040516303b2487b60e11b815260040160405180910390fd5b60006121be8b358c60015b602002013561489a565b9050853581146121e157604051632f38f48f60e21b815260040160405180910390fd5b60006121f360408d01358d60036121b4565b9050600061224b61220760c08a018a616169565b6122119080616189565b8080601f0160208091040260200160405190810160405280939291908181526020018383808284376000920191909152506147a292505050565b905081811461226d57604051632f38f48f60e21b815260040160405180910390fd5b600060106000815461227e90616084565b9182905550905061228f33826148da565b6122cf818c8c8080601f01602080910402602001604051908101604052809392919081815260200183838082843760009201919091525061408692505050565b8c60116000838152602001908152602001600020819055508b601260008381526020019081526020016000208190555080601660008f8152602001908152602001600020600088815260200190815260200160002081905550886013600083815260200190815260200160002081816123489190616421565b905050336001600160a01b0316818e7fbce71c21e84db5e7dca78ea57ad63b6c66f74f74efc25e33592370ecf39e093b8f8f8f4260405161238c949392919061650a565b60405180910390a4505050505050505061166a6001600b55565b60006001600160a01b0382166123d2576040516322718ad960e21b815260006004820152602401611020565b506001600160a01b031660009081526003602052604090205490565b6123f66148f4565b6124006000614921565b565b6040805160a0810182526000808252602082018190529181018290526060810182905260808101919091528160006124398261406b565b6001600160a01b031603612460576040516307ed98ed60e31b815260040160405180910390fd5b5050600090815260176020908152604091829020825160a08101845281548152600182015492810192909252600281015492820192909252600382015460ff1615156060820152600490910154608082015290565b336124bf8261406b565b6001600160a01b0316146124e65760405163daffd8a560e01b815260040160405180910390fd5b6000818152601760205260409020600381015460ff161561251a57604051631fcb6b9160e01b815260040160405180910390fd5b805460000361253c57604051637dc66bf560e11b815260040160405180910390fd5b60038101805460ff19166001908117909155426002830155815490820154604051339285927f896066547269dcd0db6295ca6c7f14f927d692103e47c7615259469b74bc7b5d92612597929190918252602082015260400190565b60405180910390a35050565b6000806125ae61506b565b6125b66150c1565b60006060816125c48861406b565b6001600160a01b0316036125eb576040516307ed98ed60e31b815260040160405180910390fd5b60008781526011602052604090205495508561261a576040516307ed98ed60e31b815260040160405180910390fd5b6000878152601260205260408120549550612636600187616156565b6000888152600c602052604090208054919250908290811061265a5761265a61606e565b600091825260209182902060408051610140810182526009909302909101805483526001810154938301939093526002830154908201526003820154606082015260048201546080820152600582015460a082015260068201546001600160a01b03811660c08301526001600160601b03600160a01b9091041660e0820152600782018054919291610100840191906126f290615ea8565b80601f016020809104026020016040519081016040528092919081815260200182805461271e90615ea8565b801561276b5780601f106127405761010080835404028352916020019161276b565b820191906000526020600020905b81548152906001019060200180831161274e57829003601f168201915b5050505050815260200160088201805461278490615ea8565b80601f01602080910402602001604051908101604052809291908181526020018280546127b090615ea8565b80156127fd5780601f106127d2576101008083540402835291602001916127fd565b820191906000526020600020905b8154815290600101906020018083116127e057829003601f168201915b50505091909252505050600089815260136020908152604091829020825161010080820185528254828601908152600184015460ff8082161515606086015261ffff84830416608086015263010000008204811660a08601526401000000008204811660c0860152650100000000009091041660e084015282528451908101909452600282018054959a509094919392850192918290829061289e90615ea8565b80601f01602080910402602001604051908101604052809291908181526020018280546128ca90615ea8565b80156129175780601f106128ec57610100808354040283529160200191612917565b820191906000526020600020905b8154815290600101906020018083116128fa57829003601f168201915b5050505050815260200160018201805461293090615ea8565b80601f016020809104026020016040519081016040528092919081815260200182805461295c90615ea8565b80156129a95780601f1061297e576101008083540402835291602001916129a9565b820191906000526020600020905b81548152906001019060200180831161298c57829003601f168201915b5050509183525050600282015460ff8082161515602084015261ffff6101008304166040840152630100000082048116606084015264010000000090910416608082015260038201805460a090920191612a0290615ea8565b80601f0160208091040260200160405190810160405280929190818152602001828054612a2e90615ea8565b8015612a7b5780601f10612a5057610100808354040283529160200191612a7b565b820191906000526020600020905b815481529060010190602001808311612a5e57829003601f168201915b50505050508152602001600482018054612a9490615ea8565b80601f0160208091040260200160405190810160405280929190818152602001828054612ac090615ea8565b8015612b0d5780601f10612ae257610100808354040283529160200191612b0d565b820191906000526020600020905b815481529060010190602001808311612af057829003601f168201915b505050919092525050509052506000888152601a602090815260408083208584529091529020549094509250612b428861381b565b91505091939550919395565b6000838152600c6020526040812080546060929091819081612b71858989614175565b90508060400151600003612bc95760408051600080825260208201909252906116d1565b612b9d61506b565b815260200190600190039081612b95575050608082015160609092015190965090935091506118429050565b80604001516001600160401b03811115612be557612be5615bbc565b604051908082528060200260200182016040528015612c1e57816020015b612c0b61506b565b815260200190600190039081612c035790505b50955060005b816040015181101561182f5781518390612c3f90839061605b565b81548110612c4f57612c4f61606e565b600091825260209182902060408051610140810182526009909302909101805483526001810154938301939093526002830154908201526003820154606082015260048201546080820152600582015460a082015260068201546001600160a01b03811660c08301526001600160601b03600160a01b9091041660e082015260078201805491929161010084019190612ce790615ea8565b80601f0160208091040260200160405190810160405280929190818152602001828054612d1390615ea8565b8015612d605780601f10612d3557610100808354040283529160200191612d60565b820191906000526020600020905b815481529060010190602001808311612d4357829003601f168201915b50505050508152602001600882018054612d7990615ea8565b80601f0160208091040260200160405190810160405280929190818152602001828054612da590615ea8565b8015612df25780601f10612dc757610100808354040283529160200191612df2565b820191906000526020600020905b815481529060010190602001808311612dd557829003601f168201915b505050505081525050878281518110612e0d57612e0d61606e565b60200260200101819052508080612e2390616084565b915050612c24565b606060018054610d4890615ea8565b610dff338383614973565b60196020528160005260406000208181548110612e6157600080fd5b90600052602060002001600091509150505481565b612e7e614778565b33612e888661406b565b6001600160a01b031614612eaf5760405163daffd8a560e01b815260040160405180910390fd5b811580612ebd57506103e882115b15612edb57604051630ef9fbf360e21b815260040160405180910390fd5b6000858152601760205260409020600381015460ff1615612f0f57604051631fcb6b9160e01b815260040160405180910390fd5b8054606411612f3157604051637df0b86160e01b815260040160405180910390fd5b80548514612f5257604051637df0b86160e01b815260040160405180910390fd5b6000612f9385858080601f0160208091040260200160405190810160405280939291908181526020018383808284376000920191909152506147a292505050565b90508215801590612fa45750828114155b15612fc25760405163016c02f160e61b815260040160405180910390fd5b600087815260186020908152604080832089845290915290208681556001810182905560028101612ff486888361609d565b504260038201556004810180546001600160a01b03191633179055825461301c90600161605b565b8355426002840155600483015461303490869061605b565b6004840155600088815260196020908152604082208054600181018255908352912001879055613063886147d2565b6040805183815260208101879052339189918b917f9a8c5a1082b04a31158c2062cc003f0764f93a8614a3643f01df8346f0c39f8d910160405180910390a4505050611a766001600b55565b60c08701353381146130d4576040516303b2487b60e11b815260040160405180910390fd5b60405163c894e75760e01b81526001600160a01b037f0000000000000000000000000000000000000000000000000000000000000000169063c894e75790613126908e908e908e908e90600401616535565b602060405180830381865afa158015613143573d6000803e3d6000fd5b505050506040513d601f19601f820116820180604052508101906131679190616224565b613184576040516303b2487b60e11b815260040160405180910390fd5b600061319b6131968a358b60016121b4565b614a12565b905060006131b261319660408c01358c60036121b4565b905060006131c961319660808d01358d60056121b4565b604051909150339084907f3015fe19dc9f8f0d942de39092410a57589dd94d2c9134719335fe04e3695eca90600090a361320a8383838d8d8d8d8d8d614275565b5050505050505050505050505050565b81818161323a5760405163e5d242ed60e01b815260040160405180910390fd5b80158061325457506000828152600c602052604090205481115b1561327257604051630dd4272d60e41b815260040160405180910390fd5b6000848152600f602090815260408083203384529091529020548381036132995750611084565b60006132a6600186616156565b905060007f00000000000000000000000000000000000000000000000000000000000000006001600160a01b0316636bf90c716040518163ffffffff1660e01b8152600401602060405180830381865afa158015613308573d6000803e3d6000fd5b505050506040513d601f19601f8201168201806040525081019061332c9190616566565b90508015613491576000878152600c602052604081208054849081106133545761335461606e565b600091825260208083208b84526016825260408085208886529092529083205460099092020192509081156133be57600061338e8361406b565b90506001600160a01b038116156133a7578091506133b8565b60068401546001600160a01b031691505b506133ce565b5060068201546001600160a01b03165b6040516323b872dd60e01b81523360048201526001600160a01b038281166024830152604482018690526000917f0000000000000000000000000000000000000000000000000000000000000000909116906323b872dd906064016020604051808303816000875af1158015613448573d6000803e3d6000fd5b505050506040513d601f19601f8201168201806040525081019061346c9190616224565b90508061348c57604051635da1e97760e11b815260040160405180910390fd5b505050505b82156134f05760006134a4600185616156565b6000898152601a6020908152604080832084845290915290205490915080156134ed576134d2600182616156565b60008a8152601a602090815260408083208684529091529020555b50505b6000878152601a60209081526040808320858452909152812080546001929061351a90849061605b565b90915550506000878152600f6020908152604080832033808552908352928190208990558051898152918201849052429082015288907f55e71c43a79fd68c0c9f416c70da96b84745f57bf4c2456beb089b4ad7bb3ac89060600160405180910390a350505050505050565b613591848484610ffa565b6110843385858585614a27565b6135a661506b565b6000808484816135c95760405163e5d242ed60e01b815260040160405180910390fd5b8015806135e357506000828152600c602052604090205481115b1561360157604051630dd4272d60e41b815260040160405180910390fd5b600061360e600188616156565b6000898152600c60205260409020805491925090829081106136325761363261606e565b600091825260209182902060408051610140810182526009909302909101805483526001810154938301939093526002830154908201526003820154606082015260048201546080820152600582015460a082015260068201546001600160a01b03811660c08301526001600160601b03600160a01b9091041660e0820152600782018054919291610100840191906136ca90615ea8565b80601f01602080910402602001604051908101604052809291908181526020018280546136f690615ea8565b80156137435780601f1061371857610100808354040283529160200191613743565b820191906000526020600020905b81548152906001019060200180831161372657829003601f168201915b5050505050815260200160088201805461375c90615ea8565b80601f016020809104026020016040519081016040528092919081815260200182805461378890615ea8565b80156137d55780601f106137aa576101008083540402835291602001916137d5565b820191906000526020600020905b8154815290600101906020018083116137b857829003601f168201915b505050919092525050506000898152601a602090815260408083208584528252808320549b83526016825280832094835293905291909120549098909650945050505050565b606061382682614026565b506000828152601460205260409020805461384090615ea8565b80601f016020809104026020016040519081016040528092919081815260200182805461386c90615ea8565b80156138b95780601f1061388e576101008083540402835291602001916138b9565b820191906000526020600020905b81548152906001019060200180831161389c57829003601f168201915b50505050509050919050565b80516000906138e757604051635f895cef60e11b815260040160405180910390fd5b600c826060015160ff161115613910576040516348c5148960e11b815260040160405180910390fd5b601f826080015160ff161115613939576040516309eabf7d60e21b815260040160405180910390fd5b81516020830151608082901c916fffffffffffffffffffffffffffffffff169060009061396757600061396a565b60015b60ff1660018660a0015160ff16901b6008876080015160ff16901b6010886060015160ff16901b6018896040015161ffff16901b1717171790506139ac615159565b838152602081018390526040808201839052516320cf0a3760e01b815260009073__$fc5a2451f3e054f75c2faf9b3818033d8b$__906320cf0a37906139f690859060040161657f565b602060405180830381865af4158015613a13573d6000803e3d6000fd5b505050506040513d601f19601f82011682018060405250810190613a379190616566565b905080613a4381614a12565b98975050505050505050565b601860209081526000928352604080842090915290825290208054600182015460028301805492939192613a8290615ea8565b80601f0160208091040260200160405190810160405280929190818152602001828054613aae90615ea8565b8015613afb5780601f10613ad057610100808354040283529160200191613afb565b820191906000526020600020905b815481529060010190602001808311613ade57829003601f168201915b5050505060038301546004909301549192916001600160a01b0316905085565b6001600160a01b03918216600090815260056020908152604080832093909416825291909152205460ff1690565b613b51615030565b826000613b5d8261406b565b6001600160a01b031603613b84576040516307ed98ed60e31b815260040160405180910390fd5b600084815260176020526040902080548410613bb357604051637df0b86160e01b815260040160405180910390fd5b6018600086815260200190815260200160002060008581526020019081526020016000206040518060a00160405290816000820154815260200160018201548152602001600282018054613c0690615ea8565b80601f0160208091040260200160405190810160405280929190818152602001828054613c3290615ea8565b8015613c7f5780601f10613c5457610100808354040283529160200191613c7f565b820191906000526020600020905b815481529060010190602001808311613c6257829003601f168201915b5050509183525050600382015460208201526004909101546001600160a01b031660409091015295945050505050565b613cb76148f4565b6001600160a01b038116613ce157604051631e4fbdf760e01b815260006004820152602401611020565b613cea81614921565b50565b6000838152600c6020526040812054606091829182918080613d10848a8a614175565b90508060400151600003613d5957604080516000808252602082018181528284019182526060808401909452608085015194909301519199509197509095509092509050613f11565b80604001516001600160401b03811115613d7557613d75615bbc565b604051908082528060200260200182016040528015613d9e578160200160208202803683370190505b50965080604001516001600160401b03811115613dbd57613dbd615bbc565b604051908082528060200260200182016040528015613de6578160200160208202803683370190505b50955080604001516001600160401b03811115613e0557613e05615bbc565b604051908082528060200260200182016040528015613e2e578160200160208202803683370190505b50945060005b8160400151811015613eff578151600090613e5090839061605b565b9050613e5d81600161605b565b898381518110613e6f57613e6f61606e565b60209081029190910181019190915260008d8152601a8252604080822084835290925220548851899084908110613ea857613ea861606e565b60209081029190910181019190915260008d815260168252604080822084835290925220548751889084908110613ee157613ee161606e565b60209081029190910101525080613ef781616084565b915050613e34565b50608081015160609091015190925090505b93975093979195509350565b60156020528160005260406000208181548110613f3957600080fd5b90600052602060002001600091509150508054613f5590615ea8565b80601f0160208091040260200160405190810160405280929190818152602001828054613f8190615ea8565b8015613fce5780601f10613fa357610100808354040283529160200191613fce565b820191906000526020600020905b815481529060010190602001808311613fb157829003601f168201915b505050505081565b60006001600160e01b031982166380ac58cd60e01b148061400757506001600160e01b03198216635b5e139f60e01b145b80610d3357506301ffc9a760e01b6001600160e01b0319831614610d33565b6000806140328361406b565b90506001600160a01b038116610d3357604051637e27328960e01b815260048101849052602401611020565b6118668383836001614b51565b6000908152600260205260409020546001600160a01b031690565b60008281526014602052604090206118668282615f3d565b6000806140ac858585614c57565b90506001600160a01b0381166141095761410484600880546000838152600960205260408120829055600182018355919091527ff3f7a9fe364faab93b216da50a3214154f22a0a2b415b23a84c8169e8b636ee30155565b61412c565b846001600160a01b0316816001600160a01b03161461412c5761412c8185614d4b565b6001600160a01b0385166141485761414384614dcc565b61416b565b846001600160a01b0316816001600160a01b03161461416b5761416b8585614e7b565b90505b9392505050565b6141a96040518060a00160405280600081526020016000815260200160008152602001600081526020016000151581525090565b60648211156141cb57604051630327a73960e61b815260040160405180910390fd5b8115806141d85750838310155b1561421c576040518060a001604052808481526020018481526020016000815260200185851015614209578461420b565b855b81526000602090910152905061416e565b6000614228838561605b565b9050848111156142355750835b6040518060a0016040528085815260200182815260200185836142589190616156565b815260200182815260200186831015158152509150509392505050565b61010083111561429857604051635fab396360e11b815260040160405180910390fd5b6101008111156142bb57604051630601a0fb60e51b815260040160405180910390fd5b6000888152600c60205260409020548611156142ea57604051631f9510eb60e01b815260040160405180910390fd5b6000878152600c60205260409020548511156143195760405163782ce69f60e01b815260040160405180910390fd5b60008989898989898960405160200161433897969594939291906165b0565b60408051601f19818403018152918152815160209283012060008d8152600e845282812082825290935291205490915060ff1615614389576040516314396b6760e11b815260040160405180910390fd5b60008a8152600e602090815260408083208484528252808320805460ff191660011790558c8352600c82528083208151610140810183528e81528084018e90528083018d90526060810194909452608084018b905260a084018a90523360c08501526001600160601b03421660e08501528151601f89018490048402810184019092528782529291610100830191908990899081908401838280828437600092019190915250505090825250604080516020601f8801819004810282018101909252868152918101919087908790819084018382808284376000920182905250939094525050835460018181018655948252602091829020845160099092020190815590830151938101939093555060408101516002830155606081015160038301556080810151600483015560a0810151600583015560c081015160e08201516001600160601b0316600160a01b026001600160a01b0390911617600683015561010081015190919060078201906145029082615f3d565b5061012082015160088201906145189082615f3d565b50505060008a8152600c602052604090208054908190614539600183616156565b815481106145495761454961606e565b600091825260209091206003600990920201015589156145b05760008a8152601b602090815260408083208b8452825280832081518083019092528e8252818301858152815460018181018455928652939094209151600290930290910191825591519101555b8815614603576000898152601b602090815260408083208a8452825280832081518083019092528e8252818301858152815460018181018455928652939094209151600290930290910191825591519101555b8060010361462157600d805490600061461b83616084565b91905055505b336001600160a01b0316818c7ff24ca8fe8e48960e559267341f81e7b0f07746d1e98c729930fe251bd2875484428e8d8f8e8e8e60405161466897969594939291906165e6565b60405180910390a46146798a614ecb565b8015614689575061468989614ecb565b1561476b576040516335313c2160e11b81523360048201526000907f00000000000000000000000000000000000000000000000000000000000000006001600160a01b031690636a627842906024016020604051808303816000875af11580156146f7573d6000803e3d6000fd5b505050506040513d601f19601f8201168201806040525081019061471b9190616566565b9050801561476957818c336001600160a01b03167fdefc43c3e9b037326c59d7c3f29c0b6b5c94a6fbfcced006b763e74a3115da6d8460405161476091815260200190565b60405180910390a45b505b5050505050505050505050565b6002600b540361479b57604051633ee5aeb560e01b815260040160405180910390fd5b6002600b55565b6000816040516020016147b59190616618565b604051602081830303815290604052805190602001209050919050565b60008181526017602090815260408083206019909252822080549192909190036148025750600060019091015550565b606060005b82548110156148845760008382815481106148245761482461606e565b600091825260208083209091015488835260188252604080842082855283529283902060010154925190935061485e91869184910161662a565b60405160208183030381529060405293505050808061487c90616084565b915050614807565b5080516020909101206001909201919091555050565b6000608083901c1515806148b15750608082901c15155b156148cf576040516303b2487b60e11b815260040160405180910390fd5b5060809190911b1790565b610dff828260405180602001604052806000815250614eec565b600a546001600160a01b031633146124005760405163118cdaa760e01b8152336004820152602401611020565b600a80546001600160a01b038381166001600160a01b0319831681179093556040519116919082907f8be0079c531659141344cd1fd0a4f28419497f9722a3daafe3b4186f6b6457e090600090a35050565b6001600160a01b0382166149a557604051630b61174360e31b81526001600160a01b0383166004820152602401611020565b6001600160a01b03838116600081815260056020908152604080832094871680845294825291829020805460ff191686151590811790915591519182527f17307eab39ab6107e8899845ad3d59bd9653f200f220920489ca2b5937696c31910160405180910390a3505050565b6000816040516020016147b591815260200190565b6001600160a01b0383163b15611a7657604051630a85bd0160e11b81526001600160a01b0384169063150b7a0290614a6990889088908790879060040161664c565b6020604051808303816000875af1925050508015614aa4575060408051601f3d908101601f19168201909252614aa19181019061667f565b60015b614b0d573d808015614ad2576040519150601f19603f3d011682016040523d82523d6000602084013e614ad7565b606091505b508051600003614b0557604051633250574960e11b81526001600160a01b0385166004820152602401611020565b805160208201fd5b6001600160e01b03198116630a85bd0160e11b14614b4957604051633250574960e11b81526001600160a01b0385166004820152602401611020565b505050505050565b8080614b6557506001600160a01b03821615155b15614c27576000614b7584614026565b90506001600160a01b03831615801590614ba15750826001600160a01b0316816001600160a01b031614155b8015614bb45750614bb28184613b1b565b155b15614bdd5760405163a9fbf51f60e01b81526001600160a01b0384166004820152602401611020565b8115614c255783856001600160a01b0316826001600160a01b03167f8c5be1e5ebec7d5bd14f71427d1e84f3dd0314c0f7b2291e5b200ac8c7c3b92560405160405180910390a45b505b5050600090815260046020526040902080546001600160a01b0319166001600160a01b0392909216919091179055565b600080614c638461406b565b90506001600160a01b03831615614c7f57614c7f818486614f04565b6001600160a01b03811615614cbd57614c9c600085600080614b51565b6001600160a01b038116600090815260036020526040902080546000190190555b6001600160a01b03851615614cec576001600160a01b0385166000908152600360205260409020805460010190555b60008481526002602052604080822080546001600160a01b0319166001600160a01b0389811691821790925591518793918516917fddf252ad1be2c89b69c2b068fc378daa952ba7f163c4a11628f55a4df523b3ef91a4949350505050565b6000614d56836123a6565b6000838152600760209081526040808320546001600160a01b0388168452600690925290912091925090818314614dad57600083815260208281526040808320548584528184208190558352600790915290208290555b6000938452600760209081526040808620869055938552525081205550565b600854600090614dde90600190616156565b60008381526009602052604081205460088054939450909284908110614e0657614e0661606e565b906000526020600020015490508060088381548110614e2757614e2761606e565b6000918252602080832090910192909255828152600990915260408082208490558582528120556008805480614e5f57614e5f61669c565b6001900381819060005260206000200160009055905550505050565b60006001614e88846123a6565b614e929190616156565b6001600160a01b039093166000908152600660209081526040808320868452825280832085905593825260079052919091209190915550565b60008115801590610d335750506000908152600c6020526040902054151590565b614ef68383614f68565b611866336000858585614a27565b614f0f838383614fcd565b611866576001600160a01b038316614f3d57604051637e27328960e01b815260048101829052602401611020565b60405163177e802f60e01b81526001600160a01b038316600482015260248101829052604401611020565b6001600160a01b038216614f9257604051633250574960e11b815260006004820152602401611020565b6000614fa08383600061409e565b90506001600160a01b03811615611866576040516339e3563760e11b815260006004820152602401611020565b60006001600160a01b0383161580159061416b5750826001600160a01b0316846001600160a01b0316148061500757506150078484613b1b565b8061416b5750506000908152600460205260409020546001600160a01b03908116911614919050565b6040518060a001604052806000815260200160008019168152602001606081526020016000815260200160006001600160a01b031681525090565b604080516101408101825260008082526020820181905291810182905260608082018390526080820183905260a0820183905260c0820183905260e0820192909252610100810182905261012081019190915290565b60408051610100810182526000918101828152606082018390526080820183905260a0820183905260c0820183905260e082019290925290819081526020016151546040518061010001604052806060815260200160608152602001600015158152602001600061ffff168152602001600060ff168152602001600060ff16815260200160608152602001606081525090565b905290565b60405180606001604052806003906020820280368337509192915050565b6001600160e01b031981168114613cea57600080fd5b60006020828403121561519f57600080fd5b813561416e81615177565b60005b838110156151c55781810151838201526020016151ad565b50506000910152565b600081518084526151e68160208601602086016151aa565b601f01601f19169290920160200192915050565b60208152600061416e60208301846151ce565b60006020828403121561521f57600080fd5b5035919050565b80356001600160a01b038116811461523d57600080fd5b919050565b6000806040838503121561525557600080fd5b61525e83615226565b946020939093013593505050565b6000806040838503121561527f57600080fd5b50508035926020909101359150565b6000806000606084860312156152a357600080fd5b505081359360208301359350604090920135919050565b60008083601f8401126152cc57600080fd5b5081356001600160401b038111156152e357600080fd5b6020830191508360208285010111156152fb57600080fd5b9250929050565b60008060006040848603121561531757600080fd5b8335925060208401356001600160401b0381111561533457600080fd5b615340868287016152ba565b9497909650939450505050565b60008060006060848603121561536257600080fd5b61536b84615226565b925061537960208501615226565b9150604084013590509250925092565b8051825260208101511515602083015261ffff604082015116604083015260ff606082015116606083015260ff608082015116608083015260ff60a08201511660a08301525050565b600061010082518185526153e8828601826151ce565b9150506020830151848203602086015261540282826151ce565b9150506040830151615418604086018215159052565b50606083015161542e606086018261ffff169052565b506080830151615443608086018260ff169052565b5060a083015161545860a086018260ff169052565b5060c083015184820360c086015261547082826151ce565b91505060e083015184820360e086015261548a82826151ce565b95945050505050565b61549d8184615389565b60e060c0820152600061416b60e08301846153d2565b80518252602081015160208301526000604082015160a060408501526154dc60a08501826151ce565b606084810151908601526080938401516001600160a01b031693909401929092525090919050565b6000608082016080835280875180835260a08501915060a08160051b86010192506020808a0160005b8381101561555b57609f198887030185526155498683516154b3565b9550938201939082019060010161552d565b5050850197909752509315156040830152506060015292915050565b600080600080600080600080600060e08a8c03121561559557600080fd5b8935985060208a0135975060408a0135965060608a0135955060808a0135945060a08a01356001600160401b03808211156155cf57600080fd5b6155db8d838e016152ba565b909650945060c08c01359150808211156155f457600080fd5b506156018c828d016152ba565b915080935050809150509295985092959850929598565b6000608082016080835280875180835260a08501915060a08160051b86010192506020808a0160005b8381101561555b57609f1988870301855261565d8683516151ce565b95509382019390820190600101615641565b60008060008060006080868803121561568757600080fd5b853594506020860135935060408601356001600160401b038111156156ab57600080fd5b6156b7888289016152ba565b96999598509660600135949350505050565b600080600080608085870312156156df57600080fd5b5050823594602084013594506040840135936060013592509050565b600081518084526020808501945080840160005b8381101561572b5781518752958201959082019060010161570f565b509495945050505050565b60a0808252865190820181905260009060209060c0840190828a01845b8281101561576f57815184529284019290840190600101615753565b5050508381038285015261578381896156fb565b6040850197909752505050911515606083015260809091015292915050565b60006101408c83528b60208401528a60408401528960608401528860808401528760a084015260018060a01b03871660c08401526001600160601b03861660e0840152806101008401526157f8818401866151ce565b905082810361012084015261580d81856151ce565b9d9c50505050505050505050505050565b8060408101831015610d3357600080fd5b8060808101831015610d3357600080fd5b60008060008060008060008060006102008a8c03121561585f57600080fd5b6158698b8b61581e565b98506158788b60408c0161582f565b97506158878b60c08c0161581e565b96506158978b6101008c0161582f565b95506101808a013594506101a08a013593506101c08a01356001600160401b03808211156158c457600080fd5b6158d08d838e016152ba565b90955093506101e08c01359150808211156158ea57600080fd5b508a0160e0818d0312156158fd57600080fd5b809150509295985092959850929598565b60006020828403121561592057600080fd5b61416e82615226565b6000610140825184526020830151602085015260408301516040850152606083015160608501526080830151608085015260a083015160a085015260c083015161597e60c08601826001600160a01b03169052565b5060e083015161599960e08601826001600160601b03169052565b506101008084015182828701526159b2838701826151ce565b9250505061012080840151858303828701526159ce83826151ce565b9695505050505050565b86815285602082015260c0604082015260006159f760c0830187615929565b8281036060840152615a0a818751615389565b602086015160e060c0830152615a2360e08301826153d2565b91505084608084015282810360a0840152615a3e81856151ce565b9998505050505050505050565b6000608082016080835280875180835260a08501915060a08160051b86010192506020808a0160005b8381101561555b57609f19888703018552615a90868351615929565b95509382019390820190600101615a74565b8015158114613cea57600080fd5b60008060408385031215615ac357600080fd5b615acc83615226565b91506020830135615adc81615aa2565b809150509250929050565b6000806000806000806000806000806102608b8d031215615b0757600080fd5b615b118c8c61581e565b9950615b208c60408d0161582f565b9850615b2f8c60c08d0161581e565b97506101e08b018c811115615b4357600080fd5b6101008c0197503595506102008b013594506102208b01356001600160401b0380821115615b7057600080fd5b615b7c8e838f016152ba565b90965094506102408d0135915080821115615b9657600080fd5b50615ba38d828e016152ba565b915080935050809150509295989b9194979a5092959850565b634e487b7160e01b600052604160045260246000fd5b604051601f8201601f191681016001600160401b0381118282101715615bfa57615bfa615bbc565b604052919050565b60008060008060808587031215615c1857600080fd5b615c2185615226565b93506020615c30818701615226565b93506040860135925060608601356001600160401b0380821115615c5357600080fd5b818801915088601f830112615c6757600080fd5b813581811115615c7957615c79615bbc565b615c8b601f8201601f19168501615bd2565b91508082528984828501011115615ca157600080fd5b808484018584013760008482840101525080935050505092959194509250565b606081526000615cd46060830186615929565b60208301949094525060400152919050565b61ffff81168114613cea57600080fd5b60ff81168114613cea57600080fd5b600060c08284031215615d1757600080fd5b60405160c081018181106001600160401b0382111715615d3957615d39615bbc565b604052823581526020830135615d4e81615aa2565b60208201526040830135615d6181615ce6565b60408201526060830135615d7481615cf6565b60608201526080830135615d8781615cf6565b608082015260a0830135615d9a81615cf6565b60a08201529392505050565b85815284602082015260a060408201526000615dc560a08301866151ce565b6060830194909452506001600160a01b03919091166080909101529392505050565b60008060408385031215615dfa57600080fd5b615e0383615226565b9150615e1160208401615226565b90509250929050565b60208152600061416e60208301846154b3565b60008060408385031215615e4057600080fd5b82359150615e1160208401615226565b60c081526000615e6360c08301896156fb565b8281036020840152615e7581896156fb565b90508281036040840152615e8981886156fb565b60608401969096525050911515608083015260a0909101529392505050565b600181811c90821680615ebc57607f821691505b602082108103615edc57634e487b7160e01b600052602260045260246000fd5b50919050565b601f82111561186657600081815260208120601f850160051c81016020861015615f095750805b601f850160051c820191505b81811015614b4957828155600101615f15565b600019600383901b1c191660019190911b1790565b81516001600160401b03811115615f5657615f56615bbc565b615f6a81615f648454615ea8565b84615ee2565b602080601f831160018114615f995760008415615f875750858301515b615f918582615f28565b865550614b49565b600085815260208120601f198616915b82811015615fc857888601518255948401946001909101908401615fa9565b5085821015615fe65787850151600019600388901b60f8161c191681555b5050505050600190811b01905550565b81835281816020850137506000828201602090810191909152601f909101601f19169091010190565b60408152600061603260408301866151ce565b82810360208401526159ce818587615ff6565b634e487b7160e01b600052601160045260246000fd5b80820180821115610d3357610d33616045565b634e487b7160e01b600052603260045260246000fd5b60006001820161609657616096616045565b5060010190565b6001600160401b038311156160b4576160b4615bbc565b6160c8836160c28354615ea8565b83615ee2565b6000601f8411600181146160f657600085156160e45750838201355b6160ee8682615f28565b845550611a76565b600083815260209020601f19861690835b828110156161275786850135825560209485019460019092019101616107565b50868210156161445760001960f88860031b161c19848701351681555b505060018560011b0183555050505050565b81810381811115610d3357610d33616045565b6000823560fe1983360301811261617f57600080fd5b9190910192915050565b6000808335601e198436030181126161a057600080fd5b8301803591506001600160401b038211156161ba57600080fd5b6020019150368190038213156152fb57600080fd5b8060005b6002811015611084576040808386379384019391909101906001016161d3565b6101808101604086833761620a60408301866161cf565b60408460c084013760808361010084013795945050505050565b60006020828403121561623657600080fd5b815161416e81615aa2565b60008135610d3381615aa2565b60008135610d3381615ce6565b60008135610d3381615cf6565b6162728283616189565b6001600160401b0381111561628957616289615bbc565b61629d816162978554615ea8565b85615ee2565b6000601f8211600181146162cb57600083156162b95750838201355b6162c38482615f28565b865550616325565b600085815260209020601f19841690835b828110156162fc57868501358255602094850194600190920191016162dc565b50848210156163195760001960f88660031b161c19848701351681555b505060018360011b0185555b505050506163366020830183616189565b61634481836001860161609d565b50506002810161636d61635960408501616241565b825490151560ff1660ff1991909116178255565b61639461637c6060850161624e565b825462ffff00191660089190911b62ffff0016178255565b6163bd6163a36080850161625b565b825463ff000000191660189190911b63ff00000016178255565b6163e86163cc60a0850161625b565b825464ff00000000191660209190911b64ff0000000016178255565b506163f660c0830183616189565b61640481836003860161609d565b505061641360e0830183616189565b61108481836004860161609d565b8135815560018101602083013561643781615aa2565b815460ff191660ff8215151617825550604083013561645581615ce6565b815462ffff001916600882901b62ffff001617825550606083013561647981615cf6565b815463ff0000001916601882901b63ff0000001617825550608083013561649f81615cf6565b815464ff000000001916602082901b64ff00000000161782555060a08301356164c781615cf6565b815465ff0000000000191660289190911b65ff00000000001617905560c08201353683900360fe190181126164fb57600080fd5b61186681840160028401616268565b848152606060208201526000616524606083018587615ff6565b905082604083015295945050505050565b6101e08101604086833761654c60408301866161cf565b60408460c084013760e08361010084013795945050505050565b60006020828403121561657857600080fd5b5051919050565b60608101818360005b60038110156165a7578151835260209283019290910190600101616588565b50505092915050565b878152866020820152856040820152846060820152836080820152818360a08301376000910160a0019081529695505050505050565b87815286602082015285604082015284606082015283608082015260c060a08201526000615a3e60c083018486615ff6565b6000825161617f8184602087016151aa565b6000835161663c8184602088016151aa565b9190910191825250602001919050565b6001600160a01b03858116825284166020820152604081018390526080606082018190526000906159ce908301846151ce565b60006020828403121561669157600080fd5b815161416e81615177565b634e487b7160e01b600052603160045260246000fdfea2646970667358221220cdd12474f575f7be4e3c5bc8b4686607150cf2356a97b1a25006398600028ea964736f6c63430008140033",
  "linkReferences": {
    "poseidon-solidity/PoseidonT4.sol": {
      "PoseidonT4": [
        {
          "length": 20,
          "start": 15803
        }
      ]
    }
  },
  "deployedLinkReferences": {
    "poseidon-solidity/PoseidonT4.sol": {
      "PoseidonT4": [
        {
          "length": 20,
          "start": 14798
        }
      ]
    }
  }
}